{
  "_format": "hh-sol-artifact-1",
  "contractName": "Aqueduct",
  "sourceName": "contracts/Aqueduct.sol",
  "abi": [
    {
      "inputs": [
        {
          "internalType": "uint256",
          "name": "communityDuration",
          "type": "uint256"
        },
        {
          "internalType": "address",
          "name": "_owner",
          "type": "address"
        }
      ],
      "payable": false,
      "stateMutability": "nonpayable",
      "type": "constructor"
    },
    {
      "anonymous": false,
      "inputs": [
        {
          "indexed": false,
          "internalType": "address",
          "name": "recipient",
          "type": "address"
        },
        {
          "indexed": false,
          "internalType": "uint256",
          "name": "amount",
          "type": "uint256"
        },
        {
          "indexed": false,
          "internalType": "uint256",
          "name": "timestamp",
          "type": "uint256"
        }
      ],
      "name": "Distribution",
      "type": "event"
    },
    {
      "constant": true,
      "inputs": [],
      "name": "RBCN",
      "outputs": [
        {
          "internalType": "contract RBCNInterface",
          "name": "",
          "type": "address"
        }
      ],
      "payable": false,
      "stateMutability": "view",
      "type": "function"
    },
    {
      "constant": true,
      "inputs": [],
      "name": "RBCNAddress",
      "outputs": [
        {
          "internalType": "address",
          "name": "",
          "type": "address"
        }
      ],
      "payable": false,
      "stateMutability": "view",
      "type": "function"
    },
    {
      "constant": true,
      "inputs": [],
      "name": "RubiconMarketAddress",
      "outputs": [
        {
          "internalType": "address",
          "name": "",
          "type": "address"
        }
      ],
      "payable": false,
      "stateMutability": "view",
      "type": "function"
    },
    {
      "constant": false,
      "inputs": [
        {
          "internalType": "address",
          "name": "maker",
          "type": "address"
        },
        {
          "internalType": "address",
          "name": "taker",
          "type": "address"
        }
      ],
      "name": "distributeToMakerAndTaker",
      "outputs": [
        {
          "internalType": "bool",
          "name": "",
          "type": "bool"
        }
      ],
      "payable": false,
      "stateMutability": "nonpayable",
      "type": "function"
    },
    {
      "constant": true,
      "inputs": [],
      "name": "distributionDuration",
      "outputs": [
        {
          "internalType": "uint256",
          "name": "",
          "type": "uint256"
        }
      ],
      "payable": false,
      "stateMutability": "view",
      "type": "function"
    },
    {
      "constant": true,
      "inputs": [],
      "name": "getPropToMakers",
      "outputs": [
        {
          "internalType": "uint256",
          "name": "",
          "type": "uint256"
        }
      ],
      "payable": false,
      "stateMutability": "view",
      "type": "function"
    },
    {
      "constant": true,
      "inputs": [],
      "name": "getRBCNAddress",
      "outputs": [
        {
          "internalType": "address",
          "name": "",
          "type": "address"
        }
      ],
      "payable": false,
      "stateMutability": "view",
      "type": "function"
    },
    {
      "constant": true,
      "inputs": [],
      "name": "isExchange",
      "outputs": [
        {
          "internalType": "bool",
          "name": "",
          "type": "bool"
        }
      ],
      "payable": false,
      "stateMutability": "view",
      "type": "function"
    },
    {
      "constant": true,
      "inputs": [],
      "name": "isOwner",
      "outputs": [
        {
          "internalType": "bool",
          "name": "",
          "type": "bool"
        }
      ],
      "payable": false,
      "stateMutability": "view",
      "type": "function"
    },
    {
      "constant": true,
      "inputs": [],
      "name": "owner",
      "outputs": [
        {
          "internalType": "address",
          "name": "",
          "type": "address"
        }
      ],
      "payable": false,
      "stateMutability": "view",
      "type": "function"
    },
    {
      "constant": true,
      "inputs": [],
      "name": "propToMakers",
      "outputs": [
        {
          "internalType": "uint256",
          "name": "",
          "type": "uint256"
        }
      ],
      "payable": false,
      "stateMutability": "view",
      "type": "function"
    },
    {
      "constant": false,
      "inputs": [
        {
          "internalType": "address",
          "name": "_RBCNAddress",
          "type": "address"
        },
        {
          "internalType": "address",
          "name": "RubiconMarket",
          "type": "address"
        }
      ],
      "name": "setDistributionParams",
      "outputs": [
        {
          "internalType": "bool",
          "name": "",
          "type": "bool"
        }
      ],
      "payable": false,
      "stateMutability": "nonpayable",
      "type": "function"
    },
    {
      "constant": false,
      "inputs": [
        {
          "internalType": "address",
          "name": "newImplementation",
          "type": "address"
        }
      ],
      "name": "setNewExchange",
      "outputs": [
        {
          "internalType": "bool",
          "name": "",
          "type": "bool"
        }
      ],
      "payable": false,
      "stateMutability": "nonpayable",
      "type": "function"
    },
    {
      "constant": false,
      "inputs": [
        {
          "internalType": "address",
          "name": "newOwner",
          "type": "address"
        }
      ],
      "name": "setOwner",
      "outputs": [
        {
          "internalType": "bool",
          "name": "",
          "type": "bool"
        }
      ],
      "payable": false,
      "stateMutability": "nonpayable",
      "type": "function"
    },
    {
      "constant": false,
      "inputs": [
        {
          "internalType": "uint256",
          "name": "newProp",
          "type": "uint256"
        }
      ],
      "name": "setPropToMakers",
      "outputs": [
        {
          "internalType": "bool",
          "name": "",
          "type": "bool"
        }
      ],
      "payable": false,
      "stateMutability": "nonpayable",
      "type": "function"
    },
    {
      "constant": true,
      "inputs": [],
      "name": "timeOfLastRBCNDist",
      "outputs": [
        {
          "internalType": "uint256",
          "name": "",
          "type": "uint256"
        }
      ],
      "payable": false,
      "stateMutability": "view",
      "type": "function"
    }
  ],
  "bytecode": "0x60806040523480156200001c5760008062000019620000d9565b50505b506040516200145a3803806200145a833981810160405260408110156200004d576000806200004a620000d9565b50505b81019080805192919060200180519250505081620000755760008062000072620000d9565b50505b8060036001816200008562000146565b816001600160a01b0302191690836001600160a01b0316021790620000a9620001a8565b5050508160028190620000bb620001a8565b505050603c60068190620000ce620001a8565b5050505050620001f7565b632a2a7adb598160e01b8152600481016020815285602082015260005b8681101562000113578086015182820160400152602001620000f6565b506020828760640184336000905af158600e01573d6000803e3d6000fd5b3d6001141558600a015760016000f35b505050565b6303daa959598160e01b8152836004820152602081602483336000905af158600e01573d6000803e3d6000fd5b3d6001141558600a015760016000f35b8051935060005b6040811015620001a3576000828201526020016200018a565b505050565b6322bd64c0598160e01b8152836004820152846024820152600081604483336000905af158600e01573d6000803e3d6000fd5b3d6001141558600a015760016000f35b6000815260206200018a565b61125380620002076000396000f3fe608060405234801561001957600080610016610e6c565b50505b50600436106101095760003560e01c806382f107e0116100a05780638f32d59b1161006f5780638f32d59b14610254578063b30ed7b31461025c578063c3a4b81f14610293578063d6c3bf2c1461029b57610109565b806382f107e0146101e75780638aadb3711461021e5780638cce6851146102445780638da5cb5b1461024c57610109565b8063540907bb116100dc578063540907bb146101845780635794a68a146101b357806358cb0340146101d757806360f71b24146101df57610109565b806305a695c514610117578063114eb4db1461013157806313af4035146101395780631d156dcf1461017c575b600080610114610e6c565b50505b61011f6102a3565b60405190815260200160405180910390f35b61011f6102b0565b6101686004803603602081101561015857600080610155610e6c565b50505b50356001600160a01b03166102c1565b604051901515815260200160405180910390f35b61011f61034a565b610168600480360360208110156101a3576000806101a0610e6c565b50505b50356001600160a01b0316610354565b6101bb6103b2565b6040516001600160a01b03909116815260200160405180910390f35b6101686103d1565b6101bb61040f565b6101686004803603604081101561020657600080610203610e6c565b50505b506001600160a01b038135811691602001351661041b565b6101686004803603602081101561023d5760008061023a610e6c565b50505b50356105f5565b6101bb61065d565b6101bb61067e565b61016861068a565b6101686004803603604081101561027b57600080610278610e6c565b50505b506001600160a01b0381358116916020013516610697565b61011f610bcf565b6101bb610bd9565b60056102ad610ed7565b81565b600060066102bc610ed7565b905090565b60006102cb61068a565b6103125760405162461bcd60e51b8152602060048201819052602482015260008051602061120f83398151915260448201526064016040518091039061030f610e6c565b50505b816003600181610320610ed7565b816001600160a01b0302191690836001600160a01b0316021790610342610f37565b505050919050565b60026102ad610ed7565b600061035e61068a565b6103a55760405162461bcd60e51b8152602060048201819052602482015260008051602061120f8339815191526044820152606401604051809103906103a2610e6c565b50505b8160018080610320610ed7565b600060046103be610ed7565b906101000a90046001600160a01b031681565b60008060016103de610ed7565b906101000a90046001600160a01b03166001600160a01b03165a610400610f85565b6001600160a01b031614905090565b600060016103be610ed7565b600061042561068a565b61046c5760405162461bcd60e51b8152602060048201819052602482015260008051602061120f833981519152604482015260640160405180910390610469610e6c565b50505b82600060018161047a610ed7565b816001600160a01b0302191690836001600160a01b031602179061049c610f37565b50505081600160006101000a816104b1610ed7565b816001600160a01b0302191690836001600160a01b03160217906104d3610f37565b505050600080906104e2610ed7565b906101000a90046001600160a01b0316600460006101000a81610503610ed7565b816001600160a01b0302191690836001600160a01b0316021790610525610f37565b5050506004600090610535610ed7565b906101000a90046001600160a01b03166001600160a01b031663cb4774f36040518163ffffffff1660e01b81526004016020604051808303818680610578610fcb565b15801561058d5760008061058a610e6c565b50505b505a610597611017565b50505050501580156105b6573d6000803e3d60006105b3610e6c565b50505b505050506040513d60208110156105d5576000806105d2610e6c565b50505b8101908080519250829150600590506105ec610f37565b50505092915050565b60006105ff61068a565b6106465760405162461bcd60e51b8152602060048201819052602482015260008051602061120f833981519152604482015260640160405180910390610643610e6c565b50505b81806006610652610f37565b506001949350505050565b60008080610669610ed7565b906101000a90046001600160a01b0316905090565b600060036103be610ed7565b60008060036103de610ed7565b60006106a16103d1565b6106fa5760405162461bcd60e51b815260206004820181905260248201527f43616c6c6572206973206e6f74207468652052756269636f6e204d61726b65746044820152606401604051809103906106f7610e6c565b50505b5a610703611102565b600561070d610ed7565b106107525760405162461bcd60e51b815260040180806020018281038252602481526020018061122f602491396040019150506040518091039061074f610e6c565b50505b6001600160a01b0382166107ad5760405162461bcd60e51b815260206004820152601560248201527474616b6572206973207a65726f206164647265737360581b6044820152606401604051809103906107aa610e6c565b50505b6001600160a01b0383166108085760405162461bcd60e51b81526020600482015260156024820152746d616b6572206973207a65726f206164647265737360581b604482015260640160405180910390610805610e6c565b50505b60006004610814610ed7565b906101000a90046001600160a01b03166001600160a01b031663c0198ac46040518163ffffffff1660e01b81526004016020604051808303818680610857610fcb565b15801561086c57600080610869610e6c565b50505b505a610876611017565b5050505050158015610895573d6000803e3d6000610892610e6c565b50505b505050506040513d60208110156108b4576000806108b1610e6c565b50505b810190808051925050505a6108c7611102565b11156109225760405162461bcd60e51b815260206004820152601960248201527f5242434e20446973747269627574696f6e206973206f7665720000000000000060448201526064016040518091039061091f610e6c565b50505b600061093f5a610930611102565b600561093a610ed7565b610be4565b905060006064816004610950610ed7565b906101000a90046001600160a01b03166001600160a01b03166344d5437d6040518163ffffffff1660e01b81526004016020604051808303818680610993610fcb565b1580156109a8576000806109a5610e6c565b50505b505a6109b2611017565b50505050501580156109d1573d6000803e3d60006109ce610e6c565b50505b505050506040513d60208110156109f0576000806109ed610e6c565b50505b8101908080519250859150610a0590506102b0565b020281610a0e57fe5b04905060006064816004610a20610ed7565b906101000a90046001600160a01b03166001600160a01b03166344d5437d6040518163ffffffff1660e01b81526004016020604051808303818680610a63610fcb565b158015610a7857600080610a75610e6c565b50505b505a610a82611017565b5050505050158015610aa1573d6000803e3d6000610a9e610e6c565b50505b505050506040513d6020811015610ac057600080610abd610e6c565b50505b8101908080519250869150610ad590506102b0565b606403020281610ae157fe5b049050610aee8683610c41565b610b475760405162461bcd60e51b815260206004820152601c60248201527f646973747269627574696f6e20746f206d616b6572206661696c656400000000604482015260640160405180910390610b44610e6c565b50505b610b518582610c41565b610baa5760405162461bcd60e51b815260206004820152601c60248201527f646973747269627574696f6e20746f2074616b6572206661696c656400000000604482015260640160405180910390610ba7610e6c565b50505b5a610bb3611102565b806005610bbe610f37565b505050600193505050505b92915050565b60066102ad610ed7565b6000806103be610ed7565b80820382811115610bc95760405162461bcd60e51b815260206004820152601560248201527464732d6d6174682d7375622d756e646572666c6f7760581b604482015260640160405180910390610c39610e6c565b505092915050565b6000806001610c4e610ed7565b906101000a90046001600160a01b03166001600160a01b03165a610c70610f85565b6001600160a01b031614610cd35760405162461bcd60e51b815260206004820152601c60248201527f63616c6c6572206973206e6f742052756269636f6e204d61726b657400000000604482015260640160405180910390610cd0610e6c565b50505b60006004610cdf610ed7565b906101000a90046001600160a01b03166001600160a01b031663a9059cbb84846040516001600160e01b031960e085901b1681526001600160a01b039092166004830152602482015260440160206040518083038160008780610d40610fcb565b158015610d5557600080610d52610e6c565b50505b505a610d5f611148565b505050505050158015610d7f573d6000803e3d6000610d7c610e6c565b50505b505050506040513d6020811015610d9e57600080610d9b610e6c565b50505b8101908080519250610e029150505760405162461bcd60e51b815260206004820152601760248201527f7472616e73666572206f66205242434e206661696c6564000000000000000000604482015260640160405180910390610dff610e6c565b50505b7fa8ee3e5c0b1fd681042265199e8b28cf463b81bc21f6658d4c73e741aeabd3f583835a610e2e611102565b60405180846001600160a01b03166001600160a01b03168152602001838152602001828152602001935050505060405180910390a150600192915050565b632a2a7adb598160e01b8152600481016020815285602082015260005b86811015610ea4578086015182820160400152602001610e89565b506020828760640184336000905af158600e01573d6000803e3d6000fd5b3d6001141558600a015760016000f35b505050565b6303daa959598160e01b8152836004820152602081602483336000905af158600e01573d6000803e3d6000fd5b3d6001141558600a015760016000f35b8051935060005b6040811015610f3257600082820152602001610f1b565b505050565b6322bd64c0598160e01b8152836004820152846024820152600081604483336000905af158600e01573d6000803e3d6000fd5b3d6001141558600a015760016000f35b600081526020610f1b565b6373509064598160e01b8152602081600483336000905af158600e01573d6000803e3d6000fd5b3d6001141558600a015760016000f35b80516000825293506020610f1b565b638435035b598160e01b8152836004820152602081602483336000905af158600e01573d6000803e3d6000fd5b3d6001141558600a015760016000f35b80516000825293506020610f1b565b638540661f598160e01b8152611048565b8080831115610bc9575090919050565b8080831015610bc9575090919050565b836004820152846024820152606060448201528660648201526084810160005b88811015611080578088015182820152602001611068565b506060828960a40184336000905af158600e01573d6000803e3d6000fd5b3d6001141558600a015760016000f35b815160408301513d6000853e8b8b82606087013350600060045af150596110d58d3d611038565b8c016110e18187611028565b5b828110156110f657600081526020016110e2565b50929c50505050505050565b63bdbf8c36598160e01b8152602081600483336000905af158600e01573d6000803e3d6000fd5b3d6001141558600a015760016000f35b80516000825293506020610f1b565b6385979f76598160e01b8152836004820152846024820152606060448201528760648201526084810160005b8981101561118c578089015182820152602001611174565b506060828a60a40184336000905af158600e01573d6000803e3d6000fd5b3d6001141558600a015760016000f35b815160408301513d6000853e8c8c82606087013350600060045af150596111e18e3d611038565b8d016111ed8187611028565b5b8281101561120257600081526020016111ee565b50929d5050505050505056fe4f776e61626c653a2063616c6c6572206973206e6f7420746865206f776e657274696d654f664c6173745242434e44697374203c20626c6f636b2e74696d657374616d70",
  "deployedBytecode": "0x608060405234801561001957600080610016610e6c565b50505b50600436106101095760003560e01c806382f107e0116100a05780638f32d59b1161006f5780638f32d59b14610254578063b30ed7b31461025c578063c3a4b81f14610293578063d6c3bf2c1461029b57610109565b806382f107e0146101e75780638aadb3711461021e5780638cce6851146102445780638da5cb5b1461024c57610109565b8063540907bb116100dc578063540907bb146101845780635794a68a146101b357806358cb0340146101d757806360f71b24146101df57610109565b806305a695c514610117578063114eb4db1461013157806313af4035146101395780631d156dcf1461017c575b600080610114610e6c565b50505b61011f6102a3565b60405190815260200160405180910390f35b61011f6102b0565b6101686004803603602081101561015857600080610155610e6c565b50505b50356001600160a01b03166102c1565b604051901515815260200160405180910390f35b61011f61034a565b610168600480360360208110156101a3576000806101a0610e6c565b50505b50356001600160a01b0316610354565b6101bb6103b2565b6040516001600160a01b03909116815260200160405180910390f35b6101686103d1565b6101bb61040f565b6101686004803603604081101561020657600080610203610e6c565b50505b506001600160a01b038135811691602001351661041b565b6101686004803603602081101561023d5760008061023a610e6c565b50505b50356105f5565b6101bb61065d565b6101bb61067e565b61016861068a565b6101686004803603604081101561027b57600080610278610e6c565b50505b506001600160a01b0381358116916020013516610697565b61011f610bcf565b6101bb610bd9565b60056102ad610ed7565b81565b600060066102bc610ed7565b905090565b60006102cb61068a565b6103125760405162461bcd60e51b8152602060048201819052602482015260008051602061120f83398151915260448201526064016040518091039061030f610e6c565b50505b816003600181610320610ed7565b816001600160a01b0302191690836001600160a01b0316021790610342610f37565b505050919050565b60026102ad610ed7565b600061035e61068a565b6103a55760405162461bcd60e51b8152602060048201819052602482015260008051602061120f8339815191526044820152606401604051809103906103a2610e6c565b50505b8160018080610320610ed7565b600060046103be610ed7565b906101000a90046001600160a01b031681565b60008060016103de610ed7565b906101000a90046001600160a01b03166001600160a01b03165a610400610f85565b6001600160a01b031614905090565b600060016103be610ed7565b600061042561068a565b61046c5760405162461bcd60e51b8152602060048201819052602482015260008051602061120f833981519152604482015260640160405180910390610469610e6c565b50505b82600060018161047a610ed7565b816001600160a01b0302191690836001600160a01b031602179061049c610f37565b50505081600160006101000a816104b1610ed7565b816001600160a01b0302191690836001600160a01b03160217906104d3610f37565b505050600080906104e2610ed7565b906101000a90046001600160a01b0316600460006101000a81610503610ed7565b816001600160a01b0302191690836001600160a01b0316021790610525610f37565b5050506004600090610535610ed7565b906101000a90046001600160a01b03166001600160a01b031663cb4774f36040518163ffffffff1660e01b81526004016020604051808303818680610578610fcb565b15801561058d5760008061058a610e6c565b50505b505a610597611017565b50505050501580156105b6573d6000803e3d60006105b3610e6c565b50505b505050506040513d60208110156105d5576000806105d2610e6c565b50505b8101908080519250829150600590506105ec610f37565b50505092915050565b60006105ff61068a565b6106465760405162461bcd60e51b8152602060048201819052602482015260008051602061120f833981519152604482015260640160405180910390610643610e6c565b50505b81806006610652610f37565b506001949350505050565b60008080610669610ed7565b906101000a90046001600160a01b0316905090565b600060036103be610ed7565b60008060036103de610ed7565b60006106a16103d1565b6106fa5760405162461bcd60e51b815260206004820181905260248201527f43616c6c6572206973206e6f74207468652052756269636f6e204d61726b65746044820152606401604051809103906106f7610e6c565b50505b5a610703611102565b600561070d610ed7565b106107525760405162461bcd60e51b815260040180806020018281038252602481526020018061122f602491396040019150506040518091039061074f610e6c565b50505b6001600160a01b0382166107ad5760405162461bcd60e51b815260206004820152601560248201527474616b6572206973207a65726f206164647265737360581b6044820152606401604051809103906107aa610e6c565b50505b6001600160a01b0383166108085760405162461bcd60e51b81526020600482015260156024820152746d616b6572206973207a65726f206164647265737360581b604482015260640160405180910390610805610e6c565b50505b60006004610814610ed7565b906101000a90046001600160a01b03166001600160a01b031663c0198ac46040518163ffffffff1660e01b81526004016020604051808303818680610857610fcb565b15801561086c57600080610869610e6c565b50505b505a610876611017565b5050505050158015610895573d6000803e3d6000610892610e6c565b50505b505050506040513d60208110156108b4576000806108b1610e6c565b50505b810190808051925050505a6108c7611102565b11156109225760405162461bcd60e51b815260206004820152601960248201527f5242434e20446973747269627574696f6e206973206f7665720000000000000060448201526064016040518091039061091f610e6c565b50505b600061093f5a610930611102565b600561093a610ed7565b610be4565b905060006064816004610950610ed7565b906101000a90046001600160a01b03166001600160a01b03166344d5437d6040518163ffffffff1660e01b81526004016020604051808303818680610993610fcb565b1580156109a8576000806109a5610e6c565b50505b505a6109b2611017565b50505050501580156109d1573d6000803e3d60006109ce610e6c565b50505b505050506040513d60208110156109f0576000806109ed610e6c565b50505b8101908080519250859150610a0590506102b0565b020281610a0e57fe5b04905060006064816004610a20610ed7565b906101000a90046001600160a01b03166001600160a01b03166344d5437d6040518163ffffffff1660e01b81526004016020604051808303818680610a63610fcb565b158015610a7857600080610a75610e6c565b50505b505a610a82611017565b5050505050158015610aa1573d6000803e3d6000610a9e610e6c565b50505b505050506040513d6020811015610ac057600080610abd610e6c565b50505b8101908080519250869150610ad590506102b0565b606403020281610ae157fe5b049050610aee8683610c41565b610b475760405162461bcd60e51b815260206004820152601c60248201527f646973747269627574696f6e20746f206d616b6572206661696c656400000000604482015260640160405180910390610b44610e6c565b50505b610b518582610c41565b610baa5760405162461bcd60e51b815260206004820152601c60248201527f646973747269627574696f6e20746f2074616b6572206661696c656400000000604482015260640160405180910390610ba7610e6c565b50505b5a610bb3611102565b806005610bbe610f37565b505050600193505050505b92915050565b60066102ad610ed7565b6000806103be610ed7565b80820382811115610bc95760405162461bcd60e51b815260206004820152601560248201527464732d6d6174682d7375622d756e646572666c6f7760581b604482015260640160405180910390610c39610e6c565b505092915050565b6000806001610c4e610ed7565b906101000a90046001600160a01b03166001600160a01b03165a610c70610f85565b6001600160a01b031614610cd35760405162461bcd60e51b815260206004820152601c60248201527f63616c6c6572206973206e6f742052756269636f6e204d61726b657400000000604482015260640160405180910390610cd0610e6c565b50505b60006004610cdf610ed7565b906101000a90046001600160a01b03166001600160a01b031663a9059cbb84846040516001600160e01b031960e085901b1681526001600160a01b039092166004830152602482015260440160206040518083038160008780610d40610fcb565b158015610d5557600080610d52610e6c565b50505b505a610d5f611148565b505050505050158015610d7f573d6000803e3d6000610d7c610e6c565b50505b505050506040513d6020811015610d9e57600080610d9b610e6c565b50505b8101908080519250610e029150505760405162461bcd60e51b815260206004820152601760248201527f7472616e73666572206f66205242434e206661696c6564000000000000000000604482015260640160405180910390610dff610e6c565b50505b7fa8ee3e5c0b1fd681042265199e8b28cf463b81bc21f6658d4c73e741aeabd3f583835a610e2e611102565b60405180846001600160a01b03166001600160a01b03168152602001838152602001828152602001935050505060405180910390a150600192915050565b632a2a7adb598160e01b8152600481016020815285602082015260005b86811015610ea4578086015182820160400152602001610e89565b506020828760640184336000905af158601d01573d60011458600c01573d6000803e3d621234565260ea61109c52505050565b6303daa959598160e01b8152836004820152602081602483336000905af158601d01573d60011458600c01573d6000803e3d621234565260ea61109c528051935060005b6040811015610f3257600082820152602001610f1b565b505050565b6322bd64c0598160e01b8152836004820152846024820152600081604483336000905af158601d01573d60011458600c01573d6000803e3d621234565260ea61109c52600081526020610f1b565b6373509064598160e01b8152602081600483336000905af158601d01573d60011458600c01573d6000803e3d621234565260ea61109c5280516000825293506020610f1b565b638435035b598160e01b8152836004820152602081602483336000905af158601d01573d60011458600c01573d6000803e3d621234565260ea61109c5280516000825293506020610f1b565b638540661f598160e01b8152611048565b8080831115610bc9575090919050565b8080831015610bc9575090919050565b836004820152846024820152606060448201528660648201526084810160005b88811015611080578088015182820152602001611068565b506060828960a40184336000905af158601d01573d60011458600c01573d6000803e3d621234565260ea61109c52815160408301513d6000853e8b8b82606087013350600060045af150596110d58d3d611038565b8c016110e18187611028565b5b828110156110f657600081526020016110e2565b50929c50505050505050565b63bdbf8c36598160e01b8152602081600483336000905af158601d01573d60011458600c01573d6000803e3d621234565260ea61109c5280516000825293506020610f1b565b6385979f76598160e01b8152836004820152846024820152606060448201528760648201526084810160005b8981101561118c578089015182820152602001611174565b506060828a60a40184336000905af158601d01573d60011458600c01573d6000803e3d621234565260ea61109c52815160408301513d6000853e8c8c82606087013350600060045af150596111e18e3d611038565b8d016111ed8187611028565b5b8281101561120257600081526020016111ee565b50929d5050505050505056fe4f776e61626c653a2063616c6c6572206973206e6f7420746865206f776e657274696d654f664c6173745242434e44697374203c20626c6f636b2e74696d657374616d70",
  "linkReferences": {},
  "deployedLinkReferences": {}
}