{
  "_format": "hh-sol-artifact-1",
  "contractName": "Aqueduct",
  "sourceName": "contracts/Aqueduct.sol",
  "abi": [
    {
      "inputs": [
        {
          "internalType": "uint256",
          "name": "communityDuration",
          "type": "uint256"
        },
        {
          "internalType": "address",
          "name": "_owner",
          "type": "address"
        }
      ],
      "payable": false,
      "stateMutability": "nonpayable",
      "type": "constructor"
    },
    {
      "anonymous": false,
      "inputs": [
        {
          "indexed": false,
          "internalType": "address",
          "name": "recipient",
          "type": "address"
        },
        {
          "indexed": false,
          "internalType": "uint256",
          "name": "amount",
          "type": "uint256"
        },
        {
          "indexed": false,
          "internalType": "uint256",
          "name": "timestamp",
          "type": "uint256"
        }
      ],
      "name": "Distribution",
      "type": "event"
    },
    {
      "constant": true,
      "inputs": [],
      "name": "RBCN",
      "outputs": [
        {
          "internalType": "contract RBCNInterface",
          "name": "",
          "type": "address"
        }
      ],
      "payable": false,
      "stateMutability": "view",
      "type": "function"
    },
    {
      "constant": true,
      "inputs": [],
      "name": "RBCNAddress",
      "outputs": [
        {
          "internalType": "address",
          "name": "",
          "type": "address"
        }
      ],
      "payable": false,
      "stateMutability": "view",
      "type": "function"
    },
    {
      "constant": true,
      "inputs": [],
      "name": "RubiconMarketAddress",
      "outputs": [
        {
          "internalType": "address",
          "name": "",
          "type": "address"
        }
      ],
      "payable": false,
      "stateMutability": "view",
      "type": "function"
    },
    {
      "constant": false,
      "inputs": [
        {
          "internalType": "address",
          "name": "maker",
          "type": "address"
        },
        {
          "internalType": "address",
          "name": "taker",
          "type": "address"
        }
      ],
      "name": "distributeToMakerAndTaker",
      "outputs": [
        {
          "internalType": "bool",
          "name": "",
          "type": "bool"
        }
      ],
      "payable": false,
      "stateMutability": "nonpayable",
      "type": "function"
    },
    {
      "constant": true,
      "inputs": [],
      "name": "distributionDuration",
      "outputs": [
        {
          "internalType": "uint256",
          "name": "",
          "type": "uint256"
        }
      ],
      "payable": false,
      "stateMutability": "view",
      "type": "function"
    },
    {
      "constant": true,
      "inputs": [],
      "name": "getPropToMakers",
      "outputs": [
        {
          "internalType": "uint256",
          "name": "",
          "type": "uint256"
        }
      ],
      "payable": false,
      "stateMutability": "view",
      "type": "function"
    },
    {
      "constant": true,
      "inputs": [],
      "name": "getRBCNAddress",
      "outputs": [
        {
          "internalType": "address",
          "name": "",
          "type": "address"
        }
      ],
      "payable": false,
      "stateMutability": "view",
      "type": "function"
    },
    {
      "constant": true,
      "inputs": [],
      "name": "isExchange",
      "outputs": [
        {
          "internalType": "bool",
          "name": "",
          "type": "bool"
        }
      ],
      "payable": false,
      "stateMutability": "view",
      "type": "function"
    },
    {
      "constant": true,
      "inputs": [],
      "name": "isOwner",
      "outputs": [
        {
          "internalType": "bool",
          "name": "",
          "type": "bool"
        }
      ],
      "payable": false,
      "stateMutability": "view",
      "type": "function"
    },
    {
      "constant": true,
      "inputs": [],
      "name": "owner",
      "outputs": [
        {
          "internalType": "address",
          "name": "",
          "type": "address"
        }
      ],
      "payable": false,
      "stateMutability": "view",
      "type": "function"
    },
    {
      "constant": true,
      "inputs": [],
      "name": "propToMakers",
      "outputs": [
        {
          "internalType": "uint256",
          "name": "",
          "type": "uint256"
        }
      ],
      "payable": false,
      "stateMutability": "view",
      "type": "function"
    },
    {
      "constant": false,
      "inputs": [
        {
          "internalType": "address",
          "name": "_RBCNAddress",
          "type": "address"
        },
        {
          "internalType": "address",
          "name": "RubiconMarket",
          "type": "address"
        }
      ],
      "name": "setDistributionParams",
      "outputs": [
        {
          "internalType": "bool",
          "name": "",
          "type": "bool"
        }
      ],
      "payable": false,
      "stateMutability": "nonpayable",
      "type": "function"
    },
    {
      "constant": false,
      "inputs": [
        {
          "internalType": "address",
          "name": "newImplementation",
          "type": "address"
        }
      ],
      "name": "setNewExchange",
      "outputs": [
        {
          "internalType": "bool",
          "name": "",
          "type": "bool"
        }
      ],
      "payable": false,
      "stateMutability": "nonpayable",
      "type": "function"
    },
    {
      "constant": false,
      "inputs": [
        {
          "internalType": "address",
          "name": "newOwner",
          "type": "address"
        }
      ],
      "name": "setOwner",
      "outputs": [
        {
          "internalType": "bool",
          "name": "",
          "type": "bool"
        }
      ],
      "payable": false,
      "stateMutability": "nonpayable",
      "type": "function"
    },
    {
      "constant": false,
      "inputs": [
        {
          "internalType": "uint256",
          "name": "newProp",
          "type": "uint256"
        }
      ],
      "name": "setPropToMakers",
      "outputs": [
        {
          "internalType": "bool",
          "name": "",
          "type": "bool"
        }
      ],
      "payable": false,
      "stateMutability": "nonpayable",
      "type": "function"
    },
    {
      "constant": true,
      "inputs": [],
      "name": "timeOfLastRBCNDist",
      "outputs": [
        {
          "internalType": "uint256",
          "name": "",
          "type": "uint256"
        }
      ],
      "payable": false,
      "stateMutability": "view",
      "type": "function"
    }
  ],
  "bytecode": "0x60806040523480156200001c5760008062000019620000d9565b50505b506040516200141d3803806200141d833981810160405260408110156200004d576000806200004a620000d9565b50505b81019080805192919060200180519250505081620000755760008062000072620000d9565b50505b8060036001816200008562000146565b816001600160a01b0302191690836001600160a01b0316021790620000a9620001a8565b5050508160028190620000bb620001a8565b505050603c60068190620000ce620001a8565b5050505050620001f7565b632a2a7adb598160e01b8152600481016020815285602082015260005b8681101562000113578086015182820160400152602001620000f6565b506020828760640184336000905af158600e01573d6000803e3d6000fd5b3d6001141558600a015760016000f35b505050565b6303daa959598160e01b8152836004820152602081602483336000905af158600e01573d6000803e3d6000fd5b3d6001141558600a015760016000f35b8051935060005b6040811015620001a3576000828201526020016200018a565b505050565b6322bd64c0598160e01b8152836004820152846024820152600081604483336000905af158600e01573d6000803e3d6000fd5b3d6001141558600a015760016000f35b6000815260206200018a565b61121680620002076000396000f3fe608060405234801561001957600080610016610e2f565b50505b50600436106100d95760003560e01c806305a695c5146100e7578063114eb4db1461010157806313af4035146101095780631d156dcf1461014c578063540907bb146101545780635794a68a1461018357806358cb0340146101a757806360f71b24146101af57806382f107e0146101b75780638aadb371146101ee5780638cce6851146102145780638da5cb5b1461021c5780638f32d59b14610224578063b30ed7b31461022c578063c3a4b81f14610263578063d6c3bf2c1461026b575b6000806100e4610e2f565b50505b6100ef610273565b60405190815260200160405180910390f35b6100ef610280565b6101386004803603602081101561012857600080610125610e2f565b50505b50356001600160a01b0316610291565b604051901515815260200160405180910390f35b6100ef61031a565b6101386004803603602081101561017357600080610170610e2f565b50505b50356001600160a01b0316610324565b61018b610382565b6040516001600160a01b03909116815260200160405180910390f35b6101386103a1565b61018b6103df565b610138600480360360408110156101d6576000806101d3610e2f565b50505b506001600160a01b03813581169160200135166103eb565b6101386004803603602081101561020d5760008061020a610e2f565b50505b50356105c5565b61018b61062d565b61018b61064e565b61013861065a565b6101386004803603604081101561024b57600080610248610e2f565b50505b506001600160a01b0381358116916020013516610667565b6100ef610b99565b61018b610ba3565b600561027d610e9a565b81565b6000600661028c610e9a565b905090565b600061029b61065a565b6102e25760405162461bcd60e51b815260206004820181905260248201526000805160206111d28339815191526044820152606401604051809103906102df610e2f565b50505b8160036001816102f0610e9a565b816001600160a01b0302191690836001600160a01b0316021790610312610efa565b505050919050565b600261027d610e9a565b600061032e61065a565b6103755760405162461bcd60e51b815260206004820181905260248201526000805160206111d2833981519152604482015260640160405180910390610372610e2f565b50505b81600180806102f0610e9a565b6000600461038e610e9a565b906101000a90046001600160a01b031681565b60008060016103ae610e9a565b906101000a90046001600160a01b03166001600160a01b03165a6103d0610f48565b6001600160a01b031614905090565b6000600161038e610e9a565b60006103f561065a565b61043c5760405162461bcd60e51b815260206004820181905260248201526000805160206111d2833981519152604482015260640160405180910390610439610e2f565b50505b82600060018161044a610e9a565b816001600160a01b0302191690836001600160a01b031602179061046c610efa565b50505081600160006101000a81610481610e9a565b816001600160a01b0302191690836001600160a01b03160217906104a3610efa565b505050600080906104b2610e9a565b906101000a90046001600160a01b0316600460006101000a816104d3610e9a565b816001600160a01b0302191690836001600160a01b03160217906104f5610efa565b5050506004600090610505610e9a565b906101000a90046001600160a01b03166001600160a01b031663cb4774f36040518163ffffffff1660e01b81526004016020604051808303818680610548610f8e565b15801561055d5760008061055a610e2f565b50505b505a610567610fda565b5050505050158015610586573d6000803e3d6000610583610e2f565b50505b505050506040513d60208110156105a5576000806105a2610e2f565b50505b8101908080519250829150600590506105bc610efa565b50505092915050565b60006105cf61065a565b6106165760405162461bcd60e51b815260206004820181905260248201526000805160206111d2833981519152604482015260640160405180910390610613610e2f565b50505b81806006610622610efa565b506001949350505050565b60008080610639610e9a565b906101000a90046001600160a01b0316905090565b6000600361038e610e9a565b60008060036103ae610e9a565b60006106716103a1565b6106ca5760405162461bcd60e51b815260206004820181905260248201527f43616c6c6572206973206e6f74207468652052756269636f6e204d61726b65746044820152606401604051809103906106c7610e2f565b50505b5a6106d36110c5565b60056106dd610e9a565b106107225760405162461bcd60e51b81526004018080602001828103825260248152602001806111f2602491396040019150506040518091039061071f610e2f565b50505b6001600160a01b03821661077d5760405162461bcd60e51b815260206004820152601560248201527474616b6572206973207a65726f206164647265737360581b60448201526064016040518091039061077a610e2f565b50505b6001600160a01b0383166107d85760405162461bcd60e51b81526020600482015260156024820152746d616b6572206973207a65726f206164647265737360581b6044820152606401604051809103906107d5610e2f565b50505b600060046107e4610e9a565b906101000a90046001600160a01b03166001600160a01b031663c0198ac46040518163ffffffff1660e01b81526004016020604051808303818680610827610f8e565b15801561083c57600080610839610e2f565b50505b505a610846610fda565b5050505050158015610865573d6000803e3d6000610862610e2f565b50505b505050506040513d602081101561088457600080610881610e2f565b50505b810190808051925050505a6108976110c5565b11156108ee5760405162461bcd60e51b8152602060048201526019602482015278292121a7102234b9ba3934b13aba34b7b71034b99037bb32b960391b6044820152606401604051809103906108eb610e2f565b50505b600061090b5a6108fc6110c5565b6005610906610e9a565b610bae565b90506000606481600461091c610e9a565b906101000a90046001600160a01b03166001600160a01b03166344d5437d6040518163ffffffff1660e01b8152600401602060405180830381868061095f610f8e565b15801561097457600080610971610e2f565b50505b505a61097e610fda565b505050505015801561099d573d6000803e3d600061099a610e2f565b50505b505050506040513d60208110156109bc576000806109b9610e2f565b50505b81019080805192508591506109d19050610280565b0202816109da57fe5b049050600060648160046109ec610e9a565b906101000a90046001600160a01b03166001600160a01b03166344d5437d6040518163ffffffff1660e01b81526004016020604051808303818680610a2f610f8e565b158015610a4457600080610a41610e2f565b50505b505a610a4e610fda565b5050505050158015610a6d573d6000803e3d6000610a6a610e2f565b50505b505050506040513d6020811015610a8c57600080610a89610e2f565b50505b8101908080519250869150610aa19050610280565b606403020281610aad57fe5b049050610aba8683610c0b565b610b125760405162461bcd60e51b815260206004820152601c60248201527b191a5cdd1c9a589d5d1a5bdb881d1bc81b585ad95c8819985a5b195960221b604482015260640160405180910390610b0f610e2f565b50505b610b1c8582610c0b565b610b745760405162461bcd60e51b815260206004820152601c60248201527b191a5cdd1c9a589d5d1a5bdb881d1bc81d185ad95c8819985a5b195960221b604482015260640160405180910390610b71610e2f565b50505b5a610b7d6110c5565b806005610b88610efa565b505050600193505050505b92915050565b600661027d610e9a565b60008061038e610e9a565b80820382811115610b935760405162461bcd60e51b815260206004820152601560248201527464732d6d6174682d7375622d756e646572666c6f7760581b604482015260640160405180910390610c03610e2f565b505092915050565b6000806001610c18610e9a565b906101000a90046001600160a01b03166001600160a01b03165a610c3a610f48565b6001600160a01b031614610c9c5760405162461bcd60e51b815260206004820152601c60248201527b18d85b1b195c881a5cc81b9bdd08149d589a58dbdb8813585c9ad95d60221b604482015260640160405180910390610c99610e2f565b50505b60006004610ca8610e9a565b906101000a90046001600160a01b03166001600160a01b031663a9059cbb84846040516001600160e01b031960e085901b1681526001600160a01b039092166004830152602482015260440160206040518083038160008780610d09610f8e565b158015610d1e57600080610d1b610e2f565b50505b505a610d2861110b565b505050505050158015610d48573d6000803e3d6000610d45610e2f565b50505b505050506040513d6020811015610d6757600080610d64610e2f565b50505b8101908080519250610dc59150505760405162461bcd60e51b81526020600482015260176024820152761d1c985b9cd9995c881bd988149090d38819985a5b1959604a1b604482015260640160405180910390610dc2610e2f565b50505b7fa8ee3e5c0b1fd681042265199e8b28cf463b81bc21f6658d4c73e741aeabd3f583835a610df16110c5565b60405180846001600160a01b03166001600160a01b03168152602001838152602001828152602001935050505060405180910390a150600192915050565b632a2a7adb598160e01b8152600481016020815285602082015260005b86811015610e67578086015182820160400152602001610e4c565b506020828760640184336000905af158600e01573d6000803e3d6000fd5b3d6001141558600a015760016000f35b505050565b6303daa959598160e01b8152836004820152602081602483336000905af158600e01573d6000803e3d6000fd5b3d6001141558600a015760016000f35b8051935060005b6040811015610ef557600082820152602001610ede565b505050565b6322bd64c0598160e01b8152836004820152846024820152600081604483336000905af158600e01573d6000803e3d6000fd5b3d6001141558600a015760016000f35b600081526020610ede565b6373509064598160e01b8152602081600483336000905af158600e01573d6000803e3d6000fd5b3d6001141558600a015760016000f35b80516000825293506020610ede565b638435035b598160e01b8152836004820152602081602483336000905af158600e01573d6000803e3d6000fd5b3d6001141558600a015760016000f35b80516000825293506020610ede565b638540661f598160e01b815261100b565b8080831115610b93575090919050565b8080831015610b93575090919050565b836004820152846024820152606060448201528660648201526084810160005b8881101561104357808801518282015260200161102b565b506060828960a40184336000905af158600e01573d6000803e3d6000fd5b3d6001141558600a015760016000f35b815160408301513d6000853e8b8b82606087013350600060045af150596110988d3d610ffb565b8c016110a48187610feb565b5b828110156110b957600081526020016110a5565b50929c50505050505050565b63bdbf8c36598160e01b8152602081600483336000905af158600e01573d6000803e3d6000fd5b3d6001141558600a015760016000f35b80516000825293506020610ede565b6385979f76598160e01b8152836004820152846024820152606060448201528760648201526084810160005b8981101561114f578089015182820152602001611137565b506060828a60a40184336000905af158600e01573d6000803e3d6000fd5b3d6001141558600a015760016000f35b815160408301513d6000853e8c8c82606087013350600060045af150596111a48e3d610ffb565b8d016111b08187610feb565b5b828110156111c557600081526020016111b1565b50929d5050505050505056fe4f776e61626c653a2063616c6c6572206973206e6f7420746865206f776e657274696d654f664c6173745242434e44697374203c20626c6f636b2e74696d657374616d70",
  "deployedBytecode": "0x608060405234801561001957600080610016610e2f565b50505b50600436106100d95760003560e01c806305a695c5146100e7578063114eb4db1461010157806313af4035146101095780631d156dcf1461014c578063540907bb146101545780635794a68a1461018357806358cb0340146101a757806360f71b24146101af57806382f107e0146101b75780638aadb371146101ee5780638cce6851146102145780638da5cb5b1461021c5780638f32d59b14610224578063b30ed7b31461022c578063c3a4b81f14610263578063d6c3bf2c1461026b575b6000806100e4610e2f565b50505b6100ef610273565b60405190815260200160405180910390f35b6100ef610280565b6101386004803603602081101561012857600080610125610e2f565b50505b50356001600160a01b0316610291565b604051901515815260200160405180910390f35b6100ef61031a565b6101386004803603602081101561017357600080610170610e2f565b50505b50356001600160a01b0316610324565b61018b610382565b6040516001600160a01b03909116815260200160405180910390f35b6101386103a1565b61018b6103df565b610138600480360360408110156101d6576000806101d3610e2f565b50505b506001600160a01b03813581169160200135166103eb565b6101386004803603602081101561020d5760008061020a610e2f565b50505b50356105c5565b61018b61062d565b61018b61064e565b61013861065a565b6101386004803603604081101561024b57600080610248610e2f565b50505b506001600160a01b0381358116916020013516610667565b6100ef610b99565b61018b610ba3565b600561027d610e9a565b81565b6000600661028c610e9a565b905090565b600061029b61065a565b6102e25760405162461bcd60e51b815260206004820181905260248201526000805160206111d28339815191526044820152606401604051809103906102df610e2f565b50505b8160036001816102f0610e9a565b816001600160a01b0302191690836001600160a01b0316021790610312610efa565b505050919050565b600261027d610e9a565b600061032e61065a565b6103755760405162461bcd60e51b815260206004820181905260248201526000805160206111d2833981519152604482015260640160405180910390610372610e2f565b50505b81600180806102f0610e9a565b6000600461038e610e9a565b906101000a90046001600160a01b031681565b60008060016103ae610e9a565b906101000a90046001600160a01b03166001600160a01b03165a6103d0610f48565b6001600160a01b031614905090565b6000600161038e610e9a565b60006103f561065a565b61043c5760405162461bcd60e51b815260206004820181905260248201526000805160206111d2833981519152604482015260640160405180910390610439610e2f565b50505b82600060018161044a610e9a565b816001600160a01b0302191690836001600160a01b031602179061046c610efa565b50505081600160006101000a81610481610e9a565b816001600160a01b0302191690836001600160a01b03160217906104a3610efa565b505050600080906104b2610e9a565b906101000a90046001600160a01b0316600460006101000a816104d3610e9a565b816001600160a01b0302191690836001600160a01b03160217906104f5610efa565b5050506004600090610505610e9a565b906101000a90046001600160a01b03166001600160a01b031663cb4774f36040518163ffffffff1660e01b81526004016020604051808303818680610548610f8e565b15801561055d5760008061055a610e2f565b50505b505a610567610fda565b5050505050158015610586573d6000803e3d6000610583610e2f565b50505b505050506040513d60208110156105a5576000806105a2610e2f565b50505b8101908080519250829150600590506105bc610efa565b50505092915050565b60006105cf61065a565b6106165760405162461bcd60e51b815260206004820181905260248201526000805160206111d2833981519152604482015260640160405180910390610613610e2f565b50505b81806006610622610efa565b506001949350505050565b60008080610639610e9a565b906101000a90046001600160a01b0316905090565b6000600361038e610e9a565b60008060036103ae610e9a565b60006106716103a1565b6106ca5760405162461bcd60e51b815260206004820181905260248201527f43616c6c6572206973206e6f74207468652052756269636f6e204d61726b65746044820152606401604051809103906106c7610e2f565b50505b5a6106d36110c5565b60056106dd610e9a565b106107225760405162461bcd60e51b81526004018080602001828103825260248152602001806111f2602491396040019150506040518091039061071f610e2f565b50505b6001600160a01b03821661077d5760405162461bcd60e51b815260206004820152601560248201527474616b6572206973207a65726f206164647265737360581b60448201526064016040518091039061077a610e2f565b50505b6001600160a01b0383166107d85760405162461bcd60e51b81526020600482015260156024820152746d616b6572206973207a65726f206164647265737360581b6044820152606401604051809103906107d5610e2f565b50505b600060046107e4610e9a565b906101000a90046001600160a01b03166001600160a01b031663c0198ac46040518163ffffffff1660e01b81526004016020604051808303818680610827610f8e565b15801561083c57600080610839610e2f565b50505b505a610846610fda565b5050505050158015610865573d6000803e3d6000610862610e2f565b50505b505050506040513d602081101561088457600080610881610e2f565b50505b810190808051925050505a6108976110c5565b11156108ee5760405162461bcd60e51b8152602060048201526019602482015278292121a7102234b9ba3934b13aba34b7b71034b99037bb32b960391b6044820152606401604051809103906108eb610e2f565b50505b600061090b5a6108fc6110c5565b6005610906610e9a565b610bae565b90506000606481600461091c610e9a565b906101000a90046001600160a01b03166001600160a01b03166344d5437d6040518163ffffffff1660e01b8152600401602060405180830381868061095f610f8e565b15801561097457600080610971610e2f565b50505b505a61097e610fda565b505050505015801561099d573d6000803e3d600061099a610e2f565b50505b505050506040513d60208110156109bc576000806109b9610e2f565b50505b81019080805192508591506109d19050610280565b0202816109da57fe5b049050600060648160046109ec610e9a565b906101000a90046001600160a01b03166001600160a01b03166344d5437d6040518163ffffffff1660e01b81526004016020604051808303818680610a2f610f8e565b158015610a4457600080610a41610e2f565b50505b505a610a4e610fda565b5050505050158015610a6d573d6000803e3d6000610a6a610e2f565b50505b505050506040513d6020811015610a8c57600080610a89610e2f565b50505b8101908080519250869150610aa19050610280565b606403020281610aad57fe5b049050610aba8683610c0b565b610b125760405162461bcd60e51b815260206004820152601c60248201527b191a5cdd1c9a589d5d1a5bdb881d1bc81b585ad95c8819985a5b195960221b604482015260640160405180910390610b0f610e2f565b50505b610b1c8582610c0b565b610b745760405162461bcd60e51b815260206004820152601c60248201527b191a5cdd1c9a589d5d1a5bdb881d1bc81d185ad95c8819985a5b195960221b604482015260640160405180910390610b71610e2f565b50505b5a610b7d6110c5565b806005610b88610efa565b505050600193505050505b92915050565b600661027d610e9a565b60008061038e610e9a565b80820382811115610b935760405162461bcd60e51b815260206004820152601560248201527464732d6d6174682d7375622d756e646572666c6f7760581b604482015260640160405180910390610c03610e2f565b505092915050565b6000806001610c18610e9a565b906101000a90046001600160a01b03166001600160a01b03165a610c3a610f48565b6001600160a01b031614610c9c5760405162461bcd60e51b815260206004820152601c60248201527b18d85b1b195c881a5cc81b9bdd08149d589a58dbdb8813585c9ad95d60221b604482015260640160405180910390610c99610e2f565b50505b60006004610ca8610e9a565b906101000a90046001600160a01b03166001600160a01b031663a9059cbb84846040516001600160e01b031960e085901b1681526001600160a01b039092166004830152602482015260440160206040518083038160008780610d09610f8e565b158015610d1e57600080610d1b610e2f565b50505b505a610d2861110b565b505050505050158015610d48573d6000803e3d6000610d45610e2f565b50505b505050506040513d6020811015610d6757600080610d64610e2f565b50505b8101908080519250610dc59150505760405162461bcd60e51b81526020600482015260176024820152761d1c985b9cd9995c881bd988149090d38819985a5b1959604a1b604482015260640160405180910390610dc2610e2f565b50505b7fa8ee3e5c0b1fd681042265199e8b28cf463b81bc21f6658d4c73e741aeabd3f583835a610df16110c5565b60405180846001600160a01b03166001600160a01b03168152602001838152602001828152602001935050505060405180910390a150600192915050565b632a2a7adb598160e01b8152600481016020815285602082015260005b86811015610e67578086015182820160400152602001610e4c565b506020828760640184336000905af158601d01573d60011458600c01573d6000803e3d621234565260ea61109c52505050565b6303daa959598160e01b8152836004820152602081602483336000905af158601d01573d60011458600c01573d6000803e3d621234565260ea61109c528051935060005b6040811015610ef557600082820152602001610ede565b505050565b6322bd64c0598160e01b8152836004820152846024820152600081604483336000905af158601d01573d60011458600c01573d6000803e3d621234565260ea61109c52600081526020610ede565b6373509064598160e01b8152602081600483336000905af158601d01573d60011458600c01573d6000803e3d621234565260ea61109c5280516000825293506020610ede565b638435035b598160e01b8152836004820152602081602483336000905af158601d01573d60011458600c01573d6000803e3d621234565260ea61109c5280516000825293506020610ede565b638540661f598160e01b815261100b565b8080831115610b93575090919050565b8080831015610b93575090919050565b836004820152846024820152606060448201528660648201526084810160005b8881101561104357808801518282015260200161102b565b506060828960a40184336000905af158601d01573d60011458600c01573d6000803e3d621234565260ea61109c52815160408301513d6000853e8b8b82606087013350600060045af150596110988d3d610ffb565b8c016110a48187610feb565b5b828110156110b957600081526020016110a5565b50929c50505050505050565b63bdbf8c36598160e01b8152602081600483336000905af158601d01573d60011458600c01573d6000803e3d621234565260ea61109c5280516000825293506020610ede565b6385979f76598160e01b8152836004820152846024820152606060448201528760648201526084810160005b8981101561114f578089015182820152602001611137565b506060828a60a40184336000905af158601d01573d60011458600c01573d6000803e3d621234565260ea61109c52815160408301513d6000853e8c8c82606087013350600060045af150596111a48e3d610ffb565b8d016111b08187610feb565b5b828110156111c557600081526020016111b1565b50929d5050505050505056fe4f776e61626c653a2063616c6c6572206973206e6f7420746865206f776e657274696d654f664c6173745242434e44697374203c20626c6f636b2e74696d657374616d70",
  "linkReferences": {},
  "deployedLinkReferences": {}
}