{
  "contracts/RubiconMarket.sol": {
    "RubiconMarket.ovm": {
      "abi": [
        {
          "inputs": [
            {
              "internalType": "uint64",
              "name": "close_time",
              "type": "uint64"
            },
            {
              "internalType": "bool",
              "name": "RBCNDist",
              "type": "bool"
            },
            {
              "internalType": "address",
              "name": "_feeTo",
              "type": "address"
            }
          ],
          "payable": false,
          "stateMutability": "nonpayable",
          "type": "constructor"
        },
        {
          "anonymous": false,
          "inputs": [
            {
              "indexed": false,
              "internalType": "bytes32",
              "name": "id",
              "type": "bytes32"
            },
            {
              "indexed": true,
              "internalType": "bytes32",
              "name": "pair",
              "type": "bytes32"
            },
            {
              "indexed": true,
              "internalType": "address",
              "name": "maker",
              "type": "address"
            },
            {
              "indexed": false,
              "internalType": "contract ERC20",
              "name": "pay_gem",
              "type": "address"
            },
            {
              "indexed": false,
              "internalType": "contract ERC20",
              "name": "buy_gem",
              "type": "address"
            },
            {
              "indexed": true,
              "internalType": "address",
              "name": "taker",
              "type": "address"
            },
            {
              "indexed": false,
              "internalType": "uint128",
              "name": "take_amt",
              "type": "uint128"
            },
            {
              "indexed": false,
              "internalType": "uint128",
              "name": "give_amt",
              "type": "uint128"
            },
            {
              "indexed": false,
              "internalType": "uint256",
              "name": "feeAmt",
              "type": "uint256"
            },
            {
              "indexed": false,
              "internalType": "address",
              "name": "feeTo",
              "type": "address"
            },
            {
              "indexed": false,
              "internalType": "uint64",
              "name": "timestamp",
              "type": "uint64"
            }
          ],
          "name": "FeeTake",
          "type": "event"
        },
        {
          "anonymous": false,
          "inputs": [
            {
              "indexed": true,
              "internalType": "bytes32",
              "name": "id",
              "type": "bytes32"
            },
            {
              "indexed": true,
              "internalType": "bytes32",
              "name": "pair",
              "type": "bytes32"
            },
            {
              "indexed": true,
              "internalType": "address",
              "name": "maker",
              "type": "address"
            },
            {
              "indexed": false,
              "internalType": "contract ERC20",
              "name": "pay_gem",
              "type": "address"
            },
            {
              "indexed": false,
              "internalType": "contract ERC20",
              "name": "buy_gem",
              "type": "address"
            },
            {
              "indexed": false,
              "internalType": "uint128",
              "name": "pay_amt",
              "type": "uint128"
            },
            {
              "indexed": false,
              "internalType": "uint128",
              "name": "buy_amt",
              "type": "uint128"
            },
            {
              "indexed": false,
              "internalType": "uint64",
              "name": "timestamp",
              "type": "uint64"
            }
          ],
          "name": "LogBump",
          "type": "event"
        },
        {
          "anonymous": false,
          "inputs": [
            {
              "indexed": false,
              "internalType": "bool",
              "name": "isEnabled",
              "type": "bool"
            }
          ],
          "name": "LogBuyEnabled",
          "type": "event"
        },
        {
          "anonymous": false,
          "inputs": [
            {
              "indexed": false,
              "internalType": "address",
              "name": "keeper",
              "type": "address"
            },
            {
              "indexed": false,
              "internalType": "uint256",
              "name": "id",
              "type": "uint256"
            }
          ],
          "name": "LogDelete",
          "type": "event"
        },
        {
          "anonymous": false,
          "inputs": [
            {
              "indexed": false,
              "internalType": "address",
              "name": "keeper",
              "type": "address"
            },
            {
              "indexed": false,
              "internalType": "uint256",
              "name": "id",
              "type": "uint256"
            }
          ],
          "name": "LogInsert",
          "type": "event"
        },
        {
          "anonymous": false,
          "inputs": [
            {
              "indexed": false,
              "internalType": "string",
              "name": "lol",
              "type": "string"
            },
            {
              "indexed": false,
              "internalType": "uint256",
              "name": "input",
              "type": "uint256"
            }
          ],
          "name": "LogInt",
          "type": "event"
        },
        {
          "anonymous": false,
          "inputs": [
            {
              "indexed": false,
              "internalType": "uint256",
              "name": "id",
              "type": "uint256"
            }
          ],
          "name": "LogItemUpdate",
          "type": "event"
        },
        {
          "anonymous": false,
          "inputs": [
            {
              "indexed": true,
              "internalType": "bytes32",
              "name": "id",
              "type": "bytes32"
            },
            {
              "indexed": true,
              "internalType": "bytes32",
              "name": "pair",
              "type": "bytes32"
            },
            {
              "indexed": true,
              "internalType": "address",
              "name": "maker",
              "type": "address"
            },
            {
              "indexed": false,
              "internalType": "contract ERC20",
              "name": "pay_gem",
              "type": "address"
            },
            {
              "indexed": false,
              "internalType": "contract ERC20",
              "name": "buy_gem",
              "type": "address"
            },
            {
              "indexed": false,
              "internalType": "uint128",
              "name": "pay_amt",
              "type": "uint128"
            },
            {
              "indexed": false,
              "internalType": "uint128",
              "name": "buy_amt",
              "type": "uint128"
            },
            {
              "indexed": false,
              "internalType": "uint64",
              "name": "timestamp",
              "type": "uint64"
            }
          ],
          "name": "LogKill",
          "type": "event"
        },
        {
          "anonymous": false,
          "inputs": [
            {
              "indexed": true,
              "internalType": "bytes32",
              "name": "id",
              "type": "bytes32"
            },
            {
              "indexed": true,
              "internalType": "bytes32",
              "name": "pair",
              "type": "bytes32"
            },
            {
              "indexed": true,
              "internalType": "address",
              "name": "maker",
              "type": "address"
            },
            {
              "indexed": false,
              "internalType": "contract ERC20",
              "name": "pay_gem",
              "type": "address"
            },
            {
              "indexed": false,
              "internalType": "contract ERC20",
              "name": "buy_gem",
              "type": "address"
            },
            {
              "indexed": false,
              "internalType": "uint128",
              "name": "pay_amt",
              "type": "uint128"
            },
            {
              "indexed": false,
              "internalType": "uint128",
              "name": "buy_amt",
              "type": "uint128"
            },
            {
              "indexed": false,
              "internalType": "uint64",
              "name": "timestamp",
              "type": "uint64"
            }
          ],
          "name": "LogMake",
          "type": "event"
        },
        {
          "anonymous": false,
          "inputs": [
            {
              "indexed": false,
              "internalType": "bool",
              "name": "isEnabled",
              "type": "bool"
            }
          ],
          "name": "LogMatchingEnabled",
          "type": "event"
        },
        {
          "anonymous": false,
          "inputs": [
            {
              "indexed": false,
              "internalType": "address",
              "name": "pay_gem",
              "type": "address"
            },
            {
              "indexed": false,
              "internalType": "uint256",
              "name": "min_amount",
              "type": "uint256"
            }
          ],
          "name": "LogMinSell",
          "type": "event"
        },
        {
          "anonymous": true,
          "inputs": [
            {
              "indexed": true,
              "internalType": "bytes4",
              "name": "sig",
              "type": "bytes4"
            },
            {
              "indexed": true,
              "internalType": "address",
              "name": "guy",
              "type": "address"
            },
            {
              "indexed": true,
              "internalType": "bytes32",
              "name": "foo",
              "type": "bytes32"
            },
            {
              "indexed": true,
              "internalType": "bytes32",
              "name": "bar",
              "type": "bytes32"
            },
            {
              "indexed": false,
              "internalType": "uint256",
              "name": "wad",
              "type": "uint256"
            },
            {
              "indexed": false,
              "internalType": "bytes",
              "name": "fax",
              "type": "bytes"
            }
          ],
          "name": "LogNote",
          "type": "event"
        },
        {
          "anonymous": false,
          "inputs": [
            {
              "indexed": true,
              "internalType": "address",
              "name": "authority",
              "type": "address"
            }
          ],
          "name": "LogSetAuthority",
          "type": "event"
        },
        {
          "anonymous": false,
          "inputs": [
            {
              "indexed": true,
              "internalType": "address",
              "name": "owner",
              "type": "address"
            }
          ],
          "name": "LogSetOwner",
          "type": "event"
        },
        {
          "anonymous": false,
          "inputs": [
            {
              "indexed": false,
              "internalType": "uint256",
              "name": "id",
              "type": "uint256"
            }
          ],
          "name": "LogSortedOffer",
          "type": "event"
        },
        {
          "anonymous": false,
          "inputs": [
            {
              "indexed": false,
              "internalType": "bytes32",
              "name": "id",
              "type": "bytes32"
            },
            {
              "indexed": true,
              "internalType": "bytes32",
              "name": "pair",
              "type": "bytes32"
            },
            {
              "indexed": true,
              "internalType": "address",
              "name": "maker",
              "type": "address"
            },
            {
              "indexed": false,
              "internalType": "contract ERC20",
              "name": "pay_gem",
              "type": "address"
            },
            {
              "indexed": false,
              "internalType": "contract ERC20",
              "name": "buy_gem",
              "type": "address"
            },
            {
              "indexed": true,
              "internalType": "address",
              "name": "taker",
              "type": "address"
            },
            {
              "indexed": false,
              "internalType": "uint128",
              "name": "take_amt",
              "type": "uint128"
            },
            {
              "indexed": false,
              "internalType": "uint128",
              "name": "give_amt",
              "type": "uint128"
            },
            {
              "indexed": false,
              "internalType": "uint64",
              "name": "timestamp",
              "type": "uint64"
            }
          ],
          "name": "LogTake",
          "type": "event"
        },
        {
          "anonymous": false,
          "inputs": [
            {
              "indexed": false,
              "internalType": "uint256",
              "name": "pay_amt",
              "type": "uint256"
            },
            {
              "indexed": true,
              "internalType": "address",
              "name": "pay_gem",
              "type": "address"
            },
            {
              "indexed": false,
              "internalType": "uint256",
              "name": "buy_amt",
              "type": "uint256"
            },
            {
              "indexed": true,
              "internalType": "address",
              "name": "buy_gem",
              "type": "address"
            }
          ],
          "name": "LogTrade",
          "type": "event"
        },
        {
          "anonymous": false,
          "inputs": [
            {
              "indexed": false,
              "internalType": "uint256",
              "name": "id",
              "type": "uint256"
            }
          ],
          "name": "LogUnsortedOffer",
          "type": "event"
        },
        {
          "constant": true,
          "inputs": [],
          "name": "AqueductAddress",
          "outputs": [
            {
              "internalType": "address",
              "name": "",
              "type": "address"
            }
          ],
          "payable": false,
          "stateMutability": "view",
          "type": "function"
        },
        {
          "constant": true,
          "inputs": [],
          "name": "AqueductDistributionLive",
          "outputs": [
            {
              "internalType": "bool",
              "name": "",
              "type": "bool"
            }
          ],
          "payable": false,
          "stateMutability": "view",
          "type": "function"
        },
        {
          "constant": true,
          "inputs": [],
          "name": "WETHAddress",
          "outputs": [
            {
              "internalType": "address",
              "name": "",
              "type": "address"
            }
          ],
          "payable": false,
          "stateMutability": "view",
          "type": "function"
        },
        {
          "constant": true,
          "inputs": [
            {
              "internalType": "address",
              "name": "",
              "type": "address"
            },
            {
              "internalType": "address",
              "name": "",
              "type": "address"
            }
          ],
          "name": "_best",
          "outputs": [
            {
              "internalType": "uint256",
              "name": "",
              "type": "uint256"
            }
          ],
          "payable": false,
          "stateMutability": "view",
          "type": "function"
        },
        {
          "constant": true,
          "inputs": [
            {
              "internalType": "address",
              "name": "",
              "type": "address"
            }
          ],
          "name": "_dust",
          "outputs": [
            {
              "internalType": "uint256",
              "name": "",
              "type": "uint256"
            }
          ],
          "payable": false,
          "stateMutability": "view",
          "type": "function"
        },
        {
          "constant": true,
          "inputs": [
            {
              "internalType": "uint256",
              "name": "",
              "type": "uint256"
            }
          ],
          "name": "_near",
          "outputs": [
            {
              "internalType": "uint256",
              "name": "",
              "type": "uint256"
            }
          ],
          "payable": false,
          "stateMutability": "view",
          "type": "function"
        },
        {
          "constant": true,
          "inputs": [
            {
              "internalType": "uint256",
              "name": "",
              "type": "uint256"
            }
          ],
          "name": "_rank",
          "outputs": [
            {
              "internalType": "uint256",
              "name": "next",
              "type": "uint256"
            },
            {
              "internalType": "uint256",
              "name": "prev",
              "type": "uint256"
            },
            {
              "internalType": "uint256",
              "name": "delb",
              "type": "uint256"
            }
          ],
          "payable": false,
          "stateMutability": "view",
          "type": "function"
        },
        {
          "constant": true,
          "inputs": [
            {
              "internalType": "address",
              "name": "",
              "type": "address"
            },
            {
              "internalType": "address",
              "name": "",
              "type": "address"
            }
          ],
          "name": "_span",
          "outputs": [
            {
              "internalType": "uint256",
              "name": "",
              "type": "uint256"
            }
          ],
          "payable": false,
          "stateMutability": "view",
          "type": "function"
        },
        {
          "constant": false,
          "inputs": [
            {
              "internalType": "bytes32",
              "name": "id_",
              "type": "bytes32"
            }
          ],
          "name": "bump",
          "outputs": [],
          "payable": false,
          "stateMutability": "nonpayable",
          "type": "function"
        },
        {
          "constant": false,
          "inputs": [
            {
              "internalType": "uint256",
              "name": "id",
              "type": "uint256"
            },
            {
              "internalType": "uint256",
              "name": "amount",
              "type": "uint256"
            }
          ],
          "name": "buy",
          "outputs": [
            {
              "internalType": "bool",
              "name": "",
              "type": "bool"
            }
          ],
          "payable": false,
          "stateMutability": "nonpayable",
          "type": "function"
        },
        {
          "constant": false,
          "inputs": [
            {
              "internalType": "contract ERC20",
              "name": "buy_gem",
              "type": "address"
            },
            {
              "internalType": "uint256",
              "name": "buy_amt",
              "type": "uint256"
            },
            {
              "internalType": "contract ERC20",
              "name": "pay_gem",
              "type": "address"
            },
            {
              "internalType": "uint256",
              "name": "max_fill_amount",
              "type": "uint256"
            }
          ],
          "name": "buyAllAmount",
          "outputs": [
            {
              "internalType": "uint256",
              "name": "fill_amt",
              "type": "uint256"
            }
          ],
          "payable": false,
          "stateMutability": "nonpayable",
          "type": "function"
        },
        {
          "constant": true,
          "inputs": [],
          "name": "buyEnabled",
          "outputs": [
            {
              "internalType": "bool",
              "name": "",
              "type": "bool"
            }
          ],
          "payable": false,
          "stateMutability": "view",
          "type": "function"
        },
        {
          "constant": false,
          "inputs": [
            {
              "internalType": "uint256",
              "name": "id",
              "type": "uint256"
            }
          ],
          "name": "buyInETH",
          "outputs": [
            {
              "internalType": "bool",
              "name": "",
              "type": "bool"
            }
          ],
          "payable": true,
          "stateMutability": "payable",
          "type": "function"
        },
        {
          "constant": false,
          "inputs": [
            {
              "internalType": "uint256",
              "name": "id",
              "type": "uint256"
            }
          ],
          "name": "cancel",
          "outputs": [
            {
              "internalType": "bool",
              "name": "success",
              "type": "bool"
            }
          ],
          "payable": false,
          "stateMutability": "nonpayable",
          "type": "function"
        },
        {
          "constant": true,
          "inputs": [],
          "name": "close_time",
          "outputs": [
            {
              "internalType": "uint64",
              "name": "",
              "type": "uint64"
            }
          ],
          "payable": false,
          "stateMutability": "view",
          "type": "function"
        },
        {
          "constant": false,
          "inputs": [
            {
              "internalType": "uint256",
              "name": "id",
              "type": "uint256"
            }
          ],
          "name": "del_rank",
          "outputs": [
            {
              "internalType": "bool",
              "name": "",
              "type": "bool"
            }
          ],
          "payable": false,
          "stateMutability": "nonpayable",
          "type": "function"
        },
        {
          "constant": true,
          "inputs": [],
          "name": "dustId",
          "outputs": [
            {
              "internalType": "uint256",
              "name": "",
              "type": "uint256"
            }
          ],
          "payable": false,
          "stateMutability": "view",
          "type": "function"
        },
        {
          "constant": true,
          "inputs": [
            {
              "internalType": "contract ERC20",
              "name": "sell_gem",
              "type": "address"
            },
            {
              "internalType": "contract ERC20",
              "name": "buy_gem",
              "type": "address"
            }
          ],
          "name": "getBestOffer",
          "outputs": [
            {
              "internalType": "uint256",
              "name": "",
              "type": "uint256"
            }
          ],
          "payable": false,
          "stateMutability": "view",
          "type": "function"
        },
        {
          "constant": true,
          "inputs": [
            {
              "internalType": "uint256",
              "name": "id",
              "type": "uint256"
            }
          ],
          "name": "getBetterOffer",
          "outputs": [
            {
              "internalType": "uint256",
              "name": "",
              "type": "uint256"
            }
          ],
          "payable": false,
          "stateMutability": "view",
          "type": "function"
        },
        {
          "constant": true,
          "inputs": [
            {
              "internalType": "contract ERC20",
              "name": "buy_gem",
              "type": "address"
            },
            {
              "internalType": "contract ERC20",
              "name": "pay_gem",
              "type": "address"
            },
            {
              "internalType": "uint256",
              "name": "pay_amt",
              "type": "uint256"
            }
          ],
          "name": "getBuyAmount",
          "outputs": [
            {
              "internalType": "uint256",
              "name": "fill_amt",
              "type": "uint256"
            }
          ],
          "payable": false,
          "stateMutability": "view",
          "type": "function"
        },
        {
          "constant": true,
          "inputs": [],
          "name": "getFirstUnsortedOffer",
          "outputs": [
            {
              "internalType": "uint256",
              "name": "",
              "type": "uint256"
            }
          ],
          "payable": false,
          "stateMutability": "view",
          "type": "function"
        },
        {
          "constant": true,
          "inputs": [
            {
              "internalType": "contract ERC20",
              "name": "pay_gem",
              "type": "address"
            }
          ],
          "name": "getMinSell",
          "outputs": [
            {
              "internalType": "uint256",
              "name": "",
              "type": "uint256"
            }
          ],
          "payable": false,
          "stateMutability": "view",
          "type": "function"
        },
        {
          "constant": true,
          "inputs": [
            {
              "internalType": "uint256",
              "name": "id",
              "type": "uint256"
            }
          ],
          "name": "getNextUnsortedOffer",
          "outputs": [
            {
              "internalType": "uint256",
              "name": "",
              "type": "uint256"
            }
          ],
          "payable": false,
          "stateMutability": "view",
          "type": "function"
        },
        {
          "constant": true,
          "inputs": [
            {
              "internalType": "uint256",
              "name": "id",
              "type": "uint256"
            }
          ],
          "name": "getOffer",
          "outputs": [
            {
              "internalType": "uint256",
              "name": "",
              "type": "uint256"
            },
            {
              "internalType": "contract ERC20",
              "name": "",
              "type": "address"
            },
            {
              "internalType": "uint256",
              "name": "",
              "type": "uint256"
            },
            {
              "internalType": "contract ERC20",
              "name": "",
              "type": "address"
            }
          ],
          "payable": false,
          "stateMutability": "view",
          "type": "function"
        },
        {
          "constant": true,
          "inputs": [
            {
              "internalType": "contract ERC20",
              "name": "sell_gem",
              "type": "address"
            },
            {
              "internalType": "contract ERC20",
              "name": "buy_gem",
              "type": "address"
            }
          ],
          "name": "getOfferCount",
          "outputs": [
            {
              "internalType": "uint256",
              "name": "",
              "type": "uint256"
            }
          ],
          "payable": false,
          "stateMutability": "view",
          "type": "function"
        },
        {
          "constant": true,
          "inputs": [
            {
              "internalType": "uint256",
              "name": "id",
              "type": "uint256"
            }
          ],
          "name": "getOwner",
          "outputs": [
            {
              "internalType": "address",
              "name": "owner",
              "type": "address"
            }
          ],
          "payable": false,
          "stateMutability": "view",
          "type": "function"
        },
        {
          "constant": true,
          "inputs": [
            {
              "internalType": "contract ERC20",
              "name": "pay_gem",
              "type": "address"
            },
            {
              "internalType": "contract ERC20",
              "name": "buy_gem",
              "type": "address"
            },
            {
              "internalType": "uint256",
              "name": "buy_amt",
              "type": "uint256"
            }
          ],
          "name": "getPayAmount",
          "outputs": [
            {
              "internalType": "uint256",
              "name": "fill_amt",
              "type": "uint256"
            }
          ],
          "payable": false,
          "stateMutability": "view",
          "type": "function"
        },
        {
          "constant": true,
          "inputs": [],
          "name": "getTime",
          "outputs": [
            {
              "internalType": "uint64",
              "name": "",
              "type": "uint64"
            }
          ],
          "payable": false,
          "stateMutability": "view",
          "type": "function"
        },
        {
          "constant": true,
          "inputs": [
            {
              "internalType": "uint256",
              "name": "id",
              "type": "uint256"
            }
          ],
          "name": "getWorseOffer",
          "outputs": [
            {
              "internalType": "uint256",
              "name": "",
              "type": "uint256"
            }
          ],
          "payable": false,
          "stateMutability": "view",
          "type": "function"
        },
        {
          "constant": false,
          "inputs": [
            {
              "internalType": "uint256",
              "name": "id",
              "type": "uint256"
            },
            {
              "internalType": "uint256",
              "name": "pos",
              "type": "uint256"
            }
          ],
          "name": "insert",
          "outputs": [
            {
              "internalType": "bool",
              "name": "",
              "type": "bool"
            }
          ],
          "payable": false,
          "stateMutability": "nonpayable",
          "type": "function"
        },
        {
          "constant": true,
          "inputs": [
            {
              "internalType": "uint256",
              "name": "id",
              "type": "uint256"
            }
          ],
          "name": "isActive",
          "outputs": [
            {
              "internalType": "bool",
              "name": "active",
              "type": "bool"
            }
          ],
          "payable": false,
          "stateMutability": "view",
          "type": "function"
        },
        {
          "constant": true,
          "inputs": [],
          "name": "isClosed",
          "outputs": [
            {
              "internalType": "bool",
              "name": "closed",
              "type": "bool"
            }
          ],
          "payable": false,
          "stateMutability": "view",
          "type": "function"
        },
        {
          "constant": true,
          "inputs": [
            {
              "internalType": "uint256",
              "name": "id",
              "type": "uint256"
            }
          ],
          "name": "isOfferSorted",
          "outputs": [
            {
              "internalType": "bool",
              "name": "",
              "type": "bool"
            }
          ],
          "payable": false,
          "stateMutability": "view",
          "type": "function"
        },
        {
          "constant": false,
          "inputs": [
            {
              "internalType": "bytes32",
              "name": "id",
              "type": "bytes32"
            }
          ],
          "name": "kill",
          "outputs": [],
          "payable": false,
          "stateMutability": "nonpayable",
          "type": "function"
        },
        {
          "constant": true,
          "inputs": [],
          "name": "last_offer_id",
          "outputs": [
            {
              "internalType": "uint256",
              "name": "",
              "type": "uint256"
            }
          ],
          "payable": false,
          "stateMutability": "view",
          "type": "function"
        },
        {
          "constant": false,
          "inputs": [
            {
              "internalType": "contract ERC20",
              "name": "pay_gem",
              "type": "address"
            },
            {
              "internalType": "contract ERC20",
              "name": "buy_gem",
              "type": "address"
            },
            {
              "internalType": "uint128",
              "name": "pay_amt",
              "type": "uint128"
            },
            {
              "internalType": "uint128",
              "name": "buy_amt",
              "type": "uint128"
            }
          ],
          "name": "make",
          "outputs": [
            {
              "internalType": "bytes32",
              "name": "",
              "type": "bytes32"
            }
          ],
          "payable": false,
          "stateMutability": "nonpayable",
          "type": "function"
        },
        {
          "constant": true,
          "inputs": [],
          "name": "matchingEnabled",
          "outputs": [
            {
              "internalType": "bool",
              "name": "",
              "type": "bool"
            }
          ],
          "payable": false,
          "stateMutability": "view",
          "type": "function"
        },
        {
          "constant": false,
          "inputs": [
            {
              "internalType": "uint256",
              "name": "pay_amt",
              "type": "uint256"
            },
            {
              "internalType": "contract ERC20",
              "name": "pay_gem",
              "type": "address"
            },
            {
              "internalType": "uint256",
              "name": "buy_amt",
              "type": "uint256"
            },
            {
              "internalType": "contract ERC20",
              "name": "buy_gem",
              "type": "address"
            },
            {
              "internalType": "uint256",
              "name": "pos",
              "type": "uint256"
            }
          ],
          "name": "offer",
          "outputs": [
            {
              "internalType": "uint256",
              "name": "",
              "type": "uint256"
            }
          ],
          "payable": false,
          "stateMutability": "nonpayable",
          "type": "function"
        },
        {
          "constant": false,
          "inputs": [
            {
              "internalType": "uint256",
              "name": "pay_amt",
              "type": "uint256"
            },
            {
              "internalType": "contract ERC20",
              "name": "pay_gem",
              "type": "address"
            },
            {
              "internalType": "uint256",
              "name": "buy_amt",
              "type": "uint256"
            },
            {
              "internalType": "contract ERC20",
              "name": "buy_gem",
              "type": "address"
            },
            {
              "internalType": "uint256",
              "name": "pos",
              "type": "uint256"
            },
            {
              "internalType": "bool",
              "name": "matching",
              "type": "bool"
            }
          ],
          "name": "offer",
          "outputs": [
            {
              "internalType": "uint256",
              "name": "",
              "type": "uint256"
            }
          ],
          "payable": false,
          "stateMutability": "nonpayable",
          "type": "function"
        },
        {
          "constant": false,
          "inputs": [
            {
              "internalType": "uint256",
              "name": "pay_amt",
              "type": "uint256"
            },
            {
              "internalType": "contract ERC20",
              "name": "pay_gem",
              "type": "address"
            },
            {
              "internalType": "uint256",
              "name": "buy_amt",
              "type": "uint256"
            },
            {
              "internalType": "contract ERC20",
              "name": "buy_gem",
              "type": "address"
            }
          ],
          "name": "offer",
          "outputs": [
            {
              "internalType": "uint256",
              "name": "",
              "type": "uint256"
            }
          ],
          "payable": false,
          "stateMutability": "nonpayable",
          "type": "function"
        },
        {
          "constant": false,
          "inputs": [
            {
              "internalType": "uint256",
              "name": "buy_amt",
              "type": "uint256"
            },
            {
              "internalType": "contract ERC20",
              "name": "buy_gem",
              "type": "address"
            }
          ],
          "name": "offerInETH",
          "outputs": [
            {
              "internalType": "uint256",
              "name": "",
              "type": "uint256"
            }
          ],
          "payable": true,
          "stateMutability": "payable",
          "type": "function"
        },
        {
          "constant": true,
          "inputs": [
            {
              "internalType": "uint256",
              "name": "",
              "type": "uint256"
            }
          ],
          "name": "offers",
          "outputs": [
            {
              "internalType": "uint256",
              "name": "pay_amt",
              "type": "uint256"
            },
            {
              "internalType": "contract ERC20",
              "name": "pay_gem",
              "type": "address"
            },
            {
              "internalType": "uint256",
              "name": "buy_amt",
              "type": "uint256"
            },
            {
              "internalType": "contract ERC20",
              "name": "buy_gem",
              "type": "address"
            },
            {
              "internalType": "address",
              "name": "owner",
              "type": "address"
            },
            {
              "internalType": "uint64",
              "name": "timestamp",
              "type": "uint64"
            }
          ],
          "payable": false,
          "stateMutability": "view",
          "type": "function"
        },
        {
          "constant": true,
          "inputs": [],
          "name": "owner",
          "outputs": [
            {
              "internalType": "address",
              "name": "",
              "type": "address"
            }
          ],
          "payable": false,
          "stateMutability": "view",
          "type": "function"
        },
        {
          "constant": false,
          "inputs": [
            {
              "internalType": "contract ERC20",
              "name": "pay_gem",
              "type": "address"
            },
            {
              "internalType": "uint256",
              "name": "pay_amt",
              "type": "uint256"
            },
            {
              "internalType": "contract ERC20",
              "name": "buy_gem",
              "type": "address"
            },
            {
              "internalType": "uint256",
              "name": "min_fill_amount",
              "type": "uint256"
            }
          ],
          "name": "sellAllAmount",
          "outputs": [
            {
              "internalType": "uint256",
              "name": "fill_amt",
              "type": "uint256"
            }
          ],
          "payable": false,
          "stateMutability": "nonpayable",
          "type": "function"
        },
        {
          "constant": false,
          "inputs": [
            {
              "internalType": "address",
              "name": "_Aqueduct",
              "type": "address"
            }
          ],
          "name": "setAqueductAddress",
          "outputs": [
            {
              "internalType": "bool",
              "name": "",
              "type": "bool"
            }
          ],
          "payable": false,
          "stateMutability": "nonpayable",
          "type": "function"
        },
        {
          "constant": false,
          "inputs": [
            {
              "internalType": "bool",
              "name": "live",
              "type": "bool"
            }
          ],
          "name": "setAqueductDistributionLive",
          "outputs": [
            {
              "internalType": "bool",
              "name": "",
              "type": "bool"
            }
          ],
          "payable": false,
          "stateMutability": "nonpayable",
          "type": "function"
        },
        {
          "constant": false,
          "inputs": [
            {
              "internalType": "bool",
              "name": "buyEnabled_",
              "type": "bool"
            }
          ],
          "name": "setBuyEnabled",
          "outputs": [
            {
              "internalType": "bool",
              "name": "",
              "type": "bool"
            }
          ],
          "payable": false,
          "stateMutability": "nonpayable",
          "type": "function"
        },
        {
          "constant": false,
          "inputs": [
            {
              "internalType": "uint256",
              "name": "_newFeeBPS",
              "type": "uint256"
            }
          ],
          "name": "setFeeBPS",
          "outputs": [
            {
              "internalType": "bool",
              "name": "",
              "type": "bool"
            }
          ],
          "payable": false,
          "stateMutability": "nonpayable",
          "type": "function"
        },
        {
          "constant": false,
          "inputs": [
            {
              "internalType": "address",
              "name": "newFeeTo",
              "type": "address"
            }
          ],
          "name": "setFeeTo",
          "outputs": [
            {
              "internalType": "bool",
              "name": "",
              "type": "bool"
            }
          ],
          "payable": false,
          "stateMutability": "nonpayable",
          "type": "function"
        },
        {
          "constant": false,
          "inputs": [
            {
              "internalType": "bool",
              "name": "matchingEnabled_",
              "type": "bool"
            }
          ],
          "name": "setMatchingEnabled",
          "outputs": [
            {
              "internalType": "bool",
              "name": "",
              "type": "bool"
            }
          ],
          "payable": false,
          "stateMutability": "nonpayable",
          "type": "function"
        },
        {
          "constant": false,
          "inputs": [
            {
              "internalType": "contract ERC20",
              "name": "pay_gem",
              "type": "address"
            },
            {
              "internalType": "uint256",
              "name": "dust",
              "type": "uint256"
            }
          ],
          "name": "setMinSell",
          "outputs": [
            {
              "internalType": "bool",
              "name": "",
              "type": "bool"
            }
          ],
          "payable": false,
          "stateMutability": "nonpayable",
          "type": "function"
        },
        {
          "constant": false,
          "inputs": [
            {
              "internalType": "address",
              "name": "owner_",
              "type": "address"
            }
          ],
          "name": "setOwner",
          "outputs": [],
          "payable": false,
          "stateMutability": "nonpayable",
          "type": "function"
        },
        {
          "constant": false,
          "inputs": [],
          "name": "stop",
          "outputs": [],
          "payable": false,
          "stateMutability": "nonpayable",
          "type": "function"
        },
        {
          "constant": true,
          "inputs": [],
          "name": "stopped",
          "outputs": [
            {
              "internalType": "bool",
              "name": "",
              "type": "bool"
            }
          ],
          "payable": false,
          "stateMutability": "view",
          "type": "function"
        },
        {
          "constant": false,
          "inputs": [
            {
              "internalType": "bytes32",
              "name": "id",
              "type": "bytes32"
            },
            {
              "internalType": "uint128",
              "name": "maxTakeAmount",
              "type": "uint128"
            }
          ],
          "name": "take",
          "outputs": [],
          "payable": false,
          "stateMutability": "nonpayable",
          "type": "function"
        }
      ],
      "evm": {
        "bytecode": {
          "linkReferences": {},
          "object": "608060405260016005600160e81b816200001862000235565b8160ff021916908315150217906200002f6200026e565b50505060016005601e6101000a816200004762000235565b8160ff021916908315150217906200005e6200026e565b50505073c02aaa39b223fe8d0a0e5c4f27ead9083c756cc2600e60006101000a816200008962000235565b816001600160a01b0302191690836001600160a01b0316021790620000ad6200026e565b505050348015620000bd57600080fd5b50604051620054193803806200541983398181016040526060811015620000e357600080fd5b508051602082015160409092015190919082815a62000101620002ab565b60006001816200011062000235565b816001600160a01b0302191690836001600160a01b0316021790620001346200026e565b5050505a62000142620002ab565b6001600160a01b03167fce241d7ca1f669fee44b6fc00b8eba2df3bb514eed0f6f668f8f89096e81ed9460405160405180910390a28060056001816200018762000235565b816001600160a01b0302191690836001600160a01b0316021790620001ab6200026e565b505050601460048190620001be6200026e565b5050505080600560146101000a81620001d662000235565b816001600160401b0302191690836001600160401b0316021790620001fa6200026e565b5050505081600d60146101000a816200021262000235565b8160ff02191690831515021790620002296200026e565b505050505050620002d0565b630412cc4160e31b62080000908152620800048390526320966208906020816024816000335af1806200026757600080fd5b5051925050565b630146e59560e51b6208000090815262080004839052620800248490526328dcb2a09060008160448183335af180620002a657600080fd5b505050565b6373509064620800008160e01b81526020816004836000335af1806200026757600080fd5b61513980620002e06000396000f3fe6080604052600436106103505760003560e01c8063779997c3116101c6578063be71f5ce116100f7578063d6febde811610095578063f09ea2a61161006f578063f09ea2a614610cf2578063f46901ed14610d3b578063f582d29314610d6e578063ff1fd97414610d8357610350565b8063d6febde814610c50578063e1a6f01414610c80578063f057adbb14610cd557610350565b8063c2d526aa116100d1578063c2d526aa14610b88578063c41a360a14610bd0578063d2b420ce14610bfa578063d6f1546914610c2457610350565b8063be71f5ce14610b07578063bf7c734e14610b3a578063c2b6b58c14610b7357610350565b8063911550f411610164578063a128171b1161013e578063a128171b14610a5b578063a78d431614610a87578063b4f9b6c814610ab1578063b73b73fd14610adb57610350565b8063911550f4146109d457806391be90c8146109fe578063943911bc14610a3157610350565b806382afd23b116101a057806382afd23b1461090d5780638a72ea6a146109375780638af82a2e146109aa5780638da5cb5b146109bf57610350565b8063779997c3146108615780637ca9429a1461088b5780638185402b146108c657610350565b806340e58ee5116102a0578063604b6a9c1161023e578063677170e111610218578063677170e1146107c15780636b9d8c4b146107fc57806374c1d7d31461081157806375f12b211461084c57610350565b8063604b6a9c1461075857806361f54a79146107825780636377ebca146107ac57610350565b8063496064551161027a57806349606455146106a6578063511fa487146106df578063557ed1ba1461071257806356ad87641461074357610350565b806340e58ee5146105f75780634579268a14610621578063467f0b7b1461067c57610350565b806313af40351161030d5780631d834a1b116102e75780631d834a1b14610571578063232cae0b146105a15780632aed1905146105b65780632f90a6fc146105e257610350565b806313af4035146104ae578063144a2752146104e15780631b33d4121461052457610350565b806301492a0b146103555780630374fc6f1461037e5780630621b4f6146103cb57806307da68f514610412578063093f5198146104295780630af88b241461047d575b600080fd5b34801561036157600080fd5b5061036a610dc6565b604080519115158252519081900360200190f35b34801561038a57600080fd5b506103b9600480360360408110156103a157600080fd5b506001600160a01b0381358116916020013516610ddf565b60408051918252519081900360200190f35b3480156103d757600080fd5b506103b9600480360360808110156103ee57600080fd5b506001600160a01b0381358116916020810135916040820135169060600135610e17565b34801561041e57600080fd5b50610427610ffc565b005b34801561043557600080fd5b506103b96004803603608081101561044c57600080fd5b506001600160a01b0381358116916020810135909116906001600160801b0360408201358116916060013516611078565b34801561048957600080fd5b506104926110a1565b604080516001600160a01b039092168252519081900360200190f35b3480156104ba57600080fd5b50610427600480360360208110156104d157600080fd5b50356001600160a01b03166110c0565b3480156104ed57600080fd5b506103b96004803603606081101561050457600080fd5b506001600160a01b03813581169160208101359091169060400135611192565b34801561053057600080fd5b506103b9600480360360a081101561054757600080fd5b508035906001600160a01b0360208201358116916040810135916060820135169060800135611280565b34801561057d57600080fd5b5061036a6004803603604081101561059457600080fd5b50803590602001356112ad565b3480156105ad57600080fd5b506103b9611391565b3480156105c257600080fd5b5061036a600480360360208110156105d957600080fd5b5035151561139e565b3480156105ee57600080fd5b5061036a61146e565b34801561060357600080fd5b5061036a6004803603602081101561061a57600080fd5b503561147a565b34801561062d57600080fd5b5061064b6004803603602081101561064457600080fd5b50356115fb565b604080519485526001600160a01b039384166020860152848101929092529091166060830152519081900360800190f35b34801561068857600080fd5b5061036a6004803603602081101561069f57600080fd5b50356116f6565b3480156106b257600080fd5b50610427600480360360408110156106c957600080fd5b50803590602001356001600160801b031661183d565b3480156106eb57600080fd5b506103b96004803603602081101561070257600080fd5b50356001600160a01b031661185d565b34801561071e57600080fd5b5061072761187d565b604080516001600160401b039092168252519081900360200190f35b34801561074f57600080fd5b506103b961188d565b34801561076457600080fd5b5061036a6004803603602081101561077b57600080fd5b5035611897565b34801561078e57600080fd5b506103b9600480360360208110156107a557600080fd5b50356118fb565b3480156107b857600080fd5b50610727611911565b3480156107cd57600080fd5b506103b9600480360360408110156107e457600080fd5b506001600160a01b0381358116916020013516611930565b34801561080857600080fd5b50610492611951565b34801561081d57600080fd5b506103b96004803603604081101561083457600080fd5b506001600160a01b038135811691602001351661195d565b34801561085857600080fd5b5061036a61197e565b34801561086d57600080fd5b506104276004803603602081101561088457600080fd5b503561198a565b34801561089757600080fd5b506103b9600480360360408110156108ae57600080fd5b506001600160a01b0381358116916020013516611bce565b3480156108d257600080fd5b506103b9600480360360808110156108e957600080fd5b506001600160a01b0381358116916020810135916040820135169060600135611bfd565b34801561091957600080fd5b5061036a6004803603602081101561093057600080fd5b5035611dab565b34801561094357600080fd5b506109616004803603602081101561095a57600080fd5b5035611de2565b604080519687526001600160a01b03958616602088015286810194909452918416606086015290921660808401526001600160401b0390911660a0830152519081900360c00190f35b3480156109b657600080fd5b506103b9611e89565b3480156109cb57600080fd5b50610492611e95565b3480156109e057600080fd5b506103b9600480360360208110156109f757600080fd5b5035611ea0565b348015610a0a57600080fd5b506103b960048036036020811015610a2157600080fd5b50356001600160a01b0316611eb6565b348015610a3d57600080fd5b506103b960048036036020811015610a5457600080fd5b5035611ecc565b348015610a6757600080fd5b5061036a60048036036020811015610a7e57600080fd5b50351515611ee5565b348015610a9357600080fd5b506103b960048036036020811015610aaa57600080fd5b5035611f58565b348015610abd57600080fd5b5061042760048036036020811015610ad457600080fd5b5035611f6e565b6103b960048036036040811015610af157600080fd5b50803590602001356001600160a01b0316611f83565b348015610b1357600080fd5b5061036a60048036036020811015610b2a57600080fd5b50356001600160a01b0316612189565b348015610b4657600080fd5b5061036a60048036036040811015610b5d57600080fd5b506001600160a01b038135169060200135612206565b348015610b7f57600080fd5b5061036a612344565b348015610b9457600080fd5b50610bb260048036036020811015610bab57600080fd5b503561239e565b60408051938452602084019290925282820152519081900360600190f35b348015610bdc57600080fd5b5061049260048036036020811015610bf357600080fd5b50356123d4565b348015610c0657600080fd5b5061036a60048036036020811015610c1d57600080fd5b5035612406565b348015610c3057600080fd5b5061036a60048036036020811015610c4757600080fd5b503515156124f8565b348015610c5c57600080fd5b5061036a60048036036040811015610c7357600080fd5b508035906020013561259c565b348015610c8c57600080fd5b506103b9600480360360c0811015610ca357600080fd5b508035906001600160a01b0360208201358116916040810135916060820135169060808101359060a00135151561274b565b61036a60048036036020811015610ceb57600080fd5b5035612829565b348015610cfe57600080fd5b506103b960048036036080811015610d1557600080fd5b508035906001600160a01b03602082013581169160408101359160609091013516612ab5565b348015610d4757600080fd5b5061036a60048036036020811015610d5e57600080fd5b50356001600160a01b0316612b47565b348015610d7a57600080fd5b5061036a612ba2565b348015610d8f57600080fd5b506103b960048036036060811015610da657600080fd5b506001600160a01b03813581169160208101359091169060400135612bae565b601e6005610dd2614e13565b906101000a900460ff1681565b6001600160a01b0380831660009081526007602090815260408083209385168352929052908120610e0e614e13565b90505b92915050565b6000806003610e24614e13565b906101000a900460ff1615610e6e576040805162461bcd60e51b81526020600482015260126024820152600080516020614fcb833981519152604482015290519081900360640190fd5b60005b8415610fe657610e818487610ddf565b905080610e8d57600080fd5b6000818152600260208190526040909120610ec69101610eab614e13565b6000838152600260205260409020610ec1614e13565b612c72565b85670de0b6b3a7640000021015610edc57610fe6565b600081815260026020819052604090912001610ef6614e13565b8510610f6f576000818152600260205260409020610f1d908390610f18614e13565b612ca1565b9150610f468560026000848152602001908152602001600020600201610f41614e13565b612cf0565b6000828152600260205260409020909550610f6a908290610f65614e13565b61183d565b610fe1565b6000818152600260205260408120633b9aca0090610fbb9088830290610fb690610f97614e13565b600087815260026020819052604090912001610fb1614e13565b612d40565b612d5c565b81610fc257fe5b049050610fcf8382612ca1565b9250610fdb828261183d565b60009550505b610e71565b82821015610ff357600080fd5b50949350505050565b61100d5a611008614e4b565b612d8c565b61104c576040805162461bcd60e51b815260206004820152601460248201526000805160206150bf833981519152604482015290519081900360640190fd5b60016005600160e01b8161105e614e13565b8160ff02191690831515021790611073614e6f565b505050565b6000611098836001600160801b031686846001600160801b031687612ab5565b95945050505050565b6000600e6110ad614e13565b906101000a90046001600160a01b031681565b6110cc5a611008614e4b565b61110b576040805162461bcd60e51b815260206004820152601460248201526000805160206150bf833981519152604482015290519081900360640190fd5b806000600181611119614e13565b816001600160a01b0302191690836001600160a01b031602179061113b614e6f565b5050506000809061114a614e13565b906101000a90046001600160a01b03166001600160a01b03167fce241d7ca1f669fee44b6fc00b8eba2df3bb514eed0f6f668f8f89096e81ed9460405160405180910390a250565b60008061119f8585610ddf565b90505b6000818152600260208190526040909120016111bc614e13565b8311156112255760008181526002602052604090206111df908390610f18614e13565b91506112038360026000848152602001908152602001600020600201610f41614e13565b925082156112205761121481611ecc565b90508061122057600080fd5b6111a2565b61109882633b9aca0061127386633b9aca0002610fb660026000888152602001908152602001600020600001611259614e13565b600088815260026020819052604090912001610fb1614e13565b8161127a57fe5b04612ca1565b600061128a612344565b1561129457600080fd5b6112a38686868686600161274b565b9695505050505050565b60008060036112ba614e13565b906101000a900460ff1615611304576040805162461bcd60e51b81526020600482015260126024820152600080516020614fcb833981519152604482015290519081900360640190fd5b61130d83612406565b1561131757600080fd5b61132083611dab565b61132957600080fd5b61133283612e1f565b5061133d8383612f3a565b7f6d5c16212bdea16850dce4d9fa2314c446bd30ce84700d9c36c7677c6d2839405a611367614e4b565b604080516001600160a01b039092168252602082018690528051918290030190a150600192915050565b600161139b614e13565b81565b60006113ac5a611008614e4b565b6113eb576040805162461bcd60e51b815260206004820152601460248201526000805160206150bf833981519152604482015290519081900360640190fd5b816005600160f01b816113fc614e13565b8160ff02191690831515021790611411614e6f565b5050507fea11e00ec1642be9b494019b756440e2c57dbe9e59242c4f9c64ce33fb4f41d96005601e90611442614e13565b906101000a900460ff16604051808215151515815260200191505060405180910390a15060015b919050565b6014600d610dd2614e13565b60008161148681611dab565b6114c15760405162461bcd60e51b815260040180806020018281038252602d81526020018061501e602d913960400191505060405180910390fd5b6114c9612344565b806114f557506114d8816123d4565b6001600160a01b03165a6114ea614e4b565b6001600160a01b0316145b806115085750600c611505614e13565b81145b6115435760405162461bcd60e51b815260040180806020018281038252607481526020018061504b6074913960800191505060405180910390fd5b6000600361154f614e13565b906101000a900460ff1615611599576040805162461bcd60e51b81526020600482015260126024820152600080516020614fcb833981519152604482015290519081900360640190fd5b601e60056115a5614e13565b906101000a900460ff16156115eb576115bd83612406565b156115d9576115cb836131fc565b6115d457600080fd5b6115eb565b6115e283612e1f565b6115eb57600080fd5b6115f4836134ec565b9392505050565b600080600080611609614ea6565b60008681526002602052604090819020815160c08101909252818161162c614e13565b815260200160006001830161163f614e13565b6001600160a01b036101009290920a900416815260200160028201611662614e13565b8152602001600060038301611675614e13565b6001600160a01b036101009290920a900416815260200160006004830161169a614e13565b6001600160a01b036101009290920a90041681526020016014600483016116bf614e13565b6101009190910a90046001600160401b03169052508051602082015160408301516060909301519199909850919650945092505050565b6000806003611703614e13565b906101000a900460ff161561174d576040805162461bcd60e51b81526020600482015260126024820152600080516020614fcb833981519152604482015290519081900360640190fd5b61175682611dab565b15801561177a57506000828152600660205260409020600201611777614e13565b15155b80156117a2575060008281526006602052604090206009194301906002016117a0614e13565b105b6117ab57600080fd5b60008281526006602052604081209080826117c4614e6f565b5050600182016000906117d5614e6f565b5050600282016000906117e6614e6f565b505050507fcb9d6176c6aac6478ebb9a2754cdce22a944de29ed1f2642f8613884eba4b40c5a611814614e4b565b604080516001600160a01b039092168252602082018590528051918290030190a1506001919050565b611850826001600160801b03831661259c565b61185957600080fd5b5050565b6001600160a01b0381166000908152600960205260408120610e11614e13565b60005a611888614edb565b905090565b600c61139b614e13565b60006118a55a611008614e4b565b6118e4576040805162461bcd60e51b815260206004820152601460248201526000805160206150bf833981519152604482015290519081900360640190fd5b818060046118f0614e6f565b506001949350505050565b6000818152600a60205260408120610e11614e13565b6014600561191d614e13565b906101000a90046001600160401b031681565b6008602090815260009283526040808420909152908252902061139b614e13565b6000600d6110ad614e13565b6007602090815260009283526040808420909152908252902061139b614e13565b601c6005610dd2614e13565b8061199481611dab565b61199d57600080fd5b6119a5612344565b156119af57600080fd5b60008281526002602052604081208391906004016119cb614e13565b906101000a90046001600160a01b03166001600160a01b031660026000838152602001908152602001600020600101600090611a05614e13565b906101000a90046001600160a01b031660026000848152602001908152602001600020600301600090611a36614e13565b906101000a90046001600160a01b031660405160200180836001600160a01b03166001600160a01b031660601b8152601401826001600160a01b03166001600160a01b031660601b81526014019250505060405160208183030381529060405280519060200120847f70a14c213064359ede031fd2a1645a11ce2ec825ffe6ab5cfb5b160c3ef4d0a260026000868152602001908152602001600020600101600090611ae0614e13565b906101000a90046001600160a01b031660026000878152602001908152602001600020600301600090611b11614e13565b906101000a90046001600160a01b031660026000888152602001908152602001600020600001611b3f614e13565b600088815260026020819052604090912001611b59614e13565b6000898152600260205260409020601490600401611b75614e13565b604080516001600160a01b0397881681529590961660208601526001600160801b03938416858701529190921660608401526001600160401b036101009290920a900416608082015290519081900360a00190a4505050565b6001600160a01b0380831660009081526008602090815260408083209385168352929052908120610e0e614e13565b6000806003611c0a614e13565b906101000a900460ff1615611c54576040805162461bcd60e51b81526020600482015260126024820152600080516020614fcb833981519152604482015290519081900360640190fd5b60005b8415611d9e57611c678685610ddf565b905080611c7357600080fd5b6000818152600260205260409020611ca790611c8d614e13565b600083815260026020819052604090912001610ec1614e13565b85670de0b6b3a7640000021015611cbd57611d9e565b6000818152600260205260409020611cd3614e13565b8510611d3e57611cfb8260026000848152602001908152602001600020600201610f18614e13565b6000828152600260205260409020909250611d1a908690610f41614e13565b6000828152600260205260409020909550611d39908290610f65614e13565b611d99565b611d8882633b9aca0061127388633b9aca0002610fb660026000888152602001908152602001600020600201611d72614e13565b6000888152600260205260409020610fb1614e13565b9150611d94818661183d565b600094505b611c57565b82821115610ff357600080fd5b60008181526002602052604081208190601490600401611dc9614e13565b6001600160401b036101009290920a9004161192915050565b600260205260009081526040902080611df9614e13565b90600060018201611e08614e13565b906101000a90046001600160a01b03169080600201611e25614e13565b90600060038201611e34614e13565b906101000a90046001600160a01b03169080600401600090611e54614e13565b906101000a90046001600160a01b03169080600401601490611e74614e13565b906101000a90046001600160401b0316905086565b6000600b611888614e13565b6000806110ad614e13565b6000818152600660205260408120610e11614e13565b600960205260009081526040902061139b614e13565b6000818152600660205260408120600101610e11614e13565b6000611ef35a611008614e4b565b611f32576040805162461bcd60e51b815260206004820152601460248201526000805160206150bf833981519152604482015290519081900360640190fd5b81600d600160a01b81611f43614e13565b8160ff021916908315150217906118f0614e6f565b600a60205260009081526040902061139b614e13565b611f778161147a565b611f8057600080fd5b50565b6000806003611f90614e13565b906101000a900460ff1615611fda576040805162461bcd60e51b81526020600482015260126024820152600080516020614fcb833981519152604482015290519081900360640190fd5b6000600e611fe6614e13565b906101000a90046001600160a01b03166001600160a01b031663d0e30db0346040518263ffffffff1660e01b815260040160006040518083038185888061202b614eff565b15801561203757600080fd5b505a612041614f30565b505050505050158015612058573d6000803e3d6000fd5b5050505050600e60009061206a614e13565b906101000a90046001600160a01b03166001600160a01b031663a9059cbb5a612091614e4b565b346040518363ffffffff1660e01b815260040180836001600160a01b03166001600160a01b0316815260200182815260200192505050602060405180830381600087806120dc614eff565b1580156120e857600080fd5b505a6120f2614f30565b505050505050158015612109573d6000803e3d6000fd5b505050506040513d602081101561211f57600080fd5b506000905080600e61212f614e13565b906101000a90046001600160a01b031690506005601e9061214e614e13565b906101000a900460ff16156121755761216d34828686600060016139ac565b915050610e11565b61218134828686613b3f565b949350505050565b60006121975a611008614e4b565b6121d6576040805162461bcd60e51b815260206004820152601460248201526000805160206150bf833981519152604482015290519081900360640190fd5b81600d6001816121e4614e13565b816001600160a01b0302191690836001600160a01b03160217906118f0614e6f565b60006122145a611008614e4b565b612253576040805162461bcd60e51b815260206004820152601460248201526000805160206150bf833981519152604482015290519081900360640190fd5b6004356024353481835a612265614e4b565b6001600160a01b03166000356001600160e01b0319166001600160e01b0319168460003660405180848152602001806020018281038252848482818152602001925080828437600083820152604051601f909101601f1916909201829003965090945050505050a46001600160a01b0386166000908152600960205260409020859081906122f1614e6f565b5050604080516001600160a01b03891681526020810188905281517fc28d56449b0bb31e64ee7487e061f57a2e72aea8019d810832f26dda099823d093509081900390910190a150600195945050505050565b6000601c6005612352614e13565b906101000a900460ff168061188857506014600561236e614e13565b906101000a90046001600160401b03166001600160401b031661238f61187d565b6001600160401b031611905090565b6006602052600090815260409020806123b5614e13565b90806001016123c2614e13565b90806002016123cf614e13565b905083565b600081815260026020526040812081906004016123ef614e13565b906101000a90046001600160a01b03169050919050565b600081815260066020526040812061241c614e13565b1515806124405750600082815260066020526040902060010161243d614e13565b15155b80610e115750600082815260026020526040812083916007918190600101612466614e13565b906101000a90046001600160a01b03166001600160a01b03166001600160a01b031681526020019081526020016000206000600260008681526020019081526020016000206003016000906124b9614e13565b906101000a90046001600160a01b03166001600160a01b03166001600160a01b031681526020019081526020016000206124f1614e13565b1492915050565b60006125065a611008614e4b565b612545576040805162461bcd60e51b815260206004820152601460248201526000805160206150bf833981519152604482015290519081900360640190fd5b816005600160e81b81612556614e13565b8160ff0219169083151502179061256b614e6f565b5050507f7089e4f0bcc948f9f723a361590c32d9c2284da7ab1981b1249ad2edb9f953c16005601d90611442614e13565b6000826125a881611dab565b6125b157600080fd5b6125b9612344565b156125c357600080fd5b600060036125cf614e13565b906101000a900460ff1615612619576040805162461bcd60e51b81526020600482015260126024820152600080516020614fcb833981519152604482015290519081900360640190fd5b6014600d612625614e13565b906101000a900460ff1615612712576000600d612640614e13565b906101000a90046001600160a01b03166001600160a01b031663b30ed7b3612667866123d4565b5a612670614e4b565b6040518363ffffffff1660e01b815260040180836001600160a01b03166001600160a01b03168152602001826001600160a01b03166001600160a01b0316815260200192505050602060405180830381600087806126cc614eff565b1580156126d857600080fd5b505a6126e2614f30565b5050505050501580156126f9573d6000803e3d6000fd5b505050506040513d602081101561270f57600080fd5b50505b614f87601e6005612721614e13565b906101000a900460ff1661273757613fc961273b565b6149855b905061109885858363ffffffff16565b6000612755612344565b1561275f57600080fd5b6000600361276b614e13565b906101000a900460ff16156127b5576040805162461bcd60e51b81526020600482015260126024820152600080516020614fcb833981519152604482015290519081900360640190fd5b6001600160a01b038616600090815260096020526040902087906127d7614e13565b11156127e257600080fd5b601e60056127ee614e13565b906101000a900460ff16156128125761280b8787878787876139ac565b90506112a3565b61281e87878787613b3f565b979650505050505050565b60008161283581611dab565b61283e57600080fd5b612846612344565b1561285057600080fd5b6000600361285c614e13565b906101000a900460ff16156128a6576040805162461bcd60e51b81526020600482015260126024820152600080516020614fcb833981519152604482015290519081900360640190fd5b600080600e6128b3614e13565b906101000a90046001600160a01b03169050806001600160a01b0316600260008681526020019081526020016000206003016000906128f0614e13565b906101000a90046001600160a01b03166001600160a01b03161461295b576040805162461bcd60e51b815260206004820152601d60248201527f6f6666657220796f7520627579206d75737420626520696e2057455448000000604482015290519081900360640190fd5b6000600e612967614e13565b906101000a90046001600160a01b03166001600160a01b031663d0e30db0346040518263ffffffff1660e01b81526004016000604051808303818588806129ac614eff565b1580156129b857600080fd5b505a6129c2614f30565b5050505050501580156129d9573d6000803e3d6000fd5b5050505050600e6000906129eb614e13565b906101000a90046001600160a01b03166001600160a01b031663a9059cbb5a612a12614e4b565b346040518363ffffffff1660e01b815260040180836001600160a01b03166001600160a01b031681526020018281526020019250505060206040518083038160008780612a5d614eff565b158015612a6957600080fd5b505a612a73614f30565b505050505050158015612a8a573d6000803e3d6000fd5b505050506040513d6020811015612aa057600080fd5b50612aad90508434613fc9565b505050919050565b6000806003612ac2614e13565b906101000a900460ff1615612b0c576040805162461bcd60e51b81526020600482015260126024820152600080516020614fcb833981519152604482015290519081900360640190fd5b614f87601e6005612b1b614e13565b906101000a900460ff16612b3157613b3f612b35565b614aa55b90506112a3868686868563ffffffff16565b6000612b555a611008614e4b565b612b94576040805162461bcd60e51b815260206004820152601460248201526000805160206150bf833981519152604482015290519081900360640190fd5b8160056001816121e4614e13565b601d6005610dd2614e13565b600080612bbb8486610ddf565b90505b6000818152600260205260409020612bd4614e13565b831115612c3e57612bfd8260026000848152602001908152602001600020600201610f18614e13565b6000828152600260205260409020909250612c1c908490610f41614e13565b92508215612c3957612c2d81611ecc565b905080612c3957600080fd5b612bbe565b61109882633b9aca0061127386633b9aca0002610fb660026000888152602001908152602001600020600201611d72614e13565b600081612c92612c8a85670de0b6b3a7640000614b51565b60028561127a565b81612c9957fe5b049392505050565b80820182811015610e11576040805162461bcd60e51b815260206004820152601460248201527364732d6d6174682d6164642d6f766572666c6f7760601b604482015290519081900360640190fd5b80820382811115610e11576040805162461bcd60e51b815260206004820152601560248201527464732d6d6174682d7375622d756e646572666c6f7760581b604482015290519081900360640190fd5b600081612c92612c8a856b033b2e3c9fd0803ce8000000614b51565b60006b033b2e3c9fd0803ce8000000612c92612d788585614b51565b60026b033b2e3c9fd0803ce800000061127a565b60005a63996d79a5620800008160e01b81526020816004836000335af180612db357600080fd5b815193505050506001600160a01b0316826001600160a01b03161415612ddb57506001611469565b600080612de6614e13565b906101000a90046001600160a01b03166001600160a01b0316826001600160a01b03161415612e1757506001611469565b506000611469565b600080600b612e2c614e13565b905080612e3884612406565b15612e4257600080fd5b83600b612e4d614e13565b1415612e9d576000848152600a60205260409020612e69614e13565b80600b612e74614e6f565b5050506000848152600a602052604081208190612e8f614e6f565b505050600192505050611469565b600082118015612ead5750838214155b15612ed257506000818152600a602052604090208190612ecb614e13565b9150612e9d565b838214612ee457600092505050611469565b6000848152600a60205260409020612efa614e13565b6000828152600a602052604090208190612f12614e6f565b5050506000848152600a602052604081208190612f2d614e6f565b5060019695505050505050565b612f4382611dab565b612f4c57600080fd5b60008281526002602052604081208190600301612f67614e13565b906101000a90046001600160a01b03169050600060026000858152602001908152602001600020600101600090612f9c614e13565b906101000a90046001600160a01b0316905060008360001480612ffb575060008481526002602052604081206001600160a01b0384169190600101612fdf614e13565b906101000a90046001600160a01b03166001600160a01b031614155b80613042575060008481526002602052604081206001600160a01b0385169190600301613026614e13565b906101000a90046001600160a01b03166001600160a01b031614155b80613053575061305184612406565b155b613066576130618585614bb4565b61306f565b61306f85614c9e565b935083156130d5576000848152600660205260409020600101613090614e13565b6000858152600660205260409020909150859081906001016130b0614e6f565b5050506000858152600660205260409020849081906130cd614e6f565b50505061313a565b6001600160a01b038083166000908152600760209081526040808320938716835292905220613102614e13565b6001600160a01b03808416600090815260076020908152604080832093881683529290522090915085908190613136614e6f565b5050505b801561317e5760008181526006602052604090208590819061315a614e6f565b50505060008581526006602052604090208190819060010161317a614e6f565b5050505b6001600160a01b038083166000908152600860209081526040808320938716835292905290812090816131af614e13565b916001830191506131be614e6f565b50506040805187815290517f20fb9bad86c18f7e22e8065258790d9416a7d2df8ff05f80f82c46d38b925acd92509081900360200190a15050505050565b600081815260026020526040812081908190600301613219614e13565b906101000a90046001600160a01b0316905060006002600085815260200190815260200160002060010160009061324e614e13565b6001600160a01b036101009290920a9004811660008181526008602090815260408083209487168352939052918220909250613288614e13565b1161329257600080fd5b60008481526006602052604090206002016132ab614e13565b1580156132bc57506132bc84612406565b6132c557600080fd5b6001600160a01b0380821660009081526007602090815260408083209386168352929052206132f2614e13565b841461338d5760008481526006602081905260408220869290613313614e13565b815260200190815260200160002060010161332c614e13565b1461333657600080fd5b600084815260066020526040902060010161334f614e13565b6000858152600660208190526040822090919061336a614e13565b81526020019081526020016000206001018190613385614e6f565b5050506133d9565b60008481526006602052604090206001016133a6614e13565b6001600160a01b03808316600090815260076020908152604080832093871683529290522081906133d5614e6f565b5050505b60008481526006602052604090206001016133f2614e13565b1561348b5760008481526006602081905260408220869290600101613415614e13565b815260200190815260200160002060000161342e614e13565b1461343857600080fd5b600084815260066020526040902061344e614e13565b6000858152600660208190526040822090919060010161346c614e13565b81526020019081526020016000206000018190613487614e6f565b5050505b6001600160a01b038082166000908152600860209081526040808320938616835292905290812090816134bc614e13565b91600019830191506134cc614e6f565b505050600084815260066020526040902043908190600201612f2d614e6f565b6000816134f881611dab565b6135335760405162461bcd60e51b815260040180806020018281038252602d81526020018061501e602d913960400191505060405180910390fd5b61353b612344565b80613567575061354a816123d4565b6001600160a01b03165a61355c614e4b565b6001600160a01b0316145b8061357a5750600c613577614e13565b81145b6135b55760405162461bcd60e51b815260040180806020018281038252607481526020018061504b6074913960800191505060405180910390fd5b600060036135c1614e13565b906101000a900460ff16156135d557600080fd5b6001600381816135e3614e13565b8160ff021916908315150217906135f8614e6f565b505050613603614ea6565b60008481526002602052604090819020815160c081019092528181613626614e13565b8152602001600060018301613639614e13565b6001600160a01b036101009290920a90041681526020016002820161365c614e13565b815260200160006003830161366f614e13565b6001600160a01b036101009290920a9004168152602001600060048301613694614e13565b6001600160a01b036101009290920a90041681526020016014600483016136b9614e13565b6001600160401b036101009290920a900416905250600085815260026020526040812091925080826136e9614e6f565b5050600182810190816136fa614e13565b906001600160a01b030219169061370f614e6f565b505060028201600090613720614e6f565b505060038201600181613731614e13565b906001600160a01b0302191690613746614e6f565b505060048201600181613757614e13565b906001600160a01b030219169061376c614e6f565b505060048201600160a01b81613780614e13565b906001600160401b0302191690613795614e6f565b5050505080602001516001600160a01b031663a9059cbb826080015183600001516040518363ffffffff1660e01b815260040180836001600160a01b03166001600160a01b031681526020018281526020019250505060206040518083038160008780613800614eff565b15801561380c57600080fd5b505a613816614f30565b50505050505015801561382d573d6000803e3d6000fd5b505050506040513d602081101561384357600080fd5b505161384e57600080fd5b6040805185815290517fa2c251311b1a7a475913900a2a73dc9789a21b04bc737e050bbc506dd4eb34889181900360200190a180608001516001600160a01b03168160200151826060015160405160200180836001600160a01b03166001600160a01b031660601b8152601401826001600160a01b03166001600160a01b031660601b815260140192505050604051602081830303815290604052805190602001208560001b7f9577941d28fff863bfbee4694a6a4a56fb09e169619189d2eaa750b5b481999584602001518560600151866000015187604001515a613932614edb565b604080516001600160a01b0396871681529490951660208501526001600160801b0392831684860152911660608301526001600160401b0316608082015290519081900360a00190a4506001915060006003838161398e614e13565b8160ff021916908315150217906139a3614e6f565b50505050919050565b60008060008060005b6001600160a01b038089166000908152600760209081526040808320938e1683529290529081206139e4614e13565b1115613ad9576001600160a01b038089166000908152600760209081526040808320938e16835292905220613a17614e13565b600081815260026020819052604090912091955001613a34614e13565b6000858152600260205260409020909250613a4d614e13565b905085613a5b576000613a63565b808b8a840101015b613a6d8c83614b51565b01613a78838b614b51565b1115613a8357613ad9565b613a9684613a91838c614d77565b61259c565b50889250613aa889610f41838c614d77565b985082613ab58a8d614b51565b81613abc57fe5b049a508a1580613aca575088155b15613ad457613ad9565b6139b5565b600089118015613ae9575060008b115b8015613b1457506001600160a01b038a166000908152600960205260409020613b10614e13565b8b10155b15613b3157613b258b8b8b8b613b3f565b9450613b318588612f3a565b505050509695505050505050565b6000613b49612344565b15613b5357600080fd5b60006003613b5f614e13565b906101000a900460ff1615613b7357600080fd5b600160038181613b81614e13565b8160ff02191690831515021790613b96614e6f565b50505084856001600160801b031614613bae57600080fd5b82836001600160801b031614613bc357600080fd5b60008511613bd057600080fd5b6001600160a01b038416613be357600080fd5b60008311613bf057600080fd5b6001600160a01b038216613c0357600080fd5b816001600160a01b0316846001600160a01b03161415613c2257600080fd5b613c2a614ea6565b8581526001600160a01b03808616602083015260408201859052831660608201525a613c54614e4b565b6001600160a01b031660808201525a613c6b614edb565b6001600160401b031660a0820152613c81614d8e565b60008181526002602052604090208251919350829181613c9f614e6f565b5050602082015160018083019081613cb5614e13565b816001600160a01b0302191690836001600160a01b0316021790613cd7614e6f565b505050604082015181600201613ceb614e6f565b5050606082015160038201600181613d01614e13565b816001600160a01b0302191690836001600160a01b0316021790613d23614e6f565b505050608082015160048201600181613d3a614e13565b816001600160a01b0302191690836001600160a01b0316021790613d5c614e6f565b50505060a082015160048201600160a01b81613d76614e13565b816001600160401b0302191690836001600160401b0316021790613d98614e6f565b505050905050846001600160a01b03166323b872dd5a613db6614e4b565b5a63996d79a5620800008160e01b81526020816004836000335af180613ddb57600080fd5b5051604080516001600160e01b031960e088901b1681526001600160a01b039586166004820152949091166024850152604484018c9052516064808501946020945091925090829003018160008780613e32614eff565b158015613e3e57600080fd5b505a613e48614f30565b505050505050158015613e5f573d6000803e3d6000fd5b505050506040513d6020811015613e7557600080fd5b5051613e8057600080fd5b6040805183815290517fa2c251311b1a7a475913900a2a73dc9789a21b04bc737e050bbc506dd4eb34889181900360200190a15a613ebc614e4b565b6001600160a01b0316858460405160200180836001600160a01b03166001600160a01b031660601b8152601401826001600160a01b03166001600160a01b031660601b815260140192505050604051602081830303815290604052805190602001208360001b7f773ff502687307abfa024ac9f62f9752a0d210dac2ffd9a29e38e12e2ea82c8288878b8a5a613f50614edb565b604080516001600160a01b0396871681529490951660208501526001600160801b0392831684860152911660608301526001600160401b0316608082015290519081900360a00190a45060006003600181613fa9614e13565b8160ff02191690831515021790613fbe614e6f565b505050949350505050565b600082613fd581611dab565b613fde57600080fd5b613fe6612344565b15613ff057600080fd5b60006003613ffc614e13565b906101000a900460ff161561401057600080fd5b60016003818161401e614e13565b8160ff02191690831515021790614033614e6f565b50505061403e614ea6565b60008581526002602052604090819020815160c081019092528181614061614e13565b8152602001600060018301614074614e13565b6001600160a01b036101009290920a900416815260200160028201614097614e13565b81526020016000600383016140aa614e13565b6001600160a01b036101009290920a90041681526020016000600483016140cf614e13565b6001600160a01b036101009290920a90041681526020016014600483016140f4614e13565b6001600160401b036101009290920a90041690525080516040820151919250600091614121908790614b51565b8161412857fe5b04905080816001600160801b03161461417e576040805162461bcd60e51b81526020600482015260136024820152721cdc195b99081a5cc81b9bdd08185b881a5b9d606a1b604482015290519081900360640190fd5b84856001600160801b0316146141d4576040805162461bcd60e51b81526020600482015260166024820152751c5d585b9d1a5d1e481a5cc81b9bdd08185b881a5b9d60521b604482015290519081900360640190fd5b8415806141df575080155b806141ea5750815185115b806141f85750816040015181115b1561420857600093505050614957565b600061271061422083600461421b614e13565b614b51565b8161422757fe5b04905082606001516001600160a01b03166323b872dd5a614246614e4b565b60006005614252614e13565b906101000a90046001600160a01b0316846040518463ffffffff1660e01b815260040180846001600160a01b03166001600160a01b03168152602001836001600160a01b03166001600160a01b031681526020018281526020019350505050602060405180830381600087806142c6614eff565b1580156142d257600080fd5b505a6142dc614f30565b5050505050501580156142f3573d6000803e3d6000fd5b505050506040513d602081101561430957600080fd5b505161435c576040805162461bcd60e51b815260206004820152601f60248201527f496e73756666696369656e742066756e647320746f20636f7665722066656500604482015290519081900360640190fd5b82516143689087612cf0565b60008881526002602052604090208190614380614e6f565b505050614391836040015183612cf0565b60008881526002602081905260409091208291016143ad614e6f565b50505082606001516001600160a01b03166323b872dd5a6143cc614e4b565b8560800151856040518463ffffffff1660e01b815260040180846001600160a01b03166001600160a01b03168152602001836001600160a01b03166001600160a01b03168152602001828152602001935050505060206040518083038160008780614435614eff565b15801561444157600080fd5b505a61444b614f30565b505050505050158015614462573d6000803e3d6000fd5b505050506040513d602081101561447857600080fd5b50516144b55760405162461bcd60e51b8152600401808060200182810382526041815260200180614f8a6041913960600191505060405180910390fd5b82602001516001600160a01b031663a9059cbb5a6144d1614e4b565b886040518363ffffffff1660e01b815260040180836001600160a01b03166001600160a01b03168152602001828152602001925050506020604051808303816000878061451c614eff565b15801561452857600080fd5b505a614532614f30565b505050505050158015614549573d6000803e3d6000fd5b505050506040513d602081101561455f57600080fd5b505161459c5760405162461bcd60e51b8152600401808060200182810382526033815260200180614feb6033913960400191505060405180910390fd5b6040805188815290517fa2c251311b1a7a475913900a2a73dc9789a21b04bc737e050bbc506dd4eb34889181900360200190a15a6145d8614e4b565b6001600160a01b031683608001516001600160a01b03168460200151856060015160405160200180836001600160a01b03166001600160a01b031660601b8152601401826001600160a01b03166001600160a01b031660601b815260140192505050604051602081830303815290604052805190602001207f3383e3357c77fd2e3a4b30deea81179bc70a795d053d14d5b7f2f01d0fd4596f8a60001b876020015188606001518c895a61468a614edb565b604080519687526001600160a01b03958616602088015293909416858401526001600160801b0391821660608601521660808401526001600160401b0390911660a0830152519081900360c00190a45a6146e2614e4b565b6001600160a01b031683608001516001600160a01b03168460200151856060015160405160200180836001600160a01b03166001600160a01b031660601b8152601401826001600160a01b03166001600160a01b031660601b815260140192505050604051602081830303815290604052805190602001207f0ae463beeed705bdba735cc0f80a21bc43e39fa85611fbceb6e509ca190cc6e28a60001b876020015188606001518c89896005600090614799614e13565b906101000a90046001600160a01b03165a6147b2614edb565b604080519889526001600160a01b0397881660208a0152958716888701526001600160801b03948516606089015292909316608087015260a0860152921660c08401526001600160401b0390911660e083015251908190036101000190a482606001516001600160a01b031683602001516001600160a01b03167f819e390338feffe95e2de57172d6faf337853dfd15c7a09a32d76f7fd24438758885604051808381526020018281526020019250505060405180910390a36000878152600260205260409020614881614e13565b61494f57600087815260026020526040812090808261489e614e6f565b5050600182810190816148af614e13565b906001600160a01b03021916906148c4614e6f565b5050600282016000906148d5614e6f565b5050600382016001816148e6614e13565b906001600160a01b03021916906148fb614e6f565b50506004820160018161490c614e13565b906001600160a01b0302191690614921614e6f565b505060048201600160a01b81614935614e13565b906001600160401b030219169061494a614e6f565b505050505b600194505050505b60006003600181614966614e13565b8160ff0219169083151502179061497b614e6f565b5050505092915050565b6000601d6005614993614e13565b906101000a900460ff166149a657600080fd5b60008381526002602052604090206149bc614e13565b8214156149eb576149cc83612406565b156149e0576149da836131fc565b506149eb565b6149e983612e1f565b505b6149f58383613fc9565b6149fe57600080fd5b614a0783611dab565b8015614a7d57506000838152600260205260408120600991908190600101614a2d614e13565b906101000a90046001600160a01b03166001600160a01b03166001600160a01b03168152602001908152602001600020614a65614e13565b6000848152600260205260409020614a7b614e13565b105b15614a9c578280600c614a8e614e6f565b505050614a9a8361147a565b505b50600192915050565b6001600160a01b03831660009081526009602052604081208590614ac7614e13565b1115614ad257600080fd5b614ade85858585613b3f565b9050600b614aea614e13565b6000828152600a602052604090208190614b02614e6f565b50505080600b8190614b12614e6f565b50506040805183815290517f8173832a493e0a3989e521458e55bfe9feac9f9b675a94e100b9d5a85f81486292509081900360200190a1949350505050565b6000811580614b6c57505080820282828281614b6957fe5b04145b610e11576040805162461bcd60e51b815260206004820152601460248201527364732d6d6174682d6d756c2d6f766572666c6f7760601b604482015290519081900360640190fd5b6000808311614bc257600080fd5b8115801590614bd75750614bd582611dab565b155b15614bfc576000828152600660205260409020600101614bf5614e13565b9150614bc2565b81614c1157614c0a83614c9e565b9050610e11565b614c1b8383614db9565b15614c5f5760005b8215801590614c375750614c378484614db9565b15614c0a575060008281526006602052604090208290600101614c58614e13565b9250614c23565b8115801590614c755750614c738383614db9565b155b15614c97576000828152600660205260409020614c90614e13565b9150614c5f565b5080610e11565b6000808211614cac57600080fd5b60008281526002602052604081208190600301614cc7614e13565b906101000a90046001600160a01b03169050600060026000858152602001908152602001600020600101600090614cfc614e13565b6001600160a01b036101009290920a9004811660008181526007602090815260408083209487168352939052918220909250614d36614e13565b905060005b8115801590614d4f5750614d4f8683614db9565b15611098575060008181526006602052604090208190600101614d70614e13565b9150614d3b565b600081831115614d875781610e0e565b5090919050565b60006001600081614d9d614e13565b91600183019150614dac614e6f565b5050506001611888614e13565b60008181526002602081905260408220614dec9101614dd6614e13565b600085815260026020526040902061421b614e13565b6000848152600260208190526040909120614e0a9101614dd6614e13565b10159392505050565b630412cc4160e31b62080000908152620800048390526320966208906020816024816000335af180614e4457600080fd5b5051925050565b6373509064620800008160e01b81526020816004836000335af180614e4457600080fd5b630146e59560e51b6208000090815262080004839052620800248490526328dcb2a09060008160448183335af18061107357600080fd5b6040805160c081018252600080825260208201819052918101829052606081018290526080810182905260a081019190915290565b63bdbf8c36620800008160e01b81526020816004836000335af180614e4457600080fd5b63c3382d0f60e01b620800009081526208000483905263c3382d0f906020816024816000335af180614e4457600080fd5b63131b5f2160e21b6208000090815262080004849052634c6d7c849060005b88811015614f6a578781015182820160240152602001614f4f565b50898989602401836000335af180614f8157600080fd5b99505050565bfefe6f666665722e6275795f67656d2e7472616e7366657246726f6d286d73672e73656e6465722c206f666665722e6f776e65722c207370656e6429206661696c65645265656e7472616e637920617474656d707400000000000000000000000000006f666665722e7061795f67656d2e7472616e73666572286d73672e73656e6465722c207175616e7469747929206661696c65644f66666572207761732064656c65746564206f722074616b656e2c206f72206e6576657220657869737465642e4f666665722063616e206e6f742062652063616e63656c6c656420626563617573652075736572206973206e6f74206f776e65722c20616e64206d61726b6574206973206f70656e2c20616e64206f666665722073656c6c7320726571756972656420616d6f756e74206f6620746f6b656e732e64732d617574682d756e617574686f72697a6564000000000000000000000000a265627a7a723158204f438bdae32abd4b0196925cfb7d799ea8c5c13fd3c6b2046ac80152ce29130164736f6c637828302e352e31362d646576656c6f702e323032302e372e32392b636f6d6d69742e36326536346536370058",
          "opcodes": "PUSH1 0x80 PUSH1 0x40 MSTORE PUSH1 0x1 PUSH1 0x5 PUSH1 0x1 PUSH1 0xE8 SHL DUP2 PUSH3 0x18 PUSH3 0x235 JUMP JUMPDEST DUP2 PUSH1 0xFF MUL NOT AND SWAP1 DUP4 ISZERO ISZERO MUL OR SWAP1 PUSH3 0x2F PUSH3 0x26E JUMP JUMPDEST POP POP POP PUSH1 0x1 PUSH1 0x5 PUSH1 0x1E PUSH2 0x100 EXP DUP2 PUSH3 0x47 PUSH3 0x235 JUMP JUMPDEST DUP2 PUSH1 0xFF MUL NOT AND SWAP1 DUP4 ISZERO ISZERO MUL OR SWAP1 PUSH3 0x5E PUSH3 0x26E JUMP JUMPDEST POP POP POP PUSH20 0xC02AAA39B223FE8D0A0E5C4F27EAD9083C756CC2 PUSH1 0xE PUSH1 0x0 PUSH2 0x100 EXP DUP2 PUSH3 0x89 PUSH3 0x235 JUMP JUMPDEST DUP2 PUSH1 0x1 PUSH1 0x1 PUSH1 0xA0 SHL SUB MUL NOT AND SWAP1 DUP4 PUSH1 0x1 PUSH1 0x1 PUSH1 0xA0 SHL SUB AND MUL OR SWAP1 PUSH3 0xAD PUSH3 0x26E JUMP JUMPDEST POP POP POP CALLVALUE DUP1 ISZERO PUSH3 0xBD JUMPI PUSH1 0x0 DUP1 REVERT JUMPDEST POP PUSH1 0x40 MLOAD PUSH3 0x5419 CODESIZE SUB DUP1 PUSH3 0x5419 DUP4 CODECOPY DUP2 DUP2 ADD PUSH1 0x40 MSTORE PUSH1 0x60 DUP2 LT ISZERO PUSH3 0xE3 JUMPI PUSH1 0x0 DUP1 REVERT JUMPDEST POP DUP1 MLOAD PUSH1 0x20 DUP3 ADD MLOAD PUSH1 0x40 SWAP1 SWAP3 ADD MLOAD SWAP1 SWAP2 SWAP1 DUP3 DUP2 GAS PUSH3 0x101 PUSH3 0x2AB JUMP JUMPDEST PUSH1 0x0 PUSH1 0x1 DUP2 PUSH3 0x110 PUSH3 0x235 JUMP JUMPDEST DUP2 PUSH1 0x1 PUSH1 0x1 PUSH1 0xA0 SHL SUB MUL NOT AND SWAP1 DUP4 PUSH1 0x1 PUSH1 0x1 PUSH1 0xA0 SHL SUB AND MUL OR SWAP1 PUSH3 0x134 PUSH3 0x26E JUMP JUMPDEST POP POP POP GAS PUSH3 0x142 PUSH3 0x2AB JUMP JUMPDEST PUSH1 0x1 PUSH1 0x1 PUSH1 0xA0 SHL SUB AND PUSH32 0xCE241D7CA1F669FEE44B6FC00B8EBA2DF3BB514EED0F6F668F8F89096E81ED94 PUSH1 0x40 MLOAD PUSH1 0x40 MLOAD DUP1 SWAP2 SUB SWAP1 LOG2 DUP1 PUSH1 0x5 PUSH1 0x1 DUP2 PUSH3 0x187 PUSH3 0x235 JUMP JUMPDEST DUP2 PUSH1 0x1 PUSH1 0x1 PUSH1 0xA0 SHL SUB MUL NOT AND SWAP1 DUP4 PUSH1 0x1 PUSH1 0x1 PUSH1 0xA0 SHL SUB AND MUL OR SWAP1 PUSH3 0x1AB PUSH3 0x26E JUMP JUMPDEST POP POP POP PUSH1 0x14 PUSH1 0x4 DUP2 SWAP1 PUSH3 0x1BE PUSH3 0x26E JUMP JUMPDEST POP POP POP POP DUP1 PUSH1 0x5 PUSH1 0x14 PUSH2 0x100 EXP DUP2 PUSH3 0x1D6 PUSH3 0x235 JUMP JUMPDEST DUP2 PUSH1 0x1 PUSH1 0x1 PUSH1 0x40 SHL SUB MUL NOT AND SWAP1 DUP4 PUSH1 0x1 PUSH1 0x1 PUSH1 0x40 SHL SUB AND MUL OR SWAP1 PUSH3 0x1FA PUSH3 0x26E JUMP JUMPDEST POP POP POP POP DUP2 PUSH1 0xD PUSH1 0x14 PUSH2 0x100 EXP DUP2 PUSH3 0x212 PUSH3 0x235 JUMP JUMPDEST DUP2 PUSH1 0xFF MUL NOT AND SWAP1 DUP4 ISZERO ISZERO MUL OR SWAP1 PUSH3 0x229 PUSH3 0x26E JUMP JUMPDEST POP POP POP POP POP POP PUSH3 0x2D0 JUMP JUMPDEST PUSH4 0x412CC41 PUSH1 0xE3 SHL PUSH3 0x80000 SWAP1 DUP2 MSTORE PUSH3 0x80004 DUP4 SWAP1 MSTORE PUSH4 0x20966208 SWAP1 PUSH1 0x20 DUP2 PUSH1 0x24 DUP2 PUSH1 0x0 CALLER GAS CALL DUP1 PUSH3 0x267 JUMPI PUSH1 0x0 DUP1 REVERT JUMPDEST POP MLOAD SWAP3 POP POP JUMP JUMPDEST PUSH4 0x146E595 PUSH1 0xE5 SHL PUSH3 0x80000 SWAP1 DUP2 MSTORE PUSH3 0x80004 DUP4 SWAP1 MSTORE PUSH3 0x80024 DUP5 SWAP1 MSTORE PUSH4 0x28DCB2A0 SWAP1 PUSH1 0x0 DUP2 PUSH1 0x44 DUP2 DUP4 CALLER GAS CALL DUP1 PUSH3 0x2A6 JUMPI PUSH1 0x0 DUP1 REVERT JUMPDEST POP POP POP JUMP JUMPDEST PUSH4 0x73509064 PUSH3 0x80000 DUP2 PUSH1 0xE0 SHL DUP2 MSTORE PUSH1 0x20 DUP2 PUSH1 0x4 DUP4 PUSH1 0x0 CALLER GAS CALL DUP1 PUSH3 0x267 JUMPI PUSH1 0x0 DUP1 REVERT JUMPDEST PUSH2 0x5139 DUP1 PUSH3 0x2E0 PUSH1 0x0 CODECOPY PUSH1 0x0 RETURN INVALID PUSH1 0x80 PUSH1 0x40 MSTORE PUSH1 0x4 CALLDATASIZE LT PUSH2 0x350 JUMPI PUSH1 0x0 CALLDATALOAD PUSH1 0xE0 SHR DUP1 PUSH4 0x779997C3 GT PUSH2 0x1C6 JUMPI DUP1 PUSH4 0xBE71F5CE GT PUSH2 0xF7 JUMPI DUP1 PUSH4 0xD6FEBDE8 GT PUSH2 0x95 JUMPI DUP1 PUSH4 0xF09EA2A6 GT PUSH2 0x6F JUMPI DUP1 PUSH4 0xF09EA2A6 EQ PUSH2 0xCF2 JUMPI DUP1 PUSH4 0xF46901ED EQ PUSH2 0xD3B JUMPI DUP1 PUSH4 0xF582D293 EQ PUSH2 0xD6E JUMPI DUP1 PUSH4 0xFF1FD974 EQ PUSH2 0xD83 JUMPI PUSH2 0x350 JUMP JUMPDEST DUP1 PUSH4 0xD6FEBDE8 EQ PUSH2 0xC50 JUMPI DUP1 PUSH4 0xE1A6F014 EQ PUSH2 0xC80 JUMPI DUP1 PUSH4 0xF057ADBB EQ PUSH2 0xCD5 JUMPI PUSH2 0x350 JUMP JUMPDEST DUP1 PUSH4 0xC2D526AA GT PUSH2 0xD1 JUMPI DUP1 PUSH4 0xC2D526AA EQ PUSH2 0xB88 JUMPI DUP1 PUSH4 0xC41A360A EQ PUSH2 0xBD0 JUMPI DUP1 PUSH4 0xD2B420CE EQ PUSH2 0xBFA JUMPI DUP1 PUSH4 0xD6F15469 EQ PUSH2 0xC24 JUMPI PUSH2 0x350 JUMP JUMPDEST DUP1 PUSH4 0xBE71F5CE EQ PUSH2 0xB07 JUMPI DUP1 PUSH4 0xBF7C734E EQ PUSH2 0xB3A JUMPI DUP1 PUSH4 0xC2B6B58C EQ PUSH2 0xB73 JUMPI PUSH2 0x350 JUMP JUMPDEST DUP1 PUSH4 0x911550F4 GT PUSH2 0x164 JUMPI DUP1 PUSH4 0xA128171B GT PUSH2 0x13E JUMPI DUP1 PUSH4 0xA128171B EQ PUSH2 0xA5B JUMPI DUP1 PUSH4 0xA78D4316 EQ PUSH2 0xA87 JUMPI DUP1 PUSH4 0xB4F9B6C8 EQ PUSH2 0xAB1 JUMPI DUP1 PUSH4 0xB73B73FD EQ PUSH2 0xADB JUMPI PUSH2 0x350 JUMP JUMPDEST DUP1 PUSH4 0x911550F4 EQ PUSH2 0x9D4 JUMPI DUP1 PUSH4 0x91BE90C8 EQ PUSH2 0x9FE JUMPI DUP1 PUSH4 0x943911BC EQ PUSH2 0xA31 JUMPI PUSH2 0x350 JUMP JUMPDEST DUP1 PUSH4 0x82AFD23B GT PUSH2 0x1A0 JUMPI DUP1 PUSH4 0x82AFD23B EQ PUSH2 0x90D JUMPI DUP1 PUSH4 0x8A72EA6A EQ PUSH2 0x937 JUMPI DUP1 PUSH4 0x8AF82A2E EQ PUSH2 0x9AA JUMPI DUP1 PUSH4 0x8DA5CB5B EQ PUSH2 0x9BF JUMPI PUSH2 0x350 JUMP JUMPDEST DUP1 PUSH4 0x779997C3 EQ PUSH2 0x861 JUMPI DUP1 PUSH4 0x7CA9429A EQ PUSH2 0x88B JUMPI DUP1 PUSH4 0x8185402B EQ PUSH2 0x8C6 JUMPI PUSH2 0x350 JUMP JUMPDEST DUP1 PUSH4 0x40E58EE5 GT PUSH2 0x2A0 JUMPI DUP1 PUSH4 0x604B6A9C GT PUSH2 0x23E JUMPI DUP1 PUSH4 0x677170E1 GT PUSH2 0x218 JUMPI DUP1 PUSH4 0x677170E1 EQ PUSH2 0x7C1 JUMPI DUP1 PUSH4 0x6B9D8C4B EQ PUSH2 0x7FC JUMPI DUP1 PUSH4 0x74C1D7D3 EQ PUSH2 0x811 JUMPI DUP1 PUSH4 0x75F12B21 EQ PUSH2 0x84C JUMPI PUSH2 0x350 JUMP JUMPDEST DUP1 PUSH4 0x604B6A9C EQ PUSH2 0x758 JUMPI DUP1 PUSH4 0x61F54A79 EQ PUSH2 0x782 JUMPI DUP1 PUSH4 0x6377EBCA EQ PUSH2 0x7AC JUMPI PUSH2 0x350 JUMP JUMPDEST DUP1 PUSH4 0x49606455 GT PUSH2 0x27A JUMPI DUP1 PUSH4 0x49606455 EQ PUSH2 0x6A6 JUMPI DUP1 PUSH4 0x511FA487 EQ PUSH2 0x6DF JUMPI DUP1 PUSH4 0x557ED1BA EQ PUSH2 0x712 JUMPI DUP1 PUSH4 0x56AD8764 EQ PUSH2 0x743 JUMPI PUSH2 0x350 JUMP JUMPDEST DUP1 PUSH4 0x40E58EE5 EQ PUSH2 0x5F7 JUMPI DUP1 PUSH4 0x4579268A EQ PUSH2 0x621 JUMPI DUP1 PUSH4 0x467F0B7B EQ PUSH2 0x67C JUMPI PUSH2 0x350 JUMP JUMPDEST DUP1 PUSH4 0x13AF4035 GT PUSH2 0x30D JUMPI DUP1 PUSH4 0x1D834A1B GT PUSH2 0x2E7 JUMPI DUP1 PUSH4 0x1D834A1B EQ PUSH2 0x571 JUMPI DUP1 PUSH4 0x232CAE0B EQ PUSH2 0x5A1 JUMPI DUP1 PUSH4 0x2AED1905 EQ PUSH2 0x5B6 JUMPI DUP1 PUSH4 0x2F90A6FC EQ PUSH2 0x5E2 JUMPI PUSH2 0x350 JUMP JUMPDEST DUP1 PUSH4 0x13AF4035 EQ PUSH2 0x4AE JUMPI DUP1 PUSH4 0x144A2752 EQ PUSH2 0x4E1 JUMPI DUP1 PUSH4 0x1B33D412 EQ PUSH2 0x524 JUMPI PUSH2 0x350 JUMP JUMPDEST DUP1 PUSH4 0x1492A0B EQ PUSH2 0x355 JUMPI DUP1 PUSH4 0x374FC6F EQ PUSH2 0x37E JUMPI DUP1 PUSH4 0x621B4F6 EQ PUSH2 0x3CB JUMPI DUP1 PUSH4 0x7DA68F5 EQ PUSH2 0x412 JUMPI DUP1 PUSH4 0x93F5198 EQ PUSH2 0x429 JUMPI DUP1 PUSH4 0xAF88B24 EQ PUSH2 0x47D JUMPI JUMPDEST PUSH1 0x0 DUP1 REVERT JUMPDEST CALLVALUE DUP1 ISZERO PUSH2 0x361 JUMPI PUSH1 0x0 DUP1 REVERT JUMPDEST POP PUSH2 0x36A PUSH2 0xDC6 JUMP JUMPDEST PUSH1 0x40 DUP1 MLOAD SWAP2 ISZERO ISZERO DUP3 MSTORE MLOAD SWAP1 DUP2 SWAP1 SUB PUSH1 0x20 ADD SWAP1 RETURN JUMPDEST CALLVALUE DUP1 ISZERO PUSH2 0x38A JUMPI PUSH1 0x0 DUP1 REVERT JUMPDEST POP PUSH2 0x3B9 PUSH1 0x4 DUP1 CALLDATASIZE SUB PUSH1 0x40 DUP2 LT ISZERO PUSH2 0x3A1 JUMPI PUSH1 0x0 DUP1 REVERT JUMPDEST POP PUSH1 0x1 PUSH1 0x1 PUSH1 0xA0 SHL SUB DUP2 CALLDATALOAD DUP2 AND SWAP2 PUSH1 0x20 ADD CALLDATALOAD AND PUSH2 0xDDF JUMP JUMPDEST PUSH1 0x40 DUP1 MLOAD SWAP2 DUP3 MSTORE MLOAD SWAP1 DUP2 SWAP1 SUB PUSH1 0x20 ADD SWAP1 RETURN JUMPDEST CALLVALUE DUP1 ISZERO PUSH2 0x3D7 JUMPI PUSH1 0x0 DUP1 REVERT JUMPDEST POP PUSH2 0x3B9 PUSH1 0x4 DUP1 CALLDATASIZE SUB PUSH1 0x80 DUP2 LT ISZERO PUSH2 0x3EE JUMPI PUSH1 0x0 DUP1 REVERT JUMPDEST POP PUSH1 0x1 PUSH1 0x1 PUSH1 0xA0 SHL SUB DUP2 CALLDATALOAD DUP2 AND SWAP2 PUSH1 0x20 DUP2 ADD CALLDATALOAD SWAP2 PUSH1 0x40 DUP3 ADD CALLDATALOAD AND SWAP1 PUSH1 0x60 ADD CALLDATALOAD PUSH2 0xE17 JUMP JUMPDEST CALLVALUE DUP1 ISZERO PUSH2 0x41E JUMPI PUSH1 0x0 DUP1 REVERT JUMPDEST POP PUSH2 0x427 PUSH2 0xFFC JUMP JUMPDEST STOP JUMPDEST CALLVALUE DUP1 ISZERO PUSH2 0x435 JUMPI PUSH1 0x0 DUP1 REVERT JUMPDEST POP PUSH2 0x3B9 PUSH1 0x4 DUP1 CALLDATASIZE SUB PUSH1 0x80 DUP2 LT ISZERO PUSH2 0x44C JUMPI PUSH1 0x0 DUP1 REVERT JUMPDEST POP PUSH1 0x1 PUSH1 0x1 PUSH1 0xA0 SHL SUB DUP2 CALLDATALOAD DUP2 AND SWAP2 PUSH1 0x20 DUP2 ADD CALLDATALOAD SWAP1 SWAP2 AND SWAP1 PUSH1 0x1 PUSH1 0x1 PUSH1 0x80 SHL SUB PUSH1 0x40 DUP3 ADD CALLDATALOAD DUP2 AND SWAP2 PUSH1 0x60 ADD CALLDATALOAD AND PUSH2 0x1078 JUMP JUMPDEST CALLVALUE DUP1 ISZERO PUSH2 0x489 JUMPI PUSH1 0x0 DUP1 REVERT JUMPDEST POP PUSH2 0x492 PUSH2 0x10A1 JUMP JUMPDEST PUSH1 0x40 DUP1 MLOAD PUSH1 0x1 PUSH1 0x1 PUSH1 0xA0 SHL SUB SWAP1 SWAP3 AND DUP3 MSTORE MLOAD SWAP1 DUP2 SWAP1 SUB PUSH1 0x20 ADD SWAP1 RETURN JUMPDEST CALLVALUE DUP1 ISZERO PUSH2 0x4BA JUMPI PUSH1 0x0 DUP1 REVERT JUMPDEST POP PUSH2 0x427 PUSH1 0x4 DUP1 CALLDATASIZE SUB PUSH1 0x20 DUP2 LT ISZERO PUSH2 0x4D1 JUMPI PUSH1 0x0 DUP1 REVERT JUMPDEST POP CALLDATALOAD PUSH1 0x1 PUSH1 0x1 PUSH1 0xA0 SHL SUB AND PUSH2 0x10C0 JUMP JUMPDEST CALLVALUE DUP1 ISZERO PUSH2 0x4ED JUMPI PUSH1 0x0 DUP1 REVERT JUMPDEST POP PUSH2 0x3B9 PUSH1 0x4 DUP1 CALLDATASIZE SUB PUSH1 0x60 DUP2 LT ISZERO PUSH2 0x504 JUMPI PUSH1 0x0 DUP1 REVERT JUMPDEST POP PUSH1 0x1 PUSH1 0x1 PUSH1 0xA0 SHL SUB DUP2 CALLDATALOAD DUP2 AND SWAP2 PUSH1 0x20 DUP2 ADD CALLDATALOAD SWAP1 SWAP2 AND SWAP1 PUSH1 0x40 ADD CALLDATALOAD PUSH2 0x1192 JUMP JUMPDEST CALLVALUE DUP1 ISZERO PUSH2 0x530 JUMPI PUSH1 0x0 DUP1 REVERT JUMPDEST POP PUSH2 0x3B9 PUSH1 0x4 DUP1 CALLDATASIZE SUB PUSH1 0xA0 DUP2 LT ISZERO PUSH2 0x547 JUMPI PUSH1 0x0 DUP1 REVERT JUMPDEST POP DUP1 CALLDATALOAD SWAP1 PUSH1 0x1 PUSH1 0x1 PUSH1 0xA0 SHL SUB PUSH1 0x20 DUP3 ADD CALLDATALOAD DUP2 AND SWAP2 PUSH1 0x40 DUP2 ADD CALLDATALOAD SWAP2 PUSH1 0x60 DUP3 ADD CALLDATALOAD AND SWAP1 PUSH1 0x80 ADD CALLDATALOAD PUSH2 0x1280 JUMP JUMPDEST CALLVALUE DUP1 ISZERO PUSH2 0x57D JUMPI PUSH1 0x0 DUP1 REVERT JUMPDEST POP PUSH2 0x36A PUSH1 0x4 DUP1 CALLDATASIZE SUB PUSH1 0x40 DUP2 LT ISZERO PUSH2 0x594 JUMPI PUSH1 0x0 DUP1 REVERT JUMPDEST POP DUP1 CALLDATALOAD SWAP1 PUSH1 0x20 ADD CALLDATALOAD PUSH2 0x12AD JUMP JUMPDEST CALLVALUE DUP1 ISZERO PUSH2 0x5AD JUMPI PUSH1 0x0 DUP1 REVERT JUMPDEST POP PUSH2 0x3B9 PUSH2 0x1391 JUMP JUMPDEST CALLVALUE DUP1 ISZERO PUSH2 0x5C2 JUMPI PUSH1 0x0 DUP1 REVERT JUMPDEST POP PUSH2 0x36A PUSH1 0x4 DUP1 CALLDATASIZE SUB PUSH1 0x20 DUP2 LT ISZERO PUSH2 0x5D9 JUMPI PUSH1 0x0 DUP1 REVERT JUMPDEST POP CALLDATALOAD ISZERO ISZERO PUSH2 0x139E JUMP JUMPDEST CALLVALUE DUP1 ISZERO PUSH2 0x5EE JUMPI PUSH1 0x0 DUP1 REVERT JUMPDEST POP PUSH2 0x36A PUSH2 0x146E JUMP JUMPDEST CALLVALUE DUP1 ISZERO PUSH2 0x603 JUMPI PUSH1 0x0 DUP1 REVERT JUMPDEST POP PUSH2 0x36A PUSH1 0x4 DUP1 CALLDATASIZE SUB PUSH1 0x20 DUP2 LT ISZERO PUSH2 0x61A JUMPI PUSH1 0x0 DUP1 REVERT JUMPDEST POP CALLDATALOAD PUSH2 0x147A JUMP JUMPDEST CALLVALUE DUP1 ISZERO PUSH2 0x62D JUMPI PUSH1 0x0 DUP1 REVERT JUMPDEST POP PUSH2 0x64B PUSH1 0x4 DUP1 CALLDATASIZE SUB PUSH1 0x20 DUP2 LT ISZERO PUSH2 0x644 JUMPI PUSH1 0x0 DUP1 REVERT JUMPDEST POP CALLDATALOAD PUSH2 0x15FB JUMP JUMPDEST PUSH1 0x40 DUP1 MLOAD SWAP5 DUP6 MSTORE PUSH1 0x1 PUSH1 0x1 PUSH1 0xA0 SHL SUB SWAP4 DUP5 AND PUSH1 0x20 DUP7 ADD MSTORE DUP5 DUP2 ADD SWAP3 SWAP1 SWAP3 MSTORE SWAP1 SWAP2 AND PUSH1 0x60 DUP4 ADD MSTORE MLOAD SWAP1 DUP2 SWAP1 SUB PUSH1 0x80 ADD SWAP1 RETURN JUMPDEST CALLVALUE DUP1 ISZERO PUSH2 0x688 JUMPI PUSH1 0x0 DUP1 REVERT JUMPDEST POP PUSH2 0x36A PUSH1 0x4 DUP1 CALLDATASIZE SUB PUSH1 0x20 DUP2 LT ISZERO PUSH2 0x69F JUMPI PUSH1 0x0 DUP1 REVERT JUMPDEST POP CALLDATALOAD PUSH2 0x16F6 JUMP JUMPDEST CALLVALUE DUP1 ISZERO PUSH2 0x6B2 JUMPI PUSH1 0x0 DUP1 REVERT JUMPDEST POP PUSH2 0x427 PUSH1 0x4 DUP1 CALLDATASIZE SUB PUSH1 0x40 DUP2 LT ISZERO PUSH2 0x6C9 JUMPI PUSH1 0x0 DUP1 REVERT JUMPDEST POP DUP1 CALLDATALOAD SWAP1 PUSH1 0x20 ADD CALLDATALOAD PUSH1 0x1 PUSH1 0x1 PUSH1 0x80 SHL SUB AND PUSH2 0x183D JUMP JUMPDEST CALLVALUE DUP1 ISZERO PUSH2 0x6EB JUMPI PUSH1 0x0 DUP1 REVERT JUMPDEST POP PUSH2 0x3B9 PUSH1 0x4 DUP1 CALLDATASIZE SUB PUSH1 0x20 DUP2 LT ISZERO PUSH2 0x702 JUMPI PUSH1 0x0 DUP1 REVERT JUMPDEST POP CALLDATALOAD PUSH1 0x1 PUSH1 0x1 PUSH1 0xA0 SHL SUB AND PUSH2 0x185D JUMP JUMPDEST CALLVALUE DUP1 ISZERO PUSH2 0x71E JUMPI PUSH1 0x0 DUP1 REVERT JUMPDEST POP PUSH2 0x727 PUSH2 0x187D JUMP JUMPDEST PUSH1 0x40 DUP1 MLOAD PUSH1 0x1 PUSH1 0x1 PUSH1 0x40 SHL SUB SWAP1 SWAP3 AND DUP3 MSTORE MLOAD SWAP1 DUP2 SWAP1 SUB PUSH1 0x20 ADD SWAP1 RETURN JUMPDEST CALLVALUE DUP1 ISZERO PUSH2 0x74F JUMPI PUSH1 0x0 DUP1 REVERT JUMPDEST POP PUSH2 0x3B9 PUSH2 0x188D JUMP JUMPDEST CALLVALUE DUP1 ISZERO PUSH2 0x764 JUMPI PUSH1 0x0 DUP1 REVERT JUMPDEST POP PUSH2 0x36A PUSH1 0x4 DUP1 CALLDATASIZE SUB PUSH1 0x20 DUP2 LT ISZERO PUSH2 0x77B JUMPI PUSH1 0x0 DUP1 REVERT JUMPDEST POP CALLDATALOAD PUSH2 0x1897 JUMP JUMPDEST CALLVALUE DUP1 ISZERO PUSH2 0x78E JUMPI PUSH1 0x0 DUP1 REVERT JUMPDEST POP PUSH2 0x3B9 PUSH1 0x4 DUP1 CALLDATASIZE SUB PUSH1 0x20 DUP2 LT ISZERO PUSH2 0x7A5 JUMPI PUSH1 0x0 DUP1 REVERT JUMPDEST POP CALLDATALOAD PUSH2 0x18FB JUMP JUMPDEST CALLVALUE DUP1 ISZERO PUSH2 0x7B8 JUMPI PUSH1 0x0 DUP1 REVERT JUMPDEST POP PUSH2 0x727 PUSH2 0x1911 JUMP JUMPDEST CALLVALUE DUP1 ISZERO PUSH2 0x7CD JUMPI PUSH1 0x0 DUP1 REVERT JUMPDEST POP PUSH2 0x3B9 PUSH1 0x4 DUP1 CALLDATASIZE SUB PUSH1 0x40 DUP2 LT ISZERO PUSH2 0x7E4 JUMPI PUSH1 0x0 DUP1 REVERT JUMPDEST POP PUSH1 0x1 PUSH1 0x1 PUSH1 0xA0 SHL SUB DUP2 CALLDATALOAD DUP2 AND SWAP2 PUSH1 0x20 ADD CALLDATALOAD AND PUSH2 0x1930 JUMP JUMPDEST CALLVALUE DUP1 ISZERO PUSH2 0x808 JUMPI PUSH1 0x0 DUP1 REVERT JUMPDEST POP PUSH2 0x492 PUSH2 0x1951 JUMP JUMPDEST CALLVALUE DUP1 ISZERO PUSH2 0x81D JUMPI PUSH1 0x0 DUP1 REVERT JUMPDEST POP PUSH2 0x3B9 PUSH1 0x4 DUP1 CALLDATASIZE SUB PUSH1 0x40 DUP2 LT ISZERO PUSH2 0x834 JUMPI PUSH1 0x0 DUP1 REVERT JUMPDEST POP PUSH1 0x1 PUSH1 0x1 PUSH1 0xA0 SHL SUB DUP2 CALLDATALOAD DUP2 AND SWAP2 PUSH1 0x20 ADD CALLDATALOAD AND PUSH2 0x195D JUMP JUMPDEST CALLVALUE DUP1 ISZERO PUSH2 0x858 JUMPI PUSH1 0x0 DUP1 REVERT JUMPDEST POP PUSH2 0x36A PUSH2 0x197E JUMP JUMPDEST CALLVALUE DUP1 ISZERO PUSH2 0x86D JUMPI PUSH1 0x0 DUP1 REVERT JUMPDEST POP PUSH2 0x427 PUSH1 0x4 DUP1 CALLDATASIZE SUB PUSH1 0x20 DUP2 LT ISZERO PUSH2 0x884 JUMPI PUSH1 0x0 DUP1 REVERT JUMPDEST POP CALLDATALOAD PUSH2 0x198A JUMP JUMPDEST CALLVALUE DUP1 ISZERO PUSH2 0x897 JUMPI PUSH1 0x0 DUP1 REVERT JUMPDEST POP PUSH2 0x3B9 PUSH1 0x4 DUP1 CALLDATASIZE SUB PUSH1 0x40 DUP2 LT ISZERO PUSH2 0x8AE JUMPI PUSH1 0x0 DUP1 REVERT JUMPDEST POP PUSH1 0x1 PUSH1 0x1 PUSH1 0xA0 SHL SUB DUP2 CALLDATALOAD DUP2 AND SWAP2 PUSH1 0x20 ADD CALLDATALOAD AND PUSH2 0x1BCE JUMP JUMPDEST CALLVALUE DUP1 ISZERO PUSH2 0x8D2 JUMPI PUSH1 0x0 DUP1 REVERT JUMPDEST POP PUSH2 0x3B9 PUSH1 0x4 DUP1 CALLDATASIZE SUB PUSH1 0x80 DUP2 LT ISZERO PUSH2 0x8E9 JUMPI PUSH1 0x0 DUP1 REVERT JUMPDEST POP PUSH1 0x1 PUSH1 0x1 PUSH1 0xA0 SHL SUB DUP2 CALLDATALOAD DUP2 AND SWAP2 PUSH1 0x20 DUP2 ADD CALLDATALOAD SWAP2 PUSH1 0x40 DUP3 ADD CALLDATALOAD AND SWAP1 PUSH1 0x60 ADD CALLDATALOAD PUSH2 0x1BFD JUMP JUMPDEST CALLVALUE DUP1 ISZERO PUSH2 0x919 JUMPI PUSH1 0x0 DUP1 REVERT JUMPDEST POP PUSH2 0x36A PUSH1 0x4 DUP1 CALLDATASIZE SUB PUSH1 0x20 DUP2 LT ISZERO PUSH2 0x930 JUMPI PUSH1 0x0 DUP1 REVERT JUMPDEST POP CALLDATALOAD PUSH2 0x1DAB JUMP JUMPDEST CALLVALUE DUP1 ISZERO PUSH2 0x943 JUMPI PUSH1 0x0 DUP1 REVERT JUMPDEST POP PUSH2 0x961 PUSH1 0x4 DUP1 CALLDATASIZE SUB PUSH1 0x20 DUP2 LT ISZERO PUSH2 0x95A JUMPI PUSH1 0x0 DUP1 REVERT JUMPDEST POP CALLDATALOAD PUSH2 0x1DE2 JUMP JUMPDEST PUSH1 0x40 DUP1 MLOAD SWAP7 DUP8 MSTORE PUSH1 0x1 PUSH1 0x1 PUSH1 0xA0 SHL SUB SWAP6 DUP7 AND PUSH1 0x20 DUP9 ADD MSTORE DUP7 DUP2 ADD SWAP5 SWAP1 SWAP5 MSTORE SWAP2 DUP5 AND PUSH1 0x60 DUP7 ADD MSTORE SWAP1 SWAP3 AND PUSH1 0x80 DUP5 ADD MSTORE PUSH1 0x1 PUSH1 0x1 PUSH1 0x40 SHL SUB SWAP1 SWAP2 AND PUSH1 0xA0 DUP4 ADD MSTORE MLOAD SWAP1 DUP2 SWAP1 SUB PUSH1 0xC0 ADD SWAP1 RETURN JUMPDEST CALLVALUE DUP1 ISZERO PUSH2 0x9B6 JUMPI PUSH1 0x0 DUP1 REVERT JUMPDEST POP PUSH2 0x3B9 PUSH2 0x1E89 JUMP JUMPDEST CALLVALUE DUP1 ISZERO PUSH2 0x9CB JUMPI PUSH1 0x0 DUP1 REVERT JUMPDEST POP PUSH2 0x492 PUSH2 0x1E95 JUMP JUMPDEST CALLVALUE DUP1 ISZERO PUSH2 0x9E0 JUMPI PUSH1 0x0 DUP1 REVERT JUMPDEST POP PUSH2 0x3B9 PUSH1 0x4 DUP1 CALLDATASIZE SUB PUSH1 0x20 DUP2 LT ISZERO PUSH2 0x9F7 JUMPI PUSH1 0x0 DUP1 REVERT JUMPDEST POP CALLDATALOAD PUSH2 0x1EA0 JUMP JUMPDEST CALLVALUE DUP1 ISZERO PUSH2 0xA0A JUMPI PUSH1 0x0 DUP1 REVERT JUMPDEST POP PUSH2 0x3B9 PUSH1 0x4 DUP1 CALLDATASIZE SUB PUSH1 0x20 DUP2 LT ISZERO PUSH2 0xA21 JUMPI PUSH1 0x0 DUP1 REVERT JUMPDEST POP CALLDATALOAD PUSH1 0x1 PUSH1 0x1 PUSH1 0xA0 SHL SUB AND PUSH2 0x1EB6 JUMP JUMPDEST CALLVALUE DUP1 ISZERO PUSH2 0xA3D JUMPI PUSH1 0x0 DUP1 REVERT JUMPDEST POP PUSH2 0x3B9 PUSH1 0x4 DUP1 CALLDATASIZE SUB PUSH1 0x20 DUP2 LT ISZERO PUSH2 0xA54 JUMPI PUSH1 0x0 DUP1 REVERT JUMPDEST POP CALLDATALOAD PUSH2 0x1ECC JUMP JUMPDEST CALLVALUE DUP1 ISZERO PUSH2 0xA67 JUMPI PUSH1 0x0 DUP1 REVERT JUMPDEST POP PUSH2 0x36A PUSH1 0x4 DUP1 CALLDATASIZE SUB PUSH1 0x20 DUP2 LT ISZERO PUSH2 0xA7E JUMPI PUSH1 0x0 DUP1 REVERT JUMPDEST POP CALLDATALOAD ISZERO ISZERO PUSH2 0x1EE5 JUMP JUMPDEST CALLVALUE DUP1 ISZERO PUSH2 0xA93 JUMPI PUSH1 0x0 DUP1 REVERT JUMPDEST POP PUSH2 0x3B9 PUSH1 0x4 DUP1 CALLDATASIZE SUB PUSH1 0x20 DUP2 LT ISZERO PUSH2 0xAAA JUMPI PUSH1 0x0 DUP1 REVERT JUMPDEST POP CALLDATALOAD PUSH2 0x1F58 JUMP JUMPDEST CALLVALUE DUP1 ISZERO PUSH2 0xABD JUMPI PUSH1 0x0 DUP1 REVERT JUMPDEST POP PUSH2 0x427 PUSH1 0x4 DUP1 CALLDATASIZE SUB PUSH1 0x20 DUP2 LT ISZERO PUSH2 0xAD4 JUMPI PUSH1 0x0 DUP1 REVERT JUMPDEST POP CALLDATALOAD PUSH2 0x1F6E JUMP JUMPDEST PUSH2 0x3B9 PUSH1 0x4 DUP1 CALLDATASIZE SUB PUSH1 0x40 DUP2 LT ISZERO PUSH2 0xAF1 JUMPI PUSH1 0x0 DUP1 REVERT JUMPDEST POP DUP1 CALLDATALOAD SWAP1 PUSH1 0x20 ADD CALLDATALOAD PUSH1 0x1 PUSH1 0x1 PUSH1 0xA0 SHL SUB AND PUSH2 0x1F83 JUMP JUMPDEST CALLVALUE DUP1 ISZERO PUSH2 0xB13 JUMPI PUSH1 0x0 DUP1 REVERT JUMPDEST POP PUSH2 0x36A PUSH1 0x4 DUP1 CALLDATASIZE SUB PUSH1 0x20 DUP2 LT ISZERO PUSH2 0xB2A JUMPI PUSH1 0x0 DUP1 REVERT JUMPDEST POP CALLDATALOAD PUSH1 0x1 PUSH1 0x1 PUSH1 0xA0 SHL SUB AND PUSH2 0x2189 JUMP JUMPDEST CALLVALUE DUP1 ISZERO PUSH2 0xB46 JUMPI PUSH1 0x0 DUP1 REVERT JUMPDEST POP PUSH2 0x36A PUSH1 0x4 DUP1 CALLDATASIZE SUB PUSH1 0x40 DUP2 LT ISZERO PUSH2 0xB5D JUMPI PUSH1 0x0 DUP1 REVERT JUMPDEST POP PUSH1 0x1 PUSH1 0x1 PUSH1 0xA0 SHL SUB DUP2 CALLDATALOAD AND SWAP1 PUSH1 0x20 ADD CALLDATALOAD PUSH2 0x2206 JUMP JUMPDEST CALLVALUE DUP1 ISZERO PUSH2 0xB7F JUMPI PUSH1 0x0 DUP1 REVERT JUMPDEST POP PUSH2 0x36A PUSH2 0x2344 JUMP JUMPDEST CALLVALUE DUP1 ISZERO PUSH2 0xB94 JUMPI PUSH1 0x0 DUP1 REVERT JUMPDEST POP PUSH2 0xBB2 PUSH1 0x4 DUP1 CALLDATASIZE SUB PUSH1 0x20 DUP2 LT ISZERO PUSH2 0xBAB JUMPI PUSH1 0x0 DUP1 REVERT JUMPDEST POP CALLDATALOAD PUSH2 0x239E JUMP JUMPDEST PUSH1 0x40 DUP1 MLOAD SWAP4 DUP5 MSTORE PUSH1 0x20 DUP5 ADD SWAP3 SWAP1 SWAP3 MSTORE DUP3 DUP3 ADD MSTORE MLOAD SWAP1 DUP2 SWAP1 SUB PUSH1 0x60 ADD SWAP1 RETURN JUMPDEST CALLVALUE DUP1 ISZERO PUSH2 0xBDC JUMPI PUSH1 0x0 DUP1 REVERT JUMPDEST POP PUSH2 0x492 PUSH1 0x4 DUP1 CALLDATASIZE SUB PUSH1 0x20 DUP2 LT ISZERO PUSH2 0xBF3 JUMPI PUSH1 0x0 DUP1 REVERT JUMPDEST POP CALLDATALOAD PUSH2 0x23D4 JUMP JUMPDEST CALLVALUE DUP1 ISZERO PUSH2 0xC06 JUMPI PUSH1 0x0 DUP1 REVERT JUMPDEST POP PUSH2 0x36A PUSH1 0x4 DUP1 CALLDATASIZE SUB PUSH1 0x20 DUP2 LT ISZERO PUSH2 0xC1D JUMPI PUSH1 0x0 DUP1 REVERT JUMPDEST POP CALLDATALOAD PUSH2 0x2406 JUMP JUMPDEST CALLVALUE DUP1 ISZERO PUSH2 0xC30 JUMPI PUSH1 0x0 DUP1 REVERT JUMPDEST POP PUSH2 0x36A PUSH1 0x4 DUP1 CALLDATASIZE SUB PUSH1 0x20 DUP2 LT ISZERO PUSH2 0xC47 JUMPI PUSH1 0x0 DUP1 REVERT JUMPDEST POP CALLDATALOAD ISZERO ISZERO PUSH2 0x24F8 JUMP JUMPDEST CALLVALUE DUP1 ISZERO PUSH2 0xC5C JUMPI PUSH1 0x0 DUP1 REVERT JUMPDEST POP PUSH2 0x36A PUSH1 0x4 DUP1 CALLDATASIZE SUB PUSH1 0x40 DUP2 LT ISZERO PUSH2 0xC73 JUMPI PUSH1 0x0 DUP1 REVERT JUMPDEST POP DUP1 CALLDATALOAD SWAP1 PUSH1 0x20 ADD CALLDATALOAD PUSH2 0x259C JUMP JUMPDEST CALLVALUE DUP1 ISZERO PUSH2 0xC8C JUMPI PUSH1 0x0 DUP1 REVERT JUMPDEST POP PUSH2 0x3B9 PUSH1 0x4 DUP1 CALLDATASIZE SUB PUSH1 0xC0 DUP2 LT ISZERO PUSH2 0xCA3 JUMPI PUSH1 0x0 DUP1 REVERT JUMPDEST POP DUP1 CALLDATALOAD SWAP1 PUSH1 0x1 PUSH1 0x1 PUSH1 0xA0 SHL SUB PUSH1 0x20 DUP3 ADD CALLDATALOAD DUP2 AND SWAP2 PUSH1 0x40 DUP2 ADD CALLDATALOAD SWAP2 PUSH1 0x60 DUP3 ADD CALLDATALOAD AND SWAP1 PUSH1 0x80 DUP2 ADD CALLDATALOAD SWAP1 PUSH1 0xA0 ADD CALLDATALOAD ISZERO ISZERO PUSH2 0x274B JUMP JUMPDEST PUSH2 0x36A PUSH1 0x4 DUP1 CALLDATASIZE SUB PUSH1 0x20 DUP2 LT ISZERO PUSH2 0xCEB JUMPI PUSH1 0x0 DUP1 REVERT JUMPDEST POP CALLDATALOAD PUSH2 0x2829 JUMP JUMPDEST CALLVALUE DUP1 ISZERO PUSH2 0xCFE JUMPI PUSH1 0x0 DUP1 REVERT JUMPDEST POP PUSH2 0x3B9 PUSH1 0x4 DUP1 CALLDATASIZE SUB PUSH1 0x80 DUP2 LT ISZERO PUSH2 0xD15 JUMPI PUSH1 0x0 DUP1 REVERT JUMPDEST POP DUP1 CALLDATALOAD SWAP1 PUSH1 0x1 PUSH1 0x1 PUSH1 0xA0 SHL SUB PUSH1 0x20 DUP3 ADD CALLDATALOAD DUP2 AND SWAP2 PUSH1 0x40 DUP2 ADD CALLDATALOAD SWAP2 PUSH1 0x60 SWAP1 SWAP2 ADD CALLDATALOAD AND PUSH2 0x2AB5 JUMP JUMPDEST CALLVALUE DUP1 ISZERO PUSH2 0xD47 JUMPI PUSH1 0x0 DUP1 REVERT JUMPDEST POP PUSH2 0x36A PUSH1 0x4 DUP1 CALLDATASIZE SUB PUSH1 0x20 DUP2 LT ISZERO PUSH2 0xD5E JUMPI PUSH1 0x0 DUP1 REVERT JUMPDEST POP CALLDATALOAD PUSH1 0x1 PUSH1 0x1 PUSH1 0xA0 SHL SUB AND PUSH2 0x2B47 JUMP JUMPDEST CALLVALUE DUP1 ISZERO PUSH2 0xD7A JUMPI PUSH1 0x0 DUP1 REVERT JUMPDEST POP PUSH2 0x36A PUSH2 0x2BA2 JUMP JUMPDEST CALLVALUE DUP1 ISZERO PUSH2 0xD8F JUMPI PUSH1 0x0 DUP1 REVERT JUMPDEST POP PUSH2 0x3B9 PUSH1 0x4 DUP1 CALLDATASIZE SUB PUSH1 0x60 DUP2 LT ISZERO PUSH2 0xDA6 JUMPI PUSH1 0x0 DUP1 REVERT JUMPDEST POP PUSH1 0x1 PUSH1 0x1 PUSH1 0xA0 SHL SUB DUP2 CALLDATALOAD DUP2 AND SWAP2 PUSH1 0x20 DUP2 ADD CALLDATALOAD SWAP1 SWAP2 AND SWAP1 PUSH1 0x40 ADD CALLDATALOAD PUSH2 0x2BAE JUMP JUMPDEST PUSH1 0x1E PUSH1 0x5 PUSH2 0xDD2 PUSH2 0x4E13 JUMP JUMPDEST SWAP1 PUSH2 0x100 EXP SWAP1 DIV PUSH1 0xFF AND DUP2 JUMP JUMPDEST PUSH1 0x1 PUSH1 0x1 PUSH1 0xA0 SHL SUB DUP1 DUP4 AND PUSH1 0x0 SWAP1 DUP2 MSTORE PUSH1 0x7 PUSH1 0x20 SWAP1 DUP2 MSTORE PUSH1 0x40 DUP1 DUP4 KECCAK256 SWAP4 DUP6 AND DUP4 MSTORE SWAP3 SWAP1 MSTORE SWAP1 DUP2 KECCAK256 PUSH2 0xE0E PUSH2 0x4E13 JUMP JUMPDEST SWAP1 POP JUMPDEST SWAP3 SWAP2 POP POP JUMP JUMPDEST PUSH1 0x0 DUP1 PUSH1 0x3 PUSH2 0xE24 PUSH2 0x4E13 JUMP JUMPDEST SWAP1 PUSH2 0x100 EXP SWAP1 DIV PUSH1 0xFF AND ISZERO PUSH2 0xE6E JUMPI PUSH1 0x40 DUP1 MLOAD PUSH3 0x461BCD PUSH1 0xE5 SHL DUP2 MSTORE PUSH1 0x20 PUSH1 0x4 DUP3 ADD MSTORE PUSH1 0x12 PUSH1 0x24 DUP3 ADD MSTORE PUSH1 0x0 DUP1 MLOAD PUSH1 0x20 PUSH2 0x4FCB DUP4 CODECOPY DUP2 MLOAD SWAP2 MSTORE PUSH1 0x44 DUP3 ADD MSTORE SWAP1 MLOAD SWAP1 DUP2 SWAP1 SUB PUSH1 0x64 ADD SWAP1 REVERT JUMPDEST PUSH1 0x0 JUMPDEST DUP5 ISZERO PUSH2 0xFE6 JUMPI PUSH2 0xE81 DUP5 DUP8 PUSH2 0xDDF JUMP JUMPDEST SWAP1 POP DUP1 PUSH2 0xE8D JUMPI PUSH1 0x0 DUP1 REVERT JUMPDEST PUSH1 0x0 DUP2 DUP2 MSTORE PUSH1 0x2 PUSH1 0x20 DUP2 SWAP1 MSTORE PUSH1 0x40 SWAP1 SWAP2 KECCAK256 PUSH2 0xEC6 SWAP2 ADD PUSH2 0xEAB PUSH2 0x4E13 JUMP JUMPDEST PUSH1 0x0 DUP4 DUP2 MSTORE PUSH1 0x2 PUSH1 0x20 MSTORE PUSH1 0x40 SWAP1 KECCAK256 PUSH2 0xEC1 PUSH2 0x4E13 JUMP JUMPDEST PUSH2 0x2C72 JUMP JUMPDEST DUP6 PUSH8 0xDE0B6B3A7640000 MUL LT ISZERO PUSH2 0xEDC JUMPI PUSH2 0xFE6 JUMP JUMPDEST PUSH1 0x0 DUP2 DUP2 MSTORE PUSH1 0x2 PUSH1 0x20 DUP2 SWAP1 MSTORE PUSH1 0x40 SWAP1 SWAP2 KECCAK256 ADD PUSH2 0xEF6 PUSH2 0x4E13 JUMP JUMPDEST DUP6 LT PUSH2 0xF6F JUMPI PUSH1 0x0 DUP2 DUP2 MSTORE PUSH1 0x2 PUSH1 0x20 MSTORE PUSH1 0x40 SWAP1 KECCAK256 PUSH2 0xF1D SWAP1 DUP4 SWAP1 PUSH2 0xF18 PUSH2 0x4E13 JUMP JUMPDEST PUSH2 0x2CA1 JUMP JUMPDEST SWAP2 POP PUSH2 0xF46 DUP6 PUSH1 0x2 PUSH1 0x0 DUP5 DUP2 MSTORE PUSH1 0x20 ADD SWAP1 DUP2 MSTORE PUSH1 0x20 ADD PUSH1 0x0 KECCAK256 PUSH1 0x2 ADD PUSH2 0xF41 PUSH2 0x4E13 JUMP JUMPDEST PUSH2 0x2CF0 JUMP JUMPDEST PUSH1 0x0 DUP3 DUP2 MSTORE PUSH1 0x2 PUSH1 0x20 MSTORE PUSH1 0x40 SWAP1 KECCAK256 SWAP1 SWAP6 POP PUSH2 0xF6A SWAP1 DUP3 SWAP1 PUSH2 0xF65 PUSH2 0x4E13 JUMP JUMPDEST PUSH2 0x183D JUMP JUMPDEST PUSH2 0xFE1 JUMP JUMPDEST PUSH1 0x0 DUP2 DUP2 MSTORE PUSH1 0x2 PUSH1 0x20 MSTORE PUSH1 0x40 DUP2 KECCAK256 PUSH4 0x3B9ACA00 SWAP1 PUSH2 0xFBB SWAP1 DUP9 DUP4 MUL SWAP1 PUSH2 0xFB6 SWAP1 PUSH2 0xF97 PUSH2 0x4E13 JUMP JUMPDEST PUSH1 0x0 DUP8 DUP2 MSTORE PUSH1 0x2 PUSH1 0x20 DUP2 SWAP1 MSTORE PUSH1 0x40 SWAP1 SWAP2 KECCAK256 ADD PUSH2 0xFB1 PUSH2 0x4E13 JUMP JUMPDEST PUSH2 0x2D40 JUMP JUMPDEST PUSH2 0x2D5C JUMP JUMPDEST DUP2 PUSH2 0xFC2 JUMPI INVALID JUMPDEST DIV SWAP1 POP PUSH2 0xFCF DUP4 DUP3 PUSH2 0x2CA1 JUMP JUMPDEST SWAP3 POP PUSH2 0xFDB DUP3 DUP3 PUSH2 0x183D JUMP JUMPDEST PUSH1 0x0 SWAP6 POP POP JUMPDEST PUSH2 0xE71 JUMP JUMPDEST DUP3 DUP3 LT ISZERO PUSH2 0xFF3 JUMPI PUSH1 0x0 DUP1 REVERT JUMPDEST POP SWAP5 SWAP4 POP POP POP POP JUMP JUMPDEST PUSH2 0x100D GAS PUSH2 0x1008 PUSH2 0x4E4B JUMP JUMPDEST PUSH2 0x2D8C JUMP JUMPDEST PUSH2 0x104C JUMPI PUSH1 0x40 DUP1 MLOAD PUSH3 0x461BCD PUSH1 0xE5 SHL DUP2 MSTORE PUSH1 0x20 PUSH1 0x4 DUP3 ADD MSTORE PUSH1 0x14 PUSH1 0x24 DUP3 ADD MSTORE PUSH1 0x0 DUP1 MLOAD PUSH1 0x20 PUSH2 0x50BF DUP4 CODECOPY DUP2 MLOAD SWAP2 MSTORE PUSH1 0x44 DUP3 ADD MSTORE SWAP1 MLOAD SWAP1 DUP2 SWAP1 SUB PUSH1 0x64 ADD SWAP1 REVERT JUMPDEST PUSH1 0x1 PUSH1 0x5 PUSH1 0x1 PUSH1 0xE0 SHL DUP2 PUSH2 0x105E PUSH2 0x4E13 JUMP JUMPDEST DUP2 PUSH1 0xFF MUL NOT AND SWAP1 DUP4 ISZERO ISZERO MUL OR SWAP1 PUSH2 0x1073 PUSH2 0x4E6F JUMP JUMPDEST POP POP POP JUMP JUMPDEST PUSH1 0x0 PUSH2 0x1098 DUP4 PUSH1 0x1 PUSH1 0x1 PUSH1 0x80 SHL SUB AND DUP7 DUP5 PUSH1 0x1 PUSH1 0x1 PUSH1 0x80 SHL SUB AND DUP8 PUSH2 0x2AB5 JUMP JUMPDEST SWAP6 SWAP5 POP POP POP POP POP JUMP JUMPDEST PUSH1 0x0 PUSH1 0xE PUSH2 0x10AD PUSH2 0x4E13 JUMP JUMPDEST SWAP1 PUSH2 0x100 EXP SWAP1 DIV PUSH1 0x1 PUSH1 0x1 PUSH1 0xA0 SHL SUB AND DUP2 JUMP JUMPDEST PUSH2 0x10CC GAS PUSH2 0x1008 PUSH2 0x4E4B JUMP JUMPDEST PUSH2 0x110B JUMPI PUSH1 0x40 DUP1 MLOAD PUSH3 0x461BCD PUSH1 0xE5 SHL DUP2 MSTORE PUSH1 0x20 PUSH1 0x4 DUP3 ADD MSTORE PUSH1 0x14 PUSH1 0x24 DUP3 ADD MSTORE PUSH1 0x0 DUP1 MLOAD PUSH1 0x20 PUSH2 0x50BF DUP4 CODECOPY DUP2 MLOAD SWAP2 MSTORE PUSH1 0x44 DUP3 ADD MSTORE SWAP1 MLOAD SWAP1 DUP2 SWAP1 SUB PUSH1 0x64 ADD SWAP1 REVERT JUMPDEST DUP1 PUSH1 0x0 PUSH1 0x1 DUP2 PUSH2 0x1119 PUSH2 0x4E13 JUMP JUMPDEST DUP2 PUSH1 0x1 PUSH1 0x1 PUSH1 0xA0 SHL SUB MUL NOT AND SWAP1 DUP4 PUSH1 0x1 PUSH1 0x1 PUSH1 0xA0 SHL SUB AND MUL OR SWAP1 PUSH2 0x113B PUSH2 0x4E6F JUMP JUMPDEST POP POP POP PUSH1 0x0 DUP1 SWAP1 PUSH2 0x114A PUSH2 0x4E13 JUMP JUMPDEST SWAP1 PUSH2 0x100 EXP SWAP1 DIV PUSH1 0x1 PUSH1 0x1 PUSH1 0xA0 SHL SUB AND PUSH1 0x1 PUSH1 0x1 PUSH1 0xA0 SHL SUB AND PUSH32 0xCE241D7CA1F669FEE44B6FC00B8EBA2DF3BB514EED0F6F668F8F89096E81ED94 PUSH1 0x40 MLOAD PUSH1 0x40 MLOAD DUP1 SWAP2 SUB SWAP1 LOG2 POP JUMP JUMPDEST PUSH1 0x0 DUP1 PUSH2 0x119F DUP6 DUP6 PUSH2 0xDDF JUMP JUMPDEST SWAP1 POP JUMPDEST PUSH1 0x0 DUP2 DUP2 MSTORE PUSH1 0x2 PUSH1 0x20 DUP2 SWAP1 MSTORE PUSH1 0x40 SWAP1 SWAP2 KECCAK256 ADD PUSH2 0x11BC PUSH2 0x4E13 JUMP JUMPDEST DUP4 GT ISZERO PUSH2 0x1225 JUMPI PUSH1 0x0 DUP2 DUP2 MSTORE PUSH1 0x2 PUSH1 0x20 MSTORE PUSH1 0x40 SWAP1 KECCAK256 PUSH2 0x11DF SWAP1 DUP4 SWAP1 PUSH2 0xF18 PUSH2 0x4E13 JUMP JUMPDEST SWAP2 POP PUSH2 0x1203 DUP4 PUSH1 0x2 PUSH1 0x0 DUP5 DUP2 MSTORE PUSH1 0x20 ADD SWAP1 DUP2 MSTORE PUSH1 0x20 ADD PUSH1 0x0 KECCAK256 PUSH1 0x2 ADD PUSH2 0xF41 PUSH2 0x4E13 JUMP JUMPDEST SWAP3 POP DUP3 ISZERO PUSH2 0x1220 JUMPI PUSH2 0x1214 DUP2 PUSH2 0x1ECC JUMP JUMPDEST SWAP1 POP DUP1 PUSH2 0x1220 JUMPI PUSH1 0x0 DUP1 REVERT JUMPDEST PUSH2 0x11A2 JUMP JUMPDEST PUSH2 0x1098 DUP3 PUSH4 0x3B9ACA00 PUSH2 0x1273 DUP7 PUSH4 0x3B9ACA00 MUL PUSH2 0xFB6 PUSH1 0x2 PUSH1 0x0 DUP9 DUP2 MSTORE PUSH1 0x20 ADD SWAP1 DUP2 MSTORE PUSH1 0x20 ADD PUSH1 0x0 KECCAK256 PUSH1 0x0 ADD PUSH2 0x1259 PUSH2 0x4E13 JUMP JUMPDEST PUSH1 0x0 DUP9 DUP2 MSTORE PUSH1 0x2 PUSH1 0x20 DUP2 SWAP1 MSTORE PUSH1 0x40 SWAP1 SWAP2 KECCAK256 ADD PUSH2 0xFB1 PUSH2 0x4E13 JUMP JUMPDEST DUP2 PUSH2 0x127A JUMPI INVALID JUMPDEST DIV PUSH2 0x2CA1 JUMP JUMPDEST PUSH1 0x0 PUSH2 0x128A PUSH2 0x2344 JUMP JUMPDEST ISZERO PUSH2 0x1294 JUMPI PUSH1 0x0 DUP1 REVERT JUMPDEST PUSH2 0x12A3 DUP7 DUP7 DUP7 DUP7 DUP7 PUSH1 0x1 PUSH2 0x274B JUMP JUMPDEST SWAP7 SWAP6 POP POP POP POP POP POP JUMP JUMPDEST PUSH1 0x0 DUP1 PUSH1 0x3 PUSH2 0x12BA PUSH2 0x4E13 JUMP JUMPDEST SWAP1 PUSH2 0x100 EXP SWAP1 DIV PUSH1 0xFF AND ISZERO PUSH2 0x1304 JUMPI PUSH1 0x40 DUP1 MLOAD PUSH3 0x461BCD PUSH1 0xE5 SHL DUP2 MSTORE PUSH1 0x20 PUSH1 0x4 DUP3 ADD MSTORE PUSH1 0x12 PUSH1 0x24 DUP3 ADD MSTORE PUSH1 0x0 DUP1 MLOAD PUSH1 0x20 PUSH2 0x4FCB DUP4 CODECOPY DUP2 MLOAD SWAP2 MSTORE PUSH1 0x44 DUP3 ADD MSTORE SWAP1 MLOAD SWAP1 DUP2 SWAP1 SUB PUSH1 0x64 ADD SWAP1 REVERT JUMPDEST PUSH2 0x130D DUP4 PUSH2 0x2406 JUMP JUMPDEST ISZERO PUSH2 0x1317 JUMPI PUSH1 0x0 DUP1 REVERT JUMPDEST PUSH2 0x1320 DUP4 PUSH2 0x1DAB JUMP JUMPDEST PUSH2 0x1329 JUMPI PUSH1 0x0 DUP1 REVERT JUMPDEST PUSH2 0x1332 DUP4 PUSH2 0x2E1F JUMP JUMPDEST POP PUSH2 0x133D DUP4 DUP4 PUSH2 0x2F3A JUMP JUMPDEST PUSH32 0x6D5C16212BDEA16850DCE4D9FA2314C446BD30CE84700D9C36C7677C6D283940 GAS PUSH2 0x1367 PUSH2 0x4E4B JUMP JUMPDEST PUSH1 0x40 DUP1 MLOAD PUSH1 0x1 PUSH1 0x1 PUSH1 0xA0 SHL SUB SWAP1 SWAP3 AND DUP3 MSTORE PUSH1 0x20 DUP3 ADD DUP7 SWAP1 MSTORE DUP1 MLOAD SWAP2 DUP3 SWAP1 SUB ADD SWAP1 LOG1 POP PUSH1 0x1 SWAP3 SWAP2 POP POP JUMP JUMPDEST PUSH1 0x1 PUSH2 0x139B PUSH2 0x4E13 JUMP JUMPDEST DUP2 JUMP JUMPDEST PUSH1 0x0 PUSH2 0x13AC GAS PUSH2 0x1008 PUSH2 0x4E4B JUMP JUMPDEST PUSH2 0x13EB JUMPI PUSH1 0x40 DUP1 MLOAD PUSH3 0x461BCD PUSH1 0xE5 SHL DUP2 MSTORE PUSH1 0x20 PUSH1 0x4 DUP3 ADD MSTORE PUSH1 0x14 PUSH1 0x24 DUP3 ADD MSTORE PUSH1 0x0 DUP1 MLOAD PUSH1 0x20 PUSH2 0x50BF DUP4 CODECOPY DUP2 MLOAD SWAP2 MSTORE PUSH1 0x44 DUP3 ADD MSTORE SWAP1 MLOAD SWAP1 DUP2 SWAP1 SUB PUSH1 0x64 ADD SWAP1 REVERT JUMPDEST DUP2 PUSH1 0x5 PUSH1 0x1 PUSH1 0xF0 SHL DUP2 PUSH2 0x13FC PUSH2 0x4E13 JUMP JUMPDEST DUP2 PUSH1 0xFF MUL NOT AND SWAP1 DUP4 ISZERO ISZERO MUL OR SWAP1 PUSH2 0x1411 PUSH2 0x4E6F JUMP JUMPDEST POP POP POP PUSH32 0xEA11E00EC1642BE9B494019B756440E2C57DBE9E59242C4F9C64CE33FB4F41D9 PUSH1 0x5 PUSH1 0x1E SWAP1 PUSH2 0x1442 PUSH2 0x4E13 JUMP JUMPDEST SWAP1 PUSH2 0x100 EXP SWAP1 DIV PUSH1 0xFF AND PUSH1 0x40 MLOAD DUP1 DUP3 ISZERO ISZERO ISZERO ISZERO DUP2 MSTORE PUSH1 0x20 ADD SWAP2 POP POP PUSH1 0x40 MLOAD DUP1 SWAP2 SUB SWAP1 LOG1 POP PUSH1 0x1 JUMPDEST SWAP2 SWAP1 POP JUMP JUMPDEST PUSH1 0x14 PUSH1 0xD PUSH2 0xDD2 PUSH2 0x4E13 JUMP JUMPDEST PUSH1 0x0 DUP2 PUSH2 0x1486 DUP2 PUSH2 0x1DAB JUMP JUMPDEST PUSH2 0x14C1 JUMPI PUSH1 0x40 MLOAD PUSH3 0x461BCD PUSH1 0xE5 SHL DUP2 MSTORE PUSH1 0x4 ADD DUP1 DUP1 PUSH1 0x20 ADD DUP3 DUP2 SUB DUP3 MSTORE PUSH1 0x2D DUP2 MSTORE PUSH1 0x20 ADD DUP1 PUSH2 0x501E PUSH1 0x2D SWAP2 CODECOPY PUSH1 0x40 ADD SWAP2 POP POP PUSH1 0x40 MLOAD DUP1 SWAP2 SUB SWAP1 REVERT JUMPDEST PUSH2 0x14C9 PUSH2 0x2344 JUMP JUMPDEST DUP1 PUSH2 0x14F5 JUMPI POP PUSH2 0x14D8 DUP2 PUSH2 0x23D4 JUMP JUMPDEST PUSH1 0x1 PUSH1 0x1 PUSH1 0xA0 SHL SUB AND GAS PUSH2 0x14EA PUSH2 0x4E4B JUMP JUMPDEST PUSH1 0x1 PUSH1 0x1 PUSH1 0xA0 SHL SUB AND EQ JUMPDEST DUP1 PUSH2 0x1508 JUMPI POP PUSH1 0xC PUSH2 0x1505 PUSH2 0x4E13 JUMP JUMPDEST DUP2 EQ JUMPDEST PUSH2 0x1543 JUMPI PUSH1 0x40 MLOAD PUSH3 0x461BCD PUSH1 0xE5 SHL DUP2 MSTORE PUSH1 0x4 ADD DUP1 DUP1 PUSH1 0x20 ADD DUP3 DUP2 SUB DUP3 MSTORE PUSH1 0x74 DUP2 MSTORE PUSH1 0x20 ADD DUP1 PUSH2 0x504B PUSH1 0x74 SWAP2 CODECOPY PUSH1 0x80 ADD SWAP2 POP POP PUSH1 0x40 MLOAD DUP1 SWAP2 SUB SWAP1 REVERT JUMPDEST PUSH1 0x0 PUSH1 0x3 PUSH2 0x154F PUSH2 0x4E13 JUMP JUMPDEST SWAP1 PUSH2 0x100 EXP SWAP1 DIV PUSH1 0xFF AND ISZERO PUSH2 0x1599 JUMPI PUSH1 0x40 DUP1 MLOAD PUSH3 0x461BCD PUSH1 0xE5 SHL DUP2 MSTORE PUSH1 0x20 PUSH1 0x4 DUP3 ADD MSTORE PUSH1 0x12 PUSH1 0x24 DUP3 ADD MSTORE PUSH1 0x0 DUP1 MLOAD PUSH1 0x20 PUSH2 0x4FCB DUP4 CODECOPY DUP2 MLOAD SWAP2 MSTORE PUSH1 0x44 DUP3 ADD MSTORE SWAP1 MLOAD SWAP1 DUP2 SWAP1 SUB PUSH1 0x64 ADD SWAP1 REVERT JUMPDEST PUSH1 0x1E PUSH1 0x5 PUSH2 0x15A5 PUSH2 0x4E13 JUMP JUMPDEST SWAP1 PUSH2 0x100 EXP SWAP1 DIV PUSH1 0xFF AND ISZERO PUSH2 0x15EB JUMPI PUSH2 0x15BD DUP4 PUSH2 0x2406 JUMP JUMPDEST ISZERO PUSH2 0x15D9 JUMPI PUSH2 0x15CB DUP4 PUSH2 0x31FC JUMP JUMPDEST PUSH2 0x15D4 JUMPI PUSH1 0x0 DUP1 REVERT JUMPDEST PUSH2 0x15EB JUMP JUMPDEST PUSH2 0x15E2 DUP4 PUSH2 0x2E1F JUMP JUMPDEST PUSH2 0x15EB JUMPI PUSH1 0x0 DUP1 REVERT JUMPDEST PUSH2 0x15F4 DUP4 PUSH2 0x34EC JUMP JUMPDEST SWAP4 SWAP3 POP POP POP JUMP JUMPDEST PUSH1 0x0 DUP1 PUSH1 0x0 DUP1 PUSH2 0x1609 PUSH2 0x4EA6 JUMP JUMPDEST PUSH1 0x0 DUP7 DUP2 MSTORE PUSH1 0x2 PUSH1 0x20 MSTORE PUSH1 0x40 SWAP1 DUP2 SWAP1 KECCAK256 DUP2 MLOAD PUSH1 0xC0 DUP2 ADD SWAP1 SWAP3 MSTORE DUP2 DUP2 PUSH2 0x162C PUSH2 0x4E13 JUMP JUMPDEST DUP2 MSTORE PUSH1 0x20 ADD PUSH1 0x0 PUSH1 0x1 DUP4 ADD PUSH2 0x163F PUSH2 0x4E13 JUMP JUMPDEST PUSH1 0x1 PUSH1 0x1 PUSH1 0xA0 SHL SUB PUSH2 0x100 SWAP3 SWAP1 SWAP3 EXP SWAP1 DIV AND DUP2 MSTORE PUSH1 0x20 ADD PUSH1 0x2 DUP3 ADD PUSH2 0x1662 PUSH2 0x4E13 JUMP JUMPDEST DUP2 MSTORE PUSH1 0x20 ADD PUSH1 0x0 PUSH1 0x3 DUP4 ADD PUSH2 0x1675 PUSH2 0x4E13 JUMP JUMPDEST PUSH1 0x1 PUSH1 0x1 PUSH1 0xA0 SHL SUB PUSH2 0x100 SWAP3 SWAP1 SWAP3 EXP SWAP1 DIV AND DUP2 MSTORE PUSH1 0x20 ADD PUSH1 0x0 PUSH1 0x4 DUP4 ADD PUSH2 0x169A PUSH2 0x4E13 JUMP JUMPDEST PUSH1 0x1 PUSH1 0x1 PUSH1 0xA0 SHL SUB PUSH2 0x100 SWAP3 SWAP1 SWAP3 EXP SWAP1 DIV AND DUP2 MSTORE PUSH1 0x20 ADD PUSH1 0x14 PUSH1 0x4 DUP4 ADD PUSH2 0x16BF PUSH2 0x4E13 JUMP JUMPDEST PUSH2 0x100 SWAP2 SWAP1 SWAP2 EXP SWAP1 DIV PUSH1 0x1 PUSH1 0x1 PUSH1 0x40 SHL SUB AND SWAP1 MSTORE POP DUP1 MLOAD PUSH1 0x20 DUP3 ADD MLOAD PUSH1 0x40 DUP4 ADD MLOAD PUSH1 0x60 SWAP1 SWAP4 ADD MLOAD SWAP2 SWAP10 SWAP1 SWAP9 POP SWAP2 SWAP7 POP SWAP5 POP SWAP3 POP POP POP JUMP JUMPDEST PUSH1 0x0 DUP1 PUSH1 0x3 PUSH2 0x1703 PUSH2 0x4E13 JUMP JUMPDEST SWAP1 PUSH2 0x100 EXP SWAP1 DIV PUSH1 0xFF AND ISZERO PUSH2 0x174D JUMPI PUSH1 0x40 DUP1 MLOAD PUSH3 0x461BCD PUSH1 0xE5 SHL DUP2 MSTORE PUSH1 0x20 PUSH1 0x4 DUP3 ADD MSTORE PUSH1 0x12 PUSH1 0x24 DUP3 ADD MSTORE PUSH1 0x0 DUP1 MLOAD PUSH1 0x20 PUSH2 0x4FCB DUP4 CODECOPY DUP2 MLOAD SWAP2 MSTORE PUSH1 0x44 DUP3 ADD MSTORE SWAP1 MLOAD SWAP1 DUP2 SWAP1 SUB PUSH1 0x64 ADD SWAP1 REVERT JUMPDEST PUSH2 0x1756 DUP3 PUSH2 0x1DAB JUMP JUMPDEST ISZERO DUP1 ISZERO PUSH2 0x177A JUMPI POP PUSH1 0x0 DUP3 DUP2 MSTORE PUSH1 0x6 PUSH1 0x20 MSTORE PUSH1 0x40 SWAP1 KECCAK256 PUSH1 0x2 ADD PUSH2 0x1777 PUSH2 0x4E13 JUMP JUMPDEST ISZERO ISZERO JUMPDEST DUP1 ISZERO PUSH2 0x17A2 JUMPI POP PUSH1 0x0 DUP3 DUP2 MSTORE PUSH1 0x6 PUSH1 0x20 MSTORE PUSH1 0x40 SWAP1 KECCAK256 PUSH1 0x9 NOT NUMBER ADD SWAP1 PUSH1 0x2 ADD PUSH2 0x17A0 PUSH2 0x4E13 JUMP JUMPDEST LT JUMPDEST PUSH2 0x17AB JUMPI PUSH1 0x0 DUP1 REVERT JUMPDEST PUSH1 0x0 DUP3 DUP2 MSTORE PUSH1 0x6 PUSH1 0x20 MSTORE PUSH1 0x40 DUP2 KECCAK256 SWAP1 DUP1 DUP3 PUSH2 0x17C4 PUSH2 0x4E6F JUMP JUMPDEST POP POP PUSH1 0x1 DUP3 ADD PUSH1 0x0 SWAP1 PUSH2 0x17D5 PUSH2 0x4E6F JUMP JUMPDEST POP POP PUSH1 0x2 DUP3 ADD PUSH1 0x0 SWAP1 PUSH2 0x17E6 PUSH2 0x4E6F JUMP JUMPDEST POP POP POP POP PUSH32 0xCB9D6176C6AAC6478EBB9A2754CDCE22A944DE29ED1F2642F8613884EBA4B40C GAS PUSH2 0x1814 PUSH2 0x4E4B JUMP JUMPDEST PUSH1 0x40 DUP1 MLOAD PUSH1 0x1 PUSH1 0x1 PUSH1 0xA0 SHL SUB SWAP1 SWAP3 AND DUP3 MSTORE PUSH1 0x20 DUP3 ADD DUP6 SWAP1 MSTORE DUP1 MLOAD SWAP2 DUP3 SWAP1 SUB ADD SWAP1 LOG1 POP PUSH1 0x1 SWAP2 SWAP1 POP JUMP JUMPDEST PUSH2 0x1850 DUP3 PUSH1 0x1 PUSH1 0x1 PUSH1 0x80 SHL SUB DUP4 AND PUSH2 0x259C JUMP JUMPDEST PUSH2 0x1859 JUMPI PUSH1 0x0 DUP1 REVERT JUMPDEST POP POP JUMP JUMPDEST PUSH1 0x1 PUSH1 0x1 PUSH1 0xA0 SHL SUB DUP2 AND PUSH1 0x0 SWAP1 DUP2 MSTORE PUSH1 0x9 PUSH1 0x20 MSTORE PUSH1 0x40 DUP2 KECCAK256 PUSH2 0xE11 PUSH2 0x4E13 JUMP JUMPDEST PUSH1 0x0 GAS PUSH2 0x1888 PUSH2 0x4EDB JUMP JUMPDEST SWAP1 POP SWAP1 JUMP JUMPDEST PUSH1 0xC PUSH2 0x139B PUSH2 0x4E13 JUMP JUMPDEST PUSH1 0x0 PUSH2 0x18A5 GAS PUSH2 0x1008 PUSH2 0x4E4B JUMP JUMPDEST PUSH2 0x18E4 JUMPI PUSH1 0x40 DUP1 MLOAD PUSH3 0x461BCD PUSH1 0xE5 SHL DUP2 MSTORE PUSH1 0x20 PUSH1 0x4 DUP3 ADD MSTORE PUSH1 0x14 PUSH1 0x24 DUP3 ADD MSTORE PUSH1 0x0 DUP1 MLOAD PUSH1 0x20 PUSH2 0x50BF DUP4 CODECOPY DUP2 MLOAD SWAP2 MSTORE PUSH1 0x44 DUP3 ADD MSTORE SWAP1 MLOAD SWAP1 DUP2 SWAP1 SUB PUSH1 0x64 ADD SWAP1 REVERT JUMPDEST DUP2 DUP1 PUSH1 0x4 PUSH2 0x18F0 PUSH2 0x4E6F JUMP JUMPDEST POP PUSH1 0x1 SWAP5 SWAP4 POP POP POP POP JUMP JUMPDEST PUSH1 0x0 DUP2 DUP2 MSTORE PUSH1 0xA PUSH1 0x20 MSTORE PUSH1 0x40 DUP2 KECCAK256 PUSH2 0xE11 PUSH2 0x4E13 JUMP JUMPDEST PUSH1 0x14 PUSH1 0x5 PUSH2 0x191D PUSH2 0x4E13 JUMP JUMPDEST SWAP1 PUSH2 0x100 EXP SWAP1 DIV PUSH1 0x1 PUSH1 0x1 PUSH1 0x40 SHL SUB AND DUP2 JUMP JUMPDEST PUSH1 0x8 PUSH1 0x20 SWAP1 DUP2 MSTORE PUSH1 0x0 SWAP3 DUP4 MSTORE PUSH1 0x40 DUP1 DUP5 KECCAK256 SWAP1 SWAP2 MSTORE SWAP1 DUP3 MSTORE SWAP1 KECCAK256 PUSH2 0x139B PUSH2 0x4E13 JUMP JUMPDEST PUSH1 0x0 PUSH1 0xD PUSH2 0x10AD PUSH2 0x4E13 JUMP JUMPDEST PUSH1 0x7 PUSH1 0x20 SWAP1 DUP2 MSTORE PUSH1 0x0 SWAP3 DUP4 MSTORE PUSH1 0x40 DUP1 DUP5 KECCAK256 SWAP1 SWAP2 MSTORE SWAP1 DUP3 MSTORE SWAP1 KECCAK256 PUSH2 0x139B PUSH2 0x4E13 JUMP JUMPDEST PUSH1 0x1C PUSH1 0x5 PUSH2 0xDD2 PUSH2 0x4E13 JUMP JUMPDEST DUP1 PUSH2 0x1994 DUP2 PUSH2 0x1DAB JUMP JUMPDEST PUSH2 0x199D JUMPI PUSH1 0x0 DUP1 REVERT JUMPDEST PUSH2 0x19A5 PUSH2 0x2344 JUMP JUMPDEST ISZERO PUSH2 0x19AF JUMPI PUSH1 0x0 DUP1 REVERT JUMPDEST PUSH1 0x0 DUP3 DUP2 MSTORE PUSH1 0x2 PUSH1 0x20 MSTORE PUSH1 0x40 DUP2 KECCAK256 DUP4 SWAP2 SWAP1 PUSH1 0x4 ADD PUSH2 0x19CB PUSH2 0x4E13 JUMP JUMPDEST SWAP1 PUSH2 0x100 EXP SWAP1 DIV PUSH1 0x1 PUSH1 0x1 PUSH1 0xA0 SHL SUB AND PUSH1 0x1 PUSH1 0x1 PUSH1 0xA0 SHL SUB AND PUSH1 0x2 PUSH1 0x0 DUP4 DUP2 MSTORE PUSH1 0x20 ADD SWAP1 DUP2 MSTORE PUSH1 0x20 ADD PUSH1 0x0 KECCAK256 PUSH1 0x1 ADD PUSH1 0x0 SWAP1 PUSH2 0x1A05 PUSH2 0x4E13 JUMP JUMPDEST SWAP1 PUSH2 0x100 EXP SWAP1 DIV PUSH1 0x1 PUSH1 0x1 PUSH1 0xA0 SHL SUB AND PUSH1 0x2 PUSH1 0x0 DUP5 DUP2 MSTORE PUSH1 0x20 ADD SWAP1 DUP2 MSTORE PUSH1 0x20 ADD PUSH1 0x0 KECCAK256 PUSH1 0x3 ADD PUSH1 0x0 SWAP1 PUSH2 0x1A36 PUSH2 0x4E13 JUMP JUMPDEST SWAP1 PUSH2 0x100 EXP SWAP1 DIV PUSH1 0x1 PUSH1 0x1 PUSH1 0xA0 SHL SUB AND PUSH1 0x40 MLOAD PUSH1 0x20 ADD DUP1 DUP4 PUSH1 0x1 PUSH1 0x1 PUSH1 0xA0 SHL SUB AND PUSH1 0x1 PUSH1 0x1 PUSH1 0xA0 SHL SUB AND PUSH1 0x60 SHL DUP2 MSTORE PUSH1 0x14 ADD DUP3 PUSH1 0x1 PUSH1 0x1 PUSH1 0xA0 SHL SUB AND PUSH1 0x1 PUSH1 0x1 PUSH1 0xA0 SHL SUB AND PUSH1 0x60 SHL DUP2 MSTORE PUSH1 0x14 ADD SWAP3 POP POP POP PUSH1 0x40 MLOAD PUSH1 0x20 DUP2 DUP4 SUB SUB DUP2 MSTORE SWAP1 PUSH1 0x40 MSTORE DUP1 MLOAD SWAP1 PUSH1 0x20 ADD KECCAK256 DUP5 PUSH32 0x70A14C213064359EDE031FD2A1645A11CE2EC825FFE6AB5CFB5B160C3EF4D0A2 PUSH1 0x2 PUSH1 0x0 DUP7 DUP2 MSTORE PUSH1 0x20 ADD SWAP1 DUP2 MSTORE PUSH1 0x20 ADD PUSH1 0x0 KECCAK256 PUSH1 0x1 ADD PUSH1 0x0 SWAP1 PUSH2 0x1AE0 PUSH2 0x4E13 JUMP JUMPDEST SWAP1 PUSH2 0x100 EXP SWAP1 DIV PUSH1 0x1 PUSH1 0x1 PUSH1 0xA0 SHL SUB AND PUSH1 0x2 PUSH1 0x0 DUP8 DUP2 MSTORE PUSH1 0x20 ADD SWAP1 DUP2 MSTORE PUSH1 0x20 ADD PUSH1 0x0 KECCAK256 PUSH1 0x3 ADD PUSH1 0x0 SWAP1 PUSH2 0x1B11 PUSH2 0x4E13 JUMP JUMPDEST SWAP1 PUSH2 0x100 EXP SWAP1 DIV PUSH1 0x1 PUSH1 0x1 PUSH1 0xA0 SHL SUB AND PUSH1 0x2 PUSH1 0x0 DUP9 DUP2 MSTORE PUSH1 0x20 ADD SWAP1 DUP2 MSTORE PUSH1 0x20 ADD PUSH1 0x0 KECCAK256 PUSH1 0x0 ADD PUSH2 0x1B3F PUSH2 0x4E13 JUMP JUMPDEST PUSH1 0x0 DUP9 DUP2 MSTORE PUSH1 0x2 PUSH1 0x20 DUP2 SWAP1 MSTORE PUSH1 0x40 SWAP1 SWAP2 KECCAK256 ADD PUSH2 0x1B59 PUSH2 0x4E13 JUMP JUMPDEST PUSH1 0x0 DUP10 DUP2 MSTORE PUSH1 0x2 PUSH1 0x20 MSTORE PUSH1 0x40 SWAP1 KECCAK256 PUSH1 0x14 SWAP1 PUSH1 0x4 ADD PUSH2 0x1B75 PUSH2 0x4E13 JUMP JUMPDEST PUSH1 0x40 DUP1 MLOAD PUSH1 0x1 PUSH1 0x1 PUSH1 0xA0 SHL SUB SWAP8 DUP9 AND DUP2 MSTORE SWAP6 SWAP1 SWAP7 AND PUSH1 0x20 DUP7 ADD MSTORE PUSH1 0x1 PUSH1 0x1 PUSH1 0x80 SHL SUB SWAP4 DUP5 AND DUP6 DUP8 ADD MSTORE SWAP2 SWAP1 SWAP3 AND PUSH1 0x60 DUP5 ADD MSTORE PUSH1 0x1 PUSH1 0x1 PUSH1 0x40 SHL SUB PUSH2 0x100 SWAP3 SWAP1 SWAP3 EXP SWAP1 DIV AND PUSH1 0x80 DUP3 ADD MSTORE SWAP1 MLOAD SWAP1 DUP2 SWAP1 SUB PUSH1 0xA0 ADD SWAP1 LOG4 POP POP POP JUMP JUMPDEST PUSH1 0x1 PUSH1 0x1 PUSH1 0xA0 SHL SUB DUP1 DUP4 AND PUSH1 0x0 SWAP1 DUP2 MSTORE PUSH1 0x8 PUSH1 0x20 SWAP1 DUP2 MSTORE PUSH1 0x40 DUP1 DUP4 KECCAK256 SWAP4 DUP6 AND DUP4 MSTORE SWAP3 SWAP1 MSTORE SWAP1 DUP2 KECCAK256 PUSH2 0xE0E PUSH2 0x4E13 JUMP JUMPDEST PUSH1 0x0 DUP1 PUSH1 0x3 PUSH2 0x1C0A PUSH2 0x4E13 JUMP JUMPDEST SWAP1 PUSH2 0x100 EXP SWAP1 DIV PUSH1 0xFF AND ISZERO PUSH2 0x1C54 JUMPI PUSH1 0x40 DUP1 MLOAD PUSH3 0x461BCD PUSH1 0xE5 SHL DUP2 MSTORE PUSH1 0x20 PUSH1 0x4 DUP3 ADD MSTORE PUSH1 0x12 PUSH1 0x24 DUP3 ADD MSTORE PUSH1 0x0 DUP1 MLOAD PUSH1 0x20 PUSH2 0x4FCB DUP4 CODECOPY DUP2 MLOAD SWAP2 MSTORE PUSH1 0x44 DUP3 ADD MSTORE SWAP1 MLOAD SWAP1 DUP2 SWAP1 SUB PUSH1 0x64 ADD SWAP1 REVERT JUMPDEST PUSH1 0x0 JUMPDEST DUP5 ISZERO PUSH2 0x1D9E JUMPI PUSH2 0x1C67 DUP7 DUP6 PUSH2 0xDDF JUMP JUMPDEST SWAP1 POP DUP1 PUSH2 0x1C73 JUMPI PUSH1 0x0 DUP1 REVERT JUMPDEST PUSH1 0x0 DUP2 DUP2 MSTORE PUSH1 0x2 PUSH1 0x20 MSTORE PUSH1 0x40 SWAP1 KECCAK256 PUSH2 0x1CA7 SWAP1 PUSH2 0x1C8D PUSH2 0x4E13 JUMP JUMPDEST PUSH1 0x0 DUP4 DUP2 MSTORE PUSH1 0x2 PUSH1 0x20 DUP2 SWAP1 MSTORE PUSH1 0x40 SWAP1 SWAP2 KECCAK256 ADD PUSH2 0xEC1 PUSH2 0x4E13 JUMP JUMPDEST DUP6 PUSH8 0xDE0B6B3A7640000 MUL LT ISZERO PUSH2 0x1CBD JUMPI PUSH2 0x1D9E JUMP JUMPDEST PUSH1 0x0 DUP2 DUP2 MSTORE PUSH1 0x2 PUSH1 0x20 MSTORE PUSH1 0x40 SWAP1 KECCAK256 PUSH2 0x1CD3 PUSH2 0x4E13 JUMP JUMPDEST DUP6 LT PUSH2 0x1D3E JUMPI PUSH2 0x1CFB DUP3 PUSH1 0x2 PUSH1 0x0 DUP5 DUP2 MSTORE PUSH1 0x20 ADD SWAP1 DUP2 MSTORE PUSH1 0x20 ADD PUSH1 0x0 KECCAK256 PUSH1 0x2 ADD PUSH2 0xF18 PUSH2 0x4E13 JUMP JUMPDEST PUSH1 0x0 DUP3 DUP2 MSTORE PUSH1 0x2 PUSH1 0x20 MSTORE PUSH1 0x40 SWAP1 KECCAK256 SWAP1 SWAP3 POP PUSH2 0x1D1A SWAP1 DUP7 SWAP1 PUSH2 0xF41 PUSH2 0x4E13 JUMP JUMPDEST PUSH1 0x0 DUP3 DUP2 MSTORE PUSH1 0x2 PUSH1 0x20 MSTORE PUSH1 0x40 SWAP1 KECCAK256 SWAP1 SWAP6 POP PUSH2 0x1D39 SWAP1 DUP3 SWAP1 PUSH2 0xF65 PUSH2 0x4E13 JUMP JUMPDEST PUSH2 0x1D99 JUMP JUMPDEST PUSH2 0x1D88 DUP3 PUSH4 0x3B9ACA00 PUSH2 0x1273 DUP9 PUSH4 0x3B9ACA00 MUL PUSH2 0xFB6 PUSH1 0x2 PUSH1 0x0 DUP9 DUP2 MSTORE PUSH1 0x20 ADD SWAP1 DUP2 MSTORE PUSH1 0x20 ADD PUSH1 0x0 KECCAK256 PUSH1 0x2 ADD PUSH2 0x1D72 PUSH2 0x4E13 JUMP JUMPDEST PUSH1 0x0 DUP9 DUP2 MSTORE PUSH1 0x2 PUSH1 0x20 MSTORE PUSH1 0x40 SWAP1 KECCAK256 PUSH2 0xFB1 PUSH2 0x4E13 JUMP JUMPDEST SWAP2 POP PUSH2 0x1D94 DUP2 DUP7 PUSH2 0x183D JUMP JUMPDEST PUSH1 0x0 SWAP5 POP JUMPDEST PUSH2 0x1C57 JUMP JUMPDEST DUP3 DUP3 GT ISZERO PUSH2 0xFF3 JUMPI PUSH1 0x0 DUP1 REVERT JUMPDEST PUSH1 0x0 DUP2 DUP2 MSTORE PUSH1 0x2 PUSH1 0x20 MSTORE PUSH1 0x40 DUP2 KECCAK256 DUP2 SWAP1 PUSH1 0x14 SWAP1 PUSH1 0x4 ADD PUSH2 0x1DC9 PUSH2 0x4E13 JUMP JUMPDEST PUSH1 0x1 PUSH1 0x1 PUSH1 0x40 SHL SUB PUSH2 0x100 SWAP3 SWAP1 SWAP3 EXP SWAP1 DIV AND GT SWAP3 SWAP2 POP POP JUMP JUMPDEST PUSH1 0x2 PUSH1 0x20 MSTORE PUSH1 0x0 SWAP1 DUP2 MSTORE PUSH1 0x40 SWAP1 KECCAK256 DUP1 PUSH2 0x1DF9 PUSH2 0x4E13 JUMP JUMPDEST SWAP1 PUSH1 0x0 PUSH1 0x1 DUP3 ADD PUSH2 0x1E08 PUSH2 0x4E13 JUMP JUMPDEST SWAP1 PUSH2 0x100 EXP SWAP1 DIV PUSH1 0x1 PUSH1 0x1 PUSH1 0xA0 SHL SUB AND SWAP1 DUP1 PUSH1 0x2 ADD PUSH2 0x1E25 PUSH2 0x4E13 JUMP JUMPDEST SWAP1 PUSH1 0x0 PUSH1 0x3 DUP3 ADD PUSH2 0x1E34 PUSH2 0x4E13 JUMP JUMPDEST SWAP1 PUSH2 0x100 EXP SWAP1 DIV PUSH1 0x1 PUSH1 0x1 PUSH1 0xA0 SHL SUB AND SWAP1 DUP1 PUSH1 0x4 ADD PUSH1 0x0 SWAP1 PUSH2 0x1E54 PUSH2 0x4E13 JUMP JUMPDEST SWAP1 PUSH2 0x100 EXP SWAP1 DIV PUSH1 0x1 PUSH1 0x1 PUSH1 0xA0 SHL SUB AND SWAP1 DUP1 PUSH1 0x4 ADD PUSH1 0x14 SWAP1 PUSH2 0x1E74 PUSH2 0x4E13 JUMP JUMPDEST SWAP1 PUSH2 0x100 EXP SWAP1 DIV PUSH1 0x1 PUSH1 0x1 PUSH1 0x40 SHL SUB AND SWAP1 POP DUP7 JUMP JUMPDEST PUSH1 0x0 PUSH1 0xB PUSH2 0x1888 PUSH2 0x4E13 JUMP JUMPDEST PUSH1 0x0 DUP1 PUSH2 0x10AD PUSH2 0x4E13 JUMP JUMPDEST PUSH1 0x0 DUP2 DUP2 MSTORE PUSH1 0x6 PUSH1 0x20 MSTORE PUSH1 0x40 DUP2 KECCAK256 PUSH2 0xE11 PUSH2 0x4E13 JUMP JUMPDEST PUSH1 0x9 PUSH1 0x20 MSTORE PUSH1 0x0 SWAP1 DUP2 MSTORE PUSH1 0x40 SWAP1 KECCAK256 PUSH2 0x139B PUSH2 0x4E13 JUMP JUMPDEST PUSH1 0x0 DUP2 DUP2 MSTORE PUSH1 0x6 PUSH1 0x20 MSTORE PUSH1 0x40 DUP2 KECCAK256 PUSH1 0x1 ADD PUSH2 0xE11 PUSH2 0x4E13 JUMP JUMPDEST PUSH1 0x0 PUSH2 0x1EF3 GAS PUSH2 0x1008 PUSH2 0x4E4B JUMP JUMPDEST PUSH2 0x1F32 JUMPI PUSH1 0x40 DUP1 MLOAD PUSH3 0x461BCD PUSH1 0xE5 SHL DUP2 MSTORE PUSH1 0x20 PUSH1 0x4 DUP3 ADD MSTORE PUSH1 0x14 PUSH1 0x24 DUP3 ADD MSTORE PUSH1 0x0 DUP1 MLOAD PUSH1 0x20 PUSH2 0x50BF DUP4 CODECOPY DUP2 MLOAD SWAP2 MSTORE PUSH1 0x44 DUP3 ADD MSTORE SWAP1 MLOAD SWAP1 DUP2 SWAP1 SUB PUSH1 0x64 ADD SWAP1 REVERT JUMPDEST DUP2 PUSH1 0xD PUSH1 0x1 PUSH1 0xA0 SHL DUP2 PUSH2 0x1F43 PUSH2 0x4E13 JUMP JUMPDEST DUP2 PUSH1 0xFF MUL NOT AND SWAP1 DUP4 ISZERO ISZERO MUL OR SWAP1 PUSH2 0x18F0 PUSH2 0x4E6F JUMP JUMPDEST PUSH1 0xA PUSH1 0x20 MSTORE PUSH1 0x0 SWAP1 DUP2 MSTORE PUSH1 0x40 SWAP1 KECCAK256 PUSH2 0x139B PUSH2 0x4E13 JUMP JUMPDEST PUSH2 0x1F77 DUP2 PUSH2 0x147A JUMP JUMPDEST PUSH2 0x1F80 JUMPI PUSH1 0x0 DUP1 REVERT JUMPDEST POP JUMP JUMPDEST PUSH1 0x0 DUP1 PUSH1 0x3 PUSH2 0x1F90 PUSH2 0x4E13 JUMP JUMPDEST SWAP1 PUSH2 0x100 EXP SWAP1 DIV PUSH1 0xFF AND ISZERO PUSH2 0x1FDA JUMPI PUSH1 0x40 DUP1 MLOAD PUSH3 0x461BCD PUSH1 0xE5 SHL DUP2 MSTORE PUSH1 0x20 PUSH1 0x4 DUP3 ADD MSTORE PUSH1 0x12 PUSH1 0x24 DUP3 ADD MSTORE PUSH1 0x0 DUP1 MLOAD PUSH1 0x20 PUSH2 0x4FCB DUP4 CODECOPY DUP2 MLOAD SWAP2 MSTORE PUSH1 0x44 DUP3 ADD MSTORE SWAP1 MLOAD SWAP1 DUP2 SWAP1 SUB PUSH1 0x64 ADD SWAP1 REVERT JUMPDEST PUSH1 0x0 PUSH1 0xE PUSH2 0x1FE6 PUSH2 0x4E13 JUMP JUMPDEST SWAP1 PUSH2 0x100 EXP SWAP1 DIV PUSH1 0x1 PUSH1 0x1 PUSH1 0xA0 SHL SUB AND PUSH1 0x1 PUSH1 0x1 PUSH1 0xA0 SHL SUB AND PUSH4 0xD0E30DB0 CALLVALUE PUSH1 0x40 MLOAD DUP3 PUSH4 0xFFFFFFFF AND PUSH1 0xE0 SHL DUP2 MSTORE PUSH1 0x4 ADD PUSH1 0x0 PUSH1 0x40 MLOAD DUP1 DUP4 SUB DUP2 DUP6 DUP9 DUP1 PUSH2 0x202B PUSH2 0x4EFF JUMP JUMPDEST ISZERO DUP1 ISZERO PUSH2 0x2037 JUMPI PUSH1 0x0 DUP1 REVERT JUMPDEST POP GAS PUSH2 0x2041 PUSH2 0x4F30 JUMP JUMPDEST POP POP POP POP POP POP ISZERO DUP1 ISZERO PUSH2 0x2058 JUMPI RETURNDATASIZE PUSH1 0x0 DUP1 RETURNDATACOPY RETURNDATASIZE PUSH1 0x0 REVERT JUMPDEST POP POP POP POP POP PUSH1 0xE PUSH1 0x0 SWAP1 PUSH2 0x206A PUSH2 0x4E13 JUMP JUMPDEST SWAP1 PUSH2 0x100 EXP SWAP1 DIV PUSH1 0x1 PUSH1 0x1 PUSH1 0xA0 SHL SUB AND PUSH1 0x1 PUSH1 0x1 PUSH1 0xA0 SHL SUB AND PUSH4 0xA9059CBB GAS PUSH2 0x2091 PUSH2 0x4E4B JUMP JUMPDEST CALLVALUE PUSH1 0x40 MLOAD DUP4 PUSH4 0xFFFFFFFF AND PUSH1 0xE0 SHL DUP2 MSTORE PUSH1 0x4 ADD DUP1 DUP4 PUSH1 0x1 PUSH1 0x1 PUSH1 0xA0 SHL SUB AND PUSH1 0x1 PUSH1 0x1 PUSH1 0xA0 SHL SUB AND DUP2 MSTORE PUSH1 0x20 ADD DUP3 DUP2 MSTORE PUSH1 0x20 ADD SWAP3 POP POP POP PUSH1 0x20 PUSH1 0x40 MLOAD DUP1 DUP4 SUB DUP2 PUSH1 0x0 DUP8 DUP1 PUSH2 0x20DC PUSH2 0x4EFF JUMP JUMPDEST ISZERO DUP1 ISZERO PUSH2 0x20E8 JUMPI PUSH1 0x0 DUP1 REVERT JUMPDEST POP GAS PUSH2 0x20F2 PUSH2 0x4F30 JUMP JUMPDEST POP POP POP POP POP POP ISZERO DUP1 ISZERO PUSH2 0x2109 JUMPI RETURNDATASIZE PUSH1 0x0 DUP1 RETURNDATACOPY RETURNDATASIZE PUSH1 0x0 REVERT JUMPDEST POP POP POP POP PUSH1 0x40 MLOAD RETURNDATASIZE PUSH1 0x20 DUP2 LT ISZERO PUSH2 0x211F JUMPI PUSH1 0x0 DUP1 REVERT JUMPDEST POP PUSH1 0x0 SWAP1 POP DUP1 PUSH1 0xE PUSH2 0x212F PUSH2 0x4E13 JUMP JUMPDEST SWAP1 PUSH2 0x100 EXP SWAP1 DIV PUSH1 0x1 PUSH1 0x1 PUSH1 0xA0 SHL SUB AND SWAP1 POP PUSH1 0x5 PUSH1 0x1E SWAP1 PUSH2 0x214E PUSH2 0x4E13 JUMP JUMPDEST SWAP1 PUSH2 0x100 EXP SWAP1 DIV PUSH1 0xFF AND ISZERO PUSH2 0x2175 JUMPI PUSH2 0x216D CALLVALUE DUP3 DUP7 DUP7 PUSH1 0x0 PUSH1 0x1 PUSH2 0x39AC JUMP JUMPDEST SWAP2 POP POP PUSH2 0xE11 JUMP JUMPDEST PUSH2 0x2181 CALLVALUE DUP3 DUP7 DUP7 PUSH2 0x3B3F JUMP JUMPDEST SWAP5 SWAP4 POP POP POP POP JUMP JUMPDEST PUSH1 0x0 PUSH2 0x2197 GAS PUSH2 0x1008 PUSH2 0x4E4B JUMP JUMPDEST PUSH2 0x21D6 JUMPI PUSH1 0x40 DUP1 MLOAD PUSH3 0x461BCD PUSH1 0xE5 SHL DUP2 MSTORE PUSH1 0x20 PUSH1 0x4 DUP3 ADD MSTORE PUSH1 0x14 PUSH1 0x24 DUP3 ADD MSTORE PUSH1 0x0 DUP1 MLOAD PUSH1 0x20 PUSH2 0x50BF DUP4 CODECOPY DUP2 MLOAD SWAP2 MSTORE PUSH1 0x44 DUP3 ADD MSTORE SWAP1 MLOAD SWAP1 DUP2 SWAP1 SUB PUSH1 0x64 ADD SWAP1 REVERT JUMPDEST DUP2 PUSH1 0xD PUSH1 0x1 DUP2 PUSH2 0x21E4 PUSH2 0x4E13 JUMP JUMPDEST DUP2 PUSH1 0x1 PUSH1 0x1 PUSH1 0xA0 SHL SUB MUL NOT AND SWAP1 DUP4 PUSH1 0x1 PUSH1 0x1 PUSH1 0xA0 SHL SUB AND MUL OR SWAP1 PUSH2 0x18F0 PUSH2 0x4E6F JUMP JUMPDEST PUSH1 0x0 PUSH2 0x2214 GAS PUSH2 0x1008 PUSH2 0x4E4B JUMP JUMPDEST PUSH2 0x2253 JUMPI PUSH1 0x40 DUP1 MLOAD PUSH3 0x461BCD PUSH1 0xE5 SHL DUP2 MSTORE PUSH1 0x20 PUSH1 0x4 DUP3 ADD MSTORE PUSH1 0x14 PUSH1 0x24 DUP3 ADD MSTORE PUSH1 0x0 DUP1 MLOAD PUSH1 0x20 PUSH2 0x50BF DUP4 CODECOPY DUP2 MLOAD SWAP2 MSTORE PUSH1 0x44 DUP3 ADD MSTORE SWAP1 MLOAD SWAP1 DUP2 SWAP1 SUB PUSH1 0x64 ADD SWAP1 REVERT JUMPDEST PUSH1 0x4 CALLDATALOAD PUSH1 0x24 CALLDATALOAD CALLVALUE DUP2 DUP4 GAS PUSH2 0x2265 PUSH2 0x4E4B JUMP JUMPDEST PUSH1 0x1 PUSH1 0x1 PUSH1 0xA0 SHL SUB AND PUSH1 0x0 CALLDATALOAD PUSH1 0x1 PUSH1 0x1 PUSH1 0xE0 SHL SUB NOT AND PUSH1 0x1 PUSH1 0x1 PUSH1 0xE0 SHL SUB NOT AND DUP5 PUSH1 0x0 CALLDATASIZE PUSH1 0x40 MLOAD DUP1 DUP5 DUP2 MSTORE PUSH1 0x20 ADD DUP1 PUSH1 0x20 ADD DUP3 DUP2 SUB DUP3 MSTORE DUP5 DUP5 DUP3 DUP2 DUP2 MSTORE PUSH1 0x20 ADD SWAP3 POP DUP1 DUP3 DUP5 CALLDATACOPY PUSH1 0x0 DUP4 DUP3 ADD MSTORE PUSH1 0x40 MLOAD PUSH1 0x1F SWAP1 SWAP2 ADD PUSH1 0x1F NOT AND SWAP1 SWAP3 ADD DUP3 SWAP1 SUB SWAP7 POP SWAP1 SWAP5 POP POP POP POP POP LOG4 PUSH1 0x1 PUSH1 0x1 PUSH1 0xA0 SHL SUB DUP7 AND PUSH1 0x0 SWAP1 DUP2 MSTORE PUSH1 0x9 PUSH1 0x20 MSTORE PUSH1 0x40 SWAP1 KECCAK256 DUP6 SWAP1 DUP2 SWAP1 PUSH2 0x22F1 PUSH2 0x4E6F JUMP JUMPDEST POP POP PUSH1 0x40 DUP1 MLOAD PUSH1 0x1 PUSH1 0x1 PUSH1 0xA0 SHL SUB DUP10 AND DUP2 MSTORE PUSH1 0x20 DUP2 ADD DUP9 SWAP1 MSTORE DUP2 MLOAD PUSH32 0xC28D56449B0BB31E64EE7487E061F57A2E72AEA8019D810832F26DDA099823D0 SWAP4 POP SWAP1 DUP2 SWAP1 SUB SWAP1 SWAP2 ADD SWAP1 LOG1 POP PUSH1 0x1 SWAP6 SWAP5 POP POP POP POP POP JUMP JUMPDEST PUSH1 0x0 PUSH1 0x1C PUSH1 0x5 PUSH2 0x2352 PUSH2 0x4E13 JUMP JUMPDEST SWAP1 PUSH2 0x100 EXP SWAP1 DIV PUSH1 0xFF AND DUP1 PUSH2 0x1888 JUMPI POP PUSH1 0x14 PUSH1 0x5 PUSH2 0x236E PUSH2 0x4E13 JUMP JUMPDEST SWAP1 PUSH2 0x100 EXP SWAP1 DIV PUSH1 0x1 PUSH1 0x1 PUSH1 0x40 SHL SUB AND PUSH1 0x1 PUSH1 0x1 PUSH1 0x40 SHL SUB AND PUSH2 0x238F PUSH2 0x187D JUMP JUMPDEST PUSH1 0x1 PUSH1 0x1 PUSH1 0x40 SHL SUB AND GT SWAP1 POP SWAP1 JUMP JUMPDEST PUSH1 0x6 PUSH1 0x20 MSTORE PUSH1 0x0 SWAP1 DUP2 MSTORE PUSH1 0x40 SWAP1 KECCAK256 DUP1 PUSH2 0x23B5 PUSH2 0x4E13 JUMP JUMPDEST SWAP1 DUP1 PUSH1 0x1 ADD PUSH2 0x23C2 PUSH2 0x4E13 JUMP JUMPDEST SWAP1 DUP1 PUSH1 0x2 ADD PUSH2 0x23CF PUSH2 0x4E13 JUMP JUMPDEST SWAP1 POP DUP4 JUMP JUMPDEST PUSH1 0x0 DUP2 DUP2 MSTORE PUSH1 0x2 PUSH1 0x20 MSTORE PUSH1 0x40 DUP2 KECCAK256 DUP2 SWAP1 PUSH1 0x4 ADD PUSH2 0x23EF PUSH2 0x4E13 JUMP JUMPDEST SWAP1 PUSH2 0x100 EXP SWAP1 DIV PUSH1 0x1 PUSH1 0x1 PUSH1 0xA0 SHL SUB AND SWAP1 POP SWAP2 SWAP1 POP JUMP JUMPDEST PUSH1 0x0 DUP2 DUP2 MSTORE PUSH1 0x6 PUSH1 0x20 MSTORE PUSH1 0x40 DUP2 KECCAK256 PUSH2 0x241C PUSH2 0x4E13 JUMP JUMPDEST ISZERO ISZERO DUP1 PUSH2 0x2440 JUMPI POP PUSH1 0x0 DUP3 DUP2 MSTORE PUSH1 0x6 PUSH1 0x20 MSTORE PUSH1 0x40 SWAP1 KECCAK256 PUSH1 0x1 ADD PUSH2 0x243D PUSH2 0x4E13 JUMP JUMPDEST ISZERO ISZERO JUMPDEST DUP1 PUSH2 0xE11 JUMPI POP PUSH1 0x0 DUP3 DUP2 MSTORE PUSH1 0x2 PUSH1 0x20 MSTORE PUSH1 0x40 DUP2 KECCAK256 DUP4 SWAP2 PUSH1 0x7 SWAP2 DUP2 SWAP1 PUSH1 0x1 ADD PUSH2 0x2466 PUSH2 0x4E13 JUMP JUMPDEST SWAP1 PUSH2 0x100 EXP SWAP1 DIV PUSH1 0x1 PUSH1 0x1 PUSH1 0xA0 SHL SUB AND PUSH1 0x1 PUSH1 0x1 PUSH1 0xA0 SHL SUB AND PUSH1 0x1 PUSH1 0x1 PUSH1 0xA0 SHL SUB AND DUP2 MSTORE PUSH1 0x20 ADD SWAP1 DUP2 MSTORE PUSH1 0x20 ADD PUSH1 0x0 KECCAK256 PUSH1 0x0 PUSH1 0x2 PUSH1 0x0 DUP7 DUP2 MSTORE PUSH1 0x20 ADD SWAP1 DUP2 MSTORE PUSH1 0x20 ADD PUSH1 0x0 KECCAK256 PUSH1 0x3 ADD PUSH1 0x0 SWAP1 PUSH2 0x24B9 PUSH2 0x4E13 JUMP JUMPDEST SWAP1 PUSH2 0x100 EXP SWAP1 DIV PUSH1 0x1 PUSH1 0x1 PUSH1 0xA0 SHL SUB AND PUSH1 0x1 PUSH1 0x1 PUSH1 0xA0 SHL SUB AND PUSH1 0x1 PUSH1 0x1 PUSH1 0xA0 SHL SUB AND DUP2 MSTORE PUSH1 0x20 ADD SWAP1 DUP2 MSTORE PUSH1 0x20 ADD PUSH1 0x0 KECCAK256 PUSH2 0x24F1 PUSH2 0x4E13 JUMP JUMPDEST EQ SWAP3 SWAP2 POP POP JUMP JUMPDEST PUSH1 0x0 PUSH2 0x2506 GAS PUSH2 0x1008 PUSH2 0x4E4B JUMP JUMPDEST PUSH2 0x2545 JUMPI PUSH1 0x40 DUP1 MLOAD PUSH3 0x461BCD PUSH1 0xE5 SHL DUP2 MSTORE PUSH1 0x20 PUSH1 0x4 DUP3 ADD MSTORE PUSH1 0x14 PUSH1 0x24 DUP3 ADD MSTORE PUSH1 0x0 DUP1 MLOAD PUSH1 0x20 PUSH2 0x50BF DUP4 CODECOPY DUP2 MLOAD SWAP2 MSTORE PUSH1 0x44 DUP3 ADD MSTORE SWAP1 MLOAD SWAP1 DUP2 SWAP1 SUB PUSH1 0x64 ADD SWAP1 REVERT JUMPDEST DUP2 PUSH1 0x5 PUSH1 0x1 PUSH1 0xE8 SHL DUP2 PUSH2 0x2556 PUSH2 0x4E13 JUMP JUMPDEST DUP2 PUSH1 0xFF MUL NOT AND SWAP1 DUP4 ISZERO ISZERO MUL OR SWAP1 PUSH2 0x256B PUSH2 0x4E6F JUMP JUMPDEST POP POP POP PUSH32 0x7089E4F0BCC948F9F723A361590C32D9C2284DA7AB1981B1249AD2EDB9F953C1 PUSH1 0x5 PUSH1 0x1D SWAP1 PUSH2 0x1442 PUSH2 0x4E13 JUMP JUMPDEST PUSH1 0x0 DUP3 PUSH2 0x25A8 DUP2 PUSH2 0x1DAB JUMP JUMPDEST PUSH2 0x25B1 JUMPI PUSH1 0x0 DUP1 REVERT JUMPDEST PUSH2 0x25B9 PUSH2 0x2344 JUMP JUMPDEST ISZERO PUSH2 0x25C3 JUMPI PUSH1 0x0 DUP1 REVERT JUMPDEST PUSH1 0x0 PUSH1 0x3 PUSH2 0x25CF PUSH2 0x4E13 JUMP JUMPDEST SWAP1 PUSH2 0x100 EXP SWAP1 DIV PUSH1 0xFF AND ISZERO PUSH2 0x2619 JUMPI PUSH1 0x40 DUP1 MLOAD PUSH3 0x461BCD PUSH1 0xE5 SHL DUP2 MSTORE PUSH1 0x20 PUSH1 0x4 DUP3 ADD MSTORE PUSH1 0x12 PUSH1 0x24 DUP3 ADD MSTORE PUSH1 0x0 DUP1 MLOAD PUSH1 0x20 PUSH2 0x4FCB DUP4 CODECOPY DUP2 MLOAD SWAP2 MSTORE PUSH1 0x44 DUP3 ADD MSTORE SWAP1 MLOAD SWAP1 DUP2 SWAP1 SUB PUSH1 0x64 ADD SWAP1 REVERT JUMPDEST PUSH1 0x14 PUSH1 0xD PUSH2 0x2625 PUSH2 0x4E13 JUMP JUMPDEST SWAP1 PUSH2 0x100 EXP SWAP1 DIV PUSH1 0xFF AND ISZERO PUSH2 0x2712 JUMPI PUSH1 0x0 PUSH1 0xD PUSH2 0x2640 PUSH2 0x4E13 JUMP JUMPDEST SWAP1 PUSH2 0x100 EXP SWAP1 DIV PUSH1 0x1 PUSH1 0x1 PUSH1 0xA0 SHL SUB AND PUSH1 0x1 PUSH1 0x1 PUSH1 0xA0 SHL SUB AND PUSH4 0xB30ED7B3 PUSH2 0x2667 DUP7 PUSH2 0x23D4 JUMP JUMPDEST GAS PUSH2 0x2670 PUSH2 0x4E4B JUMP JUMPDEST PUSH1 0x40 MLOAD DUP4 PUSH4 0xFFFFFFFF AND PUSH1 0xE0 SHL DUP2 MSTORE PUSH1 0x4 ADD DUP1 DUP4 PUSH1 0x1 PUSH1 0x1 PUSH1 0xA0 SHL SUB AND PUSH1 0x1 PUSH1 0x1 PUSH1 0xA0 SHL SUB AND DUP2 MSTORE PUSH1 0x20 ADD DUP3 PUSH1 0x1 PUSH1 0x1 PUSH1 0xA0 SHL SUB AND PUSH1 0x1 PUSH1 0x1 PUSH1 0xA0 SHL SUB AND DUP2 MSTORE PUSH1 0x20 ADD SWAP3 POP POP POP PUSH1 0x20 PUSH1 0x40 MLOAD DUP1 DUP4 SUB DUP2 PUSH1 0x0 DUP8 DUP1 PUSH2 0x26CC PUSH2 0x4EFF JUMP JUMPDEST ISZERO DUP1 ISZERO PUSH2 0x26D8 JUMPI PUSH1 0x0 DUP1 REVERT JUMPDEST POP GAS PUSH2 0x26E2 PUSH2 0x4F30 JUMP JUMPDEST POP POP POP POP POP POP ISZERO DUP1 ISZERO PUSH2 0x26F9 JUMPI RETURNDATASIZE PUSH1 0x0 DUP1 RETURNDATACOPY RETURNDATASIZE PUSH1 0x0 REVERT JUMPDEST POP POP POP POP PUSH1 0x40 MLOAD RETURNDATASIZE PUSH1 0x20 DUP2 LT ISZERO PUSH2 0x270F JUMPI PUSH1 0x0 DUP1 REVERT JUMPDEST POP POP JUMPDEST PUSH2 0x4F87 PUSH1 0x1E PUSH1 0x5 PUSH2 0x2721 PUSH2 0x4E13 JUMP JUMPDEST SWAP1 PUSH2 0x100 EXP SWAP1 DIV PUSH1 0xFF AND PUSH2 0x2737 JUMPI PUSH2 0x3FC9 PUSH2 0x273B JUMP JUMPDEST PUSH2 0x4985 JUMPDEST SWAP1 POP PUSH2 0x1098 DUP6 DUP6 DUP4 PUSH4 0xFFFFFFFF AND JUMP JUMPDEST PUSH1 0x0 PUSH2 0x2755 PUSH2 0x2344 JUMP JUMPDEST ISZERO PUSH2 0x275F JUMPI PUSH1 0x0 DUP1 REVERT JUMPDEST PUSH1 0x0 PUSH1 0x3 PUSH2 0x276B PUSH2 0x4E13 JUMP JUMPDEST SWAP1 PUSH2 0x100 EXP SWAP1 DIV PUSH1 0xFF AND ISZERO PUSH2 0x27B5 JUMPI PUSH1 0x40 DUP1 MLOAD PUSH3 0x461BCD PUSH1 0xE5 SHL DUP2 MSTORE PUSH1 0x20 PUSH1 0x4 DUP3 ADD MSTORE PUSH1 0x12 PUSH1 0x24 DUP3 ADD MSTORE PUSH1 0x0 DUP1 MLOAD PUSH1 0x20 PUSH2 0x4FCB DUP4 CODECOPY DUP2 MLOAD SWAP2 MSTORE PUSH1 0x44 DUP3 ADD MSTORE SWAP1 MLOAD SWAP1 DUP2 SWAP1 SUB PUSH1 0x64 ADD SWAP1 REVERT JUMPDEST PUSH1 0x1 PUSH1 0x1 PUSH1 0xA0 SHL SUB DUP7 AND PUSH1 0x0 SWAP1 DUP2 MSTORE PUSH1 0x9 PUSH1 0x20 MSTORE PUSH1 0x40 SWAP1 KECCAK256 DUP8 SWAP1 PUSH2 0x27D7 PUSH2 0x4E13 JUMP JUMPDEST GT ISZERO PUSH2 0x27E2 JUMPI PUSH1 0x0 DUP1 REVERT JUMPDEST PUSH1 0x1E PUSH1 0x5 PUSH2 0x27EE PUSH2 0x4E13 JUMP JUMPDEST SWAP1 PUSH2 0x100 EXP SWAP1 DIV PUSH1 0xFF AND ISZERO PUSH2 0x2812 JUMPI PUSH2 0x280B DUP8 DUP8 DUP8 DUP8 DUP8 DUP8 PUSH2 0x39AC JUMP JUMPDEST SWAP1 POP PUSH2 0x12A3 JUMP JUMPDEST PUSH2 0x281E DUP8 DUP8 DUP8 DUP8 PUSH2 0x3B3F JUMP JUMPDEST SWAP8 SWAP7 POP POP POP POP POP POP POP JUMP JUMPDEST PUSH1 0x0 DUP2 PUSH2 0x2835 DUP2 PUSH2 0x1DAB JUMP JUMPDEST PUSH2 0x283E JUMPI PUSH1 0x0 DUP1 REVERT JUMPDEST PUSH2 0x2846 PUSH2 0x2344 JUMP JUMPDEST ISZERO PUSH2 0x2850 JUMPI PUSH1 0x0 DUP1 REVERT JUMPDEST PUSH1 0x0 PUSH1 0x3 PUSH2 0x285C PUSH2 0x4E13 JUMP JUMPDEST SWAP1 PUSH2 0x100 EXP SWAP1 DIV PUSH1 0xFF AND ISZERO PUSH2 0x28A6 JUMPI PUSH1 0x40 DUP1 MLOAD PUSH3 0x461BCD PUSH1 0xE5 SHL DUP2 MSTORE PUSH1 0x20 PUSH1 0x4 DUP3 ADD MSTORE PUSH1 0x12 PUSH1 0x24 DUP3 ADD MSTORE PUSH1 0x0 DUP1 MLOAD PUSH1 0x20 PUSH2 0x4FCB DUP4 CODECOPY DUP2 MLOAD SWAP2 MSTORE PUSH1 0x44 DUP3 ADD MSTORE SWAP1 MLOAD SWAP1 DUP2 SWAP1 SUB PUSH1 0x64 ADD SWAP1 REVERT JUMPDEST PUSH1 0x0 DUP1 PUSH1 0xE PUSH2 0x28B3 PUSH2 0x4E13 JUMP JUMPDEST SWAP1 PUSH2 0x100 EXP SWAP1 DIV PUSH1 0x1 PUSH1 0x1 PUSH1 0xA0 SHL SUB AND SWAP1 POP DUP1 PUSH1 0x1 PUSH1 0x1 PUSH1 0xA0 SHL SUB AND PUSH1 0x2 PUSH1 0x0 DUP7 DUP2 MSTORE PUSH1 0x20 ADD SWAP1 DUP2 MSTORE PUSH1 0x20 ADD PUSH1 0x0 KECCAK256 PUSH1 0x3 ADD PUSH1 0x0 SWAP1 PUSH2 0x28F0 PUSH2 0x4E13 JUMP JUMPDEST SWAP1 PUSH2 0x100 EXP SWAP1 DIV PUSH1 0x1 PUSH1 0x1 PUSH1 0xA0 SHL SUB AND PUSH1 0x1 PUSH1 0x1 PUSH1 0xA0 SHL SUB AND EQ PUSH2 0x295B JUMPI PUSH1 0x40 DUP1 MLOAD PUSH3 0x461BCD PUSH1 0xE5 SHL DUP2 MSTORE PUSH1 0x20 PUSH1 0x4 DUP3 ADD MSTORE PUSH1 0x1D PUSH1 0x24 DUP3 ADD MSTORE PUSH32 0x6F6666657220796F7520627579206D75737420626520696E2057455448000000 PUSH1 0x44 DUP3 ADD MSTORE SWAP1 MLOAD SWAP1 DUP2 SWAP1 SUB PUSH1 0x64 ADD SWAP1 REVERT JUMPDEST PUSH1 0x0 PUSH1 0xE PUSH2 0x2967 PUSH2 0x4E13 JUMP JUMPDEST SWAP1 PUSH2 0x100 EXP SWAP1 DIV PUSH1 0x1 PUSH1 0x1 PUSH1 0xA0 SHL SUB AND PUSH1 0x1 PUSH1 0x1 PUSH1 0xA0 SHL SUB AND PUSH4 0xD0E30DB0 CALLVALUE PUSH1 0x40 MLOAD DUP3 PUSH4 0xFFFFFFFF AND PUSH1 0xE0 SHL DUP2 MSTORE PUSH1 0x4 ADD PUSH1 0x0 PUSH1 0x40 MLOAD DUP1 DUP4 SUB DUP2 DUP6 DUP9 DUP1 PUSH2 0x29AC PUSH2 0x4EFF JUMP JUMPDEST ISZERO DUP1 ISZERO PUSH2 0x29B8 JUMPI PUSH1 0x0 DUP1 REVERT JUMPDEST POP GAS PUSH2 0x29C2 PUSH2 0x4F30 JUMP JUMPDEST POP POP POP POP POP POP ISZERO DUP1 ISZERO PUSH2 0x29D9 JUMPI RETURNDATASIZE PUSH1 0x0 DUP1 RETURNDATACOPY RETURNDATASIZE PUSH1 0x0 REVERT JUMPDEST POP POP POP POP POP PUSH1 0xE PUSH1 0x0 SWAP1 PUSH2 0x29EB PUSH2 0x4E13 JUMP JUMPDEST SWAP1 PUSH2 0x100 EXP SWAP1 DIV PUSH1 0x1 PUSH1 0x1 PUSH1 0xA0 SHL SUB AND PUSH1 0x1 PUSH1 0x1 PUSH1 0xA0 SHL SUB AND PUSH4 0xA9059CBB GAS PUSH2 0x2A12 PUSH2 0x4E4B JUMP JUMPDEST CALLVALUE PUSH1 0x40 MLOAD DUP4 PUSH4 0xFFFFFFFF AND PUSH1 0xE0 SHL DUP2 MSTORE PUSH1 0x4 ADD DUP1 DUP4 PUSH1 0x1 PUSH1 0x1 PUSH1 0xA0 SHL SUB AND PUSH1 0x1 PUSH1 0x1 PUSH1 0xA0 SHL SUB AND DUP2 MSTORE PUSH1 0x20 ADD DUP3 DUP2 MSTORE PUSH1 0x20 ADD SWAP3 POP POP POP PUSH1 0x20 PUSH1 0x40 MLOAD DUP1 DUP4 SUB DUP2 PUSH1 0x0 DUP8 DUP1 PUSH2 0x2A5D PUSH2 0x4EFF JUMP JUMPDEST ISZERO DUP1 ISZERO PUSH2 0x2A69 JUMPI PUSH1 0x0 DUP1 REVERT JUMPDEST POP GAS PUSH2 0x2A73 PUSH2 0x4F30 JUMP JUMPDEST POP POP POP POP POP POP ISZERO DUP1 ISZERO PUSH2 0x2A8A JUMPI RETURNDATASIZE PUSH1 0x0 DUP1 RETURNDATACOPY RETURNDATASIZE PUSH1 0x0 REVERT JUMPDEST POP POP POP POP PUSH1 0x40 MLOAD RETURNDATASIZE PUSH1 0x20 DUP2 LT ISZERO PUSH2 0x2AA0 JUMPI PUSH1 0x0 DUP1 REVERT JUMPDEST POP PUSH2 0x2AAD SWAP1 POP DUP5 CALLVALUE PUSH2 0x3FC9 JUMP JUMPDEST POP POP POP SWAP2 SWAP1 POP JUMP JUMPDEST PUSH1 0x0 DUP1 PUSH1 0x3 PUSH2 0x2AC2 PUSH2 0x4E13 JUMP JUMPDEST SWAP1 PUSH2 0x100 EXP SWAP1 DIV PUSH1 0xFF AND ISZERO PUSH2 0x2B0C JUMPI PUSH1 0x40 DUP1 MLOAD PUSH3 0x461BCD PUSH1 0xE5 SHL DUP2 MSTORE PUSH1 0x20 PUSH1 0x4 DUP3 ADD MSTORE PUSH1 0x12 PUSH1 0x24 DUP3 ADD MSTORE PUSH1 0x0 DUP1 MLOAD PUSH1 0x20 PUSH2 0x4FCB DUP4 CODECOPY DUP2 MLOAD SWAP2 MSTORE PUSH1 0x44 DUP3 ADD MSTORE SWAP1 MLOAD SWAP1 DUP2 SWAP1 SUB PUSH1 0x64 ADD SWAP1 REVERT JUMPDEST PUSH2 0x4F87 PUSH1 0x1E PUSH1 0x5 PUSH2 0x2B1B PUSH2 0x4E13 JUMP JUMPDEST SWAP1 PUSH2 0x100 EXP SWAP1 DIV PUSH1 0xFF AND PUSH2 0x2B31 JUMPI PUSH2 0x3B3F PUSH2 0x2B35 JUMP JUMPDEST PUSH2 0x4AA5 JUMPDEST SWAP1 POP PUSH2 0x12A3 DUP7 DUP7 DUP7 DUP7 DUP6 PUSH4 0xFFFFFFFF AND JUMP JUMPDEST PUSH1 0x0 PUSH2 0x2B55 GAS PUSH2 0x1008 PUSH2 0x4E4B JUMP JUMPDEST PUSH2 0x2B94 JUMPI PUSH1 0x40 DUP1 MLOAD PUSH3 0x461BCD PUSH1 0xE5 SHL DUP2 MSTORE PUSH1 0x20 PUSH1 0x4 DUP3 ADD MSTORE PUSH1 0x14 PUSH1 0x24 DUP3 ADD MSTORE PUSH1 0x0 DUP1 MLOAD PUSH1 0x20 PUSH2 0x50BF DUP4 CODECOPY DUP2 MLOAD SWAP2 MSTORE PUSH1 0x44 DUP3 ADD MSTORE SWAP1 MLOAD SWAP1 DUP2 SWAP1 SUB PUSH1 0x64 ADD SWAP1 REVERT JUMPDEST DUP2 PUSH1 0x5 PUSH1 0x1 DUP2 PUSH2 0x21E4 PUSH2 0x4E13 JUMP JUMPDEST PUSH1 0x1D PUSH1 0x5 PUSH2 0xDD2 PUSH2 0x4E13 JUMP JUMPDEST PUSH1 0x0 DUP1 PUSH2 0x2BBB DUP5 DUP7 PUSH2 0xDDF JUMP JUMPDEST SWAP1 POP JUMPDEST PUSH1 0x0 DUP2 DUP2 MSTORE PUSH1 0x2 PUSH1 0x20 MSTORE PUSH1 0x40 SWAP1 KECCAK256 PUSH2 0x2BD4 PUSH2 0x4E13 JUMP JUMPDEST DUP4 GT ISZERO PUSH2 0x2C3E JUMPI PUSH2 0x2BFD DUP3 PUSH1 0x2 PUSH1 0x0 DUP5 DUP2 MSTORE PUSH1 0x20 ADD SWAP1 DUP2 MSTORE PUSH1 0x20 ADD PUSH1 0x0 KECCAK256 PUSH1 0x2 ADD PUSH2 0xF18 PUSH2 0x4E13 JUMP JUMPDEST PUSH1 0x0 DUP3 DUP2 MSTORE PUSH1 0x2 PUSH1 0x20 MSTORE PUSH1 0x40 SWAP1 KECCAK256 SWAP1 SWAP3 POP PUSH2 0x2C1C SWAP1 DUP5 SWAP1 PUSH2 0xF41 PUSH2 0x4E13 JUMP JUMPDEST SWAP3 POP DUP3 ISZERO PUSH2 0x2C39 JUMPI PUSH2 0x2C2D DUP2 PUSH2 0x1ECC JUMP JUMPDEST SWAP1 POP DUP1 PUSH2 0x2C39 JUMPI PUSH1 0x0 DUP1 REVERT JUMPDEST PUSH2 0x2BBE JUMP JUMPDEST PUSH2 0x1098 DUP3 PUSH4 0x3B9ACA00 PUSH2 0x1273 DUP7 PUSH4 0x3B9ACA00 MUL PUSH2 0xFB6 PUSH1 0x2 PUSH1 0x0 DUP9 DUP2 MSTORE PUSH1 0x20 ADD SWAP1 DUP2 MSTORE PUSH1 0x20 ADD PUSH1 0x0 KECCAK256 PUSH1 0x2 ADD PUSH2 0x1D72 PUSH2 0x4E13 JUMP JUMPDEST PUSH1 0x0 DUP2 PUSH2 0x2C92 PUSH2 0x2C8A DUP6 PUSH8 0xDE0B6B3A7640000 PUSH2 0x4B51 JUMP JUMPDEST PUSH1 0x2 DUP6 PUSH2 0x127A JUMP JUMPDEST DUP2 PUSH2 0x2C99 JUMPI INVALID JUMPDEST DIV SWAP4 SWAP3 POP POP POP JUMP JUMPDEST DUP1 DUP3 ADD DUP3 DUP2 LT ISZERO PUSH2 0xE11 JUMPI PUSH1 0x40 DUP1 MLOAD PUSH3 0x461BCD PUSH1 0xE5 SHL DUP2 MSTORE PUSH1 0x20 PUSH1 0x4 DUP3 ADD MSTORE PUSH1 0x14 PUSH1 0x24 DUP3 ADD MSTORE PUSH20 0x64732D6D6174682D6164642D6F766572666C6F77 PUSH1 0x60 SHL PUSH1 0x44 DUP3 ADD MSTORE SWAP1 MLOAD SWAP1 DUP2 SWAP1 SUB PUSH1 0x64 ADD SWAP1 REVERT JUMPDEST DUP1 DUP3 SUB DUP3 DUP2 GT ISZERO PUSH2 0xE11 JUMPI PUSH1 0x40 DUP1 MLOAD PUSH3 0x461BCD PUSH1 0xE5 SHL DUP2 MSTORE PUSH1 0x20 PUSH1 0x4 DUP3 ADD MSTORE PUSH1 0x15 PUSH1 0x24 DUP3 ADD MSTORE PUSH21 0x64732D6D6174682D7375622D756E646572666C6F77 PUSH1 0x58 SHL PUSH1 0x44 DUP3 ADD MSTORE SWAP1 MLOAD SWAP1 DUP2 SWAP1 SUB PUSH1 0x64 ADD SWAP1 REVERT JUMPDEST PUSH1 0x0 DUP2 PUSH2 0x2C92 PUSH2 0x2C8A DUP6 PUSH12 0x33B2E3C9FD0803CE8000000 PUSH2 0x4B51 JUMP JUMPDEST PUSH1 0x0 PUSH12 0x33B2E3C9FD0803CE8000000 PUSH2 0x2C92 PUSH2 0x2D78 DUP6 DUP6 PUSH2 0x4B51 JUMP JUMPDEST PUSH1 0x2 PUSH12 0x33B2E3C9FD0803CE8000000 PUSH2 0x127A JUMP JUMPDEST PUSH1 0x0 GAS PUSH4 0x996D79A5 PUSH3 0x80000 DUP2 PUSH1 0xE0 SHL DUP2 MSTORE PUSH1 0x20 DUP2 PUSH1 0x4 DUP4 PUSH1 0x0 CALLER GAS CALL DUP1 PUSH2 0x2DB3 JUMPI PUSH1 0x0 DUP1 REVERT JUMPDEST DUP2 MLOAD SWAP4 POP POP POP POP PUSH1 0x1 PUSH1 0x1 PUSH1 0xA0 SHL SUB AND DUP3 PUSH1 0x1 PUSH1 0x1 PUSH1 0xA0 SHL SUB AND EQ ISZERO PUSH2 0x2DDB JUMPI POP PUSH1 0x1 PUSH2 0x1469 JUMP JUMPDEST PUSH1 0x0 DUP1 PUSH2 0x2DE6 PUSH2 0x4E13 JUMP JUMPDEST SWAP1 PUSH2 0x100 EXP SWAP1 DIV PUSH1 0x1 PUSH1 0x1 PUSH1 0xA0 SHL SUB AND PUSH1 0x1 PUSH1 0x1 PUSH1 0xA0 SHL SUB AND DUP3 PUSH1 0x1 PUSH1 0x1 PUSH1 0xA0 SHL SUB AND EQ ISZERO PUSH2 0x2E17 JUMPI POP PUSH1 0x1 PUSH2 0x1469 JUMP JUMPDEST POP PUSH1 0x0 PUSH2 0x1469 JUMP JUMPDEST PUSH1 0x0 DUP1 PUSH1 0xB PUSH2 0x2E2C PUSH2 0x4E13 JUMP JUMPDEST SWAP1 POP DUP1 PUSH2 0x2E38 DUP5 PUSH2 0x2406 JUMP JUMPDEST ISZERO PUSH2 0x2E42 JUMPI PUSH1 0x0 DUP1 REVERT JUMPDEST DUP4 PUSH1 0xB PUSH2 0x2E4D PUSH2 0x4E13 JUMP JUMPDEST EQ ISZERO PUSH2 0x2E9D JUMPI PUSH1 0x0 DUP5 DUP2 MSTORE PUSH1 0xA PUSH1 0x20 MSTORE PUSH1 0x40 SWAP1 KECCAK256 PUSH2 0x2E69 PUSH2 0x4E13 JUMP JUMPDEST DUP1 PUSH1 0xB PUSH2 0x2E74 PUSH2 0x4E6F JUMP JUMPDEST POP POP POP PUSH1 0x0 DUP5 DUP2 MSTORE PUSH1 0xA PUSH1 0x20 MSTORE PUSH1 0x40 DUP2 KECCAK256 DUP2 SWAP1 PUSH2 0x2E8F PUSH2 0x4E6F JUMP JUMPDEST POP POP POP PUSH1 0x1 SWAP3 POP POP POP PUSH2 0x1469 JUMP JUMPDEST PUSH1 0x0 DUP3 GT DUP1 ISZERO PUSH2 0x2EAD JUMPI POP DUP4 DUP3 EQ ISZERO JUMPDEST ISZERO PUSH2 0x2ED2 JUMPI POP PUSH1 0x0 DUP2 DUP2 MSTORE PUSH1 0xA PUSH1 0x20 MSTORE PUSH1 0x40 SWAP1 KECCAK256 DUP2 SWAP1 PUSH2 0x2ECB PUSH2 0x4E13 JUMP JUMPDEST SWAP2 POP PUSH2 0x2E9D JUMP JUMPDEST DUP4 DUP3 EQ PUSH2 0x2EE4 JUMPI PUSH1 0x0 SWAP3 POP POP POP PUSH2 0x1469 JUMP JUMPDEST PUSH1 0x0 DUP5 DUP2 MSTORE PUSH1 0xA PUSH1 0x20 MSTORE PUSH1 0x40 SWAP1 KECCAK256 PUSH2 0x2EFA PUSH2 0x4E13 JUMP JUMPDEST PUSH1 0x0 DUP3 DUP2 MSTORE PUSH1 0xA PUSH1 0x20 MSTORE PUSH1 0x40 SWAP1 KECCAK256 DUP2 SWAP1 PUSH2 0x2F12 PUSH2 0x4E6F JUMP JUMPDEST POP POP POP PUSH1 0x0 DUP5 DUP2 MSTORE PUSH1 0xA PUSH1 0x20 MSTORE PUSH1 0x40 DUP2 KECCAK256 DUP2 SWAP1 PUSH2 0x2F2D PUSH2 0x4E6F JUMP JUMPDEST POP PUSH1 0x1 SWAP7 SWAP6 POP POP POP POP POP POP JUMP JUMPDEST PUSH2 0x2F43 DUP3 PUSH2 0x1DAB JUMP JUMPDEST PUSH2 0x2F4C JUMPI PUSH1 0x0 DUP1 REVERT JUMPDEST PUSH1 0x0 DUP3 DUP2 MSTORE PUSH1 0x2 PUSH1 0x20 MSTORE PUSH1 0x40 DUP2 KECCAK256 DUP2 SWAP1 PUSH1 0x3 ADD PUSH2 0x2F67 PUSH2 0x4E13 JUMP JUMPDEST SWAP1 PUSH2 0x100 EXP SWAP1 DIV PUSH1 0x1 PUSH1 0x1 PUSH1 0xA0 SHL SUB AND SWAP1 POP PUSH1 0x0 PUSH1 0x2 PUSH1 0x0 DUP6 DUP2 MSTORE PUSH1 0x20 ADD SWAP1 DUP2 MSTORE PUSH1 0x20 ADD PUSH1 0x0 KECCAK256 PUSH1 0x1 ADD PUSH1 0x0 SWAP1 PUSH2 0x2F9C PUSH2 0x4E13 JUMP JUMPDEST SWAP1 PUSH2 0x100 EXP SWAP1 DIV PUSH1 0x1 PUSH1 0x1 PUSH1 0xA0 SHL SUB AND SWAP1 POP PUSH1 0x0 DUP4 PUSH1 0x0 EQ DUP1 PUSH2 0x2FFB JUMPI POP PUSH1 0x0 DUP5 DUP2 MSTORE PUSH1 0x2 PUSH1 0x20 MSTORE PUSH1 0x40 DUP2 KECCAK256 PUSH1 0x1 PUSH1 0x1 PUSH1 0xA0 SHL SUB DUP5 AND SWAP2 SWAP1 PUSH1 0x1 ADD PUSH2 0x2FDF PUSH2 0x4E13 JUMP JUMPDEST SWAP1 PUSH2 0x100 EXP SWAP1 DIV PUSH1 0x1 PUSH1 0x1 PUSH1 0xA0 SHL SUB AND PUSH1 0x1 PUSH1 0x1 PUSH1 0xA0 SHL SUB AND EQ ISZERO JUMPDEST DUP1 PUSH2 0x3042 JUMPI POP PUSH1 0x0 DUP5 DUP2 MSTORE PUSH1 0x2 PUSH1 0x20 MSTORE PUSH1 0x40 DUP2 KECCAK256 PUSH1 0x1 PUSH1 0x1 PUSH1 0xA0 SHL SUB DUP6 AND SWAP2 SWAP1 PUSH1 0x3 ADD PUSH2 0x3026 PUSH2 0x4E13 JUMP JUMPDEST SWAP1 PUSH2 0x100 EXP SWAP1 DIV PUSH1 0x1 PUSH1 0x1 PUSH1 0xA0 SHL SUB AND PUSH1 0x1 PUSH1 0x1 PUSH1 0xA0 SHL SUB AND EQ ISZERO JUMPDEST DUP1 PUSH2 0x3053 JUMPI POP PUSH2 0x3051 DUP5 PUSH2 0x2406 JUMP JUMPDEST ISZERO JUMPDEST PUSH2 0x3066 JUMPI PUSH2 0x3061 DUP6 DUP6 PUSH2 0x4BB4 JUMP JUMPDEST PUSH2 0x306F JUMP JUMPDEST PUSH2 0x306F DUP6 PUSH2 0x4C9E JUMP JUMPDEST SWAP4 POP DUP4 ISZERO PUSH2 0x30D5 JUMPI PUSH1 0x0 DUP5 DUP2 MSTORE PUSH1 0x6 PUSH1 0x20 MSTORE PUSH1 0x40 SWAP1 KECCAK256 PUSH1 0x1 ADD PUSH2 0x3090 PUSH2 0x4E13 JUMP JUMPDEST PUSH1 0x0 DUP6 DUP2 MSTORE PUSH1 0x6 PUSH1 0x20 MSTORE PUSH1 0x40 SWAP1 KECCAK256 SWAP1 SWAP2 POP DUP6 SWAP1 DUP2 SWAP1 PUSH1 0x1 ADD PUSH2 0x30B0 PUSH2 0x4E6F JUMP JUMPDEST POP POP POP PUSH1 0x0 DUP6 DUP2 MSTORE PUSH1 0x6 PUSH1 0x20 MSTORE PUSH1 0x40 SWAP1 KECCAK256 DUP5 SWAP1 DUP2 SWAP1 PUSH2 0x30CD PUSH2 0x4E6F JUMP JUMPDEST POP POP POP PUSH2 0x313A JUMP JUMPDEST PUSH1 0x1 PUSH1 0x1 PUSH1 0xA0 SHL SUB DUP1 DUP4 AND PUSH1 0x0 SWAP1 DUP2 MSTORE PUSH1 0x7 PUSH1 0x20 SWAP1 DUP2 MSTORE PUSH1 0x40 DUP1 DUP4 KECCAK256 SWAP4 DUP8 AND DUP4 MSTORE SWAP3 SWAP1 MSTORE KECCAK256 PUSH2 0x3102 PUSH2 0x4E13 JUMP JUMPDEST PUSH1 0x1 PUSH1 0x1 PUSH1 0xA0 SHL SUB DUP1 DUP5 AND PUSH1 0x0 SWAP1 DUP2 MSTORE PUSH1 0x7 PUSH1 0x20 SWAP1 DUP2 MSTORE PUSH1 0x40 DUP1 DUP4 KECCAK256 SWAP4 DUP9 AND DUP4 MSTORE SWAP3 SWAP1 MSTORE KECCAK256 SWAP1 SWAP2 POP DUP6 SWAP1 DUP2 SWAP1 PUSH2 0x3136 PUSH2 0x4E6F JUMP JUMPDEST POP POP POP JUMPDEST DUP1 ISZERO PUSH2 0x317E JUMPI PUSH1 0x0 DUP2 DUP2 MSTORE PUSH1 0x6 PUSH1 0x20 MSTORE PUSH1 0x40 SWAP1 KECCAK256 DUP6 SWAP1 DUP2 SWAP1 PUSH2 0x315A PUSH2 0x4E6F JUMP JUMPDEST POP POP POP PUSH1 0x0 DUP6 DUP2 MSTORE PUSH1 0x6 PUSH1 0x20 MSTORE PUSH1 0x40 SWAP1 KECCAK256 DUP2 SWAP1 DUP2 SWAP1 PUSH1 0x1 ADD PUSH2 0x317A PUSH2 0x4E6F JUMP JUMPDEST POP POP POP JUMPDEST PUSH1 0x1 PUSH1 0x1 PUSH1 0xA0 SHL SUB DUP1 DUP4 AND PUSH1 0x0 SWAP1 DUP2 MSTORE PUSH1 0x8 PUSH1 0x20 SWAP1 DUP2 MSTORE PUSH1 0x40 DUP1 DUP4 KECCAK256 SWAP4 DUP8 AND DUP4 MSTORE SWAP3 SWAP1 MSTORE SWAP1 DUP2 KECCAK256 SWAP1 DUP2 PUSH2 0x31AF PUSH2 0x4E13 JUMP JUMPDEST SWAP2 PUSH1 0x1 DUP4 ADD SWAP2 POP PUSH2 0x31BE PUSH2 0x4E6F JUMP JUMPDEST POP POP PUSH1 0x40 DUP1 MLOAD DUP8 DUP2 MSTORE SWAP1 MLOAD PUSH32 0x20FB9BAD86C18F7E22E8065258790D9416A7D2DF8FF05F80F82C46D38B925ACD SWAP3 POP SWAP1 DUP2 SWAP1 SUB PUSH1 0x20 ADD SWAP1 LOG1 POP POP POP POP POP JUMP JUMPDEST PUSH1 0x0 DUP2 DUP2 MSTORE PUSH1 0x2 PUSH1 0x20 MSTORE PUSH1 0x40 DUP2 KECCAK256 DUP2 SWAP1 DUP2 SWAP1 PUSH1 0x3 ADD PUSH2 0x3219 PUSH2 0x4E13 JUMP JUMPDEST SWAP1 PUSH2 0x100 EXP SWAP1 DIV PUSH1 0x1 PUSH1 0x1 PUSH1 0xA0 SHL SUB AND SWAP1 POP PUSH1 0x0 PUSH1 0x2 PUSH1 0x0 DUP6 DUP2 MSTORE PUSH1 0x20 ADD SWAP1 DUP2 MSTORE PUSH1 0x20 ADD PUSH1 0x0 KECCAK256 PUSH1 0x1 ADD PUSH1 0x0 SWAP1 PUSH2 0x324E PUSH2 0x4E13 JUMP JUMPDEST PUSH1 0x1 PUSH1 0x1 PUSH1 0xA0 SHL SUB PUSH2 0x100 SWAP3 SWAP1 SWAP3 EXP SWAP1 DIV DUP2 AND PUSH1 0x0 DUP2 DUP2 MSTORE PUSH1 0x8 PUSH1 0x20 SWAP1 DUP2 MSTORE PUSH1 0x40 DUP1 DUP4 KECCAK256 SWAP5 DUP8 AND DUP4 MSTORE SWAP4 SWAP1 MSTORE SWAP2 DUP3 KECCAK256 SWAP1 SWAP3 POP PUSH2 0x3288 PUSH2 0x4E13 JUMP JUMPDEST GT PUSH2 0x3292 JUMPI PUSH1 0x0 DUP1 REVERT JUMPDEST PUSH1 0x0 DUP5 DUP2 MSTORE PUSH1 0x6 PUSH1 0x20 MSTORE PUSH1 0x40 SWAP1 KECCAK256 PUSH1 0x2 ADD PUSH2 0x32AB PUSH2 0x4E13 JUMP JUMPDEST ISZERO DUP1 ISZERO PUSH2 0x32BC JUMPI POP PUSH2 0x32BC DUP5 PUSH2 0x2406 JUMP JUMPDEST PUSH2 0x32C5 JUMPI PUSH1 0x0 DUP1 REVERT JUMPDEST PUSH1 0x1 PUSH1 0x1 PUSH1 0xA0 SHL SUB DUP1 DUP3 AND PUSH1 0x0 SWAP1 DUP2 MSTORE PUSH1 0x7 PUSH1 0x20 SWAP1 DUP2 MSTORE PUSH1 0x40 DUP1 DUP4 KECCAK256 SWAP4 DUP7 AND DUP4 MSTORE SWAP3 SWAP1 MSTORE KECCAK256 PUSH2 0x32F2 PUSH2 0x4E13 JUMP JUMPDEST DUP5 EQ PUSH2 0x338D JUMPI PUSH1 0x0 DUP5 DUP2 MSTORE PUSH1 0x6 PUSH1 0x20 DUP2 SWAP1 MSTORE PUSH1 0x40 DUP3 KECCAK256 DUP7 SWAP3 SWAP1 PUSH2 0x3313 PUSH2 0x4E13 JUMP JUMPDEST DUP2 MSTORE PUSH1 0x20 ADD SWAP1 DUP2 MSTORE PUSH1 0x20 ADD PUSH1 0x0 KECCAK256 PUSH1 0x1 ADD PUSH2 0x332C PUSH2 0x4E13 JUMP JUMPDEST EQ PUSH2 0x3336 JUMPI PUSH1 0x0 DUP1 REVERT JUMPDEST PUSH1 0x0 DUP5 DUP2 MSTORE PUSH1 0x6 PUSH1 0x20 MSTORE PUSH1 0x40 SWAP1 KECCAK256 PUSH1 0x1 ADD PUSH2 0x334F PUSH2 0x4E13 JUMP JUMPDEST PUSH1 0x0 DUP6 DUP2 MSTORE PUSH1 0x6 PUSH1 0x20 DUP2 SWAP1 MSTORE PUSH1 0x40 DUP3 KECCAK256 SWAP1 SWAP2 SWAP1 PUSH2 0x336A PUSH2 0x4E13 JUMP JUMPDEST DUP2 MSTORE PUSH1 0x20 ADD SWAP1 DUP2 MSTORE PUSH1 0x20 ADD PUSH1 0x0 KECCAK256 PUSH1 0x1 ADD DUP2 SWAP1 PUSH2 0x3385 PUSH2 0x4E6F JUMP JUMPDEST POP POP POP PUSH2 0x33D9 JUMP JUMPDEST PUSH1 0x0 DUP5 DUP2 MSTORE PUSH1 0x6 PUSH1 0x20 MSTORE PUSH1 0x40 SWAP1 KECCAK256 PUSH1 0x1 ADD PUSH2 0x33A6 PUSH2 0x4E13 JUMP JUMPDEST PUSH1 0x1 PUSH1 0x1 PUSH1 0xA0 SHL SUB DUP1 DUP4 AND PUSH1 0x0 SWAP1 DUP2 MSTORE PUSH1 0x7 PUSH1 0x20 SWAP1 DUP2 MSTORE PUSH1 0x40 DUP1 DUP4 KECCAK256 SWAP4 DUP8 AND DUP4 MSTORE SWAP3 SWAP1 MSTORE KECCAK256 DUP2 SWAP1 PUSH2 0x33D5 PUSH2 0x4E6F JUMP JUMPDEST POP POP POP JUMPDEST PUSH1 0x0 DUP5 DUP2 MSTORE PUSH1 0x6 PUSH1 0x20 MSTORE PUSH1 0x40 SWAP1 KECCAK256 PUSH1 0x1 ADD PUSH2 0x33F2 PUSH2 0x4E13 JUMP JUMPDEST ISZERO PUSH2 0x348B JUMPI PUSH1 0x0 DUP5 DUP2 MSTORE PUSH1 0x6 PUSH1 0x20 DUP2 SWAP1 MSTORE PUSH1 0x40 DUP3 KECCAK256 DUP7 SWAP3 SWAP1 PUSH1 0x1 ADD PUSH2 0x3415 PUSH2 0x4E13 JUMP JUMPDEST DUP2 MSTORE PUSH1 0x20 ADD SWAP1 DUP2 MSTORE PUSH1 0x20 ADD PUSH1 0x0 KECCAK256 PUSH1 0x0 ADD PUSH2 0x342E PUSH2 0x4E13 JUMP JUMPDEST EQ PUSH2 0x3438 JUMPI PUSH1 0x0 DUP1 REVERT JUMPDEST PUSH1 0x0 DUP5 DUP2 MSTORE PUSH1 0x6 PUSH1 0x20 MSTORE PUSH1 0x40 SWAP1 KECCAK256 PUSH2 0x344E PUSH2 0x4E13 JUMP JUMPDEST PUSH1 0x0 DUP6 DUP2 MSTORE PUSH1 0x6 PUSH1 0x20 DUP2 SWAP1 MSTORE PUSH1 0x40 DUP3 KECCAK256 SWAP1 SWAP2 SWAP1 PUSH1 0x1 ADD PUSH2 0x346C PUSH2 0x4E13 JUMP JUMPDEST DUP2 MSTORE PUSH1 0x20 ADD SWAP1 DUP2 MSTORE PUSH1 0x20 ADD PUSH1 0x0 KECCAK256 PUSH1 0x0 ADD DUP2 SWAP1 PUSH2 0x3487 PUSH2 0x4E6F JUMP JUMPDEST POP POP POP JUMPDEST PUSH1 0x1 PUSH1 0x1 PUSH1 0xA0 SHL SUB DUP1 DUP3 AND PUSH1 0x0 SWAP1 DUP2 MSTORE PUSH1 0x8 PUSH1 0x20 SWAP1 DUP2 MSTORE PUSH1 0x40 DUP1 DUP4 KECCAK256 SWAP4 DUP7 AND DUP4 MSTORE SWAP3 SWAP1 MSTORE SWAP1 DUP2 KECCAK256 SWAP1 DUP2 PUSH2 0x34BC PUSH2 0x4E13 JUMP JUMPDEST SWAP2 PUSH1 0x0 NOT DUP4 ADD SWAP2 POP PUSH2 0x34CC PUSH2 0x4E6F JUMP JUMPDEST POP POP POP PUSH1 0x0 DUP5 DUP2 MSTORE PUSH1 0x6 PUSH1 0x20 MSTORE PUSH1 0x40 SWAP1 KECCAK256 NUMBER SWAP1 DUP2 SWAP1 PUSH1 0x2 ADD PUSH2 0x2F2D PUSH2 0x4E6F JUMP JUMPDEST PUSH1 0x0 DUP2 PUSH2 0x34F8 DUP2 PUSH2 0x1DAB JUMP JUMPDEST PUSH2 0x3533 JUMPI PUSH1 0x40 MLOAD PUSH3 0x461BCD PUSH1 0xE5 SHL DUP2 MSTORE PUSH1 0x4 ADD DUP1 DUP1 PUSH1 0x20 ADD DUP3 DUP2 SUB DUP3 MSTORE PUSH1 0x2D DUP2 MSTORE PUSH1 0x20 ADD DUP1 PUSH2 0x501E PUSH1 0x2D SWAP2 CODECOPY PUSH1 0x40 ADD SWAP2 POP POP PUSH1 0x40 MLOAD DUP1 SWAP2 SUB SWAP1 REVERT JUMPDEST PUSH2 0x353B PUSH2 0x2344 JUMP JUMPDEST DUP1 PUSH2 0x3567 JUMPI POP PUSH2 0x354A DUP2 PUSH2 0x23D4 JUMP JUMPDEST PUSH1 0x1 PUSH1 0x1 PUSH1 0xA0 SHL SUB AND GAS PUSH2 0x355C PUSH2 0x4E4B JUMP JUMPDEST PUSH1 0x1 PUSH1 0x1 PUSH1 0xA0 SHL SUB AND EQ JUMPDEST DUP1 PUSH2 0x357A JUMPI POP PUSH1 0xC PUSH2 0x3577 PUSH2 0x4E13 JUMP JUMPDEST DUP2 EQ JUMPDEST PUSH2 0x35B5 JUMPI PUSH1 0x40 MLOAD PUSH3 0x461BCD PUSH1 0xE5 SHL DUP2 MSTORE PUSH1 0x4 ADD DUP1 DUP1 PUSH1 0x20 ADD DUP3 DUP2 SUB DUP3 MSTORE PUSH1 0x74 DUP2 MSTORE PUSH1 0x20 ADD DUP1 PUSH2 0x504B PUSH1 0x74 SWAP2 CODECOPY PUSH1 0x80 ADD SWAP2 POP POP PUSH1 0x40 MLOAD DUP1 SWAP2 SUB SWAP1 REVERT JUMPDEST PUSH1 0x0 PUSH1 0x3 PUSH2 0x35C1 PUSH2 0x4E13 JUMP JUMPDEST SWAP1 PUSH2 0x100 EXP SWAP1 DIV PUSH1 0xFF AND ISZERO PUSH2 0x35D5 JUMPI PUSH1 0x0 DUP1 REVERT JUMPDEST PUSH1 0x1 PUSH1 0x3 DUP2 DUP2 PUSH2 0x35E3 PUSH2 0x4E13 JUMP JUMPDEST DUP2 PUSH1 0xFF MUL NOT AND SWAP1 DUP4 ISZERO ISZERO MUL OR SWAP1 PUSH2 0x35F8 PUSH2 0x4E6F JUMP JUMPDEST POP POP POP PUSH2 0x3603 PUSH2 0x4EA6 JUMP JUMPDEST PUSH1 0x0 DUP5 DUP2 MSTORE PUSH1 0x2 PUSH1 0x20 MSTORE PUSH1 0x40 SWAP1 DUP2 SWAP1 KECCAK256 DUP2 MLOAD PUSH1 0xC0 DUP2 ADD SWAP1 SWAP3 MSTORE DUP2 DUP2 PUSH2 0x3626 PUSH2 0x4E13 JUMP JUMPDEST DUP2 MSTORE PUSH1 0x20 ADD PUSH1 0x0 PUSH1 0x1 DUP4 ADD PUSH2 0x3639 PUSH2 0x4E13 JUMP JUMPDEST PUSH1 0x1 PUSH1 0x1 PUSH1 0xA0 SHL SUB PUSH2 0x100 SWAP3 SWAP1 SWAP3 EXP SWAP1 DIV AND DUP2 MSTORE PUSH1 0x20 ADD PUSH1 0x2 DUP3 ADD PUSH2 0x365C PUSH2 0x4E13 JUMP JUMPDEST DUP2 MSTORE PUSH1 0x20 ADD PUSH1 0x0 PUSH1 0x3 DUP4 ADD PUSH2 0x366F PUSH2 0x4E13 JUMP JUMPDEST PUSH1 0x1 PUSH1 0x1 PUSH1 0xA0 SHL SUB PUSH2 0x100 SWAP3 SWAP1 SWAP3 EXP SWAP1 DIV AND DUP2 MSTORE PUSH1 0x20 ADD PUSH1 0x0 PUSH1 0x4 DUP4 ADD PUSH2 0x3694 PUSH2 0x4E13 JUMP JUMPDEST PUSH1 0x1 PUSH1 0x1 PUSH1 0xA0 SHL SUB PUSH2 0x100 SWAP3 SWAP1 SWAP3 EXP SWAP1 DIV AND DUP2 MSTORE PUSH1 0x20 ADD PUSH1 0x14 PUSH1 0x4 DUP4 ADD PUSH2 0x36B9 PUSH2 0x4E13 JUMP JUMPDEST PUSH1 0x1 PUSH1 0x1 PUSH1 0x40 SHL SUB PUSH2 0x100 SWAP3 SWAP1 SWAP3 EXP SWAP1 DIV AND SWAP1 MSTORE POP PUSH1 0x0 DUP6 DUP2 MSTORE PUSH1 0x2 PUSH1 0x20 MSTORE PUSH1 0x40 DUP2 KECCAK256 SWAP2 SWAP3 POP DUP1 DUP3 PUSH2 0x36E9 PUSH2 0x4E6F JUMP JUMPDEST POP POP PUSH1 0x1 DUP3 DUP2 ADD SWAP1 DUP2 PUSH2 0x36FA PUSH2 0x4E13 JUMP JUMPDEST SWAP1 PUSH1 0x1 PUSH1 0x1 PUSH1 0xA0 SHL SUB MUL NOT AND SWAP1 PUSH2 0x370F PUSH2 0x4E6F JUMP JUMPDEST POP POP PUSH1 0x2 DUP3 ADD PUSH1 0x0 SWAP1 PUSH2 0x3720 PUSH2 0x4E6F JUMP JUMPDEST POP POP PUSH1 0x3 DUP3 ADD PUSH1 0x1 DUP2 PUSH2 0x3731 PUSH2 0x4E13 JUMP JUMPDEST SWAP1 PUSH1 0x1 PUSH1 0x1 PUSH1 0xA0 SHL SUB MUL NOT AND SWAP1 PUSH2 0x3746 PUSH2 0x4E6F JUMP JUMPDEST POP POP PUSH1 0x4 DUP3 ADD PUSH1 0x1 DUP2 PUSH2 0x3757 PUSH2 0x4E13 JUMP JUMPDEST SWAP1 PUSH1 0x1 PUSH1 0x1 PUSH1 0xA0 SHL SUB MUL NOT AND SWAP1 PUSH2 0x376C PUSH2 0x4E6F JUMP JUMPDEST POP POP PUSH1 0x4 DUP3 ADD PUSH1 0x1 PUSH1 0xA0 SHL DUP2 PUSH2 0x3780 PUSH2 0x4E13 JUMP JUMPDEST SWAP1 PUSH1 0x1 PUSH1 0x1 PUSH1 0x40 SHL SUB MUL NOT AND SWAP1 PUSH2 0x3795 PUSH2 0x4E6F JUMP JUMPDEST POP POP POP POP DUP1 PUSH1 0x20 ADD MLOAD PUSH1 0x1 PUSH1 0x1 PUSH1 0xA0 SHL SUB AND PUSH4 0xA9059CBB DUP3 PUSH1 0x80 ADD MLOAD DUP4 PUSH1 0x0 ADD MLOAD PUSH1 0x40 MLOAD DUP4 PUSH4 0xFFFFFFFF AND PUSH1 0xE0 SHL DUP2 MSTORE PUSH1 0x4 ADD DUP1 DUP4 PUSH1 0x1 PUSH1 0x1 PUSH1 0xA0 SHL SUB AND PUSH1 0x1 PUSH1 0x1 PUSH1 0xA0 SHL SUB AND DUP2 MSTORE PUSH1 0x20 ADD DUP3 DUP2 MSTORE PUSH1 0x20 ADD SWAP3 POP POP POP PUSH1 0x20 PUSH1 0x40 MLOAD DUP1 DUP4 SUB DUP2 PUSH1 0x0 DUP8 DUP1 PUSH2 0x3800 PUSH2 0x4EFF JUMP JUMPDEST ISZERO DUP1 ISZERO PUSH2 0x380C JUMPI PUSH1 0x0 DUP1 REVERT JUMPDEST POP GAS PUSH2 0x3816 PUSH2 0x4F30 JUMP JUMPDEST POP POP POP POP POP POP ISZERO DUP1 ISZERO PUSH2 0x382D JUMPI RETURNDATASIZE PUSH1 0x0 DUP1 RETURNDATACOPY RETURNDATASIZE PUSH1 0x0 REVERT JUMPDEST POP POP POP POP PUSH1 0x40 MLOAD RETURNDATASIZE PUSH1 0x20 DUP2 LT ISZERO PUSH2 0x3843 JUMPI PUSH1 0x0 DUP1 REVERT JUMPDEST POP MLOAD PUSH2 0x384E JUMPI PUSH1 0x0 DUP1 REVERT JUMPDEST PUSH1 0x40 DUP1 MLOAD DUP6 DUP2 MSTORE SWAP1 MLOAD PUSH32 0xA2C251311B1A7A475913900A2A73DC9789A21B04BC737E050BBC506DD4EB3488 SWAP2 DUP2 SWAP1 SUB PUSH1 0x20 ADD SWAP1 LOG1 DUP1 PUSH1 0x80 ADD MLOAD PUSH1 0x1 PUSH1 0x1 PUSH1 0xA0 SHL SUB AND DUP2 PUSH1 0x20 ADD MLOAD DUP3 PUSH1 0x60 ADD MLOAD PUSH1 0x40 MLOAD PUSH1 0x20 ADD DUP1 DUP4 PUSH1 0x1 PUSH1 0x1 PUSH1 0xA0 SHL SUB AND PUSH1 0x1 PUSH1 0x1 PUSH1 0xA0 SHL SUB AND PUSH1 0x60 SHL DUP2 MSTORE PUSH1 0x14 ADD DUP3 PUSH1 0x1 PUSH1 0x1 PUSH1 0xA0 SHL SUB AND PUSH1 0x1 PUSH1 0x1 PUSH1 0xA0 SHL SUB AND PUSH1 0x60 SHL DUP2 MSTORE PUSH1 0x14 ADD SWAP3 POP POP POP PUSH1 0x40 MLOAD PUSH1 0x20 DUP2 DUP4 SUB SUB DUP2 MSTORE SWAP1 PUSH1 0x40 MSTORE DUP1 MLOAD SWAP1 PUSH1 0x20 ADD KECCAK256 DUP6 PUSH1 0x0 SHL PUSH32 0x9577941D28FFF863BFBEE4694A6A4A56FB09E169619189D2EAA750B5B4819995 DUP5 PUSH1 0x20 ADD MLOAD DUP6 PUSH1 0x60 ADD MLOAD DUP7 PUSH1 0x0 ADD MLOAD DUP8 PUSH1 0x40 ADD MLOAD GAS PUSH2 0x3932 PUSH2 0x4EDB JUMP JUMPDEST PUSH1 0x40 DUP1 MLOAD PUSH1 0x1 PUSH1 0x1 PUSH1 0xA0 SHL SUB SWAP7 DUP8 AND DUP2 MSTORE SWAP5 SWAP1 SWAP6 AND PUSH1 0x20 DUP6 ADD MSTORE PUSH1 0x1 PUSH1 0x1 PUSH1 0x80 SHL SUB SWAP3 DUP4 AND DUP5 DUP7 ADD MSTORE SWAP2 AND PUSH1 0x60 DUP4 ADD MSTORE PUSH1 0x1 PUSH1 0x1 PUSH1 0x40 SHL SUB AND PUSH1 0x80 DUP3 ADD MSTORE SWAP1 MLOAD SWAP1 DUP2 SWAP1 SUB PUSH1 0xA0 ADD SWAP1 LOG4 POP PUSH1 0x1 SWAP2 POP PUSH1 0x0 PUSH1 0x3 DUP4 DUP2 PUSH2 0x398E PUSH2 0x4E13 JUMP JUMPDEST DUP2 PUSH1 0xFF MUL NOT AND SWAP1 DUP4 ISZERO ISZERO MUL OR SWAP1 PUSH2 0x39A3 PUSH2 0x4E6F JUMP JUMPDEST POP POP POP POP SWAP2 SWAP1 POP JUMP JUMPDEST PUSH1 0x0 DUP1 PUSH1 0x0 DUP1 PUSH1 0x0 JUMPDEST PUSH1 0x1 PUSH1 0x1 PUSH1 0xA0 SHL SUB DUP1 DUP10 AND PUSH1 0x0 SWAP1 DUP2 MSTORE PUSH1 0x7 PUSH1 0x20 SWAP1 DUP2 MSTORE PUSH1 0x40 DUP1 DUP4 KECCAK256 SWAP4 DUP15 AND DUP4 MSTORE SWAP3 SWAP1 MSTORE SWAP1 DUP2 KECCAK256 PUSH2 0x39E4 PUSH2 0x4E13 JUMP JUMPDEST GT ISZERO PUSH2 0x3AD9 JUMPI PUSH1 0x1 PUSH1 0x1 PUSH1 0xA0 SHL SUB DUP1 DUP10 AND PUSH1 0x0 SWAP1 DUP2 MSTORE PUSH1 0x7 PUSH1 0x20 SWAP1 DUP2 MSTORE PUSH1 0x40 DUP1 DUP4 KECCAK256 SWAP4 DUP15 AND DUP4 MSTORE SWAP3 SWAP1 MSTORE KECCAK256 PUSH2 0x3A17 PUSH2 0x4E13 JUMP JUMPDEST PUSH1 0x0 DUP2 DUP2 MSTORE PUSH1 0x2 PUSH1 0x20 DUP2 SWAP1 MSTORE PUSH1 0x40 SWAP1 SWAP2 KECCAK256 SWAP2 SWAP6 POP ADD PUSH2 0x3A34 PUSH2 0x4E13 JUMP JUMPDEST PUSH1 0x0 DUP6 DUP2 MSTORE PUSH1 0x2 PUSH1 0x20 MSTORE PUSH1 0x40 SWAP1 KECCAK256 SWAP1 SWAP3 POP PUSH2 0x3A4D PUSH2 0x4E13 JUMP JUMPDEST SWAP1 POP DUP6 PUSH2 0x3A5B JUMPI PUSH1 0x0 PUSH2 0x3A63 JUMP JUMPDEST DUP1 DUP12 DUP11 DUP5 ADD ADD ADD JUMPDEST PUSH2 0x3A6D DUP13 DUP4 PUSH2 0x4B51 JUMP JUMPDEST ADD PUSH2 0x3A78 DUP4 DUP12 PUSH2 0x4B51 JUMP JUMPDEST GT ISZERO PUSH2 0x3A83 JUMPI PUSH2 0x3AD9 JUMP JUMPDEST PUSH2 0x3A96 DUP5 PUSH2 0x3A91 DUP4 DUP13 PUSH2 0x4D77 JUMP JUMPDEST PUSH2 0x259C JUMP JUMPDEST POP DUP9 SWAP3 POP PUSH2 0x3AA8 DUP10 PUSH2 0xF41 DUP4 DUP13 PUSH2 0x4D77 JUMP JUMPDEST SWAP9 POP DUP3 PUSH2 0x3AB5 DUP11 DUP14 PUSH2 0x4B51 JUMP JUMPDEST DUP2 PUSH2 0x3ABC JUMPI INVALID JUMPDEST DIV SWAP11 POP DUP11 ISZERO DUP1 PUSH2 0x3ACA JUMPI POP DUP9 ISZERO JUMPDEST ISZERO PUSH2 0x3AD4 JUMPI PUSH2 0x3AD9 JUMP JUMPDEST PUSH2 0x39B5 JUMP JUMPDEST PUSH1 0x0 DUP10 GT DUP1 ISZERO PUSH2 0x3AE9 JUMPI POP PUSH1 0x0 DUP12 GT JUMPDEST DUP1 ISZERO PUSH2 0x3B14 JUMPI POP PUSH1 0x1 PUSH1 0x1 PUSH1 0xA0 SHL SUB DUP11 AND PUSH1 0x0 SWAP1 DUP2 MSTORE PUSH1 0x9 PUSH1 0x20 MSTORE PUSH1 0x40 SWAP1 KECCAK256 PUSH2 0x3B10 PUSH2 0x4E13 JUMP JUMPDEST DUP12 LT ISZERO JUMPDEST ISZERO PUSH2 0x3B31 JUMPI PUSH2 0x3B25 DUP12 DUP12 DUP12 DUP12 PUSH2 0x3B3F JUMP JUMPDEST SWAP5 POP PUSH2 0x3B31 DUP6 DUP9 PUSH2 0x2F3A JUMP JUMPDEST POP POP POP POP SWAP7 SWAP6 POP POP POP POP POP POP JUMP JUMPDEST PUSH1 0x0 PUSH2 0x3B49 PUSH2 0x2344 JUMP JUMPDEST ISZERO PUSH2 0x3B53 JUMPI PUSH1 0x0 DUP1 REVERT JUMPDEST PUSH1 0x0 PUSH1 0x3 PUSH2 0x3B5F PUSH2 0x4E13 JUMP JUMPDEST SWAP1 PUSH2 0x100 EXP SWAP1 DIV PUSH1 0xFF AND ISZERO PUSH2 0x3B73 JUMPI PUSH1 0x0 DUP1 REVERT JUMPDEST PUSH1 0x1 PUSH1 0x3 DUP2 DUP2 PUSH2 0x3B81 PUSH2 0x4E13 JUMP JUMPDEST DUP2 PUSH1 0xFF MUL NOT AND SWAP1 DUP4 ISZERO ISZERO MUL OR SWAP1 PUSH2 0x3B96 PUSH2 0x4E6F JUMP JUMPDEST POP POP POP DUP5 DUP6 PUSH1 0x1 PUSH1 0x1 PUSH1 0x80 SHL SUB AND EQ PUSH2 0x3BAE JUMPI PUSH1 0x0 DUP1 REVERT JUMPDEST DUP3 DUP4 PUSH1 0x1 PUSH1 0x1 PUSH1 0x80 SHL SUB AND EQ PUSH2 0x3BC3 JUMPI PUSH1 0x0 DUP1 REVERT JUMPDEST PUSH1 0x0 DUP6 GT PUSH2 0x3BD0 JUMPI PUSH1 0x0 DUP1 REVERT JUMPDEST PUSH1 0x1 PUSH1 0x1 PUSH1 0xA0 SHL SUB DUP5 AND PUSH2 0x3BE3 JUMPI PUSH1 0x0 DUP1 REVERT JUMPDEST PUSH1 0x0 DUP4 GT PUSH2 0x3BF0 JUMPI PUSH1 0x0 DUP1 REVERT JUMPDEST PUSH1 0x1 PUSH1 0x1 PUSH1 0xA0 SHL SUB DUP3 AND PUSH2 0x3C03 JUMPI PUSH1 0x0 DUP1 REVERT JUMPDEST DUP2 PUSH1 0x1 PUSH1 0x1 PUSH1 0xA0 SHL SUB AND DUP5 PUSH1 0x1 PUSH1 0x1 PUSH1 0xA0 SHL SUB AND EQ ISZERO PUSH2 0x3C22 JUMPI PUSH1 0x0 DUP1 REVERT JUMPDEST PUSH2 0x3C2A PUSH2 0x4EA6 JUMP JUMPDEST DUP6 DUP2 MSTORE PUSH1 0x1 PUSH1 0x1 PUSH1 0xA0 SHL SUB DUP1 DUP7 AND PUSH1 0x20 DUP4 ADD MSTORE PUSH1 0x40 DUP3 ADD DUP6 SWAP1 MSTORE DUP4 AND PUSH1 0x60 DUP3 ADD MSTORE GAS PUSH2 0x3C54 PUSH2 0x4E4B JUMP JUMPDEST PUSH1 0x1 PUSH1 0x1 PUSH1 0xA0 SHL SUB AND PUSH1 0x80 DUP3 ADD MSTORE GAS PUSH2 0x3C6B PUSH2 0x4EDB JUMP JUMPDEST PUSH1 0x1 PUSH1 0x1 PUSH1 0x40 SHL SUB AND PUSH1 0xA0 DUP3 ADD MSTORE PUSH2 0x3C81 PUSH2 0x4D8E JUMP JUMPDEST PUSH1 0x0 DUP2 DUP2 MSTORE PUSH1 0x2 PUSH1 0x20 MSTORE PUSH1 0x40 SWAP1 KECCAK256 DUP3 MLOAD SWAP2 SWAP4 POP DUP3 SWAP2 DUP2 PUSH2 0x3C9F PUSH2 0x4E6F JUMP JUMPDEST POP POP PUSH1 0x20 DUP3 ADD MLOAD PUSH1 0x1 DUP1 DUP4 ADD SWAP1 DUP2 PUSH2 0x3CB5 PUSH2 0x4E13 JUMP JUMPDEST DUP2 PUSH1 0x1 PUSH1 0x1 PUSH1 0xA0 SHL SUB MUL NOT AND SWAP1 DUP4 PUSH1 0x1 PUSH1 0x1 PUSH1 0xA0 SHL SUB AND MUL OR SWAP1 PUSH2 0x3CD7 PUSH2 0x4E6F JUMP JUMPDEST POP POP POP PUSH1 0x40 DUP3 ADD MLOAD DUP2 PUSH1 0x2 ADD PUSH2 0x3CEB PUSH2 0x4E6F JUMP JUMPDEST POP POP PUSH1 0x60 DUP3 ADD MLOAD PUSH1 0x3 DUP3 ADD PUSH1 0x1 DUP2 PUSH2 0x3D01 PUSH2 0x4E13 JUMP JUMPDEST DUP2 PUSH1 0x1 PUSH1 0x1 PUSH1 0xA0 SHL SUB MUL NOT AND SWAP1 DUP4 PUSH1 0x1 PUSH1 0x1 PUSH1 0xA0 SHL SUB AND MUL OR SWAP1 PUSH2 0x3D23 PUSH2 0x4E6F JUMP JUMPDEST POP POP POP PUSH1 0x80 DUP3 ADD MLOAD PUSH1 0x4 DUP3 ADD PUSH1 0x1 DUP2 PUSH2 0x3D3A PUSH2 0x4E13 JUMP JUMPDEST DUP2 PUSH1 0x1 PUSH1 0x1 PUSH1 0xA0 SHL SUB MUL NOT AND SWAP1 DUP4 PUSH1 0x1 PUSH1 0x1 PUSH1 0xA0 SHL SUB AND MUL OR SWAP1 PUSH2 0x3D5C PUSH2 0x4E6F JUMP JUMPDEST POP POP POP PUSH1 0xA0 DUP3 ADD MLOAD PUSH1 0x4 DUP3 ADD PUSH1 0x1 PUSH1 0xA0 SHL DUP2 PUSH2 0x3D76 PUSH2 0x4E13 JUMP JUMPDEST DUP2 PUSH1 0x1 PUSH1 0x1 PUSH1 0x40 SHL SUB MUL NOT AND SWAP1 DUP4 PUSH1 0x1 PUSH1 0x1 PUSH1 0x40 SHL SUB AND MUL OR SWAP1 PUSH2 0x3D98 PUSH2 0x4E6F JUMP JUMPDEST POP POP POP SWAP1 POP POP DUP5 PUSH1 0x1 PUSH1 0x1 PUSH1 0xA0 SHL SUB AND PUSH4 0x23B872DD GAS PUSH2 0x3DB6 PUSH2 0x4E4B JUMP JUMPDEST GAS PUSH4 0x996D79A5 PUSH3 0x80000 DUP2 PUSH1 0xE0 SHL DUP2 MSTORE PUSH1 0x20 DUP2 PUSH1 0x4 DUP4 PUSH1 0x0 CALLER GAS CALL DUP1 PUSH2 0x3DDB JUMPI PUSH1 0x0 DUP1 REVERT JUMPDEST POP MLOAD PUSH1 0x40 DUP1 MLOAD PUSH1 0x1 PUSH1 0x1 PUSH1 0xE0 SHL SUB NOT PUSH1 0xE0 DUP9 SWAP1 SHL AND DUP2 MSTORE PUSH1 0x1 PUSH1 0x1 PUSH1 0xA0 SHL SUB SWAP6 DUP7 AND PUSH1 0x4 DUP3 ADD MSTORE SWAP5 SWAP1 SWAP2 AND PUSH1 0x24 DUP6 ADD MSTORE PUSH1 0x44 DUP5 ADD DUP13 SWAP1 MSTORE MLOAD PUSH1 0x64 DUP1 DUP6 ADD SWAP5 PUSH1 0x20 SWAP5 POP SWAP2 SWAP3 POP SWAP1 DUP3 SWAP1 SUB ADD DUP2 PUSH1 0x0 DUP8 DUP1 PUSH2 0x3E32 PUSH2 0x4EFF JUMP JUMPDEST ISZERO DUP1 ISZERO PUSH2 0x3E3E JUMPI PUSH1 0x0 DUP1 REVERT JUMPDEST POP GAS PUSH2 0x3E48 PUSH2 0x4F30 JUMP JUMPDEST POP POP POP POP POP POP ISZERO DUP1 ISZERO PUSH2 0x3E5F JUMPI RETURNDATASIZE PUSH1 0x0 DUP1 RETURNDATACOPY RETURNDATASIZE PUSH1 0x0 REVERT JUMPDEST POP POP POP POP PUSH1 0x40 MLOAD RETURNDATASIZE PUSH1 0x20 DUP2 LT ISZERO PUSH2 0x3E75 JUMPI PUSH1 0x0 DUP1 REVERT JUMPDEST POP MLOAD PUSH2 0x3E80 JUMPI PUSH1 0x0 DUP1 REVERT JUMPDEST PUSH1 0x40 DUP1 MLOAD DUP4 DUP2 MSTORE SWAP1 MLOAD PUSH32 0xA2C251311B1A7A475913900A2A73DC9789A21B04BC737E050BBC506DD4EB3488 SWAP2 DUP2 SWAP1 SUB PUSH1 0x20 ADD SWAP1 LOG1 GAS PUSH2 0x3EBC PUSH2 0x4E4B JUMP JUMPDEST PUSH1 0x1 PUSH1 0x1 PUSH1 0xA0 SHL SUB AND DUP6 DUP5 PUSH1 0x40 MLOAD PUSH1 0x20 ADD DUP1 DUP4 PUSH1 0x1 PUSH1 0x1 PUSH1 0xA0 SHL SUB AND PUSH1 0x1 PUSH1 0x1 PUSH1 0xA0 SHL SUB AND PUSH1 0x60 SHL DUP2 MSTORE PUSH1 0x14 ADD DUP3 PUSH1 0x1 PUSH1 0x1 PUSH1 0xA0 SHL SUB AND PUSH1 0x1 PUSH1 0x1 PUSH1 0xA0 SHL SUB AND PUSH1 0x60 SHL DUP2 MSTORE PUSH1 0x14 ADD SWAP3 POP POP POP PUSH1 0x40 MLOAD PUSH1 0x20 DUP2 DUP4 SUB SUB DUP2 MSTORE SWAP1 PUSH1 0x40 MSTORE DUP1 MLOAD SWAP1 PUSH1 0x20 ADD KECCAK256 DUP4 PUSH1 0x0 SHL PUSH32 0x773FF502687307ABFA024AC9F62F9752A0D210DAC2FFD9A29E38E12E2EA82C82 DUP9 DUP8 DUP12 DUP11 GAS PUSH2 0x3F50 PUSH2 0x4EDB JUMP JUMPDEST PUSH1 0x40 DUP1 MLOAD PUSH1 0x1 PUSH1 0x1 PUSH1 0xA0 SHL SUB SWAP7 DUP8 AND DUP2 MSTORE SWAP5 SWAP1 SWAP6 AND PUSH1 0x20 DUP6 ADD MSTORE PUSH1 0x1 PUSH1 0x1 PUSH1 0x80 SHL SUB SWAP3 DUP4 AND DUP5 DUP7 ADD MSTORE SWAP2 AND PUSH1 0x60 DUP4 ADD MSTORE PUSH1 0x1 PUSH1 0x1 PUSH1 0x40 SHL SUB AND PUSH1 0x80 DUP3 ADD MSTORE SWAP1 MLOAD SWAP1 DUP2 SWAP1 SUB PUSH1 0xA0 ADD SWAP1 LOG4 POP PUSH1 0x0 PUSH1 0x3 PUSH1 0x1 DUP2 PUSH2 0x3FA9 PUSH2 0x4E13 JUMP JUMPDEST DUP2 PUSH1 0xFF MUL NOT AND SWAP1 DUP4 ISZERO ISZERO MUL OR SWAP1 PUSH2 0x3FBE PUSH2 0x4E6F JUMP JUMPDEST POP POP POP SWAP5 SWAP4 POP POP POP POP JUMP JUMPDEST PUSH1 0x0 DUP3 PUSH2 0x3FD5 DUP2 PUSH2 0x1DAB JUMP JUMPDEST PUSH2 0x3FDE JUMPI PUSH1 0x0 DUP1 REVERT JUMPDEST PUSH2 0x3FE6 PUSH2 0x2344 JUMP JUMPDEST ISZERO PUSH2 0x3FF0 JUMPI PUSH1 0x0 DUP1 REVERT JUMPDEST PUSH1 0x0 PUSH1 0x3 PUSH2 0x3FFC PUSH2 0x4E13 JUMP JUMPDEST SWAP1 PUSH2 0x100 EXP SWAP1 DIV PUSH1 0xFF AND ISZERO PUSH2 0x4010 JUMPI PUSH1 0x0 DUP1 REVERT JUMPDEST PUSH1 0x1 PUSH1 0x3 DUP2 DUP2 PUSH2 0x401E PUSH2 0x4E13 JUMP JUMPDEST DUP2 PUSH1 0xFF MUL NOT AND SWAP1 DUP4 ISZERO ISZERO MUL OR SWAP1 PUSH2 0x4033 PUSH2 0x4E6F JUMP JUMPDEST POP POP POP PUSH2 0x403E PUSH2 0x4EA6 JUMP JUMPDEST PUSH1 0x0 DUP6 DUP2 MSTORE PUSH1 0x2 PUSH1 0x20 MSTORE PUSH1 0x40 SWAP1 DUP2 SWAP1 KECCAK256 DUP2 MLOAD PUSH1 0xC0 DUP2 ADD SWAP1 SWAP3 MSTORE DUP2 DUP2 PUSH2 0x4061 PUSH2 0x4E13 JUMP JUMPDEST DUP2 MSTORE PUSH1 0x20 ADD PUSH1 0x0 PUSH1 0x1 DUP4 ADD PUSH2 0x4074 PUSH2 0x4E13 JUMP JUMPDEST PUSH1 0x1 PUSH1 0x1 PUSH1 0xA0 SHL SUB PUSH2 0x100 SWAP3 SWAP1 SWAP3 EXP SWAP1 DIV AND DUP2 MSTORE PUSH1 0x20 ADD PUSH1 0x2 DUP3 ADD PUSH2 0x4097 PUSH2 0x4E13 JUMP JUMPDEST DUP2 MSTORE PUSH1 0x20 ADD PUSH1 0x0 PUSH1 0x3 DUP4 ADD PUSH2 0x40AA PUSH2 0x4E13 JUMP JUMPDEST PUSH1 0x1 PUSH1 0x1 PUSH1 0xA0 SHL SUB PUSH2 0x100 SWAP3 SWAP1 SWAP3 EXP SWAP1 DIV AND DUP2 MSTORE PUSH1 0x20 ADD PUSH1 0x0 PUSH1 0x4 DUP4 ADD PUSH2 0x40CF PUSH2 0x4E13 JUMP JUMPDEST PUSH1 0x1 PUSH1 0x1 PUSH1 0xA0 SHL SUB PUSH2 0x100 SWAP3 SWAP1 SWAP3 EXP SWAP1 DIV AND DUP2 MSTORE PUSH1 0x20 ADD PUSH1 0x14 PUSH1 0x4 DUP4 ADD PUSH2 0x40F4 PUSH2 0x4E13 JUMP JUMPDEST PUSH1 0x1 PUSH1 0x1 PUSH1 0x40 SHL SUB PUSH2 0x100 SWAP3 SWAP1 SWAP3 EXP SWAP1 DIV AND SWAP1 MSTORE POP DUP1 MLOAD PUSH1 0x40 DUP3 ADD MLOAD SWAP2 SWAP3 POP PUSH1 0x0 SWAP2 PUSH2 0x4121 SWAP1 DUP8 SWAP1 PUSH2 0x4B51 JUMP JUMPDEST DUP2 PUSH2 0x4128 JUMPI INVALID JUMPDEST DIV SWAP1 POP DUP1 DUP2 PUSH1 0x1 PUSH1 0x1 PUSH1 0x80 SHL SUB AND EQ PUSH2 0x417E JUMPI PUSH1 0x40 DUP1 MLOAD PUSH3 0x461BCD PUSH1 0xE5 SHL DUP2 MSTORE PUSH1 0x20 PUSH1 0x4 DUP3 ADD MSTORE PUSH1 0x13 PUSH1 0x24 DUP3 ADD MSTORE PUSH19 0x1CDC195B99081A5CC81B9BDD08185B881A5B9D PUSH1 0x6A SHL PUSH1 0x44 DUP3 ADD MSTORE SWAP1 MLOAD SWAP1 DUP2 SWAP1 SUB PUSH1 0x64 ADD SWAP1 REVERT JUMPDEST DUP5 DUP6 PUSH1 0x1 PUSH1 0x1 PUSH1 0x80 SHL SUB AND EQ PUSH2 0x41D4 JUMPI PUSH1 0x40 DUP1 MLOAD PUSH3 0x461BCD PUSH1 0xE5 SHL DUP2 MSTORE PUSH1 0x20 PUSH1 0x4 DUP3 ADD MSTORE PUSH1 0x16 PUSH1 0x24 DUP3 ADD MSTORE PUSH22 0x1C5D585B9D1A5D1E481A5CC81B9BDD08185B881A5B9D PUSH1 0x52 SHL PUSH1 0x44 DUP3 ADD MSTORE SWAP1 MLOAD SWAP1 DUP2 SWAP1 SUB PUSH1 0x64 ADD SWAP1 REVERT JUMPDEST DUP5 ISZERO DUP1 PUSH2 0x41DF JUMPI POP DUP1 ISZERO JUMPDEST DUP1 PUSH2 0x41EA JUMPI POP DUP2 MLOAD DUP6 GT JUMPDEST DUP1 PUSH2 0x41F8 JUMPI POP DUP2 PUSH1 0x40 ADD MLOAD DUP2 GT JUMPDEST ISZERO PUSH2 0x4208 JUMPI PUSH1 0x0 SWAP4 POP POP POP PUSH2 0x4957 JUMP JUMPDEST PUSH1 0x0 PUSH2 0x2710 PUSH2 0x4220 DUP4 PUSH1 0x4 PUSH2 0x421B PUSH2 0x4E13 JUMP JUMPDEST PUSH2 0x4B51 JUMP JUMPDEST DUP2 PUSH2 0x4227 JUMPI INVALID JUMPDEST DIV SWAP1 POP DUP3 PUSH1 0x60 ADD MLOAD PUSH1 0x1 PUSH1 0x1 PUSH1 0xA0 SHL SUB AND PUSH4 0x23B872DD GAS PUSH2 0x4246 PUSH2 0x4E4B JUMP JUMPDEST PUSH1 0x0 PUSH1 0x5 PUSH2 0x4252 PUSH2 0x4E13 JUMP JUMPDEST SWAP1 PUSH2 0x100 EXP SWAP1 DIV PUSH1 0x1 PUSH1 0x1 PUSH1 0xA0 SHL SUB AND DUP5 PUSH1 0x40 MLOAD DUP5 PUSH4 0xFFFFFFFF AND PUSH1 0xE0 SHL DUP2 MSTORE PUSH1 0x4 ADD DUP1 DUP5 PUSH1 0x1 PUSH1 0x1 PUSH1 0xA0 SHL SUB AND PUSH1 0x1 PUSH1 0x1 PUSH1 0xA0 SHL SUB AND DUP2 MSTORE PUSH1 0x20 ADD DUP4 PUSH1 0x1 PUSH1 0x1 PUSH1 0xA0 SHL SUB AND PUSH1 0x1 PUSH1 0x1 PUSH1 0xA0 SHL SUB AND DUP2 MSTORE PUSH1 0x20 ADD DUP3 DUP2 MSTORE PUSH1 0x20 ADD SWAP4 POP POP POP POP PUSH1 0x20 PUSH1 0x40 MLOAD DUP1 DUP4 SUB DUP2 PUSH1 0x0 DUP8 DUP1 PUSH2 0x42C6 PUSH2 0x4EFF JUMP JUMPDEST ISZERO DUP1 ISZERO PUSH2 0x42D2 JUMPI PUSH1 0x0 DUP1 REVERT JUMPDEST POP GAS PUSH2 0x42DC PUSH2 0x4F30 JUMP JUMPDEST POP POP POP POP POP POP ISZERO DUP1 ISZERO PUSH2 0x42F3 JUMPI RETURNDATASIZE PUSH1 0x0 DUP1 RETURNDATACOPY RETURNDATASIZE PUSH1 0x0 REVERT JUMPDEST POP POP POP POP PUSH1 0x40 MLOAD RETURNDATASIZE PUSH1 0x20 DUP2 LT ISZERO PUSH2 0x4309 JUMPI PUSH1 0x0 DUP1 REVERT JUMPDEST POP MLOAD PUSH2 0x435C JUMPI PUSH1 0x40 DUP1 MLOAD PUSH3 0x461BCD PUSH1 0xE5 SHL DUP2 MSTORE PUSH1 0x20 PUSH1 0x4 DUP3 ADD MSTORE PUSH1 0x1F PUSH1 0x24 DUP3 ADD MSTORE PUSH32 0x496E73756666696369656E742066756E647320746F20636F7665722066656500 PUSH1 0x44 DUP3 ADD MSTORE SWAP1 MLOAD SWAP1 DUP2 SWAP1 SUB PUSH1 0x64 ADD SWAP1 REVERT JUMPDEST DUP3 MLOAD PUSH2 0x4368 SWAP1 DUP8 PUSH2 0x2CF0 JUMP JUMPDEST PUSH1 0x0 DUP9 DUP2 MSTORE PUSH1 0x2 PUSH1 0x20 MSTORE PUSH1 0x40 SWAP1 KECCAK256 DUP2 SWAP1 PUSH2 0x4380 PUSH2 0x4E6F JUMP JUMPDEST POP POP POP PUSH2 0x4391 DUP4 PUSH1 0x40 ADD MLOAD DUP4 PUSH2 0x2CF0 JUMP JUMPDEST PUSH1 0x0 DUP9 DUP2 MSTORE PUSH1 0x2 PUSH1 0x20 DUP2 SWAP1 MSTORE PUSH1 0x40 SWAP1 SWAP2 KECCAK256 DUP3 SWAP2 ADD PUSH2 0x43AD PUSH2 0x4E6F JUMP JUMPDEST POP POP POP DUP3 PUSH1 0x60 ADD MLOAD PUSH1 0x1 PUSH1 0x1 PUSH1 0xA0 SHL SUB AND PUSH4 0x23B872DD GAS PUSH2 0x43CC PUSH2 0x4E4B JUMP JUMPDEST DUP6 PUSH1 0x80 ADD MLOAD DUP6 PUSH1 0x40 MLOAD DUP5 PUSH4 0xFFFFFFFF AND PUSH1 0xE0 SHL DUP2 MSTORE PUSH1 0x4 ADD DUP1 DUP5 PUSH1 0x1 PUSH1 0x1 PUSH1 0xA0 SHL SUB AND PUSH1 0x1 PUSH1 0x1 PUSH1 0xA0 SHL SUB AND DUP2 MSTORE PUSH1 0x20 ADD DUP4 PUSH1 0x1 PUSH1 0x1 PUSH1 0xA0 SHL SUB AND PUSH1 0x1 PUSH1 0x1 PUSH1 0xA0 SHL SUB AND DUP2 MSTORE PUSH1 0x20 ADD DUP3 DUP2 MSTORE PUSH1 0x20 ADD SWAP4 POP POP POP POP PUSH1 0x20 PUSH1 0x40 MLOAD DUP1 DUP4 SUB DUP2 PUSH1 0x0 DUP8 DUP1 PUSH2 0x4435 PUSH2 0x4EFF JUMP JUMPDEST ISZERO DUP1 ISZERO PUSH2 0x4441 JUMPI PUSH1 0x0 DUP1 REVERT JUMPDEST POP GAS PUSH2 0x444B PUSH2 0x4F30 JUMP JUMPDEST POP POP POP POP POP POP ISZERO DUP1 ISZERO PUSH2 0x4462 JUMPI RETURNDATASIZE PUSH1 0x0 DUP1 RETURNDATACOPY RETURNDATASIZE PUSH1 0x0 REVERT JUMPDEST POP POP POP POP PUSH1 0x40 MLOAD RETURNDATASIZE PUSH1 0x20 DUP2 LT ISZERO PUSH2 0x4478 JUMPI PUSH1 0x0 DUP1 REVERT JUMPDEST POP MLOAD PUSH2 0x44B5 JUMPI PUSH1 0x40 MLOAD PUSH3 0x461BCD PUSH1 0xE5 SHL DUP2 MSTORE PUSH1 0x4 ADD DUP1 DUP1 PUSH1 0x20 ADD DUP3 DUP2 SUB DUP3 MSTORE PUSH1 0x41 DUP2 MSTORE PUSH1 0x20 ADD DUP1 PUSH2 0x4F8A PUSH1 0x41 SWAP2 CODECOPY PUSH1 0x60 ADD SWAP2 POP POP PUSH1 0x40 MLOAD DUP1 SWAP2 SUB SWAP1 REVERT JUMPDEST DUP3 PUSH1 0x20 ADD MLOAD PUSH1 0x1 PUSH1 0x1 PUSH1 0xA0 SHL SUB AND PUSH4 0xA9059CBB GAS PUSH2 0x44D1 PUSH2 0x4E4B JUMP JUMPDEST DUP9 PUSH1 0x40 MLOAD DUP4 PUSH4 0xFFFFFFFF AND PUSH1 0xE0 SHL DUP2 MSTORE PUSH1 0x4 ADD DUP1 DUP4 PUSH1 0x1 PUSH1 0x1 PUSH1 0xA0 SHL SUB AND PUSH1 0x1 PUSH1 0x1 PUSH1 0xA0 SHL SUB AND DUP2 MSTORE PUSH1 0x20 ADD DUP3 DUP2 MSTORE PUSH1 0x20 ADD SWAP3 POP POP POP PUSH1 0x20 PUSH1 0x40 MLOAD DUP1 DUP4 SUB DUP2 PUSH1 0x0 DUP8 DUP1 PUSH2 0x451C PUSH2 0x4EFF JUMP JUMPDEST ISZERO DUP1 ISZERO PUSH2 0x4528 JUMPI PUSH1 0x0 DUP1 REVERT JUMPDEST POP GAS PUSH2 0x4532 PUSH2 0x4F30 JUMP JUMPDEST POP POP POP POP POP POP ISZERO DUP1 ISZERO PUSH2 0x4549 JUMPI RETURNDATASIZE PUSH1 0x0 DUP1 RETURNDATACOPY RETURNDATASIZE PUSH1 0x0 REVERT JUMPDEST POP POP POP POP PUSH1 0x40 MLOAD RETURNDATASIZE PUSH1 0x20 DUP2 LT ISZERO PUSH2 0x455F JUMPI PUSH1 0x0 DUP1 REVERT JUMPDEST POP MLOAD PUSH2 0x459C JUMPI PUSH1 0x40 MLOAD PUSH3 0x461BCD PUSH1 0xE5 SHL DUP2 MSTORE PUSH1 0x4 ADD DUP1 DUP1 PUSH1 0x20 ADD DUP3 DUP2 SUB DUP3 MSTORE PUSH1 0x33 DUP2 MSTORE PUSH1 0x20 ADD DUP1 PUSH2 0x4FEB PUSH1 0x33 SWAP2 CODECOPY PUSH1 0x40 ADD SWAP2 POP POP PUSH1 0x40 MLOAD DUP1 SWAP2 SUB SWAP1 REVERT JUMPDEST PUSH1 0x40 DUP1 MLOAD DUP9 DUP2 MSTORE SWAP1 MLOAD PUSH32 0xA2C251311B1A7A475913900A2A73DC9789A21B04BC737E050BBC506DD4EB3488 SWAP2 DUP2 SWAP1 SUB PUSH1 0x20 ADD SWAP1 LOG1 GAS PUSH2 0x45D8 PUSH2 0x4E4B JUMP JUMPDEST PUSH1 0x1 PUSH1 0x1 PUSH1 0xA0 SHL SUB AND DUP4 PUSH1 0x80 ADD MLOAD PUSH1 0x1 PUSH1 0x1 PUSH1 0xA0 SHL SUB AND DUP5 PUSH1 0x20 ADD MLOAD DUP6 PUSH1 0x60 ADD MLOAD PUSH1 0x40 MLOAD PUSH1 0x20 ADD DUP1 DUP4 PUSH1 0x1 PUSH1 0x1 PUSH1 0xA0 SHL SUB AND PUSH1 0x1 PUSH1 0x1 PUSH1 0xA0 SHL SUB AND PUSH1 0x60 SHL DUP2 MSTORE PUSH1 0x14 ADD DUP3 PUSH1 0x1 PUSH1 0x1 PUSH1 0xA0 SHL SUB AND PUSH1 0x1 PUSH1 0x1 PUSH1 0xA0 SHL SUB AND PUSH1 0x60 SHL DUP2 MSTORE PUSH1 0x14 ADD SWAP3 POP POP POP PUSH1 0x40 MLOAD PUSH1 0x20 DUP2 DUP4 SUB SUB DUP2 MSTORE SWAP1 PUSH1 0x40 MSTORE DUP1 MLOAD SWAP1 PUSH1 0x20 ADD KECCAK256 PUSH32 0x3383E3357C77FD2E3A4B30DEEA81179BC70A795D053D14D5B7F2F01D0FD4596F DUP11 PUSH1 0x0 SHL DUP8 PUSH1 0x20 ADD MLOAD DUP9 PUSH1 0x60 ADD MLOAD DUP13 DUP10 GAS PUSH2 0x468A PUSH2 0x4EDB JUMP JUMPDEST PUSH1 0x40 DUP1 MLOAD SWAP7 DUP8 MSTORE PUSH1 0x1 PUSH1 0x1 PUSH1 0xA0 SHL SUB SWAP6 DUP7 AND PUSH1 0x20 DUP9 ADD MSTORE SWAP4 SWAP1 SWAP5 AND DUP6 DUP5 ADD MSTORE PUSH1 0x1 PUSH1 0x1 PUSH1 0x80 SHL SUB SWAP2 DUP3 AND PUSH1 0x60 DUP7 ADD MSTORE AND PUSH1 0x80 DUP5 ADD MSTORE PUSH1 0x1 PUSH1 0x1 PUSH1 0x40 SHL SUB SWAP1 SWAP2 AND PUSH1 0xA0 DUP4 ADD MSTORE MLOAD SWAP1 DUP2 SWAP1 SUB PUSH1 0xC0 ADD SWAP1 LOG4 GAS PUSH2 0x46E2 PUSH2 0x4E4B JUMP JUMPDEST PUSH1 0x1 PUSH1 0x1 PUSH1 0xA0 SHL SUB AND DUP4 PUSH1 0x80 ADD MLOAD PUSH1 0x1 PUSH1 0x1 PUSH1 0xA0 SHL SUB AND DUP5 PUSH1 0x20 ADD MLOAD DUP6 PUSH1 0x60 ADD MLOAD PUSH1 0x40 MLOAD PUSH1 0x20 ADD DUP1 DUP4 PUSH1 0x1 PUSH1 0x1 PUSH1 0xA0 SHL SUB AND PUSH1 0x1 PUSH1 0x1 PUSH1 0xA0 SHL SUB AND PUSH1 0x60 SHL DUP2 MSTORE PUSH1 0x14 ADD DUP3 PUSH1 0x1 PUSH1 0x1 PUSH1 0xA0 SHL SUB AND PUSH1 0x1 PUSH1 0x1 PUSH1 0xA0 SHL SUB AND PUSH1 0x60 SHL DUP2 MSTORE PUSH1 0x14 ADD SWAP3 POP POP POP PUSH1 0x40 MLOAD PUSH1 0x20 DUP2 DUP4 SUB SUB DUP2 MSTORE SWAP1 PUSH1 0x40 MSTORE DUP1 MLOAD SWAP1 PUSH1 0x20 ADD KECCAK256 PUSH32 0xAE463BEEED705BDBA735CC0F80A21BC43E39FA85611FBCEB6E509CA190CC6E2 DUP11 PUSH1 0x0 SHL DUP8 PUSH1 0x20 ADD MLOAD DUP9 PUSH1 0x60 ADD MLOAD DUP13 DUP10 DUP10 PUSH1 0x5 PUSH1 0x0 SWAP1 PUSH2 0x4799 PUSH2 0x4E13 JUMP JUMPDEST SWAP1 PUSH2 0x100 EXP SWAP1 DIV PUSH1 0x1 PUSH1 0x1 PUSH1 0xA0 SHL SUB AND GAS PUSH2 0x47B2 PUSH2 0x4EDB JUMP JUMPDEST PUSH1 0x40 DUP1 MLOAD SWAP9 DUP10 MSTORE PUSH1 0x1 PUSH1 0x1 PUSH1 0xA0 SHL SUB SWAP8 DUP9 AND PUSH1 0x20 DUP11 ADD MSTORE SWAP6 DUP8 AND DUP9 DUP8 ADD MSTORE PUSH1 0x1 PUSH1 0x1 PUSH1 0x80 SHL SUB SWAP5 DUP6 AND PUSH1 0x60 DUP10 ADD MSTORE SWAP3 SWAP1 SWAP4 AND PUSH1 0x80 DUP8 ADD MSTORE PUSH1 0xA0 DUP7 ADD MSTORE SWAP3 AND PUSH1 0xC0 DUP5 ADD MSTORE PUSH1 0x1 PUSH1 0x1 PUSH1 0x40 SHL SUB SWAP1 SWAP2 AND PUSH1 0xE0 DUP4 ADD MSTORE MLOAD SWAP1 DUP2 SWAP1 SUB PUSH2 0x100 ADD SWAP1 LOG4 DUP3 PUSH1 0x60 ADD MLOAD PUSH1 0x1 PUSH1 0x1 PUSH1 0xA0 SHL SUB AND DUP4 PUSH1 0x20 ADD MLOAD PUSH1 0x1 PUSH1 0x1 PUSH1 0xA0 SHL SUB AND PUSH32 0x819E390338FEFFE95E2DE57172D6FAF337853DFD15C7A09A32D76F7FD2443875 DUP9 DUP6 PUSH1 0x40 MLOAD DUP1 DUP4 DUP2 MSTORE PUSH1 0x20 ADD DUP3 DUP2 MSTORE PUSH1 0x20 ADD SWAP3 POP POP POP PUSH1 0x40 MLOAD DUP1 SWAP2 SUB SWAP1 LOG3 PUSH1 0x0 DUP8 DUP2 MSTORE PUSH1 0x2 PUSH1 0x20 MSTORE PUSH1 0x40 SWAP1 KECCAK256 PUSH2 0x4881 PUSH2 0x4E13 JUMP JUMPDEST PUSH2 0x494F JUMPI PUSH1 0x0 DUP8 DUP2 MSTORE PUSH1 0x2 PUSH1 0x20 MSTORE PUSH1 0x40 DUP2 KECCAK256 SWAP1 DUP1 DUP3 PUSH2 0x489E PUSH2 0x4E6F JUMP JUMPDEST POP POP PUSH1 0x1 DUP3 DUP2 ADD SWAP1 DUP2 PUSH2 0x48AF PUSH2 0x4E13 JUMP JUMPDEST SWAP1 PUSH1 0x1 PUSH1 0x1 PUSH1 0xA0 SHL SUB MUL NOT AND SWAP1 PUSH2 0x48C4 PUSH2 0x4E6F JUMP JUMPDEST POP POP PUSH1 0x2 DUP3 ADD PUSH1 0x0 SWAP1 PUSH2 0x48D5 PUSH2 0x4E6F JUMP JUMPDEST POP POP PUSH1 0x3 DUP3 ADD PUSH1 0x1 DUP2 PUSH2 0x48E6 PUSH2 0x4E13 JUMP JUMPDEST SWAP1 PUSH1 0x1 PUSH1 0x1 PUSH1 0xA0 SHL SUB MUL NOT AND SWAP1 PUSH2 0x48FB PUSH2 0x4E6F JUMP JUMPDEST POP POP PUSH1 0x4 DUP3 ADD PUSH1 0x1 DUP2 PUSH2 0x490C PUSH2 0x4E13 JUMP JUMPDEST SWAP1 PUSH1 0x1 PUSH1 0x1 PUSH1 0xA0 SHL SUB MUL NOT AND SWAP1 PUSH2 0x4921 PUSH2 0x4E6F JUMP JUMPDEST POP POP PUSH1 0x4 DUP3 ADD PUSH1 0x1 PUSH1 0xA0 SHL DUP2 PUSH2 0x4935 PUSH2 0x4E13 JUMP JUMPDEST SWAP1 PUSH1 0x1 PUSH1 0x1 PUSH1 0x40 SHL SUB MUL NOT AND SWAP1 PUSH2 0x494A PUSH2 0x4E6F JUMP JUMPDEST POP POP POP POP JUMPDEST PUSH1 0x1 SWAP5 POP POP POP POP JUMPDEST PUSH1 0x0 PUSH1 0x3 PUSH1 0x1 DUP2 PUSH2 0x4966 PUSH2 0x4E13 JUMP JUMPDEST DUP2 PUSH1 0xFF MUL NOT AND SWAP1 DUP4 ISZERO ISZERO MUL OR SWAP1 PUSH2 0x497B PUSH2 0x4E6F JUMP JUMPDEST POP POP POP POP SWAP3 SWAP2 POP POP JUMP JUMPDEST PUSH1 0x0 PUSH1 0x1D PUSH1 0x5 PUSH2 0x4993 PUSH2 0x4E13 JUMP JUMPDEST SWAP1 PUSH2 0x100 EXP SWAP1 DIV PUSH1 0xFF AND PUSH2 0x49A6 JUMPI PUSH1 0x0 DUP1 REVERT JUMPDEST PUSH1 0x0 DUP4 DUP2 MSTORE PUSH1 0x2 PUSH1 0x20 MSTORE PUSH1 0x40 SWAP1 KECCAK256 PUSH2 0x49BC PUSH2 0x4E13 JUMP JUMPDEST DUP3 EQ ISZERO PUSH2 0x49EB JUMPI PUSH2 0x49CC DUP4 PUSH2 0x2406 JUMP JUMPDEST ISZERO PUSH2 0x49E0 JUMPI PUSH2 0x49DA DUP4 PUSH2 0x31FC JUMP JUMPDEST POP PUSH2 0x49EB JUMP JUMPDEST PUSH2 0x49E9 DUP4 PUSH2 0x2E1F JUMP JUMPDEST POP JUMPDEST PUSH2 0x49F5 DUP4 DUP4 PUSH2 0x3FC9 JUMP JUMPDEST PUSH2 0x49FE JUMPI PUSH1 0x0 DUP1 REVERT JUMPDEST PUSH2 0x4A07 DUP4 PUSH2 0x1DAB JUMP JUMPDEST DUP1 ISZERO PUSH2 0x4A7D JUMPI POP PUSH1 0x0 DUP4 DUP2 MSTORE PUSH1 0x2 PUSH1 0x20 MSTORE PUSH1 0x40 DUP2 KECCAK256 PUSH1 0x9 SWAP2 SWAP1 DUP2 SWAP1 PUSH1 0x1 ADD PUSH2 0x4A2D PUSH2 0x4E13 JUMP JUMPDEST SWAP1 PUSH2 0x100 EXP SWAP1 DIV PUSH1 0x1 PUSH1 0x1 PUSH1 0xA0 SHL SUB AND PUSH1 0x1 PUSH1 0x1 PUSH1 0xA0 SHL SUB AND PUSH1 0x1 PUSH1 0x1 PUSH1 0xA0 SHL SUB AND DUP2 MSTORE PUSH1 0x20 ADD SWAP1 DUP2 MSTORE PUSH1 0x20 ADD PUSH1 0x0 KECCAK256 PUSH2 0x4A65 PUSH2 0x4E13 JUMP JUMPDEST PUSH1 0x0 DUP5 DUP2 MSTORE PUSH1 0x2 PUSH1 0x20 MSTORE PUSH1 0x40 SWAP1 KECCAK256 PUSH2 0x4A7B PUSH2 0x4E13 JUMP JUMPDEST LT JUMPDEST ISZERO PUSH2 0x4A9C JUMPI DUP3 DUP1 PUSH1 0xC PUSH2 0x4A8E PUSH2 0x4E6F JUMP JUMPDEST POP POP POP PUSH2 0x4A9A DUP4 PUSH2 0x147A JUMP JUMPDEST POP JUMPDEST POP PUSH1 0x1 SWAP3 SWAP2 POP POP JUMP JUMPDEST PUSH1 0x1 PUSH1 0x1 PUSH1 0xA0 SHL SUB DUP4 AND PUSH1 0x0 SWAP1 DUP2 MSTORE PUSH1 0x9 PUSH1 0x20 MSTORE PUSH1 0x40 DUP2 KECCAK256 DUP6 SWAP1 PUSH2 0x4AC7 PUSH2 0x4E13 JUMP JUMPDEST GT ISZERO PUSH2 0x4AD2 JUMPI PUSH1 0x0 DUP1 REVERT JUMPDEST PUSH2 0x4ADE DUP6 DUP6 DUP6 DUP6 PUSH2 0x3B3F JUMP JUMPDEST SWAP1 POP PUSH1 0xB PUSH2 0x4AEA PUSH2 0x4E13 JUMP JUMPDEST PUSH1 0x0 DUP3 DUP2 MSTORE PUSH1 0xA PUSH1 0x20 MSTORE PUSH1 0x40 SWAP1 KECCAK256 DUP2 SWAP1 PUSH2 0x4B02 PUSH2 0x4E6F JUMP JUMPDEST POP POP POP DUP1 PUSH1 0xB DUP2 SWAP1 PUSH2 0x4B12 PUSH2 0x4E6F JUMP JUMPDEST POP POP PUSH1 0x40 DUP1 MLOAD DUP4 DUP2 MSTORE SWAP1 MLOAD PUSH32 0x8173832A493E0A3989E521458E55BFE9FEAC9F9B675A94E100B9D5A85F814862 SWAP3 POP SWAP1 DUP2 SWAP1 SUB PUSH1 0x20 ADD SWAP1 LOG1 SWAP5 SWAP4 POP POP POP POP JUMP JUMPDEST PUSH1 0x0 DUP2 ISZERO DUP1 PUSH2 0x4B6C JUMPI POP POP DUP1 DUP3 MUL DUP3 DUP3 DUP3 DUP2 PUSH2 0x4B69 JUMPI INVALID JUMPDEST DIV EQ JUMPDEST PUSH2 0xE11 JUMPI PUSH1 0x40 DUP1 MLOAD PUSH3 0x461BCD PUSH1 0xE5 SHL DUP2 MSTORE PUSH1 0x20 PUSH1 0x4 DUP3 ADD MSTORE PUSH1 0x14 PUSH1 0x24 DUP3 ADD MSTORE PUSH20 0x64732D6D6174682D6D756C2D6F766572666C6F77 PUSH1 0x60 SHL PUSH1 0x44 DUP3 ADD MSTORE SWAP1 MLOAD SWAP1 DUP2 SWAP1 SUB PUSH1 0x64 ADD SWAP1 REVERT JUMPDEST PUSH1 0x0 DUP1 DUP4 GT PUSH2 0x4BC2 JUMPI PUSH1 0x0 DUP1 REVERT JUMPDEST DUP2 ISZERO DUP1 ISZERO SWAP1 PUSH2 0x4BD7 JUMPI POP PUSH2 0x4BD5 DUP3 PUSH2 0x1DAB JUMP JUMPDEST ISZERO JUMPDEST ISZERO PUSH2 0x4BFC JUMPI PUSH1 0x0 DUP3 DUP2 MSTORE PUSH1 0x6 PUSH1 0x20 MSTORE PUSH1 0x40 SWAP1 KECCAK256 PUSH1 0x1 ADD PUSH2 0x4BF5 PUSH2 0x4E13 JUMP JUMPDEST SWAP2 POP PUSH2 0x4BC2 JUMP JUMPDEST DUP2 PUSH2 0x4C11 JUMPI PUSH2 0x4C0A DUP4 PUSH2 0x4C9E JUMP JUMPDEST SWAP1 POP PUSH2 0xE11 JUMP JUMPDEST PUSH2 0x4C1B DUP4 DUP4 PUSH2 0x4DB9 JUMP JUMPDEST ISZERO PUSH2 0x4C5F JUMPI PUSH1 0x0 JUMPDEST DUP3 ISZERO DUP1 ISZERO SWAP1 PUSH2 0x4C37 JUMPI POP PUSH2 0x4C37 DUP5 DUP5 PUSH2 0x4DB9 JUMP JUMPDEST ISZERO PUSH2 0x4C0A JUMPI POP PUSH1 0x0 DUP3 DUP2 MSTORE PUSH1 0x6 PUSH1 0x20 MSTORE PUSH1 0x40 SWAP1 KECCAK256 DUP3 SWAP1 PUSH1 0x1 ADD PUSH2 0x4C58 PUSH2 0x4E13 JUMP JUMPDEST SWAP3 POP PUSH2 0x4C23 JUMP JUMPDEST DUP2 ISZERO DUP1 ISZERO SWAP1 PUSH2 0x4C75 JUMPI POP PUSH2 0x4C73 DUP4 DUP4 PUSH2 0x4DB9 JUMP JUMPDEST ISZERO JUMPDEST ISZERO PUSH2 0x4C97 JUMPI PUSH1 0x0 DUP3 DUP2 MSTORE PUSH1 0x6 PUSH1 0x20 MSTORE PUSH1 0x40 SWAP1 KECCAK256 PUSH2 0x4C90 PUSH2 0x4E13 JUMP JUMPDEST SWAP2 POP PUSH2 0x4C5F JUMP JUMPDEST POP DUP1 PUSH2 0xE11 JUMP JUMPDEST PUSH1 0x0 DUP1 DUP3 GT PUSH2 0x4CAC JUMPI PUSH1 0x0 DUP1 REVERT JUMPDEST PUSH1 0x0 DUP3 DUP2 MSTORE PUSH1 0x2 PUSH1 0x20 MSTORE PUSH1 0x40 DUP2 KECCAK256 DUP2 SWAP1 PUSH1 0x3 ADD PUSH2 0x4CC7 PUSH2 0x4E13 JUMP JUMPDEST SWAP1 PUSH2 0x100 EXP SWAP1 DIV PUSH1 0x1 PUSH1 0x1 PUSH1 0xA0 SHL SUB AND SWAP1 POP PUSH1 0x0 PUSH1 0x2 PUSH1 0x0 DUP6 DUP2 MSTORE PUSH1 0x20 ADD SWAP1 DUP2 MSTORE PUSH1 0x20 ADD PUSH1 0x0 KECCAK256 PUSH1 0x1 ADD PUSH1 0x0 SWAP1 PUSH2 0x4CFC PUSH2 0x4E13 JUMP JUMPDEST PUSH1 0x1 PUSH1 0x1 PUSH1 0xA0 SHL SUB PUSH2 0x100 SWAP3 SWAP1 SWAP3 EXP SWAP1 DIV DUP2 AND PUSH1 0x0 DUP2 DUP2 MSTORE PUSH1 0x7 PUSH1 0x20 SWAP1 DUP2 MSTORE PUSH1 0x40 DUP1 DUP4 KECCAK256 SWAP5 DUP8 AND DUP4 MSTORE SWAP4 SWAP1 MSTORE SWAP2 DUP3 KECCAK256 SWAP1 SWAP3 POP PUSH2 0x4D36 PUSH2 0x4E13 JUMP JUMPDEST SWAP1 POP PUSH1 0x0 JUMPDEST DUP2 ISZERO DUP1 ISZERO SWAP1 PUSH2 0x4D4F JUMPI POP PUSH2 0x4D4F DUP7 DUP4 PUSH2 0x4DB9 JUMP JUMPDEST ISZERO PUSH2 0x1098 JUMPI POP PUSH1 0x0 DUP2 DUP2 MSTORE PUSH1 0x6 PUSH1 0x20 MSTORE PUSH1 0x40 SWAP1 KECCAK256 DUP2 SWAP1 PUSH1 0x1 ADD PUSH2 0x4D70 PUSH2 0x4E13 JUMP JUMPDEST SWAP2 POP PUSH2 0x4D3B JUMP JUMPDEST PUSH1 0x0 DUP2 DUP4 GT ISZERO PUSH2 0x4D87 JUMPI DUP2 PUSH2 0xE0E JUMP JUMPDEST POP SWAP1 SWAP2 SWAP1 POP JUMP JUMPDEST PUSH1 0x0 PUSH1 0x1 PUSH1 0x0 DUP2 PUSH2 0x4D9D PUSH2 0x4E13 JUMP JUMPDEST SWAP2 PUSH1 0x1 DUP4 ADD SWAP2 POP PUSH2 0x4DAC PUSH2 0x4E6F JUMP JUMPDEST POP POP POP PUSH1 0x1 PUSH2 0x1888 PUSH2 0x4E13 JUMP JUMPDEST PUSH1 0x0 DUP2 DUP2 MSTORE PUSH1 0x2 PUSH1 0x20 DUP2 SWAP1 MSTORE PUSH1 0x40 DUP3 KECCAK256 PUSH2 0x4DEC SWAP2 ADD PUSH2 0x4DD6 PUSH2 0x4E13 JUMP JUMPDEST PUSH1 0x0 DUP6 DUP2 MSTORE PUSH1 0x2 PUSH1 0x20 MSTORE PUSH1 0x40 SWAP1 KECCAK256 PUSH2 0x421B PUSH2 0x4E13 JUMP JUMPDEST PUSH1 0x0 DUP5 DUP2 MSTORE PUSH1 0x2 PUSH1 0x20 DUP2 SWAP1 MSTORE PUSH1 0x40 SWAP1 SWAP2 KECCAK256 PUSH2 0x4E0A SWAP2 ADD PUSH2 0x4DD6 PUSH2 0x4E13 JUMP JUMPDEST LT ISZERO SWAP4 SWAP3 POP POP POP JUMP JUMPDEST PUSH4 0x412CC41 PUSH1 0xE3 SHL PUSH3 0x80000 SWAP1 DUP2 MSTORE PUSH3 0x80004 DUP4 SWAP1 MSTORE PUSH4 0x20966208 SWAP1 PUSH1 0x20 DUP2 PUSH1 0x24 DUP2 PUSH1 0x0 CALLER GAS CALL DUP1 PUSH2 0x4E44 JUMPI PUSH1 0x0 DUP1 REVERT JUMPDEST POP MLOAD SWAP3 POP POP JUMP JUMPDEST PUSH4 0x73509064 PUSH3 0x80000 DUP2 PUSH1 0xE0 SHL DUP2 MSTORE PUSH1 0x20 DUP2 PUSH1 0x4 DUP4 PUSH1 0x0 CALLER GAS CALL DUP1 PUSH2 0x4E44 JUMPI PUSH1 0x0 DUP1 REVERT JUMPDEST PUSH4 0x146E595 PUSH1 0xE5 SHL PUSH3 0x80000 SWAP1 DUP2 MSTORE PUSH3 0x80004 DUP4 SWAP1 MSTORE PUSH3 0x80024 DUP5 SWAP1 MSTORE PUSH4 0x28DCB2A0 SWAP1 PUSH1 0x0 DUP2 PUSH1 0x44 DUP2 DUP4 CALLER GAS CALL DUP1 PUSH2 0x1073 JUMPI PUSH1 0x0 DUP1 REVERT JUMPDEST PUSH1 0x40 DUP1 MLOAD PUSH1 0xC0 DUP2 ADD DUP3 MSTORE PUSH1 0x0 DUP1 DUP3 MSTORE PUSH1 0x20 DUP3 ADD DUP2 SWAP1 MSTORE SWAP2 DUP2 ADD DUP3 SWAP1 MSTORE PUSH1 0x60 DUP2 ADD DUP3 SWAP1 MSTORE PUSH1 0x80 DUP2 ADD DUP3 SWAP1 MSTORE PUSH1 0xA0 DUP2 ADD SWAP2 SWAP1 SWAP2 MSTORE SWAP1 JUMP JUMPDEST PUSH4 0xBDBF8C36 PUSH3 0x80000 DUP2 PUSH1 0xE0 SHL DUP2 MSTORE PUSH1 0x20 DUP2 PUSH1 0x4 DUP4 PUSH1 0x0 CALLER GAS CALL DUP1 PUSH2 0x4E44 JUMPI PUSH1 0x0 DUP1 REVERT JUMPDEST PUSH4 0xC3382D0F PUSH1 0xE0 SHL PUSH3 0x80000 SWAP1 DUP2 MSTORE PUSH3 0x80004 DUP4 SWAP1 MSTORE PUSH4 0xC3382D0F SWAP1 PUSH1 0x20 DUP2 PUSH1 0x24 DUP2 PUSH1 0x0 CALLER GAS CALL DUP1 PUSH2 0x4E44 JUMPI PUSH1 0x0 DUP1 REVERT JUMPDEST PUSH4 0x131B5F21 PUSH1 0xE2 SHL PUSH3 0x80000 SWAP1 DUP2 MSTORE PUSH3 0x80004 DUP5 SWAP1 MSTORE PUSH4 0x4C6D7C84 SWAP1 PUSH1 0x0 JUMPDEST DUP9 DUP2 LT ISZERO PUSH2 0x4F6A JUMPI DUP8 DUP2 ADD MLOAD DUP3 DUP3 ADD PUSH1 0x24 ADD MSTORE PUSH1 0x20 ADD PUSH2 0x4F4F JUMP JUMPDEST POP DUP10 DUP10 DUP10 PUSH1 0x24 ADD DUP4 PUSH1 0x0 CALLER GAS CALL DUP1 PUSH2 0x4F81 JUMPI PUSH1 0x0 DUP1 REVERT JUMPDEST SWAP10 POP POP POP JUMP JUMPDEST INVALID INVALID PUSH16 0x666665722E6275795F67656D2E747261 PUSH15 0x7366657246726F6D286D73672E7365 PUSH15 0x6465722C206F666665722E6F776E65 PUSH19 0x2C207370656E6429206661696C65645265656E PUSH21 0x72616E637920617474656D70740000000000000000 STOP STOP STOP STOP STOP STOP PUSH16 0x666665722E7061795F67656D2E747261 PUSH15 0x73666572286D73672E73656E646572 0x2C KECCAK256 PUSH18 0x75616E7469747929206661696C65644F6666 PUSH6 0x722077617320 PUSH5 0x656C657465 PUSH5 0x206F722074 PUSH2 0x6B65 PUSH15 0x2C206F72206E657665722065786973 PUSH21 0x65642E4F666665722063616E206E6F742062652063 PUSH2 0x6E63 PUSH6 0x6C6C65642062 PUSH6 0x636175736520 PUSH22 0x736572206973206E6F74206F776E65722C20616E6420 PUSH14 0x61726B6574206973206F70656E2C KECCAK256 PUSH2 0x6E64 KECCAK256 PUSH16 0x666665722073656C6C73207265717569 PUSH19 0x656420616D6F756E74206F6620746F6B656E73 0x2E PUSH5 0x732D617574 PUSH9 0x2D756E617574686F72 PUSH10 0x7A656400000000000000 STOP STOP STOP STOP STOP LOG2 PUSH6 0x627A7A723158 KECCAK256 0x4F NUMBER DUP12 0xDA 0xE3 0x2A 0xBD 0x4B ADD SWAP7 SWAP3 0x5C 0xFB PUSH30 0x799EA8C5C13FD3C6B2046AC80152CE29130164736F6C637828302E352E31 CALLDATASIZE 0x2D PUSH5 0x6576656C6F PUSH17 0x2E323032302E372E32392B636F6D6D6974 0x2E CALLDATASIZE ORIGIN PUSH6 0x363465363700 PC "
        },
        "methodIdentifiers": {
          "AqueductAddress()": "6b9d8c4b",
          "AqueductDistributionLive()": "2f90a6fc",
          "WETHAddress()": "0af88b24",
          "_best(address,address)": "74c1d7d3",
          "_dust(address)": "91be90c8",
          "_near(uint256)": "a78d4316",
          "_rank(uint256)": "c2d526aa",
          "_span(address,address)": "677170e1",
          "bump(bytes32)": "779997c3",
          "buy(uint256,uint256)": "d6febde8",
          "buyAllAmount(address,uint256,address,uint256)": "8185402b",
          "buyEnabled()": "f582d293",
          "buyInETH(uint256)": "f057adbb",
          "cancel(uint256)": "40e58ee5",
          "close_time()": "6377ebca",
          "del_rank(uint256)": "467f0b7b",
          "dustId()": "56ad8764",
          "getBestOffer(address,address)": "0374fc6f",
          "getBetterOffer(uint256)": "911550f4",
          "getBuyAmount(address,address,uint256)": "144a2752",
          "getFirstUnsortedOffer()": "8af82a2e",
          "getMinSell(address)": "511fa487",
          "getNextUnsortedOffer(uint256)": "61f54a79",
          "getOffer(uint256)": "4579268a",
          "getOfferCount(address,address)": "7ca9429a",
          "getOwner(uint256)": "c41a360a",
          "getPayAmount(address,address,uint256)": "ff1fd974",
          "getTime()": "557ed1ba",
          "getWorseOffer(uint256)": "943911bc",
          "insert(uint256,uint256)": "1d834a1b",
          "isActive(uint256)": "82afd23b",
          "isClosed()": "c2b6b58c",
          "isOfferSorted(uint256)": "d2b420ce",
          "kill(bytes32)": "b4f9b6c8",
          "last_offer_id()": "232cae0b",
          "make(address,address,uint128,uint128)": "093f5198",
          "matchingEnabled()": "01492a0b",
          "offer(uint256,address,uint256,address)": "f09ea2a6",
          "offer(uint256,address,uint256,address,uint256)": "1b33d412",
          "offer(uint256,address,uint256,address,uint256,bool)": "e1a6f014",
          "offerInETH(uint256,address)": "b73b73fd",
          "offers(uint256)": "8a72ea6a",
          "owner()": "8da5cb5b",
          "sellAllAmount(address,uint256,address,uint256)": "0621b4f6",
          "setAqueductAddress(address)": "be71f5ce",
          "setAqueductDistributionLive(bool)": "a128171b",
          "setBuyEnabled(bool)": "d6f15469",
          "setFeeBPS(uint256)": "604b6a9c",
          "setFeeTo(address)": "f46901ed",
          "setMatchingEnabled(bool)": "2aed1905",
          "setMinSell(address,uint256)": "bf7c734e",
          "setOwner(address)": "13af4035",
          "stop()": "07da68f5",
          "stopped()": "75f12b21",
          "take(bytes32,uint128)": "49606455"
        }
      }
    }
  }
}