{
  "contracts/RubiconMarket.sol": {
    "SimpleMarket": {
      "abi": [
        {
          "inputs": [
            {
              "internalType": "address",
              "name": "_feeTo",
              "type": "address"
            }
          ],
          "payable": false,
          "stateMutability": "nonpayable",
          "type": "constructor"
        },
        {
          "anonymous": false,
          "inputs": [
            {
              "indexed": false,
              "internalType": "bytes32",
              "name": "id",
              "type": "bytes32"
            },
            {
              "indexed": true,
              "internalType": "bytes32",
              "name": "pair",
              "type": "bytes32"
            },
            {
              "indexed": true,
              "internalType": "address",
              "name": "maker",
              "type": "address"
            },
            {
              "indexed": false,
              "internalType": "contract ERC20",
              "name": "pay_gem",
              "type": "address"
            },
            {
              "indexed": false,
              "internalType": "contract ERC20",
              "name": "buy_gem",
              "type": "address"
            },
            {
              "indexed": true,
              "internalType": "address",
              "name": "taker",
              "type": "address"
            },
            {
              "indexed": false,
              "internalType": "uint128",
              "name": "take_amt",
              "type": "uint128"
            },
            {
              "indexed": false,
              "internalType": "uint128",
              "name": "give_amt",
              "type": "uint128"
            },
            {
              "indexed": false,
              "internalType": "uint256",
              "name": "feeAmt",
              "type": "uint256"
            },
            {
              "indexed": false,
              "internalType": "address",
              "name": "feeTo",
              "type": "address"
            },
            {
              "indexed": false,
              "internalType": "uint64",
              "name": "timestamp",
              "type": "uint64"
            }
          ],
          "name": "FeeTake",
          "type": "event"
        },
        {
          "anonymous": false,
          "inputs": [
            {
              "indexed": true,
              "internalType": "bytes32",
              "name": "id",
              "type": "bytes32"
            },
            {
              "indexed": true,
              "internalType": "bytes32",
              "name": "pair",
              "type": "bytes32"
            },
            {
              "indexed": true,
              "internalType": "address",
              "name": "maker",
              "type": "address"
            },
            {
              "indexed": false,
              "internalType": "contract ERC20",
              "name": "pay_gem",
              "type": "address"
            },
            {
              "indexed": false,
              "internalType": "contract ERC20",
              "name": "buy_gem",
              "type": "address"
            },
            {
              "indexed": false,
              "internalType": "uint128",
              "name": "pay_amt",
              "type": "uint128"
            },
            {
              "indexed": false,
              "internalType": "uint128",
              "name": "buy_amt",
              "type": "uint128"
            },
            {
              "indexed": false,
              "internalType": "uint64",
              "name": "timestamp",
              "type": "uint64"
            }
          ],
          "name": "LogBump",
          "type": "event"
        },
        {
          "anonymous": false,
          "inputs": [
            {
              "indexed": false,
              "internalType": "string",
              "name": "lol",
              "type": "string"
            },
            {
              "indexed": false,
              "internalType": "uint256",
              "name": "input",
              "type": "uint256"
            }
          ],
          "name": "LogInt",
          "type": "event"
        },
        {
          "anonymous": false,
          "inputs": [
            {
              "indexed": false,
              "internalType": "uint256",
              "name": "id",
              "type": "uint256"
            }
          ],
          "name": "LogItemUpdate",
          "type": "event"
        },
        {
          "anonymous": false,
          "inputs": [
            {
              "indexed": true,
              "internalType": "bytes32",
              "name": "id",
              "type": "bytes32"
            },
            {
              "indexed": true,
              "internalType": "bytes32",
              "name": "pair",
              "type": "bytes32"
            },
            {
              "indexed": true,
              "internalType": "address",
              "name": "maker",
              "type": "address"
            },
            {
              "indexed": false,
              "internalType": "contract ERC20",
              "name": "pay_gem",
              "type": "address"
            },
            {
              "indexed": false,
              "internalType": "contract ERC20",
              "name": "buy_gem",
              "type": "address"
            },
            {
              "indexed": false,
              "internalType": "uint128",
              "name": "pay_amt",
              "type": "uint128"
            },
            {
              "indexed": false,
              "internalType": "uint128",
              "name": "buy_amt",
              "type": "uint128"
            },
            {
              "indexed": false,
              "internalType": "uint64",
              "name": "timestamp",
              "type": "uint64"
            }
          ],
          "name": "LogKill",
          "type": "event"
        },
        {
          "anonymous": false,
          "inputs": [
            {
              "indexed": true,
              "internalType": "bytes32",
              "name": "id",
              "type": "bytes32"
            },
            {
              "indexed": true,
              "internalType": "bytes32",
              "name": "pair",
              "type": "bytes32"
            },
            {
              "indexed": true,
              "internalType": "address",
              "name": "maker",
              "type": "address"
            },
            {
              "indexed": false,
              "internalType": "contract ERC20",
              "name": "pay_gem",
              "type": "address"
            },
            {
              "indexed": false,
              "internalType": "contract ERC20",
              "name": "buy_gem",
              "type": "address"
            },
            {
              "indexed": false,
              "internalType": "uint128",
              "name": "pay_amt",
              "type": "uint128"
            },
            {
              "indexed": false,
              "internalType": "uint128",
              "name": "buy_amt",
              "type": "uint128"
            },
            {
              "indexed": false,
              "internalType": "uint64",
              "name": "timestamp",
              "type": "uint64"
            }
          ],
          "name": "LogMake",
          "type": "event"
        },
        {
          "anonymous": false,
          "inputs": [
            {
              "indexed": false,
              "internalType": "bytes32",
              "name": "id",
              "type": "bytes32"
            },
            {
              "indexed": true,
              "internalType": "bytes32",
              "name": "pair",
              "type": "bytes32"
            },
            {
              "indexed": true,
              "internalType": "address",
              "name": "maker",
              "type": "address"
            },
            {
              "indexed": false,
              "internalType": "contract ERC20",
              "name": "pay_gem",
              "type": "address"
            },
            {
              "indexed": false,
              "internalType": "contract ERC20",
              "name": "buy_gem",
              "type": "address"
            },
            {
              "indexed": true,
              "internalType": "address",
              "name": "taker",
              "type": "address"
            },
            {
              "indexed": false,
              "internalType": "uint128",
              "name": "take_amt",
              "type": "uint128"
            },
            {
              "indexed": false,
              "internalType": "uint128",
              "name": "give_amt",
              "type": "uint128"
            },
            {
              "indexed": false,
              "internalType": "uint64",
              "name": "timestamp",
              "type": "uint64"
            }
          ],
          "name": "LogTake",
          "type": "event"
        },
        {
          "anonymous": false,
          "inputs": [
            {
              "indexed": false,
              "internalType": "uint256",
              "name": "pay_amt",
              "type": "uint256"
            },
            {
              "indexed": true,
              "internalType": "address",
              "name": "pay_gem",
              "type": "address"
            },
            {
              "indexed": false,
              "internalType": "uint256",
              "name": "buy_amt",
              "type": "uint256"
            },
            {
              "indexed": true,
              "internalType": "address",
              "name": "buy_gem",
              "type": "address"
            }
          ],
          "name": "LogTrade",
          "type": "event"
        },
        {
          "constant": false,
          "inputs": [
            {
              "internalType": "bytes32",
              "name": "id_",
              "type": "bytes32"
            }
          ],
          "name": "bump",
          "outputs": [],
          "payable": false,
          "stateMutability": "nonpayable",
          "type": "function"
        },
        {
          "constant": false,
          "inputs": [
            {
              "internalType": "uint256",
              "name": "id",
              "type": "uint256"
            },
            {
              "internalType": "uint256",
              "name": "quantity",
              "type": "uint256"
            }
          ],
          "name": "buy",
          "outputs": [
            {
              "internalType": "bool",
              "name": "",
              "type": "bool"
            }
          ],
          "payable": false,
          "stateMutability": "nonpayable",
          "type": "function"
        },
        {
          "constant": false,
          "inputs": [
            {
              "internalType": "uint256",
              "name": "id",
              "type": "uint256"
            }
          ],
          "name": "cancel",
          "outputs": [
            {
              "internalType": "bool",
              "name": "success",
              "type": "bool"
            }
          ],
          "payable": false,
          "stateMutability": "nonpayable",
          "type": "function"
        },
        {
          "constant": true,
          "inputs": [
            {
              "internalType": "uint256",
              "name": "id",
              "type": "uint256"
            }
          ],
          "name": "getOffer",
          "outputs": [
            {
              "internalType": "uint256",
              "name": "",
              "type": "uint256"
            },
            {
              "internalType": "contract ERC20",
              "name": "",
              "type": "address"
            },
            {
              "internalType": "uint256",
              "name": "",
              "type": "uint256"
            },
            {
              "internalType": "contract ERC20",
              "name": "",
              "type": "address"
            }
          ],
          "payable": false,
          "stateMutability": "view",
          "type": "function"
        },
        {
          "constant": true,
          "inputs": [
            {
              "internalType": "uint256",
              "name": "id",
              "type": "uint256"
            }
          ],
          "name": "getOwner",
          "outputs": [
            {
              "internalType": "address",
              "name": "owner",
              "type": "address"
            }
          ],
          "payable": false,
          "stateMutability": "view",
          "type": "function"
        },
        {
          "constant": true,
          "inputs": [
            {
              "internalType": "uint256",
              "name": "id",
              "type": "uint256"
            }
          ],
          "name": "isActive",
          "outputs": [
            {
              "internalType": "bool",
              "name": "active",
              "type": "bool"
            }
          ],
          "payable": false,
          "stateMutability": "view",
          "type": "function"
        },
        {
          "constant": false,
          "inputs": [
            {
              "internalType": "bytes32",
              "name": "id",
              "type": "bytes32"
            }
          ],
          "name": "kill",
          "outputs": [],
          "payable": false,
          "stateMutability": "nonpayable",
          "type": "function"
        },
        {
          "constant": true,
          "inputs": [],
          "name": "last_offer_id",
          "outputs": [
            {
              "internalType": "uint256",
              "name": "",
              "type": "uint256"
            }
          ],
          "payable": false,
          "stateMutability": "view",
          "type": "function"
        },
        {
          "constant": false,
          "inputs": [
            {
              "internalType": "contract ERC20",
              "name": "pay_gem",
              "type": "address"
            },
            {
              "internalType": "contract ERC20",
              "name": "buy_gem",
              "type": "address"
            },
            {
              "internalType": "uint128",
              "name": "pay_amt",
              "type": "uint128"
            },
            {
              "internalType": "uint128",
              "name": "buy_amt",
              "type": "uint128"
            }
          ],
          "name": "make",
          "outputs": [
            {
              "internalType": "bytes32",
              "name": "id",
              "type": "bytes32"
            }
          ],
          "payable": false,
          "stateMutability": "nonpayable",
          "type": "function"
        },
        {
          "constant": false,
          "inputs": [
            {
              "internalType": "uint256",
              "name": "pay_amt",
              "type": "uint256"
            },
            {
              "internalType": "contract ERC20",
              "name": "pay_gem",
              "type": "address"
            },
            {
              "internalType": "uint256",
              "name": "buy_amt",
              "type": "uint256"
            },
            {
              "internalType": "contract ERC20",
              "name": "buy_gem",
              "type": "address"
            }
          ],
          "name": "offer",
          "outputs": [
            {
              "internalType": "uint256",
              "name": "id",
              "type": "uint256"
            }
          ],
          "payable": false,
          "stateMutability": "nonpayable",
          "type": "function"
        },
        {
          "constant": true,
          "inputs": [
            {
              "internalType": "uint256",
              "name": "",
              "type": "uint256"
            }
          ],
          "name": "offers",
          "outputs": [
            {
              "internalType": "uint256",
              "name": "pay_amt",
              "type": "uint256"
            },
            {
              "internalType": "contract ERC20",
              "name": "pay_gem",
              "type": "address"
            },
            {
              "internalType": "uint256",
              "name": "buy_amt",
              "type": "uint256"
            },
            {
              "internalType": "contract ERC20",
              "name": "buy_gem",
              "type": "address"
            },
            {
              "internalType": "address",
              "name": "owner",
              "type": "address"
            },
            {
              "internalType": "uint64",
              "name": "timestamp",
              "type": "uint64"
            }
          ],
          "payable": false,
          "stateMutability": "view",
          "type": "function"
        },
        {
          "constant": false,
          "inputs": [
            {
              "internalType": "bytes32",
              "name": "id",
              "type": "bytes32"
            },
            {
              "internalType": "uint128",
              "name": "maxTakeAmount",
              "type": "uint128"
            }
          ],
          "name": "take",
          "outputs": [],
          "payable": false,
          "stateMutability": "nonpayable",
          "type": "function"
        }
      ],
      "evm": {
        "bytecode": {
          "linkReferences": {},
          "object": "608060405234801561001057600080fd5b5060405161152c38038061152c8339818101604052602081101561003357600080fd5b5051600480546001600160a01b0319166001600160a01b0390921691909117905560146003556114c4806100686000396000f3fe608060405234801561001057600080fd5b50600436106100b45760003560e01c806382afd23b1161007157806382afd23b146101e45780638a72ea6a14610201578063b4f9b6c814610267578063c41a360a14610284578063d6febde8146102bd578063f09ea2a6146102e0576100b4565b8063093f5198146100b9578063232cae0b1461011257806340e58ee51461011a5780634579268a1461014b5780634960645514610199578063779997c3146101c7575b600080fd5b610100600480360360808110156100cf57600080fd5b506001600160a01b0381358116916020810135909116906001600160801b036040820135811691606001351661031c565b60408051918252519081900360200190f35b610100610345565b6101376004803603602081101561013057600080fd5b503561034b565b604080519115158252519081900360200190f35b6101686004803603602081101561016157600080fd5b50356106d1565b604080519485526001600160a01b039384166020860152848101929092529091166060830152519081900360800190f35b6101c5600480360360408110156101af57600080fd5b50803590602001356001600160801b031661075d565b005b6101c5600480360360208110156101dd57600080fd5b503561077d565b610137600480360360208110156101fa57600080fd5b5035610877565b61021e6004803603602081101561021757600080fd5b503561089e565b604080519687526001600160a01b03958616602088015286810194909452918416606086015290921660808401526001600160401b0390911660a0830152519081900360c00190f35b6101c56004803603602081101561027d57600080fd5b50356108ed565b6102a16004803603602081101561029a57600080fd5b5035610902565b604080516001600160a01b039092168252519081900360200190f35b610137600480360360408110156102d357600080fd5b5080359060200135610920565b610100600480360360808110156102f657600080fd5b508035906001600160a01b03602082013581169160408101359160609091013516611023565b600061033c836001600160801b031686846001600160801b031687611023565b95945050505050565b60005481565b60008161035781610877565b61036057600080fd5b3361036a82610902565b6001600160a01b03161461037d57600080fd5b60025460ff161561038d57600080fd5b6002805460ff191660011790556103a26113e6565b600160008581526020019081526020016000206040518060c0016040529081600082015481526020016001820160009054906101000a90046001600160a01b03166001600160a01b03166001600160a01b03168152602001600282015481526020016003820160009054906101000a90046001600160a01b03166001600160a01b03166001600160a01b031681526020016004820160009054906101000a90046001600160a01b03166001600160a01b03166001600160a01b031681526020016004820160149054906101000a90046001600160401b03166001600160401b03166001600160401b0316815250509050600160008581526020019081526020016000206000808201600090556001820160006101000a8154906001600160a01b03021916905560028201600090556003820160006101000a8154906001600160a01b0302191690556004820160006101000a8154906001600160a01b0302191690556004820160146101000a8154906001600160401b030219169055505080602001516001600160a01b031663a9059cbb826080015183600001516040518363ffffffff1660e01b815260040180836001600160a01b03166001600160a01b0316815260200182815260200192505050602060405180830381600087803b15801561058c57600080fd5b505af11580156105a0573d6000803e3d6000fd5b505050506040513d60208110156105b657600080fd5b50516105c157600080fd5b6040805185815290517fa2c251311b1a7a475913900a2a73dc9789a21b04bc737e050bbc506dd4eb34889181900360200190a160808101516020808301805160608086018051604080516001600160601b031995851b8616818901529190931b9093166034840152815160288185030181526048840180845281519190960120935190518751838901516001600160a01b0393841690975290821660688501526001600160801b03908116608885015290941660a88301526001600160401b03421660c8830152519290931692909187917f9577941d28fff863bfbee4694a6a4a56fb09e169619189d2eaa750b5b4819995919081900360e80190a450506002805460ff19169055506001919050565b6000806000806106df6113e6565b5050506000928352505060016020818152604092839020835160c0810185528154808252938201546001600160a01b03908116938201849052600283015495820186905260038301548116606083018190526004909301549081166080830152600160a01b90046001600160401b031660a090910152919390929190565b610770826001600160801b038316610920565b61077957600080fd5b5050565b8061078781610877565b61079057600080fd5b6000828152600160208181526040808420600481015481850154600383015484516001600160601b0319606084811b8216838a015283901b1660348201528551602881830301815260488201808852815191890191909120998c90529790965283546002909401546001600160a01b03928316909752811660688601526001600160801b0392831660888601529190941660a88401526001600160401b03600160a01b85041660c8840152905186949190931692909184917f70a14c213064359ede031fd2a1645a11ce2ec825ffe6ab5cfb5b160c3ef4d0a29181900360e80190a4505050565b600090815260016020526040902060040154600160a01b90046001600160401b0316151590565b6001602081905260009182526040909120805491810154600282015460038301546004909301546001600160a01b0392831693919291821691811690600160a01b90046001600160401b031686565b6108f68161034b565b6108ff57600080fd5b50565b6000908152600160205260409020600401546001600160a01b031690565b60008261092c81610877565b61093557600080fd5b60025460ff161561094557600080fd5b6002805460ff1916600117905561095a6113e6565b506000848152600160208181526040808420815160c0810183528154808252948201546001600160a01b039081169482019490945260028201549281018390526003820154841660608201526004909101549283166080820152600160a01b9092046001600160401b031660a0830152909291906109d990879061131f565b816109e057fe5b04905080816001600160801b031614610a36576040805162461bcd60e51b81526020600482015260136024820152721cdc195b99081a5cc81b9bdd08185b881a5b9d606a1b604482015290519081900360640190fd5b84856001600160801b031614610a8c576040805162461bcd60e51b81526020600482015260166024820152751c5d585b9d1a5d1e481a5cc81b9bdd08185b881a5b9d60521b604482015290519081900360640190fd5b841580610a97575080155b80610aa25750815185115b80610ab05750816040015181115b15610ac057600093505050611012565b6000612710610ad18360035461131f565b81610ad857fe5b606085015160048054604080516323b872dd60e01b815233938101939093526001600160a01b039182166024840152949093046044820181905293519394509116916323b872dd916064808201926020929091908290030181600087803b158015610b4257600080fd5b505af1158015610b56573d6000803e3d6000fd5b505050506040513d6020811015610b6c57600080fd5b5051610bbf576040805162461bcd60e51b815260206004820152601f60248201527f496e73756666696369656e742066756e647320746f20636f7665722066656500604482015290519081900360640190fd5b8251610bcb9087611388565b6000888152600160205260409081902091909155830151610bec9083611388565b6000888152600160209081526040808320600201939093556060860151608087015184516323b872dd60e01b81523360048201526001600160a01b0391821660248201526044810188905294519116936323b872dd9360648083019493928390030190829087803b158015610c6057600080fd5b505af1158015610c74573d6000803e3d6000fd5b505050506040513d6020811015610c8a57600080fd5b5051610cc75760405162461bcd60e51b815260040180806020018281038252604181526020018061141c6041913960600191505060405180910390fd5b6020808401516040805163a9059cbb60e01b8152336004820152602481018a905290516001600160a01b039092169263a9059cbb926044808401938290030181600087803b158015610d1857600080fd5b505af1158015610d2c573d6000803e3d6000fd5b505050506040513d6020811015610d4257600080fd5b5051610d7f5760405162461bcd60e51b815260040180806020018281038252603381526020018061145d6033913960400191505060405180910390fd5b6040805188815290517fa2c251311b1a7a475913900a2a73dc9789a21b04bc737e050bbc506dd4eb34889181900360200190a160808301516020808501805160608088018051604080516001600160601b031995851b8616818901529190931b909316603484015281516028818503018152604884018084528151919096012093519051948d90526001600160a01b03908116606884015293841660888301526001600160801b03808c1660a8840152871660c88301526001600160401b03421660e8830152513394909316927f3383e3357c77fd2e3a4b30deea81179bc70a795d053d14d5b7f2f01d0fd4596f918190036101080190a460808301516020808501805160608088018051604080516001600160601b031995851b8616818901529190931b909316603484015281516028818503018152604884018084528151919096012093519051600454958e90526001600160a01b039182166068850152811660888401526001600160801b03808d1660a8850152881660c884015260e883018790529384166101088301526001600160401b034216610128830152513394909316927f0ae463beeed705bdba735cc0f80a21bc43e39fa85611fbceb6e509ca190cc6e2918190036101480190a482606001516001600160a01b031683602001516001600160a01b03167f819e390338feffe95e2de57172d6faf337853dfd15c7a09a32d76f7fd24438758885604051808381526020018281526020019250505060405180910390a360008781526001602052604090205461100a576000878152600160208190526040822082815590810180546001600160a01b0319908116909155600282019290925560038101805490921690915560040180546001600160e01b03191690555b600194505050505b506002805460ff1916905592915050565b60025460009060ff161561103657600080fd5b6002805460ff191660011790556001600160801b038516851461105857600080fd5b82836001600160801b03161461106d57600080fd5b6000851161107a57600080fd5b6001600160a01b03841661108d57600080fd5b6000831161109a57600080fd5b6001600160a01b0382166110ad57600080fd5b816001600160a01b0316846001600160a01b031614156110cc57600080fd5b6110d46113e6565b8581526001600160a01b03808616602083015260408201859052831660608201523360808201526001600160401b03421660a08201526111126113d8565b6000818152600160208181526040808420865181558287015193810180546001600160a01b039586166001600160a01b031991821617909155828801516002830155606088015160038301805491871691831691909117905560808801516004928301805460a08b01516001600160401b0316600160a01b0267ffffffffffffffff60a01b1993891691909416179190911691909117905581516323b872dd60e01b81523391810191909152306024820152604481018c90529051949650918916936323b872dd936064808501948390030190829087803b1580156111f657600080fd5b505af115801561120a573d6000803e3d6000fd5b505050506040513d602081101561122057600080fd5b505161122b57600080fd5b6040805183815290517fa2c251311b1a7a475913900a2a73dc9789a21b04bc737e050bbc506dd4eb34889181900360200190a1604080516001600160601b0319606088811b82166020808501919091529087901b90911660348301528251602881840301815260488301808552815191909201206001600160a01b0389811690925290861660688301526001600160801b03808a166088840152871660a88301526001600160401b03421660c8830152915133929185917f773ff502687307abfa024ac9f62f9752a0d210dac2ffd9a29e38e12e2ea82c829181900360e80190a4506002805460ff19169055949350505050565b600081158061133a5750508082028282828161133757fe5b04145b611382576040805162461bcd60e51b815260206004820152601460248201527364732d6d6174682d6d756c2d6f766572666c6f7760601b604482015290519081900360640190fd5b92915050565b80820382811115611382576040805162461bcd60e51b815260206004820152601560248201527464732d6d6174682d7375622d756e646572666c6f7760581b604482015290519081900360640190fd5b600080546001019081905590565b6040805160c081018252600080825260208201819052918101829052606081018290526080810182905260a08101919091529056fe6f666665722e6275795f67656d2e7472616e7366657246726f6d286d73672e73656e6465722c206f666665722e6f776e65722c207370656e6429206661696c65646f666665722e7061795f67656d2e7472616e73666572286d73672e73656e6465722c207175616e7469747929206661696c6564a265627a7a72315820f5f553c11b37c086dbe4a01beeb1ad3e24f1b33c700594cf4ab97903cfdd474d64736f6c63430005100032",
          "opcodes": "PUSH1 0x80 PUSH1 0x40 MSTORE CALLVALUE DUP1 ISZERO PUSH2 0x10 JUMPI PUSH1 0x0 DUP1 REVERT JUMPDEST POP PUSH1 0x40 MLOAD PUSH2 0x152C CODESIZE SUB DUP1 PUSH2 0x152C DUP4 CODECOPY DUP2 DUP2 ADD PUSH1 0x40 MSTORE PUSH1 0x20 DUP2 LT ISZERO PUSH2 0x33 JUMPI PUSH1 0x0 DUP1 REVERT JUMPDEST POP MLOAD PUSH1 0x4 DUP1 SLOAD PUSH1 0x1 PUSH1 0x1 PUSH1 0xA0 SHL SUB NOT AND PUSH1 0x1 PUSH1 0x1 PUSH1 0xA0 SHL SUB SWAP1 SWAP3 AND SWAP2 SWAP1 SWAP2 OR SWAP1 SSTORE PUSH1 0x14 PUSH1 0x3 SSTORE PUSH2 0x14C4 DUP1 PUSH2 0x68 PUSH1 0x0 CODECOPY PUSH1 0x0 RETURN INVALID PUSH1 0x80 PUSH1 0x40 MSTORE CALLVALUE DUP1 ISZERO PUSH2 0x10 JUMPI PUSH1 0x0 DUP1 REVERT JUMPDEST POP PUSH1 0x4 CALLDATASIZE LT PUSH2 0xB4 JUMPI PUSH1 0x0 CALLDATALOAD PUSH1 0xE0 SHR DUP1 PUSH4 0x82AFD23B GT PUSH2 0x71 JUMPI DUP1 PUSH4 0x82AFD23B EQ PUSH2 0x1E4 JUMPI DUP1 PUSH4 0x8A72EA6A EQ PUSH2 0x201 JUMPI DUP1 PUSH4 0xB4F9B6C8 EQ PUSH2 0x267 JUMPI DUP1 PUSH4 0xC41A360A EQ PUSH2 0x284 JUMPI DUP1 PUSH4 0xD6FEBDE8 EQ PUSH2 0x2BD JUMPI DUP1 PUSH4 0xF09EA2A6 EQ PUSH2 0x2E0 JUMPI PUSH2 0xB4 JUMP JUMPDEST DUP1 PUSH4 0x93F5198 EQ PUSH2 0xB9 JUMPI DUP1 PUSH4 0x232CAE0B EQ PUSH2 0x112 JUMPI DUP1 PUSH4 0x40E58EE5 EQ PUSH2 0x11A JUMPI DUP1 PUSH4 0x4579268A EQ PUSH2 0x14B JUMPI DUP1 PUSH4 0x49606455 EQ PUSH2 0x199 JUMPI DUP1 PUSH4 0x779997C3 EQ PUSH2 0x1C7 JUMPI JUMPDEST PUSH1 0x0 DUP1 REVERT JUMPDEST PUSH2 0x100 PUSH1 0x4 DUP1 CALLDATASIZE SUB PUSH1 0x80 DUP2 LT ISZERO PUSH2 0xCF JUMPI PUSH1 0x0 DUP1 REVERT JUMPDEST POP PUSH1 0x1 PUSH1 0x1 PUSH1 0xA0 SHL SUB DUP2 CALLDATALOAD DUP2 AND SWAP2 PUSH1 0x20 DUP2 ADD CALLDATALOAD SWAP1 SWAP2 AND SWAP1 PUSH1 0x1 PUSH1 0x1 PUSH1 0x80 SHL SUB PUSH1 0x40 DUP3 ADD CALLDATALOAD DUP2 AND SWAP2 PUSH1 0x60 ADD CALLDATALOAD AND PUSH2 0x31C JUMP JUMPDEST PUSH1 0x40 DUP1 MLOAD SWAP2 DUP3 MSTORE MLOAD SWAP1 DUP2 SWAP1 SUB PUSH1 0x20 ADD SWAP1 RETURN JUMPDEST PUSH2 0x100 PUSH2 0x345 JUMP JUMPDEST PUSH2 0x137 PUSH1 0x4 DUP1 CALLDATASIZE SUB PUSH1 0x20 DUP2 LT ISZERO PUSH2 0x130 JUMPI PUSH1 0x0 DUP1 REVERT JUMPDEST POP CALLDATALOAD PUSH2 0x34B JUMP JUMPDEST PUSH1 0x40 DUP1 MLOAD SWAP2 ISZERO ISZERO DUP3 MSTORE MLOAD SWAP1 DUP2 SWAP1 SUB PUSH1 0x20 ADD SWAP1 RETURN JUMPDEST PUSH2 0x168 PUSH1 0x4 DUP1 CALLDATASIZE SUB PUSH1 0x20 DUP2 LT ISZERO PUSH2 0x161 JUMPI PUSH1 0x0 DUP1 REVERT JUMPDEST POP CALLDATALOAD PUSH2 0x6D1 JUMP JUMPDEST PUSH1 0x40 DUP1 MLOAD SWAP5 DUP6 MSTORE PUSH1 0x1 PUSH1 0x1 PUSH1 0xA0 SHL SUB SWAP4 DUP5 AND PUSH1 0x20 DUP7 ADD MSTORE DUP5 DUP2 ADD SWAP3 SWAP1 SWAP3 MSTORE SWAP1 SWAP2 AND PUSH1 0x60 DUP4 ADD MSTORE MLOAD SWAP1 DUP2 SWAP1 SUB PUSH1 0x80 ADD SWAP1 RETURN JUMPDEST PUSH2 0x1C5 PUSH1 0x4 DUP1 CALLDATASIZE SUB PUSH1 0x40 DUP2 LT ISZERO PUSH2 0x1AF JUMPI PUSH1 0x0 DUP1 REVERT JUMPDEST POP DUP1 CALLDATALOAD SWAP1 PUSH1 0x20 ADD CALLDATALOAD PUSH1 0x1 PUSH1 0x1 PUSH1 0x80 SHL SUB AND PUSH2 0x75D JUMP JUMPDEST STOP JUMPDEST PUSH2 0x1C5 PUSH1 0x4 DUP1 CALLDATASIZE SUB PUSH1 0x20 DUP2 LT ISZERO PUSH2 0x1DD JUMPI PUSH1 0x0 DUP1 REVERT JUMPDEST POP CALLDATALOAD PUSH2 0x77D JUMP JUMPDEST PUSH2 0x137 PUSH1 0x4 DUP1 CALLDATASIZE SUB PUSH1 0x20 DUP2 LT ISZERO PUSH2 0x1FA JUMPI PUSH1 0x0 DUP1 REVERT JUMPDEST POP CALLDATALOAD PUSH2 0x877 JUMP JUMPDEST PUSH2 0x21E PUSH1 0x4 DUP1 CALLDATASIZE SUB PUSH1 0x20 DUP2 LT ISZERO PUSH2 0x217 JUMPI PUSH1 0x0 DUP1 REVERT JUMPDEST POP CALLDATALOAD PUSH2 0x89E JUMP JUMPDEST PUSH1 0x40 DUP1 MLOAD SWAP7 DUP8 MSTORE PUSH1 0x1 PUSH1 0x1 PUSH1 0xA0 SHL SUB SWAP6 DUP7 AND PUSH1 0x20 DUP9 ADD MSTORE DUP7 DUP2 ADD SWAP5 SWAP1 SWAP5 MSTORE SWAP2 DUP5 AND PUSH1 0x60 DUP7 ADD MSTORE SWAP1 SWAP3 AND PUSH1 0x80 DUP5 ADD MSTORE PUSH1 0x1 PUSH1 0x1 PUSH1 0x40 SHL SUB SWAP1 SWAP2 AND PUSH1 0xA0 DUP4 ADD MSTORE MLOAD SWAP1 DUP2 SWAP1 SUB PUSH1 0xC0 ADD SWAP1 RETURN JUMPDEST PUSH2 0x1C5 PUSH1 0x4 DUP1 CALLDATASIZE SUB PUSH1 0x20 DUP2 LT ISZERO PUSH2 0x27D JUMPI PUSH1 0x0 DUP1 REVERT JUMPDEST POP CALLDATALOAD PUSH2 0x8ED JUMP JUMPDEST PUSH2 0x2A1 PUSH1 0x4 DUP1 CALLDATASIZE SUB PUSH1 0x20 DUP2 LT ISZERO PUSH2 0x29A JUMPI PUSH1 0x0 DUP1 REVERT JUMPDEST POP CALLDATALOAD PUSH2 0x902 JUMP JUMPDEST PUSH1 0x40 DUP1 MLOAD PUSH1 0x1 PUSH1 0x1 PUSH1 0xA0 SHL SUB SWAP1 SWAP3 AND DUP3 MSTORE MLOAD SWAP1 DUP2 SWAP1 SUB PUSH1 0x20 ADD SWAP1 RETURN JUMPDEST PUSH2 0x137 PUSH1 0x4 DUP1 CALLDATASIZE SUB PUSH1 0x40 DUP2 LT ISZERO PUSH2 0x2D3 JUMPI PUSH1 0x0 DUP1 REVERT JUMPDEST POP DUP1 CALLDATALOAD SWAP1 PUSH1 0x20 ADD CALLDATALOAD PUSH2 0x920 JUMP JUMPDEST PUSH2 0x100 PUSH1 0x4 DUP1 CALLDATASIZE SUB PUSH1 0x80 DUP2 LT ISZERO PUSH2 0x2F6 JUMPI PUSH1 0x0 DUP1 REVERT JUMPDEST POP DUP1 CALLDATALOAD SWAP1 PUSH1 0x1 PUSH1 0x1 PUSH1 0xA0 SHL SUB PUSH1 0x20 DUP3 ADD CALLDATALOAD DUP2 AND SWAP2 PUSH1 0x40 DUP2 ADD CALLDATALOAD SWAP2 PUSH1 0x60 SWAP1 SWAP2 ADD CALLDATALOAD AND PUSH2 0x1023 JUMP JUMPDEST PUSH1 0x0 PUSH2 0x33C DUP4 PUSH1 0x1 PUSH1 0x1 PUSH1 0x80 SHL SUB AND DUP7 DUP5 PUSH1 0x1 PUSH1 0x1 PUSH1 0x80 SHL SUB AND DUP8 PUSH2 0x1023 JUMP JUMPDEST SWAP6 SWAP5 POP POP POP POP POP JUMP JUMPDEST PUSH1 0x0 SLOAD DUP2 JUMP JUMPDEST PUSH1 0x0 DUP2 PUSH2 0x357 DUP2 PUSH2 0x877 JUMP JUMPDEST PUSH2 0x360 JUMPI PUSH1 0x0 DUP1 REVERT JUMPDEST CALLER PUSH2 0x36A DUP3 PUSH2 0x902 JUMP JUMPDEST PUSH1 0x1 PUSH1 0x1 PUSH1 0xA0 SHL SUB AND EQ PUSH2 0x37D JUMPI PUSH1 0x0 DUP1 REVERT JUMPDEST PUSH1 0x2 SLOAD PUSH1 0xFF AND ISZERO PUSH2 0x38D JUMPI PUSH1 0x0 DUP1 REVERT JUMPDEST PUSH1 0x2 DUP1 SLOAD PUSH1 0xFF NOT AND PUSH1 0x1 OR SWAP1 SSTORE PUSH2 0x3A2 PUSH2 0x13E6 JUMP JUMPDEST PUSH1 0x1 PUSH1 0x0 DUP6 DUP2 MSTORE PUSH1 0x20 ADD SWAP1 DUP2 MSTORE PUSH1 0x20 ADD PUSH1 0x0 KECCAK256 PUSH1 0x40 MLOAD DUP1 PUSH1 0xC0 ADD PUSH1 0x40 MSTORE SWAP1 DUP2 PUSH1 0x0 DUP3 ADD SLOAD DUP2 MSTORE PUSH1 0x20 ADD PUSH1 0x1 DUP3 ADD PUSH1 0x0 SWAP1 SLOAD SWAP1 PUSH2 0x100 EXP SWAP1 DIV PUSH1 0x1 PUSH1 0x1 PUSH1 0xA0 SHL SUB AND PUSH1 0x1 PUSH1 0x1 PUSH1 0xA0 SHL SUB AND PUSH1 0x1 PUSH1 0x1 PUSH1 0xA0 SHL SUB AND DUP2 MSTORE PUSH1 0x20 ADD PUSH1 0x2 DUP3 ADD SLOAD DUP2 MSTORE PUSH1 0x20 ADD PUSH1 0x3 DUP3 ADD PUSH1 0x0 SWAP1 SLOAD SWAP1 PUSH2 0x100 EXP SWAP1 DIV PUSH1 0x1 PUSH1 0x1 PUSH1 0xA0 SHL SUB AND PUSH1 0x1 PUSH1 0x1 PUSH1 0xA0 SHL SUB AND PUSH1 0x1 PUSH1 0x1 PUSH1 0xA0 SHL SUB AND DUP2 MSTORE PUSH1 0x20 ADD PUSH1 0x4 DUP3 ADD PUSH1 0x0 SWAP1 SLOAD SWAP1 PUSH2 0x100 EXP SWAP1 DIV PUSH1 0x1 PUSH1 0x1 PUSH1 0xA0 SHL SUB AND PUSH1 0x1 PUSH1 0x1 PUSH1 0xA0 SHL SUB AND PUSH1 0x1 PUSH1 0x1 PUSH1 0xA0 SHL SUB AND DUP2 MSTORE PUSH1 0x20 ADD PUSH1 0x4 DUP3 ADD PUSH1 0x14 SWAP1 SLOAD SWAP1 PUSH2 0x100 EXP SWAP1 DIV PUSH1 0x1 PUSH1 0x1 PUSH1 0x40 SHL SUB AND PUSH1 0x1 PUSH1 0x1 PUSH1 0x40 SHL SUB AND PUSH1 0x1 PUSH1 0x1 PUSH1 0x40 SHL SUB AND DUP2 MSTORE POP POP SWAP1 POP PUSH1 0x1 PUSH1 0x0 DUP6 DUP2 MSTORE PUSH1 0x20 ADD SWAP1 DUP2 MSTORE PUSH1 0x20 ADD PUSH1 0x0 KECCAK256 PUSH1 0x0 DUP1 DUP3 ADD PUSH1 0x0 SWAP1 SSTORE PUSH1 0x1 DUP3 ADD PUSH1 0x0 PUSH2 0x100 EXP DUP2 SLOAD SWAP1 PUSH1 0x1 PUSH1 0x1 PUSH1 0xA0 SHL SUB MUL NOT AND SWAP1 SSTORE PUSH1 0x2 DUP3 ADD PUSH1 0x0 SWAP1 SSTORE PUSH1 0x3 DUP3 ADD PUSH1 0x0 PUSH2 0x100 EXP DUP2 SLOAD SWAP1 PUSH1 0x1 PUSH1 0x1 PUSH1 0xA0 SHL SUB MUL NOT AND SWAP1 SSTORE PUSH1 0x4 DUP3 ADD PUSH1 0x0 PUSH2 0x100 EXP DUP2 SLOAD SWAP1 PUSH1 0x1 PUSH1 0x1 PUSH1 0xA0 SHL SUB MUL NOT AND SWAP1 SSTORE PUSH1 0x4 DUP3 ADD PUSH1 0x14 PUSH2 0x100 EXP DUP2 SLOAD SWAP1 PUSH1 0x1 PUSH1 0x1 PUSH1 0x40 SHL SUB MUL NOT AND SWAP1 SSTORE POP POP DUP1 PUSH1 0x20 ADD MLOAD PUSH1 0x1 PUSH1 0x1 PUSH1 0xA0 SHL SUB AND PUSH4 0xA9059CBB DUP3 PUSH1 0x80 ADD MLOAD DUP4 PUSH1 0x0 ADD MLOAD PUSH1 0x40 MLOAD DUP4 PUSH4 0xFFFFFFFF AND PUSH1 0xE0 SHL DUP2 MSTORE PUSH1 0x4 ADD DUP1 DUP4 PUSH1 0x1 PUSH1 0x1 PUSH1 0xA0 SHL SUB AND PUSH1 0x1 PUSH1 0x1 PUSH1 0xA0 SHL SUB AND DUP2 MSTORE PUSH1 0x20 ADD DUP3 DUP2 MSTORE PUSH1 0x20 ADD SWAP3 POP POP POP PUSH1 0x20 PUSH1 0x40 MLOAD DUP1 DUP4 SUB DUP2 PUSH1 0x0 DUP8 DUP1 EXTCODESIZE ISZERO DUP1 ISZERO PUSH2 0x58C JUMPI PUSH1 0x0 DUP1 REVERT JUMPDEST POP GAS CALL ISZERO DUP1 ISZERO PUSH2 0x5A0 JUMPI RETURNDATASIZE PUSH1 0x0 DUP1 RETURNDATACOPY RETURNDATASIZE PUSH1 0x0 REVERT JUMPDEST POP POP POP POP PUSH1 0x40 MLOAD RETURNDATASIZE PUSH1 0x20 DUP2 LT ISZERO PUSH2 0x5B6 JUMPI PUSH1 0x0 DUP1 REVERT JUMPDEST POP MLOAD PUSH2 0x5C1 JUMPI PUSH1 0x0 DUP1 REVERT JUMPDEST PUSH1 0x40 DUP1 MLOAD DUP6 DUP2 MSTORE SWAP1 MLOAD PUSH32 0xA2C251311B1A7A475913900A2A73DC9789A21B04BC737E050BBC506DD4EB3488 SWAP2 DUP2 SWAP1 SUB PUSH1 0x20 ADD SWAP1 LOG1 PUSH1 0x80 DUP2 ADD MLOAD PUSH1 0x20 DUP1 DUP4 ADD DUP1 MLOAD PUSH1 0x60 DUP1 DUP7 ADD DUP1 MLOAD PUSH1 0x40 DUP1 MLOAD PUSH1 0x1 PUSH1 0x1 PUSH1 0x60 SHL SUB NOT SWAP6 DUP6 SHL DUP7 AND DUP2 DUP10 ADD MSTORE SWAP2 SWAP1 SWAP4 SHL SWAP1 SWAP4 AND PUSH1 0x34 DUP5 ADD MSTORE DUP2 MLOAD PUSH1 0x28 DUP2 DUP6 SUB ADD DUP2 MSTORE PUSH1 0x48 DUP5 ADD DUP1 DUP5 MSTORE DUP2 MLOAD SWAP2 SWAP1 SWAP7 ADD KECCAK256 SWAP4 MLOAD SWAP1 MLOAD DUP8 MLOAD DUP4 DUP10 ADD MLOAD PUSH1 0x1 PUSH1 0x1 PUSH1 0xA0 SHL SUB SWAP4 DUP5 AND SWAP1 SWAP8 MSTORE SWAP1 DUP3 AND PUSH1 0x68 DUP6 ADD MSTORE PUSH1 0x1 PUSH1 0x1 PUSH1 0x80 SHL SUB SWAP1 DUP2 AND PUSH1 0x88 DUP6 ADD MSTORE SWAP1 SWAP5 AND PUSH1 0xA8 DUP4 ADD MSTORE PUSH1 0x1 PUSH1 0x1 PUSH1 0x40 SHL SUB TIMESTAMP AND PUSH1 0xC8 DUP4 ADD MSTORE MLOAD SWAP3 SWAP1 SWAP4 AND SWAP3 SWAP1 SWAP2 DUP8 SWAP2 PUSH32 0x9577941D28FFF863BFBEE4694A6A4A56FB09E169619189D2EAA750B5B4819995 SWAP2 SWAP1 DUP2 SWAP1 SUB PUSH1 0xE8 ADD SWAP1 LOG4 POP POP PUSH1 0x2 DUP1 SLOAD PUSH1 0xFF NOT AND SWAP1 SSTORE POP PUSH1 0x1 SWAP2 SWAP1 POP JUMP JUMPDEST PUSH1 0x0 DUP1 PUSH1 0x0 DUP1 PUSH2 0x6DF PUSH2 0x13E6 JUMP JUMPDEST POP POP POP PUSH1 0x0 SWAP3 DUP4 MSTORE POP POP PUSH1 0x1 PUSH1 0x20 DUP2 DUP2 MSTORE PUSH1 0x40 SWAP3 DUP4 SWAP1 KECCAK256 DUP4 MLOAD PUSH1 0xC0 DUP2 ADD DUP6 MSTORE DUP2 SLOAD DUP1 DUP3 MSTORE SWAP4 DUP3 ADD SLOAD PUSH1 0x1 PUSH1 0x1 PUSH1 0xA0 SHL SUB SWAP1 DUP2 AND SWAP4 DUP3 ADD DUP5 SWAP1 MSTORE PUSH1 0x2 DUP4 ADD SLOAD SWAP6 DUP3 ADD DUP7 SWAP1 MSTORE PUSH1 0x3 DUP4 ADD SLOAD DUP2 AND PUSH1 0x60 DUP4 ADD DUP2 SWAP1 MSTORE PUSH1 0x4 SWAP1 SWAP4 ADD SLOAD SWAP1 DUP2 AND PUSH1 0x80 DUP4 ADD MSTORE PUSH1 0x1 PUSH1 0xA0 SHL SWAP1 DIV PUSH1 0x1 PUSH1 0x1 PUSH1 0x40 SHL SUB AND PUSH1 0xA0 SWAP1 SWAP2 ADD MSTORE SWAP2 SWAP4 SWAP1 SWAP3 SWAP2 SWAP1 JUMP JUMPDEST PUSH2 0x770 DUP3 PUSH1 0x1 PUSH1 0x1 PUSH1 0x80 SHL SUB DUP4 AND PUSH2 0x920 JUMP JUMPDEST PUSH2 0x779 JUMPI PUSH1 0x0 DUP1 REVERT JUMPDEST POP POP JUMP JUMPDEST DUP1 PUSH2 0x787 DUP2 PUSH2 0x877 JUMP JUMPDEST PUSH2 0x790 JUMPI PUSH1 0x0 DUP1 REVERT JUMPDEST PUSH1 0x0 DUP3 DUP2 MSTORE PUSH1 0x1 PUSH1 0x20 DUP2 DUP2 MSTORE PUSH1 0x40 DUP1 DUP5 KECCAK256 PUSH1 0x4 DUP2 ADD SLOAD DUP2 DUP6 ADD SLOAD PUSH1 0x3 DUP4 ADD SLOAD DUP5 MLOAD PUSH1 0x1 PUSH1 0x1 PUSH1 0x60 SHL SUB NOT PUSH1 0x60 DUP5 DUP2 SHL DUP3 AND DUP4 DUP11 ADD MSTORE DUP4 SWAP1 SHL AND PUSH1 0x34 DUP3 ADD MSTORE DUP6 MLOAD PUSH1 0x28 DUP2 DUP4 SUB ADD DUP2 MSTORE PUSH1 0x48 DUP3 ADD DUP1 DUP9 MSTORE DUP2 MLOAD SWAP2 DUP10 ADD SWAP2 SWAP1 SWAP2 KECCAK256 SWAP10 DUP13 SWAP1 MSTORE SWAP8 SWAP1 SWAP7 MSTORE DUP4 SLOAD PUSH1 0x2 SWAP1 SWAP5 ADD SLOAD PUSH1 0x1 PUSH1 0x1 PUSH1 0xA0 SHL SUB SWAP3 DUP4 AND SWAP1 SWAP8 MSTORE DUP2 AND PUSH1 0x68 DUP7 ADD MSTORE PUSH1 0x1 PUSH1 0x1 PUSH1 0x80 SHL SUB SWAP3 DUP4 AND PUSH1 0x88 DUP7 ADD MSTORE SWAP2 SWAP1 SWAP5 AND PUSH1 0xA8 DUP5 ADD MSTORE PUSH1 0x1 PUSH1 0x1 PUSH1 0x40 SHL SUB PUSH1 0x1 PUSH1 0xA0 SHL DUP6 DIV AND PUSH1 0xC8 DUP5 ADD MSTORE SWAP1 MLOAD DUP7 SWAP5 SWAP2 SWAP1 SWAP4 AND SWAP3 SWAP1 SWAP2 DUP5 SWAP2 PUSH32 0x70A14C213064359EDE031FD2A1645A11CE2EC825FFE6AB5CFB5B160C3EF4D0A2 SWAP2 DUP2 SWAP1 SUB PUSH1 0xE8 ADD SWAP1 LOG4 POP POP POP JUMP JUMPDEST PUSH1 0x0 SWAP1 DUP2 MSTORE PUSH1 0x1 PUSH1 0x20 MSTORE PUSH1 0x40 SWAP1 KECCAK256 PUSH1 0x4 ADD SLOAD PUSH1 0x1 PUSH1 0xA0 SHL SWAP1 DIV PUSH1 0x1 PUSH1 0x1 PUSH1 0x40 SHL SUB AND ISZERO ISZERO SWAP1 JUMP JUMPDEST PUSH1 0x1 PUSH1 0x20 DUP2 SWAP1 MSTORE PUSH1 0x0 SWAP2 DUP3 MSTORE PUSH1 0x40 SWAP1 SWAP2 KECCAK256 DUP1 SLOAD SWAP2 DUP2 ADD SLOAD PUSH1 0x2 DUP3 ADD SLOAD PUSH1 0x3 DUP4 ADD SLOAD PUSH1 0x4 SWAP1 SWAP4 ADD SLOAD PUSH1 0x1 PUSH1 0x1 PUSH1 0xA0 SHL SUB SWAP3 DUP4 AND SWAP4 SWAP2 SWAP3 SWAP2 DUP3 AND SWAP2 DUP2 AND SWAP1 PUSH1 0x1 PUSH1 0xA0 SHL SWAP1 DIV PUSH1 0x1 PUSH1 0x1 PUSH1 0x40 SHL SUB AND DUP7 JUMP JUMPDEST PUSH2 0x8F6 DUP2 PUSH2 0x34B JUMP JUMPDEST PUSH2 0x8FF JUMPI PUSH1 0x0 DUP1 REVERT JUMPDEST POP JUMP JUMPDEST PUSH1 0x0 SWAP1 DUP2 MSTORE PUSH1 0x1 PUSH1 0x20 MSTORE PUSH1 0x40 SWAP1 KECCAK256 PUSH1 0x4 ADD SLOAD PUSH1 0x1 PUSH1 0x1 PUSH1 0xA0 SHL SUB AND SWAP1 JUMP JUMPDEST PUSH1 0x0 DUP3 PUSH2 0x92C DUP2 PUSH2 0x877 JUMP JUMPDEST PUSH2 0x935 JUMPI PUSH1 0x0 DUP1 REVERT JUMPDEST PUSH1 0x2 SLOAD PUSH1 0xFF AND ISZERO PUSH2 0x945 JUMPI PUSH1 0x0 DUP1 REVERT JUMPDEST PUSH1 0x2 DUP1 SLOAD PUSH1 0xFF NOT AND PUSH1 0x1 OR SWAP1 SSTORE PUSH2 0x95A PUSH2 0x13E6 JUMP JUMPDEST POP PUSH1 0x0 DUP5 DUP2 MSTORE PUSH1 0x1 PUSH1 0x20 DUP2 DUP2 MSTORE PUSH1 0x40 DUP1 DUP5 KECCAK256 DUP2 MLOAD PUSH1 0xC0 DUP2 ADD DUP4 MSTORE DUP2 SLOAD DUP1 DUP3 MSTORE SWAP5 DUP3 ADD SLOAD PUSH1 0x1 PUSH1 0x1 PUSH1 0xA0 SHL SUB SWAP1 DUP2 AND SWAP5 DUP3 ADD SWAP5 SWAP1 SWAP5 MSTORE PUSH1 0x2 DUP3 ADD SLOAD SWAP3 DUP2 ADD DUP4 SWAP1 MSTORE PUSH1 0x3 DUP3 ADD SLOAD DUP5 AND PUSH1 0x60 DUP3 ADD MSTORE PUSH1 0x4 SWAP1 SWAP2 ADD SLOAD SWAP3 DUP4 AND PUSH1 0x80 DUP3 ADD MSTORE PUSH1 0x1 PUSH1 0xA0 SHL SWAP1 SWAP3 DIV PUSH1 0x1 PUSH1 0x1 PUSH1 0x40 SHL SUB AND PUSH1 0xA0 DUP4 ADD MSTORE SWAP1 SWAP3 SWAP2 SWAP1 PUSH2 0x9D9 SWAP1 DUP8 SWAP1 PUSH2 0x131F JUMP JUMPDEST DUP2 PUSH2 0x9E0 JUMPI INVALID JUMPDEST DIV SWAP1 POP DUP1 DUP2 PUSH1 0x1 PUSH1 0x1 PUSH1 0x80 SHL SUB AND EQ PUSH2 0xA36 JUMPI PUSH1 0x40 DUP1 MLOAD PUSH3 0x461BCD PUSH1 0xE5 SHL DUP2 MSTORE PUSH1 0x20 PUSH1 0x4 DUP3 ADD MSTORE PUSH1 0x13 PUSH1 0x24 DUP3 ADD MSTORE PUSH19 0x1CDC195B99081A5CC81B9BDD08185B881A5B9D PUSH1 0x6A SHL PUSH1 0x44 DUP3 ADD MSTORE SWAP1 MLOAD SWAP1 DUP2 SWAP1 SUB PUSH1 0x64 ADD SWAP1 REVERT JUMPDEST DUP5 DUP6 PUSH1 0x1 PUSH1 0x1 PUSH1 0x80 SHL SUB AND EQ PUSH2 0xA8C JUMPI PUSH1 0x40 DUP1 MLOAD PUSH3 0x461BCD PUSH1 0xE5 SHL DUP2 MSTORE PUSH1 0x20 PUSH1 0x4 DUP3 ADD MSTORE PUSH1 0x16 PUSH1 0x24 DUP3 ADD MSTORE PUSH22 0x1C5D585B9D1A5D1E481A5CC81B9BDD08185B881A5B9D PUSH1 0x52 SHL PUSH1 0x44 DUP3 ADD MSTORE SWAP1 MLOAD SWAP1 DUP2 SWAP1 SUB PUSH1 0x64 ADD SWAP1 REVERT JUMPDEST DUP5 ISZERO DUP1 PUSH2 0xA97 JUMPI POP DUP1 ISZERO JUMPDEST DUP1 PUSH2 0xAA2 JUMPI POP DUP2 MLOAD DUP6 GT JUMPDEST DUP1 PUSH2 0xAB0 JUMPI POP DUP2 PUSH1 0x40 ADD MLOAD DUP2 GT JUMPDEST ISZERO PUSH2 0xAC0 JUMPI PUSH1 0x0 SWAP4 POP POP POP PUSH2 0x1012 JUMP JUMPDEST PUSH1 0x0 PUSH2 0x2710 PUSH2 0xAD1 DUP4 PUSH1 0x3 SLOAD PUSH2 0x131F JUMP JUMPDEST DUP2 PUSH2 0xAD8 JUMPI INVALID JUMPDEST PUSH1 0x60 DUP6 ADD MLOAD PUSH1 0x4 DUP1 SLOAD PUSH1 0x40 DUP1 MLOAD PUSH4 0x23B872DD PUSH1 0xE0 SHL DUP2 MSTORE CALLER SWAP4 DUP2 ADD SWAP4 SWAP1 SWAP4 MSTORE PUSH1 0x1 PUSH1 0x1 PUSH1 0xA0 SHL SUB SWAP2 DUP3 AND PUSH1 0x24 DUP5 ADD MSTORE SWAP5 SWAP1 SWAP4 DIV PUSH1 0x44 DUP3 ADD DUP2 SWAP1 MSTORE SWAP4 MLOAD SWAP4 SWAP5 POP SWAP2 AND SWAP2 PUSH4 0x23B872DD SWAP2 PUSH1 0x64 DUP1 DUP3 ADD SWAP3 PUSH1 0x20 SWAP3 SWAP1 SWAP2 SWAP1 DUP3 SWAP1 SUB ADD DUP2 PUSH1 0x0 DUP8 DUP1 EXTCODESIZE ISZERO DUP1 ISZERO PUSH2 0xB42 JUMPI PUSH1 0x0 DUP1 REVERT JUMPDEST POP GAS CALL ISZERO DUP1 ISZERO PUSH2 0xB56 JUMPI RETURNDATASIZE PUSH1 0x0 DUP1 RETURNDATACOPY RETURNDATASIZE PUSH1 0x0 REVERT JUMPDEST POP POP POP POP PUSH1 0x40 MLOAD RETURNDATASIZE PUSH1 0x20 DUP2 LT ISZERO PUSH2 0xB6C JUMPI PUSH1 0x0 DUP1 REVERT JUMPDEST POP MLOAD PUSH2 0xBBF JUMPI PUSH1 0x40 DUP1 MLOAD PUSH3 0x461BCD PUSH1 0xE5 SHL DUP2 MSTORE PUSH1 0x20 PUSH1 0x4 DUP3 ADD MSTORE PUSH1 0x1F PUSH1 0x24 DUP3 ADD MSTORE PUSH32 0x496E73756666696369656E742066756E647320746F20636F7665722066656500 PUSH1 0x44 DUP3 ADD MSTORE SWAP1 MLOAD SWAP1 DUP2 SWAP1 SUB PUSH1 0x64 ADD SWAP1 REVERT JUMPDEST DUP3 MLOAD PUSH2 0xBCB SWAP1 DUP8 PUSH2 0x1388 JUMP JUMPDEST PUSH1 0x0 DUP9 DUP2 MSTORE PUSH1 0x1 PUSH1 0x20 MSTORE PUSH1 0x40 SWAP1 DUP2 SWAP1 KECCAK256 SWAP2 SWAP1 SWAP2 SSTORE DUP4 ADD MLOAD PUSH2 0xBEC SWAP1 DUP4 PUSH2 0x1388 JUMP JUMPDEST PUSH1 0x0 DUP9 DUP2 MSTORE PUSH1 0x1 PUSH1 0x20 SWAP1 DUP2 MSTORE PUSH1 0x40 DUP1 DUP4 KECCAK256 PUSH1 0x2 ADD SWAP4 SWAP1 SWAP4 SSTORE PUSH1 0x60 DUP7 ADD MLOAD PUSH1 0x80 DUP8 ADD MLOAD DUP5 MLOAD PUSH4 0x23B872DD PUSH1 0xE0 SHL DUP2 MSTORE CALLER PUSH1 0x4 DUP3 ADD MSTORE PUSH1 0x1 PUSH1 0x1 PUSH1 0xA0 SHL SUB SWAP2 DUP3 AND PUSH1 0x24 DUP3 ADD MSTORE PUSH1 0x44 DUP2 ADD DUP9 SWAP1 MSTORE SWAP5 MLOAD SWAP2 AND SWAP4 PUSH4 0x23B872DD SWAP4 PUSH1 0x64 DUP1 DUP4 ADD SWAP5 SWAP4 SWAP3 DUP4 SWAP1 SUB ADD SWAP1 DUP3 SWAP1 DUP8 DUP1 EXTCODESIZE ISZERO DUP1 ISZERO PUSH2 0xC60 JUMPI PUSH1 0x0 DUP1 REVERT JUMPDEST POP GAS CALL ISZERO DUP1 ISZERO PUSH2 0xC74 JUMPI RETURNDATASIZE PUSH1 0x0 DUP1 RETURNDATACOPY RETURNDATASIZE PUSH1 0x0 REVERT JUMPDEST POP POP POP POP PUSH1 0x40 MLOAD RETURNDATASIZE PUSH1 0x20 DUP2 LT ISZERO PUSH2 0xC8A JUMPI PUSH1 0x0 DUP1 REVERT JUMPDEST POP MLOAD PUSH2 0xCC7 JUMPI PUSH1 0x40 MLOAD PUSH3 0x461BCD PUSH1 0xE5 SHL DUP2 MSTORE PUSH1 0x4 ADD DUP1 DUP1 PUSH1 0x20 ADD DUP3 DUP2 SUB DUP3 MSTORE PUSH1 0x41 DUP2 MSTORE PUSH1 0x20 ADD DUP1 PUSH2 0x141C PUSH1 0x41 SWAP2 CODECOPY PUSH1 0x60 ADD SWAP2 POP POP PUSH1 0x40 MLOAD DUP1 SWAP2 SUB SWAP1 REVERT JUMPDEST PUSH1 0x20 DUP1 DUP5 ADD MLOAD PUSH1 0x40 DUP1 MLOAD PUSH4 0xA9059CBB PUSH1 0xE0 SHL DUP2 MSTORE CALLER PUSH1 0x4 DUP3 ADD MSTORE PUSH1 0x24 DUP2 ADD DUP11 SWAP1 MSTORE SWAP1 MLOAD PUSH1 0x1 PUSH1 0x1 PUSH1 0xA0 SHL SUB SWAP1 SWAP3 AND SWAP3 PUSH4 0xA9059CBB SWAP3 PUSH1 0x44 DUP1 DUP5 ADD SWAP4 DUP3 SWAP1 SUB ADD DUP2 PUSH1 0x0 DUP8 DUP1 EXTCODESIZE ISZERO DUP1 ISZERO PUSH2 0xD18 JUMPI PUSH1 0x0 DUP1 REVERT JUMPDEST POP GAS CALL ISZERO DUP1 ISZERO PUSH2 0xD2C JUMPI RETURNDATASIZE PUSH1 0x0 DUP1 RETURNDATACOPY RETURNDATASIZE PUSH1 0x0 REVERT JUMPDEST POP POP POP POP PUSH1 0x40 MLOAD RETURNDATASIZE PUSH1 0x20 DUP2 LT ISZERO PUSH2 0xD42 JUMPI PUSH1 0x0 DUP1 REVERT JUMPDEST POP MLOAD PUSH2 0xD7F JUMPI PUSH1 0x40 MLOAD PUSH3 0x461BCD PUSH1 0xE5 SHL DUP2 MSTORE PUSH1 0x4 ADD DUP1 DUP1 PUSH1 0x20 ADD DUP3 DUP2 SUB DUP3 MSTORE PUSH1 0x33 DUP2 MSTORE PUSH1 0x20 ADD DUP1 PUSH2 0x145D PUSH1 0x33 SWAP2 CODECOPY PUSH1 0x40 ADD SWAP2 POP POP PUSH1 0x40 MLOAD DUP1 SWAP2 SUB SWAP1 REVERT JUMPDEST PUSH1 0x40 DUP1 MLOAD DUP9 DUP2 MSTORE SWAP1 MLOAD PUSH32 0xA2C251311B1A7A475913900A2A73DC9789A21B04BC737E050BBC506DD4EB3488 SWAP2 DUP2 SWAP1 SUB PUSH1 0x20 ADD SWAP1 LOG1 PUSH1 0x80 DUP4 ADD MLOAD PUSH1 0x20 DUP1 DUP6 ADD DUP1 MLOAD PUSH1 0x60 DUP1 DUP9 ADD DUP1 MLOAD PUSH1 0x40 DUP1 MLOAD PUSH1 0x1 PUSH1 0x1 PUSH1 0x60 SHL SUB NOT SWAP6 DUP6 SHL DUP7 AND DUP2 DUP10 ADD MSTORE SWAP2 SWAP1 SWAP4 SHL SWAP1 SWAP4 AND PUSH1 0x34 DUP5 ADD MSTORE DUP2 MLOAD PUSH1 0x28 DUP2 DUP6 SUB ADD DUP2 MSTORE PUSH1 0x48 DUP5 ADD DUP1 DUP5 MSTORE DUP2 MLOAD SWAP2 SWAP1 SWAP7 ADD KECCAK256 SWAP4 MLOAD SWAP1 MLOAD SWAP5 DUP14 SWAP1 MSTORE PUSH1 0x1 PUSH1 0x1 PUSH1 0xA0 SHL SUB SWAP1 DUP2 AND PUSH1 0x68 DUP5 ADD MSTORE SWAP4 DUP5 AND PUSH1 0x88 DUP4 ADD MSTORE PUSH1 0x1 PUSH1 0x1 PUSH1 0x80 SHL SUB DUP1 DUP13 AND PUSH1 0xA8 DUP5 ADD MSTORE DUP8 AND PUSH1 0xC8 DUP4 ADD MSTORE PUSH1 0x1 PUSH1 0x1 PUSH1 0x40 SHL SUB TIMESTAMP AND PUSH1 0xE8 DUP4 ADD MSTORE MLOAD CALLER SWAP5 SWAP1 SWAP4 AND SWAP3 PUSH32 0x3383E3357C77FD2E3A4B30DEEA81179BC70A795D053D14D5B7F2F01D0FD4596F SWAP2 DUP2 SWAP1 SUB PUSH2 0x108 ADD SWAP1 LOG4 PUSH1 0x80 DUP4 ADD MLOAD PUSH1 0x20 DUP1 DUP6 ADD DUP1 MLOAD PUSH1 0x60 DUP1 DUP9 ADD DUP1 MLOAD PUSH1 0x40 DUP1 MLOAD PUSH1 0x1 PUSH1 0x1 PUSH1 0x60 SHL SUB NOT SWAP6 DUP6 SHL DUP7 AND DUP2 DUP10 ADD MSTORE SWAP2 SWAP1 SWAP4 SHL SWAP1 SWAP4 AND PUSH1 0x34 DUP5 ADD MSTORE DUP2 MLOAD PUSH1 0x28 DUP2 DUP6 SUB ADD DUP2 MSTORE PUSH1 0x48 DUP5 ADD DUP1 DUP5 MSTORE DUP2 MLOAD SWAP2 SWAP1 SWAP7 ADD KECCAK256 SWAP4 MLOAD SWAP1 MLOAD PUSH1 0x4 SLOAD SWAP6 DUP15 SWAP1 MSTORE PUSH1 0x1 PUSH1 0x1 PUSH1 0xA0 SHL SUB SWAP2 DUP3 AND PUSH1 0x68 DUP6 ADD MSTORE DUP2 AND PUSH1 0x88 DUP5 ADD MSTORE PUSH1 0x1 PUSH1 0x1 PUSH1 0x80 SHL SUB DUP1 DUP14 AND PUSH1 0xA8 DUP6 ADD MSTORE DUP9 AND PUSH1 0xC8 DUP5 ADD MSTORE PUSH1 0xE8 DUP4 ADD DUP8 SWAP1 MSTORE SWAP4 DUP5 AND PUSH2 0x108 DUP4 ADD MSTORE PUSH1 0x1 PUSH1 0x1 PUSH1 0x40 SHL SUB TIMESTAMP AND PUSH2 0x128 DUP4 ADD MSTORE MLOAD CALLER SWAP5 SWAP1 SWAP4 AND SWAP3 PUSH32 0xAE463BEEED705BDBA735CC0F80A21BC43E39FA85611FBCEB6E509CA190CC6E2 SWAP2 DUP2 SWAP1 SUB PUSH2 0x148 ADD SWAP1 LOG4 DUP3 PUSH1 0x60 ADD MLOAD PUSH1 0x1 PUSH1 0x1 PUSH1 0xA0 SHL SUB AND DUP4 PUSH1 0x20 ADD MLOAD PUSH1 0x1 PUSH1 0x1 PUSH1 0xA0 SHL SUB AND PUSH32 0x819E390338FEFFE95E2DE57172D6FAF337853DFD15C7A09A32D76F7FD2443875 DUP9 DUP6 PUSH1 0x40 MLOAD DUP1 DUP4 DUP2 MSTORE PUSH1 0x20 ADD DUP3 DUP2 MSTORE PUSH1 0x20 ADD SWAP3 POP POP POP PUSH1 0x40 MLOAD DUP1 SWAP2 SUB SWAP1 LOG3 PUSH1 0x0 DUP8 DUP2 MSTORE PUSH1 0x1 PUSH1 0x20 MSTORE PUSH1 0x40 SWAP1 KECCAK256 SLOAD PUSH2 0x100A JUMPI PUSH1 0x0 DUP8 DUP2 MSTORE PUSH1 0x1 PUSH1 0x20 DUP2 SWAP1 MSTORE PUSH1 0x40 DUP3 KECCAK256 DUP3 DUP2 SSTORE SWAP1 DUP2 ADD DUP1 SLOAD PUSH1 0x1 PUSH1 0x1 PUSH1 0xA0 SHL SUB NOT SWAP1 DUP2 AND SWAP1 SWAP2 SSTORE PUSH1 0x2 DUP3 ADD SWAP3 SWAP1 SWAP3 SSTORE PUSH1 0x3 DUP2 ADD DUP1 SLOAD SWAP1 SWAP3 AND SWAP1 SWAP2 SSTORE PUSH1 0x4 ADD DUP1 SLOAD PUSH1 0x1 PUSH1 0x1 PUSH1 0xE0 SHL SUB NOT AND SWAP1 SSTORE JUMPDEST PUSH1 0x1 SWAP5 POP POP POP POP JUMPDEST POP PUSH1 0x2 DUP1 SLOAD PUSH1 0xFF NOT AND SWAP1 SSTORE SWAP3 SWAP2 POP POP JUMP JUMPDEST PUSH1 0x2 SLOAD PUSH1 0x0 SWAP1 PUSH1 0xFF AND ISZERO PUSH2 0x1036 JUMPI PUSH1 0x0 DUP1 REVERT JUMPDEST PUSH1 0x2 DUP1 SLOAD PUSH1 0xFF NOT AND PUSH1 0x1 OR SWAP1 SSTORE PUSH1 0x1 PUSH1 0x1 PUSH1 0x80 SHL SUB DUP6 AND DUP6 EQ PUSH2 0x1058 JUMPI PUSH1 0x0 DUP1 REVERT JUMPDEST DUP3 DUP4 PUSH1 0x1 PUSH1 0x1 PUSH1 0x80 SHL SUB AND EQ PUSH2 0x106D JUMPI PUSH1 0x0 DUP1 REVERT JUMPDEST PUSH1 0x0 DUP6 GT PUSH2 0x107A JUMPI PUSH1 0x0 DUP1 REVERT JUMPDEST PUSH1 0x1 PUSH1 0x1 PUSH1 0xA0 SHL SUB DUP5 AND PUSH2 0x108D JUMPI PUSH1 0x0 DUP1 REVERT JUMPDEST PUSH1 0x0 DUP4 GT PUSH2 0x109A JUMPI PUSH1 0x0 DUP1 REVERT JUMPDEST PUSH1 0x1 PUSH1 0x1 PUSH1 0xA0 SHL SUB DUP3 AND PUSH2 0x10AD JUMPI PUSH1 0x0 DUP1 REVERT JUMPDEST DUP2 PUSH1 0x1 PUSH1 0x1 PUSH1 0xA0 SHL SUB AND DUP5 PUSH1 0x1 PUSH1 0x1 PUSH1 0xA0 SHL SUB AND EQ ISZERO PUSH2 0x10CC JUMPI PUSH1 0x0 DUP1 REVERT JUMPDEST PUSH2 0x10D4 PUSH2 0x13E6 JUMP JUMPDEST DUP6 DUP2 MSTORE PUSH1 0x1 PUSH1 0x1 PUSH1 0xA0 SHL SUB DUP1 DUP7 AND PUSH1 0x20 DUP4 ADD MSTORE PUSH1 0x40 DUP3 ADD DUP6 SWAP1 MSTORE DUP4 AND PUSH1 0x60 DUP3 ADD MSTORE CALLER PUSH1 0x80 DUP3 ADD MSTORE PUSH1 0x1 PUSH1 0x1 PUSH1 0x40 SHL SUB TIMESTAMP AND PUSH1 0xA0 DUP3 ADD MSTORE PUSH2 0x1112 PUSH2 0x13D8 JUMP JUMPDEST PUSH1 0x0 DUP2 DUP2 MSTORE PUSH1 0x1 PUSH1 0x20 DUP2 DUP2 MSTORE PUSH1 0x40 DUP1 DUP5 KECCAK256 DUP7 MLOAD DUP2 SSTORE DUP3 DUP8 ADD MLOAD SWAP4 DUP2 ADD DUP1 SLOAD PUSH1 0x1 PUSH1 0x1 PUSH1 0xA0 SHL SUB SWAP6 DUP7 AND PUSH1 0x1 PUSH1 0x1 PUSH1 0xA0 SHL SUB NOT SWAP2 DUP3 AND OR SWAP1 SWAP2 SSTORE DUP3 DUP9 ADD MLOAD PUSH1 0x2 DUP4 ADD SSTORE PUSH1 0x60 DUP9 ADD MLOAD PUSH1 0x3 DUP4 ADD DUP1 SLOAD SWAP2 DUP8 AND SWAP2 DUP4 AND SWAP2 SWAP1 SWAP2 OR SWAP1 SSTORE PUSH1 0x80 DUP9 ADD MLOAD PUSH1 0x4 SWAP3 DUP4 ADD DUP1 SLOAD PUSH1 0xA0 DUP12 ADD MLOAD PUSH1 0x1 PUSH1 0x1 PUSH1 0x40 SHL SUB AND PUSH1 0x1 PUSH1 0xA0 SHL MUL PUSH8 0xFFFFFFFFFFFFFFFF PUSH1 0xA0 SHL NOT SWAP4 DUP10 AND SWAP2 SWAP1 SWAP5 AND OR SWAP2 SWAP1 SWAP2 AND SWAP2 SWAP1 SWAP2 OR SWAP1 SSTORE DUP2 MLOAD PUSH4 0x23B872DD PUSH1 0xE0 SHL DUP2 MSTORE CALLER SWAP2 DUP2 ADD SWAP2 SWAP1 SWAP2 MSTORE ADDRESS PUSH1 0x24 DUP3 ADD MSTORE PUSH1 0x44 DUP2 ADD DUP13 SWAP1 MSTORE SWAP1 MLOAD SWAP5 SWAP7 POP SWAP2 DUP10 AND SWAP4 PUSH4 0x23B872DD SWAP4 PUSH1 0x64 DUP1 DUP6 ADD SWAP5 DUP4 SWAP1 SUB ADD SWAP1 DUP3 SWAP1 DUP8 DUP1 EXTCODESIZE ISZERO DUP1 ISZERO PUSH2 0x11F6 JUMPI PUSH1 0x0 DUP1 REVERT JUMPDEST POP GAS CALL ISZERO DUP1 ISZERO PUSH2 0x120A JUMPI RETURNDATASIZE PUSH1 0x0 DUP1 RETURNDATACOPY RETURNDATASIZE PUSH1 0x0 REVERT JUMPDEST POP POP POP POP PUSH1 0x40 MLOAD RETURNDATASIZE PUSH1 0x20 DUP2 LT ISZERO PUSH2 0x1220 JUMPI PUSH1 0x0 DUP1 REVERT JUMPDEST POP MLOAD PUSH2 0x122B JUMPI PUSH1 0x0 DUP1 REVERT JUMPDEST PUSH1 0x40 DUP1 MLOAD DUP4 DUP2 MSTORE SWAP1 MLOAD PUSH32 0xA2C251311B1A7A475913900A2A73DC9789A21B04BC737E050BBC506DD4EB3488 SWAP2 DUP2 SWAP1 SUB PUSH1 0x20 ADD SWAP1 LOG1 PUSH1 0x40 DUP1 MLOAD PUSH1 0x1 PUSH1 0x1 PUSH1 0x60 SHL SUB NOT PUSH1 0x60 DUP9 DUP2 SHL DUP3 AND PUSH1 0x20 DUP1 DUP6 ADD SWAP2 SWAP1 SWAP2 MSTORE SWAP1 DUP8 SWAP1 SHL SWAP1 SWAP2 AND PUSH1 0x34 DUP4 ADD MSTORE DUP3 MLOAD PUSH1 0x28 DUP2 DUP5 SUB ADD DUP2 MSTORE PUSH1 0x48 DUP4 ADD DUP1 DUP6 MSTORE DUP2 MLOAD SWAP2 SWAP1 SWAP3 ADD KECCAK256 PUSH1 0x1 PUSH1 0x1 PUSH1 0xA0 SHL SUB DUP10 DUP2 AND SWAP1 SWAP3 MSTORE SWAP1 DUP7 AND PUSH1 0x68 DUP4 ADD MSTORE PUSH1 0x1 PUSH1 0x1 PUSH1 0x80 SHL SUB DUP1 DUP11 AND PUSH1 0x88 DUP5 ADD MSTORE DUP8 AND PUSH1 0xA8 DUP4 ADD MSTORE PUSH1 0x1 PUSH1 0x1 PUSH1 0x40 SHL SUB TIMESTAMP AND PUSH1 0xC8 DUP4 ADD MSTORE SWAP2 MLOAD CALLER SWAP3 SWAP2 DUP6 SWAP2 PUSH32 0x773FF502687307ABFA024AC9F62F9752A0D210DAC2FFD9A29E38E12E2EA82C82 SWAP2 DUP2 SWAP1 SUB PUSH1 0xE8 ADD SWAP1 LOG4 POP PUSH1 0x2 DUP1 SLOAD PUSH1 0xFF NOT AND SWAP1 SSTORE SWAP5 SWAP4 POP POP POP POP JUMP JUMPDEST PUSH1 0x0 DUP2 ISZERO DUP1 PUSH2 0x133A JUMPI POP POP DUP1 DUP3 MUL DUP3 DUP3 DUP3 DUP2 PUSH2 0x1337 JUMPI INVALID JUMPDEST DIV EQ JUMPDEST PUSH2 0x1382 JUMPI PUSH1 0x40 DUP1 MLOAD PUSH3 0x461BCD PUSH1 0xE5 SHL DUP2 MSTORE PUSH1 0x20 PUSH1 0x4 DUP3 ADD MSTORE PUSH1 0x14 PUSH1 0x24 DUP3 ADD MSTORE PUSH20 0x64732D6D6174682D6D756C2D6F766572666C6F77 PUSH1 0x60 SHL PUSH1 0x44 DUP3 ADD MSTORE SWAP1 MLOAD SWAP1 DUP2 SWAP1 SUB PUSH1 0x64 ADD SWAP1 REVERT JUMPDEST SWAP3 SWAP2 POP POP JUMP JUMPDEST DUP1 DUP3 SUB DUP3 DUP2 GT ISZERO PUSH2 0x1382 JUMPI PUSH1 0x40 DUP1 MLOAD PUSH3 0x461BCD PUSH1 0xE5 SHL DUP2 MSTORE PUSH1 0x20 PUSH1 0x4 DUP3 ADD MSTORE PUSH1 0x15 PUSH1 0x24 DUP3 ADD MSTORE PUSH21 0x64732D6D6174682D7375622D756E646572666C6F77 PUSH1 0x58 SHL PUSH1 0x44 DUP3 ADD MSTORE SWAP1 MLOAD SWAP1 DUP2 SWAP1 SUB PUSH1 0x64 ADD SWAP1 REVERT JUMPDEST PUSH1 0x0 DUP1 SLOAD PUSH1 0x1 ADD SWAP1 DUP2 SWAP1 SSTORE SWAP1 JUMP JUMPDEST PUSH1 0x40 DUP1 MLOAD PUSH1 0xC0 DUP2 ADD DUP3 MSTORE PUSH1 0x0 DUP1 DUP3 MSTORE PUSH1 0x20 DUP3 ADD DUP2 SWAP1 MSTORE SWAP2 DUP2 ADD DUP3 SWAP1 MSTORE PUSH1 0x60 DUP2 ADD DUP3 SWAP1 MSTORE PUSH1 0x80 DUP2 ADD DUP3 SWAP1 MSTORE PUSH1 0xA0 DUP2 ADD SWAP2 SWAP1 SWAP2 MSTORE SWAP1 JUMP INVALID PUSH16 0x666665722E6275795F67656D2E747261 PUSH15 0x7366657246726F6D286D73672E7365 PUSH15 0x6465722C206F666665722E6F776E65 PUSH19 0x2C207370656E6429206661696C65646F666665 PUSH19 0x2E7061795F67656D2E7472616E73666572286D PUSH20 0x672E73656E6465722C207175616E746974792920 PUSH7 0x61696C6564A265 PUSH3 0x7A7A72 BALANCE PC KECCAK256 CREATE2 CREATE2 MSTORE8 0xC1 SHL CALLDATACOPY 0xC0 DUP7 0xDB 0xE4 LOG0 SHL 0xEE 0xB1 0xAD RETURNDATACOPY 0x24 CALL 0xB3 EXTCODECOPY PUSH17 0x594CF4AB97903CFDD474D64736F6C6343 STOP SDIV LT STOP ORIGIN "
        },
        "methodIdentifiers": {
          "bump(bytes32)": "779997c3",
          "buy(uint256,uint256)": "d6febde8",
          "cancel(uint256)": "40e58ee5",
          "getOffer(uint256)": "4579268a",
          "getOwner(uint256)": "c41a360a",
          "isActive(uint256)": "82afd23b",
          "kill(bytes32)": "b4f9b6c8",
          "last_offer_id()": "232cae0b",
          "make(address,address,uint128,uint128)": "093f5198",
          "offer(uint256,address,uint256,address)": "f09ea2a6",
          "offers(uint256)": "8a72ea6a",
          "take(bytes32,uint128)": "49606455"
        }
      }
    }
  }
}