{
  "contracts/RubiconMarket.sol": {
    "RubiconMarket": {
      "abi": [
        {
          "inputs": [
            {
              "internalType": "uint64",
              "name": "close_time",
              "type": "uint64"
            },
            {
              "internalType": "bool",
              "name": "RBCNDist",
              "type": "bool"
            },
            {
              "internalType": "address",
              "name": "_feeTo",
              "type": "address"
            }
          ],
          "payable": false,
          "stateMutability": "nonpayable",
          "type": "constructor"
        },
        {
          "anonymous": false,
          "inputs": [
            {
              "indexed": false,
              "internalType": "bytes32",
              "name": "id",
              "type": "bytes32"
            },
            {
              "indexed": true,
              "internalType": "bytes32",
              "name": "pair",
              "type": "bytes32"
            },
            {
              "indexed": true,
              "internalType": "address",
              "name": "maker",
              "type": "address"
            },
            {
              "indexed": false,
              "internalType": "contract ERC20",
              "name": "pay_gem",
              "type": "address"
            },
            {
              "indexed": false,
              "internalType": "contract ERC20",
              "name": "buy_gem",
              "type": "address"
            },
            {
              "indexed": true,
              "internalType": "address",
              "name": "taker",
              "type": "address"
            },
            {
              "indexed": false,
              "internalType": "uint128",
              "name": "take_amt",
              "type": "uint128"
            },
            {
              "indexed": false,
              "internalType": "uint128",
              "name": "give_amt",
              "type": "uint128"
            },
            {
              "indexed": false,
              "internalType": "uint256",
              "name": "feeAmt",
              "type": "uint256"
            },
            {
              "indexed": false,
              "internalType": "address",
              "name": "feeTo",
              "type": "address"
            },
            {
              "indexed": false,
              "internalType": "uint64",
              "name": "timestamp",
              "type": "uint64"
            }
          ],
          "name": "FeeTake",
          "type": "event"
        },
        {
          "anonymous": false,
          "inputs": [
            {
              "indexed": true,
              "internalType": "bytes32",
              "name": "id",
              "type": "bytes32"
            },
            {
              "indexed": true,
              "internalType": "bytes32",
              "name": "pair",
              "type": "bytes32"
            },
            {
              "indexed": true,
              "internalType": "address",
              "name": "maker",
              "type": "address"
            },
            {
              "indexed": false,
              "internalType": "contract ERC20",
              "name": "pay_gem",
              "type": "address"
            },
            {
              "indexed": false,
              "internalType": "contract ERC20",
              "name": "buy_gem",
              "type": "address"
            },
            {
              "indexed": false,
              "internalType": "uint128",
              "name": "pay_amt",
              "type": "uint128"
            },
            {
              "indexed": false,
              "internalType": "uint128",
              "name": "buy_amt",
              "type": "uint128"
            },
            {
              "indexed": false,
              "internalType": "uint64",
              "name": "timestamp",
              "type": "uint64"
            }
          ],
          "name": "LogBump",
          "type": "event"
        },
        {
          "anonymous": false,
          "inputs": [
            {
              "indexed": false,
              "internalType": "bool",
              "name": "isEnabled",
              "type": "bool"
            }
          ],
          "name": "LogBuyEnabled",
          "type": "event"
        },
        {
          "anonymous": false,
          "inputs": [
            {
              "indexed": false,
              "internalType": "address",
              "name": "keeper",
              "type": "address"
            },
            {
              "indexed": false,
              "internalType": "uint256",
              "name": "id",
              "type": "uint256"
            }
          ],
          "name": "LogDelete",
          "type": "event"
        },
        {
          "anonymous": false,
          "inputs": [
            {
              "indexed": false,
              "internalType": "address",
              "name": "keeper",
              "type": "address"
            },
            {
              "indexed": false,
              "internalType": "uint256",
              "name": "id",
              "type": "uint256"
            }
          ],
          "name": "LogInsert",
          "type": "event"
        },
        {
          "anonymous": false,
          "inputs": [
            {
              "indexed": false,
              "internalType": "string",
              "name": "lol",
              "type": "string"
            },
            {
              "indexed": false,
              "internalType": "uint256",
              "name": "input",
              "type": "uint256"
            }
          ],
          "name": "LogInt",
          "type": "event"
        },
        {
          "anonymous": false,
          "inputs": [
            {
              "indexed": false,
              "internalType": "uint256",
              "name": "id",
              "type": "uint256"
            }
          ],
          "name": "LogItemUpdate",
          "type": "event"
        },
        {
          "anonymous": false,
          "inputs": [
            {
              "indexed": true,
              "internalType": "bytes32",
              "name": "id",
              "type": "bytes32"
            },
            {
              "indexed": true,
              "internalType": "bytes32",
              "name": "pair",
              "type": "bytes32"
            },
            {
              "indexed": true,
              "internalType": "address",
              "name": "maker",
              "type": "address"
            },
            {
              "indexed": false,
              "internalType": "contract ERC20",
              "name": "pay_gem",
              "type": "address"
            },
            {
              "indexed": false,
              "internalType": "contract ERC20",
              "name": "buy_gem",
              "type": "address"
            },
            {
              "indexed": false,
              "internalType": "uint128",
              "name": "pay_amt",
              "type": "uint128"
            },
            {
              "indexed": false,
              "internalType": "uint128",
              "name": "buy_amt",
              "type": "uint128"
            },
            {
              "indexed": false,
              "internalType": "uint64",
              "name": "timestamp",
              "type": "uint64"
            }
          ],
          "name": "LogKill",
          "type": "event"
        },
        {
          "anonymous": false,
          "inputs": [
            {
              "indexed": true,
              "internalType": "bytes32",
              "name": "id",
              "type": "bytes32"
            },
            {
              "indexed": true,
              "internalType": "bytes32",
              "name": "pair",
              "type": "bytes32"
            },
            {
              "indexed": true,
              "internalType": "address",
              "name": "maker",
              "type": "address"
            },
            {
              "indexed": false,
              "internalType": "contract ERC20",
              "name": "pay_gem",
              "type": "address"
            },
            {
              "indexed": false,
              "internalType": "contract ERC20",
              "name": "buy_gem",
              "type": "address"
            },
            {
              "indexed": false,
              "internalType": "uint128",
              "name": "pay_amt",
              "type": "uint128"
            },
            {
              "indexed": false,
              "internalType": "uint128",
              "name": "buy_amt",
              "type": "uint128"
            },
            {
              "indexed": false,
              "internalType": "uint64",
              "name": "timestamp",
              "type": "uint64"
            }
          ],
          "name": "LogMake",
          "type": "event"
        },
        {
          "anonymous": false,
          "inputs": [
            {
              "indexed": false,
              "internalType": "bool",
              "name": "isEnabled",
              "type": "bool"
            }
          ],
          "name": "LogMatchingEnabled",
          "type": "event"
        },
        {
          "anonymous": false,
          "inputs": [
            {
              "indexed": false,
              "internalType": "address",
              "name": "pay_gem",
              "type": "address"
            },
            {
              "indexed": false,
              "internalType": "uint256",
              "name": "min_amount",
              "type": "uint256"
            }
          ],
          "name": "LogMinSell",
          "type": "event"
        },
        {
          "anonymous": true,
          "inputs": [
            {
              "indexed": true,
              "internalType": "bytes4",
              "name": "sig",
              "type": "bytes4"
            },
            {
              "indexed": true,
              "internalType": "address",
              "name": "guy",
              "type": "address"
            },
            {
              "indexed": true,
              "internalType": "bytes32",
              "name": "foo",
              "type": "bytes32"
            },
            {
              "indexed": true,
              "internalType": "bytes32",
              "name": "bar",
              "type": "bytes32"
            },
            {
              "indexed": false,
              "internalType": "uint256",
              "name": "wad",
              "type": "uint256"
            },
            {
              "indexed": false,
              "internalType": "bytes",
              "name": "fax",
              "type": "bytes"
            }
          ],
          "name": "LogNote",
          "type": "event"
        },
        {
          "anonymous": false,
          "inputs": [
            {
              "indexed": true,
              "internalType": "address",
              "name": "authority",
              "type": "address"
            }
          ],
          "name": "LogSetAuthority",
          "type": "event"
        },
        {
          "anonymous": false,
          "inputs": [
            {
              "indexed": true,
              "internalType": "address",
              "name": "owner",
              "type": "address"
            }
          ],
          "name": "LogSetOwner",
          "type": "event"
        },
        {
          "anonymous": false,
          "inputs": [
            {
              "indexed": false,
              "internalType": "uint256",
              "name": "id",
              "type": "uint256"
            }
          ],
          "name": "LogSortedOffer",
          "type": "event"
        },
        {
          "anonymous": false,
          "inputs": [
            {
              "indexed": false,
              "internalType": "bytes32",
              "name": "id",
              "type": "bytes32"
            },
            {
              "indexed": true,
              "internalType": "bytes32",
              "name": "pair",
              "type": "bytes32"
            },
            {
              "indexed": true,
              "internalType": "address",
              "name": "maker",
              "type": "address"
            },
            {
              "indexed": false,
              "internalType": "contract ERC20",
              "name": "pay_gem",
              "type": "address"
            },
            {
              "indexed": false,
              "internalType": "contract ERC20",
              "name": "buy_gem",
              "type": "address"
            },
            {
              "indexed": true,
              "internalType": "address",
              "name": "taker",
              "type": "address"
            },
            {
              "indexed": false,
              "internalType": "uint128",
              "name": "take_amt",
              "type": "uint128"
            },
            {
              "indexed": false,
              "internalType": "uint128",
              "name": "give_amt",
              "type": "uint128"
            },
            {
              "indexed": false,
              "internalType": "uint64",
              "name": "timestamp",
              "type": "uint64"
            }
          ],
          "name": "LogTake",
          "type": "event"
        },
        {
          "anonymous": false,
          "inputs": [
            {
              "indexed": false,
              "internalType": "uint256",
              "name": "pay_amt",
              "type": "uint256"
            },
            {
              "indexed": true,
              "internalType": "address",
              "name": "pay_gem",
              "type": "address"
            },
            {
              "indexed": false,
              "internalType": "uint256",
              "name": "buy_amt",
              "type": "uint256"
            },
            {
              "indexed": true,
              "internalType": "address",
              "name": "buy_gem",
              "type": "address"
            }
          ],
          "name": "LogTrade",
          "type": "event"
        },
        {
          "anonymous": false,
          "inputs": [
            {
              "indexed": false,
              "internalType": "uint256",
              "name": "id",
              "type": "uint256"
            }
          ],
          "name": "LogUnsortedOffer",
          "type": "event"
        },
        {
          "constant": true,
          "inputs": [],
          "name": "AqueductAddress",
          "outputs": [
            {
              "internalType": "address",
              "name": "",
              "type": "address"
            }
          ],
          "payable": false,
          "stateMutability": "view",
          "type": "function"
        },
        {
          "constant": true,
          "inputs": [],
          "name": "AqueductDistributionLive",
          "outputs": [
            {
              "internalType": "bool",
              "name": "",
              "type": "bool"
            }
          ],
          "payable": false,
          "stateMutability": "view",
          "type": "function"
        },
        {
          "constant": true,
          "inputs": [],
          "name": "WETHAddress",
          "outputs": [
            {
              "internalType": "address",
              "name": "",
              "type": "address"
            }
          ],
          "payable": false,
          "stateMutability": "view",
          "type": "function"
        },
        {
          "constant": true,
          "inputs": [
            {
              "internalType": "address",
              "name": "",
              "type": "address"
            },
            {
              "internalType": "address",
              "name": "",
              "type": "address"
            }
          ],
          "name": "_best",
          "outputs": [
            {
              "internalType": "uint256",
              "name": "",
              "type": "uint256"
            }
          ],
          "payable": false,
          "stateMutability": "view",
          "type": "function"
        },
        {
          "constant": true,
          "inputs": [
            {
              "internalType": "address",
              "name": "",
              "type": "address"
            }
          ],
          "name": "_dust",
          "outputs": [
            {
              "internalType": "uint256",
              "name": "",
              "type": "uint256"
            }
          ],
          "payable": false,
          "stateMutability": "view",
          "type": "function"
        },
        {
          "constant": true,
          "inputs": [
            {
              "internalType": "uint256",
              "name": "",
              "type": "uint256"
            }
          ],
          "name": "_near",
          "outputs": [
            {
              "internalType": "uint256",
              "name": "",
              "type": "uint256"
            }
          ],
          "payable": false,
          "stateMutability": "view",
          "type": "function"
        },
        {
          "constant": true,
          "inputs": [
            {
              "internalType": "uint256",
              "name": "",
              "type": "uint256"
            }
          ],
          "name": "_rank",
          "outputs": [
            {
              "internalType": "uint256",
              "name": "next",
              "type": "uint256"
            },
            {
              "internalType": "uint256",
              "name": "prev",
              "type": "uint256"
            },
            {
              "internalType": "uint256",
              "name": "delb",
              "type": "uint256"
            }
          ],
          "payable": false,
          "stateMutability": "view",
          "type": "function"
        },
        {
          "constant": true,
          "inputs": [
            {
              "internalType": "address",
              "name": "",
              "type": "address"
            },
            {
              "internalType": "address",
              "name": "",
              "type": "address"
            }
          ],
          "name": "_span",
          "outputs": [
            {
              "internalType": "uint256",
              "name": "",
              "type": "uint256"
            }
          ],
          "payable": false,
          "stateMutability": "view",
          "type": "function"
        },
        {
          "constant": false,
          "inputs": [
            {
              "internalType": "bytes32",
              "name": "id_",
              "type": "bytes32"
            }
          ],
          "name": "bump",
          "outputs": [],
          "payable": false,
          "stateMutability": "nonpayable",
          "type": "function"
        },
        {
          "constant": false,
          "inputs": [
            {
              "internalType": "uint256",
              "name": "id",
              "type": "uint256"
            },
            {
              "internalType": "uint256",
              "name": "amount",
              "type": "uint256"
            }
          ],
          "name": "buy",
          "outputs": [
            {
              "internalType": "bool",
              "name": "",
              "type": "bool"
            }
          ],
          "payable": false,
          "stateMutability": "nonpayable",
          "type": "function"
        },
        {
          "constant": false,
          "inputs": [
            {
              "internalType": "contract ERC20",
              "name": "buy_gem",
              "type": "address"
            },
            {
              "internalType": "uint256",
              "name": "buy_amt",
              "type": "uint256"
            },
            {
              "internalType": "contract ERC20",
              "name": "pay_gem",
              "type": "address"
            },
            {
              "internalType": "uint256",
              "name": "max_fill_amount",
              "type": "uint256"
            }
          ],
          "name": "buyAllAmount",
          "outputs": [
            {
              "internalType": "uint256",
              "name": "fill_amt",
              "type": "uint256"
            }
          ],
          "payable": false,
          "stateMutability": "nonpayable",
          "type": "function"
        },
        {
          "constant": true,
          "inputs": [],
          "name": "buyEnabled",
          "outputs": [
            {
              "internalType": "bool",
              "name": "",
              "type": "bool"
            }
          ],
          "payable": false,
          "stateMutability": "view",
          "type": "function"
        },
        {
          "constant": false,
          "inputs": [
            {
              "internalType": "uint256",
              "name": "id",
              "type": "uint256"
            }
          ],
          "name": "buyInETH",
          "outputs": [
            {
              "internalType": "bool",
              "name": "",
              "type": "bool"
            }
          ],
          "payable": true,
          "stateMutability": "payable",
          "type": "function"
        },
        {
          "constant": false,
          "inputs": [
            {
              "internalType": "uint256",
              "name": "id",
              "type": "uint256"
            }
          ],
          "name": "cancel",
          "outputs": [
            {
              "internalType": "bool",
              "name": "success",
              "type": "bool"
            }
          ],
          "payable": false,
          "stateMutability": "nonpayable",
          "type": "function"
        },
        {
          "constant": true,
          "inputs": [],
          "name": "close_time",
          "outputs": [
            {
              "internalType": "uint64",
              "name": "",
              "type": "uint64"
            }
          ],
          "payable": false,
          "stateMutability": "view",
          "type": "function"
        },
        {
          "constant": false,
          "inputs": [
            {
              "internalType": "uint256",
              "name": "id",
              "type": "uint256"
            }
          ],
          "name": "del_rank",
          "outputs": [
            {
              "internalType": "bool",
              "name": "",
              "type": "bool"
            }
          ],
          "payable": false,
          "stateMutability": "nonpayable",
          "type": "function"
        },
        {
          "constant": true,
          "inputs": [],
          "name": "dustId",
          "outputs": [
            {
              "internalType": "uint256",
              "name": "",
              "type": "uint256"
            }
          ],
          "payable": false,
          "stateMutability": "view",
          "type": "function"
        },
        {
          "constant": true,
          "inputs": [
            {
              "internalType": "contract ERC20",
              "name": "sell_gem",
              "type": "address"
            },
            {
              "internalType": "contract ERC20",
              "name": "buy_gem",
              "type": "address"
            }
          ],
          "name": "getBestOffer",
          "outputs": [
            {
              "internalType": "uint256",
              "name": "",
              "type": "uint256"
            }
          ],
          "payable": false,
          "stateMutability": "view",
          "type": "function"
        },
        {
          "constant": true,
          "inputs": [
            {
              "internalType": "uint256",
              "name": "id",
              "type": "uint256"
            }
          ],
          "name": "getBetterOffer",
          "outputs": [
            {
              "internalType": "uint256",
              "name": "",
              "type": "uint256"
            }
          ],
          "payable": false,
          "stateMutability": "view",
          "type": "function"
        },
        {
          "constant": true,
          "inputs": [
            {
              "internalType": "contract ERC20",
              "name": "buy_gem",
              "type": "address"
            },
            {
              "internalType": "contract ERC20",
              "name": "pay_gem",
              "type": "address"
            },
            {
              "internalType": "uint256",
              "name": "pay_amt",
              "type": "uint256"
            }
          ],
          "name": "getBuyAmount",
          "outputs": [
            {
              "internalType": "uint256",
              "name": "fill_amt",
              "type": "uint256"
            }
          ],
          "payable": false,
          "stateMutability": "view",
          "type": "function"
        },
        {
          "constant": true,
          "inputs": [],
          "name": "getFirstUnsortedOffer",
          "outputs": [
            {
              "internalType": "uint256",
              "name": "",
              "type": "uint256"
            }
          ],
          "payable": false,
          "stateMutability": "view",
          "type": "function"
        },
        {
          "constant": true,
          "inputs": [
            {
              "internalType": "contract ERC20",
              "name": "pay_gem",
              "type": "address"
            }
          ],
          "name": "getMinSell",
          "outputs": [
            {
              "internalType": "uint256",
              "name": "",
              "type": "uint256"
            }
          ],
          "payable": false,
          "stateMutability": "view",
          "type": "function"
        },
        {
          "constant": true,
          "inputs": [
            {
              "internalType": "uint256",
              "name": "id",
              "type": "uint256"
            }
          ],
          "name": "getNextUnsortedOffer",
          "outputs": [
            {
              "internalType": "uint256",
              "name": "",
              "type": "uint256"
            }
          ],
          "payable": false,
          "stateMutability": "view",
          "type": "function"
        },
        {
          "constant": true,
          "inputs": [
            {
              "internalType": "uint256",
              "name": "id",
              "type": "uint256"
            }
          ],
          "name": "getOffer",
          "outputs": [
            {
              "internalType": "uint256",
              "name": "",
              "type": "uint256"
            },
            {
              "internalType": "contract ERC20",
              "name": "",
              "type": "address"
            },
            {
              "internalType": "uint256",
              "name": "",
              "type": "uint256"
            },
            {
              "internalType": "contract ERC20",
              "name": "",
              "type": "address"
            }
          ],
          "payable": false,
          "stateMutability": "view",
          "type": "function"
        },
        {
          "constant": true,
          "inputs": [
            {
              "internalType": "contract ERC20",
              "name": "sell_gem",
              "type": "address"
            },
            {
              "internalType": "contract ERC20",
              "name": "buy_gem",
              "type": "address"
            }
          ],
          "name": "getOfferCount",
          "outputs": [
            {
              "internalType": "uint256",
              "name": "",
              "type": "uint256"
            }
          ],
          "payable": false,
          "stateMutability": "view",
          "type": "function"
        },
        {
          "constant": true,
          "inputs": [
            {
              "internalType": "uint256",
              "name": "id",
              "type": "uint256"
            }
          ],
          "name": "getOwner",
          "outputs": [
            {
              "internalType": "address",
              "name": "owner",
              "type": "address"
            }
          ],
          "payable": false,
          "stateMutability": "view",
          "type": "function"
        },
        {
          "constant": true,
          "inputs": [
            {
              "internalType": "contract ERC20",
              "name": "pay_gem",
              "type": "address"
            },
            {
              "internalType": "contract ERC20",
              "name": "buy_gem",
              "type": "address"
            },
            {
              "internalType": "uint256",
              "name": "buy_amt",
              "type": "uint256"
            }
          ],
          "name": "getPayAmount",
          "outputs": [
            {
              "internalType": "uint256",
              "name": "fill_amt",
              "type": "uint256"
            }
          ],
          "payable": false,
          "stateMutability": "view",
          "type": "function"
        },
        {
          "constant": true,
          "inputs": [],
          "name": "getTime",
          "outputs": [
            {
              "internalType": "uint64",
              "name": "",
              "type": "uint64"
            }
          ],
          "payable": false,
          "stateMutability": "view",
          "type": "function"
        },
        {
          "constant": true,
          "inputs": [
            {
              "internalType": "uint256",
              "name": "id",
              "type": "uint256"
            }
          ],
          "name": "getWorseOffer",
          "outputs": [
            {
              "internalType": "uint256",
              "name": "",
              "type": "uint256"
            }
          ],
          "payable": false,
          "stateMutability": "view",
          "type": "function"
        },
        {
          "constant": false,
          "inputs": [
            {
              "internalType": "uint256",
              "name": "id",
              "type": "uint256"
            },
            {
              "internalType": "uint256",
              "name": "pos",
              "type": "uint256"
            }
          ],
          "name": "insert",
          "outputs": [
            {
              "internalType": "bool",
              "name": "",
              "type": "bool"
            }
          ],
          "payable": false,
          "stateMutability": "nonpayable",
          "type": "function"
        },
        {
          "constant": true,
          "inputs": [
            {
              "internalType": "uint256",
              "name": "id",
              "type": "uint256"
            }
          ],
          "name": "isActive",
          "outputs": [
            {
              "internalType": "bool",
              "name": "active",
              "type": "bool"
            }
          ],
          "payable": false,
          "stateMutability": "view",
          "type": "function"
        },
        {
          "constant": true,
          "inputs": [],
          "name": "isClosed",
          "outputs": [
            {
              "internalType": "bool",
              "name": "closed",
              "type": "bool"
            }
          ],
          "payable": false,
          "stateMutability": "view",
          "type": "function"
        },
        {
          "constant": true,
          "inputs": [
            {
              "internalType": "uint256",
              "name": "id",
              "type": "uint256"
            }
          ],
          "name": "isOfferSorted",
          "outputs": [
            {
              "internalType": "bool",
              "name": "",
              "type": "bool"
            }
          ],
          "payable": false,
          "stateMutability": "view",
          "type": "function"
        },
        {
          "constant": false,
          "inputs": [
            {
              "internalType": "bytes32",
              "name": "id",
              "type": "bytes32"
            }
          ],
          "name": "kill",
          "outputs": [],
          "payable": false,
          "stateMutability": "nonpayable",
          "type": "function"
        },
        {
          "constant": true,
          "inputs": [],
          "name": "last_offer_id",
          "outputs": [
            {
              "internalType": "uint256",
              "name": "",
              "type": "uint256"
            }
          ],
          "payable": false,
          "stateMutability": "view",
          "type": "function"
        },
        {
          "constant": false,
          "inputs": [
            {
              "internalType": "contract ERC20",
              "name": "pay_gem",
              "type": "address"
            },
            {
              "internalType": "contract ERC20",
              "name": "buy_gem",
              "type": "address"
            },
            {
              "internalType": "uint128",
              "name": "pay_amt",
              "type": "uint128"
            },
            {
              "internalType": "uint128",
              "name": "buy_amt",
              "type": "uint128"
            }
          ],
          "name": "make",
          "outputs": [
            {
              "internalType": "bytes32",
              "name": "",
              "type": "bytes32"
            }
          ],
          "payable": false,
          "stateMutability": "nonpayable",
          "type": "function"
        },
        {
          "constant": true,
          "inputs": [],
          "name": "matchingEnabled",
          "outputs": [
            {
              "internalType": "bool",
              "name": "",
              "type": "bool"
            }
          ],
          "payable": false,
          "stateMutability": "view",
          "type": "function"
        },
        {
          "constant": false,
          "inputs": [
            {
              "internalType": "uint256",
              "name": "pay_amt",
              "type": "uint256"
            },
            {
              "internalType": "contract ERC20",
              "name": "pay_gem",
              "type": "address"
            },
            {
              "internalType": "uint256",
              "name": "buy_amt",
              "type": "uint256"
            },
            {
              "internalType": "contract ERC20",
              "name": "buy_gem",
              "type": "address"
            },
            {
              "internalType": "uint256",
              "name": "pos",
              "type": "uint256"
            }
          ],
          "name": "offer",
          "outputs": [
            {
              "internalType": "uint256",
              "name": "",
              "type": "uint256"
            }
          ],
          "payable": false,
          "stateMutability": "nonpayable",
          "type": "function"
        },
        {
          "constant": false,
          "inputs": [
            {
              "internalType": "uint256",
              "name": "pay_amt",
              "type": "uint256"
            },
            {
              "internalType": "contract ERC20",
              "name": "pay_gem",
              "type": "address"
            },
            {
              "internalType": "uint256",
              "name": "buy_amt",
              "type": "uint256"
            },
            {
              "internalType": "contract ERC20",
              "name": "buy_gem",
              "type": "address"
            },
            {
              "internalType": "uint256",
              "name": "pos",
              "type": "uint256"
            },
            {
              "internalType": "bool",
              "name": "matching",
              "type": "bool"
            }
          ],
          "name": "offer",
          "outputs": [
            {
              "internalType": "uint256",
              "name": "",
              "type": "uint256"
            }
          ],
          "payable": false,
          "stateMutability": "nonpayable",
          "type": "function"
        },
        {
          "constant": false,
          "inputs": [
            {
              "internalType": "uint256",
              "name": "pay_amt",
              "type": "uint256"
            },
            {
              "internalType": "contract ERC20",
              "name": "pay_gem",
              "type": "address"
            },
            {
              "internalType": "uint256",
              "name": "buy_amt",
              "type": "uint256"
            },
            {
              "internalType": "contract ERC20",
              "name": "buy_gem",
              "type": "address"
            }
          ],
          "name": "offer",
          "outputs": [
            {
              "internalType": "uint256",
              "name": "",
              "type": "uint256"
            }
          ],
          "payable": false,
          "stateMutability": "nonpayable",
          "type": "function"
        },
        {
          "constant": false,
          "inputs": [
            {
              "internalType": "uint256",
              "name": "buy_amt",
              "type": "uint256"
            },
            {
              "internalType": "contract ERC20",
              "name": "buy_gem",
              "type": "address"
            }
          ],
          "name": "offerInETH",
          "outputs": [
            {
              "internalType": "uint256",
              "name": "",
              "type": "uint256"
            }
          ],
          "payable": true,
          "stateMutability": "payable",
          "type": "function"
        },
        {
          "constant": true,
          "inputs": [
            {
              "internalType": "uint256",
              "name": "",
              "type": "uint256"
            }
          ],
          "name": "offers",
          "outputs": [
            {
              "internalType": "uint256",
              "name": "pay_amt",
              "type": "uint256"
            },
            {
              "internalType": "contract ERC20",
              "name": "pay_gem",
              "type": "address"
            },
            {
              "internalType": "uint256",
              "name": "buy_amt",
              "type": "uint256"
            },
            {
              "internalType": "contract ERC20",
              "name": "buy_gem",
              "type": "address"
            },
            {
              "internalType": "address",
              "name": "owner",
              "type": "address"
            },
            {
              "internalType": "uint64",
              "name": "timestamp",
              "type": "uint64"
            }
          ],
          "payable": false,
          "stateMutability": "view",
          "type": "function"
        },
        {
          "constant": true,
          "inputs": [],
          "name": "owner",
          "outputs": [
            {
              "internalType": "address",
              "name": "",
              "type": "address"
            }
          ],
          "payable": false,
          "stateMutability": "view",
          "type": "function"
        },
        {
          "constant": false,
          "inputs": [
            {
              "internalType": "contract ERC20",
              "name": "pay_gem",
              "type": "address"
            },
            {
              "internalType": "uint256",
              "name": "pay_amt",
              "type": "uint256"
            },
            {
              "internalType": "contract ERC20",
              "name": "buy_gem",
              "type": "address"
            },
            {
              "internalType": "uint256",
              "name": "min_fill_amount",
              "type": "uint256"
            }
          ],
          "name": "sellAllAmount",
          "outputs": [
            {
              "internalType": "uint256",
              "name": "fill_amt",
              "type": "uint256"
            }
          ],
          "payable": false,
          "stateMutability": "nonpayable",
          "type": "function"
        },
        {
          "constant": false,
          "inputs": [
            {
              "internalType": "address",
              "name": "_Aqueduct",
              "type": "address"
            }
          ],
          "name": "setAqueductAddress",
          "outputs": [
            {
              "internalType": "bool",
              "name": "",
              "type": "bool"
            }
          ],
          "payable": false,
          "stateMutability": "nonpayable",
          "type": "function"
        },
        {
          "constant": false,
          "inputs": [
            {
              "internalType": "bool",
              "name": "live",
              "type": "bool"
            }
          ],
          "name": "setAqueductDistributionLive",
          "outputs": [
            {
              "internalType": "bool",
              "name": "",
              "type": "bool"
            }
          ],
          "payable": false,
          "stateMutability": "nonpayable",
          "type": "function"
        },
        {
          "constant": false,
          "inputs": [
            {
              "internalType": "bool",
              "name": "buyEnabled_",
              "type": "bool"
            }
          ],
          "name": "setBuyEnabled",
          "outputs": [
            {
              "internalType": "bool",
              "name": "",
              "type": "bool"
            }
          ],
          "payable": false,
          "stateMutability": "nonpayable",
          "type": "function"
        },
        {
          "constant": false,
          "inputs": [
            {
              "internalType": "uint256",
              "name": "_newFeeBPS",
              "type": "uint256"
            }
          ],
          "name": "setFeeBPS",
          "outputs": [
            {
              "internalType": "bool",
              "name": "",
              "type": "bool"
            }
          ],
          "payable": false,
          "stateMutability": "nonpayable",
          "type": "function"
        },
        {
          "constant": false,
          "inputs": [
            {
              "internalType": "address",
              "name": "newFeeTo",
              "type": "address"
            }
          ],
          "name": "setFeeTo",
          "outputs": [
            {
              "internalType": "bool",
              "name": "",
              "type": "bool"
            }
          ],
          "payable": false,
          "stateMutability": "nonpayable",
          "type": "function"
        },
        {
          "constant": false,
          "inputs": [
            {
              "internalType": "bool",
              "name": "matchingEnabled_",
              "type": "bool"
            }
          ],
          "name": "setMatchingEnabled",
          "outputs": [
            {
              "internalType": "bool",
              "name": "",
              "type": "bool"
            }
          ],
          "payable": false,
          "stateMutability": "nonpayable",
          "type": "function"
        },
        {
          "constant": false,
          "inputs": [
            {
              "internalType": "contract ERC20",
              "name": "pay_gem",
              "type": "address"
            },
            {
              "internalType": "uint256",
              "name": "dust",
              "type": "uint256"
            }
          ],
          "name": "setMinSell",
          "outputs": [
            {
              "internalType": "bool",
              "name": "",
              "type": "bool"
            }
          ],
          "payable": false,
          "stateMutability": "nonpayable",
          "type": "function"
        },
        {
          "constant": false,
          "inputs": [
            {
              "internalType": "address",
              "name": "owner_",
              "type": "address"
            }
          ],
          "name": "setOwner",
          "outputs": [],
          "payable": false,
          "stateMutability": "nonpayable",
          "type": "function"
        },
        {
          "constant": false,
          "inputs": [],
          "name": "stop",
          "outputs": [],
          "payable": false,
          "stateMutability": "nonpayable",
          "type": "function"
        },
        {
          "constant": true,
          "inputs": [],
          "name": "stopped",
          "outputs": [
            {
              "internalType": "bool",
              "name": "",
              "type": "bool"
            }
          ],
          "payable": false,
          "stateMutability": "view",
          "type": "function"
        },
        {
          "constant": false,
          "inputs": [
            {
              "internalType": "bytes32",
              "name": "id",
              "type": "bytes32"
            },
            {
              "internalType": "uint128",
              "name": "maxTakeAmount",
              "type": "uint128"
            }
          ],
          "name": "take",
          "outputs": [],
          "payable": false,
          "stateMutability": "nonpayable",
          "type": "function"
        }
      ],
      "evm": {
        "bytecode": {
          "linkReferences": {},
          "object": "60806040526005805460ff60f01b1960ff60e81b19909116600160e81b1716600160f01b179055600e80546001600160a01b03191673c02aaa39b223fe8d0a0e5c4f27ead9083c756cc217905534801561005857600080fd5b506040516140c13803806140c18339818101604052606081101561007b57600080fd5b5080516020820151604092830151600080546001600160a01b0319163390811782559451939492939192859284927fce241d7ca1f669fee44b6fc00b8eba2df3bb514eed0f6f668f8f89096e81ed9491a26005805460146004556001600160a01b0319166001600160a01b039290921691909117600160a01b600160e01b031916600160a01b6001600160401b03939093168302179055600d805460ff60a01b19169315159091029290921790915550613f8590508061013c6000396000f3fe6080604052600436106103505760003560e01c8063779997c3116101c6578063be71f5ce116100f7578063d6febde811610095578063f09ea2a61161006f578063f09ea2a614610cf2578063f46901ed14610d3b578063f582d29314610d6e578063ff1fd97414610d8357610350565b8063d6febde814610c50578063e1a6f01414610c80578063f057adbb14610cd557610350565b8063c2d526aa116100d1578063c2d526aa14610b88578063c41a360a14610bd0578063d2b420ce14610bfa578063d6f1546914610c2457610350565b8063be71f5ce14610b07578063bf7c734e14610b3a578063c2b6b58c14610b7357610350565b8063911550f411610164578063a128171b1161013e578063a128171b14610a5b578063a78d431614610a87578063b4f9b6c814610ab1578063b73b73fd14610adb57610350565b8063911550f4146109d457806391be90c8146109fe578063943911bc14610a3157610350565b806382afd23b116101a057806382afd23b1461090d5780638a72ea6a146109375780638af82a2e146109aa5780638da5cb5b146109bf57610350565b8063779997c3146108615780637ca9429a1461088b5780638185402b146108c657610350565b806340e58ee5116102a0578063604b6a9c1161023e578063677170e111610218578063677170e1146107c15780636b9d8c4b146107fc57806374c1d7d31461081157806375f12b211461084c57610350565b8063604b6a9c1461075857806361f54a79146107825780636377ebca146107ac57610350565b8063496064551161027a57806349606455146106a6578063511fa487146106df578063557ed1ba1461071257806356ad87641461074357610350565b806340e58ee5146105f75780634579268a14610621578063467f0b7b1461067c57610350565b806313af40351161030d5780631d834a1b116102e75780631d834a1b14610571578063232cae0b146105a15780632aed1905146105b65780632f90a6fc146105e257610350565b806313af4035146104ae578063144a2752146104e15780631b33d4121461052457610350565b806301492a0b146103555780630374fc6f1461037e5780630621b4f6146103cb57806307da68f514610412578063093f5198146104295780630af88b241461047d575b600080fd5b34801561036157600080fd5b5061036a610dc6565b604080519115158252519081900360200190f35b34801561038a57600080fd5b506103b9600480360360408110156103a157600080fd5b506001600160a01b0381358116916020013516610dd6565b60408051918252519081900360200190f35b3480156103d757600080fd5b506103b9600480360360808110156103ee57600080fd5b506001600160a01b0381358116916020810135916040820135169060600135610e03565b34801561041e57600080fd5b50610427610f8b565b005b34801561043557600080fd5b506103b96004803603608081101561044c57600080fd5b506001600160a01b0381358116916020810135909116906001600160801b0360408201358116916060013516610fe8565b34801561048957600080fd5b50610492611011565b604080516001600160a01b039092168252519081900360200190f35b3480156104ba57600080fd5b50610427600480360360208110156104d157600080fd5b50356001600160a01b0316611020565b3480156104ed57600080fd5b506103b96004803603606081101561050457600080fd5b506001600160a01b038135811691602081013590911690604001356110b4565b34801561053057600080fd5b506103b9600480360360a081101561054757600080fd5b508035906001600160a01b036020820135811691604081013591606082013516906080013561117c565b34801561057d57600080fd5b5061036a6004803603604081101561059457600080fd5b50803590602001356111a9565b3480156105ad57600080fd5b506103b961126f565b3480156105c257600080fd5b5061036a600480360360208110156105d957600080fd5b50351515611275565b3480156105ee57600080fd5b5061036a611323565b34801561060357600080fd5b5061036a6004803603602081101561061a57600080fd5b5035611333565b34801561062d57600080fd5b5061064b6004803603602081101561064457600080fd5b503561148c565b604080519485526001600160a01b039384166020860152848101929092529091166060830152519081900360800190f35b34801561068857600080fd5b5061036a6004803603602081101561069f57600080fd5b5035611519565b3480156106b257600080fd5b50610427600480360360408110156106c957600080fd5b50803590602001356001600160801b0316611613565b3480156106eb57600080fd5b506103b96004803603602081101561070257600080fd5b50356001600160a01b0316611633565b34801561071e57600080fd5b5061072761164e565b604080516001600160401b039092168252519081900360200190f35b34801561074f57600080fd5b506103b9611652565b34801561076457600080fd5b5061036a6004803603602081101561077b57600080fd5b5035611658565b34801561078e57600080fd5b506103b9600480360360208110156107a557600080fd5b50356116ab565b3480156107b857600080fd5b506107276116bd565b3480156107cd57600080fd5b506103b9600480360360408110156107e457600080fd5b506001600160a01b03813581169160200135166116d3565b34801561080857600080fd5b506104926116f0565b34801561081d57600080fd5b506103b96004803603604081101561083457600080fd5b506001600160a01b03813581169160200135166116ff565b34801561085857600080fd5b5061036a61171c565b34801561086d57600080fd5b506104276004803603602081101561088457600080fd5b503561172c565b34801561089757600080fd5b506103b9600480360360408110156108ae57600080fd5b506001600160a01b0381358116916020013516611839565b3480156108d257600080fd5b506103b9600480360360808110156108e957600080fd5b506001600160a01b0381358116916020810135916040820135169060600135611864565b34801561091957600080fd5b5061036a6004803603602081101561093057600080fd5b50356119cd565b34801561094357600080fd5b506109616004803603602081101561095a57600080fd5b50356119f4565b604080519687526001600160a01b03958616602088015286810194909452918416606086015290921660808401526001600160401b0390911660a0830152519081900360c00190f35b3480156109b657600080fd5b506103b9611a46565b3480156109cb57600080fd5b50610492611a4c565b3480156109e057600080fd5b506103b9600480360360208110156109f757600080fd5b5035611a5b565b348015610a0a57600080fd5b506103b960048036036020811015610a2157600080fd5b50356001600160a01b0316611a6d565b348015610a3d57600080fd5b506103b960048036036020811015610a5457600080fd5b5035611a7f565b348015610a6757600080fd5b5061036a60048036036020811015610a7e57600080fd5b50351515611a94565b348015610a9357600080fd5b506103b960048036036020811015610aaa57600080fd5b5035611aff565b348015610abd57600080fd5b5061042760048036036020811015610ad457600080fd5b5035611b11565b6103b960048036036040811015610af157600080fd5b50803590602001356001600160a01b0316611b26565b348015610b1357600080fd5b5061036a60048036036020811015610b2a57600080fd5b50356001600160a01b0316611ca2565b348015610b4657600080fd5b5061036a60048036036040811015610b5d57600080fd5b506001600160a01b038135169060200135611d11565b348015610b7f57600080fd5b5061036a611e20565b348015610b9457600080fd5b50610bb260048036036020811015610bab57600080fd5b5035611e61565b60408051938452602084019290925282820152519081900360600190f35b348015610bdc57600080fd5b5061049260048036036020811015610bf357600080fd5b5035611e82565b348015610c0657600080fd5b5061036a60048036036020811015610c1d57600080fd5b5035611ea0565b348015610c3057600080fd5b5061036a60048036036020811015610c4757600080fd5b50351515611f10565b348015610c5c57600080fd5b5061036a60048036036040811015610c7357600080fd5b5080359060200135611fbd565b348015610c8c57600080fd5b506103b9600480360360c0811015610ca357600080fd5b508035906001600160a01b0360208201358116916040810135916060820135169060808101359060a001351515612101565b61036a60048036036020811015610ceb57600080fd5b50356121be565b348015610cfe57600080fd5b506103b960048036036080811015610d1557600080fd5b508035906001600160a01b03602082013581169160408101359160609091013516612399565b348015610d4757600080fd5b5061036a60048036036020811015610d5e57600080fd5b50356001600160a01b0316612415565b348015610d7a57600080fd5b5061036a612484565b348015610d8f57600080fd5b506103b960048036036060811015610da657600080fd5b506001600160a01b03813581169160208101359091169060400135612494565b600554600160f01b900460ff1681565b6001600160a01b038083166000908152600760209081526040808320938516835292905220545b92915050565b60035460009060ff1615610e4c576040805162461bcd60e51b81526020600482015260126024820152600080516020613e3d833981519152604482015290519081900360640190fd5b60005b8415610f7557610e5f8487610dd6565b905080610e6b57600080fd5b6000818152600260208190526040909120908101549054610e8c919061254d565b85670de0b6b3a7640000021015610ea257610f75565b600081815260026020819052604090912001548510610f1957600081815260026020526040902054610ed590839061257c565b9150610ef78560026000848152602001908152602001600020600201546125cb565b600082815260026020526040902054909550610f14908290611613565b610f70565b600081815260026020819052604082208054910154633b9aca0091610f4a9189840291610f459161261b565b612637565b81610f5157fe5b049050610f5e838261257c565b9250610f6a8282611613565b60009550505b610e4f565b82821015610f8257600080fd5b50949350505050565b610f9433612667565b610fd3576040805162461bcd60e51b81526020600482015260146024820152600080516020613f31833981519152604482015290519081900360640190fd5b6005805460ff60e01b1916600160e01b179055565b6000611008836001600160801b031686846001600160801b031687612399565b95945050505050565b600e546001600160a01b031681565b61102933612667565b611068576040805162461bcd60e51b81526020600482015260146024820152600080516020613f31833981519152604482015290519081900360640190fd5b600080546001600160a01b0319166001600160a01b03838116919091178083556040519116917fce241d7ca1f669fee44b6fc00b8eba2df3bb514eed0f6f668f8f89096e81ed9491a250565b6000806110c18585610dd6565b90505b6000818152600260208190526040909120015483111561113c576000818152600260205260409020546110f890839061257c565b915061111a8360026000848152602001908152602001600020600201546125cb565b925082156111375761112b81611a7f565b90508061113757600080fd5b6110c4565b60008181526002602081905260409091208054910154611008918491633b9aca009161116f9188840291610f459161261b565b8161117657fe5b0461257c565b6000611186611e20565b1561119057600080fd5b61119f86868686866001612101565b9695505050505050565b60035460009060ff16156111f2576040805162461bcd60e51b81526020600482015260126024820152600080516020613e3d833981519152604482015290519081900360640190fd5b6111fb83611ea0565b1561120557600080fd5b61120e836119cd565b61121757600080fd5b611220836126a8565b5061122b8383612752565b604080513381526020810185905281517f6d5c16212bdea16850dce4d9fa2314c446bd30ce84700d9c36c7677c6d283940929181900390910190a150600192915050565b60015481565b600061128033612667565b6112bf576040805162461bcd60e51b81526020600482015260146024820152600080516020613f31833981519152604482015290519081900360640190fd5b60058054831515600160f01b90810260ff60f01b199092169190911791829055604080519190920460ff161515815290517fea11e00ec1642be9b494019b756440e2c57dbe9e59242c4f9c64ce33fb4f41d99181900360200190a15060015b919050565b600d54600160a01b900460ff1681565b60008161133f816119cd565b61137a5760405162461bcd60e51b815260040180806020018281038252602d815260200180613e90602d913960400191505060405180910390fd5b611382611e20565b806113a6575061139181611e82565b6001600160a01b0316336001600160a01b0316145b806113b25750600c5481145b6113ed5760405162461bcd60e51b8152600401808060200182810382526074815260200180613ebd6074913960800191505060405180910390fd5b60035460ff1615611433576040805162461bcd60e51b81526020600482015260126024820152600080516020613e3d833981519152604482015290519081900360640190fd5b600554600160f01b900460ff161561147c5761144e83611ea0565b1561146a5761145c836128f1565b61146557600080fd5b61147c565b611473836126a8565b61147c57600080fd5b61148583612aac565b9392505050565b60008060008061149a613dc4565b5050506000928352505060026020818152604092839020835160c081018552815480825260018301546001600160a01b039081169483018590529483015495820186905260038301548516606083018190526004909301549485166080830152600160a01b9094046001600160401b031660a090910152919390929190565b60035460009060ff1615611562576040805162461bcd60e51b81526020600482015260126024820152600080516020613e3d833981519152604482015290519081900360640190fd5b61156b826119cd565b158015611588575060008281526006602052604090206002015415155b80156115a857506000828152600660205260409020600201546009194301115b6115b157600080fd5b60008281526006602090815260408083208381556001810184905560020192909255815133815290810184905281517fcb9d6176c6aac6478ebb9a2754cdce22a944de29ed1f2642f8613884eba4b40c929181900390910190a1506001919050565b611626826001600160801b038316611fbd565b61162f57600080fd5b5050565b6001600160a01b031660009081526009602052604090205490565b4290565b600c5481565b600061166333612667565b6116a2576040805162461bcd60e51b81526020600482015260146024820152600080516020613f31833981519152604482015290519081900360640190fd5b50600455600190565b6000908152600a602052604090205490565b600554600160a01b90046001600160401b031681565b600860209081526000928352604080842090915290825290205481565b600d546001600160a01b031681565b600760209081526000928352604080842090915290825290205481565b600554600160e01b900460ff1681565b80611736816119cd565b61173f57600080fd5b611747611e20565b1561175157600080fd5b600082815260026020818152604080842060048101546001820154600383015484516001600160601b0319606084811b8216838a015283901b1660348201528551602881830301815260488201808852815191890191909120998c905296889052845494909701546001600160a01b03928316909652811660688701526001600160801b0392831660888701529190931660a88501526001600160401b03600160a01b84041660c8850152905186949190921692909184917f70a14c213064359ede031fd2a1645a11ce2ec825ffe6ab5cfb5b160c3ef4d0a2919081900360e80190a4505050565b6001600160a01b03918216600090815260086020908152604080832093909416825291909152205490565b60035460009060ff16156118ad576040805162461bcd60e51b81526020600482015260126024820152600080516020613e3d833981519152604482015290519081900360640190fd5b60005b84156119c0576118c08685610dd6565b9050806118cc57600080fd5b600081815260026020819052604090912080549101546118ec919061254d565b85670de0b6b3a7640000021015611902576119c0565b60008181526002602052604090205485106119765761193782600260008481526020019081526020016000206002015461257c565b6000828152600260205260409020549092506119549086906125cb565b600082815260026020526040902054909550611971908290611613565b6119bb565b60008181526002602081905260409091209081015490546119aa918491633b9aca009161116f918a840291610f459161261b565b91506119b68186611613565b600094505b6118b0565b82821115610f8257600080fd5b600090815260026020526040902060040154600160a01b90046001600160401b0316151590565b60026020819052600091825260409091208054600182015492820154600383015460049093015491936001600160a01b039081169391929181169190811690600160a01b90046001600160401b031686565b600b5490565b6000546001600160a01b031681565b60009081526006602052604090205490565b60096020526000908152604090205481565b60009081526006602052604090206001015490565b6000611a9f33612667565b611ade576040805162461bcd60e51b81526020600482015260146024820152600080516020613f31833981519152604482015290519081900360640190fd5b50600d8054821515600160a01b0260ff60a01b199091161790556001919050565b600a6020526000908152604090205481565b611b1a81611333565b611b2357600080fd5b50565b60035460009060ff1615611b6f576040805162461bcd60e51b81526020600482015260126024820152600080516020613e3d833981519152604482015290519081900360640190fd5b600e60009054906101000a90046001600160a01b03166001600160a01b031663d0e30db0346040518263ffffffff1660e01b81526004016000604051808303818588803b158015611bbf57600080fd5b505af1158015611bd3573d6000803e3d6000fd5b5050600e546040805163a9059cbb60e01b815233600482015234602482015290516001600160a01b03909216945063a9059cbb935060448082019350602092918290030181600087803b158015611c2957600080fd5b505af1158015611c3d573d6000803e3d6000fd5b505050506040513d6020811015611c5357600080fd5b5050600e546005546001600160a01b0390911690600160f01b900460ff1615611c8e57611c863482868660006001612eba565b915050610dfd565b611c9a3482868661301d565b949350505050565b6000611cad33612667565b611cec576040805162461bcd60e51b81526020600482015260146024820152600080516020613f31833981519152604482015290519081900360640190fd5b50600d80546001600160a01b0383166001600160a01b03199091161790556001919050565b6000611d1c33612667565b611d5b576040805162461bcd60e51b81526020600482015260146024820152600080516020613f31833981519152604482015290519081900360640190fd5b604080513480825260208201838152369383018490526004359360243593849286923392600080356001600160e01b03191693889391929060608201848480828437600083820152604051601f909101601f1916909201829003965090945050505050a46001600160a01b0386166000818152600960209081526040918290208890558151928352820187905280517fc28d56449b0bb31e64ee7487e061f57a2e72aea8019d810832f26dda099823d09281900390910190a150600195945050505050565b600554600090600160e01b900460ff1680611e5c5750600554600160a01b90046001600160401b0316611e5161164e565b6001600160401b0316115b905090565b60066020526000908152604090208054600182015460029092015490919083565b6000908152600260205260409020600401546001600160a01b031690565b600081815260066020526040812054151580611ecc575060008281526006602052604090206001015415155b80610dfd575050600081815260026020908152604080832060018101546001600160a01b039081168552600784528285206003909201541684529091529020541490565b6000611f1b33612667565b611f5a576040805162461bcd60e51b81526020600482015260146024820152600080516020613f31833981519152604482015290519081900360640190fd5b60058054831515600160e81b90810260ff60e81b199092169190911791829055604080519190920460ff161515815290517f7089e4f0bcc948f9f723a361590c32d9c2284da7ab1981b1249ad2edb9f953c19181900360200190a1506001919050565b600082611fc9816119cd565b611fd257600080fd5b611fda611e20565b15611fe457600080fd5b60035460ff161561202a576040805162461bcd60e51b81526020600482015260126024820152600080516020613e3d833981519152604482015290519081900360640190fd5b600d54600160a01b900460ff16156120d057600d546001600160a01b031663b30ed7b361205686611e82565b604080516001600160e01b031960e085901b1681526001600160a01b0390921660048301523360248301525160448083019260209291908290030181600087803b1580156120a357600080fd5b505af11580156120b7573d6000803e3d6000fd5b505050506040513d60208110156120cd57600080fd5b50505b600554613df990600160f01b900460ff166120ed5761332e6120f1565b613a3e5b905061100885858363ffffffff16565b600061210b611e20565b1561211557600080fd5b60035460ff161561215b576040805162461bcd60e51b81526020600482015260126024820152600080516020613e3d833981519152604482015290519081900360640190fd5b6001600160a01b03861660009081526009602052604090205487101561218057600080fd5b600554600160f01b900460ff16156121a7576121a0878787878787612eba565b905061119f565b6121b38787878761301d565b979650505050505050565b6000816121ca816119cd565b6121d357600080fd5b6121db611e20565b156121e557600080fd5b60035460ff161561222b576040805162461bcd60e51b81526020600482015260126024820152600080516020613e3d833981519152604482015290519081900360640190fd5b600e546000848152600260205260409020600301546001600160a01b03918216911681146122a0576040805162461bcd60e51b815260206004820152601d60248201527f6f6666657220796f7520627579206d75737420626520696e2057455448000000604482015290519081900360640190fd5b600e60009054906101000a90046001600160a01b03166001600160a01b031663d0e30db0346040518263ffffffff1660e01b81526004016000604051808303818588803b1580156122f057600080fd5b505af1158015612304573d6000803e3d6000fd5b5050600e546040805163a9059cbb60e01b815233600482015234602482015290516001600160a01b03909216945063a9059cbb935060448082019350602092918290030181600087803b15801561235a57600080fd5b505af115801561236e573d6000803e3d6000fd5b505050506040513d602081101561238457600080fd5b506123919050843461332e565b505050919050565b60035460009060ff16156123e2576040805162461bcd60e51b81526020600482015260126024820152600080516020613e3d833981519152604482015290519081900360640190fd5b600554613df990600160f01b900460ff166123ff5761301d612403565b613b095b905061119f868686868563ffffffff16565b600061242033612667565b61245f576040805162461bcd60e51b81526020600482015260146024820152600080516020613f31833981519152604482015290519081900360640190fd5b50600580546001600160a01b0383166001600160a01b03199091161790556001919050565b600554600160e81b900460ff1681565b6000806124a18486610dd6565b90505b600081815260026020526040902054831115612519576124da82600260008481526020019081526020016000206002015461257c565b6000828152600260205260409020549092506124f79084906125cb565b925082156125145761250881611a7f565b90508061251457600080fd5b6124a4565b6000818152600260208190526040909120908101549054611008918491633b9aca009161116f9188840291610f459161261b565b60008161256d61256585670de0b6b3a7640000613b93565b600285611176565b8161257457fe5b049392505050565b80820182811015610dfd576040805162461bcd60e51b815260206004820152601460248201527364732d6d6174682d6164642d6f766572666c6f7760601b604482015290519081900360640190fd5b80820382811115610dfd576040805162461bcd60e51b815260206004820152601560248201527464732d6d6174682d7375622d756e646572666c6f7760581b604482015290519081900360640190fd5b60008161256d612565856b033b2e3c9fd0803ce8000000613b93565b60006b033b2e3c9fd0803ce800000061256d6126538585613b93565b60026b033b2e3c9fd0803ce8000000611176565b60006001600160a01b0382163014156126825750600161131e565b6000546001600160a01b03838116911614156126a05750600161131e565b50600061131e565b600b54600090806126b884611ea0565b156126c257600080fd5b83600b5414156126ea575050506000818152600a602052604081208054600b5555600161131e565b5b6000821180156126fb5750838214155b1561271657506000818152600a6020526040902054906126eb565b8382146127285760009250505061131e565b6000848152600a602052604080822080549383529082209290925584815290555060019050919050565b61275b826119cd565b61276457600080fd5b600082815260026020526040812060038101546001909101546001600160a01b03918216929116908315806127b657506000848152600260205260409020600101546001600160a01b03838116911614155b806127de57506000848152600260205260409020600301546001600160a01b03848116911614155b806127ef57506127ed84611ea0565b155b612802576127fd8585613bf6565b61280b565b61280b85613cc8565b9350831561283957506000838152600660205260408082206001018054908790558683529120849055612866565b506001600160a01b0381811660009081526007602090815260408083209386168352929052208054908590555b801561288a5760008181526006602052604080822087905586825290206001018190555b6001600160a01b03808316600090815260086020908152604080832093871683529281529082902080546001019055815187815291517f20fb9bad86c18f7e22e8065258790d9416a7d2df8ff05f80f82c46d38b925acd9281900390910190a15050505050565b600081815260026020908152604080832060038101546001909101546001600160a01b03908116808652600885528386209190921680865293529083205461293857600080fd5b60008481526006602052604090206002015415801561295b575061295b84611ea0565b61296457600080fd5b6001600160a01b0380821660009081526007602090815260408083209386168352929052205484146129d75760008481526006602052604080822054825290206001015484146129b357600080fd5b60008481526006602052604080822060018082015491548452919092200155612a0d565b6000848152600660209081526040808320600101546001600160a01b038086168552600784528285209087168552909252909120555b60008481526006602052604090206001015415612a64576000848152600660205260408082206001015482529020548414612a4757600080fd5b600084815260066020526040808220805460019091015483529120555b6001600160a01b039081166000908152600860209081526040808320949093168252928352818120805460001901905593845260069091529091204360029091015550600190565b600081612ab8816119cd565b612af35760405162461bcd60e51b815260040180806020018281038252602d815260200180613e90602d913960400191505060405180910390fd5b612afb611e20565b80612b1f5750612b0a81611e82565b6001600160a01b0316336001600160a01b0316145b80612b2b5750600c5481145b612b665760405162461bcd60e51b8152600401808060200182810382526074815260200180613ebd6074913960800191505060405180910390fd5b60035460ff1615612b7657600080fd5b6003805460ff19166001179055612b8b613dc4565b600260008581526020019081526020016000206040518060c0016040529081600082015481526020016001820160009054906101000a90046001600160a01b03166001600160a01b03166001600160a01b03168152602001600282015481526020016003820160009054906101000a90046001600160a01b03166001600160a01b03166001600160a01b031681526020016004820160009054906101000a90046001600160a01b03166001600160a01b03166001600160a01b031681526020016004820160149054906101000a90046001600160401b03166001600160401b03166001600160401b0316815250509050600260008581526020019081526020016000206000808201600090556001820160006101000a8154906001600160a01b03021916905560028201600090556003820160006101000a8154906001600160a01b0302191690556004820160006101000a8154906001600160a01b0302191690556004820160146101000a8154906001600160401b030219169055505080602001516001600160a01b031663a9059cbb826080015183600001516040518363ffffffff1660e01b815260040180836001600160a01b03166001600160a01b0316815260200182815260200192505050602060405180830381600087803b158015612d7557600080fd5b505af1158015612d89573d6000803e3d6000fd5b505050506040513d6020811015612d9f57600080fd5b5051612daa57600080fd5b6040805185815290517fa2c251311b1a7a475913900a2a73dc9789a21b04bc737e050bbc506dd4eb34889181900360200190a160808101516020808301805160608086018051604080516001600160601b031995851b8616818901529190931b9093166034840152815160288185030181526048840180845281519190960120935190518751838901516001600160a01b0393841690975290821660688501526001600160801b03908116608885015290941660a88301526001600160401b03421660c8830152519290931692909187917f9577941d28fff863bfbee4694a6a4a56fb09e169619189d2eaa750b5b4819995919081900360e80190a450506003805460ff19169055506001919050565b60008060008060005b6001600160a01b038089166000908152600760209081526040808320938e168352929052205415612fbe5750506001600160a01b038087166000908152600760209081526040808320938c16835292815282822054808352600291829052929091209081015490549193509085612f3b576000612f43565b808b8a840101015b612f4d8c83613b93565b01612f58838b613b93565b1115612f6357612fbe565b612f7684612f71838c613d4c565b611fbd565b50889250612f8d89612f88838c613d4c565b6125cb565b985082612f9a8a8d613b93565b81612fa157fe5b049a508a1580612faf575088155b15612fb957612fbe565b612ec3565b600089118015612fce575060008b115b8015612ff257506001600160a01b038a166000908152600960205260409020548b10155b1561300f576130038b8b8b8b61301d565b945061300f8588612752565b505050509695505050505050565b6000613027611e20565b1561303157600080fd5b60035460ff161561304157600080fd5b6003805460ff191660011790556001600160801b038516851461306357600080fd5b82836001600160801b03161461307857600080fd5b6000851161308557600080fd5b6001600160a01b03841661309857600080fd5b600083116130a557600080fd5b6001600160a01b0382166130b857600080fd5b816001600160a01b0316846001600160a01b031614156130d757600080fd5b6130df613dc4565b8581526001600160a01b03808616602083015260408201859052831660608201523360808201526001600160401b03421660a082015261311d613d63565b600081815260026020818152604080842086518155828701516001820180546001600160a01b039283166001600160a01b0319918216179091558389015195830195909555606088015160038301805491831691871691909117905560808801516004928301805460a08b01516001600160401b0316600160a01b0267ffffffffffffffff60a01b199385169190981617919091169590951790945581516323b872dd60e01b81523391810191909152306024820152604481018c90529051949650918916936323b872dd936064808501948390030190829087803b15801561320557600080fd5b505af1158015613219573d6000803e3d6000fd5b505050506040513d602081101561322f57600080fd5b505161323a57600080fd5b6040805183815290517fa2c251311b1a7a475913900a2a73dc9789a21b04bc737e050bbc506dd4eb34889181900360200190a1604080516001600160601b0319606088811b82166020808501919091529087901b90911660348301528251602881840301815260488301808552815191909201206001600160a01b0389811690925290861660688301526001600160801b03808a166088840152871660a88301526001600160401b03421660c8830152915133929185917f773ff502687307abfa024ac9f62f9752a0d210dac2ffd9a29e38e12e2ea82c829181900360e80190a4506003805460ff19169055949350505050565b60008261333a816119cd565b61334357600080fd5b61334b611e20565b1561335557600080fd5b60035460ff161561336557600080fd5b6003805460ff1916600117905561337a613dc4565b506000848152600260208181526040808420815160c081018352815480825260018301546001600160a01b0390811695830195909552948201549281018390526003820154841660608201526004909101549283166080820152600160a01b9092046001600160401b031660a0830152909291906133f9908790613b93565b8161340057fe5b04905080816001600160801b031614613456576040805162461bcd60e51b81526020600482015260136024820152721cdc195b99081a5cc81b9bdd08185b881a5b9d606a1b604482015290519081900360640190fd5b84856001600160801b0316146134ac576040805162461bcd60e51b81526020600482015260166024820152751c5d585b9d1a5d1e481a5cc81b9bdd08185b881a5b9d60521b604482015290519081900360640190fd5b8415806134b7575080155b806134c25750815185115b806134d05750816040015181115b156134e057600093505050613a2d565b60006127106134f183600454613b93565b816134f857fe5b6060850151600554604080516323b872dd60e01b81523360048201526001600160a01b0392831660248201529490930460448501819052925192945016916323b872dd9160648083019260209291908290030181600087803b15801561355d57600080fd5b505af1158015613571573d6000803e3d6000fd5b505050506040513d602081101561358757600080fd5b50516135da576040805162461bcd60e51b815260206004820152601f60248201527f496e73756666696369656e742066756e647320746f20636f7665722066656500604482015290519081900360640190fd5b82516135e690876125cb565b600088815260026020526040908190209190915583015161360790836125cb565b6000888152600260208181526040808420909201939093556060860151608087015182516323b872dd60e01b81523360048201526001600160a01b0391821660248201526044810188905292519116936323b872dd936064808501949293928390030190829087803b15801561367c57600080fd5b505af1158015613690573d6000803e3d6000fd5b505050506040513d60208110156136a657600080fd5b50516136e35760405162461bcd60e51b8152600401808060200182810382526041815260200180613dfc6041913960600191505060405180910390fd5b6020808401516040805163a9059cbb60e01b8152336004820152602481018a905290516001600160a01b039092169263a9059cbb926044808401938290030181600087803b15801561373457600080fd5b505af1158015613748573d6000803e3d6000fd5b505050506040513d602081101561375e57600080fd5b505161379b5760405162461bcd60e51b8152600401808060200182810382526033815260200180613e5d6033913960400191505060405180910390fd5b6040805188815290517fa2c251311b1a7a475913900a2a73dc9789a21b04bc737e050bbc506dd4eb34889181900360200190a160808301516020808501805160608088018051604080516001600160601b031995851b8616818901529190931b909316603484015281516028818503018152604884018084528151919096012093519051948d90526001600160a01b03908116606884015293841660888301526001600160801b03808c1660a8840152871660c88301526001600160401b03421660e8830152513394909316927f3383e3357c77fd2e3a4b30deea81179bc70a795d053d14d5b7f2f01d0fd4596f918190036101080190a460808301516020808501805160608088018051604080516001600160601b031995851b8616818901529190931b909316603484015281516028818503018152604884018084528151919096012093519051600554958e90526001600160a01b039182166068850152811660888401526001600160801b03808d1660a8850152881660c884015260e883018790529384166101088301526001600160401b034216610128830152513394909316927f0ae463beeed705bdba735cc0f80a21bc43e39fa85611fbceb6e509ca190cc6e2918190036101480190a482606001516001600160a01b031683602001516001600160a01b03167f819e390338feffe95e2de57172d6faf337853dfd15c7a09a32d76f7fd24438758885604051808381526020018281526020019250505060405180910390a3600087815260026020526040902054613a2557600087815260026020819052604082208281556001810180546001600160a01b031990811690915591810192909255600382018054909116905560040180546001600160e01b03191690555b600194505050505b506003805460ff1916905592915050565b600554600090600160e81b900460ff16613a5757600080fd5b600083815260026020526040902054821415613a9557613a7683611ea0565b15613a8a57613a84836128f1565b50613a95565b613a93836126a8565b505b613a9f838361332e565b613aa857600080fd5b613ab1836119cd565b8015613aeb5750600083815260026020818152604080842060018101546001600160a01b0316855260098352908420549387905291905254105b15613b0057600c839055613afe83611333565b505b50600192915050565b6001600160a01b038316600090815260096020526040812054851015613b2e57600080fd5b613b3a8585858561301d565b600b80546000838152600a60209081526040918290209290925591839055815183815291519293507f8173832a493e0a3989e521458e55bfe9feac9f9b675a94e100b9d5a85f81486292918290030190a1949350505050565b6000811580613bae57505080820282828281613bab57fe5b04145b610dfd576040805162461bcd60e51b815260206004820152601460248201527364732d6d6174682d6d756c2d6f766572666c6f7760601b604482015290519081900360640190fd5b6000808311613c0457600080fd5b8115801590613c195750613c17826119cd565b155b15613c37576000918252600660205260409091206001015490613c04565b81613c4c57613c4583613cc8565b9050610dfd565b613c568383613d70565b15613c905760005b8215801590613c725750613c728484613d70565b15613c45575060008281526006602052604090206001015491613c5e565b8115801590613ca65750613ca48383613d70565b155b15613cc1576000918252600660205260409091205490613c90565b5080610dfd565b6000808211613cd657600080fd5b600082815260026020908152604080832060038101546001909101546001600160a01b03908116808652600785528386209190921680865293529083205491929091905b8115801590613d2e5750613d2e8683613d70565b15611008575060008181526006602052604090206001015490613d1a565b600081831115613d5c5781611485565b5090919050565b6001805481019081905590565b60008181526002602081905260408083209091015484835290822054613d969190613b93565b600084815260026020819052604080832090910154858352912054613dbb9190613b93565b10159392505050565b6040805160c081018252600080825260208201819052918101829052606081018290526080810182905260a081019190915290565bfefe6f666665722e6275795f67656d2e7472616e7366657246726f6d286d73672e73656e6465722c206f666665722e6f776e65722c207370656e6429206661696c65645265656e7472616e637920617474656d707400000000000000000000000000006f666665722e7061795f67656d2e7472616e73666572286d73672e73656e6465722c207175616e7469747929206661696c65644f66666572207761732064656c65746564206f722074616b656e2c206f72206e6576657220657869737465642e4f666665722063616e206e6f742062652063616e63656c6c656420626563617573652075736572206973206e6f74206f776e65722c20616e64206d61726b6574206973206f70656e2c20616e64206f666665722073656c6c7320726571756972656420616d6f756e74206f6620746f6b656e732e64732d617574682d756e617574686f72697a6564000000000000000000000000a265627a7a72315820980a29b8e0858a029d325957632882de6409996e34e6aa32b3a7ad3af5e7874664736f6c63430005100032",
          "opcodes": "PUSH1 0x80 PUSH1 0x40 MSTORE PUSH1 0x5 DUP1 SLOAD PUSH1 0xFF PUSH1 0xF0 SHL NOT PUSH1 0xFF PUSH1 0xE8 SHL NOT SWAP1 SWAP2 AND PUSH1 0x1 PUSH1 0xE8 SHL OR AND PUSH1 0x1 PUSH1 0xF0 SHL OR SWAP1 SSTORE PUSH1 0xE DUP1 SLOAD PUSH1 0x1 PUSH1 0x1 PUSH1 0xA0 SHL SUB NOT AND PUSH20 0xC02AAA39B223FE8D0A0E5C4F27EAD9083C756CC2 OR SWAP1 SSTORE CALLVALUE DUP1 ISZERO PUSH2 0x58 JUMPI PUSH1 0x0 DUP1 REVERT JUMPDEST POP PUSH1 0x40 MLOAD PUSH2 0x40C1 CODESIZE SUB DUP1 PUSH2 0x40C1 DUP4 CODECOPY DUP2 DUP2 ADD PUSH1 0x40 MSTORE PUSH1 0x60 DUP2 LT ISZERO PUSH2 0x7B JUMPI PUSH1 0x0 DUP1 REVERT JUMPDEST POP DUP1 MLOAD PUSH1 0x20 DUP3 ADD MLOAD PUSH1 0x40 SWAP3 DUP4 ADD MLOAD PUSH1 0x0 DUP1 SLOAD PUSH1 0x1 PUSH1 0x1 PUSH1 0xA0 SHL SUB NOT AND CALLER SWAP1 DUP2 OR DUP3 SSTORE SWAP5 MLOAD SWAP4 SWAP5 SWAP3 SWAP4 SWAP2 SWAP3 DUP6 SWAP3 DUP5 SWAP3 PUSH32 0xCE241D7CA1F669FEE44B6FC00B8EBA2DF3BB514EED0F6F668F8F89096E81ED94 SWAP2 LOG2 PUSH1 0x5 DUP1 SLOAD PUSH1 0x14 PUSH1 0x4 SSTORE PUSH1 0x1 PUSH1 0x1 PUSH1 0xA0 SHL SUB NOT AND PUSH1 0x1 PUSH1 0x1 PUSH1 0xA0 SHL SUB SWAP3 SWAP1 SWAP3 AND SWAP2 SWAP1 SWAP2 OR PUSH1 0x1 PUSH1 0xA0 SHL PUSH1 0x1 PUSH1 0xE0 SHL SUB NOT AND PUSH1 0x1 PUSH1 0xA0 SHL PUSH1 0x1 PUSH1 0x1 PUSH1 0x40 SHL SUB SWAP4 SWAP1 SWAP4 AND DUP4 MUL OR SWAP1 SSTORE PUSH1 0xD DUP1 SLOAD PUSH1 0xFF PUSH1 0xA0 SHL NOT AND SWAP4 ISZERO ISZERO SWAP1 SWAP2 MUL SWAP3 SWAP1 SWAP3 OR SWAP1 SWAP2 SSTORE POP PUSH2 0x3F85 SWAP1 POP DUP1 PUSH2 0x13C PUSH1 0x0 CODECOPY PUSH1 0x0 RETURN INVALID PUSH1 0x80 PUSH1 0x40 MSTORE PUSH1 0x4 CALLDATASIZE LT PUSH2 0x350 JUMPI PUSH1 0x0 CALLDATALOAD PUSH1 0xE0 SHR DUP1 PUSH4 0x779997C3 GT PUSH2 0x1C6 JUMPI DUP1 PUSH4 0xBE71F5CE GT PUSH2 0xF7 JUMPI DUP1 PUSH4 0xD6FEBDE8 GT PUSH2 0x95 JUMPI DUP1 PUSH4 0xF09EA2A6 GT PUSH2 0x6F JUMPI DUP1 PUSH4 0xF09EA2A6 EQ PUSH2 0xCF2 JUMPI DUP1 PUSH4 0xF46901ED EQ PUSH2 0xD3B JUMPI DUP1 PUSH4 0xF582D293 EQ PUSH2 0xD6E JUMPI DUP1 PUSH4 0xFF1FD974 EQ PUSH2 0xD83 JUMPI PUSH2 0x350 JUMP JUMPDEST DUP1 PUSH4 0xD6FEBDE8 EQ PUSH2 0xC50 JUMPI DUP1 PUSH4 0xE1A6F014 EQ PUSH2 0xC80 JUMPI DUP1 PUSH4 0xF057ADBB EQ PUSH2 0xCD5 JUMPI PUSH2 0x350 JUMP JUMPDEST DUP1 PUSH4 0xC2D526AA GT PUSH2 0xD1 JUMPI DUP1 PUSH4 0xC2D526AA EQ PUSH2 0xB88 JUMPI DUP1 PUSH4 0xC41A360A EQ PUSH2 0xBD0 JUMPI DUP1 PUSH4 0xD2B420CE EQ PUSH2 0xBFA JUMPI DUP1 PUSH4 0xD6F15469 EQ PUSH2 0xC24 JUMPI PUSH2 0x350 JUMP JUMPDEST DUP1 PUSH4 0xBE71F5CE EQ PUSH2 0xB07 JUMPI DUP1 PUSH4 0xBF7C734E EQ PUSH2 0xB3A JUMPI DUP1 PUSH4 0xC2B6B58C EQ PUSH2 0xB73 JUMPI PUSH2 0x350 JUMP JUMPDEST DUP1 PUSH4 0x911550F4 GT PUSH2 0x164 JUMPI DUP1 PUSH4 0xA128171B GT PUSH2 0x13E JUMPI DUP1 PUSH4 0xA128171B EQ PUSH2 0xA5B JUMPI DUP1 PUSH4 0xA78D4316 EQ PUSH2 0xA87 JUMPI DUP1 PUSH4 0xB4F9B6C8 EQ PUSH2 0xAB1 JUMPI DUP1 PUSH4 0xB73B73FD EQ PUSH2 0xADB JUMPI PUSH2 0x350 JUMP JUMPDEST DUP1 PUSH4 0x911550F4 EQ PUSH2 0x9D4 JUMPI DUP1 PUSH4 0x91BE90C8 EQ PUSH2 0x9FE JUMPI DUP1 PUSH4 0x943911BC EQ PUSH2 0xA31 JUMPI PUSH2 0x350 JUMP JUMPDEST DUP1 PUSH4 0x82AFD23B GT PUSH2 0x1A0 JUMPI DUP1 PUSH4 0x82AFD23B EQ PUSH2 0x90D JUMPI DUP1 PUSH4 0x8A72EA6A EQ PUSH2 0x937 JUMPI DUP1 PUSH4 0x8AF82A2E EQ PUSH2 0x9AA JUMPI DUP1 PUSH4 0x8DA5CB5B EQ PUSH2 0x9BF JUMPI PUSH2 0x350 JUMP JUMPDEST DUP1 PUSH4 0x779997C3 EQ PUSH2 0x861 JUMPI DUP1 PUSH4 0x7CA9429A EQ PUSH2 0x88B JUMPI DUP1 PUSH4 0x8185402B EQ PUSH2 0x8C6 JUMPI PUSH2 0x350 JUMP JUMPDEST DUP1 PUSH4 0x40E58EE5 GT PUSH2 0x2A0 JUMPI DUP1 PUSH4 0x604B6A9C GT PUSH2 0x23E JUMPI DUP1 PUSH4 0x677170E1 GT PUSH2 0x218 JUMPI DUP1 PUSH4 0x677170E1 EQ PUSH2 0x7C1 JUMPI DUP1 PUSH4 0x6B9D8C4B EQ PUSH2 0x7FC JUMPI DUP1 PUSH4 0x74C1D7D3 EQ PUSH2 0x811 JUMPI DUP1 PUSH4 0x75F12B21 EQ PUSH2 0x84C JUMPI PUSH2 0x350 JUMP JUMPDEST DUP1 PUSH4 0x604B6A9C EQ PUSH2 0x758 JUMPI DUP1 PUSH4 0x61F54A79 EQ PUSH2 0x782 JUMPI DUP1 PUSH4 0x6377EBCA EQ PUSH2 0x7AC JUMPI PUSH2 0x350 JUMP JUMPDEST DUP1 PUSH4 0x49606455 GT PUSH2 0x27A JUMPI DUP1 PUSH4 0x49606455 EQ PUSH2 0x6A6 JUMPI DUP1 PUSH4 0x511FA487 EQ PUSH2 0x6DF JUMPI DUP1 PUSH4 0x557ED1BA EQ PUSH2 0x712 JUMPI DUP1 PUSH4 0x56AD8764 EQ PUSH2 0x743 JUMPI PUSH2 0x350 JUMP JUMPDEST DUP1 PUSH4 0x40E58EE5 EQ PUSH2 0x5F7 JUMPI DUP1 PUSH4 0x4579268A EQ PUSH2 0x621 JUMPI DUP1 PUSH4 0x467F0B7B EQ PUSH2 0x67C JUMPI PUSH2 0x350 JUMP JUMPDEST DUP1 PUSH4 0x13AF4035 GT PUSH2 0x30D JUMPI DUP1 PUSH4 0x1D834A1B GT PUSH2 0x2E7 JUMPI DUP1 PUSH4 0x1D834A1B EQ PUSH2 0x571 JUMPI DUP1 PUSH4 0x232CAE0B EQ PUSH2 0x5A1 JUMPI DUP1 PUSH4 0x2AED1905 EQ PUSH2 0x5B6 JUMPI DUP1 PUSH4 0x2F90A6FC EQ PUSH2 0x5E2 JUMPI PUSH2 0x350 JUMP JUMPDEST DUP1 PUSH4 0x13AF4035 EQ PUSH2 0x4AE JUMPI DUP1 PUSH4 0x144A2752 EQ PUSH2 0x4E1 JUMPI DUP1 PUSH4 0x1B33D412 EQ PUSH2 0x524 JUMPI PUSH2 0x350 JUMP JUMPDEST DUP1 PUSH4 0x1492A0B EQ PUSH2 0x355 JUMPI DUP1 PUSH4 0x374FC6F EQ PUSH2 0x37E JUMPI DUP1 PUSH4 0x621B4F6 EQ PUSH2 0x3CB JUMPI DUP1 PUSH4 0x7DA68F5 EQ PUSH2 0x412 JUMPI DUP1 PUSH4 0x93F5198 EQ PUSH2 0x429 JUMPI DUP1 PUSH4 0xAF88B24 EQ PUSH2 0x47D JUMPI JUMPDEST PUSH1 0x0 DUP1 REVERT JUMPDEST CALLVALUE DUP1 ISZERO PUSH2 0x361 JUMPI PUSH1 0x0 DUP1 REVERT JUMPDEST POP PUSH2 0x36A PUSH2 0xDC6 JUMP JUMPDEST PUSH1 0x40 DUP1 MLOAD SWAP2 ISZERO ISZERO DUP3 MSTORE MLOAD SWAP1 DUP2 SWAP1 SUB PUSH1 0x20 ADD SWAP1 RETURN JUMPDEST CALLVALUE DUP1 ISZERO PUSH2 0x38A JUMPI PUSH1 0x0 DUP1 REVERT JUMPDEST POP PUSH2 0x3B9 PUSH1 0x4 DUP1 CALLDATASIZE SUB PUSH1 0x40 DUP2 LT ISZERO PUSH2 0x3A1 JUMPI PUSH1 0x0 DUP1 REVERT JUMPDEST POP PUSH1 0x1 PUSH1 0x1 PUSH1 0xA0 SHL SUB DUP2 CALLDATALOAD DUP2 AND SWAP2 PUSH1 0x20 ADD CALLDATALOAD AND PUSH2 0xDD6 JUMP JUMPDEST PUSH1 0x40 DUP1 MLOAD SWAP2 DUP3 MSTORE MLOAD SWAP1 DUP2 SWAP1 SUB PUSH1 0x20 ADD SWAP1 RETURN JUMPDEST CALLVALUE DUP1 ISZERO PUSH2 0x3D7 JUMPI PUSH1 0x0 DUP1 REVERT JUMPDEST POP PUSH2 0x3B9 PUSH1 0x4 DUP1 CALLDATASIZE SUB PUSH1 0x80 DUP2 LT ISZERO PUSH2 0x3EE JUMPI PUSH1 0x0 DUP1 REVERT JUMPDEST POP PUSH1 0x1 PUSH1 0x1 PUSH1 0xA0 SHL SUB DUP2 CALLDATALOAD DUP2 AND SWAP2 PUSH1 0x20 DUP2 ADD CALLDATALOAD SWAP2 PUSH1 0x40 DUP3 ADD CALLDATALOAD AND SWAP1 PUSH1 0x60 ADD CALLDATALOAD PUSH2 0xE03 JUMP JUMPDEST CALLVALUE DUP1 ISZERO PUSH2 0x41E JUMPI PUSH1 0x0 DUP1 REVERT JUMPDEST POP PUSH2 0x427 PUSH2 0xF8B JUMP JUMPDEST STOP JUMPDEST CALLVALUE DUP1 ISZERO PUSH2 0x435 JUMPI PUSH1 0x0 DUP1 REVERT JUMPDEST POP PUSH2 0x3B9 PUSH1 0x4 DUP1 CALLDATASIZE SUB PUSH1 0x80 DUP2 LT ISZERO PUSH2 0x44C JUMPI PUSH1 0x0 DUP1 REVERT JUMPDEST POP PUSH1 0x1 PUSH1 0x1 PUSH1 0xA0 SHL SUB DUP2 CALLDATALOAD DUP2 AND SWAP2 PUSH1 0x20 DUP2 ADD CALLDATALOAD SWAP1 SWAP2 AND SWAP1 PUSH1 0x1 PUSH1 0x1 PUSH1 0x80 SHL SUB PUSH1 0x40 DUP3 ADD CALLDATALOAD DUP2 AND SWAP2 PUSH1 0x60 ADD CALLDATALOAD AND PUSH2 0xFE8 JUMP JUMPDEST CALLVALUE DUP1 ISZERO PUSH2 0x489 JUMPI PUSH1 0x0 DUP1 REVERT JUMPDEST POP PUSH2 0x492 PUSH2 0x1011 JUMP JUMPDEST PUSH1 0x40 DUP1 MLOAD PUSH1 0x1 PUSH1 0x1 PUSH1 0xA0 SHL SUB SWAP1 SWAP3 AND DUP3 MSTORE MLOAD SWAP1 DUP2 SWAP1 SUB PUSH1 0x20 ADD SWAP1 RETURN JUMPDEST CALLVALUE DUP1 ISZERO PUSH2 0x4BA JUMPI PUSH1 0x0 DUP1 REVERT JUMPDEST POP PUSH2 0x427 PUSH1 0x4 DUP1 CALLDATASIZE SUB PUSH1 0x20 DUP2 LT ISZERO PUSH2 0x4D1 JUMPI PUSH1 0x0 DUP1 REVERT JUMPDEST POP CALLDATALOAD PUSH1 0x1 PUSH1 0x1 PUSH1 0xA0 SHL SUB AND PUSH2 0x1020 JUMP JUMPDEST CALLVALUE DUP1 ISZERO PUSH2 0x4ED JUMPI PUSH1 0x0 DUP1 REVERT JUMPDEST POP PUSH2 0x3B9 PUSH1 0x4 DUP1 CALLDATASIZE SUB PUSH1 0x60 DUP2 LT ISZERO PUSH2 0x504 JUMPI PUSH1 0x0 DUP1 REVERT JUMPDEST POP PUSH1 0x1 PUSH1 0x1 PUSH1 0xA0 SHL SUB DUP2 CALLDATALOAD DUP2 AND SWAP2 PUSH1 0x20 DUP2 ADD CALLDATALOAD SWAP1 SWAP2 AND SWAP1 PUSH1 0x40 ADD CALLDATALOAD PUSH2 0x10B4 JUMP JUMPDEST CALLVALUE DUP1 ISZERO PUSH2 0x530 JUMPI PUSH1 0x0 DUP1 REVERT JUMPDEST POP PUSH2 0x3B9 PUSH1 0x4 DUP1 CALLDATASIZE SUB PUSH1 0xA0 DUP2 LT ISZERO PUSH2 0x547 JUMPI PUSH1 0x0 DUP1 REVERT JUMPDEST POP DUP1 CALLDATALOAD SWAP1 PUSH1 0x1 PUSH1 0x1 PUSH1 0xA0 SHL SUB PUSH1 0x20 DUP3 ADD CALLDATALOAD DUP2 AND SWAP2 PUSH1 0x40 DUP2 ADD CALLDATALOAD SWAP2 PUSH1 0x60 DUP3 ADD CALLDATALOAD AND SWAP1 PUSH1 0x80 ADD CALLDATALOAD PUSH2 0x117C JUMP JUMPDEST CALLVALUE DUP1 ISZERO PUSH2 0x57D JUMPI PUSH1 0x0 DUP1 REVERT JUMPDEST POP PUSH2 0x36A PUSH1 0x4 DUP1 CALLDATASIZE SUB PUSH1 0x40 DUP2 LT ISZERO PUSH2 0x594 JUMPI PUSH1 0x0 DUP1 REVERT JUMPDEST POP DUP1 CALLDATALOAD SWAP1 PUSH1 0x20 ADD CALLDATALOAD PUSH2 0x11A9 JUMP JUMPDEST CALLVALUE DUP1 ISZERO PUSH2 0x5AD JUMPI PUSH1 0x0 DUP1 REVERT JUMPDEST POP PUSH2 0x3B9 PUSH2 0x126F JUMP JUMPDEST CALLVALUE DUP1 ISZERO PUSH2 0x5C2 JUMPI PUSH1 0x0 DUP1 REVERT JUMPDEST POP PUSH2 0x36A PUSH1 0x4 DUP1 CALLDATASIZE SUB PUSH1 0x20 DUP2 LT ISZERO PUSH2 0x5D9 JUMPI PUSH1 0x0 DUP1 REVERT JUMPDEST POP CALLDATALOAD ISZERO ISZERO PUSH2 0x1275 JUMP JUMPDEST CALLVALUE DUP1 ISZERO PUSH2 0x5EE JUMPI PUSH1 0x0 DUP1 REVERT JUMPDEST POP PUSH2 0x36A PUSH2 0x1323 JUMP JUMPDEST CALLVALUE DUP1 ISZERO PUSH2 0x603 JUMPI PUSH1 0x0 DUP1 REVERT JUMPDEST POP PUSH2 0x36A PUSH1 0x4 DUP1 CALLDATASIZE SUB PUSH1 0x20 DUP2 LT ISZERO PUSH2 0x61A JUMPI PUSH1 0x0 DUP1 REVERT JUMPDEST POP CALLDATALOAD PUSH2 0x1333 JUMP JUMPDEST CALLVALUE DUP1 ISZERO PUSH2 0x62D JUMPI PUSH1 0x0 DUP1 REVERT JUMPDEST POP PUSH2 0x64B PUSH1 0x4 DUP1 CALLDATASIZE SUB PUSH1 0x20 DUP2 LT ISZERO PUSH2 0x644 JUMPI PUSH1 0x0 DUP1 REVERT JUMPDEST POP CALLDATALOAD PUSH2 0x148C JUMP JUMPDEST PUSH1 0x40 DUP1 MLOAD SWAP5 DUP6 MSTORE PUSH1 0x1 PUSH1 0x1 PUSH1 0xA0 SHL SUB SWAP4 DUP5 AND PUSH1 0x20 DUP7 ADD MSTORE DUP5 DUP2 ADD SWAP3 SWAP1 SWAP3 MSTORE SWAP1 SWAP2 AND PUSH1 0x60 DUP4 ADD MSTORE MLOAD SWAP1 DUP2 SWAP1 SUB PUSH1 0x80 ADD SWAP1 RETURN JUMPDEST CALLVALUE DUP1 ISZERO PUSH2 0x688 JUMPI PUSH1 0x0 DUP1 REVERT JUMPDEST POP PUSH2 0x36A PUSH1 0x4 DUP1 CALLDATASIZE SUB PUSH1 0x20 DUP2 LT ISZERO PUSH2 0x69F JUMPI PUSH1 0x0 DUP1 REVERT JUMPDEST POP CALLDATALOAD PUSH2 0x1519 JUMP JUMPDEST CALLVALUE DUP1 ISZERO PUSH2 0x6B2 JUMPI PUSH1 0x0 DUP1 REVERT JUMPDEST POP PUSH2 0x427 PUSH1 0x4 DUP1 CALLDATASIZE SUB PUSH1 0x40 DUP2 LT ISZERO PUSH2 0x6C9 JUMPI PUSH1 0x0 DUP1 REVERT JUMPDEST POP DUP1 CALLDATALOAD SWAP1 PUSH1 0x20 ADD CALLDATALOAD PUSH1 0x1 PUSH1 0x1 PUSH1 0x80 SHL SUB AND PUSH2 0x1613 JUMP JUMPDEST CALLVALUE DUP1 ISZERO PUSH2 0x6EB JUMPI PUSH1 0x0 DUP1 REVERT JUMPDEST POP PUSH2 0x3B9 PUSH1 0x4 DUP1 CALLDATASIZE SUB PUSH1 0x20 DUP2 LT ISZERO PUSH2 0x702 JUMPI PUSH1 0x0 DUP1 REVERT JUMPDEST POP CALLDATALOAD PUSH1 0x1 PUSH1 0x1 PUSH1 0xA0 SHL SUB AND PUSH2 0x1633 JUMP JUMPDEST CALLVALUE DUP1 ISZERO PUSH2 0x71E JUMPI PUSH1 0x0 DUP1 REVERT JUMPDEST POP PUSH2 0x727 PUSH2 0x164E JUMP JUMPDEST PUSH1 0x40 DUP1 MLOAD PUSH1 0x1 PUSH1 0x1 PUSH1 0x40 SHL SUB SWAP1 SWAP3 AND DUP3 MSTORE MLOAD SWAP1 DUP2 SWAP1 SUB PUSH1 0x20 ADD SWAP1 RETURN JUMPDEST CALLVALUE DUP1 ISZERO PUSH2 0x74F JUMPI PUSH1 0x0 DUP1 REVERT JUMPDEST POP PUSH2 0x3B9 PUSH2 0x1652 JUMP JUMPDEST CALLVALUE DUP1 ISZERO PUSH2 0x764 JUMPI PUSH1 0x0 DUP1 REVERT JUMPDEST POP PUSH2 0x36A PUSH1 0x4 DUP1 CALLDATASIZE SUB PUSH1 0x20 DUP2 LT ISZERO PUSH2 0x77B JUMPI PUSH1 0x0 DUP1 REVERT JUMPDEST POP CALLDATALOAD PUSH2 0x1658 JUMP JUMPDEST CALLVALUE DUP1 ISZERO PUSH2 0x78E JUMPI PUSH1 0x0 DUP1 REVERT JUMPDEST POP PUSH2 0x3B9 PUSH1 0x4 DUP1 CALLDATASIZE SUB PUSH1 0x20 DUP2 LT ISZERO PUSH2 0x7A5 JUMPI PUSH1 0x0 DUP1 REVERT JUMPDEST POP CALLDATALOAD PUSH2 0x16AB JUMP JUMPDEST CALLVALUE DUP1 ISZERO PUSH2 0x7B8 JUMPI PUSH1 0x0 DUP1 REVERT JUMPDEST POP PUSH2 0x727 PUSH2 0x16BD JUMP JUMPDEST CALLVALUE DUP1 ISZERO PUSH2 0x7CD JUMPI PUSH1 0x0 DUP1 REVERT JUMPDEST POP PUSH2 0x3B9 PUSH1 0x4 DUP1 CALLDATASIZE SUB PUSH1 0x40 DUP2 LT ISZERO PUSH2 0x7E4 JUMPI PUSH1 0x0 DUP1 REVERT JUMPDEST POP PUSH1 0x1 PUSH1 0x1 PUSH1 0xA0 SHL SUB DUP2 CALLDATALOAD DUP2 AND SWAP2 PUSH1 0x20 ADD CALLDATALOAD AND PUSH2 0x16D3 JUMP JUMPDEST CALLVALUE DUP1 ISZERO PUSH2 0x808 JUMPI PUSH1 0x0 DUP1 REVERT JUMPDEST POP PUSH2 0x492 PUSH2 0x16F0 JUMP JUMPDEST CALLVALUE DUP1 ISZERO PUSH2 0x81D JUMPI PUSH1 0x0 DUP1 REVERT JUMPDEST POP PUSH2 0x3B9 PUSH1 0x4 DUP1 CALLDATASIZE SUB PUSH1 0x40 DUP2 LT ISZERO PUSH2 0x834 JUMPI PUSH1 0x0 DUP1 REVERT JUMPDEST POP PUSH1 0x1 PUSH1 0x1 PUSH1 0xA0 SHL SUB DUP2 CALLDATALOAD DUP2 AND SWAP2 PUSH1 0x20 ADD CALLDATALOAD AND PUSH2 0x16FF JUMP JUMPDEST CALLVALUE DUP1 ISZERO PUSH2 0x858 JUMPI PUSH1 0x0 DUP1 REVERT JUMPDEST POP PUSH2 0x36A PUSH2 0x171C JUMP JUMPDEST CALLVALUE DUP1 ISZERO PUSH2 0x86D JUMPI PUSH1 0x0 DUP1 REVERT JUMPDEST POP PUSH2 0x427 PUSH1 0x4 DUP1 CALLDATASIZE SUB PUSH1 0x20 DUP2 LT ISZERO PUSH2 0x884 JUMPI PUSH1 0x0 DUP1 REVERT JUMPDEST POP CALLDATALOAD PUSH2 0x172C JUMP JUMPDEST CALLVALUE DUP1 ISZERO PUSH2 0x897 JUMPI PUSH1 0x0 DUP1 REVERT JUMPDEST POP PUSH2 0x3B9 PUSH1 0x4 DUP1 CALLDATASIZE SUB PUSH1 0x40 DUP2 LT ISZERO PUSH2 0x8AE JUMPI PUSH1 0x0 DUP1 REVERT JUMPDEST POP PUSH1 0x1 PUSH1 0x1 PUSH1 0xA0 SHL SUB DUP2 CALLDATALOAD DUP2 AND SWAP2 PUSH1 0x20 ADD CALLDATALOAD AND PUSH2 0x1839 JUMP JUMPDEST CALLVALUE DUP1 ISZERO PUSH2 0x8D2 JUMPI PUSH1 0x0 DUP1 REVERT JUMPDEST POP PUSH2 0x3B9 PUSH1 0x4 DUP1 CALLDATASIZE SUB PUSH1 0x80 DUP2 LT ISZERO PUSH2 0x8E9 JUMPI PUSH1 0x0 DUP1 REVERT JUMPDEST POP PUSH1 0x1 PUSH1 0x1 PUSH1 0xA0 SHL SUB DUP2 CALLDATALOAD DUP2 AND SWAP2 PUSH1 0x20 DUP2 ADD CALLDATALOAD SWAP2 PUSH1 0x40 DUP3 ADD CALLDATALOAD AND SWAP1 PUSH1 0x60 ADD CALLDATALOAD PUSH2 0x1864 JUMP JUMPDEST CALLVALUE DUP1 ISZERO PUSH2 0x919 JUMPI PUSH1 0x0 DUP1 REVERT JUMPDEST POP PUSH2 0x36A PUSH1 0x4 DUP1 CALLDATASIZE SUB PUSH1 0x20 DUP2 LT ISZERO PUSH2 0x930 JUMPI PUSH1 0x0 DUP1 REVERT JUMPDEST POP CALLDATALOAD PUSH2 0x19CD JUMP JUMPDEST CALLVALUE DUP1 ISZERO PUSH2 0x943 JUMPI PUSH1 0x0 DUP1 REVERT JUMPDEST POP PUSH2 0x961 PUSH1 0x4 DUP1 CALLDATASIZE SUB PUSH1 0x20 DUP2 LT ISZERO PUSH2 0x95A JUMPI PUSH1 0x0 DUP1 REVERT JUMPDEST POP CALLDATALOAD PUSH2 0x19F4 JUMP JUMPDEST PUSH1 0x40 DUP1 MLOAD SWAP7 DUP8 MSTORE PUSH1 0x1 PUSH1 0x1 PUSH1 0xA0 SHL SUB SWAP6 DUP7 AND PUSH1 0x20 DUP9 ADD MSTORE DUP7 DUP2 ADD SWAP5 SWAP1 SWAP5 MSTORE SWAP2 DUP5 AND PUSH1 0x60 DUP7 ADD MSTORE SWAP1 SWAP3 AND PUSH1 0x80 DUP5 ADD MSTORE PUSH1 0x1 PUSH1 0x1 PUSH1 0x40 SHL SUB SWAP1 SWAP2 AND PUSH1 0xA0 DUP4 ADD MSTORE MLOAD SWAP1 DUP2 SWAP1 SUB PUSH1 0xC0 ADD SWAP1 RETURN JUMPDEST CALLVALUE DUP1 ISZERO PUSH2 0x9B6 JUMPI PUSH1 0x0 DUP1 REVERT JUMPDEST POP PUSH2 0x3B9 PUSH2 0x1A46 JUMP JUMPDEST CALLVALUE DUP1 ISZERO PUSH2 0x9CB JUMPI PUSH1 0x0 DUP1 REVERT JUMPDEST POP PUSH2 0x492 PUSH2 0x1A4C JUMP JUMPDEST CALLVALUE DUP1 ISZERO PUSH2 0x9E0 JUMPI PUSH1 0x0 DUP1 REVERT JUMPDEST POP PUSH2 0x3B9 PUSH1 0x4 DUP1 CALLDATASIZE SUB PUSH1 0x20 DUP2 LT ISZERO PUSH2 0x9F7 JUMPI PUSH1 0x0 DUP1 REVERT JUMPDEST POP CALLDATALOAD PUSH2 0x1A5B JUMP JUMPDEST CALLVALUE DUP1 ISZERO PUSH2 0xA0A JUMPI PUSH1 0x0 DUP1 REVERT JUMPDEST POP PUSH2 0x3B9 PUSH1 0x4 DUP1 CALLDATASIZE SUB PUSH1 0x20 DUP2 LT ISZERO PUSH2 0xA21 JUMPI PUSH1 0x0 DUP1 REVERT JUMPDEST POP CALLDATALOAD PUSH1 0x1 PUSH1 0x1 PUSH1 0xA0 SHL SUB AND PUSH2 0x1A6D JUMP JUMPDEST CALLVALUE DUP1 ISZERO PUSH2 0xA3D JUMPI PUSH1 0x0 DUP1 REVERT JUMPDEST POP PUSH2 0x3B9 PUSH1 0x4 DUP1 CALLDATASIZE SUB PUSH1 0x20 DUP2 LT ISZERO PUSH2 0xA54 JUMPI PUSH1 0x0 DUP1 REVERT JUMPDEST POP CALLDATALOAD PUSH2 0x1A7F JUMP JUMPDEST CALLVALUE DUP1 ISZERO PUSH2 0xA67 JUMPI PUSH1 0x0 DUP1 REVERT JUMPDEST POP PUSH2 0x36A PUSH1 0x4 DUP1 CALLDATASIZE SUB PUSH1 0x20 DUP2 LT ISZERO PUSH2 0xA7E JUMPI PUSH1 0x0 DUP1 REVERT JUMPDEST POP CALLDATALOAD ISZERO ISZERO PUSH2 0x1A94 JUMP JUMPDEST CALLVALUE DUP1 ISZERO PUSH2 0xA93 JUMPI PUSH1 0x0 DUP1 REVERT JUMPDEST POP PUSH2 0x3B9 PUSH1 0x4 DUP1 CALLDATASIZE SUB PUSH1 0x20 DUP2 LT ISZERO PUSH2 0xAAA JUMPI PUSH1 0x0 DUP1 REVERT JUMPDEST POP CALLDATALOAD PUSH2 0x1AFF JUMP JUMPDEST CALLVALUE DUP1 ISZERO PUSH2 0xABD JUMPI PUSH1 0x0 DUP1 REVERT JUMPDEST POP PUSH2 0x427 PUSH1 0x4 DUP1 CALLDATASIZE SUB PUSH1 0x20 DUP2 LT ISZERO PUSH2 0xAD4 JUMPI PUSH1 0x0 DUP1 REVERT JUMPDEST POP CALLDATALOAD PUSH2 0x1B11 JUMP JUMPDEST PUSH2 0x3B9 PUSH1 0x4 DUP1 CALLDATASIZE SUB PUSH1 0x40 DUP2 LT ISZERO PUSH2 0xAF1 JUMPI PUSH1 0x0 DUP1 REVERT JUMPDEST POP DUP1 CALLDATALOAD SWAP1 PUSH1 0x20 ADD CALLDATALOAD PUSH1 0x1 PUSH1 0x1 PUSH1 0xA0 SHL SUB AND PUSH2 0x1B26 JUMP JUMPDEST CALLVALUE DUP1 ISZERO PUSH2 0xB13 JUMPI PUSH1 0x0 DUP1 REVERT JUMPDEST POP PUSH2 0x36A PUSH1 0x4 DUP1 CALLDATASIZE SUB PUSH1 0x20 DUP2 LT ISZERO PUSH2 0xB2A JUMPI PUSH1 0x0 DUP1 REVERT JUMPDEST POP CALLDATALOAD PUSH1 0x1 PUSH1 0x1 PUSH1 0xA0 SHL SUB AND PUSH2 0x1CA2 JUMP JUMPDEST CALLVALUE DUP1 ISZERO PUSH2 0xB46 JUMPI PUSH1 0x0 DUP1 REVERT JUMPDEST POP PUSH2 0x36A PUSH1 0x4 DUP1 CALLDATASIZE SUB PUSH1 0x40 DUP2 LT ISZERO PUSH2 0xB5D JUMPI PUSH1 0x0 DUP1 REVERT JUMPDEST POP PUSH1 0x1 PUSH1 0x1 PUSH1 0xA0 SHL SUB DUP2 CALLDATALOAD AND SWAP1 PUSH1 0x20 ADD CALLDATALOAD PUSH2 0x1D11 JUMP JUMPDEST CALLVALUE DUP1 ISZERO PUSH2 0xB7F JUMPI PUSH1 0x0 DUP1 REVERT JUMPDEST POP PUSH2 0x36A PUSH2 0x1E20 JUMP JUMPDEST CALLVALUE DUP1 ISZERO PUSH2 0xB94 JUMPI PUSH1 0x0 DUP1 REVERT JUMPDEST POP PUSH2 0xBB2 PUSH1 0x4 DUP1 CALLDATASIZE SUB PUSH1 0x20 DUP2 LT ISZERO PUSH2 0xBAB JUMPI PUSH1 0x0 DUP1 REVERT JUMPDEST POP CALLDATALOAD PUSH2 0x1E61 JUMP JUMPDEST PUSH1 0x40 DUP1 MLOAD SWAP4 DUP5 MSTORE PUSH1 0x20 DUP5 ADD SWAP3 SWAP1 SWAP3 MSTORE DUP3 DUP3 ADD MSTORE MLOAD SWAP1 DUP2 SWAP1 SUB PUSH1 0x60 ADD SWAP1 RETURN JUMPDEST CALLVALUE DUP1 ISZERO PUSH2 0xBDC JUMPI PUSH1 0x0 DUP1 REVERT JUMPDEST POP PUSH2 0x492 PUSH1 0x4 DUP1 CALLDATASIZE SUB PUSH1 0x20 DUP2 LT ISZERO PUSH2 0xBF3 JUMPI PUSH1 0x0 DUP1 REVERT JUMPDEST POP CALLDATALOAD PUSH2 0x1E82 JUMP JUMPDEST CALLVALUE DUP1 ISZERO PUSH2 0xC06 JUMPI PUSH1 0x0 DUP1 REVERT JUMPDEST POP PUSH2 0x36A PUSH1 0x4 DUP1 CALLDATASIZE SUB PUSH1 0x20 DUP2 LT ISZERO PUSH2 0xC1D JUMPI PUSH1 0x0 DUP1 REVERT JUMPDEST POP CALLDATALOAD PUSH2 0x1EA0 JUMP JUMPDEST CALLVALUE DUP1 ISZERO PUSH2 0xC30 JUMPI PUSH1 0x0 DUP1 REVERT JUMPDEST POP PUSH2 0x36A PUSH1 0x4 DUP1 CALLDATASIZE SUB PUSH1 0x20 DUP2 LT ISZERO PUSH2 0xC47 JUMPI PUSH1 0x0 DUP1 REVERT JUMPDEST POP CALLDATALOAD ISZERO ISZERO PUSH2 0x1F10 JUMP JUMPDEST CALLVALUE DUP1 ISZERO PUSH2 0xC5C JUMPI PUSH1 0x0 DUP1 REVERT JUMPDEST POP PUSH2 0x36A PUSH1 0x4 DUP1 CALLDATASIZE SUB PUSH1 0x40 DUP2 LT ISZERO PUSH2 0xC73 JUMPI PUSH1 0x0 DUP1 REVERT JUMPDEST POP DUP1 CALLDATALOAD SWAP1 PUSH1 0x20 ADD CALLDATALOAD PUSH2 0x1FBD JUMP JUMPDEST CALLVALUE DUP1 ISZERO PUSH2 0xC8C JUMPI PUSH1 0x0 DUP1 REVERT JUMPDEST POP PUSH2 0x3B9 PUSH1 0x4 DUP1 CALLDATASIZE SUB PUSH1 0xC0 DUP2 LT ISZERO PUSH2 0xCA3 JUMPI PUSH1 0x0 DUP1 REVERT JUMPDEST POP DUP1 CALLDATALOAD SWAP1 PUSH1 0x1 PUSH1 0x1 PUSH1 0xA0 SHL SUB PUSH1 0x20 DUP3 ADD CALLDATALOAD DUP2 AND SWAP2 PUSH1 0x40 DUP2 ADD CALLDATALOAD SWAP2 PUSH1 0x60 DUP3 ADD CALLDATALOAD AND SWAP1 PUSH1 0x80 DUP2 ADD CALLDATALOAD SWAP1 PUSH1 0xA0 ADD CALLDATALOAD ISZERO ISZERO PUSH2 0x2101 JUMP JUMPDEST PUSH2 0x36A PUSH1 0x4 DUP1 CALLDATASIZE SUB PUSH1 0x20 DUP2 LT ISZERO PUSH2 0xCEB JUMPI PUSH1 0x0 DUP1 REVERT JUMPDEST POP CALLDATALOAD PUSH2 0x21BE JUMP JUMPDEST CALLVALUE DUP1 ISZERO PUSH2 0xCFE JUMPI PUSH1 0x0 DUP1 REVERT JUMPDEST POP PUSH2 0x3B9 PUSH1 0x4 DUP1 CALLDATASIZE SUB PUSH1 0x80 DUP2 LT ISZERO PUSH2 0xD15 JUMPI PUSH1 0x0 DUP1 REVERT JUMPDEST POP DUP1 CALLDATALOAD SWAP1 PUSH1 0x1 PUSH1 0x1 PUSH1 0xA0 SHL SUB PUSH1 0x20 DUP3 ADD CALLDATALOAD DUP2 AND SWAP2 PUSH1 0x40 DUP2 ADD CALLDATALOAD SWAP2 PUSH1 0x60 SWAP1 SWAP2 ADD CALLDATALOAD AND PUSH2 0x2399 JUMP JUMPDEST CALLVALUE DUP1 ISZERO PUSH2 0xD47 JUMPI PUSH1 0x0 DUP1 REVERT JUMPDEST POP PUSH2 0x36A PUSH1 0x4 DUP1 CALLDATASIZE SUB PUSH1 0x20 DUP2 LT ISZERO PUSH2 0xD5E JUMPI PUSH1 0x0 DUP1 REVERT JUMPDEST POP CALLDATALOAD PUSH1 0x1 PUSH1 0x1 PUSH1 0xA0 SHL SUB AND PUSH2 0x2415 JUMP JUMPDEST CALLVALUE DUP1 ISZERO PUSH2 0xD7A JUMPI PUSH1 0x0 DUP1 REVERT JUMPDEST POP PUSH2 0x36A PUSH2 0x2484 JUMP JUMPDEST CALLVALUE DUP1 ISZERO PUSH2 0xD8F JUMPI PUSH1 0x0 DUP1 REVERT JUMPDEST POP PUSH2 0x3B9 PUSH1 0x4 DUP1 CALLDATASIZE SUB PUSH1 0x60 DUP2 LT ISZERO PUSH2 0xDA6 JUMPI PUSH1 0x0 DUP1 REVERT JUMPDEST POP PUSH1 0x1 PUSH1 0x1 PUSH1 0xA0 SHL SUB DUP2 CALLDATALOAD DUP2 AND SWAP2 PUSH1 0x20 DUP2 ADD CALLDATALOAD SWAP1 SWAP2 AND SWAP1 PUSH1 0x40 ADD CALLDATALOAD PUSH2 0x2494 JUMP JUMPDEST PUSH1 0x5 SLOAD PUSH1 0x1 PUSH1 0xF0 SHL SWAP1 DIV PUSH1 0xFF AND DUP2 JUMP JUMPDEST PUSH1 0x1 PUSH1 0x1 PUSH1 0xA0 SHL SUB DUP1 DUP4 AND PUSH1 0x0 SWAP1 DUP2 MSTORE PUSH1 0x7 PUSH1 0x20 SWAP1 DUP2 MSTORE PUSH1 0x40 DUP1 DUP4 KECCAK256 SWAP4 DUP6 AND DUP4 MSTORE SWAP3 SWAP1 MSTORE KECCAK256 SLOAD JUMPDEST SWAP3 SWAP2 POP POP JUMP JUMPDEST PUSH1 0x3 SLOAD PUSH1 0x0 SWAP1 PUSH1 0xFF AND ISZERO PUSH2 0xE4C JUMPI PUSH1 0x40 DUP1 MLOAD PUSH3 0x461BCD PUSH1 0xE5 SHL DUP2 MSTORE PUSH1 0x20 PUSH1 0x4 DUP3 ADD MSTORE PUSH1 0x12 PUSH1 0x24 DUP3 ADD MSTORE PUSH1 0x0 DUP1 MLOAD PUSH1 0x20 PUSH2 0x3E3D DUP4 CODECOPY DUP2 MLOAD SWAP2 MSTORE PUSH1 0x44 DUP3 ADD MSTORE SWAP1 MLOAD SWAP1 DUP2 SWAP1 SUB PUSH1 0x64 ADD SWAP1 REVERT JUMPDEST PUSH1 0x0 JUMPDEST DUP5 ISZERO PUSH2 0xF75 JUMPI PUSH2 0xE5F DUP5 DUP8 PUSH2 0xDD6 JUMP JUMPDEST SWAP1 POP DUP1 PUSH2 0xE6B JUMPI PUSH1 0x0 DUP1 REVERT JUMPDEST PUSH1 0x0 DUP2 DUP2 MSTORE PUSH1 0x2 PUSH1 0x20 DUP2 SWAP1 MSTORE PUSH1 0x40 SWAP1 SWAP2 KECCAK256 SWAP1 DUP2 ADD SLOAD SWAP1 SLOAD PUSH2 0xE8C SWAP2 SWAP1 PUSH2 0x254D JUMP JUMPDEST DUP6 PUSH8 0xDE0B6B3A7640000 MUL LT ISZERO PUSH2 0xEA2 JUMPI PUSH2 0xF75 JUMP JUMPDEST PUSH1 0x0 DUP2 DUP2 MSTORE PUSH1 0x2 PUSH1 0x20 DUP2 SWAP1 MSTORE PUSH1 0x40 SWAP1 SWAP2 KECCAK256 ADD SLOAD DUP6 LT PUSH2 0xF19 JUMPI PUSH1 0x0 DUP2 DUP2 MSTORE PUSH1 0x2 PUSH1 0x20 MSTORE PUSH1 0x40 SWAP1 KECCAK256 SLOAD PUSH2 0xED5 SWAP1 DUP4 SWAP1 PUSH2 0x257C JUMP JUMPDEST SWAP2 POP PUSH2 0xEF7 DUP6 PUSH1 0x2 PUSH1 0x0 DUP5 DUP2 MSTORE PUSH1 0x20 ADD SWAP1 DUP2 MSTORE PUSH1 0x20 ADD PUSH1 0x0 KECCAK256 PUSH1 0x2 ADD SLOAD PUSH2 0x25CB JUMP JUMPDEST PUSH1 0x0 DUP3 DUP2 MSTORE PUSH1 0x2 PUSH1 0x20 MSTORE PUSH1 0x40 SWAP1 KECCAK256 SLOAD SWAP1 SWAP6 POP PUSH2 0xF14 SWAP1 DUP3 SWAP1 PUSH2 0x1613 JUMP JUMPDEST PUSH2 0xF70 JUMP JUMPDEST PUSH1 0x0 DUP2 DUP2 MSTORE PUSH1 0x2 PUSH1 0x20 DUP2 SWAP1 MSTORE PUSH1 0x40 DUP3 KECCAK256 DUP1 SLOAD SWAP2 ADD SLOAD PUSH4 0x3B9ACA00 SWAP2 PUSH2 0xF4A SWAP2 DUP10 DUP5 MUL SWAP2 PUSH2 0xF45 SWAP2 PUSH2 0x261B JUMP JUMPDEST PUSH2 0x2637 JUMP JUMPDEST DUP2 PUSH2 0xF51 JUMPI INVALID JUMPDEST DIV SWAP1 POP PUSH2 0xF5E DUP4 DUP3 PUSH2 0x257C JUMP JUMPDEST SWAP3 POP PUSH2 0xF6A DUP3 DUP3 PUSH2 0x1613 JUMP JUMPDEST PUSH1 0x0 SWAP6 POP POP JUMPDEST PUSH2 0xE4F JUMP JUMPDEST DUP3 DUP3 LT ISZERO PUSH2 0xF82 JUMPI PUSH1 0x0 DUP1 REVERT JUMPDEST POP SWAP5 SWAP4 POP POP POP POP JUMP JUMPDEST PUSH2 0xF94 CALLER PUSH2 0x2667 JUMP JUMPDEST PUSH2 0xFD3 JUMPI PUSH1 0x40 DUP1 MLOAD PUSH3 0x461BCD PUSH1 0xE5 SHL DUP2 MSTORE PUSH1 0x20 PUSH1 0x4 DUP3 ADD MSTORE PUSH1 0x14 PUSH1 0x24 DUP3 ADD MSTORE PUSH1 0x0 DUP1 MLOAD PUSH1 0x20 PUSH2 0x3F31 DUP4 CODECOPY DUP2 MLOAD SWAP2 MSTORE PUSH1 0x44 DUP3 ADD MSTORE SWAP1 MLOAD SWAP1 DUP2 SWAP1 SUB PUSH1 0x64 ADD SWAP1 REVERT JUMPDEST PUSH1 0x5 DUP1 SLOAD PUSH1 0xFF PUSH1 0xE0 SHL NOT AND PUSH1 0x1 PUSH1 0xE0 SHL OR SWAP1 SSTORE JUMP JUMPDEST PUSH1 0x0 PUSH2 0x1008 DUP4 PUSH1 0x1 PUSH1 0x1 PUSH1 0x80 SHL SUB AND DUP7 DUP5 PUSH1 0x1 PUSH1 0x1 PUSH1 0x80 SHL SUB AND DUP8 PUSH2 0x2399 JUMP JUMPDEST SWAP6 SWAP5 POP POP POP POP POP JUMP JUMPDEST PUSH1 0xE SLOAD PUSH1 0x1 PUSH1 0x1 PUSH1 0xA0 SHL SUB AND DUP2 JUMP JUMPDEST PUSH2 0x1029 CALLER PUSH2 0x2667 JUMP JUMPDEST PUSH2 0x1068 JUMPI PUSH1 0x40 DUP1 MLOAD PUSH3 0x461BCD PUSH1 0xE5 SHL DUP2 MSTORE PUSH1 0x20 PUSH1 0x4 DUP3 ADD MSTORE PUSH1 0x14 PUSH1 0x24 DUP3 ADD MSTORE PUSH1 0x0 DUP1 MLOAD PUSH1 0x20 PUSH2 0x3F31 DUP4 CODECOPY DUP2 MLOAD SWAP2 MSTORE PUSH1 0x44 DUP3 ADD MSTORE SWAP1 MLOAD SWAP1 DUP2 SWAP1 SUB PUSH1 0x64 ADD SWAP1 REVERT JUMPDEST PUSH1 0x0 DUP1 SLOAD PUSH1 0x1 PUSH1 0x1 PUSH1 0xA0 SHL SUB NOT AND PUSH1 0x1 PUSH1 0x1 PUSH1 0xA0 SHL SUB DUP4 DUP2 AND SWAP2 SWAP1 SWAP2 OR DUP1 DUP4 SSTORE PUSH1 0x40 MLOAD SWAP2 AND SWAP2 PUSH32 0xCE241D7CA1F669FEE44B6FC00B8EBA2DF3BB514EED0F6F668F8F89096E81ED94 SWAP2 LOG2 POP JUMP JUMPDEST PUSH1 0x0 DUP1 PUSH2 0x10C1 DUP6 DUP6 PUSH2 0xDD6 JUMP JUMPDEST SWAP1 POP JUMPDEST PUSH1 0x0 DUP2 DUP2 MSTORE PUSH1 0x2 PUSH1 0x20 DUP2 SWAP1 MSTORE PUSH1 0x40 SWAP1 SWAP2 KECCAK256 ADD SLOAD DUP4 GT ISZERO PUSH2 0x113C JUMPI PUSH1 0x0 DUP2 DUP2 MSTORE PUSH1 0x2 PUSH1 0x20 MSTORE PUSH1 0x40 SWAP1 KECCAK256 SLOAD PUSH2 0x10F8 SWAP1 DUP4 SWAP1 PUSH2 0x257C JUMP JUMPDEST SWAP2 POP PUSH2 0x111A DUP4 PUSH1 0x2 PUSH1 0x0 DUP5 DUP2 MSTORE PUSH1 0x20 ADD SWAP1 DUP2 MSTORE PUSH1 0x20 ADD PUSH1 0x0 KECCAK256 PUSH1 0x2 ADD SLOAD PUSH2 0x25CB JUMP JUMPDEST SWAP3 POP DUP3 ISZERO PUSH2 0x1137 JUMPI PUSH2 0x112B DUP2 PUSH2 0x1A7F JUMP JUMPDEST SWAP1 POP DUP1 PUSH2 0x1137 JUMPI PUSH1 0x0 DUP1 REVERT JUMPDEST PUSH2 0x10C4 JUMP JUMPDEST PUSH1 0x0 DUP2 DUP2 MSTORE PUSH1 0x2 PUSH1 0x20 DUP2 SWAP1 MSTORE PUSH1 0x40 SWAP1 SWAP2 KECCAK256 DUP1 SLOAD SWAP2 ADD SLOAD PUSH2 0x1008 SWAP2 DUP5 SWAP2 PUSH4 0x3B9ACA00 SWAP2 PUSH2 0x116F SWAP2 DUP9 DUP5 MUL SWAP2 PUSH2 0xF45 SWAP2 PUSH2 0x261B JUMP JUMPDEST DUP2 PUSH2 0x1176 JUMPI INVALID JUMPDEST DIV PUSH2 0x257C JUMP JUMPDEST PUSH1 0x0 PUSH2 0x1186 PUSH2 0x1E20 JUMP JUMPDEST ISZERO PUSH2 0x1190 JUMPI PUSH1 0x0 DUP1 REVERT JUMPDEST PUSH2 0x119F DUP7 DUP7 DUP7 DUP7 DUP7 PUSH1 0x1 PUSH2 0x2101 JUMP JUMPDEST SWAP7 SWAP6 POP POP POP POP POP POP JUMP JUMPDEST PUSH1 0x3 SLOAD PUSH1 0x0 SWAP1 PUSH1 0xFF AND ISZERO PUSH2 0x11F2 JUMPI PUSH1 0x40 DUP1 MLOAD PUSH3 0x461BCD PUSH1 0xE5 SHL DUP2 MSTORE PUSH1 0x20 PUSH1 0x4 DUP3 ADD MSTORE PUSH1 0x12 PUSH1 0x24 DUP3 ADD MSTORE PUSH1 0x0 DUP1 MLOAD PUSH1 0x20 PUSH2 0x3E3D DUP4 CODECOPY DUP2 MLOAD SWAP2 MSTORE PUSH1 0x44 DUP3 ADD MSTORE SWAP1 MLOAD SWAP1 DUP2 SWAP1 SUB PUSH1 0x64 ADD SWAP1 REVERT JUMPDEST PUSH2 0x11FB DUP4 PUSH2 0x1EA0 JUMP JUMPDEST ISZERO PUSH2 0x1205 JUMPI PUSH1 0x0 DUP1 REVERT JUMPDEST PUSH2 0x120E DUP4 PUSH2 0x19CD JUMP JUMPDEST PUSH2 0x1217 JUMPI PUSH1 0x0 DUP1 REVERT JUMPDEST PUSH2 0x1220 DUP4 PUSH2 0x26A8 JUMP JUMPDEST POP PUSH2 0x122B DUP4 DUP4 PUSH2 0x2752 JUMP JUMPDEST PUSH1 0x40 DUP1 MLOAD CALLER DUP2 MSTORE PUSH1 0x20 DUP2 ADD DUP6 SWAP1 MSTORE DUP2 MLOAD PUSH32 0x6D5C16212BDEA16850DCE4D9FA2314C446BD30CE84700D9C36C7677C6D283940 SWAP3 SWAP2 DUP2 SWAP1 SUB SWAP1 SWAP2 ADD SWAP1 LOG1 POP PUSH1 0x1 SWAP3 SWAP2 POP POP JUMP JUMPDEST PUSH1 0x1 SLOAD DUP2 JUMP JUMPDEST PUSH1 0x0 PUSH2 0x1280 CALLER PUSH2 0x2667 JUMP JUMPDEST PUSH2 0x12BF JUMPI PUSH1 0x40 DUP1 MLOAD PUSH3 0x461BCD PUSH1 0xE5 SHL DUP2 MSTORE PUSH1 0x20 PUSH1 0x4 DUP3 ADD MSTORE PUSH1 0x14 PUSH1 0x24 DUP3 ADD MSTORE PUSH1 0x0 DUP1 MLOAD PUSH1 0x20 PUSH2 0x3F31 DUP4 CODECOPY DUP2 MLOAD SWAP2 MSTORE PUSH1 0x44 DUP3 ADD MSTORE SWAP1 MLOAD SWAP1 DUP2 SWAP1 SUB PUSH1 0x64 ADD SWAP1 REVERT JUMPDEST PUSH1 0x5 DUP1 SLOAD DUP4 ISZERO ISZERO PUSH1 0x1 PUSH1 0xF0 SHL SWAP1 DUP2 MUL PUSH1 0xFF PUSH1 0xF0 SHL NOT SWAP1 SWAP3 AND SWAP2 SWAP1 SWAP2 OR SWAP2 DUP3 SWAP1 SSTORE PUSH1 0x40 DUP1 MLOAD SWAP2 SWAP1 SWAP3 DIV PUSH1 0xFF AND ISZERO ISZERO DUP2 MSTORE SWAP1 MLOAD PUSH32 0xEA11E00EC1642BE9B494019B756440E2C57DBE9E59242C4F9C64CE33FB4F41D9 SWAP2 DUP2 SWAP1 SUB PUSH1 0x20 ADD SWAP1 LOG1 POP PUSH1 0x1 JUMPDEST SWAP2 SWAP1 POP JUMP JUMPDEST PUSH1 0xD SLOAD PUSH1 0x1 PUSH1 0xA0 SHL SWAP1 DIV PUSH1 0xFF AND DUP2 JUMP JUMPDEST PUSH1 0x0 DUP2 PUSH2 0x133F DUP2 PUSH2 0x19CD JUMP JUMPDEST PUSH2 0x137A JUMPI PUSH1 0x40 MLOAD PUSH3 0x461BCD PUSH1 0xE5 SHL DUP2 MSTORE PUSH1 0x4 ADD DUP1 DUP1 PUSH1 0x20 ADD DUP3 DUP2 SUB DUP3 MSTORE PUSH1 0x2D DUP2 MSTORE PUSH1 0x20 ADD DUP1 PUSH2 0x3E90 PUSH1 0x2D SWAP2 CODECOPY PUSH1 0x40 ADD SWAP2 POP POP PUSH1 0x40 MLOAD DUP1 SWAP2 SUB SWAP1 REVERT JUMPDEST PUSH2 0x1382 PUSH2 0x1E20 JUMP JUMPDEST DUP1 PUSH2 0x13A6 JUMPI POP PUSH2 0x1391 DUP2 PUSH2 0x1E82 JUMP JUMPDEST PUSH1 0x1 PUSH1 0x1 PUSH1 0xA0 SHL SUB AND CALLER PUSH1 0x1 PUSH1 0x1 PUSH1 0xA0 SHL SUB AND EQ JUMPDEST DUP1 PUSH2 0x13B2 JUMPI POP PUSH1 0xC SLOAD DUP2 EQ JUMPDEST PUSH2 0x13ED JUMPI PUSH1 0x40 MLOAD PUSH3 0x461BCD PUSH1 0xE5 SHL DUP2 MSTORE PUSH1 0x4 ADD DUP1 DUP1 PUSH1 0x20 ADD DUP3 DUP2 SUB DUP3 MSTORE PUSH1 0x74 DUP2 MSTORE PUSH1 0x20 ADD DUP1 PUSH2 0x3EBD PUSH1 0x74 SWAP2 CODECOPY PUSH1 0x80 ADD SWAP2 POP POP PUSH1 0x40 MLOAD DUP1 SWAP2 SUB SWAP1 REVERT JUMPDEST PUSH1 0x3 SLOAD PUSH1 0xFF AND ISZERO PUSH2 0x1433 JUMPI PUSH1 0x40 DUP1 MLOAD PUSH3 0x461BCD PUSH1 0xE5 SHL DUP2 MSTORE PUSH1 0x20 PUSH1 0x4 DUP3 ADD MSTORE PUSH1 0x12 PUSH1 0x24 DUP3 ADD MSTORE PUSH1 0x0 DUP1 MLOAD PUSH1 0x20 PUSH2 0x3E3D DUP4 CODECOPY DUP2 MLOAD SWAP2 MSTORE PUSH1 0x44 DUP3 ADD MSTORE SWAP1 MLOAD SWAP1 DUP2 SWAP1 SUB PUSH1 0x64 ADD SWAP1 REVERT JUMPDEST PUSH1 0x5 SLOAD PUSH1 0x1 PUSH1 0xF0 SHL SWAP1 DIV PUSH1 0xFF AND ISZERO PUSH2 0x147C JUMPI PUSH2 0x144E DUP4 PUSH2 0x1EA0 JUMP JUMPDEST ISZERO PUSH2 0x146A JUMPI PUSH2 0x145C DUP4 PUSH2 0x28F1 JUMP JUMPDEST PUSH2 0x1465 JUMPI PUSH1 0x0 DUP1 REVERT JUMPDEST PUSH2 0x147C JUMP JUMPDEST PUSH2 0x1473 DUP4 PUSH2 0x26A8 JUMP JUMPDEST PUSH2 0x147C JUMPI PUSH1 0x0 DUP1 REVERT JUMPDEST PUSH2 0x1485 DUP4 PUSH2 0x2AAC JUMP JUMPDEST SWAP4 SWAP3 POP POP POP JUMP JUMPDEST PUSH1 0x0 DUP1 PUSH1 0x0 DUP1 PUSH2 0x149A PUSH2 0x3DC4 JUMP JUMPDEST POP POP POP PUSH1 0x0 SWAP3 DUP4 MSTORE POP POP PUSH1 0x2 PUSH1 0x20 DUP2 DUP2 MSTORE PUSH1 0x40 SWAP3 DUP4 SWAP1 KECCAK256 DUP4 MLOAD PUSH1 0xC0 DUP2 ADD DUP6 MSTORE DUP2 SLOAD DUP1 DUP3 MSTORE PUSH1 0x1 DUP4 ADD SLOAD PUSH1 0x1 PUSH1 0x1 PUSH1 0xA0 SHL SUB SWAP1 DUP2 AND SWAP5 DUP4 ADD DUP6 SWAP1 MSTORE SWAP5 DUP4 ADD SLOAD SWAP6 DUP3 ADD DUP7 SWAP1 MSTORE PUSH1 0x3 DUP4 ADD SLOAD DUP6 AND PUSH1 0x60 DUP4 ADD DUP2 SWAP1 MSTORE PUSH1 0x4 SWAP1 SWAP4 ADD SLOAD SWAP5 DUP6 AND PUSH1 0x80 DUP4 ADD MSTORE PUSH1 0x1 PUSH1 0xA0 SHL SWAP1 SWAP5 DIV PUSH1 0x1 PUSH1 0x1 PUSH1 0x40 SHL SUB AND PUSH1 0xA0 SWAP1 SWAP2 ADD MSTORE SWAP2 SWAP4 SWAP1 SWAP3 SWAP2 SWAP1 JUMP JUMPDEST PUSH1 0x3 SLOAD PUSH1 0x0 SWAP1 PUSH1 0xFF AND ISZERO PUSH2 0x1562 JUMPI PUSH1 0x40 DUP1 MLOAD PUSH3 0x461BCD PUSH1 0xE5 SHL DUP2 MSTORE PUSH1 0x20 PUSH1 0x4 DUP3 ADD MSTORE PUSH1 0x12 PUSH1 0x24 DUP3 ADD MSTORE PUSH1 0x0 DUP1 MLOAD PUSH1 0x20 PUSH2 0x3E3D DUP4 CODECOPY DUP2 MLOAD SWAP2 MSTORE PUSH1 0x44 DUP3 ADD MSTORE SWAP1 MLOAD SWAP1 DUP2 SWAP1 SUB PUSH1 0x64 ADD SWAP1 REVERT JUMPDEST PUSH2 0x156B DUP3 PUSH2 0x19CD JUMP JUMPDEST ISZERO DUP1 ISZERO PUSH2 0x1588 JUMPI POP PUSH1 0x0 DUP3 DUP2 MSTORE PUSH1 0x6 PUSH1 0x20 MSTORE PUSH1 0x40 SWAP1 KECCAK256 PUSH1 0x2 ADD SLOAD ISZERO ISZERO JUMPDEST DUP1 ISZERO PUSH2 0x15A8 JUMPI POP PUSH1 0x0 DUP3 DUP2 MSTORE PUSH1 0x6 PUSH1 0x20 MSTORE PUSH1 0x40 SWAP1 KECCAK256 PUSH1 0x2 ADD SLOAD PUSH1 0x9 NOT NUMBER ADD GT JUMPDEST PUSH2 0x15B1 JUMPI PUSH1 0x0 DUP1 REVERT JUMPDEST PUSH1 0x0 DUP3 DUP2 MSTORE PUSH1 0x6 PUSH1 0x20 SWAP1 DUP2 MSTORE PUSH1 0x40 DUP1 DUP4 KECCAK256 DUP4 DUP2 SSTORE PUSH1 0x1 DUP2 ADD DUP5 SWAP1 SSTORE PUSH1 0x2 ADD SWAP3 SWAP1 SWAP3 SSTORE DUP2 MLOAD CALLER DUP2 MSTORE SWAP1 DUP2 ADD DUP5 SWAP1 MSTORE DUP2 MLOAD PUSH32 0xCB9D6176C6AAC6478EBB9A2754CDCE22A944DE29ED1F2642F8613884EBA4B40C SWAP3 SWAP2 DUP2 SWAP1 SUB SWAP1 SWAP2 ADD SWAP1 LOG1 POP PUSH1 0x1 SWAP2 SWAP1 POP JUMP JUMPDEST PUSH2 0x1626 DUP3 PUSH1 0x1 PUSH1 0x1 PUSH1 0x80 SHL SUB DUP4 AND PUSH2 0x1FBD JUMP JUMPDEST PUSH2 0x162F JUMPI PUSH1 0x0 DUP1 REVERT JUMPDEST POP POP JUMP JUMPDEST PUSH1 0x1 PUSH1 0x1 PUSH1 0xA0 SHL SUB AND PUSH1 0x0 SWAP1 DUP2 MSTORE PUSH1 0x9 PUSH1 0x20 MSTORE PUSH1 0x40 SWAP1 KECCAK256 SLOAD SWAP1 JUMP JUMPDEST TIMESTAMP SWAP1 JUMP JUMPDEST PUSH1 0xC SLOAD DUP2 JUMP JUMPDEST PUSH1 0x0 PUSH2 0x1663 CALLER PUSH2 0x2667 JUMP JUMPDEST PUSH2 0x16A2 JUMPI PUSH1 0x40 DUP1 MLOAD PUSH3 0x461BCD PUSH1 0xE5 SHL DUP2 MSTORE PUSH1 0x20 PUSH1 0x4 DUP3 ADD MSTORE PUSH1 0x14 PUSH1 0x24 DUP3 ADD MSTORE PUSH1 0x0 DUP1 MLOAD PUSH1 0x20 PUSH2 0x3F31 DUP4 CODECOPY DUP2 MLOAD SWAP2 MSTORE PUSH1 0x44 DUP3 ADD MSTORE SWAP1 MLOAD SWAP1 DUP2 SWAP1 SUB PUSH1 0x64 ADD SWAP1 REVERT JUMPDEST POP PUSH1 0x4 SSTORE PUSH1 0x1 SWAP1 JUMP JUMPDEST PUSH1 0x0 SWAP1 DUP2 MSTORE PUSH1 0xA PUSH1 0x20 MSTORE PUSH1 0x40 SWAP1 KECCAK256 SLOAD SWAP1 JUMP JUMPDEST PUSH1 0x5 SLOAD PUSH1 0x1 PUSH1 0xA0 SHL SWAP1 DIV PUSH1 0x1 PUSH1 0x1 PUSH1 0x40 SHL SUB AND DUP2 JUMP JUMPDEST PUSH1 0x8 PUSH1 0x20 SWAP1 DUP2 MSTORE PUSH1 0x0 SWAP3 DUP4 MSTORE PUSH1 0x40 DUP1 DUP5 KECCAK256 SWAP1 SWAP2 MSTORE SWAP1 DUP3 MSTORE SWAP1 KECCAK256 SLOAD DUP2 JUMP JUMPDEST PUSH1 0xD SLOAD PUSH1 0x1 PUSH1 0x1 PUSH1 0xA0 SHL SUB AND DUP2 JUMP JUMPDEST PUSH1 0x7 PUSH1 0x20 SWAP1 DUP2 MSTORE PUSH1 0x0 SWAP3 DUP4 MSTORE PUSH1 0x40 DUP1 DUP5 KECCAK256 SWAP1 SWAP2 MSTORE SWAP1 DUP3 MSTORE SWAP1 KECCAK256 SLOAD DUP2 JUMP JUMPDEST PUSH1 0x5 SLOAD PUSH1 0x1 PUSH1 0xE0 SHL SWAP1 DIV PUSH1 0xFF AND DUP2 JUMP JUMPDEST DUP1 PUSH2 0x1736 DUP2 PUSH2 0x19CD JUMP JUMPDEST PUSH2 0x173F JUMPI PUSH1 0x0 DUP1 REVERT JUMPDEST PUSH2 0x1747 PUSH2 0x1E20 JUMP JUMPDEST ISZERO PUSH2 0x1751 JUMPI PUSH1 0x0 DUP1 REVERT JUMPDEST PUSH1 0x0 DUP3 DUP2 MSTORE PUSH1 0x2 PUSH1 0x20 DUP2 DUP2 MSTORE PUSH1 0x40 DUP1 DUP5 KECCAK256 PUSH1 0x4 DUP2 ADD SLOAD PUSH1 0x1 DUP3 ADD SLOAD PUSH1 0x3 DUP4 ADD SLOAD DUP5 MLOAD PUSH1 0x1 PUSH1 0x1 PUSH1 0x60 SHL SUB NOT PUSH1 0x60 DUP5 DUP2 SHL DUP3 AND DUP4 DUP11 ADD MSTORE DUP4 SWAP1 SHL AND PUSH1 0x34 DUP3 ADD MSTORE DUP6 MLOAD PUSH1 0x28 DUP2 DUP4 SUB ADD DUP2 MSTORE PUSH1 0x48 DUP3 ADD DUP1 DUP9 MSTORE DUP2 MLOAD SWAP2 DUP10 ADD SWAP2 SWAP1 SWAP2 KECCAK256 SWAP10 DUP13 SWAP1 MSTORE SWAP7 DUP9 SWAP1 MSTORE DUP5 SLOAD SWAP5 SWAP1 SWAP8 ADD SLOAD PUSH1 0x1 PUSH1 0x1 PUSH1 0xA0 SHL SUB SWAP3 DUP4 AND SWAP1 SWAP7 MSTORE DUP2 AND PUSH1 0x68 DUP8 ADD MSTORE PUSH1 0x1 PUSH1 0x1 PUSH1 0x80 SHL SUB SWAP3 DUP4 AND PUSH1 0x88 DUP8 ADD MSTORE SWAP2 SWAP1 SWAP4 AND PUSH1 0xA8 DUP6 ADD MSTORE PUSH1 0x1 PUSH1 0x1 PUSH1 0x40 SHL SUB PUSH1 0x1 PUSH1 0xA0 SHL DUP5 DIV AND PUSH1 0xC8 DUP6 ADD MSTORE SWAP1 MLOAD DUP7 SWAP5 SWAP2 SWAP1 SWAP3 AND SWAP3 SWAP1 SWAP2 DUP5 SWAP2 PUSH32 0x70A14C213064359EDE031FD2A1645A11CE2EC825FFE6AB5CFB5B160C3EF4D0A2 SWAP2 SWAP1 DUP2 SWAP1 SUB PUSH1 0xE8 ADD SWAP1 LOG4 POP POP POP JUMP JUMPDEST PUSH1 0x1 PUSH1 0x1 PUSH1 0xA0 SHL SUB SWAP2 DUP3 AND PUSH1 0x0 SWAP1 DUP2 MSTORE PUSH1 0x8 PUSH1 0x20 SWAP1 DUP2 MSTORE PUSH1 0x40 DUP1 DUP4 KECCAK256 SWAP4 SWAP1 SWAP5 AND DUP3 MSTORE SWAP2 SWAP1 SWAP2 MSTORE KECCAK256 SLOAD SWAP1 JUMP JUMPDEST PUSH1 0x3 SLOAD PUSH1 0x0 SWAP1 PUSH1 0xFF AND ISZERO PUSH2 0x18AD JUMPI PUSH1 0x40 DUP1 MLOAD PUSH3 0x461BCD PUSH1 0xE5 SHL DUP2 MSTORE PUSH1 0x20 PUSH1 0x4 DUP3 ADD MSTORE PUSH1 0x12 PUSH1 0x24 DUP3 ADD MSTORE PUSH1 0x0 DUP1 MLOAD PUSH1 0x20 PUSH2 0x3E3D DUP4 CODECOPY DUP2 MLOAD SWAP2 MSTORE PUSH1 0x44 DUP3 ADD MSTORE SWAP1 MLOAD SWAP1 DUP2 SWAP1 SUB PUSH1 0x64 ADD SWAP1 REVERT JUMPDEST PUSH1 0x0 JUMPDEST DUP5 ISZERO PUSH2 0x19C0 JUMPI PUSH2 0x18C0 DUP7 DUP6 PUSH2 0xDD6 JUMP JUMPDEST SWAP1 POP DUP1 PUSH2 0x18CC JUMPI PUSH1 0x0 DUP1 REVERT JUMPDEST PUSH1 0x0 DUP2 DUP2 MSTORE PUSH1 0x2 PUSH1 0x20 DUP2 SWAP1 MSTORE PUSH1 0x40 SWAP1 SWAP2 KECCAK256 DUP1 SLOAD SWAP2 ADD SLOAD PUSH2 0x18EC SWAP2 SWAP1 PUSH2 0x254D JUMP JUMPDEST DUP6 PUSH8 0xDE0B6B3A7640000 MUL LT ISZERO PUSH2 0x1902 JUMPI PUSH2 0x19C0 JUMP JUMPDEST PUSH1 0x0 DUP2 DUP2 MSTORE PUSH1 0x2 PUSH1 0x20 MSTORE PUSH1 0x40 SWAP1 KECCAK256 SLOAD DUP6 LT PUSH2 0x1976 JUMPI PUSH2 0x1937 DUP3 PUSH1 0x2 PUSH1 0x0 DUP5 DUP2 MSTORE PUSH1 0x20 ADD SWAP1 DUP2 MSTORE PUSH1 0x20 ADD PUSH1 0x0 KECCAK256 PUSH1 0x2 ADD SLOAD PUSH2 0x257C JUMP JUMPDEST PUSH1 0x0 DUP3 DUP2 MSTORE PUSH1 0x2 PUSH1 0x20 MSTORE PUSH1 0x40 SWAP1 KECCAK256 SLOAD SWAP1 SWAP3 POP PUSH2 0x1954 SWAP1 DUP7 SWAP1 PUSH2 0x25CB JUMP JUMPDEST PUSH1 0x0 DUP3 DUP2 MSTORE PUSH1 0x2 PUSH1 0x20 MSTORE PUSH1 0x40 SWAP1 KECCAK256 SLOAD SWAP1 SWAP6 POP PUSH2 0x1971 SWAP1 DUP3 SWAP1 PUSH2 0x1613 JUMP JUMPDEST PUSH2 0x19BB JUMP JUMPDEST PUSH1 0x0 DUP2 DUP2 MSTORE PUSH1 0x2 PUSH1 0x20 DUP2 SWAP1 MSTORE PUSH1 0x40 SWAP1 SWAP2 KECCAK256 SWAP1 DUP2 ADD SLOAD SWAP1 SLOAD PUSH2 0x19AA SWAP2 DUP5 SWAP2 PUSH4 0x3B9ACA00 SWAP2 PUSH2 0x116F SWAP2 DUP11 DUP5 MUL SWAP2 PUSH2 0xF45 SWAP2 PUSH2 0x261B JUMP JUMPDEST SWAP2 POP PUSH2 0x19B6 DUP2 DUP7 PUSH2 0x1613 JUMP JUMPDEST PUSH1 0x0 SWAP5 POP JUMPDEST PUSH2 0x18B0 JUMP JUMPDEST DUP3 DUP3 GT ISZERO PUSH2 0xF82 JUMPI PUSH1 0x0 DUP1 REVERT JUMPDEST PUSH1 0x0 SWAP1 DUP2 MSTORE PUSH1 0x2 PUSH1 0x20 MSTORE PUSH1 0x40 SWAP1 KECCAK256 PUSH1 0x4 ADD SLOAD PUSH1 0x1 PUSH1 0xA0 SHL SWAP1 DIV PUSH1 0x1 PUSH1 0x1 PUSH1 0x40 SHL SUB AND ISZERO ISZERO SWAP1 JUMP JUMPDEST PUSH1 0x2 PUSH1 0x20 DUP2 SWAP1 MSTORE PUSH1 0x0 SWAP2 DUP3 MSTORE PUSH1 0x40 SWAP1 SWAP2 KECCAK256 DUP1 SLOAD PUSH1 0x1 DUP3 ADD SLOAD SWAP3 DUP3 ADD SLOAD PUSH1 0x3 DUP4 ADD SLOAD PUSH1 0x4 SWAP1 SWAP4 ADD SLOAD SWAP2 SWAP4 PUSH1 0x1 PUSH1 0x1 PUSH1 0xA0 SHL SUB SWAP1 DUP2 AND SWAP4 SWAP2 SWAP3 SWAP2 DUP2 AND SWAP2 SWAP1 DUP2 AND SWAP1 PUSH1 0x1 PUSH1 0xA0 SHL SWAP1 DIV PUSH1 0x1 PUSH1 0x1 PUSH1 0x40 SHL SUB AND DUP7 JUMP JUMPDEST PUSH1 0xB SLOAD SWAP1 JUMP JUMPDEST PUSH1 0x0 SLOAD PUSH1 0x1 PUSH1 0x1 PUSH1 0xA0 SHL SUB AND DUP2 JUMP JUMPDEST PUSH1 0x0 SWAP1 DUP2 MSTORE PUSH1 0x6 PUSH1 0x20 MSTORE PUSH1 0x40 SWAP1 KECCAK256 SLOAD SWAP1 JUMP JUMPDEST PUSH1 0x9 PUSH1 0x20 MSTORE PUSH1 0x0 SWAP1 DUP2 MSTORE PUSH1 0x40 SWAP1 KECCAK256 SLOAD DUP2 JUMP JUMPDEST PUSH1 0x0 SWAP1 DUP2 MSTORE PUSH1 0x6 PUSH1 0x20 MSTORE PUSH1 0x40 SWAP1 KECCAK256 PUSH1 0x1 ADD SLOAD SWAP1 JUMP JUMPDEST PUSH1 0x0 PUSH2 0x1A9F CALLER PUSH2 0x2667 JUMP JUMPDEST PUSH2 0x1ADE JUMPI PUSH1 0x40 DUP1 MLOAD PUSH3 0x461BCD PUSH1 0xE5 SHL DUP2 MSTORE PUSH1 0x20 PUSH1 0x4 DUP3 ADD MSTORE PUSH1 0x14 PUSH1 0x24 DUP3 ADD MSTORE PUSH1 0x0 DUP1 MLOAD PUSH1 0x20 PUSH2 0x3F31 DUP4 CODECOPY DUP2 MLOAD SWAP2 MSTORE PUSH1 0x44 DUP3 ADD MSTORE SWAP1 MLOAD SWAP1 DUP2 SWAP1 SUB PUSH1 0x64 ADD SWAP1 REVERT JUMPDEST POP PUSH1 0xD DUP1 SLOAD DUP3 ISZERO ISZERO PUSH1 0x1 PUSH1 0xA0 SHL MUL PUSH1 0xFF PUSH1 0xA0 SHL NOT SWAP1 SWAP2 AND OR SWAP1 SSTORE PUSH1 0x1 SWAP2 SWAP1 POP JUMP JUMPDEST PUSH1 0xA PUSH1 0x20 MSTORE PUSH1 0x0 SWAP1 DUP2 MSTORE PUSH1 0x40 SWAP1 KECCAK256 SLOAD DUP2 JUMP JUMPDEST PUSH2 0x1B1A DUP2 PUSH2 0x1333 JUMP JUMPDEST PUSH2 0x1B23 JUMPI PUSH1 0x0 DUP1 REVERT JUMPDEST POP JUMP JUMPDEST PUSH1 0x3 SLOAD PUSH1 0x0 SWAP1 PUSH1 0xFF AND ISZERO PUSH2 0x1B6F JUMPI PUSH1 0x40 DUP1 MLOAD PUSH3 0x461BCD PUSH1 0xE5 SHL DUP2 MSTORE PUSH1 0x20 PUSH1 0x4 DUP3 ADD MSTORE PUSH1 0x12 PUSH1 0x24 DUP3 ADD MSTORE PUSH1 0x0 DUP1 MLOAD PUSH1 0x20 PUSH2 0x3E3D DUP4 CODECOPY DUP2 MLOAD SWAP2 MSTORE PUSH1 0x44 DUP3 ADD MSTORE SWAP1 MLOAD SWAP1 DUP2 SWAP1 SUB PUSH1 0x64 ADD SWAP1 REVERT JUMPDEST PUSH1 0xE PUSH1 0x0 SWAP1 SLOAD SWAP1 PUSH2 0x100 EXP SWAP1 DIV PUSH1 0x1 PUSH1 0x1 PUSH1 0xA0 SHL SUB AND PUSH1 0x1 PUSH1 0x1 PUSH1 0xA0 SHL SUB AND PUSH4 0xD0E30DB0 CALLVALUE PUSH1 0x40 MLOAD DUP3 PUSH4 0xFFFFFFFF AND PUSH1 0xE0 SHL DUP2 MSTORE PUSH1 0x4 ADD PUSH1 0x0 PUSH1 0x40 MLOAD DUP1 DUP4 SUB DUP2 DUP6 DUP9 DUP1 EXTCODESIZE ISZERO DUP1 ISZERO PUSH2 0x1BBF JUMPI PUSH1 0x0 DUP1 REVERT JUMPDEST POP GAS CALL ISZERO DUP1 ISZERO PUSH2 0x1BD3 JUMPI RETURNDATASIZE PUSH1 0x0 DUP1 RETURNDATACOPY RETURNDATASIZE PUSH1 0x0 REVERT JUMPDEST POP POP PUSH1 0xE SLOAD PUSH1 0x40 DUP1 MLOAD PUSH4 0xA9059CBB PUSH1 0xE0 SHL DUP2 MSTORE CALLER PUSH1 0x4 DUP3 ADD MSTORE CALLVALUE PUSH1 0x24 DUP3 ADD MSTORE SWAP1 MLOAD PUSH1 0x1 PUSH1 0x1 PUSH1 0xA0 SHL SUB SWAP1 SWAP3 AND SWAP5 POP PUSH4 0xA9059CBB SWAP4 POP PUSH1 0x44 DUP1 DUP3 ADD SWAP4 POP PUSH1 0x20 SWAP3 SWAP2 DUP3 SWAP1 SUB ADD DUP2 PUSH1 0x0 DUP8 DUP1 EXTCODESIZE ISZERO DUP1 ISZERO PUSH2 0x1C29 JUMPI PUSH1 0x0 DUP1 REVERT JUMPDEST POP GAS CALL ISZERO DUP1 ISZERO PUSH2 0x1C3D JUMPI RETURNDATASIZE PUSH1 0x0 DUP1 RETURNDATACOPY RETURNDATASIZE PUSH1 0x0 REVERT JUMPDEST POP POP POP POP PUSH1 0x40 MLOAD RETURNDATASIZE PUSH1 0x20 DUP2 LT ISZERO PUSH2 0x1C53 JUMPI PUSH1 0x0 DUP1 REVERT JUMPDEST POP POP PUSH1 0xE SLOAD PUSH1 0x5 SLOAD PUSH1 0x1 PUSH1 0x1 PUSH1 0xA0 SHL SUB SWAP1 SWAP2 AND SWAP1 PUSH1 0x1 PUSH1 0xF0 SHL SWAP1 DIV PUSH1 0xFF AND ISZERO PUSH2 0x1C8E JUMPI PUSH2 0x1C86 CALLVALUE DUP3 DUP7 DUP7 PUSH1 0x0 PUSH1 0x1 PUSH2 0x2EBA JUMP JUMPDEST SWAP2 POP POP PUSH2 0xDFD JUMP JUMPDEST PUSH2 0x1C9A CALLVALUE DUP3 DUP7 DUP7 PUSH2 0x301D JUMP JUMPDEST SWAP5 SWAP4 POP POP POP POP JUMP JUMPDEST PUSH1 0x0 PUSH2 0x1CAD CALLER PUSH2 0x2667 JUMP JUMPDEST PUSH2 0x1CEC JUMPI PUSH1 0x40 DUP1 MLOAD PUSH3 0x461BCD PUSH1 0xE5 SHL DUP2 MSTORE PUSH1 0x20 PUSH1 0x4 DUP3 ADD MSTORE PUSH1 0x14 PUSH1 0x24 DUP3 ADD MSTORE PUSH1 0x0 DUP1 MLOAD PUSH1 0x20 PUSH2 0x3F31 DUP4 CODECOPY DUP2 MLOAD SWAP2 MSTORE PUSH1 0x44 DUP3 ADD MSTORE SWAP1 MLOAD SWAP1 DUP2 SWAP1 SUB PUSH1 0x64 ADD SWAP1 REVERT JUMPDEST POP PUSH1 0xD DUP1 SLOAD PUSH1 0x1 PUSH1 0x1 PUSH1 0xA0 SHL SUB DUP4 AND PUSH1 0x1 PUSH1 0x1 PUSH1 0xA0 SHL SUB NOT SWAP1 SWAP2 AND OR SWAP1 SSTORE PUSH1 0x1 SWAP2 SWAP1 POP JUMP JUMPDEST PUSH1 0x0 PUSH2 0x1D1C CALLER PUSH2 0x2667 JUMP JUMPDEST PUSH2 0x1D5B JUMPI PUSH1 0x40 DUP1 MLOAD PUSH3 0x461BCD PUSH1 0xE5 SHL DUP2 MSTORE PUSH1 0x20 PUSH1 0x4 DUP3 ADD MSTORE PUSH1 0x14 PUSH1 0x24 DUP3 ADD MSTORE PUSH1 0x0 DUP1 MLOAD PUSH1 0x20 PUSH2 0x3F31 DUP4 CODECOPY DUP2 MLOAD SWAP2 MSTORE PUSH1 0x44 DUP3 ADD MSTORE SWAP1 MLOAD SWAP1 DUP2 SWAP1 SUB PUSH1 0x64 ADD SWAP1 REVERT JUMPDEST PUSH1 0x40 DUP1 MLOAD CALLVALUE DUP1 DUP3 MSTORE PUSH1 0x20 DUP3 ADD DUP4 DUP2 MSTORE CALLDATASIZE SWAP4 DUP4 ADD DUP5 SWAP1 MSTORE PUSH1 0x4 CALLDATALOAD SWAP4 PUSH1 0x24 CALLDATALOAD SWAP4 DUP5 SWAP3 DUP7 SWAP3 CALLER SWAP3 PUSH1 0x0 DUP1 CALLDATALOAD PUSH1 0x1 PUSH1 0x1 PUSH1 0xE0 SHL SUB NOT AND SWAP4 DUP9 SWAP4 SWAP2 SWAP3 SWAP1 PUSH1 0x60 DUP3 ADD DUP5 DUP5 DUP1 DUP3 DUP5 CALLDATACOPY PUSH1 0x0 DUP4 DUP3 ADD MSTORE PUSH1 0x40 MLOAD PUSH1 0x1F SWAP1 SWAP2 ADD PUSH1 0x1F NOT AND SWAP1 SWAP3 ADD DUP3 SWAP1 SUB SWAP7 POP SWAP1 SWAP5 POP POP POP POP POP LOG4 PUSH1 0x1 PUSH1 0x1 PUSH1 0xA0 SHL SUB DUP7 AND PUSH1 0x0 DUP2 DUP2 MSTORE PUSH1 0x9 PUSH1 0x20 SWAP1 DUP2 MSTORE PUSH1 0x40 SWAP2 DUP3 SWAP1 KECCAK256 DUP9 SWAP1 SSTORE DUP2 MLOAD SWAP3 DUP4 MSTORE DUP3 ADD DUP8 SWAP1 MSTORE DUP1 MLOAD PUSH32 0xC28D56449B0BB31E64EE7487E061F57A2E72AEA8019D810832F26DDA099823D0 SWAP3 DUP2 SWAP1 SUB SWAP1 SWAP2 ADD SWAP1 LOG1 POP PUSH1 0x1 SWAP6 SWAP5 POP POP POP POP POP JUMP JUMPDEST PUSH1 0x5 SLOAD PUSH1 0x0 SWAP1 PUSH1 0x1 PUSH1 0xE0 SHL SWAP1 DIV PUSH1 0xFF AND DUP1 PUSH2 0x1E5C JUMPI POP PUSH1 0x5 SLOAD PUSH1 0x1 PUSH1 0xA0 SHL SWAP1 DIV PUSH1 0x1 PUSH1 0x1 PUSH1 0x40 SHL SUB AND PUSH2 0x1E51 PUSH2 0x164E JUMP JUMPDEST PUSH1 0x1 PUSH1 0x1 PUSH1 0x40 SHL SUB AND GT JUMPDEST SWAP1 POP SWAP1 JUMP JUMPDEST PUSH1 0x6 PUSH1 0x20 MSTORE PUSH1 0x0 SWAP1 DUP2 MSTORE PUSH1 0x40 SWAP1 KECCAK256 DUP1 SLOAD PUSH1 0x1 DUP3 ADD SLOAD PUSH1 0x2 SWAP1 SWAP3 ADD SLOAD SWAP1 SWAP2 SWAP1 DUP4 JUMP JUMPDEST PUSH1 0x0 SWAP1 DUP2 MSTORE PUSH1 0x2 PUSH1 0x20 MSTORE PUSH1 0x40 SWAP1 KECCAK256 PUSH1 0x4 ADD SLOAD PUSH1 0x1 PUSH1 0x1 PUSH1 0xA0 SHL SUB AND SWAP1 JUMP JUMPDEST PUSH1 0x0 DUP2 DUP2 MSTORE PUSH1 0x6 PUSH1 0x20 MSTORE PUSH1 0x40 DUP2 KECCAK256 SLOAD ISZERO ISZERO DUP1 PUSH2 0x1ECC JUMPI POP PUSH1 0x0 DUP3 DUP2 MSTORE PUSH1 0x6 PUSH1 0x20 MSTORE PUSH1 0x40 SWAP1 KECCAK256 PUSH1 0x1 ADD SLOAD ISZERO ISZERO JUMPDEST DUP1 PUSH2 0xDFD JUMPI POP POP PUSH1 0x0 DUP2 DUP2 MSTORE PUSH1 0x2 PUSH1 0x20 SWAP1 DUP2 MSTORE PUSH1 0x40 DUP1 DUP4 KECCAK256 PUSH1 0x1 DUP2 ADD SLOAD PUSH1 0x1 PUSH1 0x1 PUSH1 0xA0 SHL SUB SWAP1 DUP2 AND DUP6 MSTORE PUSH1 0x7 DUP5 MSTORE DUP3 DUP6 KECCAK256 PUSH1 0x3 SWAP1 SWAP3 ADD SLOAD AND DUP5 MSTORE SWAP1 SWAP2 MSTORE SWAP1 KECCAK256 SLOAD EQ SWAP1 JUMP JUMPDEST PUSH1 0x0 PUSH2 0x1F1B CALLER PUSH2 0x2667 JUMP JUMPDEST PUSH2 0x1F5A JUMPI PUSH1 0x40 DUP1 MLOAD PUSH3 0x461BCD PUSH1 0xE5 SHL DUP2 MSTORE PUSH1 0x20 PUSH1 0x4 DUP3 ADD MSTORE PUSH1 0x14 PUSH1 0x24 DUP3 ADD MSTORE PUSH1 0x0 DUP1 MLOAD PUSH1 0x20 PUSH2 0x3F31 DUP4 CODECOPY DUP2 MLOAD SWAP2 MSTORE PUSH1 0x44 DUP3 ADD MSTORE SWAP1 MLOAD SWAP1 DUP2 SWAP1 SUB PUSH1 0x64 ADD SWAP1 REVERT JUMPDEST PUSH1 0x5 DUP1 SLOAD DUP4 ISZERO ISZERO PUSH1 0x1 PUSH1 0xE8 SHL SWAP1 DUP2 MUL PUSH1 0xFF PUSH1 0xE8 SHL NOT SWAP1 SWAP3 AND SWAP2 SWAP1 SWAP2 OR SWAP2 DUP3 SWAP1 SSTORE PUSH1 0x40 DUP1 MLOAD SWAP2 SWAP1 SWAP3 DIV PUSH1 0xFF AND ISZERO ISZERO DUP2 MSTORE SWAP1 MLOAD PUSH32 0x7089E4F0BCC948F9F723A361590C32D9C2284DA7AB1981B1249AD2EDB9F953C1 SWAP2 DUP2 SWAP1 SUB PUSH1 0x20 ADD SWAP1 LOG1 POP PUSH1 0x1 SWAP2 SWAP1 POP JUMP JUMPDEST PUSH1 0x0 DUP3 PUSH2 0x1FC9 DUP2 PUSH2 0x19CD JUMP JUMPDEST PUSH2 0x1FD2 JUMPI PUSH1 0x0 DUP1 REVERT JUMPDEST PUSH2 0x1FDA PUSH2 0x1E20 JUMP JUMPDEST ISZERO PUSH2 0x1FE4 JUMPI PUSH1 0x0 DUP1 REVERT JUMPDEST PUSH1 0x3 SLOAD PUSH1 0xFF AND ISZERO PUSH2 0x202A JUMPI PUSH1 0x40 DUP1 MLOAD PUSH3 0x461BCD PUSH1 0xE5 SHL DUP2 MSTORE PUSH1 0x20 PUSH1 0x4 DUP3 ADD MSTORE PUSH1 0x12 PUSH1 0x24 DUP3 ADD MSTORE PUSH1 0x0 DUP1 MLOAD PUSH1 0x20 PUSH2 0x3E3D DUP4 CODECOPY DUP2 MLOAD SWAP2 MSTORE PUSH1 0x44 DUP3 ADD MSTORE SWAP1 MLOAD SWAP1 DUP2 SWAP1 SUB PUSH1 0x64 ADD SWAP1 REVERT JUMPDEST PUSH1 0xD SLOAD PUSH1 0x1 PUSH1 0xA0 SHL SWAP1 DIV PUSH1 0xFF AND ISZERO PUSH2 0x20D0 JUMPI PUSH1 0xD SLOAD PUSH1 0x1 PUSH1 0x1 PUSH1 0xA0 SHL SUB AND PUSH4 0xB30ED7B3 PUSH2 0x2056 DUP7 PUSH2 0x1E82 JUMP JUMPDEST PUSH1 0x40 DUP1 MLOAD PUSH1 0x1 PUSH1 0x1 PUSH1 0xE0 SHL SUB NOT PUSH1 0xE0 DUP6 SWAP1 SHL AND DUP2 MSTORE PUSH1 0x1 PUSH1 0x1 PUSH1 0xA0 SHL SUB SWAP1 SWAP3 AND PUSH1 0x4 DUP4 ADD MSTORE CALLER PUSH1 0x24 DUP4 ADD MSTORE MLOAD PUSH1 0x44 DUP1 DUP4 ADD SWAP3 PUSH1 0x20 SWAP3 SWAP2 SWAP1 DUP3 SWAP1 SUB ADD DUP2 PUSH1 0x0 DUP8 DUP1 EXTCODESIZE ISZERO DUP1 ISZERO PUSH2 0x20A3 JUMPI PUSH1 0x0 DUP1 REVERT JUMPDEST POP GAS CALL ISZERO DUP1 ISZERO PUSH2 0x20B7 JUMPI RETURNDATASIZE PUSH1 0x0 DUP1 RETURNDATACOPY RETURNDATASIZE PUSH1 0x0 REVERT JUMPDEST POP POP POP POP PUSH1 0x40 MLOAD RETURNDATASIZE PUSH1 0x20 DUP2 LT ISZERO PUSH2 0x20CD JUMPI PUSH1 0x0 DUP1 REVERT JUMPDEST POP POP JUMPDEST PUSH1 0x5 SLOAD PUSH2 0x3DF9 SWAP1 PUSH1 0x1 PUSH1 0xF0 SHL SWAP1 DIV PUSH1 0xFF AND PUSH2 0x20ED JUMPI PUSH2 0x332E PUSH2 0x20F1 JUMP JUMPDEST PUSH2 0x3A3E JUMPDEST SWAP1 POP PUSH2 0x1008 DUP6 DUP6 DUP4 PUSH4 0xFFFFFFFF AND JUMP JUMPDEST PUSH1 0x0 PUSH2 0x210B PUSH2 0x1E20 JUMP JUMPDEST ISZERO PUSH2 0x2115 JUMPI PUSH1 0x0 DUP1 REVERT JUMPDEST PUSH1 0x3 SLOAD PUSH1 0xFF AND ISZERO PUSH2 0x215B JUMPI PUSH1 0x40 DUP1 MLOAD PUSH3 0x461BCD PUSH1 0xE5 SHL DUP2 MSTORE PUSH1 0x20 PUSH1 0x4 DUP3 ADD MSTORE PUSH1 0x12 PUSH1 0x24 DUP3 ADD MSTORE PUSH1 0x0 DUP1 MLOAD PUSH1 0x20 PUSH2 0x3E3D DUP4 CODECOPY DUP2 MLOAD SWAP2 MSTORE PUSH1 0x44 DUP3 ADD MSTORE SWAP1 MLOAD SWAP1 DUP2 SWAP1 SUB PUSH1 0x64 ADD SWAP1 REVERT JUMPDEST PUSH1 0x1 PUSH1 0x1 PUSH1 0xA0 SHL SUB DUP7 AND PUSH1 0x0 SWAP1 DUP2 MSTORE PUSH1 0x9 PUSH1 0x20 MSTORE PUSH1 0x40 SWAP1 KECCAK256 SLOAD DUP8 LT ISZERO PUSH2 0x2180 JUMPI PUSH1 0x0 DUP1 REVERT JUMPDEST PUSH1 0x5 SLOAD PUSH1 0x1 PUSH1 0xF0 SHL SWAP1 DIV PUSH1 0xFF AND ISZERO PUSH2 0x21A7 JUMPI PUSH2 0x21A0 DUP8 DUP8 DUP8 DUP8 DUP8 DUP8 PUSH2 0x2EBA JUMP JUMPDEST SWAP1 POP PUSH2 0x119F JUMP JUMPDEST PUSH2 0x21B3 DUP8 DUP8 DUP8 DUP8 PUSH2 0x301D JUMP JUMPDEST SWAP8 SWAP7 POP POP POP POP POP POP POP JUMP JUMPDEST PUSH1 0x0 DUP2 PUSH2 0x21CA DUP2 PUSH2 0x19CD JUMP JUMPDEST PUSH2 0x21D3 JUMPI PUSH1 0x0 DUP1 REVERT JUMPDEST PUSH2 0x21DB PUSH2 0x1E20 JUMP JUMPDEST ISZERO PUSH2 0x21E5 JUMPI PUSH1 0x0 DUP1 REVERT JUMPDEST PUSH1 0x3 SLOAD PUSH1 0xFF AND ISZERO PUSH2 0x222B JUMPI PUSH1 0x40 DUP1 MLOAD PUSH3 0x461BCD PUSH1 0xE5 SHL DUP2 MSTORE PUSH1 0x20 PUSH1 0x4 DUP3 ADD MSTORE PUSH1 0x12 PUSH1 0x24 DUP3 ADD MSTORE PUSH1 0x0 DUP1 MLOAD PUSH1 0x20 PUSH2 0x3E3D DUP4 CODECOPY DUP2 MLOAD SWAP2 MSTORE PUSH1 0x44 DUP3 ADD MSTORE SWAP1 MLOAD SWAP1 DUP2 SWAP1 SUB PUSH1 0x64 ADD SWAP1 REVERT JUMPDEST PUSH1 0xE SLOAD PUSH1 0x0 DUP5 DUP2 MSTORE PUSH1 0x2 PUSH1 0x20 MSTORE PUSH1 0x40 SWAP1 KECCAK256 PUSH1 0x3 ADD SLOAD PUSH1 0x1 PUSH1 0x1 PUSH1 0xA0 SHL SUB SWAP2 DUP3 AND SWAP2 AND DUP2 EQ PUSH2 0x22A0 JUMPI PUSH1 0x40 DUP1 MLOAD PUSH3 0x461BCD PUSH1 0xE5 SHL DUP2 MSTORE PUSH1 0x20 PUSH1 0x4 DUP3 ADD MSTORE PUSH1 0x1D PUSH1 0x24 DUP3 ADD MSTORE PUSH32 0x6F6666657220796F7520627579206D75737420626520696E2057455448000000 PUSH1 0x44 DUP3 ADD MSTORE SWAP1 MLOAD SWAP1 DUP2 SWAP1 SUB PUSH1 0x64 ADD SWAP1 REVERT JUMPDEST PUSH1 0xE PUSH1 0x0 SWAP1 SLOAD SWAP1 PUSH2 0x100 EXP SWAP1 DIV PUSH1 0x1 PUSH1 0x1 PUSH1 0xA0 SHL SUB AND PUSH1 0x1 PUSH1 0x1 PUSH1 0xA0 SHL SUB AND PUSH4 0xD0E30DB0 CALLVALUE PUSH1 0x40 MLOAD DUP3 PUSH4 0xFFFFFFFF AND PUSH1 0xE0 SHL DUP2 MSTORE PUSH1 0x4 ADD PUSH1 0x0 PUSH1 0x40 MLOAD DUP1 DUP4 SUB DUP2 DUP6 DUP9 DUP1 EXTCODESIZE ISZERO DUP1 ISZERO PUSH2 0x22F0 JUMPI PUSH1 0x0 DUP1 REVERT JUMPDEST POP GAS CALL ISZERO DUP1 ISZERO PUSH2 0x2304 JUMPI RETURNDATASIZE PUSH1 0x0 DUP1 RETURNDATACOPY RETURNDATASIZE PUSH1 0x0 REVERT JUMPDEST POP POP PUSH1 0xE SLOAD PUSH1 0x40 DUP1 MLOAD PUSH4 0xA9059CBB PUSH1 0xE0 SHL DUP2 MSTORE CALLER PUSH1 0x4 DUP3 ADD MSTORE CALLVALUE PUSH1 0x24 DUP3 ADD MSTORE SWAP1 MLOAD PUSH1 0x1 PUSH1 0x1 PUSH1 0xA0 SHL SUB SWAP1 SWAP3 AND SWAP5 POP PUSH4 0xA9059CBB SWAP4 POP PUSH1 0x44 DUP1 DUP3 ADD SWAP4 POP PUSH1 0x20 SWAP3 SWAP2 DUP3 SWAP1 SUB ADD DUP2 PUSH1 0x0 DUP8 DUP1 EXTCODESIZE ISZERO DUP1 ISZERO PUSH2 0x235A JUMPI PUSH1 0x0 DUP1 REVERT JUMPDEST POP GAS CALL ISZERO DUP1 ISZERO PUSH2 0x236E JUMPI RETURNDATASIZE PUSH1 0x0 DUP1 RETURNDATACOPY RETURNDATASIZE PUSH1 0x0 REVERT JUMPDEST POP POP POP POP PUSH1 0x40 MLOAD RETURNDATASIZE PUSH1 0x20 DUP2 LT ISZERO PUSH2 0x2384 JUMPI PUSH1 0x0 DUP1 REVERT JUMPDEST POP PUSH2 0x2391 SWAP1 POP DUP5 CALLVALUE PUSH2 0x332E JUMP JUMPDEST POP POP POP SWAP2 SWAP1 POP JUMP JUMPDEST PUSH1 0x3 SLOAD PUSH1 0x0 SWAP1 PUSH1 0xFF AND ISZERO PUSH2 0x23E2 JUMPI PUSH1 0x40 DUP1 MLOAD PUSH3 0x461BCD PUSH1 0xE5 SHL DUP2 MSTORE PUSH1 0x20 PUSH1 0x4 DUP3 ADD MSTORE PUSH1 0x12 PUSH1 0x24 DUP3 ADD MSTORE PUSH1 0x0 DUP1 MLOAD PUSH1 0x20 PUSH2 0x3E3D DUP4 CODECOPY DUP2 MLOAD SWAP2 MSTORE PUSH1 0x44 DUP3 ADD MSTORE SWAP1 MLOAD SWAP1 DUP2 SWAP1 SUB PUSH1 0x64 ADD SWAP1 REVERT JUMPDEST PUSH1 0x5 SLOAD PUSH2 0x3DF9 SWAP1 PUSH1 0x1 PUSH1 0xF0 SHL SWAP1 DIV PUSH1 0xFF AND PUSH2 0x23FF JUMPI PUSH2 0x301D PUSH2 0x2403 JUMP JUMPDEST PUSH2 0x3B09 JUMPDEST SWAP1 POP PUSH2 0x119F DUP7 DUP7 DUP7 DUP7 DUP6 PUSH4 0xFFFFFFFF AND JUMP JUMPDEST PUSH1 0x0 PUSH2 0x2420 CALLER PUSH2 0x2667 JUMP JUMPDEST PUSH2 0x245F JUMPI PUSH1 0x40 DUP1 MLOAD PUSH3 0x461BCD PUSH1 0xE5 SHL DUP2 MSTORE PUSH1 0x20 PUSH1 0x4 DUP3 ADD MSTORE PUSH1 0x14 PUSH1 0x24 DUP3 ADD MSTORE PUSH1 0x0 DUP1 MLOAD PUSH1 0x20 PUSH2 0x3F31 DUP4 CODECOPY DUP2 MLOAD SWAP2 MSTORE PUSH1 0x44 DUP3 ADD MSTORE SWAP1 MLOAD SWAP1 DUP2 SWAP1 SUB PUSH1 0x64 ADD SWAP1 REVERT JUMPDEST POP PUSH1 0x5 DUP1 SLOAD PUSH1 0x1 PUSH1 0x1 PUSH1 0xA0 SHL SUB DUP4 AND PUSH1 0x1 PUSH1 0x1 PUSH1 0xA0 SHL SUB NOT SWAP1 SWAP2 AND OR SWAP1 SSTORE PUSH1 0x1 SWAP2 SWAP1 POP JUMP JUMPDEST PUSH1 0x5 SLOAD PUSH1 0x1 PUSH1 0xE8 SHL SWAP1 DIV PUSH1 0xFF AND DUP2 JUMP JUMPDEST PUSH1 0x0 DUP1 PUSH2 0x24A1 DUP5 DUP7 PUSH2 0xDD6 JUMP JUMPDEST SWAP1 POP JUMPDEST PUSH1 0x0 DUP2 DUP2 MSTORE PUSH1 0x2 PUSH1 0x20 MSTORE PUSH1 0x40 SWAP1 KECCAK256 SLOAD DUP4 GT ISZERO PUSH2 0x2519 JUMPI PUSH2 0x24DA DUP3 PUSH1 0x2 PUSH1 0x0 DUP5 DUP2 MSTORE PUSH1 0x20 ADD SWAP1 DUP2 MSTORE PUSH1 0x20 ADD PUSH1 0x0 KECCAK256 PUSH1 0x2 ADD SLOAD PUSH2 0x257C JUMP JUMPDEST PUSH1 0x0 DUP3 DUP2 MSTORE PUSH1 0x2 PUSH1 0x20 MSTORE PUSH1 0x40 SWAP1 KECCAK256 SLOAD SWAP1 SWAP3 POP PUSH2 0x24F7 SWAP1 DUP5 SWAP1 PUSH2 0x25CB JUMP JUMPDEST SWAP3 POP DUP3 ISZERO PUSH2 0x2514 JUMPI PUSH2 0x2508 DUP2 PUSH2 0x1A7F JUMP JUMPDEST SWAP1 POP DUP1 PUSH2 0x2514 JUMPI PUSH1 0x0 DUP1 REVERT JUMPDEST PUSH2 0x24A4 JUMP JUMPDEST PUSH1 0x0 DUP2 DUP2 MSTORE PUSH1 0x2 PUSH1 0x20 DUP2 SWAP1 MSTORE PUSH1 0x40 SWAP1 SWAP2 KECCAK256 SWAP1 DUP2 ADD SLOAD SWAP1 SLOAD PUSH2 0x1008 SWAP2 DUP5 SWAP2 PUSH4 0x3B9ACA00 SWAP2 PUSH2 0x116F SWAP2 DUP9 DUP5 MUL SWAP2 PUSH2 0xF45 SWAP2 PUSH2 0x261B JUMP JUMPDEST PUSH1 0x0 DUP2 PUSH2 0x256D PUSH2 0x2565 DUP6 PUSH8 0xDE0B6B3A7640000 PUSH2 0x3B93 JUMP JUMPDEST PUSH1 0x2 DUP6 PUSH2 0x1176 JUMP JUMPDEST DUP2 PUSH2 0x2574 JUMPI INVALID JUMPDEST DIV SWAP4 SWAP3 POP POP POP JUMP JUMPDEST DUP1 DUP3 ADD DUP3 DUP2 LT ISZERO PUSH2 0xDFD JUMPI PUSH1 0x40 DUP1 MLOAD PUSH3 0x461BCD PUSH1 0xE5 SHL DUP2 MSTORE PUSH1 0x20 PUSH1 0x4 DUP3 ADD MSTORE PUSH1 0x14 PUSH1 0x24 DUP3 ADD MSTORE PUSH20 0x64732D6D6174682D6164642D6F766572666C6F77 PUSH1 0x60 SHL PUSH1 0x44 DUP3 ADD MSTORE SWAP1 MLOAD SWAP1 DUP2 SWAP1 SUB PUSH1 0x64 ADD SWAP1 REVERT JUMPDEST DUP1 DUP3 SUB DUP3 DUP2 GT ISZERO PUSH2 0xDFD JUMPI PUSH1 0x40 DUP1 MLOAD PUSH3 0x461BCD PUSH1 0xE5 SHL DUP2 MSTORE PUSH1 0x20 PUSH1 0x4 DUP3 ADD MSTORE PUSH1 0x15 PUSH1 0x24 DUP3 ADD MSTORE PUSH21 0x64732D6D6174682D7375622D756E646572666C6F77 PUSH1 0x58 SHL PUSH1 0x44 DUP3 ADD MSTORE SWAP1 MLOAD SWAP1 DUP2 SWAP1 SUB PUSH1 0x64 ADD SWAP1 REVERT JUMPDEST PUSH1 0x0 DUP2 PUSH2 0x256D PUSH2 0x2565 DUP6 PUSH12 0x33B2E3C9FD0803CE8000000 PUSH2 0x3B93 JUMP JUMPDEST PUSH1 0x0 PUSH12 0x33B2E3C9FD0803CE8000000 PUSH2 0x256D PUSH2 0x2653 DUP6 DUP6 PUSH2 0x3B93 JUMP JUMPDEST PUSH1 0x2 PUSH12 0x33B2E3C9FD0803CE8000000 PUSH2 0x1176 JUMP JUMPDEST PUSH1 0x0 PUSH1 0x1 PUSH1 0x1 PUSH1 0xA0 SHL SUB DUP3 AND ADDRESS EQ ISZERO PUSH2 0x2682 JUMPI POP PUSH1 0x1 PUSH2 0x131E JUMP JUMPDEST PUSH1 0x0 SLOAD PUSH1 0x1 PUSH1 0x1 PUSH1 0xA0 SHL SUB DUP4 DUP2 AND SWAP2 AND EQ ISZERO PUSH2 0x26A0 JUMPI POP PUSH1 0x1 PUSH2 0x131E JUMP JUMPDEST POP PUSH1 0x0 PUSH2 0x131E JUMP JUMPDEST PUSH1 0xB SLOAD PUSH1 0x0 SWAP1 DUP1 PUSH2 0x26B8 DUP5 PUSH2 0x1EA0 JUMP JUMPDEST ISZERO PUSH2 0x26C2 JUMPI PUSH1 0x0 DUP1 REVERT JUMPDEST DUP4 PUSH1 0xB SLOAD EQ ISZERO PUSH2 0x26EA JUMPI POP POP POP PUSH1 0x0 DUP2 DUP2 MSTORE PUSH1 0xA PUSH1 0x20 MSTORE PUSH1 0x40 DUP2 KECCAK256 DUP1 SLOAD PUSH1 0xB SSTORE SSTORE PUSH1 0x1 PUSH2 0x131E JUMP JUMPDEST JUMPDEST PUSH1 0x0 DUP3 GT DUP1 ISZERO PUSH2 0x26FB JUMPI POP DUP4 DUP3 EQ ISZERO JUMPDEST ISZERO PUSH2 0x2716 JUMPI POP PUSH1 0x0 DUP2 DUP2 MSTORE PUSH1 0xA PUSH1 0x20 MSTORE PUSH1 0x40 SWAP1 KECCAK256 SLOAD SWAP1 PUSH2 0x26EB JUMP JUMPDEST DUP4 DUP3 EQ PUSH2 0x2728 JUMPI PUSH1 0x0 SWAP3 POP POP POP PUSH2 0x131E JUMP JUMPDEST PUSH1 0x0 DUP5 DUP2 MSTORE PUSH1 0xA PUSH1 0x20 MSTORE PUSH1 0x40 DUP1 DUP3 KECCAK256 DUP1 SLOAD SWAP4 DUP4 MSTORE SWAP1 DUP3 KECCAK256 SWAP3 SWAP1 SWAP3 SSTORE DUP5 DUP2 MSTORE SWAP1 SSTORE POP PUSH1 0x1 SWAP1 POP SWAP2 SWAP1 POP JUMP JUMPDEST PUSH2 0x275B DUP3 PUSH2 0x19CD JUMP JUMPDEST PUSH2 0x2764 JUMPI PUSH1 0x0 DUP1 REVERT JUMPDEST PUSH1 0x0 DUP3 DUP2 MSTORE PUSH1 0x2 PUSH1 0x20 MSTORE PUSH1 0x40 DUP2 KECCAK256 PUSH1 0x3 DUP2 ADD SLOAD PUSH1 0x1 SWAP1 SWAP2 ADD SLOAD PUSH1 0x1 PUSH1 0x1 PUSH1 0xA0 SHL SUB SWAP2 DUP3 AND SWAP3 SWAP2 AND SWAP1 DUP4 ISZERO DUP1 PUSH2 0x27B6 JUMPI POP PUSH1 0x0 DUP5 DUP2 MSTORE PUSH1 0x2 PUSH1 0x20 MSTORE PUSH1 0x40 SWAP1 KECCAK256 PUSH1 0x1 ADD SLOAD PUSH1 0x1 PUSH1 0x1 PUSH1 0xA0 SHL SUB DUP4 DUP2 AND SWAP2 AND EQ ISZERO JUMPDEST DUP1 PUSH2 0x27DE JUMPI POP PUSH1 0x0 DUP5 DUP2 MSTORE PUSH1 0x2 PUSH1 0x20 MSTORE PUSH1 0x40 SWAP1 KECCAK256 PUSH1 0x3 ADD SLOAD PUSH1 0x1 PUSH1 0x1 PUSH1 0xA0 SHL SUB DUP5 DUP2 AND SWAP2 AND EQ ISZERO JUMPDEST DUP1 PUSH2 0x27EF JUMPI POP PUSH2 0x27ED DUP5 PUSH2 0x1EA0 JUMP JUMPDEST ISZERO JUMPDEST PUSH2 0x2802 JUMPI PUSH2 0x27FD DUP6 DUP6 PUSH2 0x3BF6 JUMP JUMPDEST PUSH2 0x280B JUMP JUMPDEST PUSH2 0x280B DUP6 PUSH2 0x3CC8 JUMP JUMPDEST SWAP4 POP DUP4 ISZERO PUSH2 0x2839 JUMPI POP PUSH1 0x0 DUP4 DUP2 MSTORE PUSH1 0x6 PUSH1 0x20 MSTORE PUSH1 0x40 DUP1 DUP3 KECCAK256 PUSH1 0x1 ADD DUP1 SLOAD SWAP1 DUP8 SWAP1 SSTORE DUP7 DUP4 MSTORE SWAP2 KECCAK256 DUP5 SWAP1 SSTORE PUSH2 0x2866 JUMP JUMPDEST POP PUSH1 0x1 PUSH1 0x1 PUSH1 0xA0 SHL SUB DUP2 DUP2 AND PUSH1 0x0 SWAP1 DUP2 MSTORE PUSH1 0x7 PUSH1 0x20 SWAP1 DUP2 MSTORE PUSH1 0x40 DUP1 DUP4 KECCAK256 SWAP4 DUP7 AND DUP4 MSTORE SWAP3 SWAP1 MSTORE KECCAK256 DUP1 SLOAD SWAP1 DUP6 SWAP1 SSTORE JUMPDEST DUP1 ISZERO PUSH2 0x288A JUMPI PUSH1 0x0 DUP2 DUP2 MSTORE PUSH1 0x6 PUSH1 0x20 MSTORE PUSH1 0x40 DUP1 DUP3 KECCAK256 DUP8 SWAP1 SSTORE DUP7 DUP3 MSTORE SWAP1 KECCAK256 PUSH1 0x1 ADD DUP2 SWAP1 SSTORE JUMPDEST PUSH1 0x1 PUSH1 0x1 PUSH1 0xA0 SHL SUB DUP1 DUP4 AND PUSH1 0x0 SWAP1 DUP2 MSTORE PUSH1 0x8 PUSH1 0x20 SWAP1 DUP2 MSTORE PUSH1 0x40 DUP1 DUP4 KECCAK256 SWAP4 DUP8 AND DUP4 MSTORE SWAP3 DUP2 MSTORE SWAP1 DUP3 SWAP1 KECCAK256 DUP1 SLOAD PUSH1 0x1 ADD SWAP1 SSTORE DUP2 MLOAD DUP8 DUP2 MSTORE SWAP2 MLOAD PUSH32 0x20FB9BAD86C18F7E22E8065258790D9416A7D2DF8FF05F80F82C46D38B925ACD SWAP3 DUP2 SWAP1 SUB SWAP1 SWAP2 ADD SWAP1 LOG1 POP POP POP POP POP JUMP JUMPDEST PUSH1 0x0 DUP2 DUP2 MSTORE PUSH1 0x2 PUSH1 0x20 SWAP1 DUP2 MSTORE PUSH1 0x40 DUP1 DUP4 KECCAK256 PUSH1 0x3 DUP2 ADD SLOAD PUSH1 0x1 SWAP1 SWAP2 ADD SLOAD PUSH1 0x1 PUSH1 0x1 PUSH1 0xA0 SHL SUB SWAP1 DUP2 AND DUP1 DUP7 MSTORE PUSH1 0x8 DUP6 MSTORE DUP4 DUP7 KECCAK256 SWAP2 SWAP1 SWAP3 AND DUP1 DUP7 MSTORE SWAP4 MSTORE SWAP1 DUP4 KECCAK256 SLOAD PUSH2 0x2938 JUMPI PUSH1 0x0 DUP1 REVERT JUMPDEST PUSH1 0x0 DUP5 DUP2 MSTORE PUSH1 0x6 PUSH1 0x20 MSTORE PUSH1 0x40 SWAP1 KECCAK256 PUSH1 0x2 ADD SLOAD ISZERO DUP1 ISZERO PUSH2 0x295B JUMPI POP PUSH2 0x295B DUP5 PUSH2 0x1EA0 JUMP JUMPDEST PUSH2 0x2964 JUMPI PUSH1 0x0 DUP1 REVERT JUMPDEST PUSH1 0x1 PUSH1 0x1 PUSH1 0xA0 SHL SUB DUP1 DUP3 AND PUSH1 0x0 SWAP1 DUP2 MSTORE PUSH1 0x7 PUSH1 0x20 SWAP1 DUP2 MSTORE PUSH1 0x40 DUP1 DUP4 KECCAK256 SWAP4 DUP7 AND DUP4 MSTORE SWAP3 SWAP1 MSTORE KECCAK256 SLOAD DUP5 EQ PUSH2 0x29D7 JUMPI PUSH1 0x0 DUP5 DUP2 MSTORE PUSH1 0x6 PUSH1 0x20 MSTORE PUSH1 0x40 DUP1 DUP3 KECCAK256 SLOAD DUP3 MSTORE SWAP1 KECCAK256 PUSH1 0x1 ADD SLOAD DUP5 EQ PUSH2 0x29B3 JUMPI PUSH1 0x0 DUP1 REVERT JUMPDEST PUSH1 0x0 DUP5 DUP2 MSTORE PUSH1 0x6 PUSH1 0x20 MSTORE PUSH1 0x40 DUP1 DUP3 KECCAK256 PUSH1 0x1 DUP1 DUP3 ADD SLOAD SWAP2 SLOAD DUP5 MSTORE SWAP2 SWAP1 SWAP3 KECCAK256 ADD SSTORE PUSH2 0x2A0D JUMP JUMPDEST PUSH1 0x0 DUP5 DUP2 MSTORE PUSH1 0x6 PUSH1 0x20 SWAP1 DUP2 MSTORE PUSH1 0x40 DUP1 DUP4 KECCAK256 PUSH1 0x1 ADD SLOAD PUSH1 0x1 PUSH1 0x1 PUSH1 0xA0 SHL SUB DUP1 DUP7 AND DUP6 MSTORE PUSH1 0x7 DUP5 MSTORE DUP3 DUP6 KECCAK256 SWAP1 DUP8 AND DUP6 MSTORE SWAP1 SWAP3 MSTORE SWAP1 SWAP2 KECCAK256 SSTORE JUMPDEST PUSH1 0x0 DUP5 DUP2 MSTORE PUSH1 0x6 PUSH1 0x20 MSTORE PUSH1 0x40 SWAP1 KECCAK256 PUSH1 0x1 ADD SLOAD ISZERO PUSH2 0x2A64 JUMPI PUSH1 0x0 DUP5 DUP2 MSTORE PUSH1 0x6 PUSH1 0x20 MSTORE PUSH1 0x40 DUP1 DUP3 KECCAK256 PUSH1 0x1 ADD SLOAD DUP3 MSTORE SWAP1 KECCAK256 SLOAD DUP5 EQ PUSH2 0x2A47 JUMPI PUSH1 0x0 DUP1 REVERT JUMPDEST PUSH1 0x0 DUP5 DUP2 MSTORE PUSH1 0x6 PUSH1 0x20 MSTORE PUSH1 0x40 DUP1 DUP3 KECCAK256 DUP1 SLOAD PUSH1 0x1 SWAP1 SWAP2 ADD SLOAD DUP4 MSTORE SWAP2 KECCAK256 SSTORE JUMPDEST PUSH1 0x1 PUSH1 0x1 PUSH1 0xA0 SHL SUB SWAP1 DUP2 AND PUSH1 0x0 SWAP1 DUP2 MSTORE PUSH1 0x8 PUSH1 0x20 SWAP1 DUP2 MSTORE PUSH1 0x40 DUP1 DUP4 KECCAK256 SWAP5 SWAP1 SWAP4 AND DUP3 MSTORE SWAP3 DUP4 MSTORE DUP2 DUP2 KECCAK256 DUP1 SLOAD PUSH1 0x0 NOT ADD SWAP1 SSTORE SWAP4 DUP5 MSTORE PUSH1 0x6 SWAP1 SWAP2 MSTORE SWAP1 SWAP2 KECCAK256 NUMBER PUSH1 0x2 SWAP1 SWAP2 ADD SSTORE POP PUSH1 0x1 SWAP1 JUMP JUMPDEST PUSH1 0x0 DUP2 PUSH2 0x2AB8 DUP2 PUSH2 0x19CD JUMP JUMPDEST PUSH2 0x2AF3 JUMPI PUSH1 0x40 MLOAD PUSH3 0x461BCD PUSH1 0xE5 SHL DUP2 MSTORE PUSH1 0x4 ADD DUP1 DUP1 PUSH1 0x20 ADD DUP3 DUP2 SUB DUP3 MSTORE PUSH1 0x2D DUP2 MSTORE PUSH1 0x20 ADD DUP1 PUSH2 0x3E90 PUSH1 0x2D SWAP2 CODECOPY PUSH1 0x40 ADD SWAP2 POP POP PUSH1 0x40 MLOAD DUP1 SWAP2 SUB SWAP1 REVERT JUMPDEST PUSH2 0x2AFB PUSH2 0x1E20 JUMP JUMPDEST DUP1 PUSH2 0x2B1F JUMPI POP PUSH2 0x2B0A DUP2 PUSH2 0x1E82 JUMP JUMPDEST PUSH1 0x1 PUSH1 0x1 PUSH1 0xA0 SHL SUB AND CALLER PUSH1 0x1 PUSH1 0x1 PUSH1 0xA0 SHL SUB AND EQ JUMPDEST DUP1 PUSH2 0x2B2B JUMPI POP PUSH1 0xC SLOAD DUP2 EQ JUMPDEST PUSH2 0x2B66 JUMPI PUSH1 0x40 MLOAD PUSH3 0x461BCD PUSH1 0xE5 SHL DUP2 MSTORE PUSH1 0x4 ADD DUP1 DUP1 PUSH1 0x20 ADD DUP3 DUP2 SUB DUP3 MSTORE PUSH1 0x74 DUP2 MSTORE PUSH1 0x20 ADD DUP1 PUSH2 0x3EBD PUSH1 0x74 SWAP2 CODECOPY PUSH1 0x80 ADD SWAP2 POP POP PUSH1 0x40 MLOAD DUP1 SWAP2 SUB SWAP1 REVERT JUMPDEST PUSH1 0x3 SLOAD PUSH1 0xFF AND ISZERO PUSH2 0x2B76 JUMPI PUSH1 0x0 DUP1 REVERT JUMPDEST PUSH1 0x3 DUP1 SLOAD PUSH1 0xFF NOT AND PUSH1 0x1 OR SWAP1 SSTORE PUSH2 0x2B8B PUSH2 0x3DC4 JUMP JUMPDEST PUSH1 0x2 PUSH1 0x0 DUP6 DUP2 MSTORE PUSH1 0x20 ADD SWAP1 DUP2 MSTORE PUSH1 0x20 ADD PUSH1 0x0 KECCAK256 PUSH1 0x40 MLOAD DUP1 PUSH1 0xC0 ADD PUSH1 0x40 MSTORE SWAP1 DUP2 PUSH1 0x0 DUP3 ADD SLOAD DUP2 MSTORE PUSH1 0x20 ADD PUSH1 0x1 DUP3 ADD PUSH1 0x0 SWAP1 SLOAD SWAP1 PUSH2 0x100 EXP SWAP1 DIV PUSH1 0x1 PUSH1 0x1 PUSH1 0xA0 SHL SUB AND PUSH1 0x1 PUSH1 0x1 PUSH1 0xA0 SHL SUB AND PUSH1 0x1 PUSH1 0x1 PUSH1 0xA0 SHL SUB AND DUP2 MSTORE PUSH1 0x20 ADD PUSH1 0x2 DUP3 ADD SLOAD DUP2 MSTORE PUSH1 0x20 ADD PUSH1 0x3 DUP3 ADD PUSH1 0x0 SWAP1 SLOAD SWAP1 PUSH2 0x100 EXP SWAP1 DIV PUSH1 0x1 PUSH1 0x1 PUSH1 0xA0 SHL SUB AND PUSH1 0x1 PUSH1 0x1 PUSH1 0xA0 SHL SUB AND PUSH1 0x1 PUSH1 0x1 PUSH1 0xA0 SHL SUB AND DUP2 MSTORE PUSH1 0x20 ADD PUSH1 0x4 DUP3 ADD PUSH1 0x0 SWAP1 SLOAD SWAP1 PUSH2 0x100 EXP SWAP1 DIV PUSH1 0x1 PUSH1 0x1 PUSH1 0xA0 SHL SUB AND PUSH1 0x1 PUSH1 0x1 PUSH1 0xA0 SHL SUB AND PUSH1 0x1 PUSH1 0x1 PUSH1 0xA0 SHL SUB AND DUP2 MSTORE PUSH1 0x20 ADD PUSH1 0x4 DUP3 ADD PUSH1 0x14 SWAP1 SLOAD SWAP1 PUSH2 0x100 EXP SWAP1 DIV PUSH1 0x1 PUSH1 0x1 PUSH1 0x40 SHL SUB AND PUSH1 0x1 PUSH1 0x1 PUSH1 0x40 SHL SUB AND PUSH1 0x1 PUSH1 0x1 PUSH1 0x40 SHL SUB AND DUP2 MSTORE POP POP SWAP1 POP PUSH1 0x2 PUSH1 0x0 DUP6 DUP2 MSTORE PUSH1 0x20 ADD SWAP1 DUP2 MSTORE PUSH1 0x20 ADD PUSH1 0x0 KECCAK256 PUSH1 0x0 DUP1 DUP3 ADD PUSH1 0x0 SWAP1 SSTORE PUSH1 0x1 DUP3 ADD PUSH1 0x0 PUSH2 0x100 EXP DUP2 SLOAD SWAP1 PUSH1 0x1 PUSH1 0x1 PUSH1 0xA0 SHL SUB MUL NOT AND SWAP1 SSTORE PUSH1 0x2 DUP3 ADD PUSH1 0x0 SWAP1 SSTORE PUSH1 0x3 DUP3 ADD PUSH1 0x0 PUSH2 0x100 EXP DUP2 SLOAD SWAP1 PUSH1 0x1 PUSH1 0x1 PUSH1 0xA0 SHL SUB MUL NOT AND SWAP1 SSTORE PUSH1 0x4 DUP3 ADD PUSH1 0x0 PUSH2 0x100 EXP DUP2 SLOAD SWAP1 PUSH1 0x1 PUSH1 0x1 PUSH1 0xA0 SHL SUB MUL NOT AND SWAP1 SSTORE PUSH1 0x4 DUP3 ADD PUSH1 0x14 PUSH2 0x100 EXP DUP2 SLOAD SWAP1 PUSH1 0x1 PUSH1 0x1 PUSH1 0x40 SHL SUB MUL NOT AND SWAP1 SSTORE POP POP DUP1 PUSH1 0x20 ADD MLOAD PUSH1 0x1 PUSH1 0x1 PUSH1 0xA0 SHL SUB AND PUSH4 0xA9059CBB DUP3 PUSH1 0x80 ADD MLOAD DUP4 PUSH1 0x0 ADD MLOAD PUSH1 0x40 MLOAD DUP4 PUSH4 0xFFFFFFFF AND PUSH1 0xE0 SHL DUP2 MSTORE PUSH1 0x4 ADD DUP1 DUP4 PUSH1 0x1 PUSH1 0x1 PUSH1 0xA0 SHL SUB AND PUSH1 0x1 PUSH1 0x1 PUSH1 0xA0 SHL SUB AND DUP2 MSTORE PUSH1 0x20 ADD DUP3 DUP2 MSTORE PUSH1 0x20 ADD SWAP3 POP POP POP PUSH1 0x20 PUSH1 0x40 MLOAD DUP1 DUP4 SUB DUP2 PUSH1 0x0 DUP8 DUP1 EXTCODESIZE ISZERO DUP1 ISZERO PUSH2 0x2D75 JUMPI PUSH1 0x0 DUP1 REVERT JUMPDEST POP GAS CALL ISZERO DUP1 ISZERO PUSH2 0x2D89 JUMPI RETURNDATASIZE PUSH1 0x0 DUP1 RETURNDATACOPY RETURNDATASIZE PUSH1 0x0 REVERT JUMPDEST POP POP POP POP PUSH1 0x40 MLOAD RETURNDATASIZE PUSH1 0x20 DUP2 LT ISZERO PUSH2 0x2D9F JUMPI PUSH1 0x0 DUP1 REVERT JUMPDEST POP MLOAD PUSH2 0x2DAA JUMPI PUSH1 0x0 DUP1 REVERT JUMPDEST PUSH1 0x40 DUP1 MLOAD DUP6 DUP2 MSTORE SWAP1 MLOAD PUSH32 0xA2C251311B1A7A475913900A2A73DC9789A21B04BC737E050BBC506DD4EB3488 SWAP2 DUP2 SWAP1 SUB PUSH1 0x20 ADD SWAP1 LOG1 PUSH1 0x80 DUP2 ADD MLOAD PUSH1 0x20 DUP1 DUP4 ADD DUP1 MLOAD PUSH1 0x60 DUP1 DUP7 ADD DUP1 MLOAD PUSH1 0x40 DUP1 MLOAD PUSH1 0x1 PUSH1 0x1 PUSH1 0x60 SHL SUB NOT SWAP6 DUP6 SHL DUP7 AND DUP2 DUP10 ADD MSTORE SWAP2 SWAP1 SWAP4 SHL SWAP1 SWAP4 AND PUSH1 0x34 DUP5 ADD MSTORE DUP2 MLOAD PUSH1 0x28 DUP2 DUP6 SUB ADD DUP2 MSTORE PUSH1 0x48 DUP5 ADD DUP1 DUP5 MSTORE DUP2 MLOAD SWAP2 SWAP1 SWAP7 ADD KECCAK256 SWAP4 MLOAD SWAP1 MLOAD DUP8 MLOAD DUP4 DUP10 ADD MLOAD PUSH1 0x1 PUSH1 0x1 PUSH1 0xA0 SHL SUB SWAP4 DUP5 AND SWAP1 SWAP8 MSTORE SWAP1 DUP3 AND PUSH1 0x68 DUP6 ADD MSTORE PUSH1 0x1 PUSH1 0x1 PUSH1 0x80 SHL SUB SWAP1 DUP2 AND PUSH1 0x88 DUP6 ADD MSTORE SWAP1 SWAP5 AND PUSH1 0xA8 DUP4 ADD MSTORE PUSH1 0x1 PUSH1 0x1 PUSH1 0x40 SHL SUB TIMESTAMP AND PUSH1 0xC8 DUP4 ADD MSTORE MLOAD SWAP3 SWAP1 SWAP4 AND SWAP3 SWAP1 SWAP2 DUP8 SWAP2 PUSH32 0x9577941D28FFF863BFBEE4694A6A4A56FB09E169619189D2EAA750B5B4819995 SWAP2 SWAP1 DUP2 SWAP1 SUB PUSH1 0xE8 ADD SWAP1 LOG4 POP POP PUSH1 0x3 DUP1 SLOAD PUSH1 0xFF NOT AND SWAP1 SSTORE POP PUSH1 0x1 SWAP2 SWAP1 POP JUMP JUMPDEST PUSH1 0x0 DUP1 PUSH1 0x0 DUP1 PUSH1 0x0 JUMPDEST PUSH1 0x1 PUSH1 0x1 PUSH1 0xA0 SHL SUB DUP1 DUP10 AND PUSH1 0x0 SWAP1 DUP2 MSTORE PUSH1 0x7 PUSH1 0x20 SWAP1 DUP2 MSTORE PUSH1 0x40 DUP1 DUP4 KECCAK256 SWAP4 DUP15 AND DUP4 MSTORE SWAP3 SWAP1 MSTORE KECCAK256 SLOAD ISZERO PUSH2 0x2FBE JUMPI POP POP PUSH1 0x1 PUSH1 0x1 PUSH1 0xA0 SHL SUB DUP1 DUP8 AND PUSH1 0x0 SWAP1 DUP2 MSTORE PUSH1 0x7 PUSH1 0x20 SWAP1 DUP2 MSTORE PUSH1 0x40 DUP1 DUP4 KECCAK256 SWAP4 DUP13 AND DUP4 MSTORE SWAP3 DUP2 MSTORE DUP3 DUP3 KECCAK256 SLOAD DUP1 DUP4 MSTORE PUSH1 0x2 SWAP2 DUP3 SWAP1 MSTORE SWAP3 SWAP1 SWAP2 KECCAK256 SWAP1 DUP2 ADD SLOAD SWAP1 SLOAD SWAP2 SWAP4 POP SWAP1 DUP6 PUSH2 0x2F3B JUMPI PUSH1 0x0 PUSH2 0x2F43 JUMP JUMPDEST DUP1 DUP12 DUP11 DUP5 ADD ADD ADD JUMPDEST PUSH2 0x2F4D DUP13 DUP4 PUSH2 0x3B93 JUMP JUMPDEST ADD PUSH2 0x2F58 DUP4 DUP12 PUSH2 0x3B93 JUMP JUMPDEST GT ISZERO PUSH2 0x2F63 JUMPI PUSH2 0x2FBE JUMP JUMPDEST PUSH2 0x2F76 DUP5 PUSH2 0x2F71 DUP4 DUP13 PUSH2 0x3D4C JUMP JUMPDEST PUSH2 0x1FBD JUMP JUMPDEST POP DUP9 SWAP3 POP PUSH2 0x2F8D DUP10 PUSH2 0x2F88 DUP4 DUP13 PUSH2 0x3D4C JUMP JUMPDEST PUSH2 0x25CB JUMP JUMPDEST SWAP9 POP DUP3 PUSH2 0x2F9A DUP11 DUP14 PUSH2 0x3B93 JUMP JUMPDEST DUP2 PUSH2 0x2FA1 JUMPI INVALID JUMPDEST DIV SWAP11 POP DUP11 ISZERO DUP1 PUSH2 0x2FAF JUMPI POP DUP9 ISZERO JUMPDEST ISZERO PUSH2 0x2FB9 JUMPI PUSH2 0x2FBE JUMP JUMPDEST PUSH2 0x2EC3 JUMP JUMPDEST PUSH1 0x0 DUP10 GT DUP1 ISZERO PUSH2 0x2FCE JUMPI POP PUSH1 0x0 DUP12 GT JUMPDEST DUP1 ISZERO PUSH2 0x2FF2 JUMPI POP PUSH1 0x1 PUSH1 0x1 PUSH1 0xA0 SHL SUB DUP11 AND PUSH1 0x0 SWAP1 DUP2 MSTORE PUSH1 0x9 PUSH1 0x20 MSTORE PUSH1 0x40 SWAP1 KECCAK256 SLOAD DUP12 LT ISZERO JUMPDEST ISZERO PUSH2 0x300F JUMPI PUSH2 0x3003 DUP12 DUP12 DUP12 DUP12 PUSH2 0x301D JUMP JUMPDEST SWAP5 POP PUSH2 0x300F DUP6 DUP9 PUSH2 0x2752 JUMP JUMPDEST POP POP POP POP SWAP7 SWAP6 POP POP POP POP POP POP JUMP JUMPDEST PUSH1 0x0 PUSH2 0x3027 PUSH2 0x1E20 JUMP JUMPDEST ISZERO PUSH2 0x3031 JUMPI PUSH1 0x0 DUP1 REVERT JUMPDEST PUSH1 0x3 SLOAD PUSH1 0xFF AND ISZERO PUSH2 0x3041 JUMPI PUSH1 0x0 DUP1 REVERT JUMPDEST PUSH1 0x3 DUP1 SLOAD PUSH1 0xFF NOT AND PUSH1 0x1 OR SWAP1 SSTORE PUSH1 0x1 PUSH1 0x1 PUSH1 0x80 SHL SUB DUP6 AND DUP6 EQ PUSH2 0x3063 JUMPI PUSH1 0x0 DUP1 REVERT JUMPDEST DUP3 DUP4 PUSH1 0x1 PUSH1 0x1 PUSH1 0x80 SHL SUB AND EQ PUSH2 0x3078 JUMPI PUSH1 0x0 DUP1 REVERT JUMPDEST PUSH1 0x0 DUP6 GT PUSH2 0x3085 JUMPI PUSH1 0x0 DUP1 REVERT JUMPDEST PUSH1 0x1 PUSH1 0x1 PUSH1 0xA0 SHL SUB DUP5 AND PUSH2 0x3098 JUMPI PUSH1 0x0 DUP1 REVERT JUMPDEST PUSH1 0x0 DUP4 GT PUSH2 0x30A5 JUMPI PUSH1 0x0 DUP1 REVERT JUMPDEST PUSH1 0x1 PUSH1 0x1 PUSH1 0xA0 SHL SUB DUP3 AND PUSH2 0x30B8 JUMPI PUSH1 0x0 DUP1 REVERT JUMPDEST DUP2 PUSH1 0x1 PUSH1 0x1 PUSH1 0xA0 SHL SUB AND DUP5 PUSH1 0x1 PUSH1 0x1 PUSH1 0xA0 SHL SUB AND EQ ISZERO PUSH2 0x30D7 JUMPI PUSH1 0x0 DUP1 REVERT JUMPDEST PUSH2 0x30DF PUSH2 0x3DC4 JUMP JUMPDEST DUP6 DUP2 MSTORE PUSH1 0x1 PUSH1 0x1 PUSH1 0xA0 SHL SUB DUP1 DUP7 AND PUSH1 0x20 DUP4 ADD MSTORE PUSH1 0x40 DUP3 ADD DUP6 SWAP1 MSTORE DUP4 AND PUSH1 0x60 DUP3 ADD MSTORE CALLER PUSH1 0x80 DUP3 ADD MSTORE PUSH1 0x1 PUSH1 0x1 PUSH1 0x40 SHL SUB TIMESTAMP AND PUSH1 0xA0 DUP3 ADD MSTORE PUSH2 0x311D PUSH2 0x3D63 JUMP JUMPDEST PUSH1 0x0 DUP2 DUP2 MSTORE PUSH1 0x2 PUSH1 0x20 DUP2 DUP2 MSTORE PUSH1 0x40 DUP1 DUP5 KECCAK256 DUP7 MLOAD DUP2 SSTORE DUP3 DUP8 ADD MLOAD PUSH1 0x1 DUP3 ADD DUP1 SLOAD PUSH1 0x1 PUSH1 0x1 PUSH1 0xA0 SHL SUB SWAP3 DUP4 AND PUSH1 0x1 PUSH1 0x1 PUSH1 0xA0 SHL SUB NOT SWAP2 DUP3 AND OR SWAP1 SWAP2 SSTORE DUP4 DUP10 ADD MLOAD SWAP6 DUP4 ADD SWAP6 SWAP1 SWAP6 SSTORE PUSH1 0x60 DUP9 ADD MLOAD PUSH1 0x3 DUP4 ADD DUP1 SLOAD SWAP2 DUP4 AND SWAP2 DUP8 AND SWAP2 SWAP1 SWAP2 OR SWAP1 SSTORE PUSH1 0x80 DUP9 ADD MLOAD PUSH1 0x4 SWAP3 DUP4 ADD DUP1 SLOAD PUSH1 0xA0 DUP12 ADD MLOAD PUSH1 0x1 PUSH1 0x1 PUSH1 0x40 SHL SUB AND PUSH1 0x1 PUSH1 0xA0 SHL MUL PUSH8 0xFFFFFFFFFFFFFFFF PUSH1 0xA0 SHL NOT SWAP4 DUP6 AND SWAP2 SWAP1 SWAP9 AND OR SWAP2 SWAP1 SWAP2 AND SWAP6 SWAP1 SWAP6 OR SWAP1 SWAP5 SSTORE DUP2 MLOAD PUSH4 0x23B872DD PUSH1 0xE0 SHL DUP2 MSTORE CALLER SWAP2 DUP2 ADD SWAP2 SWAP1 SWAP2 MSTORE ADDRESS PUSH1 0x24 DUP3 ADD MSTORE PUSH1 0x44 DUP2 ADD DUP13 SWAP1 MSTORE SWAP1 MLOAD SWAP5 SWAP7 POP SWAP2 DUP10 AND SWAP4 PUSH4 0x23B872DD SWAP4 PUSH1 0x64 DUP1 DUP6 ADD SWAP5 DUP4 SWAP1 SUB ADD SWAP1 DUP3 SWAP1 DUP8 DUP1 EXTCODESIZE ISZERO DUP1 ISZERO PUSH2 0x3205 JUMPI PUSH1 0x0 DUP1 REVERT JUMPDEST POP GAS CALL ISZERO DUP1 ISZERO PUSH2 0x3219 JUMPI RETURNDATASIZE PUSH1 0x0 DUP1 RETURNDATACOPY RETURNDATASIZE PUSH1 0x0 REVERT JUMPDEST POP POP POP POP PUSH1 0x40 MLOAD RETURNDATASIZE PUSH1 0x20 DUP2 LT ISZERO PUSH2 0x322F JUMPI PUSH1 0x0 DUP1 REVERT JUMPDEST POP MLOAD PUSH2 0x323A JUMPI PUSH1 0x0 DUP1 REVERT JUMPDEST PUSH1 0x40 DUP1 MLOAD DUP4 DUP2 MSTORE SWAP1 MLOAD PUSH32 0xA2C251311B1A7A475913900A2A73DC9789A21B04BC737E050BBC506DD4EB3488 SWAP2 DUP2 SWAP1 SUB PUSH1 0x20 ADD SWAP1 LOG1 PUSH1 0x40 DUP1 MLOAD PUSH1 0x1 PUSH1 0x1 PUSH1 0x60 SHL SUB NOT PUSH1 0x60 DUP9 DUP2 SHL DUP3 AND PUSH1 0x20 DUP1 DUP6 ADD SWAP2 SWAP1 SWAP2 MSTORE SWAP1 DUP8 SWAP1 SHL SWAP1 SWAP2 AND PUSH1 0x34 DUP4 ADD MSTORE DUP3 MLOAD PUSH1 0x28 DUP2 DUP5 SUB ADD DUP2 MSTORE PUSH1 0x48 DUP4 ADD DUP1 DUP6 MSTORE DUP2 MLOAD SWAP2 SWAP1 SWAP3 ADD KECCAK256 PUSH1 0x1 PUSH1 0x1 PUSH1 0xA0 SHL SUB DUP10 DUP2 AND SWAP1 SWAP3 MSTORE SWAP1 DUP7 AND PUSH1 0x68 DUP4 ADD MSTORE PUSH1 0x1 PUSH1 0x1 PUSH1 0x80 SHL SUB DUP1 DUP11 AND PUSH1 0x88 DUP5 ADD MSTORE DUP8 AND PUSH1 0xA8 DUP4 ADD MSTORE PUSH1 0x1 PUSH1 0x1 PUSH1 0x40 SHL SUB TIMESTAMP AND PUSH1 0xC8 DUP4 ADD MSTORE SWAP2 MLOAD CALLER SWAP3 SWAP2 DUP6 SWAP2 PUSH32 0x773FF502687307ABFA024AC9F62F9752A0D210DAC2FFD9A29E38E12E2EA82C82 SWAP2 DUP2 SWAP1 SUB PUSH1 0xE8 ADD SWAP1 LOG4 POP PUSH1 0x3 DUP1 SLOAD PUSH1 0xFF NOT AND SWAP1 SSTORE SWAP5 SWAP4 POP POP POP POP JUMP JUMPDEST PUSH1 0x0 DUP3 PUSH2 0x333A DUP2 PUSH2 0x19CD JUMP JUMPDEST PUSH2 0x3343 JUMPI PUSH1 0x0 DUP1 REVERT JUMPDEST PUSH2 0x334B PUSH2 0x1E20 JUMP JUMPDEST ISZERO PUSH2 0x3355 JUMPI PUSH1 0x0 DUP1 REVERT JUMPDEST PUSH1 0x3 SLOAD PUSH1 0xFF AND ISZERO PUSH2 0x3365 JUMPI PUSH1 0x0 DUP1 REVERT JUMPDEST PUSH1 0x3 DUP1 SLOAD PUSH1 0xFF NOT AND PUSH1 0x1 OR SWAP1 SSTORE PUSH2 0x337A PUSH2 0x3DC4 JUMP JUMPDEST POP PUSH1 0x0 DUP5 DUP2 MSTORE PUSH1 0x2 PUSH1 0x20 DUP2 DUP2 MSTORE PUSH1 0x40 DUP1 DUP5 KECCAK256 DUP2 MLOAD PUSH1 0xC0 DUP2 ADD DUP4 MSTORE DUP2 SLOAD DUP1 DUP3 MSTORE PUSH1 0x1 DUP4 ADD SLOAD PUSH1 0x1 PUSH1 0x1 PUSH1 0xA0 SHL SUB SWAP1 DUP2 AND SWAP6 DUP4 ADD SWAP6 SWAP1 SWAP6 MSTORE SWAP5 DUP3 ADD SLOAD SWAP3 DUP2 ADD DUP4 SWAP1 MSTORE PUSH1 0x3 DUP3 ADD SLOAD DUP5 AND PUSH1 0x60 DUP3 ADD MSTORE PUSH1 0x4 SWAP1 SWAP2 ADD SLOAD SWAP3 DUP4 AND PUSH1 0x80 DUP3 ADD MSTORE PUSH1 0x1 PUSH1 0xA0 SHL SWAP1 SWAP3 DIV PUSH1 0x1 PUSH1 0x1 PUSH1 0x40 SHL SUB AND PUSH1 0xA0 DUP4 ADD MSTORE SWAP1 SWAP3 SWAP2 SWAP1 PUSH2 0x33F9 SWAP1 DUP8 SWAP1 PUSH2 0x3B93 JUMP JUMPDEST DUP2 PUSH2 0x3400 JUMPI INVALID JUMPDEST DIV SWAP1 POP DUP1 DUP2 PUSH1 0x1 PUSH1 0x1 PUSH1 0x80 SHL SUB AND EQ PUSH2 0x3456 JUMPI PUSH1 0x40 DUP1 MLOAD PUSH3 0x461BCD PUSH1 0xE5 SHL DUP2 MSTORE PUSH1 0x20 PUSH1 0x4 DUP3 ADD MSTORE PUSH1 0x13 PUSH1 0x24 DUP3 ADD MSTORE PUSH19 0x1CDC195B99081A5CC81B9BDD08185B881A5B9D PUSH1 0x6A SHL PUSH1 0x44 DUP3 ADD MSTORE SWAP1 MLOAD SWAP1 DUP2 SWAP1 SUB PUSH1 0x64 ADD SWAP1 REVERT JUMPDEST DUP5 DUP6 PUSH1 0x1 PUSH1 0x1 PUSH1 0x80 SHL SUB AND EQ PUSH2 0x34AC JUMPI PUSH1 0x40 DUP1 MLOAD PUSH3 0x461BCD PUSH1 0xE5 SHL DUP2 MSTORE PUSH1 0x20 PUSH1 0x4 DUP3 ADD MSTORE PUSH1 0x16 PUSH1 0x24 DUP3 ADD MSTORE PUSH22 0x1C5D585B9D1A5D1E481A5CC81B9BDD08185B881A5B9D PUSH1 0x52 SHL PUSH1 0x44 DUP3 ADD MSTORE SWAP1 MLOAD SWAP1 DUP2 SWAP1 SUB PUSH1 0x64 ADD SWAP1 REVERT JUMPDEST DUP5 ISZERO DUP1 PUSH2 0x34B7 JUMPI POP DUP1 ISZERO JUMPDEST DUP1 PUSH2 0x34C2 JUMPI POP DUP2 MLOAD DUP6 GT JUMPDEST DUP1 PUSH2 0x34D0 JUMPI POP DUP2 PUSH1 0x40 ADD MLOAD DUP2 GT JUMPDEST ISZERO PUSH2 0x34E0 JUMPI PUSH1 0x0 SWAP4 POP POP POP PUSH2 0x3A2D JUMP JUMPDEST PUSH1 0x0 PUSH2 0x2710 PUSH2 0x34F1 DUP4 PUSH1 0x4 SLOAD PUSH2 0x3B93 JUMP JUMPDEST DUP2 PUSH2 0x34F8 JUMPI INVALID JUMPDEST PUSH1 0x60 DUP6 ADD MLOAD PUSH1 0x5 SLOAD PUSH1 0x40 DUP1 MLOAD PUSH4 0x23B872DD PUSH1 0xE0 SHL DUP2 MSTORE CALLER PUSH1 0x4 DUP3 ADD MSTORE PUSH1 0x1 PUSH1 0x1 PUSH1 0xA0 SHL SUB SWAP3 DUP4 AND PUSH1 0x24 DUP3 ADD MSTORE SWAP5 SWAP1 SWAP4 DIV PUSH1 0x44 DUP6 ADD DUP2 SWAP1 MSTORE SWAP3 MLOAD SWAP3 SWAP5 POP AND SWAP2 PUSH4 0x23B872DD SWAP2 PUSH1 0x64 DUP1 DUP4 ADD SWAP3 PUSH1 0x20 SWAP3 SWAP2 SWAP1 DUP3 SWAP1 SUB ADD DUP2 PUSH1 0x0 DUP8 DUP1 EXTCODESIZE ISZERO DUP1 ISZERO PUSH2 0x355D JUMPI PUSH1 0x0 DUP1 REVERT JUMPDEST POP GAS CALL ISZERO DUP1 ISZERO PUSH2 0x3571 JUMPI RETURNDATASIZE PUSH1 0x0 DUP1 RETURNDATACOPY RETURNDATASIZE PUSH1 0x0 REVERT JUMPDEST POP POP POP POP PUSH1 0x40 MLOAD RETURNDATASIZE PUSH1 0x20 DUP2 LT ISZERO PUSH2 0x3587 JUMPI PUSH1 0x0 DUP1 REVERT JUMPDEST POP MLOAD PUSH2 0x35DA JUMPI PUSH1 0x40 DUP1 MLOAD PUSH3 0x461BCD PUSH1 0xE5 SHL DUP2 MSTORE PUSH1 0x20 PUSH1 0x4 DUP3 ADD MSTORE PUSH1 0x1F PUSH1 0x24 DUP3 ADD MSTORE PUSH32 0x496E73756666696369656E742066756E647320746F20636F7665722066656500 PUSH1 0x44 DUP3 ADD MSTORE SWAP1 MLOAD SWAP1 DUP2 SWAP1 SUB PUSH1 0x64 ADD SWAP1 REVERT JUMPDEST DUP3 MLOAD PUSH2 0x35E6 SWAP1 DUP8 PUSH2 0x25CB JUMP JUMPDEST PUSH1 0x0 DUP9 DUP2 MSTORE PUSH1 0x2 PUSH1 0x20 MSTORE PUSH1 0x40 SWAP1 DUP2 SWAP1 KECCAK256 SWAP2 SWAP1 SWAP2 SSTORE DUP4 ADD MLOAD PUSH2 0x3607 SWAP1 DUP4 PUSH2 0x25CB JUMP JUMPDEST PUSH1 0x0 DUP9 DUP2 MSTORE PUSH1 0x2 PUSH1 0x20 DUP2 DUP2 MSTORE PUSH1 0x40 DUP1 DUP5 KECCAK256 SWAP1 SWAP3 ADD SWAP4 SWAP1 SWAP4 SSTORE PUSH1 0x60 DUP7 ADD MLOAD PUSH1 0x80 DUP8 ADD MLOAD DUP3 MLOAD PUSH4 0x23B872DD PUSH1 0xE0 SHL DUP2 MSTORE CALLER PUSH1 0x4 DUP3 ADD MSTORE PUSH1 0x1 PUSH1 0x1 PUSH1 0xA0 SHL SUB SWAP2 DUP3 AND PUSH1 0x24 DUP3 ADD MSTORE PUSH1 0x44 DUP2 ADD DUP9 SWAP1 MSTORE SWAP3 MLOAD SWAP2 AND SWAP4 PUSH4 0x23B872DD SWAP4 PUSH1 0x64 DUP1 DUP6 ADD SWAP5 SWAP3 SWAP4 SWAP3 DUP4 SWAP1 SUB ADD SWAP1 DUP3 SWAP1 DUP8 DUP1 EXTCODESIZE ISZERO DUP1 ISZERO PUSH2 0x367C JUMPI PUSH1 0x0 DUP1 REVERT JUMPDEST POP GAS CALL ISZERO DUP1 ISZERO PUSH2 0x3690 JUMPI RETURNDATASIZE PUSH1 0x0 DUP1 RETURNDATACOPY RETURNDATASIZE PUSH1 0x0 REVERT JUMPDEST POP POP POP POP PUSH1 0x40 MLOAD RETURNDATASIZE PUSH1 0x20 DUP2 LT ISZERO PUSH2 0x36A6 JUMPI PUSH1 0x0 DUP1 REVERT JUMPDEST POP MLOAD PUSH2 0x36E3 JUMPI PUSH1 0x40 MLOAD PUSH3 0x461BCD PUSH1 0xE5 SHL DUP2 MSTORE PUSH1 0x4 ADD DUP1 DUP1 PUSH1 0x20 ADD DUP3 DUP2 SUB DUP3 MSTORE PUSH1 0x41 DUP2 MSTORE PUSH1 0x20 ADD DUP1 PUSH2 0x3DFC PUSH1 0x41 SWAP2 CODECOPY PUSH1 0x60 ADD SWAP2 POP POP PUSH1 0x40 MLOAD DUP1 SWAP2 SUB SWAP1 REVERT JUMPDEST PUSH1 0x20 DUP1 DUP5 ADD MLOAD PUSH1 0x40 DUP1 MLOAD PUSH4 0xA9059CBB PUSH1 0xE0 SHL DUP2 MSTORE CALLER PUSH1 0x4 DUP3 ADD MSTORE PUSH1 0x24 DUP2 ADD DUP11 SWAP1 MSTORE SWAP1 MLOAD PUSH1 0x1 PUSH1 0x1 PUSH1 0xA0 SHL SUB SWAP1 SWAP3 AND SWAP3 PUSH4 0xA9059CBB SWAP3 PUSH1 0x44 DUP1 DUP5 ADD SWAP4 DUP3 SWAP1 SUB ADD DUP2 PUSH1 0x0 DUP8 DUP1 EXTCODESIZE ISZERO DUP1 ISZERO PUSH2 0x3734 JUMPI PUSH1 0x0 DUP1 REVERT JUMPDEST POP GAS CALL ISZERO DUP1 ISZERO PUSH2 0x3748 JUMPI RETURNDATASIZE PUSH1 0x0 DUP1 RETURNDATACOPY RETURNDATASIZE PUSH1 0x0 REVERT JUMPDEST POP POP POP POP PUSH1 0x40 MLOAD RETURNDATASIZE PUSH1 0x20 DUP2 LT ISZERO PUSH2 0x375E JUMPI PUSH1 0x0 DUP1 REVERT JUMPDEST POP MLOAD PUSH2 0x379B JUMPI PUSH1 0x40 MLOAD PUSH3 0x461BCD PUSH1 0xE5 SHL DUP2 MSTORE PUSH1 0x4 ADD DUP1 DUP1 PUSH1 0x20 ADD DUP3 DUP2 SUB DUP3 MSTORE PUSH1 0x33 DUP2 MSTORE PUSH1 0x20 ADD DUP1 PUSH2 0x3E5D PUSH1 0x33 SWAP2 CODECOPY PUSH1 0x40 ADD SWAP2 POP POP PUSH1 0x40 MLOAD DUP1 SWAP2 SUB SWAP1 REVERT JUMPDEST PUSH1 0x40 DUP1 MLOAD DUP9 DUP2 MSTORE SWAP1 MLOAD PUSH32 0xA2C251311B1A7A475913900A2A73DC9789A21B04BC737E050BBC506DD4EB3488 SWAP2 DUP2 SWAP1 SUB PUSH1 0x20 ADD SWAP1 LOG1 PUSH1 0x80 DUP4 ADD MLOAD PUSH1 0x20 DUP1 DUP6 ADD DUP1 MLOAD PUSH1 0x60 DUP1 DUP9 ADD DUP1 MLOAD PUSH1 0x40 DUP1 MLOAD PUSH1 0x1 PUSH1 0x1 PUSH1 0x60 SHL SUB NOT SWAP6 DUP6 SHL DUP7 AND DUP2 DUP10 ADD MSTORE SWAP2 SWAP1 SWAP4 SHL SWAP1 SWAP4 AND PUSH1 0x34 DUP5 ADD MSTORE DUP2 MLOAD PUSH1 0x28 DUP2 DUP6 SUB ADD DUP2 MSTORE PUSH1 0x48 DUP5 ADD DUP1 DUP5 MSTORE DUP2 MLOAD SWAP2 SWAP1 SWAP7 ADD KECCAK256 SWAP4 MLOAD SWAP1 MLOAD SWAP5 DUP14 SWAP1 MSTORE PUSH1 0x1 PUSH1 0x1 PUSH1 0xA0 SHL SUB SWAP1 DUP2 AND PUSH1 0x68 DUP5 ADD MSTORE SWAP4 DUP5 AND PUSH1 0x88 DUP4 ADD MSTORE PUSH1 0x1 PUSH1 0x1 PUSH1 0x80 SHL SUB DUP1 DUP13 AND PUSH1 0xA8 DUP5 ADD MSTORE DUP8 AND PUSH1 0xC8 DUP4 ADD MSTORE PUSH1 0x1 PUSH1 0x1 PUSH1 0x40 SHL SUB TIMESTAMP AND PUSH1 0xE8 DUP4 ADD MSTORE MLOAD CALLER SWAP5 SWAP1 SWAP4 AND SWAP3 PUSH32 0x3383E3357C77FD2E3A4B30DEEA81179BC70A795D053D14D5B7F2F01D0FD4596F SWAP2 DUP2 SWAP1 SUB PUSH2 0x108 ADD SWAP1 LOG4 PUSH1 0x80 DUP4 ADD MLOAD PUSH1 0x20 DUP1 DUP6 ADD DUP1 MLOAD PUSH1 0x60 DUP1 DUP9 ADD DUP1 MLOAD PUSH1 0x40 DUP1 MLOAD PUSH1 0x1 PUSH1 0x1 PUSH1 0x60 SHL SUB NOT SWAP6 DUP6 SHL DUP7 AND DUP2 DUP10 ADD MSTORE SWAP2 SWAP1 SWAP4 SHL SWAP1 SWAP4 AND PUSH1 0x34 DUP5 ADD MSTORE DUP2 MLOAD PUSH1 0x28 DUP2 DUP6 SUB ADD DUP2 MSTORE PUSH1 0x48 DUP5 ADD DUP1 DUP5 MSTORE DUP2 MLOAD SWAP2 SWAP1 SWAP7 ADD KECCAK256 SWAP4 MLOAD SWAP1 MLOAD PUSH1 0x5 SLOAD SWAP6 DUP15 SWAP1 MSTORE PUSH1 0x1 PUSH1 0x1 PUSH1 0xA0 SHL SUB SWAP2 DUP3 AND PUSH1 0x68 DUP6 ADD MSTORE DUP2 AND PUSH1 0x88 DUP5 ADD MSTORE PUSH1 0x1 PUSH1 0x1 PUSH1 0x80 SHL SUB DUP1 DUP14 AND PUSH1 0xA8 DUP6 ADD MSTORE DUP9 AND PUSH1 0xC8 DUP5 ADD MSTORE PUSH1 0xE8 DUP4 ADD DUP8 SWAP1 MSTORE SWAP4 DUP5 AND PUSH2 0x108 DUP4 ADD MSTORE PUSH1 0x1 PUSH1 0x1 PUSH1 0x40 SHL SUB TIMESTAMP AND PUSH2 0x128 DUP4 ADD MSTORE MLOAD CALLER SWAP5 SWAP1 SWAP4 AND SWAP3 PUSH32 0xAE463BEEED705BDBA735CC0F80A21BC43E39FA85611FBCEB6E509CA190CC6E2 SWAP2 DUP2 SWAP1 SUB PUSH2 0x148 ADD SWAP1 LOG4 DUP3 PUSH1 0x60 ADD MLOAD PUSH1 0x1 PUSH1 0x1 PUSH1 0xA0 SHL SUB AND DUP4 PUSH1 0x20 ADD MLOAD PUSH1 0x1 PUSH1 0x1 PUSH1 0xA0 SHL SUB AND PUSH32 0x819E390338FEFFE95E2DE57172D6FAF337853DFD15C7A09A32D76F7FD2443875 DUP9 DUP6 PUSH1 0x40 MLOAD DUP1 DUP4 DUP2 MSTORE PUSH1 0x20 ADD DUP3 DUP2 MSTORE PUSH1 0x20 ADD SWAP3 POP POP POP PUSH1 0x40 MLOAD DUP1 SWAP2 SUB SWAP1 LOG3 PUSH1 0x0 DUP8 DUP2 MSTORE PUSH1 0x2 PUSH1 0x20 MSTORE PUSH1 0x40 SWAP1 KECCAK256 SLOAD PUSH2 0x3A25 JUMPI PUSH1 0x0 DUP8 DUP2 MSTORE PUSH1 0x2 PUSH1 0x20 DUP2 SWAP1 MSTORE PUSH1 0x40 DUP3 KECCAK256 DUP3 DUP2 SSTORE PUSH1 0x1 DUP2 ADD DUP1 SLOAD PUSH1 0x1 PUSH1 0x1 PUSH1 0xA0 SHL SUB NOT SWAP1 DUP2 AND SWAP1 SWAP2 SSTORE SWAP2 DUP2 ADD SWAP3 SWAP1 SWAP3 SSTORE PUSH1 0x3 DUP3 ADD DUP1 SLOAD SWAP1 SWAP2 AND SWAP1 SSTORE PUSH1 0x4 ADD DUP1 SLOAD PUSH1 0x1 PUSH1 0x1 PUSH1 0xE0 SHL SUB NOT AND SWAP1 SSTORE JUMPDEST PUSH1 0x1 SWAP5 POP POP POP POP JUMPDEST POP PUSH1 0x3 DUP1 SLOAD PUSH1 0xFF NOT AND SWAP1 SSTORE SWAP3 SWAP2 POP POP JUMP JUMPDEST PUSH1 0x5 SLOAD PUSH1 0x0 SWAP1 PUSH1 0x1 PUSH1 0xE8 SHL SWAP1 DIV PUSH1 0xFF AND PUSH2 0x3A57 JUMPI PUSH1 0x0 DUP1 REVERT JUMPDEST PUSH1 0x0 DUP4 DUP2 MSTORE PUSH1 0x2 PUSH1 0x20 MSTORE PUSH1 0x40 SWAP1 KECCAK256 SLOAD DUP3 EQ ISZERO PUSH2 0x3A95 JUMPI PUSH2 0x3A76 DUP4 PUSH2 0x1EA0 JUMP JUMPDEST ISZERO PUSH2 0x3A8A JUMPI PUSH2 0x3A84 DUP4 PUSH2 0x28F1 JUMP JUMPDEST POP PUSH2 0x3A95 JUMP JUMPDEST PUSH2 0x3A93 DUP4 PUSH2 0x26A8 JUMP JUMPDEST POP JUMPDEST PUSH2 0x3A9F DUP4 DUP4 PUSH2 0x332E JUMP JUMPDEST PUSH2 0x3AA8 JUMPI PUSH1 0x0 DUP1 REVERT JUMPDEST PUSH2 0x3AB1 DUP4 PUSH2 0x19CD JUMP JUMPDEST DUP1 ISZERO PUSH2 0x3AEB JUMPI POP PUSH1 0x0 DUP4 DUP2 MSTORE PUSH1 0x2 PUSH1 0x20 DUP2 DUP2 MSTORE PUSH1 0x40 DUP1 DUP5 KECCAK256 PUSH1 0x1 DUP2 ADD SLOAD PUSH1 0x1 PUSH1 0x1 PUSH1 0xA0 SHL SUB AND DUP6 MSTORE PUSH1 0x9 DUP4 MSTORE SWAP1 DUP5 KECCAK256 SLOAD SWAP4 DUP8 SWAP1 MSTORE SWAP2 SWAP1 MSTORE SLOAD LT JUMPDEST ISZERO PUSH2 0x3B00 JUMPI PUSH1 0xC DUP4 SWAP1 SSTORE PUSH2 0x3AFE DUP4 PUSH2 0x1333 JUMP JUMPDEST POP JUMPDEST POP PUSH1 0x1 SWAP3 SWAP2 POP POP JUMP JUMPDEST PUSH1 0x1 PUSH1 0x1 PUSH1 0xA0 SHL SUB DUP4 AND PUSH1 0x0 SWAP1 DUP2 MSTORE PUSH1 0x9 PUSH1 0x20 MSTORE PUSH1 0x40 DUP2 KECCAK256 SLOAD DUP6 LT ISZERO PUSH2 0x3B2E JUMPI PUSH1 0x0 DUP1 REVERT JUMPDEST PUSH2 0x3B3A DUP6 DUP6 DUP6 DUP6 PUSH2 0x301D JUMP JUMPDEST PUSH1 0xB DUP1 SLOAD PUSH1 0x0 DUP4 DUP2 MSTORE PUSH1 0xA PUSH1 0x20 SWAP1 DUP2 MSTORE PUSH1 0x40 SWAP2 DUP3 SWAP1 KECCAK256 SWAP3 SWAP1 SWAP3 SSTORE SWAP2 DUP4 SWAP1 SSTORE DUP2 MLOAD DUP4 DUP2 MSTORE SWAP2 MLOAD SWAP3 SWAP4 POP PUSH32 0x8173832A493E0A3989E521458E55BFE9FEAC9F9B675A94E100B9D5A85F814862 SWAP3 SWAP2 DUP3 SWAP1 SUB ADD SWAP1 LOG1 SWAP5 SWAP4 POP POP POP POP JUMP JUMPDEST PUSH1 0x0 DUP2 ISZERO DUP1 PUSH2 0x3BAE JUMPI POP POP DUP1 DUP3 MUL DUP3 DUP3 DUP3 DUP2 PUSH2 0x3BAB JUMPI INVALID JUMPDEST DIV EQ JUMPDEST PUSH2 0xDFD JUMPI PUSH1 0x40 DUP1 MLOAD PUSH3 0x461BCD PUSH1 0xE5 SHL DUP2 MSTORE PUSH1 0x20 PUSH1 0x4 DUP3 ADD MSTORE PUSH1 0x14 PUSH1 0x24 DUP3 ADD MSTORE PUSH20 0x64732D6D6174682D6D756C2D6F766572666C6F77 PUSH1 0x60 SHL PUSH1 0x44 DUP3 ADD MSTORE SWAP1 MLOAD SWAP1 DUP2 SWAP1 SUB PUSH1 0x64 ADD SWAP1 REVERT JUMPDEST PUSH1 0x0 DUP1 DUP4 GT PUSH2 0x3C04 JUMPI PUSH1 0x0 DUP1 REVERT JUMPDEST DUP2 ISZERO DUP1 ISZERO SWAP1 PUSH2 0x3C19 JUMPI POP PUSH2 0x3C17 DUP3 PUSH2 0x19CD JUMP JUMPDEST ISZERO JUMPDEST ISZERO PUSH2 0x3C37 JUMPI PUSH1 0x0 SWAP2 DUP3 MSTORE PUSH1 0x6 PUSH1 0x20 MSTORE PUSH1 0x40 SWAP1 SWAP2 KECCAK256 PUSH1 0x1 ADD SLOAD SWAP1 PUSH2 0x3C04 JUMP JUMPDEST DUP2 PUSH2 0x3C4C JUMPI PUSH2 0x3C45 DUP4 PUSH2 0x3CC8 JUMP JUMPDEST SWAP1 POP PUSH2 0xDFD JUMP JUMPDEST PUSH2 0x3C56 DUP4 DUP4 PUSH2 0x3D70 JUMP JUMPDEST ISZERO PUSH2 0x3C90 JUMPI PUSH1 0x0 JUMPDEST DUP3 ISZERO DUP1 ISZERO SWAP1 PUSH2 0x3C72 JUMPI POP PUSH2 0x3C72 DUP5 DUP5 PUSH2 0x3D70 JUMP JUMPDEST ISZERO PUSH2 0x3C45 JUMPI POP PUSH1 0x0 DUP3 DUP2 MSTORE PUSH1 0x6 PUSH1 0x20 MSTORE PUSH1 0x40 SWAP1 KECCAK256 PUSH1 0x1 ADD SLOAD SWAP2 PUSH2 0x3C5E JUMP JUMPDEST DUP2 ISZERO DUP1 ISZERO SWAP1 PUSH2 0x3CA6 JUMPI POP PUSH2 0x3CA4 DUP4 DUP4 PUSH2 0x3D70 JUMP JUMPDEST ISZERO JUMPDEST ISZERO PUSH2 0x3CC1 JUMPI PUSH1 0x0 SWAP2 DUP3 MSTORE PUSH1 0x6 PUSH1 0x20 MSTORE PUSH1 0x40 SWAP1 SWAP2 KECCAK256 SLOAD SWAP1 PUSH2 0x3C90 JUMP JUMPDEST POP DUP1 PUSH2 0xDFD JUMP JUMPDEST PUSH1 0x0 DUP1 DUP3 GT PUSH2 0x3CD6 JUMPI PUSH1 0x0 DUP1 REVERT JUMPDEST PUSH1 0x0 DUP3 DUP2 MSTORE PUSH1 0x2 PUSH1 0x20 SWAP1 DUP2 MSTORE PUSH1 0x40 DUP1 DUP4 KECCAK256 PUSH1 0x3 DUP2 ADD SLOAD PUSH1 0x1 SWAP1 SWAP2 ADD SLOAD PUSH1 0x1 PUSH1 0x1 PUSH1 0xA0 SHL SUB SWAP1 DUP2 AND DUP1 DUP7 MSTORE PUSH1 0x7 DUP6 MSTORE DUP4 DUP7 KECCAK256 SWAP2 SWAP1 SWAP3 AND DUP1 DUP7 MSTORE SWAP4 MSTORE SWAP1 DUP4 KECCAK256 SLOAD SWAP2 SWAP3 SWAP1 SWAP2 SWAP1 JUMPDEST DUP2 ISZERO DUP1 ISZERO SWAP1 PUSH2 0x3D2E JUMPI POP PUSH2 0x3D2E DUP7 DUP4 PUSH2 0x3D70 JUMP JUMPDEST ISZERO PUSH2 0x1008 JUMPI POP PUSH1 0x0 DUP2 DUP2 MSTORE PUSH1 0x6 PUSH1 0x20 MSTORE PUSH1 0x40 SWAP1 KECCAK256 PUSH1 0x1 ADD SLOAD SWAP1 PUSH2 0x3D1A JUMP JUMPDEST PUSH1 0x0 DUP2 DUP4 GT ISZERO PUSH2 0x3D5C JUMPI DUP2 PUSH2 0x1485 JUMP JUMPDEST POP SWAP1 SWAP2 SWAP1 POP JUMP JUMPDEST PUSH1 0x1 DUP1 SLOAD DUP2 ADD SWAP1 DUP2 SWAP1 SSTORE SWAP1 JUMP JUMPDEST PUSH1 0x0 DUP2 DUP2 MSTORE PUSH1 0x2 PUSH1 0x20 DUP2 SWAP1 MSTORE PUSH1 0x40 DUP1 DUP4 KECCAK256 SWAP1 SWAP2 ADD SLOAD DUP5 DUP4 MSTORE SWAP1 DUP3 KECCAK256 SLOAD PUSH2 0x3D96 SWAP2 SWAP1 PUSH2 0x3B93 JUMP JUMPDEST PUSH1 0x0 DUP5 DUP2 MSTORE PUSH1 0x2 PUSH1 0x20 DUP2 SWAP1 MSTORE PUSH1 0x40 DUP1 DUP4 KECCAK256 SWAP1 SWAP2 ADD SLOAD DUP6 DUP4 MSTORE SWAP2 KECCAK256 SLOAD PUSH2 0x3DBB SWAP2 SWAP1 PUSH2 0x3B93 JUMP JUMPDEST LT ISZERO SWAP4 SWAP3 POP POP POP JUMP JUMPDEST PUSH1 0x40 DUP1 MLOAD PUSH1 0xC0 DUP2 ADD DUP3 MSTORE PUSH1 0x0 DUP1 DUP3 MSTORE PUSH1 0x20 DUP3 ADD DUP2 SWAP1 MSTORE SWAP2 DUP2 ADD DUP3 SWAP1 MSTORE PUSH1 0x60 DUP2 ADD DUP3 SWAP1 MSTORE PUSH1 0x80 DUP2 ADD DUP3 SWAP1 MSTORE PUSH1 0xA0 DUP2 ADD SWAP2 SWAP1 SWAP2 MSTORE SWAP1 JUMP JUMPDEST INVALID INVALID PUSH16 0x666665722E6275795F67656D2E747261 PUSH15 0x7366657246726F6D286D73672E7365 PUSH15 0x6465722C206F666665722E6F776E65 PUSH19 0x2C207370656E6429206661696C65645265656E PUSH21 0x72616E637920617474656D70740000000000000000 STOP STOP STOP STOP STOP STOP PUSH16 0x666665722E7061795F67656D2E747261 PUSH15 0x73666572286D73672E73656E646572 0x2C KECCAK256 PUSH18 0x75616E7469747929206661696C65644F6666 PUSH6 0x722077617320 PUSH5 0x656C657465 PUSH5 0x206F722074 PUSH2 0x6B65 PUSH15 0x2C206F72206E657665722065786973 PUSH21 0x65642E4F666665722063616E206E6F742062652063 PUSH2 0x6E63 PUSH6 0x6C6C65642062 PUSH6 0x636175736520 PUSH22 0x736572206973206E6F74206F776E65722C20616E6420 PUSH14 0x61726B6574206973206F70656E2C KECCAK256 PUSH2 0x6E64 KECCAK256 PUSH16 0x666665722073656C6C73207265717569 PUSH19 0x656420616D6F756E74206F6620746F6B656E73 0x2E PUSH5 0x732D617574 PUSH9 0x2D756E617574686F72 PUSH10 0x7A656400000000000000 STOP STOP STOP STOP STOP LOG2 PUSH6 0x627A7A723158 KECCAK256 SWAP9 EXP 0x29 0xB8 0xE0 DUP6 DUP11 MUL SWAP14 ORIGIN MSIZE JUMPI PUSH4 0x2882DE64 MULMOD SWAP10 PUSH15 0x34E6AA32B3A7AD3AF5E7874664736F PUSH13 0x63430005100032000000000000 "
        },
        "methodIdentifiers": {
          "AqueductAddress()": "6b9d8c4b",
          "AqueductDistributionLive()": "2f90a6fc",
          "WETHAddress()": "0af88b24",
          "_best(address,address)": "74c1d7d3",
          "_dust(address)": "91be90c8",
          "_near(uint256)": "a78d4316",
          "_rank(uint256)": "c2d526aa",
          "_span(address,address)": "677170e1",
          "bump(bytes32)": "779997c3",
          "buy(uint256,uint256)": "d6febde8",
          "buyAllAmount(address,uint256,address,uint256)": "8185402b",
          "buyEnabled()": "f582d293",
          "buyInETH(uint256)": "f057adbb",
          "cancel(uint256)": "40e58ee5",
          "close_time()": "6377ebca",
          "del_rank(uint256)": "467f0b7b",
          "dustId()": "56ad8764",
          "getBestOffer(address,address)": "0374fc6f",
          "getBetterOffer(uint256)": "911550f4",
          "getBuyAmount(address,address,uint256)": "144a2752",
          "getFirstUnsortedOffer()": "8af82a2e",
          "getMinSell(address)": "511fa487",
          "getNextUnsortedOffer(uint256)": "61f54a79",
          "getOffer(uint256)": "4579268a",
          "getOfferCount(address,address)": "7ca9429a",
          "getOwner(uint256)": "c41a360a",
          "getPayAmount(address,address,uint256)": "ff1fd974",
          "getTime()": "557ed1ba",
          "getWorseOffer(uint256)": "943911bc",
          "insert(uint256,uint256)": "1d834a1b",
          "isActive(uint256)": "82afd23b",
          "isClosed()": "c2b6b58c",
          "isOfferSorted(uint256)": "d2b420ce",
          "kill(bytes32)": "b4f9b6c8",
          "last_offer_id()": "232cae0b",
          "make(address,address,uint128,uint128)": "093f5198",
          "matchingEnabled()": "01492a0b",
          "offer(uint256,address,uint256,address)": "f09ea2a6",
          "offer(uint256,address,uint256,address,uint256)": "1b33d412",
          "offer(uint256,address,uint256,address,uint256,bool)": "e1a6f014",
          "offerInETH(uint256,address)": "b73b73fd",
          "offers(uint256)": "8a72ea6a",
          "owner()": "8da5cb5b",
          "sellAllAmount(address,uint256,address,uint256)": "0621b4f6",
          "setAqueductAddress(address)": "be71f5ce",
          "setAqueductDistributionLive(bool)": "a128171b",
          "setBuyEnabled(bool)": "d6f15469",
          "setFeeBPS(uint256)": "604b6a9c",
          "setFeeTo(address)": "f46901ed",
          "setMatchingEnabled(bool)": "2aed1905",
          "setMinSell(address,uint256)": "bf7c734e",
          "setOwner(address)": "13af4035",
          "stop()": "07da68f5",
          "stopped()": "75f12b21",
          "take(bytes32,uint128)": "49606455"
        }
      }
    }
  }
}