{
  "_format": "hh-sol-artifact-1",
  "contractName": "TokenVesting1",
  "sourceName": "contracts/peripheral_contracts/TokenVesting1.sol",
  "abi": [
    {
      "inputs": [
        {
          "internalType": "address",
          "name": "beneficiary",
          "type": "address"
        },
        {
          "internalType": "uint256",
          "name": "start",
          "type": "uint256"
        },
        {
          "internalType": "uint256",
          "name": "cliffDuration",
          "type": "uint256"
        },
        {
          "internalType": "uint256",
          "name": "duration",
          "type": "uint256"
        },
        {
          "internalType": "bool",
          "name": "revocable",
          "type": "bool"
        }
      ],
      "payable": false,
      "stateMutability": "nonpayable",
      "type": "constructor"
    },
    {
      "anonymous": false,
      "inputs": [
        {
          "indexed": true,
          "internalType": "address",
          "name": "previousOwner",
          "type": "address"
        },
        {
          "indexed": true,
          "internalType": "address",
          "name": "newOwner",
          "type": "address"
        }
      ],
      "name": "OwnershipTransferred",
      "type": "event"
    },
    {
      "anonymous": false,
      "inputs": [
        {
          "indexed": false,
          "internalType": "address",
          "name": "token",
          "type": "address"
        }
      ],
      "name": "TokenVestingRevoked",
      "type": "event"
    },
    {
      "anonymous": false,
      "inputs": [
        {
          "indexed": false,
          "internalType": "address",
          "name": "token",
          "type": "address"
        },
        {
          "indexed": false,
          "internalType": "uint256",
          "name": "amount",
          "type": "uint256"
        }
      ],
      "name": "TokensReleased",
      "type": "event"
    },
    {
      "constant": true,
      "inputs": [],
      "name": "beneficiary",
      "outputs": [
        {
          "internalType": "address",
          "name": "",
          "type": "address"
        }
      ],
      "payable": false,
      "stateMutability": "view",
      "type": "function"
    },
    {
      "constant": true,
      "inputs": [],
      "name": "cliff",
      "outputs": [
        {
          "internalType": "uint256",
          "name": "",
          "type": "uint256"
        }
      ],
      "payable": false,
      "stateMutability": "view",
      "type": "function"
    },
    {
      "constant": true,
      "inputs": [],
      "name": "duration",
      "outputs": [
        {
          "internalType": "uint256",
          "name": "",
          "type": "uint256"
        }
      ],
      "payable": false,
      "stateMutability": "view",
      "type": "function"
    },
    {
      "constant": true,
      "inputs": [],
      "name": "isOwner",
      "outputs": [
        {
          "internalType": "bool",
          "name": "",
          "type": "bool"
        }
      ],
      "payable": false,
      "stateMutability": "view",
      "type": "function"
    },
    {
      "constant": true,
      "inputs": [],
      "name": "owner",
      "outputs": [
        {
          "internalType": "address",
          "name": "",
          "type": "address"
        }
      ],
      "payable": false,
      "stateMutability": "view",
      "type": "function"
    },
    {
      "constant": false,
      "inputs": [
        {
          "internalType": "contract IERC20",
          "name": "token",
          "type": "address"
        }
      ],
      "name": "release",
      "outputs": [],
      "payable": false,
      "stateMutability": "nonpayable",
      "type": "function"
    },
    {
      "constant": true,
      "inputs": [
        {
          "internalType": "address",
          "name": "token",
          "type": "address"
        }
      ],
      "name": "released",
      "outputs": [
        {
          "internalType": "uint256",
          "name": "",
          "type": "uint256"
        }
      ],
      "payable": false,
      "stateMutability": "view",
      "type": "function"
    },
    {
      "constant": false,
      "inputs": [],
      "name": "renounceOwnership",
      "outputs": [],
      "payable": false,
      "stateMutability": "nonpayable",
      "type": "function"
    },
    {
      "constant": true,
      "inputs": [],
      "name": "revocable",
      "outputs": [
        {
          "internalType": "bool",
          "name": "",
          "type": "bool"
        }
      ],
      "payable": false,
      "stateMutability": "view",
      "type": "function"
    },
    {
      "constant": false,
      "inputs": [
        {
          "internalType": "contract IERC20",
          "name": "token",
          "type": "address"
        }
      ],
      "name": "revoke",
      "outputs": [],
      "payable": false,
      "stateMutability": "nonpayable",
      "type": "function"
    },
    {
      "constant": true,
      "inputs": [
        {
          "internalType": "address",
          "name": "token",
          "type": "address"
        }
      ],
      "name": "revoked",
      "outputs": [
        {
          "internalType": "bool",
          "name": "",
          "type": "bool"
        }
      ],
      "payable": false,
      "stateMutability": "view",
      "type": "function"
    },
    {
      "constant": true,
      "inputs": [],
      "name": "start",
      "outputs": [
        {
          "internalType": "uint256",
          "name": "",
          "type": "uint256"
        }
      ],
      "payable": false,
      "stateMutability": "view",
      "type": "function"
    },
    {
      "constant": false,
      "inputs": [
        {
          "internalType": "address",
          "name": "newOwner",
          "type": "address"
        }
      ],
      "name": "transferOwnership",
      "outputs": [],
      "payable": false,
      "stateMutability": "nonpayable",
      "type": "function"
    }
  ],
  "bytecode": "0x60806040523480156200001c5760008062000019620003a7565b50505b5060405162001b8c38038062001b8c833981810160405260a08110156200004d576000806200004a620003a7565b50505b81019080805192919060200180519291906020018051929190602001805192919060200180519250600091506200008e90506001600160e01b036200032916565b9050806000600181620000a062000414565b816001600160a01b0302191690836001600160a01b0316021790620000c462000476565b5050506001600160a01b03811660007f8be0079c531659141344cd1fd0a4f28419497f9722a3daafe3b4186f6b6457e060405160405180910390a3506001600160a01b038516620001525760405162461bcd60e51b815260040180806020018281038252602d81526020018062001b34602d9139604001915050604051809103906200014f620003a7565b50505b818311156200019e5760405162461bcd60e51b815260040180806020018281038252602b81526020018062001b61602b9139604001915050604051809103906200019b620003a7565b50505b60008211620001fe5760405162461bcd60e51b815260206004820152601b60248201527f546f6b656e56657374696e673a206475726174696f6e20697320300000000000604482015260640160405180910390620001fb620003a7565b50505b5a62000209620004c5565b6200022383866200033b60201b620008d11790919060201c565b116200026c5760405162461bcd60e51b815260040180806020018281038252602f81526020018062001b05602f91396040019150506040518091039062000269620003a7565b50505b84600180806200027b62000414565b816001600160a01b0302191690836001600160a01b03160217906200029f62000476565b50505080600560006101000a81620002b662000414565b8160ff02191690831515021790620002cd62000476565b5050508160048190620002df62000476565b505050620002fc83856200033b60201b620008d11790919060201c565b8060026200030962000476565b50505083600381906200031b62000476565b505050505050505062000553565b60005a620003366200050c565b905090565b600082820183811015620003a05760405162461bcd60e51b815260206004820152601b60248201527f536166654d6174683a206164646974696f6e206f766572666c6f7700000000006044820152606401604051809103906200039d620003a7565b50505b9392505050565b632a2a7adb598160e01b8152600481016020815285602082015260005b86811015620003e1578086015182820160400152602001620003c4565b506020828760640184336000905af158600e01573d6000803e3d6000fd5b3d6001141558600a015760016000f35b505050565b6303daa959598160e01b8152836004820152602081602483336000905af158600e01573d6000803e3d6000fd5b3d6001141558600a015760016000f35b8051935060005b6040811015620004715760008282015260200162000458565b505050565b6322bd64c0598160e01b8152836004820152846024820152600081604483336000905af158600e01573d6000803e3d6000fd5b3d6001141558600a015760016000f35b60008152602062000458565b63bdbf8c36598160e01b8152602081600483336000905af158600e01573d6000803e3d6000fd5b3d6001141558600a015760016000f35b8051600082529350602062000458565b6373509064598160e01b8152602081600483336000905af158600e01573d6000803e3d6000fd5b3d6001141558600a015760016000f35b8051600082529350602062000458565b6115a280620005636000396000f3fe6080604052348015610019576000806100166110e4565b50505b50600436106100b85760003560e01c80630fb5a6b4146100c657806313d033c0146100e057806319165587146100e857806338af3eed14610119578063715018a61461013d57806374a8f10314610145578063872a7810146101745780638da5cb5b146101905780638f32d59b146101985780639852595c146101a0578063be9a6555146101cf578063f2fde38b146101d7578063fa01dc0614610206575b6000806100c36110e4565b50505b6100ce610235565b60405190815260200160405180910390f35b6100ce610246565b61011760048036036020811015610107576000806101046110e4565b50505b50356001600160a01b0316610252565b005b61012161038b565b6040516001600160a01b03909116815260200160405180910390f35b6101176103ad565b61011760048036036020811015610164576000806101616110e4565b50505b50356001600160a01b0316610470565b61017c610772565b604051901515815260200160405180910390f35b61012161078e565b61017c61079a565b6100ce600480360360208110156101bf576000806101bc6110e4565b50505b50356001600160a01b03166107d6565b6100ce6107fe565b610117600480360360208110156101f6576000806101f36110e4565b50505b50356001600160a01b031661080a565b61017c60048036036020811015610225576000806102226110e4565b50505b50356001600160a01b0316610865565b6000600461024161114f565b905090565b6000600261024161114f565b600061025d82610899565b9050600081116102bc5760405162461bcd60e51b815260206004820152601f60248201527f546f6b656e56657374696e673a206e6f20746f6b656e732061726520647565006044820152606401604051809103906102b96110e4565b50505b6001600160a01b038216600090815260066020526102ee908290604090206102e261114f565b9063ffffffff6108d116565b6001600160a01b038316600090815260066020526040902081906103106111aa565b505050610343600160009061032361114f565b6001600160a01b03858116926101000a909104168363ffffffff61093a16565b7fc7798891864187665ac6dd119286e44ec13f014527aeeb2b8eb3fd413df9317982826040516001600160a01b03909216825260208201526040908101905180910390a15050565b600080600161039861114f565b906101000a90046001600160a01b0316905090565b6103b561079a565b6103fc5760405162461bcd60e51b815260206004820181905260248201526000805160206115158339815191526044820152606401604051809103906103f96110e4565b50505b6000808061040861114f565b906101000a90046001600160a01b03166001600160a01b031660008051602061153583398151915260405160405180910390a360008060018161044961114f565b816001600160a01b0302191690836001600160a01b031602179061046b6111aa565b505050565b61047861079a565b6104bf5760405162461bcd60e51b815260206004820181905260248201526000805160206115158339815191526044820152606401604051809103906104bc6110e4565b50505b600060056104cb61114f565b906101000a900460ff1661052c5760405162461bcd60e51b815260206004820152601b60248201527a546f6b656e56657374696e673a2063616e6e6f74207265766f6b6560281b6044820152606401604051809103906105296110e4565b50505b6001600160a01b038116600090815260076020526040902060009061054f61114f565b906101000a900460ff161561059e5760405162461bcd60e51b815260040180806020018281038252602381526020018061157f602391396040019150506040518091039061059b6110e4565b50505b6000816001600160a01b03166370a082315a63996d79a5598160e01b8152602081600483336000905af158600e01573d6000803e3d6000fd5b3d6001141558600a015760016000f35b8051925060005b6040811015610605576000828201526020016105ee565b5050506040516001600160e01b031960e084901b1681526001600160a01b03909116600482015260240160206040518083038186806106426111f8565b158015610657576000806106546110e4565b50505b505a610661611244565b5050505050158015610680573d6000803e3d600061067d6110e4565b50505b505050506040513d602081101561069f5760008061069c6110e4565b50505b8101908080519350600092506106b89150849050610899565b905060006106cc838363ffffffff61099616565b6001600160a01b03851660009081526007602052909150600190604090206001816106f561114f565b8160ff0219169083151502179061070a6111aa565b50505061072f61071861078e565b6001600160a01b038616908363ffffffff61093a16565b7f39983c6d4d174a7aee564f449d4a5c3c7ac9649d72b7793c56901183996f8af6846040516001600160a01b03909116815260200160405180910390a150505050565b600080600561077f61114f565b906101000a900460ff16905090565b6000808061039861114f565b600080806107a661114f565b906101000a90046001600160a01b03166001600160a01b03166107c76109d6565b6001600160a01b031614905090565b6001600160a01b03811660009081526006602052604081206107f661114f565b90505b919050565b6000600361024161114f565b61081261079a565b6108595760405162461bcd60e51b815260206004820181905260248201526000805160206115158339815191526044820152606401604051809103906108566110e4565b50505b610862816109e1565b50565b6001600160a01b038116600090815260076020526040812060009061088861114f565b906101000a900460ff169050919050565b6001600160a01b038116600090815260066020526107f6604082206108bc61114f565b6108c584610aad565b9063ffffffff61099616565b6000828201838110156109315760405162461bcd60e51b815260206004820152601b60248201527a536166654d6174683a206164646974696f6e206f766572666c6f7760281b60448201526064016040518091039061092e6110e4565b50505b90505b92915050565b61046b8363a9059cbb60e01b84846040516001600160a01b0390921660248301526044820152606401604051602081830303815290604052906001600160e01b0319166020820180516001600160e01b03169091179052610cc0565b6000610931838360405160408082019052601e81527f536166654d6174683a207375627472616374696f6e206f766572666c6f7700006020820152610eb7565b60005a61024161132f565b6001600160a01b038116610a2f5760405162461bcd60e51b81526004018080602001828103825260268152602001806114ce6026913960400191505060405180910390610a2c6110e4565b50505b6001600160a01b038116600080610a4461114f565b906101000a90046001600160a01b03166001600160a01b031660008051602061153583398151915260405160405180910390a3806000600181610a8561114f565b816001600160a01b0302191690836001600160a01b0316021790610aa76111aa565b50505050565b600080826001600160a01b03166370a082315a63996d79a5598160e01b8152602081600483336000905af158600e01573d6000803e3d6000fd5b3d6001141558600a015760016000f35b8051925060005b6040811015610b1557600082820152602001610afe565b5050506040516001600160e01b031960e084901b1681526001600160a01b0390911660048201526024016020604051808303818680610b526111f8565b158015610b6757600080610b646110e4565b50505b505a610b71611244565b5050505050158015610b90573d6000803e3d6000610b8d6110e4565b50505b505050506040513d6020811015610baf57600080610bac6110e4565b50505b8101908080516001600160a01b038716600090815260066020529094509250610bee9150604090508220610be161114f565b839063ffffffff6108d116565b90506002610bfa61114f565b5a610c03611375565b1015610c14576000925050506107f9565b610c2b6004610c2161114f565b60036102e261114f565b5a610c34611375565b101580610c6a57506001600160a01b0384166000908152600760205260409020600090610c5f61114f565b906101000a900460ff165b15610c785791506107f99050565b610cb76004610c8561114f565b610cab610c9e6003610c9561114f565b5a6108c5611375565b849063ffffffff610f5716565b9063ffffffff610fb616565b925050506107f9565b610cd2826001600160a01b0316610ff3565b610d2b5760405162461bcd60e51b815260206004820152601f60248201527f5361666545524332303a2063616c6c20746f206e6f6e2d636f6e747261637400604482015260640160405180910390610d286110e4565b50505b60006060836001600160a01b0316836040518082805190602001908083835b60208310610d695780518252601f199092019160209182019101610d4a565b6001836020036101000a0380198251168184511680821785525050505050509050019150506000604051808303816000865a610da36113bb565b5050505050509150503d8060008114610dd8576040513d603f01601f191681016040523d815291503d6000602084013e610ddd565b606091505b509150915081610e3c5760405162461bcd60e51b815260206004820181905260248201527f5361666545524332303a206c6f772d6c6576656c2063616c6c206661696c6564604482015260640160405180910390610e396110e4565b50505b600081511115610aa7576020810181516020811015610e6357600080610e606110e4565b50505b8101908080519250610aa79150505760405162461bcd60e51b815260040180806020018281038252602a815260200180611555602a913960400191505060405180910390610eaf6110e4565b505050505050565b60008184841115610f4f5760405162461bcd60e51b81526004018080602001828103825283818151815260200191508051906020019080838360005b83811015610f0b578082015183820152602001610ef3565b50505050905090810190601f168015610f385780820380516001836020036101000a031916815260200191505b509250505060405180910390610f4c6110e4565b50505b505050900390565b600082610f6657506000610934565b82820282848281610f7357fe5b04146109315760405162461bcd60e51b81526004018080602001828103825260218152602001806114f4602191396040019150506040518091039061092e6110e4565b6000610931838360405160408082019052601a815279536166654d6174683a206469766973696f6e206279207a65726f60301b6020820152611039565b6000807fc5d2460186f7233c927e7db2dcc703c0e500b653ca82273b7bfad8045d85a47083611020611481565b915080821415801561103157508115155b949350505050565b600081836110ce5760405162461bcd60e51b81526004018080602001828103825283818151815260200191508051906020019080838360005b8381101561108a578082015183820152602001611072565b50505050905090810190601f1680156110b75780820380516001836020036101000a031916815260200191505b5092505050604051809103906110cb6110e4565b50505b5060008385816110da57fe5b0495945050505050565b632a2a7adb598160e01b8152600481016020815285602082015260005b8681101561111c578086015182820160400152602001611101565b506020828760640184336000905af158600e01573d6000803e3d6000fd5b3d6001141558600a015760016000f35b505050565b6303daa959598160e01b8152836004820152602081602483336000905af158600e01573d6000803e3d6000fd5b3d6001141558600a015760016000f35b8051935060005b604081101561046b57600082820152602001611193565b6322bd64c0598160e01b8152836004820152846024820152600081604483336000905af158600e01573d6000803e3d6000fd5b3d6001141558600a015760016000f35b600081526020611193565b638435035b598160e01b8152836004820152602081602483336000905af158600e01573d6000803e3d6000fd5b3d6001141558600a015760016000f35b80516000825293506020611193565b638540661f598160e01b8152611275565b8080831115610934575090919050565b8080831015610934575090919050565b836004820152846024820152606060448201528660648201526084810160005b888110156112ad578088015182820152602001611295565b506060828960a40184336000905af158600e01573d6000803e3d6000fd5b3d6001141558600a015760016000f35b815160408301513d6000853e8b8b82606087013350600060045af150596113028d3d611265565b8c0161130e8187611255565b5b82811015611323576000815260200161130f565b50929c50505050505050565b6373509064598160e01b8152602081600483336000905af158600e01573d6000803e3d6000fd5b3d6001141558600a015760016000f35b80516000825293506020611193565b63bdbf8c36598160e01b8152602081600483336000905af158600e01573d6000803e3d6000fd5b3d6001141558600a015760016000f35b80516000825293506020611193565b6385979f76598160e01b8152836004820152846024820152606060448201528760648201526084810160005b898110156113ff5780890151828201526020016113e7565b506060828a60a40184336000905af158600e01573d6000803e3d6000fd5b3d6001141558600a015760016000f35b815160408301513d6000853e8c8c82606087013350600060045af150596114548e3d611265565b8d016114608187611255565b5b828110156114755760008152602001611461565b50929d50505050505050565b6324749d5c598160e01b8152836004820152602081602483336000905af158600e01573d6000803e3d6000fd5b3d6001141558600a015760016000f35b8051600082529350602061119356fe4f776e61626c653a206e6577206f776e657220697320746865207a65726f2061646472657373536166654d6174683a206d756c7469706c69636174696f6e206f766572666c6f774f776e61626c653a2063616c6c6572206973206e6f7420746865206f776e65728be0079c531659141344cd1fd0a4f28419497f9722a3daafe3b4186f6b6457e05361666545524332303a204552433230206f7065726174696f6e20646964206e6f742073756363656564546f6b656e56657374696e673a20746f6b656e20616c7265616479207265766f6b6564546f6b656e56657374696e673a2066696e616c2074696d65206973206265666f72652063757272656e742074696d65546f6b656e56657374696e673a2062656e656669636961727920697320746865207a65726f2061646472657373546f6b656e56657374696e673a20636c696666206973206c6f6e676572207468616e206475726174696f6e",
  "deployedBytecode": "0x6080604052348015610019576000806100166110e4565b50505b50600436106100b85760003560e01c80630fb5a6b4146100c657806313d033c0146100e057806319165587146100e857806338af3eed14610119578063715018a61461013d57806374a8f10314610145578063872a7810146101745780638da5cb5b146101905780638f32d59b146101985780639852595c146101a0578063be9a6555146101cf578063f2fde38b146101d7578063fa01dc0614610206575b6000806100c36110e4565b50505b6100ce610235565b60405190815260200160405180910390f35b6100ce610246565b61011760048036036020811015610107576000806101046110e4565b50505b50356001600160a01b0316610252565b005b61012161038b565b6040516001600160a01b03909116815260200160405180910390f35b6101176103ad565b61011760048036036020811015610164576000806101616110e4565b50505b50356001600160a01b0316610470565b61017c610772565b604051901515815260200160405180910390f35b61012161078e565b61017c61079a565b6100ce600480360360208110156101bf576000806101bc6110e4565b50505b50356001600160a01b03166107d6565b6100ce6107fe565b610117600480360360208110156101f6576000806101f36110e4565b50505b50356001600160a01b031661080a565b61017c60048036036020811015610225576000806102226110e4565b50505b50356001600160a01b0316610865565b6000600461024161114f565b905090565b6000600261024161114f565b600061025d82610899565b9050600081116102bc5760405162461bcd60e51b815260206004820152601f60248201527f546f6b656e56657374696e673a206e6f20746f6b656e732061726520647565006044820152606401604051809103906102b96110e4565b50505b6001600160a01b038216600090815260066020526102ee908290604090206102e261114f565b9063ffffffff6108d116565b6001600160a01b038316600090815260066020526040902081906103106111aa565b505050610343600160009061032361114f565b6001600160a01b03858116926101000a909104168363ffffffff61093a16565b7fc7798891864187665ac6dd119286e44ec13f014527aeeb2b8eb3fd413df9317982826040516001600160a01b03909216825260208201526040908101905180910390a15050565b600080600161039861114f565b906101000a90046001600160a01b0316905090565b6103b561079a565b6103fc5760405162461bcd60e51b815260206004820181905260248201526000805160206115158339815191526044820152606401604051809103906103f96110e4565b50505b6000808061040861114f565b906101000a90046001600160a01b03166001600160a01b031660008051602061153583398151915260405160405180910390a360008060018161044961114f565b816001600160a01b0302191690836001600160a01b031602179061046b6111aa565b505050565b61047861079a565b6104bf5760405162461bcd60e51b815260206004820181905260248201526000805160206115158339815191526044820152606401604051809103906104bc6110e4565b50505b600060056104cb61114f565b906101000a900460ff1661052c5760405162461bcd60e51b815260206004820152601b60248201527a546f6b656e56657374696e673a2063616e6e6f74207265766f6b6560281b6044820152606401604051809103906105296110e4565b50505b6001600160a01b038116600090815260076020526040902060009061054f61114f565b906101000a900460ff161561059e5760405162461bcd60e51b815260040180806020018281038252602381526020018061157f602391396040019150506040518091039061059b6110e4565b50505b6000816001600160a01b03166370a082315a63996d79a5598160e01b8152602081600483336000905af158601d01573d60011458600c01573d6000803e3d621234565260ea61109c528051925060005b6040811015610605576000828201526020016105ee565b5050506040516001600160e01b031960e084901b1681526001600160a01b03909116600482015260240160206040518083038186806106426111f8565b158015610657576000806106546110e4565b50505b505a610661611244565b5050505050158015610680573d6000803e3d600061067d6110e4565b50505b505050506040513d602081101561069f5760008061069c6110e4565b50505b8101908080519350600092506106b89150849050610899565b905060006106cc838363ffffffff61099616565b6001600160a01b03851660009081526007602052909150600190604090206001816106f561114f565b8160ff0219169083151502179061070a6111aa565b50505061072f61071861078e565b6001600160a01b038616908363ffffffff61093a16565b7f39983c6d4d174a7aee564f449d4a5c3c7ac9649d72b7793c56901183996f8af6846040516001600160a01b03909116815260200160405180910390a150505050565b600080600561077f61114f565b906101000a900460ff16905090565b6000808061039861114f565b600080806107a661114f565b906101000a90046001600160a01b03166001600160a01b03166107c76109d6565b6001600160a01b031614905090565b6001600160a01b03811660009081526006602052604081206107f661114f565b90505b919050565b6000600361024161114f565b61081261079a565b6108595760405162461bcd60e51b815260206004820181905260248201526000805160206115158339815191526044820152606401604051809103906108566110e4565b50505b610862816109e1565b50565b6001600160a01b038116600090815260076020526040812060009061088861114f565b906101000a900460ff169050919050565b6001600160a01b038116600090815260066020526107f6604082206108bc61114f565b6108c584610aad565b9063ffffffff61099616565b6000828201838110156109315760405162461bcd60e51b815260206004820152601b60248201527a536166654d6174683a206164646974696f6e206f766572666c6f7760281b60448201526064016040518091039061092e6110e4565b50505b90505b92915050565b61046b8363a9059cbb60e01b84846040516001600160a01b0390921660248301526044820152606401604051602081830303815290604052906001600160e01b0319166020820180516001600160e01b03169091179052610cc0565b6000610931838360405160408082019052601e81527f536166654d6174683a207375627472616374696f6e206f766572666c6f7700006020820152610eb7565b60005a61024161132f565b6001600160a01b038116610a2f5760405162461bcd60e51b81526004018080602001828103825260268152602001806114ce6026913960400191505060405180910390610a2c6110e4565b50505b6001600160a01b038116600080610a4461114f565b906101000a90046001600160a01b03166001600160a01b031660008051602061153583398151915260405160405180910390a3806000600181610a8561114f565b816001600160a01b0302191690836001600160a01b0316021790610aa76111aa565b50505050565b600080826001600160a01b03166370a082315a63996d79a5598160e01b8152602081600483336000905af158601d01573d60011458600c01573d6000803e3d621234565260ea61109c528051925060005b6040811015610b1557600082820152602001610afe565b5050506040516001600160e01b031960e084901b1681526001600160a01b0390911660048201526024016020604051808303818680610b526111f8565b158015610b6757600080610b646110e4565b50505b505a610b71611244565b5050505050158015610b90573d6000803e3d6000610b8d6110e4565b50505b505050506040513d6020811015610baf57600080610bac6110e4565b50505b8101908080516001600160a01b038716600090815260066020529094509250610bee9150604090508220610be161114f565b839063ffffffff6108d116565b90506002610bfa61114f565b5a610c03611375565b1015610c14576000925050506107f9565b610c2b6004610c2161114f565b60036102e261114f565b5a610c34611375565b101580610c6a57506001600160a01b0384166000908152600760205260409020600090610c5f61114f565b906101000a900460ff165b15610c785791506107f99050565b610cb76004610c8561114f565b610cab610c9e6003610c9561114f565b5a6108c5611375565b849063ffffffff610f5716565b9063ffffffff610fb616565b925050506107f9565b610cd2826001600160a01b0316610ff3565b610d2b5760405162461bcd60e51b815260206004820152601f60248201527f5361666545524332303a2063616c6c20746f206e6f6e2d636f6e747261637400604482015260640160405180910390610d286110e4565b50505b60006060836001600160a01b0316836040518082805190602001908083835b60208310610d695780518252601f199092019160209182019101610d4a565b6001836020036101000a0380198251168184511680821785525050505050509050019150506000604051808303816000865a610da36113bb565b5050505050509150503d8060008114610dd8576040513d603f01601f191681016040523d815291503d6000602084013e610ddd565b606091505b509150915081610e3c5760405162461bcd60e51b815260206004820181905260248201527f5361666545524332303a206c6f772d6c6576656c2063616c6c206661696c6564604482015260640160405180910390610e396110e4565b50505b600081511115610aa7576020810181516020811015610e6357600080610e606110e4565b50505b8101908080519250610aa79150505760405162461bcd60e51b815260040180806020018281038252602a815260200180611555602a913960400191505060405180910390610eaf6110e4565b505050505050565b60008184841115610f4f5760405162461bcd60e51b81526004018080602001828103825283818151815260200191508051906020019080838360005b83811015610f0b578082015183820152602001610ef3565b50505050905090810190601f168015610f385780820380516001836020036101000a031916815260200191505b509250505060405180910390610f4c6110e4565b50505b505050900390565b600082610f6657506000610934565b82820282848281610f7357fe5b04146109315760405162461bcd60e51b81526004018080602001828103825260218152602001806114f4602191396040019150506040518091039061092e6110e4565b6000610931838360405160408082019052601a815279536166654d6174683a206469766973696f6e206279207a65726f60301b6020820152611039565b6000807fc5d2460186f7233c927e7db2dcc703c0e500b653ca82273b7bfad8045d85a47083611020611481565b915080821415801561103157508115155b949350505050565b600081836110ce5760405162461bcd60e51b81526004018080602001828103825283818151815260200191508051906020019080838360005b8381101561108a578082015183820152602001611072565b50505050905090810190601f1680156110b75780820380516001836020036101000a031916815260200191505b5092505050604051809103906110cb6110e4565b50505b5060008385816110da57fe5b0495945050505050565b632a2a7adb598160e01b8152600481016020815285602082015260005b8681101561111c578086015182820160400152602001611101565b506020828760640184336000905af158601d01573d60011458600c01573d6000803e3d621234565260ea61109c52505050565b6303daa959598160e01b8152836004820152602081602483336000905af158601d01573d60011458600c01573d6000803e3d621234565260ea61109c528051935060005b604081101561046b57600082820152602001611193565b6322bd64c0598160e01b8152836004820152846024820152600081604483336000905af158601d01573d60011458600c01573d6000803e3d621234565260ea61109c52600081526020611193565b638435035b598160e01b8152836004820152602081602483336000905af158601d01573d60011458600c01573d6000803e3d621234565260ea61109c5280516000825293506020611193565b638540661f598160e01b8152611275565b8080831115610934575090919050565b8080831015610934575090919050565b836004820152846024820152606060448201528660648201526084810160005b888110156112ad578088015182820152602001611295565b506060828960a40184336000905af158601d01573d60011458600c01573d6000803e3d621234565260ea61109c52815160408301513d6000853e8b8b82606087013350600060045af150596113028d3d611265565b8c0161130e8187611255565b5b82811015611323576000815260200161130f565b50929c50505050505050565b6373509064598160e01b8152602081600483336000905af158601d01573d60011458600c01573d6000803e3d621234565260ea61109c5280516000825293506020611193565b63bdbf8c36598160e01b8152602081600483336000905af158601d01573d60011458600c01573d6000803e3d621234565260ea61109c5280516000825293506020611193565b6385979f76598160e01b8152836004820152846024820152606060448201528760648201526084810160005b898110156113ff5780890151828201526020016113e7565b506060828a60a40184336000905af158601d01573d60011458600c01573d6000803e3d621234565260ea61109c52815160408301513d6000853e8c8c82606087013350600060045af150596114548e3d611265565b8d016114608187611255565b5b828110156114755760008152602001611461565b50929d50505050505050565b6324749d5c598160e01b8152836004820152602081602483336000905af158601d01573d60011458600c01573d6000803e3d621234565260ea61109c528051600082529350602061119356fe4f776e61626c653a206e6577206f776e657220697320746865207a65726f2061646472657373536166654d6174683a206d756c7469706c69636174696f6e206f766572666c6f774f776e61626c653a2063616c6c6572206973206e6f7420746865206f776e65728be0079c531659141344cd1fd0a4f28419497f9722a3daafe3b4186f6b6457e05361666545524332303a204552433230206f7065726174696f6e20646964206e6f742073756363656564546f6b656e56657374696e673a20746f6b656e20616c7265616479207265766f6b6564",
  "linkReferences": {},
  "deployedLinkReferences": {}
}