{
  "_format": "hh-sol-artifact-1",
  "contractName": "TokenVesting1",
  "sourceName": "contracts/peripheral_contracts/TokenVesting1.sol",
  "abi": [
    {
      "inputs": [
        {
          "internalType": "address",
          "name": "beneficiary",
          "type": "address"
        },
        {
          "internalType": "uint256",
          "name": "start",
          "type": "uint256"
        },
        {
          "internalType": "uint256",
          "name": "cliffDuration",
          "type": "uint256"
        },
        {
          "internalType": "uint256",
          "name": "duration",
          "type": "uint256"
        },
        {
          "internalType": "bool",
          "name": "revocable",
          "type": "bool"
        }
      ],
      "payable": false,
      "stateMutability": "nonpayable",
      "type": "constructor"
    },
    {
      "anonymous": false,
      "inputs": [
        {
          "indexed": true,
          "internalType": "address",
          "name": "previousOwner",
          "type": "address"
        },
        {
          "indexed": true,
          "internalType": "address",
          "name": "newOwner",
          "type": "address"
        }
      ],
      "name": "OwnershipTransferred",
      "type": "event"
    },
    {
      "anonymous": false,
      "inputs": [
        {
          "indexed": false,
          "internalType": "address",
          "name": "token",
          "type": "address"
        }
      ],
      "name": "TokenVestingRevoked",
      "type": "event"
    },
    {
      "anonymous": false,
      "inputs": [
        {
          "indexed": false,
          "internalType": "address",
          "name": "token",
          "type": "address"
        },
        {
          "indexed": false,
          "internalType": "uint256",
          "name": "amount",
          "type": "uint256"
        }
      ],
      "name": "TokensReleased",
      "type": "event"
    },
    {
      "constant": true,
      "inputs": [],
      "name": "beneficiary",
      "outputs": [
        {
          "internalType": "address",
          "name": "",
          "type": "address"
        }
      ],
      "payable": false,
      "stateMutability": "view",
      "type": "function"
    },
    {
      "constant": true,
      "inputs": [],
      "name": "cliff",
      "outputs": [
        {
          "internalType": "uint256",
          "name": "",
          "type": "uint256"
        }
      ],
      "payable": false,
      "stateMutability": "view",
      "type": "function"
    },
    {
      "constant": true,
      "inputs": [],
      "name": "duration",
      "outputs": [
        {
          "internalType": "uint256",
          "name": "",
          "type": "uint256"
        }
      ],
      "payable": false,
      "stateMutability": "view",
      "type": "function"
    },
    {
      "constant": true,
      "inputs": [],
      "name": "isOwner",
      "outputs": [
        {
          "internalType": "bool",
          "name": "",
          "type": "bool"
        }
      ],
      "payable": false,
      "stateMutability": "view",
      "type": "function"
    },
    {
      "constant": true,
      "inputs": [],
      "name": "owner",
      "outputs": [
        {
          "internalType": "address",
          "name": "",
          "type": "address"
        }
      ],
      "payable": false,
      "stateMutability": "view",
      "type": "function"
    },
    {
      "constant": false,
      "inputs": [
        {
          "internalType": "contract IERC20",
          "name": "token",
          "type": "address"
        }
      ],
      "name": "release",
      "outputs": [],
      "payable": false,
      "stateMutability": "nonpayable",
      "type": "function"
    },
    {
      "constant": true,
      "inputs": [
        {
          "internalType": "address",
          "name": "token",
          "type": "address"
        }
      ],
      "name": "released",
      "outputs": [
        {
          "internalType": "uint256",
          "name": "",
          "type": "uint256"
        }
      ],
      "payable": false,
      "stateMutability": "view",
      "type": "function"
    },
    {
      "constant": false,
      "inputs": [],
      "name": "renounceOwnership",
      "outputs": [],
      "payable": false,
      "stateMutability": "nonpayable",
      "type": "function"
    },
    {
      "constant": true,
      "inputs": [],
      "name": "revocable",
      "outputs": [
        {
          "internalType": "bool",
          "name": "",
          "type": "bool"
        }
      ],
      "payable": false,
      "stateMutability": "view",
      "type": "function"
    },
    {
      "constant": false,
      "inputs": [
        {
          "internalType": "contract IERC20",
          "name": "token",
          "type": "address"
        }
      ],
      "name": "revoke",
      "outputs": [],
      "payable": false,
      "stateMutability": "nonpayable",
      "type": "function"
    },
    {
      "constant": true,
      "inputs": [
        {
          "internalType": "address",
          "name": "token",
          "type": "address"
        }
      ],
      "name": "revoked",
      "outputs": [
        {
          "internalType": "bool",
          "name": "",
          "type": "bool"
        }
      ],
      "payable": false,
      "stateMutability": "view",
      "type": "function"
    },
    {
      "constant": true,
      "inputs": [],
      "name": "start",
      "outputs": [
        {
          "internalType": "uint256",
          "name": "",
          "type": "uint256"
        }
      ],
      "payable": false,
      "stateMutability": "view",
      "type": "function"
    },
    {
      "constant": false,
      "inputs": [
        {
          "internalType": "address",
          "name": "newOwner",
          "type": "address"
        }
      ],
      "name": "transferOwnership",
      "outputs": [],
      "payable": false,
      "stateMutability": "nonpayable",
      "type": "function"
    }
  ],
  "bytecode": "0x60806040523480156200001c5760008062000019620003a7565b50505b5060405162001bcd38038062001bcd833981810160405260a08110156200004d576000806200004a620003a7565b50505b81019080805192919060200180519291906020018051929190602001805192919060200180519250600091506200008e90506001600160e01b036200032916565b9050806000600181620000a062000414565b816001600160a01b0302191690836001600160a01b0316021790620000c462000476565b5050506001600160a01b03811660007f8be0079c531659141344cd1fd0a4f28419497f9722a3daafe3b4186f6b6457e060405160405180910390a3506001600160a01b038516620001525760405162461bcd60e51b815260040180806020018281038252602d81526020018062001b75602d9139604001915050604051809103906200014f620003a7565b50505b818311156200019e5760405162461bcd60e51b815260040180806020018281038252602b81526020018062001ba2602b9139604001915050604051809103906200019b620003a7565b50505b60008211620001fe5760405162461bcd60e51b815260206004820152601b60248201527f546f6b656e56657374696e673a206475726174696f6e20697320300000000000604482015260640160405180910390620001fb620003a7565b50505b5a62000209620004c5565b6200022383866200033b60201b6200093b1790919060201c565b116200026c5760405162461bcd60e51b815260040180806020018281038252602f81526020018062001b46602f91396040019150506040518091039062000269620003a7565b50505b84600180806200027b62000414565b816001600160a01b0302191690836001600160a01b03160217906200029f62000476565b50505080600560006101000a81620002b662000414565b8160ff02191690831515021790620002cd62000476565b5050508160048190620002df62000476565b505050620002fc83856200033b60201b6200093b1790919060201c565b8060026200030962000476565b50505083600381906200031b62000476565b505050505050505062000553565b60005a620003366200050c565b905090565b600082820183811015620003a05760405162461bcd60e51b815260206004820152601b60248201527f536166654d6174683a206164646974696f6e206f766572666c6f7700000000006044820152606401604051809103906200039d620003a7565b50505b9392505050565b632a2a7adb598160e01b8152600481016020815285602082015260005b86811015620003e1578086015182820160400152602001620003c4565b506020828760640184336000905af158600e01573d6000803e3d6000fd5b3d6001141558600a015760016000f35b505050565b6303daa959598160e01b8152836004820152602081602483336000905af158600e01573d6000803e3d6000fd5b3d6001141558600a015760016000f35b8051935060005b6040811015620004715760008282015260200162000458565b505050565b6322bd64c0598160e01b8152836004820152846024820152600081604483336000905af158600e01573d6000803e3d6000fd5b3d6001141558600a015760016000f35b60008152602062000458565b63bdbf8c36598160e01b8152602081600483336000905af158600e01573d6000803e3d6000fd5b3d6001141558600a015760016000f35b8051600082529350602062000458565b6373509064598160e01b8152602081600483336000905af158600e01573d6000803e3d6000fd5b3d6001141558600a015760016000f35b8051600082529350602062000458565b6115e380620005636000396000f3fe608060405234801561001957600080610016611165565b50505b50600436106100d85760003560e01c8063872a7810116100955780639852595c1161006f5780639852595c146101c0578063be9a6555146101ef578063f2fde38b146101f7578063fa01dc0614610226576100d8565b8063872a7810146101945780638da5cb5b146101b05780638f32d59b146101b8576100d8565b80630fb5a6b4146100e657806313d033c014610100578063191655871461010857806338af3eed14610139578063715018a61461015d57806374a8f10314610165575b6000806100e3611165565b50505b6100ee610255565b60405190815260200160405180910390f35b6100ee610266565b6101376004803603602081101561012757600080610124611165565b50505b50356001600160a01b0316610272565b005b6101416103ab565b6040516001600160a01b03909116815260200160405180910390f35b6101376103cd565b6101376004803603602081101561018457600080610181611165565b50505b50356001600160a01b03166104b4565b61019c6107ca565b604051901515815260200160405180910390f35b6101416107e6565b61019c6107f2565b6100ee600480360360208110156101df576000806101dc611165565b50505b50356001600160a01b031661082e565b6100ee610856565b6101376004803603602081101561021657600080610213611165565b50505b50356001600160a01b0316610862565b61019c6004803603602081101561024557600080610242611165565b50505b50356001600160a01b03166108cf565b600060046102616111d0565b905090565b600060026102616111d0565b600061027d82610903565b9050600081116102dc5760405162461bcd60e51b815260206004820152601f60248201527f546f6b656e56657374696e673a206e6f20746f6b656e732061726520647565006044820152606401604051809103906102d9611165565b50505b6001600160a01b0382166000908152600660205261030e908290604090206103026111d0565b9063ffffffff61093b16565b6001600160a01b0383166000908152600660205260409020819061033061122b565b50505061036360016000906103436111d0565b6001600160a01b03858116926101000a909104168363ffffffff6109a616565b7fc7798891864187665ac6dd119286e44ec13f014527aeeb2b8eb3fd413df9317982826040516001600160a01b03909216825260208201526040908101905180910390a15050565b60008060016103b86111d0565b906101000a90046001600160a01b0316905090565b6103d56107f2565b61042e5760405162461bcd60e51b815260206004820181905260248201527f4f776e61626c653a2063616c6c6572206973206e6f7420746865206f776e657260448201526064016040518091039061042b611165565b50505b6000808061043a6111d0565b906101000a90046001600160a01b03166001600160a01b03167f8be0079c531659141344cd1fd0a4f28419497f9722a3daafe3b4186f6b6457e060405160405180910390a360008060018161048d6111d0565b816001600160a01b0302191690836001600160a01b03160217906104af61122b565b505050565b6104bc6107f2565b6105155760405162461bcd60e51b815260206004820181905260248201527f4f776e61626c653a2063616c6c6572206973206e6f7420746865206f776e6572604482015260640160405180910390610512611165565b50505b600060056105216111d0565b906101000a900460ff166105845760405162461bcd60e51b815260206004820152601b60248201527f546f6b656e56657374696e673a2063616e6e6f74207265766f6b650000000000604482015260640160405180910390610581611165565b50505b6001600160a01b03811660009081526007602052604090206000906105a76111d0565b906101000a900460ff16156105f65760405162461bcd60e51b81526004018080602001828103825260238152602001806115c060239139604001915050604051809103906105f3611165565b50505b6000816001600160a01b03166370a082315a63996d79a5598160e01b8152602081600483336000905af158600e01573d6000803e3d6000fd5b3d6001141558600a015760016000f35b8051925060005b604081101561065d57600082820152602001610646565b5050506040516001600160e01b031960e084901b1681526001600160a01b039091166004820152602401602060405180830381868061069a611279565b1580156106af576000806106ac611165565b50505b505a6106b96112c5565b50505050501580156106d8573d6000803e3d60006106d5611165565b50505b505050506040513d60208110156106f7576000806106f4611165565b50505b8101908080519350600092506107109150849050610903565b90506000610724838363ffffffff610a0216565b6001600160a01b038516600090815260076020529091506001906040902060018161074d6111d0565b8160ff0219169083151502179061076261122b565b5050506107876107706107e6565b6001600160a01b038616908363ffffffff6109a616565b7f39983c6d4d174a7aee564f449d4a5c3c7ac9649d72b7793c56901183996f8af6846040516001600160a01b03909116815260200160405180910390a150505050565b60008060056107d76111d0565b906101000a900460ff16905090565b600080806103b86111d0565b600080806107fe6111d0565b906101000a90046001600160a01b03166001600160a01b031661081f610a42565b6001600160a01b031614905090565b6001600160a01b038116600090815260066020526040812061084e6111d0565b90505b919050565b600060036102616111d0565b61086a6107f2565b6108c35760405162461bcd60e51b815260206004820181905260248201527f4f776e61626c653a2063616c6c6572206973206e6f7420746865206f776e65726044820152606401604051809103906108c0611165565b50505b6108cc81610a4d565b50565b6001600160a01b03811660009081526007602052604081206000906108f26111d0565b906101000a900460ff169050919050565b6001600160a01b0381166000908152600660205261084e604082206109266111d0565b61092f84610b2b565b9063ffffffff610a0216565b60008282018381101561099d5760405162461bcd60e51b815260206004820152601b60248201527f536166654d6174683a206164646974696f6e206f766572666c6f77000000000060448201526064016040518091039061099a611165565b50505b90505b92915050565b6104af8363a9059cbb60e01b84846040516001600160a01b0390921660248301526044820152606401604051602081830303815290604052906001600160e01b0319166020820180516001600160e01b03169091179052610d3e565b600061099d838360405160408082019052601e81527f536166654d6174683a207375627472616374696f6e206f766572666c6f7700006020820152610f35565b60005a6102616113b0565b6001600160a01b038116610a9b5760405162461bcd60e51b815260040180806020018281038252602681526020018061154f6026913960400191505060405180910390610a98611165565b50505b6001600160a01b038116600080610ab06111d0565b906101000a90046001600160a01b03166001600160a01b03167f8be0079c531659141344cd1fd0a4f28419497f9722a3daafe3b4186f6b6457e060405160405180910390a3806000600181610b036111d0565b816001600160a01b0302191690836001600160a01b0316021790610b2561122b565b50505050565b600080826001600160a01b03166370a082315a63996d79a5598160e01b8152602081600483336000905af158600e01573d6000803e3d6000fd5b3d6001141558600a015760016000f35b8051925060005b6040811015610b9357600082820152602001610b7c565b5050506040516001600160e01b031960e084901b1681526001600160a01b0390911660048201526024016020604051808303818680610bd0611279565b158015610be557600080610be2611165565b50505b505a610bef6112c5565b5050505050158015610c0e573d6000803e3d6000610c0b611165565b50505b505050506040513d6020811015610c2d57600080610c2a611165565b50505b8101908080516001600160a01b038716600090815260066020529094509250610c6c9150604090508220610c5f6111d0565b839063ffffffff61093b16565b90506002610c786111d0565b5a610c816113f6565b1015610c9257600092505050610851565b610ca96004610c9f6111d0565b60036103026111d0565b5a610cb26113f6565b101580610ce857506001600160a01b0384166000908152600760205260409020600090610cdd6111d0565b906101000a900460ff165b15610cf65791506108519050565b610d356004610d036111d0565b610d29610d1c6003610d136111d0565b5a61092f6113f6565b849063ffffffff610fd516565b9063ffffffff61103416565b92505050610851565b610d50826001600160a01b0316611074565b610da95760405162461bcd60e51b815260206004820152601f60248201527f5361666545524332303a2063616c6c20746f206e6f6e2d636f6e747261637400604482015260640160405180910390610da6611165565b50505b60006060836001600160a01b0316836040518082805190602001908083835b60208310610de75780518252601f199092019160209182019101610dc8565b6001836020036101000a0380198251168184511680821785525050505050509050019150506000604051808303816000865a610e2161143c565b5050505050509150503d8060008114610e56576040513d603f01601f191681016040523d815291503d6000602084013e610e5b565b606091505b509150915081610eba5760405162461bcd60e51b815260206004820181905260248201527f5361666545524332303a206c6f772d6c6576656c2063616c6c206661696c6564604482015260640160405180910390610eb7611165565b50505b600081511115610b25576020810181516020811015610ee157600080610ede611165565b50505b8101908080519250610b259150505760405162461bcd60e51b815260040180806020018281038252602a815260200180611596602a913960400191505060405180910390610f2d611165565b505050505050565b60008184841115610fcd5760405162461bcd60e51b81526004018080602001828103825283818151815260200191508051906020019080838360005b83811015610f89578082015183820152602001610f71565b50505050905090810190601f168015610fb65780820380516001836020036101000a031916815260200191505b509250505060405180910390610fca611165565b50505b505050900390565b600082610fe4575060006109a0565b82820282848281610ff157fe5b041461099d5760405162461bcd60e51b8152600401808060200182810382526021815260200180611575602191396040019150506040518091039061099a611165565b600061099d838360405160408082019052601a81527f536166654d6174683a206469766973696f6e206279207a65726f00000000000060208201526110ba565b6000807fc5d2460186f7233c927e7db2dcc703c0e500b653ca82273b7bfad8045d85a470836110a1611502565b91508082141580156110b257508115155b949350505050565b6000818361114f5760405162461bcd60e51b81526004018080602001828103825283818151815260200191508051906020019080838360005b8381101561110b5780820151838201526020016110f3565b50505050905090810190601f1680156111385780820380516001836020036101000a031916815260200191505b50925050506040518091039061114c611165565b50505b50600083858161115b57fe5b0495945050505050565b632a2a7adb598160e01b8152600481016020815285602082015260005b8681101561119d578086015182820160400152602001611182565b506020828760640184336000905af158600e01573d6000803e3d6000fd5b3d6001141558600a015760016000f35b505050565b6303daa959598160e01b8152836004820152602081602483336000905af158600e01573d6000803e3d6000fd5b3d6001141558600a015760016000f35b8051935060005b60408110156104af57600082820152602001611214565b6322bd64c0598160e01b8152836004820152846024820152600081604483336000905af158600e01573d6000803e3d6000fd5b3d6001141558600a015760016000f35b600081526020611214565b638435035b598160e01b8152836004820152602081602483336000905af158600e01573d6000803e3d6000fd5b3d6001141558600a015760016000f35b80516000825293506020611214565b638540661f598160e01b81526112f6565b80808311156109a0575090919050565b80808310156109a0575090919050565b836004820152846024820152606060448201528660648201526084810160005b8881101561132e578088015182820152602001611316565b506060828960a40184336000905af158600e01573d6000803e3d6000fd5b3d6001141558600a015760016000f35b815160408301513d6000853e8b8b82606087013350600060045af150596113838d3d6112e6565b8c0161138f81876112d6565b5b828110156113a45760008152602001611390565b50929c50505050505050565b6373509064598160e01b8152602081600483336000905af158600e01573d6000803e3d6000fd5b3d6001141558600a015760016000f35b80516000825293506020611214565b63bdbf8c36598160e01b8152602081600483336000905af158600e01573d6000803e3d6000fd5b3d6001141558600a015760016000f35b80516000825293506020611214565b6385979f76598160e01b8152836004820152846024820152606060448201528760648201526084810160005b89811015611480578089015182820152602001611468565b506060828a60a40184336000905af158600e01573d6000803e3d6000fd5b3d6001141558600a015760016000f35b815160408301513d6000853e8c8c82606087013350600060045af150596114d58e3d6112e6565b8d016114e181876112d6565b5b828110156114f657600081526020016114e2565b50929d50505050505050565b6324749d5c598160e01b8152836004820152602081602483336000905af158600e01573d6000803e3d6000fd5b3d6001141558600a015760016000f35b8051600082529350602061121456fe4f776e61626c653a206e6577206f776e657220697320746865207a65726f2061646472657373536166654d6174683a206d756c7469706c69636174696f6e206f766572666c6f775361666545524332303a204552433230206f7065726174696f6e20646964206e6f742073756363656564546f6b656e56657374696e673a20746f6b656e20616c7265616479207265766f6b6564546f6b656e56657374696e673a2066696e616c2074696d65206973206265666f72652063757272656e742074696d65546f6b656e56657374696e673a2062656e656669636961727920697320746865207a65726f2061646472657373546f6b656e56657374696e673a20636c696666206973206c6f6e676572207468616e206475726174696f6e",
  "deployedBytecode": "0x608060405234801561001957600080610016611165565b50505b50600436106100d85760003560e01c8063872a7810116100955780639852595c1161006f5780639852595c146101c0578063be9a6555146101ef578063f2fde38b146101f7578063fa01dc0614610226576100d8565b8063872a7810146101945780638da5cb5b146101b05780638f32d59b146101b8576100d8565b80630fb5a6b4146100e657806313d033c014610100578063191655871461010857806338af3eed14610139578063715018a61461015d57806374a8f10314610165575b6000806100e3611165565b50505b6100ee610255565b60405190815260200160405180910390f35b6100ee610266565b6101376004803603602081101561012757600080610124611165565b50505b50356001600160a01b0316610272565b005b6101416103ab565b6040516001600160a01b03909116815260200160405180910390f35b6101376103cd565b6101376004803603602081101561018457600080610181611165565b50505b50356001600160a01b03166104b4565b61019c6107ca565b604051901515815260200160405180910390f35b6101416107e6565b61019c6107f2565b6100ee600480360360208110156101df576000806101dc611165565b50505b50356001600160a01b031661082e565b6100ee610856565b6101376004803603602081101561021657600080610213611165565b50505b50356001600160a01b0316610862565b61019c6004803603602081101561024557600080610242611165565b50505b50356001600160a01b03166108cf565b600060046102616111d0565b905090565b600060026102616111d0565b600061027d82610903565b9050600081116102dc5760405162461bcd60e51b815260206004820152601f60248201527f546f6b656e56657374696e673a206e6f20746f6b656e732061726520647565006044820152606401604051809103906102d9611165565b50505b6001600160a01b0382166000908152600660205261030e908290604090206103026111d0565b9063ffffffff61093b16565b6001600160a01b0383166000908152600660205260409020819061033061122b565b50505061036360016000906103436111d0565b6001600160a01b03858116926101000a909104168363ffffffff6109a616565b7fc7798891864187665ac6dd119286e44ec13f014527aeeb2b8eb3fd413df9317982826040516001600160a01b03909216825260208201526040908101905180910390a15050565b60008060016103b86111d0565b906101000a90046001600160a01b0316905090565b6103d56107f2565b61042e5760405162461bcd60e51b815260206004820181905260248201527f4f776e61626c653a2063616c6c6572206973206e6f7420746865206f776e657260448201526064016040518091039061042b611165565b50505b6000808061043a6111d0565b906101000a90046001600160a01b03166001600160a01b03167f8be0079c531659141344cd1fd0a4f28419497f9722a3daafe3b4186f6b6457e060405160405180910390a360008060018161048d6111d0565b816001600160a01b0302191690836001600160a01b03160217906104af61122b565b505050565b6104bc6107f2565b6105155760405162461bcd60e51b815260206004820181905260248201527f4f776e61626c653a2063616c6c6572206973206e6f7420746865206f776e6572604482015260640160405180910390610512611165565b50505b600060056105216111d0565b906101000a900460ff166105845760405162461bcd60e51b815260206004820152601b60248201527f546f6b656e56657374696e673a2063616e6e6f74207265766f6b650000000000604482015260640160405180910390610581611165565b50505b6001600160a01b03811660009081526007602052604090206000906105a76111d0565b906101000a900460ff16156105f65760405162461bcd60e51b81526004018080602001828103825260238152602001806115c060239139604001915050604051809103906105f3611165565b50505b6000816001600160a01b03166370a082315a63996d79a5598160e01b8152602081600483336000905af158601d01573d60011458600c01573d6000803e3d621234565260ea61109c528051925060005b604081101561065d57600082820152602001610646565b5050506040516001600160e01b031960e084901b1681526001600160a01b039091166004820152602401602060405180830381868061069a611279565b1580156106af576000806106ac611165565b50505b505a6106b96112c5565b50505050501580156106d8573d6000803e3d60006106d5611165565b50505b505050506040513d60208110156106f7576000806106f4611165565b50505b8101908080519350600092506107109150849050610903565b90506000610724838363ffffffff610a0216565b6001600160a01b038516600090815260076020529091506001906040902060018161074d6111d0565b8160ff0219169083151502179061076261122b565b5050506107876107706107e6565b6001600160a01b038616908363ffffffff6109a616565b7f39983c6d4d174a7aee564f449d4a5c3c7ac9649d72b7793c56901183996f8af6846040516001600160a01b03909116815260200160405180910390a150505050565b60008060056107d76111d0565b906101000a900460ff16905090565b600080806103b86111d0565b600080806107fe6111d0565b906101000a90046001600160a01b03166001600160a01b031661081f610a42565b6001600160a01b031614905090565b6001600160a01b038116600090815260066020526040812061084e6111d0565b90505b919050565b600060036102616111d0565b61086a6107f2565b6108c35760405162461bcd60e51b815260206004820181905260248201527f4f776e61626c653a2063616c6c6572206973206e6f7420746865206f776e65726044820152606401604051809103906108c0611165565b50505b6108cc81610a4d565b50565b6001600160a01b03811660009081526007602052604081206000906108f26111d0565b906101000a900460ff169050919050565b6001600160a01b0381166000908152600660205261084e604082206109266111d0565b61092f84610b2b565b9063ffffffff610a0216565b60008282018381101561099d5760405162461bcd60e51b815260206004820152601b60248201527f536166654d6174683a206164646974696f6e206f766572666c6f77000000000060448201526064016040518091039061099a611165565b50505b90505b92915050565b6104af8363a9059cbb60e01b84846040516001600160a01b0390921660248301526044820152606401604051602081830303815290604052906001600160e01b0319166020820180516001600160e01b03169091179052610d3e565b600061099d838360405160408082019052601e81527f536166654d6174683a207375627472616374696f6e206f766572666c6f7700006020820152610f35565b60005a6102616113b0565b6001600160a01b038116610a9b5760405162461bcd60e51b815260040180806020018281038252602681526020018061154f6026913960400191505060405180910390610a98611165565b50505b6001600160a01b038116600080610ab06111d0565b906101000a90046001600160a01b03166001600160a01b03167f8be0079c531659141344cd1fd0a4f28419497f9722a3daafe3b4186f6b6457e060405160405180910390a3806000600181610b036111d0565b816001600160a01b0302191690836001600160a01b0316021790610b2561122b565b50505050565b600080826001600160a01b03166370a082315a63996d79a5598160e01b8152602081600483336000905af158601d01573d60011458600c01573d6000803e3d621234565260ea61109c528051925060005b6040811015610b9357600082820152602001610b7c565b5050506040516001600160e01b031960e084901b1681526001600160a01b0390911660048201526024016020604051808303818680610bd0611279565b158015610be557600080610be2611165565b50505b505a610bef6112c5565b5050505050158015610c0e573d6000803e3d6000610c0b611165565b50505b505050506040513d6020811015610c2d57600080610c2a611165565b50505b8101908080516001600160a01b038716600090815260066020529094509250610c6c9150604090508220610c5f6111d0565b839063ffffffff61093b16565b90506002610c786111d0565b5a610c816113f6565b1015610c9257600092505050610851565b610ca96004610c9f6111d0565b60036103026111d0565b5a610cb26113f6565b101580610ce857506001600160a01b0384166000908152600760205260409020600090610cdd6111d0565b906101000a900460ff165b15610cf65791506108519050565b610d356004610d036111d0565b610d29610d1c6003610d136111d0565b5a61092f6113f6565b849063ffffffff610fd516565b9063ffffffff61103416565b92505050610851565b610d50826001600160a01b0316611074565b610da95760405162461bcd60e51b815260206004820152601f60248201527f5361666545524332303a2063616c6c20746f206e6f6e2d636f6e747261637400604482015260640160405180910390610da6611165565b50505b60006060836001600160a01b0316836040518082805190602001908083835b60208310610de75780518252601f199092019160209182019101610dc8565b6001836020036101000a0380198251168184511680821785525050505050509050019150506000604051808303816000865a610e2161143c565b5050505050509150503d8060008114610e56576040513d603f01601f191681016040523d815291503d6000602084013e610e5b565b606091505b509150915081610eba5760405162461bcd60e51b815260206004820181905260248201527f5361666545524332303a206c6f772d6c6576656c2063616c6c206661696c6564604482015260640160405180910390610eb7611165565b50505b600081511115610b25576020810181516020811015610ee157600080610ede611165565b50505b8101908080519250610b259150505760405162461bcd60e51b815260040180806020018281038252602a815260200180611596602a913960400191505060405180910390610f2d611165565b505050505050565b60008184841115610fcd5760405162461bcd60e51b81526004018080602001828103825283818151815260200191508051906020019080838360005b83811015610f89578082015183820152602001610f71565b50505050905090810190601f168015610fb65780820380516001836020036101000a031916815260200191505b509250505060405180910390610fca611165565b50505b505050900390565b600082610fe4575060006109a0565b82820282848281610ff157fe5b041461099d5760405162461bcd60e51b8152600401808060200182810382526021815260200180611575602191396040019150506040518091039061099a611165565b600061099d838360405160408082019052601a81527f536166654d6174683a206469766973696f6e206279207a65726f00000000000060208201526110ba565b6000807fc5d2460186f7233c927e7db2dcc703c0e500b653ca82273b7bfad8045d85a470836110a1611502565b91508082141580156110b257508115155b949350505050565b6000818361114f5760405162461bcd60e51b81526004018080602001828103825283818151815260200191508051906020019080838360005b8381101561110b5780820151838201526020016110f3565b50505050905090810190601f1680156111385780820380516001836020036101000a031916815260200191505b50925050506040518091039061114c611165565b50505b50600083858161115b57fe5b0495945050505050565b632a2a7adb598160e01b8152600481016020815285602082015260005b8681101561119d578086015182820160400152602001611182565b506020828760640184336000905af158601d01573d60011458600c01573d6000803e3d621234565260ea61109c52505050565b6303daa959598160e01b8152836004820152602081602483336000905af158601d01573d60011458600c01573d6000803e3d621234565260ea61109c528051935060005b60408110156104af57600082820152602001611214565b6322bd64c0598160e01b8152836004820152846024820152600081604483336000905af158601d01573d60011458600c01573d6000803e3d621234565260ea61109c52600081526020611214565b638435035b598160e01b8152836004820152602081602483336000905af158601d01573d60011458600c01573d6000803e3d621234565260ea61109c5280516000825293506020611214565b638540661f598160e01b81526112f6565b80808311156109a0575090919050565b80808310156109a0575090919050565b836004820152846024820152606060448201528660648201526084810160005b8881101561132e578088015182820152602001611316565b506060828960a40184336000905af158601d01573d60011458600c01573d6000803e3d621234565260ea61109c52815160408301513d6000853e8b8b82606087013350600060045af150596113838d3d6112e6565b8c0161138f81876112d6565b5b828110156113a45760008152602001611390565b50929c50505050505050565b6373509064598160e01b8152602081600483336000905af158601d01573d60011458600c01573d6000803e3d621234565260ea61109c5280516000825293506020611214565b63bdbf8c36598160e01b8152602081600483336000905af158601d01573d60011458600c01573d6000803e3d621234565260ea61109c5280516000825293506020611214565b6385979f76598160e01b8152836004820152846024820152606060448201528760648201526084810160005b89811015611480578089015182820152602001611468565b506060828a60a40184336000905af158601d01573d60011458600c01573d6000803e3d621234565260ea61109c52815160408301513d6000853e8c8c82606087013350600060045af150596114d58e3d6112e6565b8d016114e181876112d6565b5b828110156114f657600081526020016114e2565b50929d50505050505050565b6324749d5c598160e01b8152836004820152602081602483336000905af158601d01573d60011458600c01573d6000803e3d621234565260ea61109c528051600082529350602061121456fe4f776e61626c653a206e6577206f776e657220697320746865207a65726f2061646472657373536166654d6174683a206d756c7469706c69636174696f6e206f766572666c6f775361666545524332303a204552433230206f7065726174696f6e20646964206e6f742073756363656564546f6b656e56657374696e673a20746f6b656e20616c7265616479207265766f6b6564",
  "linkReferences": {},
  "deployedLinkReferences": {}
}