{
  "_format": "hh-sol-artifact-1",
  "contractName": "DSAuth.ovm",
  "sourceName": "contracts/RubiconMarket.sol",
  "abi": [
    {
      "inputs": [],
      "payable": false,
      "stateMutability": "nonpayable",
      "type": "constructor"
    },
    {
      "anonymous": false,
      "inputs": [
        {
          "indexed": true,
          "internalType": "address",
          "name": "authority",
          "type": "address"
        }
      ],
      "name": "LogSetAuthority",
      "type": "event"
    },
    {
      "anonymous": false,
      "inputs": [
        {
          "indexed": true,
          "internalType": "address",
          "name": "owner",
          "type": "address"
        }
      ],
      "name": "LogSetOwner",
      "type": "event"
    },
    {
      "constant": true,
      "inputs": [],
      "name": "owner",
      "outputs": [
        {
          "internalType": "address",
          "name": "",
          "type": "address"
        }
      ],
      "payable": false,
      "stateMutability": "view",
      "type": "function"
    },
    {
      "constant": false,
      "inputs": [
        {
          "internalType": "address",
          "name": "owner_",
          "type": "address"
        }
      ],
      "name": "setOwner",
      "outputs": [],
      "payable": false,
      "stateMutability": "nonpayable",
      "type": "function"
    }
  ],
  "bytecode": "0x608060405234801561001057600080fd5b505a61001a61008f565b60006001816100276100ba565b816001600160a01b0302191690836001600160a01b03160217906100496100eb565b5050505a61005561008f565b6001600160a01b03167fce241d7ca1f669fee44b6fc00b8eba2df3bb514eed0f6f668f8f89096e81ed9460405160405180910390a2610127565b6373509064620800008160e01b81526020816004836000335af1806100b357600080fd5b5051925050565b630412cc4160e31b62080000908152620800048390526320966208906020816024816000335af1806100b357600080fd5b630146e59560e51b6208000090815262080004839052620800248490526328dcb2a09060008160448183335af18061012257600080fd5b505050565b61030c806101366000396000f3fe608060405234801561001057600080fd5b50600436106100365760003560e01c806313af40351461003b5780638da5cb5b14610063575b600080fd5b6100616004803603602081101561005157600080fd5b50356001600160a01b0316610087565b005b61006b610167565b604080516001600160a01b039092168252519081900360200190f35b6100985a610093610219565b610185565b6100e0576040805162461bcd60e51b8152602060048201526014602482015273191ccb585d5d1a0b5d5b985d5d1a1bdc9a5e995960621b604482015290519081900360640190fd5b8060006001816100ee610244565b816001600160a01b0302191690836001600160a01b0316021790610110610275565b5050506000809061011f610244565b906101000a90046001600160a01b03166001600160a01b03167fce241d7ca1f669fee44b6fc00b8eba2df3bb514eed0f6f668f8f89096e81ed9460405160405180910390a250565b600080610172610244565b906101000a90046001600160a01b031681565b60005a63996d79a5620800008160e01b81526020816004836000335af1806101ac57600080fd5b815193505050506001600160a01b0316826001600160a01b031614156101d457506001610214565b6000806101df610244565b906101000a90046001600160a01b03166001600160a01b0316826001600160a01b0316141561021057506001610214565b5060005b919050565b6373509064620800008160e01b81526020816004836000335af18061023d57600080fd5b5051925050565b630412cc4160e31b62080000908152620800048390526320966208906020816024816000335af18061023d57600080fd5b630146e59560e51b6208000090815262080004839052620800248490526328dcb2a09060008160448183335af1806102ac57600080fd5b50505056fea265627a7a7231582072600f1734411725095dc741f613213f656fb494fcdccfc33c6eda5d3d1ffe1d64736f6c637828302e352e31362d646576656c6f702e323032302e372e32392b636f6d6d69742e36326536346536370058",
  "linkReferences": {},
  "deployedLinkReferences": {}
}