{
  "_format": "hh-sol-artifact-1",
  "contractName": "DSAuth",
  "sourceName": "contracts/RubiconMarket.sol",
  "abi": [
    {
      "inputs": [],
      "payable": false,
      "stateMutability": "nonpayable",
      "type": "constructor"
    },
    {
      "anonymous": false,
      "inputs": [
        {
          "indexed": true,
          "internalType": "address",
          "name": "authority",
          "type": "address"
        }
      ],
      "name": "LogSetAuthority",
      "type": "event"
    },
    {
      "anonymous": false,
      "inputs": [
        {
          "indexed": true,
          "internalType": "address",
          "name": "owner",
          "type": "address"
        }
      ],
      "name": "LogSetOwner",
      "type": "event"
    },
    {
      "constant": true,
      "inputs": [],
      "name": "owner",
      "outputs": [
        {
          "internalType": "address",
          "name": "",
          "type": "address"
        }
      ],
      "payable": false,
      "stateMutability": "view",
      "type": "function"
    },
    {
      "constant": false,
      "inputs": [
        {
          "internalType": "address",
          "name": "owner_",
          "type": "address"
        }
      ],
      "name": "setOwner",
      "outputs": [],
      "payable": false,
      "stateMutability": "nonpayable",
      "type": "function"
    }
  ],
  "bytecode": "0x608060405234801561001057600080fd5b50600080546001600160a01b03191633908117825560405190917fce241d7ca1f669fee44b6fc00b8eba2df3bb514eed0f6f668f8f89096e81ed9491a26101aa8061005c6000396000f3fe608060405234801561001057600080fd5b50600436106100365760003560e01c806313af40351461003b5780638da5cb5b14610063575b600080fd5b6100616004803603602081101561005157600080fd5b50356001600160a01b0316610087565b005b61006b610124565b604080516001600160a01b039092168252519081900360200190f35b61009033610133565b6100d8576040805162461bcd60e51b8152602060048201526014602482015273191ccb585d5d1a0b5d5b985d5d1a1bdc9a5e995960621b604482015290519081900360640190fd5b600080546001600160a01b0319166001600160a01b03838116919091178083556040519116917fce241d7ca1f669fee44b6fc00b8eba2df3bb514eed0f6f668f8f89096e81ed9491a250565b6000546001600160a01b031681565b60006001600160a01b03821630141561014e57506001610170565b6000546001600160a01b038381169116141561016c57506001610170565b5060005b91905056fea265627a7a7231582060627053b8fb66f69d8edf1d9219928290879811138023effedda356161c23be64736f6c63430005100032",
  "linkReferences": {},
  "deployedLinkReferences": {}
}