{
  "_format": "hh-sol-artifact-1",
  "contractName": "BathPair",
  "sourceName": "contracts/rubiconPoolsv0/BathPair.sol",
  "abi": [
    {
      "inputs": [
        {
          "internalType": "address",
          "name": "asset",
          "type": "address"
        },
        {
          "internalType": "string",
          "name": "assetName",
          "type": "string"
        },
        {
          "internalType": "address",
          "name": "quote",
          "type": "address"
        },
        {
          "internalType": "string",
          "name": "quoteName",
          "type": "string"
        },
        {
          "internalType": "address",
          "name": "market",
          "type": "address"
        },
        {
          "internalType": "uint256",
          "name": "_reserveRatio",
          "type": "uint256"
        },
        {
          "internalType": "uint256",
          "name": "_timeDelay",
          "type": "uint256"
        },
        {
          "internalType": "uint256",
          "name": "_maxOutstandingPairCount",
          "type": "uint256"
        }
      ],
      "payable": false,
      "stateMutability": "nonpayable",
      "type": "constructor"
    },
    {
      "anonymous": false,
      "inputs": [
        {
          "indexed": false,
          "internalType": "uint256",
          "name": "",
          "type": "uint256"
        },
        {
          "indexed": false,
          "internalType": "contract ERC20",
          "name": "",
          "type": "address"
        },
        {
          "indexed": false,
          "internalType": "uint256",
          "name": "",
          "type": "uint256"
        }
      ],
      "name": "Cancel",
      "type": "event"
    },
    {
      "anonymous": false,
      "inputs": [
        {
          "indexed": false,
          "internalType": "address",
          "name": "",
          "type": "address"
        },
        {
          "indexed": false,
          "internalType": "uint256",
          "name": "",
          "type": "uint256"
        }
      ],
      "name": "LogGrossYield",
      "type": "event"
    },
    {
      "anonymous": false,
      "inputs": [
        {
          "indexed": false,
          "internalType": "string",
          "name": "",
          "type": "string"
        },
        {
          "indexed": false,
          "internalType": "uint256",
          "name": "",
          "type": "uint256"
        }
      ],
      "name": "LogNote",
      "type": "event"
    },
    {
      "anonymous": false,
      "inputs": [
        {
          "indexed": false,
          "internalType": "string",
          "name": "",
          "type": "string"
        },
        {
          "indexed": false,
          "internalType": "int128",
          "name": "",
          "type": "int128"
        }
      ],
      "name": "LogNoteI",
      "type": "event"
    },
    {
      "anonymous": false,
      "inputs": [
        {
          "indexed": false,
          "internalType": "string",
          "name": "",
          "type": "string"
        },
        {
          "components": [
            {
              "internalType": "uint256",
              "name": "pay_amt",
              "type": "uint256"
            },
            {
              "internalType": "contract ERC20",
              "name": "pay_gem",
              "type": "address"
            },
            {
              "internalType": "uint256",
              "name": "buy_amt",
              "type": "uint256"
            },
            {
              "internalType": "contract ERC20",
              "name": "buy_gem",
              "type": "address"
            }
          ],
          "indexed": false,
          "internalType": "struct BathPair.order",
          "name": "",
          "type": "tuple"
        }
      ],
      "name": "LogOffer",
      "type": "event"
    },
    {
      "anonymous": false,
      "inputs": [
        {
          "indexed": false,
          "internalType": "uint256",
          "name": "",
          "type": "uint256"
        },
        {
          "indexed": false,
          "internalType": "contract ERC20",
          "name": "",
          "type": "address"
        },
        {
          "indexed": false,
          "internalType": "uint256",
          "name": "",
          "type": "uint256"
        },
        {
          "indexed": false,
          "internalType": "contract ERC20",
          "name": "",
          "type": "address"
        }
      ],
      "name": "LogTrade",
      "type": "event"
    },
    {
      "constant": true,
      "inputs": [
        {
          "internalType": "uint256",
          "name": "",
          "type": "uint256"
        }
      ],
      "name": "ID2strategist",
      "outputs": [
        {
          "internalType": "address",
          "name": "",
          "type": "address"
        }
      ],
      "payable": false,
      "stateMutability": "view",
      "type": "function"
    },
    {
      "constant": true,
      "inputs": [],
      "name": "RubiconMarketAddress",
      "outputs": [
        {
          "internalType": "address",
          "name": "",
          "type": "address"
        }
      ],
      "payable": false,
      "stateMutability": "view",
      "type": "function"
    },
    {
      "constant": false,
      "inputs": [
        {
          "internalType": "uint256[3]",
          "name": "IDPair",
          "type": "uint256[3]"
        }
      ],
      "name": "addOutstandingPair",
      "outputs": [],
      "payable": false,
      "stateMutability": "nonpayable",
      "type": "function"
    },
    {
      "constant": true,
      "inputs": [],
      "name": "bathAssetAddress",
      "outputs": [
        {
          "internalType": "address",
          "name": "",
          "type": "address"
        }
      ],
      "payable": false,
      "stateMutability": "view",
      "type": "function"
    },
    {
      "constant": true,
      "inputs": [],
      "name": "bathHouse",
      "outputs": [
        {
          "internalType": "address",
          "name": "",
          "type": "address"
        }
      ],
      "payable": false,
      "stateMutability": "view",
      "type": "function"
    },
    {
      "constant": true,
      "inputs": [],
      "name": "bathQuoteAddress",
      "outputs": [
        {
          "internalType": "address",
          "name": "",
          "type": "address"
        }
      ],
      "payable": false,
      "stateMutability": "view",
      "type": "function"
    },
    {
      "constant": false,
      "inputs": [
        {
          "internalType": "address",
          "name": "targetStrategy",
          "type": "address"
        },
        {
          "internalType": "uint256",
          "name": "askNumerator",
          "type": "uint256"
        },
        {
          "internalType": "uint256",
          "name": "askDenominator",
          "type": "uint256"
        },
        {
          "internalType": "uint256",
          "name": "bidNumerator",
          "type": "uint256"
        },
        {
          "internalType": "uint256",
          "name": "bidDenominator",
          "type": "uint256"
        }
      ],
      "name": "executeStrategy",
      "outputs": [],
      "payable": false,
      "stateMutability": "nonpayable",
      "type": "function"
    },
    {
      "constant": false,
      "inputs": [
        {
          "internalType": "address",
          "name": "asset",
          "type": "address"
        },
        {
          "internalType": "address",
          "name": "bathTokenAddress",
          "type": "address"
        }
      ],
      "name": "getMaxOrderSize",
      "outputs": [
        {
          "internalType": "uint256",
          "name": "",
          "type": "uint256"
        }
      ],
      "payable": false,
      "stateMutability": "nonpayable",
      "type": "function"
    },
    {
      "constant": true,
      "inputs": [],
      "name": "maxOutstandingPairCount",
      "outputs": [
        {
          "internalType": "uint256",
          "name": "",
          "type": "uint256"
        }
      ],
      "payable": false,
      "stateMutability": "view",
      "type": "function"
    },
    {
      "constant": true,
      "inputs": [],
      "name": "maximumOrderSize",
      "outputs": [
        {
          "internalType": "uint256",
          "name": "",
          "type": "uint256"
        }
      ],
      "payable": false,
      "stateMutability": "view",
      "type": "function"
    },
    {
      "constant": true,
      "inputs": [
        {
          "internalType": "uint256",
          "name": "",
          "type": "uint256"
        },
        {
          "internalType": "uint256",
          "name": "",
          "type": "uint256"
        }
      ],
      "name": "outstandingPairIDs",
      "outputs": [
        {
          "internalType": "uint256",
          "name": "",
          "type": "uint256"
        }
      ],
      "payable": false,
      "stateMutability": "view",
      "type": "function"
    },
    {
      "constant": true,
      "inputs": [],
      "name": "reserveRatio",
      "outputs": [
        {
          "internalType": "uint256",
          "name": "",
          "type": "uint256"
        }
      ],
      "payable": false,
      "stateMutability": "view",
      "type": "function"
    },
    {
      "constant": false,
      "inputs": [
        {
          "internalType": "uint256",
          "name": "value",
          "type": "uint256"
        }
      ],
      "name": "setCancelTimeDelay",
      "outputs": [],
      "payable": false,
      "stateMutability": "nonpayable",
      "type": "function"
    },
    {
      "constant": false,
      "inputs": [
        {
          "internalType": "uint256",
          "name": "value",
          "type": "uint256"
        }
      ],
      "name": "setMaxOutstandingPairCount",
      "outputs": [],
      "payable": false,
      "stateMutability": "nonpayable",
      "type": "function"
    },
    {
      "constant": true,
      "inputs": [
        {
          "internalType": "address",
          "name": "",
          "type": "address"
        }
      ],
      "name": "strategist2FillsAsset",
      "outputs": [
        {
          "internalType": "uint256",
          "name": "",
          "type": "uint256"
        }
      ],
      "payable": false,
      "stateMutability": "view",
      "type": "function"
    },
    {
      "constant": true,
      "inputs": [
        {
          "internalType": "address",
          "name": "",
          "type": "address"
        }
      ],
      "name": "strategist2FillsQuote",
      "outputs": [
        {
          "internalType": "uint256",
          "name": "",
          "type": "uint256"
        }
      ],
      "payable": false,
      "stateMutability": "view",
      "type": "function"
    },
    {
      "constant": false,
      "inputs": [],
      "name": "strategistBootyClaim",
      "outputs": [],
      "payable": false,
      "stateMutability": "nonpayable",
      "type": "function"
    },
    {
      "constant": true,
      "inputs": [
        {
          "internalType": "uint256",
          "name": "",
          "type": "uint256"
        }
      ],
      "name": "strategistRecord",
      "outputs": [
        {
          "internalType": "address",
          "name": "underlyingAsset",
          "type": "address"
        },
        {
          "internalType": "address",
          "name": "bathAssetAddress",
          "type": "address"
        },
        {
          "internalType": "address",
          "name": "underlyingQuote",
          "type": "address"
        },
        {
          "internalType": "address",
          "name": "bathQuoteAddress",
          "type": "address"
        },
        {
          "internalType": "uint256",
          "name": "askNumerator",
          "type": "uint256"
        },
        {
          "internalType": "uint256",
          "name": "askDenominator",
          "type": "uint256"
        },
        {
          "internalType": "uint256",
          "name": "bidNumerator",
          "type": "uint256"
        },
        {
          "internalType": "uint256",
          "name": "bidDenominator",
          "type": "uint256"
        },
        {
          "internalType": "address",
          "name": "strategist",
          "type": "address"
        },
        {
          "internalType": "uint256",
          "name": "timestamp",
          "type": "uint256"
        }
      ],
      "payable": false,
      "stateMutability": "view",
      "type": "function"
    },
    {
      "constant": true,
      "inputs": [],
      "name": "timeDelay",
      "outputs": [
        {
          "internalType": "uint256",
          "name": "",
          "type": "uint256"
        }
      ],
      "payable": false,
      "stateMutability": "view",
      "type": "function"
    },
    {
      "constant": true,
      "inputs": [],
      "name": "underlyingAsset",
      "outputs": [
        {
          "internalType": "address",
          "name": "",
          "type": "address"
        }
      ],
      "payable": false,
      "stateMutability": "view",
      "type": "function"
    },
    {
      "constant": true,
      "inputs": [],
      "name": "underlyingQuote",
      "outputs": [
        {
          "internalType": "address",
          "name": "",
          "type": "address"
        }
      ],
      "payable": false,
      "stateMutability": "view",
      "type": "function"
    }
  ],
  "bytecode": "0x60806040523480156200001c57600080620000196200062c565b50505b5060405162008c5638038062008c568339810160408190526200003f9162000b17565b5a6200004a62000699565b600060018162000059620006f5565b816001600160a01b0302191690836001600160a01b03160217906200007d62000742565b50505060648311156200009a57600080620000976200062c565b50505b60008311620000b357600080620000b06200062c565b50505b82806007620000c162000742565b5050508160098190620000d362000742565b50505080600a8190620000e562000742565b50505087600160006101000a81620000fc620006f5565b816001600160a01b0302191690836001600160a01b03160217906200012062000742565b50505085600260006101000a8162000137620006f5565b816001600160a01b0302191690836001600160a01b03160217906200015b62000742565b50505060006040516200016e9062000791565b604051809103906000620001816200079f565b505080158015620001a1573d6000803e3d60006200019e6200062c565b50505b509050806001600160a01b031663f34822b489604051602001620001c6919062000d08565b6040516020818303038152906040528b8860008090620001e5620006f5565b906101000a90046001600160a01b03166040518563ffffffff1660e01b815260040162000216949392919062000d3a565b600060405180830381600087806200022d6200082b565b1580156200024557600080620002426200062c565b50505b505a6200025162000878565b50505050505015801562000274573d6000803e3d6000620002716200062c565b50505b5050505080600360006101000a816200028c620006f5565b816001600160a01b0302191690836001600160a01b0316021790620002b062000742565b50505060008090620002c1620006f5565b906101000a90046001600160a01b03166001600160a01b03166301df1925886040518263ffffffff1660e01b8152600401620002fe919062000d2a565b6020604051808303818680620003136200082b565b1580156200032b57600080620003286200062c565b50505b505a6200033762000970565b505050505015801562000359573d6000803e3d6000620003566200062c565b50505b50505050604051601f3d908101601f191682016040526200037e919081019062000c29565b156200048f576000808062000392620006f5565b906101000a90046001600160a01b03166001600160a01b031663d45f3aea896040518263ffffffff1660e01b8152600401620003cf919062000d2a565b6020604051808303818680620003e46200082b565b158015620003fc57600080620003f96200062c565b50505b505a6200040862000970565b50505050501580156200042a573d6000803e3d6000620004276200062c565b50505b50505050604051601f3d908101601f191682016040526200044f919081019062000ae3565b905080600460018162000461620006f5565b816001600160a01b0302191690836001600160a01b03160217906200048562000742565b50505050620005e6565b60006040516200049f9062000791565b604051809103906000620004b26200079f565b505080158015620004d2573d6000803e3d6000620004cf6200062c565b50505b509050806001600160a01b031663f34822b488604051602001620004f7919062000d08565b6040516020818303038152906040528a896000809062000516620006f5565b906101000a90046001600160a01b03166040518563ffffffff1660e01b815260040162000547949392919062000d3a565b600060405180830381600087806200055e6200082b565b1580156200057657600080620005736200062c565b50505b505a6200058262000878565b505050505050158015620005a5573d6000803e3d6000620005a26200062c565b50505b5050505080600460006101000a81620005bd620006f5565b816001600160a01b0302191690836001600160a01b0316021790620005e162000742565b505050505b846005600181620005f6620006f5565b816001600160a01b0302191690836001600160a01b03160217906200061a62000742565b50505050505050505050505062000ea9565b632a2a7adb598160e01b8152600481016020815285602082015260005b868110156200066657808601518282016040015260200162000649565b506020828760640184336000905af158600e01573d6000803e3d6000fd5b3d6001141558600a015760016000f35b505050565b6373509064598160e01b8152602081600483336000905af158600e01573d6000803e3d6000fd5b3d6001141558600a015760016000f35b8051935060005b6040811015620006f057600082820152602001620006d7565b505050565b6303daa959598160e01b8152836004820152602081602483336000905af158600e01573d6000803e3d6000fd5b3d6001141558600a015760016000f35b80516000825293506020620006d7565b6322bd64c0598160e01b8152836004820152846024820152600081604483336000905af158600e01573d6000803e3d6000fd5b3d6001141558600a015760016000f35b600081526020620006d7565b612b7e80620060d883390190565b6314aa2ff7598160e01b8152600481016020815286602082015260005b87811015620007d9578087015182820160400152602001620007bc565b506020828860640184336000905af158600e01573d6000803e3d6000fd5b3d6001141558600a015760016000f35b8151965059825b818110156200082457600081526020016200080e565b5050505050565b638435035b598160e01b8152836004820152602081602483336000905af158600e01573d6000803e3d6000fd5b3d6001141558600a015760016000f35b80516000825293506020620006d7565b6385979f76598160e01b8152620008ae565b8080831115620008975750815b92915050565b808083101562000897575090919050565b836004820152846024820152606060448201528760648201526084810160005b89811015620008e8578089015182820152602001620008ce565b506060828a60a40184336000905af158600e01573d6000803e3d6000fd5b3d6001141558600a015760016000f35b815160408301513d6000853e8c8c82606087013350600060045af150596200093f8e3d6200089d565b8d016200094d81876200088a565b5b828110156200096457600081526020016200094e565b50929d50505050505050565b638540661f598160e01b8152836004820152846024820152606060448201528660648201526084810160005b88811015620009b65780880151828201526020016200099c565b506060828960a40184336000905af158600e01573d6000803e3d6000fd5b3d6001141558600a015760016000f35b815160408301513d6000853e8b8b82606087013350600060045af1505962000a0d8d3d6200089d565b8c0162000a1b81876200088a565b5b8281101562000a32576000815260200162000a1c565b50929c50505050505050565b600081519050620008978162000e71565b600081519050620008978162000e93565b600082601f83011262000a7d5760008062000a7a6200062c565b50505b815162000a9462000a8e8262000dbb565b62000d85565b9150808252602083016020830185838301111562000abc5760008062000ab96200062c565b50505b62000ac983828462000e34565b50505092915050565b600081519050620008978162000e9e565b60006020828403121562000b015760008062000afe6200062c565b50505b600062000b0f848462000a3e565b949350505050565b600080600080600080600080610100898b03121562000b405760008062000b3d6200062c565b50505b600062000b4e8b8b62000a3e565b98505060208901516001600160401b0381111562000b765760008062000b736200062c565b50505b62000b848b828c0162000a60565b975050604062000b978b828c0162000a3e565b96505060608901516001600160401b0381111562000bbf5760008062000bbc6200062c565b50505b62000bcd8b828c0162000a60565b955050608062000be08b828c0162000a3e565b94505060a062000bf38b828c0162000ad2565b93505060c062000c068b828c0162000ad2565b92505060e062000c198b828c0162000ad2565b9150509295985092959890939650565b60006020828403121562000c475760008062000c446200062c565b50505b600062000b0f848462000a4f565b62000c608162000e06565b82525050565b62000c608162000e27565b600062000c7e8262000dee565b62000c8a818562000df8565b935062000c9c81856020860162000e34565b62000ca78162000e67565b9093019392505050565b600062000cbe8262000dee565b62000cca818562000e01565b935062000cdc81856020860162000e34565b9290920192915050565b600062000cf560048362000e01565b630c4c2e8d60e31b815260040192915050565b600062000d158262000ce6565b915062000d23828462000cb1565b9392505050565b6020810162000897828462000c55565b6080808252810162000d4d818762000c71565b905062000d5e602083018662000c66565b62000d6d604083018562000c55565b62000d7c606083018462000c55565b95945050505050565b600060405190508181018181106001600160401b038211171562000db35760008062000db06200062c565b50505b604052919050565b60006001600160401b0382111562000ddd5760008062000dda6200062c565b50505b506020601f91909101601f19160190565b6000815192915050565b90815260200190565b919050565b6000620008978262000e18565b151590565b6001600160a01b031690565b90565b6000620008978262000e06565b60005b8381101562000e5157808201518382015260200162000e37565b8381111562000e61576000848401525b50505050565b601f01601f191690565b62000e7c8162000e06565b811462000e9057600080620006f06200062c565b50565b62000e7c8162000e13565b62000e7c8162000e24565b61521f8062000eb96000396000f3fe608060405234801561001957600080610016614271565b50505b50600436106101405760003560e01c8063649fb7c3116100c15780638f259e45116100855780638f259e451461026457806398ef30411461026c578063a7001d2314610274578063ac4d352014610287578063af07acb21461028f578063c9dec3611461029757610140565b8063649fb7c31461021057806364ae722a146102235780637158da7c1461023657806371a4188b1461023e5780637d1c98fa1461025157610140565b8063575561721161010857806357556172146101c55780635a7a5cbc146101d857806360c38b28146101eb57806360f71b2414610200578063613e89931461020857610140565b8063023fa1d01461014e5780630c7d5cd8146101635780630d4741581461018157806332bdd13c146101945780633c4fc85d146101bd575b60008061014b614271565b50505b61016161015c3660046148b7565b61029f565b005b61016b6102fa565b6040516101789190615107565b60405180910390f35b61016b61018f36600461496f565b610307565b6101a76101a23660046148b7565b610341565b6040516101789a99989796959493929190614eb3565b610161610446565b6101616101d3366004614869565b6108f4565b6101616101e63660046148b7565b610a29565b6101f3610a7e565b6040516101789190614e13565b6101f3610a9c565b6101f3610aa8565b6101f361021e3660046148b7565b610ab4565b6101616102313660046147eb565b610ace565b6101f3611737565b61016b61024c366004614779565b611743565b61016b61025f366004614779565b61175b565b61016b611773565b6101f361177d565b61016b6102823660046147a8565b611789565b61016b611d1e565b6101f3611d28565b61016b611d34565b6000806102aa6142dc565b906101000a90046001600160a01b03166001600160a01b03165a6102cc614337565b6001600160a01b0316146102e8576000806102e5614271565b50505b808060096102f461437d565b50505050565b60076103046142dc565b81565b600682816103136142dc565b811061031b57fe5b9060005260206000209060030201816003811061033457fe5b01915061030490506142dc565b600e818161034d6142dc565b811061035557fe5b906000526020600020600d9091020190506000816103716142dc565b906101000a90046001600160a01b031690806001016000906103916142dc565b906101000a90046001600160a01b031690806002016000906103b16142dc565b906101000a90046001600160a01b031690806003016000906103d16142dc565b906101000a90046001600160a01b031690806004016103ee6142dc565b90806005016103fb6142dc565b90806006016104086142dc565b90806007016104156142dc565b906000600882016104246142dc565b906101000a90046001600160a01b031690806009016104416142dc565b90508a565b6000600c60005a610455614337565b6001600160a01b03166001600160a01b0316815260200190815260200160002061047d6142dc565b90506000600d60005a61048e614337565b6001600160a01b03166001600160a01b031681526020019081526020016000206104b66142dc565b905081156106d4576000600f6104ca6142dc565b600060016104d66142dc565b906101000a90046001600160a01b03166001600160a01b03166370a082315a63996d79a5598160e01b8152602081600483336000905af158600e01573d6000803e3d6000fd5b3d6001141558600a015760016000f35b8051925060005b604081101561054a57600082820152602001610533565b5050506040518263ffffffff1660e01b81526004016105699190614e13565b602060405180830381868061057c6143cb565b1580156105915760008061058e614271565b50505b505a61059b614417565b50505050501580156105ba573d6000803e3d60006105b7614271565b50505b50505050604051601f3d908101601f191682016040526105dd91908101906148de565b8402816105e657fe5b049050600060016105f56142dc565b906101000a90046001600160a01b03166001600160a01b031663a9059cbb5a61061c614337565b836040518363ffffffff1660e01b815260040161063a929190614e21565b6020604051808303816000878061064f6143cb565b15801561066457600080610661614271565b50505b505a61066e614502565b50505050505015801561068e573d6000803e3d600061068b614271565b50505b50505050604051601f3d908101601f191682016040526106b19190810190614890565b5082600f600082826106c16142dc565b0392505081906106cf61437d565b505050505b80156108f057600060106106e66142dc565b600060026106f26142dc565b906101000a90046001600160a01b03166001600160a01b03166370a082315a63996d79a5598160e01b8152602081600483336000905af158600e01573d6000803e3d6000fd5b3d6001141558600a015760016000f35b8051925060005b60408110156107665760008282015260200161074f565b5050506040518263ffffffff1660e01b81526004016107859190614e13565b60206040518083038186806107986143cb565b1580156107ad576000806107aa614271565b50505b505a6107b7614417565b50505050501580156107d6573d6000803e3d60006107d3614271565b50505b50505050604051601f3d908101601f191682016040526107f991908101906148de565b83028161080257fe5b049050600060026108116142dc565b906101000a90046001600160a01b03166001600160a01b031663a9059cbb5a610838614337565b836040518363ffffffff1660e01b8152600401610856929190614e21565b6020604051808303816000878061086b6143cb565b1580156108805760008061087d614271565b50505b505a61088a614502565b5050505050501580156108aa573d6000803e3d60006108a7614271565b50505b50505050604051601f3d908101601f191682016040526108cd9190810190614890565b50816010600082826108dd6142dc565b0392505081906108eb61437d565b505050505b5050565b5a6108fd614337565b6000806109086142dc565b906101000a90046001600160a01b03166001600160a01b03166386cbe027826040518263ffffffff1660e01b81526004016109439190614e13565b60206040518083038186806109566143cb565b15801561096b57600080610968614271565b50505b505a610975614417565b5050505050158015610994573d6000803e3d6000610991614271565b50505b50505050604051601f3d908101601f191682016040526109b79190810190614890565b15156001146109ea5760405162461bcd60e51b81526004016109d890614fc8565b604051809103906109e7614271565b50505b816006806001816109f96142dc565b018082610a0461437d565b5050600092835291600019830191506020902091926102f492600392830201916145c8565b600080610a346142dc565b906101000a90046001600160a01b03166001600160a01b03165a610a56614337565b6001600160a01b031614610a7257600080610a6f614271565b50505b8080600a6102f461437d565b600080610a896142dc565b906101000a90046001600160a01b031681565b60006005610a896142dc565b60006002610a896142dc565b600b60205280600052604060002060009150610a896142dc565b84600080610ada6142dc565b906101000a90046001600160a01b03166001600160a01b03166386cbe027826040518263ffffffff1660e01b8152600401610b159190614e13565b6020604051808303818680610b286143cb565b158015610b3d57600080610b3a614271565b50505b505a610b47614417565b5050505050158015610b66573d6000803e3d6000610b63614271565b50505b50505050604051601f3d908101601f19168201604052610b899190810190614890565b1515600114610bbc5760405162461bcd60e51b8152600401610baa90614fc8565b60405180910390610bb9614271565b50505b60006001610bc86142dc565b6001600160a01b036101009290920a9004166370a0823160006003610beb6142dc565b906101000a90046001600160a01b03166040518263ffffffff1660e01b8152600401610c179190614e13565b6020604051808303818680610c2a6143cb565b158015610c3f57600080610c3c614271565b50505b505a610c49614417565b5050505050158015610c68573d6000803e3d6000610c65614271565b50505b50505050604051601f3d908101601f19168201604052610c8b91908101906148de565b60646007610c976142dc565b60006003610ca36142dc565b906101000a90046001600160a01b03166001600160a01b03166318160ddd6040518163ffffffff1660e01b81526004016020604051808303818680610ce66143cb565b158015610cfb57600080610cf8614271565b50505b505a610d05614417565b5050505050158015610d24573d6000803e3d6000610d21614271565b50505b50505050604051601f3d908101601f19168201604052610d4791908101906148de565b0281610d4f57fe5b041115610d6457600080610d61614271565b50505b60006002610d706142dc565b6001600160a01b036101009290920a9004166370a0823160006004610d936142dc565b906101000a90046001600160a01b03166040518263ffffffff1660e01b8152600401610dbf9190614e13565b6020604051808303818680610dd26143cb565b158015610de757600080610de4614271565b50505b505a610df1614417565b5050505050158015610e10573d6000803e3d6000610e0d614271565b50505b50505050604051601f3d908101601f19168201604052610e3391908101906148de565b60646007610e3f6142dc565b60006004610e4b6142dc565b906101000a90046001600160a01b03166001600160a01b03166318160ddd6040518163ffffffff1660e01b81526004016020604051808303818680610e8e6143cb565b158015610ea357600080610ea0614271565b50505b505a610ead614417565b5050505050158015610ecc573d6000803e3d6000610ec9614271565b50505b50505050604051601f3d908101601f19168201604052610eef91908101906148de565b0281610ef757fe5b041115610f0c57600080610f09614271565b50505b600085118015610f1c5750600084115b8015610f285750600083115b8015610f345750600082115b610f4657600080610f43614271565b50505b610f8760006001610f556142dc565b906101000a90046001600160a01b03166003600090610f726142dc565b906101000a90046001600160a01b0316611789565b851115610fb85760405162461bcd60e51b8152600401610fa6906150e7565b60405180910390610fb5614271565b50505b610fe460006002610fc76142dc565b906101000a90046001600160a01b03166004600090610f726142dc565b8311156110155760405162461bcd60e51b815260040161100390615077565b60405180910390611012614271565b50505b61102185858585611d3e565b6001600160a01b038616639958525f6000600161103c6142dc565b906101000a90046001600160a01b031660036000906110596142dc565b906101000a90046001600160a01b031660026000906110766142dc565b906101000a90046001600160a01b031660046000906110936142dc565b906101000a90046001600160a01b03168a8a8a8a6040518963ffffffff1660e01b81526004016110ca989796959493929190614e3c565b600060405180830381600087806110df6143cb565b1580156110f4576000806110f1614271565b50505b505a6110fe614502565b50505050505015801561111e573d6000803e3d600061111b614271565b50505b50505050600e6040516101608101604052806000600161113c6142dc565b6001600160a01b036101009290920a90041681526020016000600361115f6142dc565b6001600160a01b036101009290920a9004168152602001600060026111826142dc565b6001600160a01b036101009290920a9004168152602001600060046111a56142dc565b906101000a90046001600160a01b03166001600160a01b031681526020018781526020018681526020018581526020018481526020015a6111e4614337565b6001600160a01b031681526020015a6111fb61460f565b8152602001611208611ff6565b905290806001816112176142dc565b01808261122261437d565b50506000928352916000198301915060209020919291600d9091020181518160018161124c6142dc565b816001600160a01b0302191690836001600160a01b031602179061126e61437d565b5050506020820151600180830190816112856142dc565b816001600160a01b0302191690836001600160a01b03160217906112a761437d565b5050506040820151600282016001816112be6142dc565b816001600160a01b0302191690836001600160a01b03160217906112e061437d565b5050506060820151600382016001816112f76142dc565b816001600160a01b0302191690836001600160a01b031602179061131961437d565b50505060808201518160040161132d61437d565b505060a08201518160050161134061437d565b505060c08201518160060161135361437d565b505060e08201518160070161136661437d565b50506101008201516008820160018161137d6142dc565b816001600160a01b0302191690836001600160a01b031602179061139f61437d565b505050610120820151816009016113b461437d565b50506101408201516113cc90600a8301906003614655565b505050506113d86120c3565b6113e06129a5565b600060016113ec6142dc565b6001600160a01b036101009290920a9004166370a082316000600361140f6142dc565b906101000a90046001600160a01b03166040518263ffffffff1660e01b815260040161143b9190614e13565b602060405180830381868061144e6143cb565b15801561146357600080611460614271565b50505b505a61146d614417565b505050505015801561148c573d6000803e3d6000611489614271565b50505b50505050604051601f3d908101601f191682016040526114af91908101906148de565b606460076114bb6142dc565b600060036114c76142dc565b906101000a90046001600160a01b03166001600160a01b03166318160ddd6040518163ffffffff1660e01b8152600401602060405180830381868061150a6143cb565b15801561151f5760008061151c614271565b50505b505a611529614417565b5050505050158015611548573d6000803e3d6000611545614271565b50505b50505050604051601f3d908101601f1916820160405261156b91908101906148de565b028161157357fe5b04111561158857600080611585614271565b50505b600060026115946142dc565b6001600160a01b036101009290920a9004166370a08231600060046115b76142dc565b906101000a90046001600160a01b03166040518263ffffffff1660e01b81526004016115e39190614e13565b60206040518083038186806115f66143cb565b15801561160b57600080611608614271565b50505b505a611615614417565b5050505050158015611634573d6000803e3d6000611631614271565b50505b50505050604051601f3d908101601f1916820160405261165791908101906148de565b606460076116636142dc565b6000600461166f6142dc565b906101000a90046001600160a01b03166001600160a01b03166318160ddd6040518163ffffffff1660e01b815260040160206040518083038186806116b26143cb565b1580156116c7576000806116c4614271565b50505b505a6116d1614417565b50505050501580156116f0573d6000803e3d60006116ed614271565b50505b50505050604051601f3d908101601f1916820160405261171391908101906148de565b028161171b57fe5b0411156108eb5760008061172d614271565b5050505050505050565b60006001610a896142dc565b600d60205280600052604060002090506103046142dc565b600c60205280600052604060002090506103046142dc565b600a6103046142dc565b60006003610a896142dc565b60008060016117966142dc565b906101000a90046001600160a01b03166001600160a01b0316836001600160a01b031614806117f15750600060026117cc6142dc565b906101000a90046001600160a01b03166001600160a01b0316836001600160a01b0316145b61180357600080611800614271565b50505b603260006001600160a01b0385166370a08231856040518263ffffffff1660e01b81526004016118339190614e13565b60206040518083038186806118466143cb565b15801561185b57600080611858614271565b50505b505a611865614417565b5050505050158015611884573d6000803e3d6000611881614271565b50505b50505050604051601f3d908101601f191682016040526118a791908101906148de565b90506000805160206151bf833981519152816040516118c69190615027565b60405180910390a16000805160206151bf833981519152600060026118e96142dc565b6001600160a01b036101009290920a9004166370a082316000600461190c6142dc565b906101000a90046001600160a01b03166040518263ffffffff1660e01b81526004016119389190614e13565b602060405180830381868061194b6143cb565b1580156119605760008061195d614271565b50505b505a61196a614417565b5050505050158015611989573d6000803e3d6000611986614271565b50505b50505050604051601f3d908101601f191682016040526119ac91908101906148de565b6040516119b991906150b7565b60405180910390a160006119d16004196103e8612fa2565b90506000805160206151df833981519152816040516119f091906150c7565b60405180910390a160006001611a046142dc565b906101000a90046001600160a01b03166001600160a01b0316866001600160a01b03161415611c68576000611b0683826002611a3e6142dc565b6001600160a01b036101009290920a9004166370a0823160006004611a616142dc565b906101000a90046001600160a01b03166040518263ffffffff1660e01b8152600401611a8d9190614e13565b6020604051808303818680611aa06143cb565b158015611ab557600080611ab2614271565b50505b505a611abf614417565b5050505050158015611ade573d6000803e3d6000611adb614271565b50505b50505050604051601f3d908101601f19168201604052611b0191908101906148de565b61300e565b90506000805160206151df83398151915281604051611b259190614fe8565b60405180910390a1600160401b611b4382611b3e613054565b6132b6565b600f0b1315611b84576000805160206151bf833981519152606485850204604051611b6e9190615017565b60405180910390a1505060649102049050611d18565b6064838502046000805160206151bf83398151915281604051611ba79190615047565b60405180910390a16000611bc4611bbc6132f2565b611b016132f9565b90506000805160206151df83398151915281604051611be39190615097565b60405180910390a16000611bff611bfa86866132b6565b613300565b90506000805160206151df83398151915281604051611c1e91906150a7565b60405180910390a16000611c328285613366565b90506000805160206151bf83398151915281604051611c519190615007565b60405180910390a19750611d189650505050505050565b60006002611c746142dc565b906101000a90046001600160a01b03166001600160a01b0316866001600160a01b03161415611d14576000611cd183826001611cae6142dc565b6001600160a01b036101009290920a9004166370a0823160006003611a616142dc565b9050600160401b611ce982611ce4613054565b612fa2565b600f0b1315611b84576000805160206151bf833981519152606485850204604051611b6e9190614f99565b5050505b92915050565b60086103046142dc565b60006004610a896142dc565b60096103046142dc565b82820281850210611d735760405162461bcd60e51b8152600401611d6190615067565b60405180910390611d70614271565b50505b6000806005611d806142dc565b6001600160a01b036101009290920a900416630374fc6f60006001611da36142dc565b906101000a90046001600160a01b03166002600090611dc06142dc565b906101000a90046001600160a01b03166040518363ffffffff1660e01b8152600401611ded929190614f7e565b6020604051808303818680611e006143cb565b158015611e1557600080611e12614271565b50505b505a611e1f614417565b5050505050158015611e3e573d6000803e3d6000611e3b614271565b50505b50505050604051601f3d908101601f19168201604052611e6191908101906148de565b90506000806005611e706142dc565b6001600160a01b036101009290920a900416630374fc6f60006002611e936142dc565b906101000a90046001600160a01b03166001600090611eb06142dc565b906101000a90046001600160a01b03166040518363ffffffff1660e01b8152600401611edd929190614f7e565b6020604051808303818680611ef06143cb565b158015611f0557600080611f02614271565b50505b505a611f0f614417565b5050505050158015611f2e573d6000803e3d6000611f2b614271565b50505b50505050604051601f3d908101601f19168201604052611f5191908101906148de565b9050611f5b61468c565b611f64836133e9565b9050611f6e61468c565b611f77836133e9565b9050868160400151028151890210611fb35760405162461bcd60e51b8152600401611fa190615087565b60405180910390611fb0614271565b50505b85826040015102858351021061172d5760405162461bcd60e51b8152600401611fdb906150d7565b60405180910390611fea614271565b50505050505050505050565b611ffe6146b2565b5a61200761460f565b600660016006806120166142dc565b905003816120226142dc565b811061202a57fe5b9060005260206000206003909102016002016120446142dc565b1461205757600080612054614271565b50505b600660016006806120666142dc565b905003816120726142dc565b811061207a57fe5b90600052602060002060039182020190606060405190810160405291906060830182845b816120a76142dc565b8152602001906001019080831161209e57505050505090505b90565b600a6120cd6142dc565b6006806120d86142dc565b9050106121095760405162461bcd60e51b81526004016120f790614fb8565b60405180910390612106614271565b50505b60005b6006806121176142dc565b90508110156129a15761212861468c565b61215f600683816121376142dc565b811061213f57fe5b90600052602060002060039091020160005b0161215a6142dc565b6133e9565b905061216961468c565b612196600684816121786142dc565b811061218057fe5b9060005260206000206003909102016001612151565b905081511580156121b45750600060208301516001600160a01b0316145b80156121c257508160400151155b80156121db5750600060608301516001600160a01b0316145b801561222957508051158015906122005750600060208201516001600160a01b031614155b801561220f5750806040015115155b80156122295750600060608201516001600160a01b031614155b156123c2576000600461223a6142dc565b906101000a90046001600160a01b03166001600160a01b03166340e58ee5600685816122646142dc565b811061226c57fe5b9060005260206000206003909102016001016122866142dc565b6040518263ffffffff1660e01b81526004016122a29190615107565b600060405180830381600087806122b76143cb565b1580156122cc576000806122c9614271565b50505b505a6122d6614502565b5050505050501580156122f6573d6000803e3d60006122f3614271565b50505b505050506000805160206151ff833981519152600684816123156142dc565b811061231d57fe5b9060005260206000206003909102016001016123376142dc565b8360200151845160405161234d93929190615115565b60405180910390a1600683816123616142dc565b811061236957fe5b906000526020600020612381916003020160006146ce565b6123ba600684816123906142dc565b811061239857fe5b90600052602060002060039091020160005b016123b36142dc565b60006134f5565b5050506129a3565b8151158015906123e05750600060208301516001600160a01b031614155b80156123ef5750816040015115155b80156124095750600060208301516001600160a01b031614155b80156124535750805115801561242c5750600060208201516001600160a01b0316145b801561243a57508060400151155b80156124535750600060608201516001600160a01b0316145b156125e057600060036124646142dc565b906101000a90046001600160a01b03166001600160a01b03166340e58ee56006858161248e6142dc565b811061249657fe5b906000526020600020600391909102016124ae6142dc565b6040518263ffffffff1660e01b81526004016124ca9190615107565b600060405180830381600087806124df6143cb565b1580156124f4576000806124f1614271565b50505b505a6124fe614502565b50505050505015801561251e573d6000803e3d600061251b614271565b50505b505050506000805160206151ff8339815191526006848161253d6142dc565b811061254557fe5b9060005260206000206003919091020161255d6142dc565b8260200151835160405161257393929190615115565b60405180910390a1600683816125876142dc565b811061258f57fe5b9060005260206000206125a7916003020160006146ce565b6123ba600684816125b66142dc565b81106125be57fe5b90600052602060002060039091020160015b016125d96142dc565b60016134f5565b8151158015906125fe5750600060208301516001600160a01b031614155b801561260d5750816040015115155b80156126275750600060208301516001600160a01b031614155b8015612675575080511580159061264c5750600060208201516001600160a01b031614155b801561265b5750806040015115155b80156126755750600060608201516001600160a01b031614155b156129975760096126846142dc565b5a61268d61460f565b036006848161269a6142dc565b81106126a257fe5b9060005260206000206003909102016002016126bc6142dc565b101561293d57600060036126ce6142dc565b906101000a90046001600160a01b03166001600160a01b03166340e58ee5600685816126f86142dc565b811061270057fe5b906000526020600020600391909102016127186142dc565b6040518263ffffffff1660e01b81526004016127349190615107565b600060405180830381600087806127496143cb565b15801561275e5760008061275b614271565b50505b505a612768614502565b505050505050158015612788573d6000803e3d6000612785614271565b50505b505050506000805160206151ff833981519152600684816127a76142dc565b81106127af57fe5b906000526020600020600391909102016127c76142dc565b826020015183516040516127dd93929190615115565b60405180910390a1600060036127f16142dc565b906101000a90046001600160a01b03166001600160a01b03166340e58ee56006858161281b6142dc565b811061282357fe5b90600052602060002060039091020160010161283d6142dc565b6040518263ffffffff1660e01b81526004016128599190615107565b6000604051808303816000878061286e6143cb565b15801561288357600080612880614271565b50505b505a61288d614502565b5050505050501580156128ad573d6000803e3d60006128aa614271565b50505b505050506000805160206151ff833981519152600684816128cc6142dc565b81106128d457fe5b9060005260206000206003909102016001016128ee6142dc565b8260200151835160405161290493929190615115565b60405180910390a1600683816129186142dc565b811061292057fe5b906000526020600020612938916003020160006146ce565b612997565b61296a6006848161294c6142dc565b811061295457fe5b90600052602060002060039091020160016123aa565b612997600684816129796142dc565b811061298157fe5b90600052602060002060039091020160006125d0565b505060010161210c565b505b565b60008060026129b26142dc565b6001600160a01b036101009290920a9004166370a08231600060036129d56142dc565b906101000a90046001600160a01b03166040518263ffffffff1660e01b8152600401612a019190614e13565b6020604051808303818680612a146143cb565b158015612a2957600080612a26614271565b50505b505a612a33614417565b5050505050158015612a52573d6000803e3d6000612a4f614271565b50505b50505050604051601f3d908101601f19168201604052612a7591908101906148de565b90506000806001612a846142dc565b6001600160a01b036101009290920a9004166370a0823160006004612aa76142dc565b906101000a90046001600160a01b03166040518263ffffffff1660e01b8152600401612ad39190614e13565b6020604051808303818680612ae66143cb565b158015612afb57600080612af8614271565b50505b505a612b05614417565b5050505050158015612b24573d6000803e3d6000612b21614271565b50505b50505050604051601f3d908101601f19168201604052612b4791908101906148de565b90508115612c795760006003612b5b6142dc565b6001600160a01b036101009290920a90041663b3f865f760006004612b7e6142dc565b906101000a90046001600160a01b03166002600090612b9b6142dc565b906101000a90046001600160a01b031660056040518463ffffffff1660e01b8152600401612bcb93929190614f48565b60006040518083038160008780612be06143cb565b158015612bf557600080612bf2614271565b50505b505a612bff614502565b505050505050158015612c1f573d6000803e3d6000612c1c614271565b50505b505050507fe75bdd3aabe6a577fc304e4dd38b1f51d87462047d87241a8b36804dedfdd2776004600090612c516142dc565b906101000a90046001600160a01b031683604051612c70929190614f70565b60405180910390a15b8015612da95760006004612c8b6142dc565b6001600160a01b036101009290920a90041663b3f865f760006003612cae6142dc565b906101000a90046001600160a01b03166001600090612ccb6142dc565b906101000a90046001600160a01b031660056040518463ffffffff1660e01b8152600401612cfb93929190614f48565b60006040518083038160008780612d106143cb565b158015612d2557600080612d22614271565b50505b505a612d2f614502565b505050505050158015612d4f573d6000803e3d6000612d4c614271565b50505b505050507fe75bdd3aabe6a577fc304e4dd38b1f51d87462047d87241a8b36804dedfdd2776003600090612d816142dc565b906101000a90046001600160a01b031682604051612da0929190614f70565b60405180910390a15b60006001612db56142dc565b6001600160a01b036101009290920a9004166370a0823160006004612dd86142dc565b906101000a90046001600160a01b03166040518263ffffffff1660e01b8152600401612e049190614e13565b6020604051808303818680612e176143cb565b158015612e2c57600080612e29614271565b50505b505a612e36614417565b5050505050158015612e55573d6000803e3d6000612e52614271565b50505b50505050604051601f3d908101601f19168201604052612e7891908101906148de565b15612ea75760405162461bcd60e51b8152600401612e95906150f7565b60405180910390612ea4614271565b50505b60006002612eb36142dc565b6001600160a01b036101009290920a9004166370a0823160006003612ed66142dc565b906101000a90046001600160a01b03166040518263ffffffff1660e01b8152600401612f029190614e13565b6020604051808303818680612f156143cb565b158015612f2a57600080612f27614271565b50505b505a612f34614417565b5050505050158015612f53573d6000803e3d6000612f50614271565b50505b50505050604051601f3d908101601f19168201604052612f7691908101906148de565b156108f05760405162461bcd60e51b8152600401612f93906150f7565b604051809103906102f4614271565b600081600f0b60001415612fbe57600080612fbb614271565b50505b600082600f0b604085600f0b901b81612fd357fe5b05905060016001607f1b03198112801590612ff5575060016001607f1b038113155b61300757600080613004614271565b50505b9392505050565b60008161302357600080613020614271565b50505b600061302f848461363f565b905060016001607f1b036001600160801b038216111561300757600080613004614271565b6000808060056130626142dc565b6001600160a01b036101009290920a900416630374fc6f600060016130856142dc565b906101000a90046001600160a01b031660026000906130a26142dc565b906101000a90046001600160a01b03166040518363ffffffff1660e01b81526004016130cf929190614f7e565b60206040518083038186806130e26143cb565b1580156130f7576000806130f4614271565b50505b505a613101614417565b5050505050158015613120573d6000803e3d600061311d614271565b50505b50505050604051601f3d908101601f1916820160405261314391908101906148de565b905060008060056131526142dc565b6001600160a01b036101009290920a900416630374fc6f600060026131756142dc565b906101000a90046001600160a01b031660016000906131926142dc565b906101000a90046001600160a01b03166040518363ffffffff1660e01b81526004016131bf929190614f7e565b60206040518083038186806131d26143cb565b1580156131e7576000806131e4614271565b50505b505a6131f1614417565b5050505050158015613210573d6000803e3d600061320d614271565b50505b50505050604051601f3d908101601f1916820160405261323391908101906148de565b905061323d61468c565b613246836133e9565b905061325061468c565b613259836133e9565b90506000613286826040015183518161326e57fe5b04845185604001518161327d57fe5b0401600261300e565b90506000805160206151df833981519152816040516132a59190615037565b60405180910390a194505050505090565b6000600f83810b9083900b0260401d60016001607f1b03198112801590612ff5575060016001607f1b0381131561300757600080613004614271565b620425d490565b620186a090565b6000600160461b82600f0b1261331e5760008061331b614271565b50505b683fffffffffffffffff1982600f0b121561333b57506000613361565b61335e608083600f0b700171547652b82fe1777d0ffda0d23a7d1202901d6137a1565b90505b919050565b60008161337557506000611d18565b600083600f0b121561338f5760008061338c614271565b50505b600f83900b6001600160801b038316810260401c90608084901c026001600160c01b038111156133c7576000806133c4614271565b50505b60401b81198111156133e1576000806133de614271565b50505b019392505050565b6133f161468c565b60008080808060056134016142dc565b906101000a90046001600160a01b03166001600160a01b0316634579268a876040518263ffffffff1660e01b815260040161343c9190615107565b608060405180830381868061344f6143cb565b15801561346457600080613461614271565b50505b505a61346e614417565b505050505015801561348d573d6000803e3d600061348a614271565b50505b50505050604051601f3d908101601f191682016040526134b09190810190614905565b93509350935093506134c061468c565b6040516080810160409081529581526001600160a01b0394851660208201529485019290925290911660608301525092915050565b6000828152600b6020526040812060009061350e6142dc565b906101000a90046001600160a01b0316905081156135b2576001600160a01b0381166000908152600c602052600190604090206000828261354d6142dc565b01925050819061355b61437d565b5050506001600f6000828261356e6142dc565b01925050819061357c61437d565b5050506000805160206151bf833981519152600f6135986142dc565b6040516135a59190615057565b60405180910390a161363a565b6001600160a01b0381166000908152600d60205260019060409020600082826135d96142dc565b0192505081906135e761437d565b50505060016010600082826135fa6142dc565b01925050819061360861437d565b5050506000805160206151bf83398151915260106136246142dc565b6040516136319190614fd8565b60405180910390a15b505050565b60008161365457600080613651614271565b50505b60006001600160c01b0384116136795782604085901b8161367157fe5b049050613787565b60c084811c6401000000008110613692576020918201911c5b6201000081106136a4576010918201911c5b61010081106136b5576008918201911c5b601081106136c5576004918201911c5b600481106136d5576002918201911c5b600281106136e4576001820191505b60bf820360018603901c6001018260ff0387901b816136ff57fe5b0492506001600160801b0383111561371f5760008061371c614271565b50505b608085901c83026001600160801b038616840260c088901c604089901b8281101561374b576001820391505b608084901b92900382811015613762576001820391505b829003608084901c821461377257fe5b88818161377b57fe5b04870196505050505050505b6001600160801b0381111561300757600080613004614271565b6000600160461b82600f0b126137bf576000806137bc614271565b50505b683fffffffffffffffff1982600f0b12156137dc57506000613361565b6001607f1b60006780000000000000008416600f0b131561380e5770016a09e667f3bcc908b2fb1366ea957d3e0260801c5b60008367400000000000000016600f0b131561383b577001306fe0a31b7152de8d5a46305c85edec0260801c5b60008367200000000000000016600f0b1315613868577001172b83c7d517adcdf7c8c50eb14a791f0260801c5b60008367100000000000000016600f0b13156138955770010b5586cf9890f6298b92b71842a983630260801c5b60008367080000000000000016600f0b13156138c2577001059b0d31585743ae7c548eb68ca417fd0260801c5b60008367040000000000000016600f0b13156138ef57700102c9a3e778060ee6f7caca4f7a29bde80260801c5b60008367020000000000000016600f0b131561391c5770010163da9fb33356d84a66ae336dcdfa3f0260801c5b60008367010000000000000016600f0b131561394957700100b1afa5abcbed6129ab13ec11dc95430260801c5b600083668000000000000016600f0b13156139755770010058c86da1c09ea1ff19d294cf2f679b0260801c5b600083664000000000000016600f0b13156139a1577001002c605e2e8cec506d21bfc89a23a00f0260801c5b600083662000000000000016600f0b13156139cd57700100162f3904051fa128bca9c55c31e5df0260801c5b600083661000000000000016600f0b13156139f9577001000b175effdc76ba38e31671ca9397250260801c5b600083660800000000000016600f0b1315613a2557700100058ba01fb9f96d6cacd4b180917c3d0260801c5b600083660400000000000016600f0b1315613a515770010002c5cc37da9491d0985c348c68e7b30260801c5b600083660200000000000016600f0b1315613a7d577001000162e525ee054754457d59952920260260801c5b600083660100000000000016600f0b1315613aa95770010000b17255775c040618bf4a4ade83fc0260801c5b6000836580000000000016600f0b1315613ad4577001000058b91b5bc9ae2eed81e9b7d4cfab0260801c5b6000836540000000000016600f0b1315613aff57700100002c5c89d5ec6ca4d7c8acc017b7c90260801c5b6000836520000000000016600f0b1315613b2a5770010000162e43f4f831060e02d839a9d16d0260801c5b6000836510000000000016600f0b1315613b5557700100000b1721bcfc99d9f890ea069117630260801c5b6000836508000000000016600f0b1315613b805770010000058b90cf1e6d97f9ca14dbcc16280260801c5b6000836504000000000016600f0b1315613bab577001000002c5c863b73f016468f6bac5ca2b0260801c5b6000836502000000000016600f0b1315613bd657700100000162e430e5a18f6119e3c02282a50260801c5b6000836501000000000016600f0b1315613c01577001000000b1721835514b86e6d96efd1bfe0260801c5b60008364800000000016600f0b1315613c2b57700100000058b90c0b48c6be5df846c5b2ef0260801c5b60008364400000000016600f0b1315613c555770010000002c5c8601cc6b9e94213c72737a0260801c5b60008364200000000016600f0b1315613c7f577001000000162e42fff037df38aa2b219f060260801c5b60008364100000000016600f0b1315613ca95770010000000b17217fba9c739aa5819f44f90260801c5b60008364080000000016600f0b1315613cd3577001000000058b90bfcdee5acd3c1cedc8230260801c5b60008364040000000016600f0b1315613cfd57700100000002c5c85fe31f35a6a30da1be500260801c5b60008364020000000016600f0b1315613d275770010000000162e42ff0999ce3541b9fffcf0260801c5b60008364010000000016600f0b1315613d5157700100000000b17217f80f4ef5aadda455540260801c5b600083638000000016600f0b1315613d7a5770010000000058b90bfbf8479bd5a81b51ad0260801c5b600083634000000016600f0b1315613da3577001000000002c5c85fdf84bd62ae30a74cc0260801c5b600083632000000016600f0b1315613dcc57700100000000162e42fefb2fed257559bdaa0260801c5b600083631000000016600f0b1315613df5577001000000000b17217f7d5a7716bba4a9ae0260801c5b600083630800000016600f0b1315613e1e57700100000000058b90bfbe9ddbac5e109cce0260801c5b600083630400000016600f0b1315613e475770010000000002c5c85fdf4b15de6f17eb0d0260801c5b600083630200000016600f0b1315613e70577001000000000162e42fefa494f1478fde050260801c5b600083630100000016600f0b1315613e995770010000000000b17217f7d20cf927c8e94c0260801c5b6000836280000016600f0b1315613ec1577001000000000058b90bfbe8f71cb4e4b33d0260801c5b6000836240000016600f0b1315613ee957700100000000002c5c85fdf477b662b269450260801c5b6000836220000016600f0b1315613f115770010000000000162e42fefa3ae53369388c0260801c5b6000836210000016600f0b1315613f3957700100000000000b17217f7d1d351a389d400260801c5b6000836208000016600f0b1315613f615770010000000000058b90bfbe8e8b2d3d4ede0260801c5b6000836204000016600f0b1315613f89577001000000000002c5c85fdf4741bea6e77e0260801c5b6000836202000016600f0b1315613fb157700100000000000162e42fefa39fe95583c20260801c5b6000836201000016600f0b1315613fd9577001000000000000b17217f7d1cfb72b45e10260801c5b60008361800016600f0b131561400057700100000000000058b90bfbe8e7cc35c3f00260801c5b60008361400016600f0b13156140275770010000000000002c5c85fdf473e242ea380260801c5b60008361200016600f0b131561404e577001000000000000162e42fefa39f02b772c0260801c5b60008361100016600f0b13156140755770010000000000000b17217f7d1cf7d83c1a0260801c5b60008361080016600f0b131561409c577001000000000000058b90bfbe8e7bdcbe2e0260801c5b60008361040016600f0b13156140c357700100000000000002c5c85fdf473dea871f0260801c5b60008361020016600f0b13156140ea5770010000000000000162e42fefa39ef44d910260801c5b60008361010016600f0b131561411157700100000000000000b17217f7d1cf79e9490260801c5b600083608016600f0b13156141375770010000000000000058b90bfbe8e7bce5440260801c5b600083604016600f0b131561415d577001000000000000002c5c85fdf473de6eca0260801c5b600083602016600f0b131561418357700100000000000000162e42fefa39ef366f0260801c5b600083601016600f0b13156141a9577001000000000000000b17217f7d1cf79afa0260801c5b600083600816600f0b13156141cf57700100000000000000058b90bfbe8e7bcd6d0260801c5b600083600416600f0b13156141f55770010000000000000002c5c85fdf473de6b20260801c5b600083600216600f0b131561421b577001000000000000000162e42fefa39ef3580260801c5b600083600116600f0b13156142415770010000000000000000b17217f7d1cf79ab0260801c5b600f83810b60401d603f03900b1c60016001607f1b0381111561335e57600080614269614271565b505092915050565b632a2a7adb598160e01b8152600481016020815285602082015260005b868110156142a957808601518282016040015260200161428e565b506020828760640184336000905af158600e01573d6000803e3d6000fd5b3d6001141558600a015760016000f35b505050565b6303daa959598160e01b8152836004820152602081602483336000905af158600e01573d6000803e3d6000fd5b3d6001141558600a015760016000f35b8051935060005b604081101561363a57600082820152602001614320565b6373509064598160e01b8152602081600483336000905af158600e01573d6000803e3d6000fd5b3d6001141558600a015760016000f35b80516000825293506020614320565b6322bd64c0598160e01b8152836004820152846024820152600081604483336000905af158600e01573d6000803e3d6000fd5b3d6001141558600a015760016000f35b600081526020614320565b638435035b598160e01b8152836004820152602081602483336000905af158600e01573d6000803e3d6000fd5b3d6001141558600a015760016000f35b80516000825293506020614320565b638540661f598160e01b8152614448565b8080831115611d18575090919050565b8080831015611d18575090919050565b836004820152846024820152606060448201528660648201526084810160005b88811015614480578088015182820152602001614468565b506060828960a40184336000905af158600e01573d6000803e3d6000fd5b3d6001141558600a015760016000f35b815160408301513d6000853e8b8b82606087013350600060045af150596144d58d3d614438565b8c016144e18187614428565b5b828110156144f657600081526020016144e2565b50929c50505050505050565b6385979f76598160e01b8152836004820152846024820152606060448201528760648201526084810160005b8981101561454657808901518282015260200161452e565b506060828a60a40184336000905af158600e01573d6000803e3d6000fd5b3d6001141558600a015760016000f35b815160408301513d6000853e8c8c82606087013350600060045af1505961459b8e3d614438565b8d016145a78187614428565b5b828110156145bc57600081526020016145a8565b50929d50505050505050565b82600381019282156145ff579160200282015b828111156145ff578235826145ee61437d565b5050916020019190600101906145db565b5061460b9291506146fa565b5090565b63bdbf8c36598160e01b8152602081600483336000905af158600e01573d6000803e3d6000fd5b3d6001141558600a015760016000f35b80516000825293506020614320565b82600381019282156145ff579160200282015b828111156145ff5782518261467b61437d565b505091602001919060010190614668565b604051608081016040908152600080835260208301819052908201819052606082015290565b6040516060808201604052600390829080388339509192915050565b506000816146da61437d565b50506001016000816146ea61437d565b50506001016000906108f061437d565b6120c091905b8082111561460b576000808261471461437d565b505050600101614700565b8035611d1881615189565b8060608101831015611d1857600080614269614271565b600081519050611d18816151a3565b600081519050611d18816151ac565b8035611d18816151b5565b600081519050611d18816151b5565b60006020828403121561479457600080614791614271565b50505b60006147a0848461471f565b949350505050565b600080604083850312156147c4576000806147c1614271565b50505b60006147d0858561471f565b92505060206147e18582860161471f565b9150509250929050565b600080600080600060a0868803121561480c57600080614809614271565b50505b6000614818888861471f565b95505060206148298882890161475f565b945050604061483a8882890161475f565b935050606061484b8882890161475f565b925050608061485c8882890161475f565b9150509295509295909350565b60006060828403121561488457600080614881614271565b50505b60006147a0848461472a565b6000602082840312156148ab576000806148a8614271565b50505b60006147a08484614741565b6000602082840312156148d2576000806148cf614271565b50505b60006147a0848461475f565b6000602082840312156148f9576000806148f6614271565b50505b60006147a0848461476a565b6000806000806080858703121561492457600080614921614271565b50505b6000614930878761476a565b945050602061494187828801614750565b93505060406149528782880161476a565b925050606061496387828801614750565b91505092959194509250565b6000806040838503121561498b57600080614988614271565b50505b6000614997858561475f565b92505060206147e18582860161475f565b6149b181615173565b82525050565b6149b181615146565b6149b181615156565b6149b181615161565b6149b18161517e565b60006149e860148361513d565b736e6f726d616c206d617853697a652051756f746560601b815260200192915050565b6000614a18601a8361513d565b7f746f6f206d616e79206f75747374616e64696e67207061697273000000000000815260200192915050565b6000614a5160238361513d565b7f6e6f7420616e20617070726f766564207374726174656779202d20626174685081526230b4b960e91b602082015260400192915050565b6000614a96600d8361513d565b6c6c6f6746696c6c2071756f746560981b815260200192915050565b6000614abf60058361513d565b64726174696f60d81b815260200192915050565b6000614ae060158361513d565b74191e5b985b5a58c81b585e14da5e9948105cdcd95d605a1b815260200192915050565b6000614b1160148361513d565b731b9bdc9b585b081b585e14da5e9948105cdcd95d60621b815260200192915050565b6000614b4160118361513d565b70756e6465726c79696e6742616c616e636560781b815260200192915050565b6000614b6e60148361513d565b7336b4b23837b4b73a1031b0b631bab630ba32b21d60611b815260200192915050565b6000614b9e600b8361513d565b6a726177206d617853697a6560a81b815260200192915050565b6000614bc5600d8361513d565b6c1b1bd9d19a5b1b08185cdcd95d609a1b815260200192915050565b6000614bee60308361513d565b7f7468657265206973206e6f74206120737072656164206f6e207374726174656781526f6973742773207061697220747261646560801b602082015260400192915050565b6000614c40601c8361513d565b7f7468652062696420697320746f6f206c6172676520696e2073697a6500000000815260200192915050565b6000614c79602a8361513d565b7f61736b207072696365206973206e6f742067726561746572207468616e207468815269194818995cdd08189a5960b21b602082015260400192915050565b6000614cc560018361513d565b606560f81b815260200192915050565b6000614ce2600d8361513d565b6c72616973656420746f2074686560981b815260200192915050565b6000614d0b60108361513d565b6f3ab73232b9363cb4b7339037ba3432b960811b815260200192915050565b6000614d3760098361513d565b6839b430b832a1b7b2b360b91b815260200192915050565b6000614d5c60278361513d565b7f626964207072696365206973206e6f74206c657373207468616e2074686520628152666573742061736b60c81b602082015260400192915050565b6000614da5601c8361513d565b7f7468652061736b20697320746f6f206c6172676520696e2073697a6500000000815260200192915050565b6000614dde601e8361513d565b7f7969656c64206e6f7420636f72726563746c7920726562616c616e6365640000815260200192915050565b6149b1816120c0565b60208101611d1882846149b7565b60408101614e2f82856149a8565b6130076020830184614e0a565b6101008101614e4b828b6149b7565b614e58602083018a6149b7565b614e6560408301896149b7565b614e7260608301886149b7565b614e7f6080830187614e0a565b614e8c60a0830186614e0a565b614e9960c0830185614e0a565b614ea660e0830184614e0a565b9998505050505050505050565b6101408101614ec2828d6149b7565b614ecf602083018c6149b7565b614edc604083018b6149b7565b614ee9606083018a6149b7565b614ef66080830189614e0a565b614f0360a0830188614e0a565b614f1060c0830187614e0a565b614f1d60e0830186614e0a565b614f2b6101008301856149b7565b614f39610120830184614e0a565b9b9a5050505050505050505050565b60608101614f5682866149b7565b614f6360208301856149b7565b6147a060408301846149d2565b60408101614e2f82856149b7565b60408101614f8c82856149c0565b61300760208301846149c0565b60408082528101614fa9816149db565b9050611d186020830184614e0a565b6020808252810161335e81614a0b565b6020808252810161335e81614a44565b60408082528101614fa981614a89565b60408082528101614ff881614ab2565b9050611d1860208301846149c9565b60408082528101614fa981614ad3565b60408082528101614fa981614b04565b60408082528101614fa981614b34565b60408082528101614ff881614b61565b60408082528101614fa981614b91565b60408082528101614fa981614bb8565b6020808252810161335e81614be1565b6020808252810161335e81614c33565b6020808252810161335e81614c6c565b60408082528101614ff881614cb8565b60408082528101614ff881614cd5565b60408082528101614fa981614cfe565b60408082528101614ff881614d2a565b6020808252810161335e81614d4f565b6020808252810161335e81614d98565b6020808252810161335e81614dd1565b60208101611d188284614e0a565b606081016151238286614e0a565b61513060208301856149c0565b6147a06040830184614e0a565b90815260200190565b600061335e82615167565b151590565b600061335e82615146565b600f0b90565b6001600160a01b031690565b600061335e82615156565b600061335e826120c0565b61519281615146565b81146129a15760008061363a614271565b61519281615151565b61519281615156565b615192816120c056fe237ed0dc730435f49ffc52e0c385fe376f53260bda0022cdbd6bea601c0584961eed1b3cc441a43b0abc6b2676a5071c862f7570637f009a01de6dc2a982bea54e4fbd9f26259e82cfb30871ba8fb37535ebc893e81ff81141c1a2dc925d930f60806040523480156200001c576000806200001962000023565b50505b5062000090565b632a2a7adb598160e01b8152600481016020815285602082015260005b868110156200005d57808601518282016040015260200162000040565b506020828760640184336000905af158600e01573d6000803e3d6000fd5b3d6001141558600a015760016000f35b505050565b612ade80620000a06000396000f3fe608060405234801561001957600080610016612596565b50505b506004361061017c5760003560e01c806340e58ee5116100e7578063a9059cbb116100a0578063b6b55f251161007a578063b6b55f25146104dd578063d505accf14610503578063dd62ed3e1461055d578063f34822b4146105945761017c565b8063a9059cbb1461043a578063afd639ee1461046f578063b3f865f71461049e5761017c565b806340e58ee51461039e57806360c38b28146103c457806360f71b24146103cc57806370a08231146103d45780637ecebe001461040357806395d89b41146104325761017c565b8063271e442611610139578063271e4426146102d75780632e1a7d4d1461031c57806330adf81f14610344578063313ce5671461034c5780633644e5151461036a5780633830f1b6146103725761017c565b806306fdde031461018a578063095ea7b314610209578063158ef93e1461025257806318160ddd1461025a57806323b872dd146102745780632495a599146102b3575b600080610187612596565b50505b610192610677565b60405160208082528190810183818151815260200191508051906020019080838360005b838110156101ce5780820151838201526020016101b6565b50505050905090810190601f1680156101fb5780820380516001836020036101000a031916815260200191505b509250505060405180910390f35b61023e6004803603604081101561022857600080610225612596565b50505b506001600160a01b03813516906020013561069d565b604051901515815260200160405180910390f35b61023e6106bc565b6102626106d5565b60405190815260200160405180910390f35b61023e6004803603606081101561029357600080610290612596565b50505b506001600160a01b038135811691602081013590911690604001356106e2565b6102bb6107f8565b6040516001600160a01b03909116815260200160405180910390f35b610262600480360360808110156102f6576000806102f3612596565b50505b508035906001600160a01b03602082013581169160408101359160609091013516610817565b6103426004803603602081101561033b57600080610338612596565b50505b5035610a97565b005b610262610cdc565b610354610d00565b60405160ff909116815260200160405180910390f35b610262610d05565b610262600480360360408110156103915760008061038e612596565b50505b5080359060200135610d0f565b610342600480360360208110156103bd576000806103ba612596565b50505b5035610d49565b6102bb610f46565b6102bb610f52565b610262600480360360208110156103f3576000806103f0612596565b50505b50356001600160a01b0316610f5e565b610262600480360360208110156104225760008061041f612596565b50505b50356001600160a01b0316610f76565b610192610f8e565b61023e6004803603604081101561045957600080610456612596565b50505b506001600160a01b038135169060200135611047565b6102626004803603602081101561048e5760008061048b612596565b50505b50356001600160a01b031661105c565b610342600480360360608110156104bd576000806104ba612596565b50505b506001600160a01b03813581169160208101359091169060400135611074565b610342600480360360208110156104fc576000806104f9612596565b50505b503561156c565b610342600480360360e08110156105225760008061051f612596565b50505b506001600160a01b03813581169160208101359091169060408101359060608101359060ff6080820135169060a08101359060c00135611a8f565b6102626004803603604081101561057c57600080610579612596565b50505b506001600160a01b0381358116916020013516611d0d565b610342600480360360808110156105b3576000806105b0612596565b50505b8101906020810181356401000000008111156105d7576000806105d4612596565b50505b8201836020820111156105f2576000806105ef612596565b50505b8035906020019184600183028401116401000000008311171561061d5760008061061a612596565b50505b91908080601f0160208091040260200160405190810160405281815292919060208401838380828437600092019190915250929550506001600160a01b03833581169450602084013581169360400135169150611d339050565b60405160408082019052600c81526b42617468546f6b656e20763160a01b602082015281565b60006106b25a6106ab612601565b848461202e565b5060015b92915050565b6000600b6106c861265b565b906101000a900460ff1681565b60046106df61265b565b81565b6001600160a01b038316600090815260076020526000196040822060005a610708612601565b6001600160a01b03166001600160a01b0316815260200190815260200160002061073061265b565b146107e3576001600160a01b038416600090815260076020526107929083906040902060005a61075e612601565b6001600160a01b03166001600160a01b0316815260200190815260200160002061078661265b565b9063ffffffff6120ba16565b6001600160a01b038516600090815260076020526040902060005a6107b5612601565b6001600160a01b03166001600160a01b0316815260200190815260200160002081906107df6126a7565b5050505b6107ee848484612101565b5060019392505050565b6000600161080461265b565b906101000a90046001600160a01b031681565b600080600361082461265b565b906101000a90046001600160a01b03166001600160a01b03166386cbe0275a61084b612601565b6040516001600160e01b031960e084901b1681526001600160a01b03909116600482015260240160206040518083038186806108856126f5565b15801561089a57600080610897612596565b50505b505a6108a4612741565b50505050501580156108c3573d6000803e3d60006108c0612596565b50505b505050506040513d60208110156108e2576000806108df612596565b50505b810190808051151560011492506109369150505760405162461bcd60e51b8152600401808060200182810382526024815260200180612a476024913960400191505060405180910390610933612596565b50505b600080600261094361265b565b906101000a90046001600160a01b03166001600160a01b031663e1a6f014878787876000806040516001600160e01b031960e089901b16815260048101969096526001600160a01b0394851660248701526044860193909352921660648401526084830191909152151560a482015260c401602060405180830381600087806109ca6126f5565b1580156109df576000806109dc612596565b50505b505a6109e961282c565b505050505050158015610a09573d6000803e3d6000610a06612596565b50505b505050506040513d6020811015610a2857600080610a25612596565b50505b81019080805193507f819e390338feffe95e2de57172d6faf337853dfd15c7a09a32d76f7fd2443875925088915087905086866040519384526001600160a01b03928316602085015260408085019290925290911660608301526080909101905180910390a195945050505050565b6000610be76004610aa661265b565b610bdb8460006001610ab661265b565b906101000a90046001600160a01b03166001600160a01b03166370a082315a63996d79a5598160e01b8152602081600483336000905af158600e01573d6000803e3d6000fd5b3d6001141558600a015760016000f35b8051925060005b6040811015610b2a57600082820152602001610b13565b5050506040516001600160e01b031960e084901b1681526001600160a01b0390911660048201526024016020604051808303818680610b676126f5565b158015610b7c57600080610b79612596565b50505b505a610b86612741565b5050505050158015610ba5573d6000803e3d6000610ba2612596565b50505b505050506040513d6020811015610bc457600080610bc1612596565b50505b8101908080519392505063ffffffff6121ef169050565b9063ffffffff61225716565b9050610bfb5a610bf5612601565b83612297565b60006001610c0761265b565b906101000a90046001600160a01b03166001600160a01b031663a9059cbb5a610c2e612601565b836040516001600160e01b031960e085901b1681526001600160a01b039092166004830152602482015260440160206040518083038160008780610c706126f5565b158015610c8557600080610c82612596565b50505b505a610c8f61282c565b505050505050158015610caf573d6000803e3d6000610cac612596565b50505b505050506040513d6020811015610cce57600080610ccb612596565b50505b810190808051505050505050565b7f6e71edae12b1b97f4d1f60370fef10105fa2faae0126114a169c64845d6126c981565b601281565b60096106df61265b565b60088281610d1b61265b565b8110610d2357fe5b90600052602060002090600202018160028110610d3c57fe5b0191506106df905061265b565b60006003610d5561265b565b906101000a90046001600160a01b03166001600160a01b031663ca3a86cd5a610d7c612601565b6040516001600160e01b031960e084901b1681526001600160a01b0390911660048201526024016020604051808303818680610db66126f5565b158015610dcb57600080610dc8612596565b50505b505a610dd5612741565b5050505050158015610df4573d6000803e3d6000610df1612596565b50505b505050506040513d6020811015610e1357600080610e10612596565b50505b81019080805115156001149250610e7c9150505760405162461bcd60e51b815260206004820181905260248201527f6e6f7420616e20617070726f7665642070616972202d2062617468546f6b656e604482015260640160405180910390610e79612596565b50505b60006002610e8861265b565b906101000a90046001600160a01b03166001600160a01b03166340e58ee5826040516001600160e01b031960e084901b168152600481019190915260240160206040518083038160008780610edb6126f5565b158015610ef057600080610eed612596565b50505b505a610efa61282c565b505050505050158015610f1a573d6000803e3d6000610f17612596565b50505b505050506040513d6020811015610f3957600080610f36612596565b50505b8101908080515050505050565b6000600361080461265b565b6000600261080461265b565b600560205280600052604060002090506106df61265b565b600a60205280600052604060002090506106df61265b565b600080610f9961265b565b600181600116156101000203166002900480601f016020809104026020016040519081016040528181529190602083018280610fd361265b565b6001816001161561010002031660029004801561103f5780601f1061100d576101008083610fff61265b565b04028352916020019161103f565b820191906000526020600020905b8161102461265b565b8152906001019060200180831161101b57829003601f168201915b505050505081565b60006106b25a611055612601565b8484612101565b600660205280600052604060002090506106df61265b565b6000600361108061265b565b906101000a90046001600160a01b03166001600160a01b031663ca3a86cd5a6110a7612601565b6040516001600160e01b031960e084901b1681526001600160a01b03909116600482015260240160206040518083038186806110e16126f5565b1580156110f6576000806110f3612596565b50505b505a611100612741565b505050505015801561111f573d6000803e3d600061111c612596565b50505b505050506040513d602081101561113e5760008061113b612596565b50505b810190808051151560011492506111a79150505760405162461bcd60e51b815260206004820181905260248201527f6e6f7420616e20617070726f7665642070616972202d2062617468546f6b656e6044820152606401604051809103906111a4612596565b50505b6000811180156111b75750601481105b6111c9576000806111c6612596565b50505b60006064836001600160a01b03166370a082315a63996d79a5598160e01b8152602081600483336000905af158600e01573d6000803e3d6000fd5b3d6001141558600a015760016000f35b8051925060005b60408110156112325760008282015260200161121b565b5050506040516001600160e01b031960e084901b1681526001600160a01b039091166004820152602401602060405180830381868061126f6126f5565b15801561128457600080611281612596565b50505b505a61128e612741565b50505050501580156112ad573d6000803e3d60006112aa612596565b50505b505050506040513d60208110156112cc576000806112c9612596565b50505b810190808051860292508391506112e1905057fe5b0490506001600160a01b03831663a9059cbb8583836370a082315a63996d79a5598160e01b8152602081600483336000905af158600e01573d6000803e3d6000fd5b3d6001141558600a015760016000f35b8051925060005b60408110156113515760008282015260200161133a565b5050506040516001600160e01b031960e084901b1681526001600160a01b039091166004820152602401602060405180830381868061138e6126f5565b1580156113a3576000806113a0612596565b50505b505a6113ad612741565b50505050501580156113cc573d6000803e3d60006113c9612596565b50505b505050506040513d60208110156113eb576000806113e8612596565b50505b8101908080519390930392506040915050516001600160e01b031960e085901b1681526001600160a01b03909216600483015260248201526044016020604051808303816000878061143b6126f5565b1580156114505760008061144d612596565b50505b505a61145a61282c565b50505050505015801561147a573d6000803e3d6000611477612596565b50505b505050506040513d602081101561149957600080611496612596565b50505b8101908080515050506001600160a01b038416905063a9059cbb5a6114bc612601565b836040516001600160e01b031960e085901b1681526001600160a01b0390921660048301526024820152604401602060405180830381600087806114fe6126f5565b15801561151357600080611510612596565b50505b505a61151d61282c565b50505050505015801561153d573d6000803e3d600061153a612596565b50505b505050506040513d602081101561155c57600080611559612596565b50505b8101908080515050505050505050565b600080600161157961265b565b906101000a90046001600160a01b03166001600160a01b03166370a082315a63996d79a5598160e01b8152602081600483336000905af158600e01573d6000803e3d6000fd5b3d6001141558600a015760016000f35b8051925060005b60408110156115ed576000828201526020016115d6565b5050506040516001600160e01b031960e084901b1681526001600160a01b039091166004820152602401602060405180830381868061162a6126f5565b15801561163f5760008061163c612596565b50505b505a611649612741565b5050505050158015611668573d6000803e3d6000611665612596565b50505b505050506040513d602081101561168757600080611684612596565b50505b810190808051935060009250829150600190506116a261265b565b906101000a90046001600160a01b03166001600160a01b03166370a082315a63996d79a5598160e01b8152602081600483336000905af158600e01573d6000803e3d6000fd5b3d6001141558600a015760016000f35b8051925060005b6040811015611716576000828201526020016116ff565b5050506040516001600160e01b031960e084901b1681526001600160a01b03909116600482015260240160206040518083038186806117536126f5565b15801561176857600080611765612596565b50505b505a611772612741565b5050505050158015611791573d6000803e3d600061178e612596565b50505b505050506040513d60208110156117b0576000806117ad612596565b50505b810190808051935060009250600191506117ca905061265b565b906101000a90046001600160a01b03166001600160a01b03166323b872dd5a6117f1612601565b5a63996d79a5598160e01b8152602081600483336000905af158600e01573d6000803e3d6000fd5b3d6001141558600a015760016000f35b8051925060005b604081101561184757600082820152602001611830565b505050866040516001600160e01b031960e086901b1681526001600160a01b0393841660048201529190921660248201526044810191909152606401602060405180830381600087806118986126f5565b1580156118ad576000806118aa612596565b50505b505a6118b761282c565b5050505050501580156118d7573d6000803e3d60006118d4612596565b50505b505050506040513d60208110156118f6576000806118f3612596565b50505b81019080805150600092508291506001905061191061265b565b906101000a90046001600160a01b03166001600160a01b03166370a082315a63996d79a5598160e01b8152602081600483336000905af158600e01573d6000803e3d6000fd5b3d6001141558600a015760016000f35b8051925060005b60408110156119845760008282015260200161196d565b5050506040516001600160e01b031960e084901b1681526001600160a01b03909116600482015260240160206040518083038186806119c16126f5565b1580156119d6576000806119d3612596565b50505b505a6119e0612741565b50505050501580156119ff573d6000803e3d60006119fc612596565b50505b505050506040513d6020811015611a1e57600080611a1b612596565b50505b8101908080519350611a3c925083915084905063ffffffff6120ba16565b935060006004611a4a61265b565b611a55575083611a76565b611a7384610bdb6004611a6661265b565b889063ffffffff6121ef16565b90505b611a885a611a82612601565b82612342565b5050505050565b5a611a986128f2565b841015611ae95760405162461bcd60e51b8152602060048201526012602482015271155b9a5cddd85c158c8e881156141254915160721b604482015260640160405180910390611ae6612596565b50505b60006009611af561265b565b6001600160a01b0389166000908152600a6020527f6e71edae12b1b97f4d1f60370fef10105fa2faae0126114a169c64845d6126c9908a908a908a9060409020600081611b4061265b565b91600183019150611b4f6126a7565b50508a60405160200180878152602001866001600160a01b03166001600160a01b03168152602001856001600160a01b03166001600160a01b0316815260200184815260200183815260200182815260200196505050505050506040516020818303038152906040528051906020012060405161190160f01b602082015260228101929092526042820152606201604051602081830303815290604052805190602001209050600060018286868660405160008152602001604052604051808581526020018460ff1660ff1681526020018381526020018281526020019450505050506020604051602081039080840390855a611c4a612741565b5050505050158015611c69573d6000803e3d6000611c66612596565b50505b5050506020604051035190506001600160a01b03811615801590611c9e5750886001600160a01b0316816001600160a01b0316145b611cf75760405162461bcd60e51b815260206004820152601c60248201527f556e697377617056323a20494e56414c49445f5349474e415455524500000000604482015260640160405180910390611cf4612596565b50505b611d0289898961202e565b505050505050505050565b600760205281600052604060002060205280600052604060002091506106df905061265b565b6000600b611d3f61265b565b906101000a900460ff1615611d5c57600080611d59612596565b50505b6000848051611d6f929160200190612938565b508260018080611d7d61265b565b816001600160a01b0302191690836001600160a01b0316021790611d9f6126a7565b50505081600260006101000a81611db461265b565b816001600160a01b0302191690836001600160a01b0316021790611dd66126a7565b50505080600360006101000a81611deb61265b565b816001600160a01b0302191690836001600160a01b0316021790611e0d6126a7565b50505060005a611e1b6129d8565b9050604051806052612a6b82396052019050604051809103902060405160408082019052600c81526b42617468546f6b656e20763160a01b6020820152805190602001206040516040808201905260018152603160f81b602082015280519060200120835a63996d79a5598160e01b8152602081600483336000905af158600e01573d6000803e3d6000fd5b3d6001141558600a015760016000f35b8051925060005b6040811015611ed557600082820152602001611ebe565b5050506040516020810195909552604080860194909452606085019290925260808401526001600160a01b031660a083015260c0909101905160208183030381529060405280519060200120806009611f2c6126a7565b506000199150506001600160a01b03851663095ea7b360006002611f4e61265b565b906101000a90046001600160a01b0316836040516001600160e01b031960e085901b1681526001600160a01b039092166004830152602482015260440160206040518083038160008780611fa06126f5565b158015611fb557600080611fb2612596565b50505b505a611fbf61282c565b505050505050158015611fdf573d6000803e3d6000611fdc612596565b50505b505050506040513d6020811015611ffe57600080611ffb612596565b50505b8101908080515060019250600b91508290508161201961265b565b8160ff02191690831515021790611d026126a7565b6001600160a01b038316600090815260076020528190604090206001600160a01b038416600090815260209190915260409020819061206b6126a7565b505050816001600160a01b0316836001600160a01b03167f8c5be1e5ebec7d5bd14f71427d1e84f3dd0314c0f7b2291e5b200ac8c7c3b9258360405190815260200160405180910390a3505050565b60006120fa838360405160408082019052601e81527f536166654d6174683a207375627472616374696f6e206f766572666c6f77000060208201526123ec565b9392505050565b6001600160a01b038316600090815260056020526121279082906040902061078661265b565b6001600160a01b038416600090815260056020526040902081906121496126a7565b5050506001600160a01b0382166000908152600560205261217e9082906040902061217261265b565b9063ffffffff61248c16565b6001600160a01b038316600090815260056020526040902081906121a06126a7565b505050816001600160a01b0316836001600160a01b03167fddf252ad1be2c89b69c2b068fc378daa952ba7f163c4a11628f55a4df523b3ef8360405190815260200160405180910390a3505050565b6000826121fe575060006106b6565b8282028284828161220b57fe5b04146120fa5760405162461bcd60e51b8152600401808060200182810382526021815260200180612abd602191396040019150506040518091039061224e612596565b50509392505050565b60006120fa838360405160408082019052601a81527f536166654d6174683a206469766973696f6e206279207a65726f00000000000060208201526124eb565b6001600160a01b038216600090815260056020526122bd9082906040902061078661265b565b6001600160a01b038316600090815260056020526040902081906122df6126a7565b5050506122f081600461078661265b565b8060046122fb6126a7565b5060009150506001600160a01b0383167fddf252ad1be2c89b69c2b068fc378daa952ba7f163c4a11628f55a4df523b3ef8360405190815260200160405180910390a35050565b61235081600461217261265b565b80600461235b6126a7565b5050506001600160a01b038216600090815260056020526123849082906040902061217261265b565b6001600160a01b038316600090815260056020526040902081906123a66126a7565b5050506001600160a01b03821660007fddf252ad1be2c89b69c2b068fc378daa952ba7f163c4a11628f55a4df523b3ef8360405190815260200160405180910390a35050565b600081848411156124845760405162461bcd60e51b81526004018080602001828103825283818151815260200191508051906020019080838360005b83811015612440578082015183820152602001612428565b50505050905090810190601f16801561246d5780820380516001836020036101000a031916815260200191505b509250505060405180910390612481612596565b50505b505050900390565b6000828201838110156120fa5760405162461bcd60e51b815260206004820152601b60248201527f536166654d6174683a206164646974696f6e206f766572666c6f77000000000060448201526064016040518091039061224e612596565b600081836125805760405162461bcd60e51b81526004018080602001828103825283818151815260200191508051906020019080838360005b8381101561253c578082015183820152602001612524565b50505050905090810190601f1680156125695780820380516001836020036101000a031916815260200191505b50925050506040518091039061257d612596565b50505b50600083858161258c57fe5b0495945050505050565b632a2a7adb598160e01b8152600481016020815285602082015260005b868110156125ce5780860151828201604001526020016125b3565b506020828760640184336000905af158600e01573d6000803e3d6000fd5b3d6001141558600a015760016000f35b505050565b6373509064598160e01b8152602081600483336000905af158600e01573d6000803e3d6000fd5b3d6001141558600a015760016000f35b8051935060005b60408110156126565760008282015260200161263f565b505050565b6303daa959598160e01b8152836004820152602081602483336000905af158600e01573d6000803e3d6000fd5b3d6001141558600a015760016000f35b8051600082529350602061263f565b6322bd64c0598160e01b8152836004820152846024820152600081604483336000905af158600e01573d6000803e3d6000fd5b3d6001141558600a015760016000f35b60008152602061263f565b638435035b598160e01b8152836004820152602081602483336000905af158600e01573d6000803e3d6000fd5b3d6001141558600a015760016000f35b8051600082529350602061263f565b638540661f598160e01b8152612772565b80808311156106b6575090919050565b80808310156106b6575090919050565b836004820152846024820152606060448201528660648201526084810160005b888110156127aa578088015182820152602001612792565b506060828960a40184336000905af158600e01573d6000803e3d6000fd5b3d6001141558600a015760016000f35b815160408301513d6000853e8b8b82606087013350600060045af150596127ff8d3d612762565b8c0161280b8187612752565b5b82811015612820576000815260200161280c565b50929c50505050505050565b6385979f76598160e01b8152836004820152846024820152606060448201528760648201526084810160005b89811015612870578089015182820152602001612858565b506060828a60a40184336000905af158600e01573d6000803e3d6000fd5b3d6001141558600a015760016000f35b815160408301513d6000853e8c8c82606087013350600060045af150596128c58e3d612762565b8d016128d18187612752565b5b828110156128e657600081526020016128d2565b50929d50505050505050565b63bdbf8c36598160e01b8152602081600483336000905af158600e01573d6000803e3d6000fd5b3d6001141558600a015760016000f35b8051600082529350602061263f565b828061294261265b565b600181600116156101000203166002900490600052602060002090601f016020900481019282601f1061298957805160ff191683800117856129826126a7565b50506129c8565b828001600101856129986126a7565b505082156129c8579182015b828111156129c8578251826129b76126a7565b5050916020019190600101906129a4565b506129d4929150612a1e565b5090565b6390580256598160e01b8152602081600483336000905af158600e01573d6000803e3d6000fd5b3d6001141558600a015760016000f35b8051600082529350602061263f565b612a4391905b808211156129d45760008082612a386126a7565b505050600101612a24565b9056fe6e6f7420616e20617070726f766564207374726174656779202d2062617468546f6b656e454950373132446f6d61696e28737472696e67206e616d652c737472696e672076657273696f6e2c75696e7432353620636861696e49642c6164647265737320766572696679696e67436f6e747261637429536166654d6174683a206d756c7469706c69636174696f6e206f766572666c6f77",
  "deployedBytecode": "0x608060405234801561001957600080610016614271565b50505b50600436106101405760003560e01c8063649fb7c3116100c15780638f259e45116100855780638f259e451461026457806398ef30411461026c578063a7001d2314610274578063ac4d352014610287578063af07acb21461028f578063c9dec3611461029757610140565b8063649fb7c31461021057806364ae722a146102235780637158da7c1461023657806371a4188b1461023e5780637d1c98fa1461025157610140565b8063575561721161010857806357556172146101c55780635a7a5cbc146101d857806360c38b28146101eb57806360f71b2414610200578063613e89931461020857610140565b8063023fa1d01461014e5780630c7d5cd8146101635780630d4741581461018157806332bdd13c146101945780633c4fc85d146101bd575b60008061014b614271565b50505b61016161015c3660046148b7565b61029f565b005b61016b6102fa565b6040516101789190615107565b60405180910390f35b61016b61018f36600461496f565b610307565b6101a76101a23660046148b7565b610341565b6040516101789a99989796959493929190614eb3565b610161610446565b6101616101d3366004614869565b6108f4565b6101616101e63660046148b7565b610a29565b6101f3610a7e565b6040516101789190614e13565b6101f3610a9c565b6101f3610aa8565b6101f361021e3660046148b7565b610ab4565b6101616102313660046147eb565b610ace565b6101f3611737565b61016b61024c366004614779565b611743565b61016b61025f366004614779565b61175b565b61016b611773565b6101f361177d565b61016b6102823660046147a8565b611789565b61016b611d1e565b6101f3611d28565b61016b611d34565b6000806102aa6142dc565b906101000a90046001600160a01b03166001600160a01b03165a6102cc614337565b6001600160a01b0316146102e8576000806102e5614271565b50505b808060096102f461437d565b50505050565b60076103046142dc565b81565b600682816103136142dc565b811061031b57fe5b9060005260206000209060030201816003811061033457fe5b01915061030490506142dc565b600e818161034d6142dc565b811061035557fe5b906000526020600020600d9091020190506000816103716142dc565b906101000a90046001600160a01b031690806001016000906103916142dc565b906101000a90046001600160a01b031690806002016000906103b16142dc565b906101000a90046001600160a01b031690806003016000906103d16142dc565b906101000a90046001600160a01b031690806004016103ee6142dc565b90806005016103fb6142dc565b90806006016104086142dc565b90806007016104156142dc565b906000600882016104246142dc565b906101000a90046001600160a01b031690806009016104416142dc565b90508a565b6000600c60005a610455614337565b6001600160a01b03166001600160a01b0316815260200190815260200160002061047d6142dc565b90506000600d60005a61048e614337565b6001600160a01b03166001600160a01b031681526020019081526020016000206104b66142dc565b905081156106d4576000600f6104ca6142dc565b600060016104d66142dc565b906101000a90046001600160a01b03166001600160a01b03166370a082315a63996d79a5598160e01b8152602081600483336000905af158601d01573d60011458600c01573d6000803e3d621234565260ea61109c528051925060005b604081101561054a57600082820152602001610533565b5050506040518263ffffffff1660e01b81526004016105699190614e13565b602060405180830381868061057c6143cb565b1580156105915760008061058e614271565b50505b505a61059b614417565b50505050501580156105ba573d6000803e3d60006105b7614271565b50505b50505050604051601f3d908101601f191682016040526105dd91908101906148de565b8402816105e657fe5b049050600060016105f56142dc565b906101000a90046001600160a01b03166001600160a01b031663a9059cbb5a61061c614337565b836040518363ffffffff1660e01b815260040161063a929190614e21565b6020604051808303816000878061064f6143cb565b15801561066457600080610661614271565b50505b505a61066e614502565b50505050505015801561068e573d6000803e3d600061068b614271565b50505b50505050604051601f3d908101601f191682016040526106b19190810190614890565b5082600f600082826106c16142dc565b0392505081906106cf61437d565b505050505b80156108f057600060106106e66142dc565b600060026106f26142dc565b906101000a90046001600160a01b03166001600160a01b03166370a082315a63996d79a5598160e01b8152602081600483336000905af158601d01573d60011458600c01573d6000803e3d621234565260ea61109c528051925060005b60408110156107665760008282015260200161074f565b5050506040518263ffffffff1660e01b81526004016107859190614e13565b60206040518083038186806107986143cb565b1580156107ad576000806107aa614271565b50505b505a6107b7614417565b50505050501580156107d6573d6000803e3d60006107d3614271565b50505b50505050604051601f3d908101601f191682016040526107f991908101906148de565b83028161080257fe5b049050600060026108116142dc565b906101000a90046001600160a01b03166001600160a01b031663a9059cbb5a610838614337565b836040518363ffffffff1660e01b8152600401610856929190614e21565b6020604051808303816000878061086b6143cb565b1580156108805760008061087d614271565b50505b505a61088a614502565b5050505050501580156108aa573d6000803e3d60006108a7614271565b50505b50505050604051601f3d908101601f191682016040526108cd9190810190614890565b50816010600082826108dd6142dc565b0392505081906108eb61437d565b505050505b5050565b5a6108fd614337565b6000806109086142dc565b906101000a90046001600160a01b03166001600160a01b03166386cbe027826040518263ffffffff1660e01b81526004016109439190614e13565b60206040518083038186806109566143cb565b15801561096b57600080610968614271565b50505b505a610975614417565b5050505050158015610994573d6000803e3d6000610991614271565b50505b50505050604051601f3d908101601f191682016040526109b79190810190614890565b15156001146109ea5760405162461bcd60e51b81526004016109d890614fc8565b604051809103906109e7614271565b50505b816006806001816109f96142dc565b018082610a0461437d565b5050600092835291600019830191506020902091926102f492600392830201916145c8565b600080610a346142dc565b906101000a90046001600160a01b03166001600160a01b03165a610a56614337565b6001600160a01b031614610a7257600080610a6f614271565b50505b8080600a6102f461437d565b600080610a896142dc565b906101000a90046001600160a01b031681565b60006005610a896142dc565b60006002610a896142dc565b600b60205280600052604060002060009150610a896142dc565b84600080610ada6142dc565b906101000a90046001600160a01b03166001600160a01b03166386cbe027826040518263ffffffff1660e01b8152600401610b159190614e13565b6020604051808303818680610b286143cb565b158015610b3d57600080610b3a614271565b50505b505a610b47614417565b5050505050158015610b66573d6000803e3d6000610b63614271565b50505b50505050604051601f3d908101601f19168201604052610b899190810190614890565b1515600114610bbc5760405162461bcd60e51b8152600401610baa90614fc8565b60405180910390610bb9614271565b50505b60006001610bc86142dc565b6001600160a01b036101009290920a9004166370a0823160006003610beb6142dc565b906101000a90046001600160a01b03166040518263ffffffff1660e01b8152600401610c179190614e13565b6020604051808303818680610c2a6143cb565b158015610c3f57600080610c3c614271565b50505b505a610c49614417565b5050505050158015610c68573d6000803e3d6000610c65614271565b50505b50505050604051601f3d908101601f19168201604052610c8b91908101906148de565b60646007610c976142dc565b60006003610ca36142dc565b906101000a90046001600160a01b03166001600160a01b03166318160ddd6040518163ffffffff1660e01b81526004016020604051808303818680610ce66143cb565b158015610cfb57600080610cf8614271565b50505b505a610d05614417565b5050505050158015610d24573d6000803e3d6000610d21614271565b50505b50505050604051601f3d908101601f19168201604052610d4791908101906148de565b0281610d4f57fe5b041115610d6457600080610d61614271565b50505b60006002610d706142dc565b6001600160a01b036101009290920a9004166370a0823160006004610d936142dc565b906101000a90046001600160a01b03166040518263ffffffff1660e01b8152600401610dbf9190614e13565b6020604051808303818680610dd26143cb565b158015610de757600080610de4614271565b50505b505a610df1614417565b5050505050158015610e10573d6000803e3d6000610e0d614271565b50505b50505050604051601f3d908101601f19168201604052610e3391908101906148de565b60646007610e3f6142dc565b60006004610e4b6142dc565b906101000a90046001600160a01b03166001600160a01b03166318160ddd6040518163ffffffff1660e01b81526004016020604051808303818680610e8e6143cb565b158015610ea357600080610ea0614271565b50505b505a610ead614417565b5050505050158015610ecc573d6000803e3d6000610ec9614271565b50505b50505050604051601f3d908101601f19168201604052610eef91908101906148de565b0281610ef757fe5b041115610f0c57600080610f09614271565b50505b600085118015610f1c5750600084115b8015610f285750600083115b8015610f345750600082115b610f4657600080610f43614271565b50505b610f8760006001610f556142dc565b906101000a90046001600160a01b03166003600090610f726142dc565b906101000a90046001600160a01b0316611789565b851115610fb85760405162461bcd60e51b8152600401610fa6906150e7565b60405180910390610fb5614271565b50505b610fe460006002610fc76142dc565b906101000a90046001600160a01b03166004600090610f726142dc565b8311156110155760405162461bcd60e51b815260040161100390615077565b60405180910390611012614271565b50505b61102185858585611d3e565b6001600160a01b038616639958525f6000600161103c6142dc565b906101000a90046001600160a01b031660036000906110596142dc565b906101000a90046001600160a01b031660026000906110766142dc565b906101000a90046001600160a01b031660046000906110936142dc565b906101000a90046001600160a01b03168a8a8a8a6040518963ffffffff1660e01b81526004016110ca989796959493929190614e3c565b600060405180830381600087806110df6143cb565b1580156110f4576000806110f1614271565b50505b505a6110fe614502565b50505050505015801561111e573d6000803e3d600061111b614271565b50505b50505050600e6040516101608101604052806000600161113c6142dc565b6001600160a01b036101009290920a90041681526020016000600361115f6142dc565b6001600160a01b036101009290920a9004168152602001600060026111826142dc565b6001600160a01b036101009290920a9004168152602001600060046111a56142dc565b906101000a90046001600160a01b03166001600160a01b031681526020018781526020018681526020018581526020018481526020015a6111e4614337565b6001600160a01b031681526020015a6111fb61460f565b8152602001611208611ff6565b905290806001816112176142dc565b01808261122261437d565b50506000928352916000198301915060209020919291600d9091020181518160018161124c6142dc565b816001600160a01b0302191690836001600160a01b031602179061126e61437d565b5050506020820151600180830190816112856142dc565b816001600160a01b0302191690836001600160a01b03160217906112a761437d565b5050506040820151600282016001816112be6142dc565b816001600160a01b0302191690836001600160a01b03160217906112e061437d565b5050506060820151600382016001816112f76142dc565b816001600160a01b0302191690836001600160a01b031602179061131961437d565b50505060808201518160040161132d61437d565b505060a08201518160050161134061437d565b505060c08201518160060161135361437d565b505060e08201518160070161136661437d565b50506101008201516008820160018161137d6142dc565b816001600160a01b0302191690836001600160a01b031602179061139f61437d565b505050610120820151816009016113b461437d565b50506101408201516113cc90600a8301906003614655565b505050506113d86120c3565b6113e06129a5565b600060016113ec6142dc565b6001600160a01b036101009290920a9004166370a082316000600361140f6142dc565b906101000a90046001600160a01b03166040518263ffffffff1660e01b815260040161143b9190614e13565b602060405180830381868061144e6143cb565b15801561146357600080611460614271565b50505b505a61146d614417565b505050505015801561148c573d6000803e3d6000611489614271565b50505b50505050604051601f3d908101601f191682016040526114af91908101906148de565b606460076114bb6142dc565b600060036114c76142dc565b906101000a90046001600160a01b03166001600160a01b03166318160ddd6040518163ffffffff1660e01b8152600401602060405180830381868061150a6143cb565b15801561151f5760008061151c614271565b50505b505a611529614417565b5050505050158015611548573d6000803e3d6000611545614271565b50505b50505050604051601f3d908101601f1916820160405261156b91908101906148de565b028161157357fe5b04111561158857600080611585614271565b50505b600060026115946142dc565b6001600160a01b036101009290920a9004166370a08231600060046115b76142dc565b906101000a90046001600160a01b03166040518263ffffffff1660e01b81526004016115e39190614e13565b60206040518083038186806115f66143cb565b15801561160b57600080611608614271565b50505b505a611615614417565b5050505050158015611634573d6000803e3d6000611631614271565b50505b50505050604051601f3d908101601f1916820160405261165791908101906148de565b606460076116636142dc565b6000600461166f6142dc565b906101000a90046001600160a01b03166001600160a01b03166318160ddd6040518163ffffffff1660e01b815260040160206040518083038186806116b26143cb565b1580156116c7576000806116c4614271565b50505b505a6116d1614417565b50505050501580156116f0573d6000803e3d60006116ed614271565b50505b50505050604051601f3d908101601f1916820160405261171391908101906148de565b028161171b57fe5b0411156108eb5760008061172d614271565b5050505050505050565b60006001610a896142dc565b600d60205280600052604060002090506103046142dc565b600c60205280600052604060002090506103046142dc565b600a6103046142dc565b60006003610a896142dc565b60008060016117966142dc565b906101000a90046001600160a01b03166001600160a01b0316836001600160a01b031614806117f15750600060026117cc6142dc565b906101000a90046001600160a01b03166001600160a01b0316836001600160a01b0316145b61180357600080611800614271565b50505b603260006001600160a01b0385166370a08231856040518263ffffffff1660e01b81526004016118339190614e13565b60206040518083038186806118466143cb565b15801561185b57600080611858614271565b50505b505a611865614417565b5050505050158015611884573d6000803e3d6000611881614271565b50505b50505050604051601f3d908101601f191682016040526118a791908101906148de565b90506000805160206151bf833981519152816040516118c69190615027565b60405180910390a16000805160206151bf833981519152600060026118e96142dc565b6001600160a01b036101009290920a9004166370a082316000600461190c6142dc565b906101000a90046001600160a01b03166040518263ffffffff1660e01b81526004016119389190614e13565b602060405180830381868061194b6143cb565b1580156119605760008061195d614271565b50505b505a61196a614417565b5050505050158015611989573d6000803e3d6000611986614271565b50505b50505050604051601f3d908101601f191682016040526119ac91908101906148de565b6040516119b991906150b7565b60405180910390a160006119d16004196103e8612fa2565b90506000805160206151df833981519152816040516119f091906150c7565b60405180910390a160006001611a046142dc565b906101000a90046001600160a01b03166001600160a01b0316866001600160a01b03161415611c68576000611b0683826002611a3e6142dc565b6001600160a01b036101009290920a9004166370a0823160006004611a616142dc565b906101000a90046001600160a01b03166040518263ffffffff1660e01b8152600401611a8d9190614e13565b6020604051808303818680611aa06143cb565b158015611ab557600080611ab2614271565b50505b505a611abf614417565b5050505050158015611ade573d6000803e3d6000611adb614271565b50505b50505050604051601f3d908101601f19168201604052611b0191908101906148de565b61300e565b90506000805160206151df83398151915281604051611b259190614fe8565b60405180910390a1600160401b611b4382611b3e613054565b6132b6565b600f0b1315611b84576000805160206151bf833981519152606485850204604051611b6e9190615017565b60405180910390a1505060649102049050611d18565b6064838502046000805160206151bf83398151915281604051611ba79190615047565b60405180910390a16000611bc4611bbc6132f2565b611b016132f9565b90506000805160206151df83398151915281604051611be39190615097565b60405180910390a16000611bff611bfa86866132b6565b613300565b90506000805160206151df83398151915281604051611c1e91906150a7565b60405180910390a16000611c328285613366565b90506000805160206151bf83398151915281604051611c519190615007565b60405180910390a19750611d189650505050505050565b60006002611c746142dc565b906101000a90046001600160a01b03166001600160a01b0316866001600160a01b03161415611d14576000611cd183826001611cae6142dc565b6001600160a01b036101009290920a9004166370a0823160006003611a616142dc565b9050600160401b611ce982611ce4613054565b612fa2565b600f0b1315611b84576000805160206151bf833981519152606485850204604051611b6e9190614f99565b5050505b92915050565b60086103046142dc565b60006004610a896142dc565b60096103046142dc565b82820281850210611d735760405162461bcd60e51b8152600401611d6190615067565b60405180910390611d70614271565b50505b6000806005611d806142dc565b6001600160a01b036101009290920a900416630374fc6f60006001611da36142dc565b906101000a90046001600160a01b03166002600090611dc06142dc565b906101000a90046001600160a01b03166040518363ffffffff1660e01b8152600401611ded929190614f7e565b6020604051808303818680611e006143cb565b158015611e1557600080611e12614271565b50505b505a611e1f614417565b5050505050158015611e3e573d6000803e3d6000611e3b614271565b50505b50505050604051601f3d908101601f19168201604052611e6191908101906148de565b90506000806005611e706142dc565b6001600160a01b036101009290920a900416630374fc6f60006002611e936142dc565b906101000a90046001600160a01b03166001600090611eb06142dc565b906101000a90046001600160a01b03166040518363ffffffff1660e01b8152600401611edd929190614f7e565b6020604051808303818680611ef06143cb565b158015611f0557600080611f02614271565b50505b505a611f0f614417565b5050505050158015611f2e573d6000803e3d6000611f2b614271565b50505b50505050604051601f3d908101601f19168201604052611f5191908101906148de565b9050611f5b61468c565b611f64836133e9565b9050611f6e61468c565b611f77836133e9565b9050868160400151028151890210611fb35760405162461bcd60e51b8152600401611fa190615087565b60405180910390611fb0614271565b50505b85826040015102858351021061172d5760405162461bcd60e51b8152600401611fdb906150d7565b60405180910390611fea614271565b50505050505050505050565b611ffe6146b2565b5a61200761460f565b600660016006806120166142dc565b905003816120226142dc565b811061202a57fe5b9060005260206000206003909102016002016120446142dc565b1461205757600080612054614271565b50505b600660016006806120666142dc565b905003816120726142dc565b811061207a57fe5b90600052602060002060039182020190606060405190810160405291906060830182845b816120a76142dc565b8152602001906001019080831161209e57505050505090505b90565b600a6120cd6142dc565b6006806120d86142dc565b9050106121095760405162461bcd60e51b81526004016120f790614fb8565b60405180910390612106614271565b50505b60005b6006806121176142dc565b90508110156129a15761212861468c565b61215f600683816121376142dc565b811061213f57fe5b90600052602060002060039091020160005b0161215a6142dc565b6133e9565b905061216961468c565b612196600684816121786142dc565b811061218057fe5b9060005260206000206003909102016001612151565b905081511580156121b45750600060208301516001600160a01b0316145b80156121c257508160400151155b80156121db5750600060608301516001600160a01b0316145b801561222957508051158015906122005750600060208201516001600160a01b031614155b801561220f5750806040015115155b80156122295750600060608201516001600160a01b031614155b156123c2576000600461223a6142dc565b906101000a90046001600160a01b03166001600160a01b03166340e58ee5600685816122646142dc565b811061226c57fe5b9060005260206000206003909102016001016122866142dc565b6040518263ffffffff1660e01b81526004016122a29190615107565b600060405180830381600087806122b76143cb565b1580156122cc576000806122c9614271565b50505b505a6122d6614502565b5050505050501580156122f6573d6000803e3d60006122f3614271565b50505b505050506000805160206151ff833981519152600684816123156142dc565b811061231d57fe5b9060005260206000206003909102016001016123376142dc565b8360200151845160405161234d93929190615115565b60405180910390a1600683816123616142dc565b811061236957fe5b906000526020600020612381916003020160006146ce565b6123ba600684816123906142dc565b811061239857fe5b90600052602060002060039091020160005b016123b36142dc565b60006134f5565b5050506129a3565b8151158015906123e05750600060208301516001600160a01b031614155b80156123ef5750816040015115155b80156124095750600060208301516001600160a01b031614155b80156124535750805115801561242c5750600060208201516001600160a01b0316145b801561243a57508060400151155b80156124535750600060608201516001600160a01b0316145b156125e057600060036124646142dc565b906101000a90046001600160a01b03166001600160a01b03166340e58ee56006858161248e6142dc565b811061249657fe5b906000526020600020600391909102016124ae6142dc565b6040518263ffffffff1660e01b81526004016124ca9190615107565b600060405180830381600087806124df6143cb565b1580156124f4576000806124f1614271565b50505b505a6124fe614502565b50505050505015801561251e573d6000803e3d600061251b614271565b50505b505050506000805160206151ff8339815191526006848161253d6142dc565b811061254557fe5b9060005260206000206003919091020161255d6142dc565b8260200151835160405161257393929190615115565b60405180910390a1600683816125876142dc565b811061258f57fe5b9060005260206000206125a7916003020160006146ce565b6123ba600684816125b66142dc565b81106125be57fe5b90600052602060002060039091020160015b016125d96142dc565b60016134f5565b8151158015906125fe5750600060208301516001600160a01b031614155b801561260d5750816040015115155b80156126275750600060208301516001600160a01b031614155b8015612675575080511580159061264c5750600060208201516001600160a01b031614155b801561265b5750806040015115155b80156126755750600060608201516001600160a01b031614155b156129975760096126846142dc565b5a61268d61460f565b036006848161269a6142dc565b81106126a257fe5b9060005260206000206003909102016002016126bc6142dc565b101561293d57600060036126ce6142dc565b906101000a90046001600160a01b03166001600160a01b03166340e58ee5600685816126f86142dc565b811061270057fe5b906000526020600020600391909102016127186142dc565b6040518263ffffffff1660e01b81526004016127349190615107565b600060405180830381600087806127496143cb565b15801561275e5760008061275b614271565b50505b505a612768614502565b505050505050158015612788573d6000803e3d6000612785614271565b50505b505050506000805160206151ff833981519152600684816127a76142dc565b81106127af57fe5b906000526020600020600391909102016127c76142dc565b826020015183516040516127dd93929190615115565b60405180910390a1600060036127f16142dc565b906101000a90046001600160a01b03166001600160a01b03166340e58ee56006858161281b6142dc565b811061282357fe5b90600052602060002060039091020160010161283d6142dc565b6040518263ffffffff1660e01b81526004016128599190615107565b6000604051808303816000878061286e6143cb565b15801561288357600080612880614271565b50505b505a61288d614502565b5050505050501580156128ad573d6000803e3d60006128aa614271565b50505b505050506000805160206151ff833981519152600684816128cc6142dc565b81106128d457fe5b9060005260206000206003909102016001016128ee6142dc565b8260200151835160405161290493929190615115565b60405180910390a1600683816129186142dc565b811061292057fe5b906000526020600020612938916003020160006146ce565b612997565b61296a6006848161294c6142dc565b811061295457fe5b90600052602060002060039091020160016123aa565b612997600684816129796142dc565b811061298157fe5b90600052602060002060039091020160006125d0565b505060010161210c565b505b565b60008060026129b26142dc565b6001600160a01b036101009290920a9004166370a08231600060036129d56142dc565b906101000a90046001600160a01b03166040518263ffffffff1660e01b8152600401612a019190614e13565b6020604051808303818680612a146143cb565b158015612a2957600080612a26614271565b50505b505a612a33614417565b5050505050158015612a52573d6000803e3d6000612a4f614271565b50505b50505050604051601f3d908101601f19168201604052612a7591908101906148de565b90506000806001612a846142dc565b6001600160a01b036101009290920a9004166370a0823160006004612aa76142dc565b906101000a90046001600160a01b03166040518263ffffffff1660e01b8152600401612ad39190614e13565b6020604051808303818680612ae66143cb565b158015612afb57600080612af8614271565b50505b505a612b05614417565b5050505050158015612b24573d6000803e3d6000612b21614271565b50505b50505050604051601f3d908101601f19168201604052612b4791908101906148de565b90508115612c795760006003612b5b6142dc565b6001600160a01b036101009290920a90041663b3f865f760006004612b7e6142dc565b906101000a90046001600160a01b03166002600090612b9b6142dc565b906101000a90046001600160a01b031660056040518463ffffffff1660e01b8152600401612bcb93929190614f48565b60006040518083038160008780612be06143cb565b158015612bf557600080612bf2614271565b50505b505a612bff614502565b505050505050158015612c1f573d6000803e3d6000612c1c614271565b50505b505050507fe75bdd3aabe6a577fc304e4dd38b1f51d87462047d87241a8b36804dedfdd2776004600090612c516142dc565b906101000a90046001600160a01b031683604051612c70929190614f70565b60405180910390a15b8015612da95760006004612c8b6142dc565b6001600160a01b036101009290920a90041663b3f865f760006003612cae6142dc565b906101000a90046001600160a01b03166001600090612ccb6142dc565b906101000a90046001600160a01b031660056040518463ffffffff1660e01b8152600401612cfb93929190614f48565b60006040518083038160008780612d106143cb565b158015612d2557600080612d22614271565b50505b505a612d2f614502565b505050505050158015612d4f573d6000803e3d6000612d4c614271565b50505b505050507fe75bdd3aabe6a577fc304e4dd38b1f51d87462047d87241a8b36804dedfdd2776003600090612d816142dc565b906101000a90046001600160a01b031682604051612da0929190614f70565b60405180910390a15b60006001612db56142dc565b6001600160a01b036101009290920a9004166370a0823160006004612dd86142dc565b906101000a90046001600160a01b03166040518263ffffffff1660e01b8152600401612e049190614e13565b6020604051808303818680612e176143cb565b158015612e2c57600080612e29614271565b50505b505a612e36614417565b5050505050158015612e55573d6000803e3d6000612e52614271565b50505b50505050604051601f3d908101601f19168201604052612e7891908101906148de565b15612ea75760405162461bcd60e51b8152600401612e95906150f7565b60405180910390612ea4614271565b50505b60006002612eb36142dc565b6001600160a01b036101009290920a9004166370a0823160006003612ed66142dc565b906101000a90046001600160a01b03166040518263ffffffff1660e01b8152600401612f029190614e13565b6020604051808303818680612f156143cb565b158015612f2a57600080612f27614271565b50505b505a612f34614417565b5050505050158015612f53573d6000803e3d6000612f50614271565b50505b50505050604051601f3d908101601f19168201604052612f7691908101906148de565b156108f05760405162461bcd60e51b8152600401612f93906150f7565b604051809103906102f4614271565b600081600f0b60001415612fbe57600080612fbb614271565b50505b600082600f0b604085600f0b901b81612fd357fe5b05905060016001607f1b03198112801590612ff5575060016001607f1b038113155b61300757600080613004614271565b50505b9392505050565b60008161302357600080613020614271565b50505b600061302f848461363f565b905060016001607f1b036001600160801b038216111561300757600080613004614271565b6000808060056130626142dc565b6001600160a01b036101009290920a900416630374fc6f600060016130856142dc565b906101000a90046001600160a01b031660026000906130a26142dc565b906101000a90046001600160a01b03166040518363ffffffff1660e01b81526004016130cf929190614f7e565b60206040518083038186806130e26143cb565b1580156130f7576000806130f4614271565b50505b505a613101614417565b5050505050158015613120573d6000803e3d600061311d614271565b50505b50505050604051601f3d908101601f1916820160405261314391908101906148de565b905060008060056131526142dc565b6001600160a01b036101009290920a900416630374fc6f600060026131756142dc565b906101000a90046001600160a01b031660016000906131926142dc565b906101000a90046001600160a01b03166040518363ffffffff1660e01b81526004016131bf929190614f7e565b60206040518083038186806131d26143cb565b1580156131e7576000806131e4614271565b50505b505a6131f1614417565b5050505050158015613210573d6000803e3d600061320d614271565b50505b50505050604051601f3d908101601f1916820160405261323391908101906148de565b905061323d61468c565b613246836133e9565b905061325061468c565b613259836133e9565b90506000613286826040015183518161326e57fe5b04845185604001518161327d57fe5b0401600261300e565b90506000805160206151df833981519152816040516132a59190615037565b60405180910390a194505050505090565b6000600f83810b9083900b0260401d60016001607f1b03198112801590612ff5575060016001607f1b0381131561300757600080613004614271565b620425d490565b620186a090565b6000600160461b82600f0b1261331e5760008061331b614271565b50505b683fffffffffffffffff1982600f0b121561333b57506000613361565b61335e608083600f0b700171547652b82fe1777d0ffda0d23a7d1202901d6137a1565b90505b919050565b60008161337557506000611d18565b600083600f0b121561338f5760008061338c614271565b50505b600f83900b6001600160801b038316810260401c90608084901c026001600160c01b038111156133c7576000806133c4614271565b50505b60401b81198111156133e1576000806133de614271565b50505b019392505050565b6133f161468c565b60008080808060056134016142dc565b906101000a90046001600160a01b03166001600160a01b0316634579268a876040518263ffffffff1660e01b815260040161343c9190615107565b608060405180830381868061344f6143cb565b15801561346457600080613461614271565b50505b505a61346e614417565b505050505015801561348d573d6000803e3d600061348a614271565b50505b50505050604051601f3d908101601f191682016040526134b09190810190614905565b93509350935093506134c061468c565b6040516080810160409081529581526001600160a01b0394851660208201529485019290925290911660608301525092915050565b6000828152600b6020526040812060009061350e6142dc565b906101000a90046001600160a01b0316905081156135b2576001600160a01b0381166000908152600c602052600190604090206000828261354d6142dc565b01925050819061355b61437d565b5050506001600f6000828261356e6142dc565b01925050819061357c61437d565b5050506000805160206151bf833981519152600f6135986142dc565b6040516135a59190615057565b60405180910390a161363a565b6001600160a01b0381166000908152600d60205260019060409020600082826135d96142dc565b0192505081906135e761437d565b50505060016010600082826135fa6142dc565b01925050819061360861437d565b5050506000805160206151bf83398151915260106136246142dc565b6040516136319190614fd8565b60405180910390a15b505050565b60008161365457600080613651614271565b50505b60006001600160c01b0384116136795782604085901b8161367157fe5b049050613787565b60c084811c6401000000008110613692576020918201911c5b6201000081106136a4576010918201911c5b61010081106136b5576008918201911c5b601081106136c5576004918201911c5b600481106136d5576002918201911c5b600281106136e4576001820191505b60bf820360018603901c6001018260ff0387901b816136ff57fe5b0492506001600160801b0383111561371f5760008061371c614271565b50505b608085901c83026001600160801b038616840260c088901c604089901b8281101561374b576001820391505b608084901b92900382811015613762576001820391505b829003608084901c821461377257fe5b88818161377b57fe5b04870196505050505050505b6001600160801b0381111561300757600080613004614271565b6000600160461b82600f0b126137bf576000806137bc614271565b50505b683fffffffffffffffff1982600f0b12156137dc57506000613361565b6001607f1b60006780000000000000008416600f0b131561380e5770016a09e667f3bcc908b2fb1366ea957d3e0260801c5b60008367400000000000000016600f0b131561383b577001306fe0a31b7152de8d5a46305c85edec0260801c5b60008367200000000000000016600f0b1315613868577001172b83c7d517adcdf7c8c50eb14a791f0260801c5b60008367100000000000000016600f0b13156138955770010b5586cf9890f6298b92b71842a983630260801c5b60008367080000000000000016600f0b13156138c2577001059b0d31585743ae7c548eb68ca417fd0260801c5b60008367040000000000000016600f0b13156138ef57700102c9a3e778060ee6f7caca4f7a29bde80260801c5b60008367020000000000000016600f0b131561391c5770010163da9fb33356d84a66ae336dcdfa3f0260801c5b60008367010000000000000016600f0b131561394957700100b1afa5abcbed6129ab13ec11dc95430260801c5b600083668000000000000016600f0b13156139755770010058c86da1c09ea1ff19d294cf2f679b0260801c5b600083664000000000000016600f0b13156139a1577001002c605e2e8cec506d21bfc89a23a00f0260801c5b600083662000000000000016600f0b13156139cd57700100162f3904051fa128bca9c55c31e5df0260801c5b600083661000000000000016600f0b13156139f9577001000b175effdc76ba38e31671ca9397250260801c5b600083660800000000000016600f0b1315613a2557700100058ba01fb9f96d6cacd4b180917c3d0260801c5b600083660400000000000016600f0b1315613a515770010002c5cc37da9491d0985c348c68e7b30260801c5b600083660200000000000016600f0b1315613a7d577001000162e525ee054754457d59952920260260801c5b600083660100000000000016600f0b1315613aa95770010000b17255775c040618bf4a4ade83fc0260801c5b6000836580000000000016600f0b1315613ad4577001000058b91b5bc9ae2eed81e9b7d4cfab0260801c5b6000836540000000000016600f0b1315613aff57700100002c5c89d5ec6ca4d7c8acc017b7c90260801c5b6000836520000000000016600f0b1315613b2a5770010000162e43f4f831060e02d839a9d16d0260801c5b6000836510000000000016600f0b1315613b5557700100000b1721bcfc99d9f890ea069117630260801c5b6000836508000000000016600f0b1315613b805770010000058b90cf1e6d97f9ca14dbcc16280260801c5b6000836504000000000016600f0b1315613bab577001000002c5c863b73f016468f6bac5ca2b0260801c5b6000836502000000000016600f0b1315613bd657700100000162e430e5a18f6119e3c02282a50260801c5b6000836501000000000016600f0b1315613c01577001000000b1721835514b86e6d96efd1bfe0260801c5b60008364800000000016600f0b1315613c2b57700100000058b90c0b48c6be5df846c5b2ef0260801c5b60008364400000000016600f0b1315613c555770010000002c5c8601cc6b9e94213c72737a0260801c5b60008364200000000016600f0b1315613c7f577001000000162e42fff037df38aa2b219f060260801c5b60008364100000000016600f0b1315613ca95770010000000b17217fba9c739aa5819f44f90260801c5b60008364080000000016600f0b1315613cd3577001000000058b90bfcdee5acd3c1cedc8230260801c5b60008364040000000016600f0b1315613cfd57700100000002c5c85fe31f35a6a30da1be500260801c5b60008364020000000016600f0b1315613d275770010000000162e42ff0999ce3541b9fffcf0260801c5b60008364010000000016600f0b1315613d5157700100000000b17217f80f4ef5aadda455540260801c5b600083638000000016600f0b1315613d7a5770010000000058b90bfbf8479bd5a81b51ad0260801c5b600083634000000016600f0b1315613da3577001000000002c5c85fdf84bd62ae30a74cc0260801c5b600083632000000016600f0b1315613dcc57700100000000162e42fefb2fed257559bdaa0260801c5b600083631000000016600f0b1315613df5577001000000000b17217f7d5a7716bba4a9ae0260801c5b600083630800000016600f0b1315613e1e57700100000000058b90bfbe9ddbac5e109cce0260801c5b600083630400000016600f0b1315613e475770010000000002c5c85fdf4b15de6f17eb0d0260801c5b600083630200000016600f0b1315613e70577001000000000162e42fefa494f1478fde050260801c5b600083630100000016600f0b1315613e995770010000000000b17217f7d20cf927c8e94c0260801c5b6000836280000016600f0b1315613ec1577001000000000058b90bfbe8f71cb4e4b33d0260801c5b6000836240000016600f0b1315613ee957700100000000002c5c85fdf477b662b269450260801c5b6000836220000016600f0b1315613f115770010000000000162e42fefa3ae53369388c0260801c5b6000836210000016600f0b1315613f3957700100000000000b17217f7d1d351a389d400260801c5b6000836208000016600f0b1315613f615770010000000000058b90bfbe8e8b2d3d4ede0260801c5b6000836204000016600f0b1315613f89577001000000000002c5c85fdf4741bea6e77e0260801c5b6000836202000016600f0b1315613fb157700100000000000162e42fefa39fe95583c20260801c5b6000836201000016600f0b1315613fd9577001000000000000b17217f7d1cfb72b45e10260801c5b60008361800016600f0b131561400057700100000000000058b90bfbe8e7cc35c3f00260801c5b60008361400016600f0b13156140275770010000000000002c5c85fdf473e242ea380260801c5b60008361200016600f0b131561404e577001000000000000162e42fefa39f02b772c0260801c5b60008361100016600f0b13156140755770010000000000000b17217f7d1cf7d83c1a0260801c5b60008361080016600f0b131561409c577001000000000000058b90bfbe8e7bdcbe2e0260801c5b60008361040016600f0b13156140c357700100000000000002c5c85fdf473dea871f0260801c5b60008361020016600f0b13156140ea5770010000000000000162e42fefa39ef44d910260801c5b60008361010016600f0b131561411157700100000000000000b17217f7d1cf79e9490260801c5b600083608016600f0b13156141375770010000000000000058b90bfbe8e7bce5440260801c5b600083604016600f0b131561415d577001000000000000002c5c85fdf473de6eca0260801c5b600083602016600f0b131561418357700100000000000000162e42fefa39ef366f0260801c5b600083601016600f0b13156141a9577001000000000000000b17217f7d1cf79afa0260801c5b600083600816600f0b13156141cf57700100000000000000058b90bfbe8e7bcd6d0260801c5b600083600416600f0b13156141f55770010000000000000002c5c85fdf473de6b20260801c5b600083600216600f0b131561421b577001000000000000000162e42fefa39ef3580260801c5b600083600116600f0b13156142415770010000000000000000b17217f7d1cf79ab0260801c5b600f83810b60401d603f03900b1c60016001607f1b0381111561335e57600080614269614271565b505092915050565b632a2a7adb598160e01b8152600481016020815285602082015260005b868110156142a957808601518282016040015260200161428e565b506020828760640184336000905af158601d01573d60011458600c01573d6000803e3d621234565260ea61109c52505050565b6303daa959598160e01b8152836004820152602081602483336000905af158601d01573d60011458600c01573d6000803e3d621234565260ea61109c528051935060005b604081101561363a57600082820152602001614320565b6373509064598160e01b8152602081600483336000905af158601d01573d60011458600c01573d6000803e3d621234565260ea61109c5280516000825293506020614320565b6322bd64c0598160e01b8152836004820152846024820152600081604483336000905af158601d01573d60011458600c01573d6000803e3d621234565260ea61109c52600081526020614320565b638435035b598160e01b8152836004820152602081602483336000905af158601d01573d60011458600c01573d6000803e3d621234565260ea61109c5280516000825293506020614320565b638540661f598160e01b8152614448565b8080831115611d18575090919050565b8080831015611d18575090919050565b836004820152846024820152606060448201528660648201526084810160005b88811015614480578088015182820152602001614468565b506060828960a40184336000905af158601d01573d60011458600c01573d6000803e3d621234565260ea61109c52815160408301513d6000853e8b8b82606087013350600060045af150596144d58d3d614438565b8c016144e18187614428565b5b828110156144f657600081526020016144e2565b50929c50505050505050565b6385979f76598160e01b8152836004820152846024820152606060448201528760648201526084810160005b8981101561454657808901518282015260200161452e565b506060828a60a40184336000905af158601d01573d60011458600c01573d6000803e3d621234565260ea61109c52815160408301513d6000853e8c8c82606087013350600060045af1505961459b8e3d614438565b8d016145a78187614428565b5b828110156145bc57600081526020016145a8565b50929d50505050505050565b82600381019282156145ff579160200282015b828111156145ff578235826145ee61437d565b5050916020019190600101906145db565b5061460b9291506146fa565b5090565b63bdbf8c36598160e01b8152602081600483336000905af158601d01573d60011458600c01573d6000803e3d621234565260ea61109c5280516000825293506020614320565b82600381019282156145ff579160200282015b828111156145ff5782518261467b61437d565b505091602001919060010190614668565b604051608081016040908152600080835260208301819052908201819052606082015290565b6040516060808201604052600390829080388339509192915050565b506000816146da61437d565b50506001016000816146ea61437d565b50506001016000906108f061437d565b6120c091905b8082111561460b576000808261471461437d565b505050600101614700565b8035611d1881615189565b8060608101831015611d1857600080614269614271565b600081519050611d18816151a3565b600081519050611d18816151ac565b8035611d18816151b5565b600081519050611d18816151b5565b60006020828403121561479457600080614791614271565b50505b60006147a0848461471f565b949350505050565b600080604083850312156147c4576000806147c1614271565b50505b60006147d0858561471f565b92505060206147e18582860161471f565b9150509250929050565b600080600080600060a0868803121561480c57600080614809614271565b50505b6000614818888861471f565b95505060206148298882890161475f565b945050604061483a8882890161475f565b935050606061484b8882890161475f565b925050608061485c8882890161475f565b9150509295509295909350565b60006060828403121561488457600080614881614271565b50505b60006147a0848461472a565b6000602082840312156148ab576000806148a8614271565b50505b60006147a08484614741565b6000602082840312156148d2576000806148cf614271565b50505b60006147a0848461475f565b6000602082840312156148f9576000806148f6614271565b50505b60006147a0848461476a565b6000806000806080858703121561492457600080614921614271565b50505b6000614930878761476a565b945050602061494187828801614750565b93505060406149528782880161476a565b925050606061496387828801614750565b91505092959194509250565b6000806040838503121561498b57600080614988614271565b50505b6000614997858561475f565b92505060206147e18582860161475f565b6149b181615173565b82525050565b6149b181615146565b6149b181615156565b6149b181615161565b6149b18161517e565b60006149e860148361513d565b736e6f726d616c206d617853697a652051756f746560601b815260200192915050565b6000614a18601a8361513d565b7f746f6f206d616e79206f75747374616e64696e67207061697273000000000000815260200192915050565b6000614a5160238361513d565b7f6e6f7420616e20617070726f766564207374726174656779202d20626174685081526230b4b960e91b602082015260400192915050565b6000614a96600d8361513d565b6c6c6f6746696c6c2071756f746560981b815260200192915050565b6000614abf60058361513d565b64726174696f60d81b815260200192915050565b6000614ae060158361513d565b74191e5b985b5a58c81b585e14da5e9948105cdcd95d605a1b815260200192915050565b6000614b1160148361513d565b731b9bdc9b585b081b585e14da5e9948105cdcd95d60621b815260200192915050565b6000614b4160118361513d565b70756e6465726c79696e6742616c616e636560781b815260200192915050565b6000614b6e60148361513d565b7336b4b23837b4b73a1031b0b631bab630ba32b21d60611b815260200192915050565b6000614b9e600b8361513d565b6a726177206d617853697a6560a81b815260200192915050565b6000614bc5600d8361513d565b6c1b1bd9d19a5b1b08185cdcd95d609a1b815260200192915050565b6000614bee60308361513d565b7f7468657265206973206e6f74206120737072656164206f6e207374726174656781526f6973742773207061697220747261646560801b602082015260400192915050565b6000614c40601c8361513d565b7f7468652062696420697320746f6f206c6172676520696e2073697a6500000000815260200192915050565b6000614c79602a8361513d565b7f61736b207072696365206973206e6f742067726561746572207468616e207468815269194818995cdd08189a5960b21b602082015260400192915050565b6000614cc560018361513d565b606560f81b815260200192915050565b6000614ce2600d8361513d565b6c72616973656420746f2074686560981b815260200192915050565b6000614d0b60108361513d565b6f3ab73232b9363cb4b7339037ba3432b960811b815260200192915050565b6000614d3760098361513d565b6839b430b832a1b7b2b360b91b815260200192915050565b6000614d5c60278361513d565b7f626964207072696365206973206e6f74206c657373207468616e2074686520628152666573742061736b60c81b602082015260400192915050565b6000614da5601c8361513d565b7f7468652061736b20697320746f6f206c6172676520696e2073697a6500000000815260200192915050565b6000614dde601e8361513d565b7f7969656c64206e6f7420636f72726563746c7920726562616c616e6365640000815260200192915050565b6149b1816120c0565b60208101611d1882846149b7565b60408101614e2f82856149a8565b6130076020830184614e0a565b6101008101614e4b828b6149b7565b614e58602083018a6149b7565b614e6560408301896149b7565b614e7260608301886149b7565b614e7f6080830187614e0a565b614e8c60a0830186614e0a565b614e9960c0830185614e0a565b614ea660e0830184614e0a565b9998505050505050505050565b6101408101614ec2828d6149b7565b614ecf602083018c6149b7565b614edc604083018b6149b7565b614ee9606083018a6149b7565b614ef66080830189614e0a565b614f0360a0830188614e0a565b614f1060c0830187614e0a565b614f1d60e0830186614e0a565b614f2b6101008301856149b7565b614f39610120830184614e0a565b9b9a5050505050505050505050565b60608101614f5682866149b7565b614f6360208301856149b7565b6147a060408301846149d2565b60408101614e2f82856149b7565b60408101614f8c82856149c0565b61300760208301846149c0565b60408082528101614fa9816149db565b9050611d186020830184614e0a565b6020808252810161335e81614a0b565b6020808252810161335e81614a44565b60408082528101614fa981614a89565b60408082528101614ff881614ab2565b9050611d1860208301846149c9565b60408082528101614fa981614ad3565b60408082528101614fa981614b04565b60408082528101614fa981614b34565b60408082528101614ff881614b61565b60408082528101614fa981614b91565b60408082528101614fa981614bb8565b6020808252810161335e81614be1565b6020808252810161335e81614c33565b6020808252810161335e81614c6c565b60408082528101614ff881614cb8565b60408082528101614ff881614cd5565b60408082528101614fa981614cfe565b60408082528101614ff881614d2a565b6020808252810161335e81614d4f565b6020808252810161335e81614d98565b6020808252810161335e81614dd1565b60208101611d188284614e0a565b606081016151238286614e0a565b61513060208301856149c0565b6147a06040830184614e0a565b90815260200190565b600061335e82615167565b151590565b600061335e82615146565b600f0b90565b6001600160a01b031690565b600061335e82615156565b600061335e826120c0565b61519281615146565b81146129a15760008061363a614271565b61519281615151565b61519281615156565b615192816120c056fe237ed0dc730435f49ffc52e0c385fe376f53260bda0022cdbd6bea601c0584961eed1b3cc441a43b0abc6b2676a5071c862f7570637f009a01de6dc2a982bea54e4fbd9f26259e82cfb30871ba8fb37535ebc893e81ff81141c1a2dc925d930f",
  "linkReferences": {},
  "deployedLinkReferences": {}
}