{
  "_format": "hh-sol-artifact-1",
  "contractName": "BathToken",
  "sourceName": "contracts/rubiconPoolsv0/BathToken.sol",
  "abi": [
    {
      "anonymous": false,
      "inputs": [
        {
          "indexed": true,
          "internalType": "address",
          "name": "owner",
          "type": "address"
        },
        {
          "indexed": true,
          "internalType": "address",
          "name": "spender",
          "type": "address"
        },
        {
          "indexed": false,
          "internalType": "uint256",
          "name": "value",
          "type": "uint256"
        }
      ],
      "name": "Approval",
      "type": "event"
    },
    {
      "anonymous": false,
      "inputs": [
        {
          "indexed": false,
          "internalType": "uint256",
          "name": "pay_amt",
          "type": "uint256"
        },
        {
          "indexed": false,
          "internalType": "contract ERC20",
          "name": "pay_gem",
          "type": "address"
        },
        {
          "indexed": false,
          "internalType": "uint256",
          "name": "buy_amt",
          "type": "uint256"
        },
        {
          "indexed": false,
          "internalType": "contract ERC20",
          "name": "buy_gem",
          "type": "address"
        }
      ],
      "name": "LogTrade",
      "type": "event"
    },
    {
      "anonymous": false,
      "inputs": [
        {
          "indexed": false,
          "internalType": "uint256",
          "name": "yield",
          "type": "uint256"
        }
      ],
      "name": "LogYield",
      "type": "event"
    },
    {
      "anonymous": false,
      "inputs": [
        {
          "indexed": true,
          "internalType": "address",
          "name": "from",
          "type": "address"
        },
        {
          "indexed": true,
          "internalType": "address",
          "name": "to",
          "type": "address"
        },
        {
          "indexed": false,
          "internalType": "uint256",
          "name": "value",
          "type": "uint256"
        }
      ],
      "name": "Transfer",
      "type": "event"
    },
    {
      "constant": true,
      "inputs": [],
      "name": "DOMAIN_SEPARATOR",
      "outputs": [
        {
          "internalType": "bytes32",
          "name": "",
          "type": "bytes32"
        }
      ],
      "payable": false,
      "stateMutability": "view",
      "type": "function"
    },
    {
      "constant": true,
      "inputs": [],
      "name": "PERMIT_TYPEHASH",
      "outputs": [
        {
          "internalType": "bytes32",
          "name": "",
          "type": "bytes32"
        }
      ],
      "payable": false,
      "stateMutability": "view",
      "type": "function"
    },
    {
      "constant": true,
      "inputs": [],
      "name": "RubiconMarketAddress",
      "outputs": [
        {
          "internalType": "address",
          "name": "",
          "type": "address"
        }
      ],
      "payable": false,
      "stateMutability": "view",
      "type": "function"
    },
    {
      "constant": true,
      "inputs": [
        {
          "internalType": "address",
          "name": "",
          "type": "address"
        },
        {
          "internalType": "address",
          "name": "",
          "type": "address"
        }
      ],
      "name": "allowance",
      "outputs": [
        {
          "internalType": "uint256",
          "name": "",
          "type": "uint256"
        }
      ],
      "payable": false,
      "stateMutability": "view",
      "type": "function"
    },
    {
      "constant": false,
      "inputs": [
        {
          "internalType": "address",
          "name": "spender",
          "type": "address"
        },
        {
          "internalType": "uint256",
          "name": "value",
          "type": "uint256"
        }
      ],
      "name": "approve",
      "outputs": [
        {
          "internalType": "bool",
          "name": "",
          "type": "bool"
        }
      ],
      "payable": false,
      "stateMutability": "nonpayable",
      "type": "function"
    },
    {
      "constant": true,
      "inputs": [
        {
          "internalType": "address",
          "name": "",
          "type": "address"
        }
      ],
      "name": "balanceOf",
      "outputs": [
        {
          "internalType": "uint256",
          "name": "",
          "type": "uint256"
        }
      ],
      "payable": false,
      "stateMutability": "view",
      "type": "function"
    },
    {
      "constant": true,
      "inputs": [],
      "name": "bathHouse",
      "outputs": [
        {
          "internalType": "address",
          "name": "",
          "type": "address"
        }
      ],
      "payable": false,
      "stateMutability": "view",
      "type": "function"
    },
    {
      "constant": false,
      "inputs": [
        {
          "internalType": "uint256",
          "name": "id",
          "type": "uint256"
        }
      ],
      "name": "cancel",
      "outputs": [],
      "payable": false,
      "stateMutability": "nonpayable",
      "type": "function"
    },
    {
      "constant": true,
      "inputs": [],
      "name": "decimals",
      "outputs": [
        {
          "internalType": "uint8",
          "name": "",
          "type": "uint8"
        }
      ],
      "payable": false,
      "stateMutability": "view",
      "type": "function"
    },
    {
      "constant": false,
      "inputs": [
        {
          "internalType": "uint256",
          "name": "_amount",
          "type": "uint256"
        }
      ],
      "name": "deposit",
      "outputs": [],
      "payable": false,
      "stateMutability": "nonpayable",
      "type": "function"
    },
    {
      "constant": true,
      "inputs": [
        {
          "internalType": "address",
          "name": "",
          "type": "address"
        }
      ],
      "name": "diveInTheBath",
      "outputs": [
        {
          "internalType": "uint256",
          "name": "",
          "type": "uint256"
        }
      ],
      "payable": false,
      "stateMutability": "view",
      "type": "function"
    },
    {
      "constant": false,
      "inputs": [
        {
          "internalType": "string",
          "name": "bathName",
          "type": "string"
        },
        {
          "internalType": "contract IERC20",
          "name": "token",
          "type": "address"
        },
        {
          "internalType": "address",
          "name": "market",
          "type": "address"
        },
        {
          "internalType": "address",
          "name": "_bathHouse",
          "type": "address"
        }
      ],
      "name": "initialize",
      "outputs": [],
      "payable": false,
      "stateMutability": "nonpayable",
      "type": "function"
    },
    {
      "constant": true,
      "inputs": [],
      "name": "initialized",
      "outputs": [
        {
          "internalType": "bool",
          "name": "",
          "type": "bool"
        }
      ],
      "payable": false,
      "stateMutability": "view",
      "type": "function"
    },
    {
      "constant": true,
      "inputs": [],
      "name": "name",
      "outputs": [
        {
          "internalType": "string",
          "name": "",
          "type": "string"
        }
      ],
      "payable": false,
      "stateMutability": "view",
      "type": "function"
    },
    {
      "constant": true,
      "inputs": [
        {
          "internalType": "address",
          "name": "",
          "type": "address"
        }
      ],
      "name": "nonces",
      "outputs": [
        {
          "internalType": "uint256",
          "name": "",
          "type": "uint256"
        }
      ],
      "payable": false,
      "stateMutability": "view",
      "type": "function"
    },
    {
      "constant": false,
      "inputs": [
        {
          "internalType": "address",
          "name": "owner",
          "type": "address"
        },
        {
          "internalType": "address",
          "name": "spender",
          "type": "address"
        },
        {
          "internalType": "uint256",
          "name": "value",
          "type": "uint256"
        },
        {
          "internalType": "uint256",
          "name": "deadline",
          "type": "uint256"
        },
        {
          "internalType": "uint8",
          "name": "v",
          "type": "uint8"
        },
        {
          "internalType": "bytes32",
          "name": "r",
          "type": "bytes32"
        },
        {
          "internalType": "bytes32",
          "name": "s",
          "type": "bytes32"
        }
      ],
      "name": "permit",
      "outputs": [],
      "payable": false,
      "stateMutability": "nonpayable",
      "type": "function"
    },
    {
      "constant": false,
      "inputs": [
        {
          "internalType": "uint256",
          "name": "pay_amt",
          "type": "uint256"
        },
        {
          "internalType": "contract ERC20",
          "name": "pay_gem",
          "type": "address"
        },
        {
          "internalType": "uint256",
          "name": "buy_amt",
          "type": "uint256"
        },
        {
          "internalType": "contract ERC20",
          "name": "buy_gem",
          "type": "address"
        }
      ],
      "name": "placeOffer",
      "outputs": [
        {
          "internalType": "uint256",
          "name": "",
          "type": "uint256"
        }
      ],
      "payable": false,
      "stateMutability": "nonpayable",
      "type": "function"
    },
    {
      "constant": false,
      "inputs": [
        {
          "internalType": "address",
          "name": "sisterBath",
          "type": "address"
        },
        {
          "internalType": "address",
          "name": "underlying",
          "type": "address"
        },
        {
          "internalType": "uint256",
          "name": "stratProportion",
          "type": "uint256"
        }
      ],
      "name": "rebalance",
      "outputs": [],
      "payable": false,
      "stateMutability": "nonpayable",
      "type": "function"
    },
    {
      "constant": true,
      "inputs": [],
      "name": "symbol",
      "outputs": [
        {
          "internalType": "string",
          "name": "",
          "type": "string"
        }
      ],
      "payable": false,
      "stateMutability": "view",
      "type": "function"
    },
    {
      "constant": true,
      "inputs": [],
      "name": "totalSupply",
      "outputs": [
        {
          "internalType": "uint256",
          "name": "",
          "type": "uint256"
        }
      ],
      "payable": false,
      "stateMutability": "view",
      "type": "function"
    },
    {
      "constant": false,
      "inputs": [
        {
          "internalType": "address",
          "name": "to",
          "type": "address"
        },
        {
          "internalType": "uint256",
          "name": "value",
          "type": "uint256"
        }
      ],
      "name": "transfer",
      "outputs": [
        {
          "internalType": "bool",
          "name": "",
          "type": "bool"
        }
      ],
      "payable": false,
      "stateMutability": "nonpayable",
      "type": "function"
    },
    {
      "constant": false,
      "inputs": [
        {
          "internalType": "address",
          "name": "from",
          "type": "address"
        },
        {
          "internalType": "address",
          "name": "to",
          "type": "address"
        },
        {
          "internalType": "uint256",
          "name": "value",
          "type": "uint256"
        }
      ],
      "name": "transferFrom",
      "outputs": [
        {
          "internalType": "bool",
          "name": "",
          "type": "bool"
        }
      ],
      "payable": false,
      "stateMutability": "nonpayable",
      "type": "function"
    },
    {
      "constant": true,
      "inputs": [],
      "name": "underlyingToken",
      "outputs": [
        {
          "internalType": "contract IERC20",
          "name": "",
          "type": "address"
        }
      ],
      "payable": false,
      "stateMutability": "view",
      "type": "function"
    },
    {
      "constant": false,
      "inputs": [
        {
          "internalType": "uint256",
          "name": "_shares",
          "type": "uint256"
        }
      ],
      "name": "withdraw",
      "outputs": [],
      "payable": false,
      "stateMutability": "nonpayable",
      "type": "function"
    },
    {
      "constant": true,
      "inputs": [
        {
          "internalType": "uint256",
          "name": "",
          "type": "uint256"
        },
        {
          "internalType": "uint256",
          "name": "",
          "type": "uint256"
        }
      ],
      "name": "yieldTracker",
      "outputs": [
        {
          "internalType": "uint256",
          "name": "",
          "type": "uint256"
        }
      ],
      "payable": false,
      "stateMutability": "view",
      "type": "function"
    }
  ],
  "bytecode": "0x60806040523480156200001c576000806200001962000023565b50505b5062000090565b632a2a7adb598160e01b8152600481016020815285602082015260005b868110156200005d57808601518282016040015260200162000040565b506020828760640184336000905af158600e01573d6000803e3d6000fd5b3d6001141558600a015760016000f35b505050565b612a7880620000a06000396000f3fe6080604052348015610019576000806100166124d0565b50505b506004361061013c5760003560e01c806306fdde031461014a578063095ea7b3146101c9578063158ef93e1461021257806318160ddd1461021a57806323b872dd146102345780632495a59914610273578063271e4426146102975780632e1a7d4d146102dc57806330adf81f14610304578063313ce5671461030c5780633644e5151461032a5780633830f1b61461033257806340e58ee51461035e57806360c38b281461038457806360f71b241461038c57806370a08231146103945780637ecebe00146103c357806395d89b41146103f2578063a9059cbb146103fa578063afd639ee1461042f578063b3f865f71461045e578063b6b55f251461049d578063d505accf146104c3578063dd62ed3e1461051d578063f34822b414610554575b6000806101476124d0565b50505b610152610635565b60405160208082528190810183818151815260200191508051906020019080838360005b8381101561018e578082015183820152602001610176565b50505050905090810190601f1680156101bb5780820380516001836020036101000a031916815260200191505b509250505060405180910390f35b6101fe600480360360408110156101e8576000806101e56124d0565b50505b506001600160a01b03813516906020013561065b565b604051901515815260200160405180910390f35b6101fe61067a565b610222610693565b60405190815260200160405180910390f35b6101fe60048036036060811015610253576000806102506124d0565b50505b506001600160a01b038135811691602081013590911690604001356106a0565b61027b6107b6565b6040516001600160a01b03909116815260200160405180910390f35b610222600480360360808110156102b6576000806102b36124d0565b50505b508035906001600160a01b036020820135811691604081013591606090910135166107d5565b610302600480360360208110156102fb576000806102f86124d0565b50505b5035610a55565b005b610222610c9a565b610314610cac565b60405160ff909116815260200160405180910390f35b610222610cb1565b610222600480360360408110156103515760008061034e6124d0565b50505b5080359060200135610cbb565b6103026004803603602081101561037d5760008061037a6124d0565b50505b5035610cf5565b61027b610ee0565b61027b610eec565b610222600480360360208110156103b3576000806103b06124d0565b50505b50356001600160a01b0316610ef8565b610222600480360360208110156103e2576000806103df6124d0565b50505b50356001600160a01b0316610f10565b610152610f28565b6101fe60048036036040811015610419576000806104166124d0565b50505b506001600160a01b038135169060200135610fe1565b6102226004803603602081101561044e5760008061044b6124d0565b50505b50356001600160a01b0316610ff6565b6103026004803603606081101561047d5760008061047a6124d0565b50505b506001600160a01b0381358116916020810135909116906040013561100e565b610302600480360360208110156104bc576000806104b96124d0565b50505b50356114f4565b610302600480360360e08110156104e2576000806104df6124d0565b50505b506001600160a01b03813581169160208101359091169060408101359060608101359060ff6080820135169060a08101359060c00135611a17565b6102226004803603604081101561053c576000806105396124d0565b50505b506001600160a01b0381358116916020013516611c82565b61030260048036036080811015610573576000806105706124d0565b50505b810190602081018135600160201b811115610596576000806105936124d0565b50505b8201836020820111156105b1576000806105ae6124d0565b50505b803590602001918460018302840111600160201b831117156105db576000806105d86124d0565b50505b91908080601f0160208091040260200160405190810160405281815292919060208401838380828437600092019190915250929550506001600160a01b03833581169450602084013581169360400135169150611ca89050565b60405160408082019052600c81526b42617468546f6b656e20763160a01b602082015281565b60006106705a61066961253b565b8484611fa3565b5060015b92915050565b6000600b610686612595565b906101000a900460ff1681565b600461069d612595565b81565b6001600160a01b038316600090815260076020526000196040822060005a6106c661253b565b6001600160a01b03166001600160a01b031681526020019081526020016000206106ee612595565b146107a1576001600160a01b038416600090815260076020526107509083906040902060005a61071c61253b565b6001600160a01b03166001600160a01b03168152602001908152602001600020610744612595565b9063ffffffff61202f16565b6001600160a01b038516600090815260076020526040902060005a61077361253b565b6001600160a01b03166001600160a01b03168152602001908152602001600020819061079d6125e1565b5050505b6107ac848484612076565b5060019392505050565b600060016107c2612595565b906101000a90046001600160a01b031681565b60008060036107e2612595565b906101000a90046001600160a01b03166001600160a01b03166386cbe0275a61080961253b565b6040516001600160e01b031960e084901b1681526001600160a01b039091166004820152602401602060405180830381868061084361262f565b158015610858576000806108556124d0565b50505b505a61086261267b565b5050505050158015610881573d6000803e3d600061087e6124d0565b50505b505050506040513d60208110156108a05760008061089d6124d0565b50505b810190808051151560011492506108f49150505760405162461bcd60e51b815260040180806020018281038252602481526020018061298160249139604001915050604051809103906108f16124d0565b50505b6000806002610901612595565b906101000a90046001600160a01b03166001600160a01b031663e1a6f014878787876000806040516001600160e01b031960e089901b16815260048101969096526001600160a01b0394851660248701526044860193909352921660648401526084830191909152151560a482015260c4016020604051808303816000878061098861262f565b15801561099d5760008061099a6124d0565b50505b505a6109a7612766565b5050505050501580156109c7573d6000803e3d60006109c46124d0565b50505b505050506040513d60208110156109e6576000806109e36124d0565b50505b81019080805193507f819e390338feffe95e2de57172d6faf337853dfd15c7a09a32d76f7fd2443875925088915087905086866040519384526001600160a01b03928316602085015260408085019290925290911660608301526080909101905180910390a195945050505050565b6000610ba56004610a64612595565b610b998460006001610a74612595565b906101000a90046001600160a01b03166001600160a01b03166370a082315a63996d79a5598160e01b8152602081600483336000905af158600e01573d6000803e3d6000fd5b3d6001141558600a015760016000f35b8051925060005b6040811015610ae857600082820152602001610ad1565b5050506040516001600160e01b031960e084901b1681526001600160a01b0390911660048201526024016020604051808303818680610b2561262f565b158015610b3a57600080610b376124d0565b50505b505a610b4461267b565b5050505050158015610b63573d6000803e3d6000610b606124d0565b50505b505050506040513d6020811015610b8257600080610b7f6124d0565b50505b8101908080519392505063ffffffff612152169050565b9063ffffffff6121ba16565b9050610bb95a610bb361253b565b836121f7565b60006001610bc5612595565b906101000a90046001600160a01b03166001600160a01b031663a9059cbb5a610bec61253b565b836040516001600160e01b031960e085901b1681526001600160a01b039092166004830152602482015260440160206040518083038160008780610c2e61262f565b158015610c4357600080610c406124d0565b50505b505a610c4d612766565b505050505050158015610c6d573d6000803e3d6000610c6a6124d0565b50505b505050506040513d6020811015610c8c57600080610c896124d0565b50505b810190808051505050505050565b600080516020612a3883398151915281565b601281565b600961069d612595565b60088281610cc7612595565b8110610ccf57fe5b90600052602060002090600202018160028110610ce857fe5b01915061069d9050612595565b60006003610d01612595565b906101000a90046001600160a01b03166001600160a01b031663ca3a86cd5a610d2861253b565b6040516001600160e01b031960e084901b1681526001600160a01b0390911660048201526024016020604051808303818680610d6261262f565b158015610d7757600080610d746124d0565b50505b505a610d8161267b565b5050505050158015610da0573d6000803e3d6000610d9d6124d0565b50505b505050506040513d6020811015610dbf57600080610dbc6124d0565b50505b81019080805115156001149250610e169150505760405162461bcd60e51b81526020600482018190526024820152600080516020612a58833981519152604482015260640160405180910390610e136124d0565b50505b60006002610e22612595565b906101000a90046001600160a01b03166001600160a01b03166340e58ee5826040516001600160e01b031960e084901b168152600481019190915260240160206040518083038160008780610e7561262f565b158015610e8a57600080610e876124d0565b50505b505a610e94612766565b505050505050158015610eb4573d6000803e3d6000610eb16124d0565b50505b505050506040513d6020811015610ed357600080610ed06124d0565b50505b8101908080515050505050565b600060036107c2612595565b600060026107c2612595565b6005602052806000526040600020905061069d612595565b600a602052806000526040600020905061069d612595565b600080610f33612595565b600181600116156101000203166002900480601f016020809104026020016040519081016040528181529190602083018280610f6d612595565b60018160011615610100020316600290048015610fd95780601f10610fa7576101008083610f99612595565b040283529160200191610fd9565b820191906000526020600020905b81610fbe612595565b81529060010190602001808311610fb557829003601f168201915b505050505081565b60006106705a610fef61253b565b8484612076565b6006602052806000526040600020905061069d612595565b6000600361101a612595565b906101000a90046001600160a01b03166001600160a01b031663ca3a86cd5a61104161253b565b6040516001600160e01b031960e084901b1681526001600160a01b039091166004820152602401602060405180830381868061107b61262f565b1580156110905760008061108d6124d0565b50505b505a61109a61267b565b50505050501580156110b9573d6000803e3d60006110b66124d0565b50505b505050506040513d60208110156110d8576000806110d56124d0565b50505b8101908080511515600114925061112f9150505760405162461bcd60e51b81526020600482018190526024820152600080516020612a5883398151915260448201526064016040518091039061112c6124d0565b50505b60008111801561113f5750601481105b6111515760008061114e6124d0565b50505b60006064836001600160a01b03166370a082315a63996d79a5598160e01b8152602081600483336000905af158600e01573d6000803e3d6000fd5b3d6001141558600a015760016000f35b8051925060005b60408110156111ba576000828201526020016111a3565b5050506040516001600160e01b031960e084901b1681526001600160a01b03909116600482015260240160206040518083038186806111f761262f565b15801561120c576000806112096124d0565b50505b505a61121661267b565b5050505050158015611235573d6000803e3d60006112326124d0565b50505b505050506040513d6020811015611254576000806112516124d0565b50505b81019080805186029250839150611269905057fe5b0490506001600160a01b03831663a9059cbb8583836370a082315a63996d79a5598160e01b8152602081600483336000905af158600e01573d6000803e3d6000fd5b3d6001141558600a015760016000f35b8051925060005b60408110156112d9576000828201526020016112c2565b5050506040516001600160e01b031960e084901b1681526001600160a01b039091166004820152602401602060405180830381868061131661262f565b15801561132b576000806113286124d0565b50505b505a61133561267b565b5050505050158015611354573d6000803e3d60006113516124d0565b50505b505050506040513d6020811015611373576000806113706124d0565b50505b8101908080519390930392506040915050516001600160e01b031960e085901b1681526001600160a01b0390921660048301526024820152604401602060405180830381600087806113c361262f565b1580156113d8576000806113d56124d0565b50505b505a6113e2612766565b505050505050158015611402573d6000803e3d60006113ff6124d0565b50505b505050506040513d60208110156114215760008061141e6124d0565b50505b8101908080515050506001600160a01b038416905063a9059cbb5a61144461253b565b836040516001600160e01b031960e085901b1681526001600160a01b03909216600483015260248201526044016020604051808303816000878061148661262f565b15801561149b576000806114986124d0565b50505b505a6114a5612766565b5050505050501580156114c5573d6000803e3d60006114c26124d0565b50505b505050506040513d60208110156114e4576000806114e16124d0565b50505b8101908080515050505050505050565b6000806001611501612595565b906101000a90046001600160a01b03166001600160a01b03166370a082315a63996d79a5598160e01b8152602081600483336000905af158600e01573d6000803e3d6000fd5b3d6001141558600a015760016000f35b8051925060005b60408110156115755760008282015260200161155e565b5050506040516001600160e01b031960e084901b1681526001600160a01b03909116600482015260240160206040518083038186806115b261262f565b1580156115c7576000806115c46124d0565b50505b505a6115d161267b565b50505050501580156115f0573d6000803e3d60006115ed6124d0565b50505b505050506040513d602081101561160f5760008061160c6124d0565b50505b8101908080519350600092508291506001905061162a612595565b906101000a90046001600160a01b03166001600160a01b03166370a082315a63996d79a5598160e01b8152602081600483336000905af158600e01573d6000803e3d6000fd5b3d6001141558600a015760016000f35b8051925060005b604081101561169e57600082820152602001611687565b5050506040516001600160e01b031960e084901b1681526001600160a01b03909116600482015260240160206040518083038186806116db61262f565b1580156116f0576000806116ed6124d0565b50505b505a6116fa61267b565b5050505050158015611719573d6000803e3d60006117166124d0565b50505b505050506040513d6020811015611738576000806117356124d0565b50505b810190808051935060009250600191506117529050612595565b906101000a90046001600160a01b03166001600160a01b03166323b872dd5a61177961253b565b5a63996d79a5598160e01b8152602081600483336000905af158600e01573d6000803e3d6000fd5b3d6001141558600a015760016000f35b8051925060005b60408110156117cf576000828201526020016117b8565b505050866040516001600160e01b031960e086901b1681526001600160a01b03938416600482015291909216602482015260448101919091526064016020604051808303816000878061182061262f565b158015611835576000806118326124d0565b50505b505a61183f612766565b50505050505015801561185f573d6000803e3d600061185c6124d0565b50505b505050506040513d602081101561187e5760008061187b6124d0565b50505b810190808051506000925082915060019050611898612595565b906101000a90046001600160a01b03166001600160a01b03166370a082315a63996d79a5598160e01b8152602081600483336000905af158600e01573d6000803e3d6000fd5b3d6001141558600a015760016000f35b8051925060005b604081101561190c576000828201526020016118f5565b5050506040516001600160e01b031960e084901b1681526001600160a01b039091166004820152602401602060405180830381868061194961262f565b15801561195e5760008061195b6124d0565b50505b505a61196861267b565b5050505050158015611987573d6000803e3d60006119846124d0565b50505b505050506040513d60208110156119a6576000806119a36124d0565b50505b81019080805193506119c4925083915084905063ffffffff61202f16565b9350600060046119d2612595565b6119dd5750836119fe565b6119fb84610b9960046119ee612595565b889063ffffffff61215216565b90505b611a105a611a0a61253b565b82612290565b5050505050565b5a611a2061282c565b841015611a715760405162461bcd60e51b8152602060048201526012602482015271155b9a5cddd85c158c8e881156141254915160721b604482015260640160405180910390611a6e6124d0565b50505b60006009611a7d612595565b6001600160a01b0389166000908152600a602052600080516020612a38833981519152908a908a908a9060409020600081611ab6612595565b91600183019150611ac56125e1565b50508a60405160200180878152602001866001600160a01b03166001600160a01b03168152602001856001600160a01b03166001600160a01b0316815260200184815260200183815260200182815260200196505050505050506040516020818303038152906040528051906020012060405161190160f01b602082015260228101929092526042820152606201604051602081830303815290604052805190602001209050600060018286868660405160008152602001604052604051808581526020018460ff1660ff1681526020018381526020018281526020019450505050506020604051602081039080840390855a611bc061267b565b5050505050158015611bdf573d6000803e3d6000611bdc6124d0565b50505b5050506020604051035190506001600160a01b03811615801590611c145750886001600160a01b0316816001600160a01b0316145b611c6c5760405162461bcd60e51b815260206004820152601c60248201527b556e697377617056323a20494e56414c49445f5349474e415455524560201b604482015260640160405180910390611c696124d0565b50505b611c77898989611fa3565b505050505050505050565b6007602052816000526040600020602052806000526040600020915061069d9050612595565b6000600b611cb4612595565b906101000a900460ff1615611cd157600080611cce6124d0565b50505b6000848051611ce4929160200190612872565b508260018080611cf2612595565b816001600160a01b0302191690836001600160a01b0316021790611d146125e1565b50505081600260006101000a81611d29612595565b816001600160a01b0302191690836001600160a01b0316021790611d4b6125e1565b50505080600360006101000a81611d60612595565b816001600160a01b0302191690836001600160a01b0316021790611d826125e1565b50505060005a611d90612912565b90506040518060526129a582396052019050604051809103902060405160408082019052600c81526b42617468546f6b656e20763160a01b6020820152805190602001206040516040808201905260018152603160f81b602082015280519060200120835a63996d79a5598160e01b8152602081600483336000905af158600e01573d6000803e3d6000fd5b3d6001141558600a015760016000f35b8051925060005b6040811015611e4a57600082820152602001611e33565b5050506040516020810195909552604080860194909452606085019290925260808401526001600160a01b031660a083015260c0909101905160208183030381529060405280519060200120806009611ea16125e1565b506000199150506001600160a01b03851663095ea7b360006002611ec3612595565b906101000a90046001600160a01b0316836040516001600160e01b031960e085901b1681526001600160a01b039092166004830152602482015260440160206040518083038160008780611f1561262f565b158015611f2a57600080611f276124d0565b50505b505a611f34612766565b505050505050158015611f54573d6000803e3d6000611f516124d0565b50505b505050506040513d6020811015611f7357600080611f706124d0565b50505b8101908080515060019250600b915082905081611f8e612595565b8160ff02191690831515021790611c776125e1565b6001600160a01b038316600090815260076020528190604090206001600160a01b0384166000908152602091909152604090208190611fe06125e1565b505050816001600160a01b0316836001600160a01b03167f8c5be1e5ebec7d5bd14f71427d1e84f3dd0314c0f7b2291e5b200ac8c7c3b9258360405190815260200160405180910390a3505050565b600061206f838360405160408082019052601e81527f536166654d6174683a207375627472616374696f6e206f766572666c6f7700006020820152612328565b9392505050565b6001600160a01b0383166000908152600560205261209c90829060409020610744612595565b6001600160a01b038416600090815260056020526040902081906120be6125e1565b5050506001600160a01b038216600090815260056020526120f3908290604090206120e7612595565b9063ffffffff6123c816565b6001600160a01b038316600090815260056020526040902081906121156125e1565b505050816001600160a01b0316836001600160a01b0316600080516020612a188339815191528360405190815260200160405180910390a3505050565b60008261216157506000610674565b8282028284828161216e57fe5b041461206f5760405162461bcd60e51b81526004018080602001828103825260218152602001806129f760219139604001915050604051809103906121b16124d0565b50509392505050565b600061206f838360405160408082019052601a815279536166654d6174683a206469766973696f6e206279207a65726f60301b6020820152612425565b6001600160a01b0382166000908152600560205261221d90829060409020610744612595565b6001600160a01b0383166000908152600560205260409020819061223f6125e1565b505050612250816004610744612595565b80600461225b6125e1565b5060009150506001600160a01b038316600080516020612a188339815191528360405190815260200160405180910390a35050565b61229e8160046120e7612595565b8060046122a96125e1565b5050506001600160a01b038216600090815260056020526122d2908290604090206120e7612595565b6001600160a01b038316600090815260056020526040902081906122f46125e1565b5050506001600160a01b0382166000600080516020612a188339815191528360405190815260200160405180910390a35050565b600081848411156123c05760405162461bcd60e51b81526004018080602001828103825283818151815260200191508051906020019080838360005b8381101561237c578082015183820152602001612364565b50505050905090810190601f1680156123a95780820380516001836020036101000a031916815260200191505b5092505050604051809103906123bd6124d0565b50505b505050900390565b60008282018381101561206f5760405162461bcd60e51b815260206004820152601b60248201527a536166654d6174683a206164646974696f6e206f766572666c6f7760281b6044820152606401604051809103906121b16124d0565b600081836124ba5760405162461bcd60e51b81526004018080602001828103825283818151815260200191508051906020019080838360005b8381101561247657808201518382015260200161245e565b50505050905090810190601f1680156124a35780820380516001836020036101000a031916815260200191505b5092505050604051809103906124b76124d0565b50505b5060008385816124c657fe5b0495945050505050565b632a2a7adb598160e01b8152600481016020815285602082015260005b868110156125085780860151828201604001526020016124ed565b506020828760640184336000905af158600e01573d6000803e3d6000fd5b3d6001141558600a015760016000f35b505050565b6373509064598160e01b8152602081600483336000905af158600e01573d6000803e3d6000fd5b3d6001141558600a015760016000f35b8051935060005b604081101561259057600082820152602001612579565b505050565b6303daa959598160e01b8152836004820152602081602483336000905af158600e01573d6000803e3d6000fd5b3d6001141558600a015760016000f35b80516000825293506020612579565b6322bd64c0598160e01b8152836004820152846024820152600081604483336000905af158600e01573d6000803e3d6000fd5b3d6001141558600a015760016000f35b600081526020612579565b638435035b598160e01b8152836004820152602081602483336000905af158600e01573d6000803e3d6000fd5b3d6001141558600a015760016000f35b80516000825293506020612579565b638540661f598160e01b81526126ac565b8080831115610674575090919050565b8080831015610674575090919050565b836004820152846024820152606060448201528660648201526084810160005b888110156126e45780880151828201526020016126cc565b506060828960a40184336000905af158600e01573d6000803e3d6000fd5b3d6001141558600a015760016000f35b815160408301513d6000853e8b8b82606087013350600060045af150596127398d3d61269c565b8c01612745818761268c565b5b8281101561275a5760008152602001612746565b50929c50505050505050565b6385979f76598160e01b8152836004820152846024820152606060448201528760648201526084810160005b898110156127aa578089015182820152602001612792565b506060828a60a40184336000905af158600e01573d6000803e3d6000fd5b3d6001141558600a015760016000f35b815160408301513d6000853e8c8c82606087013350600060045af150596127ff8e3d61269c565b8d0161280b818761268c565b5b82811015612820576000815260200161280c565b50929d50505050505050565b63bdbf8c36598160e01b8152602081600483336000905af158600e01573d6000803e3d6000fd5b3d6001141558600a015760016000f35b80516000825293506020612579565b828061287c612595565b600181600116156101000203166002900490600052602060002090601f016020900481019282601f106128c357805160ff191683800117856128bc6125e1565b5050612902565b828001600101856128d26125e1565b50508215612902579182015b82811115612902578251826128f16125e1565b5050916020019190600101906128de565b5061290e929150612958565b5090565b6390580256598160e01b8152602081600483336000905af158600e01573d6000803e3d6000fd5b3d6001141558600a015760016000f35b80516000825293506020612579565b61297d91905b8082111561290e57600080826129726125e1565b50505060010161295e565b9056fe6e6f7420616e20617070726f766564207374726174656779202d2062617468546f6b656e454950373132446f6d61696e28737472696e67206e616d652c737472696e672076657273696f6e2c75696e7432353620636861696e49642c6164647265737320766572696679696e67436f6e747261637429536166654d6174683a206d756c7469706c69636174696f6e206f766572666c6f77ddf252ad1be2c89b69c2b068fc378daa952ba7f163c4a11628f55a4df523b3ef6e71edae12b1b97f4d1f60370fef10105fa2faae0126114a169c64845d6126c96e6f7420616e20617070726f7665642070616972202d2062617468546f6b656e",
  "deployedBytecode": "0x6080604052348015610019576000806100166124d0565b50505b506004361061013c5760003560e01c806306fdde031461014a578063095ea7b3146101c9578063158ef93e1461021257806318160ddd1461021a57806323b872dd146102345780632495a59914610273578063271e4426146102975780632e1a7d4d146102dc57806330adf81f14610304578063313ce5671461030c5780633644e5151461032a5780633830f1b61461033257806340e58ee51461035e57806360c38b281461038457806360f71b241461038c57806370a08231146103945780637ecebe00146103c357806395d89b41146103f2578063a9059cbb146103fa578063afd639ee1461042f578063b3f865f71461045e578063b6b55f251461049d578063d505accf146104c3578063dd62ed3e1461051d578063f34822b414610554575b6000806101476124d0565b50505b610152610635565b60405160208082528190810183818151815260200191508051906020019080838360005b8381101561018e578082015183820152602001610176565b50505050905090810190601f1680156101bb5780820380516001836020036101000a031916815260200191505b509250505060405180910390f35b6101fe600480360360408110156101e8576000806101e56124d0565b50505b506001600160a01b03813516906020013561065b565b604051901515815260200160405180910390f35b6101fe61067a565b610222610693565b60405190815260200160405180910390f35b6101fe60048036036060811015610253576000806102506124d0565b50505b506001600160a01b038135811691602081013590911690604001356106a0565b61027b6107b6565b6040516001600160a01b03909116815260200160405180910390f35b610222600480360360808110156102b6576000806102b36124d0565b50505b508035906001600160a01b036020820135811691604081013591606090910135166107d5565b610302600480360360208110156102fb576000806102f86124d0565b50505b5035610a55565b005b610222610c9a565b610314610cac565b60405160ff909116815260200160405180910390f35b610222610cb1565b610222600480360360408110156103515760008061034e6124d0565b50505b5080359060200135610cbb565b6103026004803603602081101561037d5760008061037a6124d0565b50505b5035610cf5565b61027b610ee0565b61027b610eec565b610222600480360360208110156103b3576000806103b06124d0565b50505b50356001600160a01b0316610ef8565b610222600480360360208110156103e2576000806103df6124d0565b50505b50356001600160a01b0316610f10565b610152610f28565b6101fe60048036036040811015610419576000806104166124d0565b50505b506001600160a01b038135169060200135610fe1565b6102226004803603602081101561044e5760008061044b6124d0565b50505b50356001600160a01b0316610ff6565b6103026004803603606081101561047d5760008061047a6124d0565b50505b506001600160a01b0381358116916020810135909116906040013561100e565b610302600480360360208110156104bc576000806104b96124d0565b50505b50356114f4565b610302600480360360e08110156104e2576000806104df6124d0565b50505b506001600160a01b03813581169160208101359091169060408101359060608101359060ff6080820135169060a08101359060c00135611a17565b6102226004803603604081101561053c576000806105396124d0565b50505b506001600160a01b0381358116916020013516611c82565b61030260048036036080811015610573576000806105706124d0565b50505b810190602081018135600160201b811115610596576000806105936124d0565b50505b8201836020820111156105b1576000806105ae6124d0565b50505b803590602001918460018302840111600160201b831117156105db576000806105d86124d0565b50505b91908080601f0160208091040260200160405190810160405281815292919060208401838380828437600092019190915250929550506001600160a01b03833581169450602084013581169360400135169150611ca89050565b60405160408082019052600c81526b42617468546f6b656e20763160a01b602082015281565b60006106705a61066961253b565b8484611fa3565b5060015b92915050565b6000600b610686612595565b906101000a900460ff1681565b600461069d612595565b81565b6001600160a01b038316600090815260076020526000196040822060005a6106c661253b565b6001600160a01b03166001600160a01b031681526020019081526020016000206106ee612595565b146107a1576001600160a01b038416600090815260076020526107509083906040902060005a61071c61253b565b6001600160a01b03166001600160a01b03168152602001908152602001600020610744612595565b9063ffffffff61202f16565b6001600160a01b038516600090815260076020526040902060005a61077361253b565b6001600160a01b03166001600160a01b03168152602001908152602001600020819061079d6125e1565b5050505b6107ac848484612076565b5060019392505050565b600060016107c2612595565b906101000a90046001600160a01b031681565b60008060036107e2612595565b906101000a90046001600160a01b03166001600160a01b03166386cbe0275a61080961253b565b6040516001600160e01b031960e084901b1681526001600160a01b039091166004820152602401602060405180830381868061084361262f565b158015610858576000806108556124d0565b50505b505a61086261267b565b5050505050158015610881573d6000803e3d600061087e6124d0565b50505b505050506040513d60208110156108a05760008061089d6124d0565b50505b810190808051151560011492506108f49150505760405162461bcd60e51b815260040180806020018281038252602481526020018061298160249139604001915050604051809103906108f16124d0565b50505b6000806002610901612595565b906101000a90046001600160a01b03166001600160a01b031663e1a6f014878787876000806040516001600160e01b031960e089901b16815260048101969096526001600160a01b0394851660248701526044860193909352921660648401526084830191909152151560a482015260c4016020604051808303816000878061098861262f565b15801561099d5760008061099a6124d0565b50505b505a6109a7612766565b5050505050501580156109c7573d6000803e3d60006109c46124d0565b50505b505050506040513d60208110156109e6576000806109e36124d0565b50505b81019080805193507f819e390338feffe95e2de57172d6faf337853dfd15c7a09a32d76f7fd2443875925088915087905086866040519384526001600160a01b03928316602085015260408085019290925290911660608301526080909101905180910390a195945050505050565b6000610ba56004610a64612595565b610b998460006001610a74612595565b906101000a90046001600160a01b03166001600160a01b03166370a082315a63996d79a5598160e01b8152602081600483336000905af158601d01573d60011458600c01573d6000803e3d621234565260ea61109c528051925060005b6040811015610ae857600082820152602001610ad1565b5050506040516001600160e01b031960e084901b1681526001600160a01b0390911660048201526024016020604051808303818680610b2561262f565b158015610b3a57600080610b376124d0565b50505b505a610b4461267b565b5050505050158015610b63573d6000803e3d6000610b606124d0565b50505b505050506040513d6020811015610b8257600080610b7f6124d0565b50505b8101908080519392505063ffffffff612152169050565b9063ffffffff6121ba16565b9050610bb95a610bb361253b565b836121f7565b60006001610bc5612595565b906101000a90046001600160a01b03166001600160a01b031663a9059cbb5a610bec61253b565b836040516001600160e01b031960e085901b1681526001600160a01b039092166004830152602482015260440160206040518083038160008780610c2e61262f565b158015610c4357600080610c406124d0565b50505b505a610c4d612766565b505050505050158015610c6d573d6000803e3d6000610c6a6124d0565b50505b505050506040513d6020811015610c8c57600080610c896124d0565b50505b810190808051505050505050565b600080516020612a3883398151915281565b601281565b600961069d612595565b60088281610cc7612595565b8110610ccf57fe5b90600052602060002090600202018160028110610ce857fe5b01915061069d9050612595565b60006003610d01612595565b906101000a90046001600160a01b03166001600160a01b031663ca3a86cd5a610d2861253b565b6040516001600160e01b031960e084901b1681526001600160a01b0390911660048201526024016020604051808303818680610d6261262f565b158015610d7757600080610d746124d0565b50505b505a610d8161267b565b5050505050158015610da0573d6000803e3d6000610d9d6124d0565b50505b505050506040513d6020811015610dbf57600080610dbc6124d0565b50505b81019080805115156001149250610e169150505760405162461bcd60e51b81526020600482018190526024820152600080516020612a58833981519152604482015260640160405180910390610e136124d0565b50505b60006002610e22612595565b906101000a90046001600160a01b03166001600160a01b03166340e58ee5826040516001600160e01b031960e084901b168152600481019190915260240160206040518083038160008780610e7561262f565b158015610e8a57600080610e876124d0565b50505b505a610e94612766565b505050505050158015610eb4573d6000803e3d6000610eb16124d0565b50505b505050506040513d6020811015610ed357600080610ed06124d0565b50505b8101908080515050505050565b600060036107c2612595565b600060026107c2612595565b6005602052806000526040600020905061069d612595565b600a602052806000526040600020905061069d612595565b600080610f33612595565b600181600116156101000203166002900480601f016020809104026020016040519081016040528181529190602083018280610f6d612595565b60018160011615610100020316600290048015610fd95780601f10610fa7576101008083610f99612595565b040283529160200191610fd9565b820191906000526020600020905b81610fbe612595565b81529060010190602001808311610fb557829003601f168201915b505050505081565b60006106705a610fef61253b565b8484612076565b6006602052806000526040600020905061069d612595565b6000600361101a612595565b906101000a90046001600160a01b03166001600160a01b031663ca3a86cd5a61104161253b565b6040516001600160e01b031960e084901b1681526001600160a01b039091166004820152602401602060405180830381868061107b61262f565b1580156110905760008061108d6124d0565b50505b505a61109a61267b565b50505050501580156110b9573d6000803e3d60006110b66124d0565b50505b505050506040513d60208110156110d8576000806110d56124d0565b50505b8101908080511515600114925061112f9150505760405162461bcd60e51b81526020600482018190526024820152600080516020612a5883398151915260448201526064016040518091039061112c6124d0565b50505b60008111801561113f5750601481105b6111515760008061114e6124d0565b50505b60006064836001600160a01b03166370a082315a63996d79a5598160e01b8152602081600483336000905af158601d01573d60011458600c01573d6000803e3d621234565260ea61109c528051925060005b60408110156111ba576000828201526020016111a3565b5050506040516001600160e01b031960e084901b1681526001600160a01b03909116600482015260240160206040518083038186806111f761262f565b15801561120c576000806112096124d0565b50505b505a61121661267b565b5050505050158015611235573d6000803e3d60006112326124d0565b50505b505050506040513d6020811015611254576000806112516124d0565b50505b81019080805186029250839150611269905057fe5b0490506001600160a01b03831663a9059cbb8583836370a082315a63996d79a5598160e01b8152602081600483336000905af158601d01573d60011458600c01573d6000803e3d621234565260ea61109c528051925060005b60408110156112d9576000828201526020016112c2565b5050506040516001600160e01b031960e084901b1681526001600160a01b039091166004820152602401602060405180830381868061131661262f565b15801561132b576000806113286124d0565b50505b505a61133561267b565b5050505050158015611354573d6000803e3d60006113516124d0565b50505b505050506040513d6020811015611373576000806113706124d0565b50505b8101908080519390930392506040915050516001600160e01b031960e085901b1681526001600160a01b0390921660048301526024820152604401602060405180830381600087806113c361262f565b1580156113d8576000806113d56124d0565b50505b505a6113e2612766565b505050505050158015611402573d6000803e3d60006113ff6124d0565b50505b505050506040513d60208110156114215760008061141e6124d0565b50505b8101908080515050506001600160a01b038416905063a9059cbb5a61144461253b565b836040516001600160e01b031960e085901b1681526001600160a01b03909216600483015260248201526044016020604051808303816000878061148661262f565b15801561149b576000806114986124d0565b50505b505a6114a5612766565b5050505050501580156114c5573d6000803e3d60006114c26124d0565b50505b505050506040513d60208110156114e4576000806114e16124d0565b50505b8101908080515050505050505050565b6000806001611501612595565b906101000a90046001600160a01b03166001600160a01b03166370a082315a63996d79a5598160e01b8152602081600483336000905af158601d01573d60011458600c01573d6000803e3d621234565260ea61109c528051925060005b60408110156115755760008282015260200161155e565b5050506040516001600160e01b031960e084901b1681526001600160a01b03909116600482015260240160206040518083038186806115b261262f565b1580156115c7576000806115c46124d0565b50505b505a6115d161267b565b50505050501580156115f0573d6000803e3d60006115ed6124d0565b50505b505050506040513d602081101561160f5760008061160c6124d0565b50505b8101908080519350600092508291506001905061162a612595565b906101000a90046001600160a01b03166001600160a01b03166370a082315a63996d79a5598160e01b8152602081600483336000905af158601d01573d60011458600c01573d6000803e3d621234565260ea61109c528051925060005b604081101561169e57600082820152602001611687565b5050506040516001600160e01b031960e084901b1681526001600160a01b03909116600482015260240160206040518083038186806116db61262f565b1580156116f0576000806116ed6124d0565b50505b505a6116fa61267b565b5050505050158015611719573d6000803e3d60006117166124d0565b50505b505050506040513d6020811015611738576000806117356124d0565b50505b810190808051935060009250600191506117529050612595565b906101000a90046001600160a01b03166001600160a01b03166323b872dd5a61177961253b565b5a63996d79a5598160e01b8152602081600483336000905af158601d01573d60011458600c01573d6000803e3d621234565260ea61109c528051925060005b60408110156117cf576000828201526020016117b8565b505050866040516001600160e01b031960e086901b1681526001600160a01b03938416600482015291909216602482015260448101919091526064016020604051808303816000878061182061262f565b158015611835576000806118326124d0565b50505b505a61183f612766565b50505050505015801561185f573d6000803e3d600061185c6124d0565b50505b505050506040513d602081101561187e5760008061187b6124d0565b50505b810190808051506000925082915060019050611898612595565b906101000a90046001600160a01b03166001600160a01b03166370a082315a63996d79a5598160e01b8152602081600483336000905af158601d01573d60011458600c01573d6000803e3d621234565260ea61109c528051925060005b604081101561190c576000828201526020016118f5565b5050506040516001600160e01b031960e084901b1681526001600160a01b039091166004820152602401602060405180830381868061194961262f565b15801561195e5760008061195b6124d0565b50505b505a61196861267b565b5050505050158015611987573d6000803e3d60006119846124d0565b50505b505050506040513d60208110156119a6576000806119a36124d0565b50505b81019080805193506119c4925083915084905063ffffffff61202f16565b9350600060046119d2612595565b6119dd5750836119fe565b6119fb84610b9960046119ee612595565b889063ffffffff61215216565b90505b611a105a611a0a61253b565b82612290565b5050505050565b5a611a2061282c565b841015611a715760405162461bcd60e51b8152602060048201526012602482015271155b9a5cddd85c158c8e881156141254915160721b604482015260640160405180910390611a6e6124d0565b50505b60006009611a7d612595565b6001600160a01b0389166000908152600a602052600080516020612a38833981519152908a908a908a9060409020600081611ab6612595565b91600183019150611ac56125e1565b50508a60405160200180878152602001866001600160a01b03166001600160a01b03168152602001856001600160a01b03166001600160a01b0316815260200184815260200183815260200182815260200196505050505050506040516020818303038152906040528051906020012060405161190160f01b602082015260228101929092526042820152606201604051602081830303815290604052805190602001209050600060018286868660405160008152602001604052604051808581526020018460ff1660ff1681526020018381526020018281526020019450505050506020604051602081039080840390855a611bc061267b565b5050505050158015611bdf573d6000803e3d6000611bdc6124d0565b50505b5050506020604051035190506001600160a01b03811615801590611c145750886001600160a01b0316816001600160a01b0316145b611c6c5760405162461bcd60e51b815260206004820152601c60248201527b556e697377617056323a20494e56414c49445f5349474e415455524560201b604482015260640160405180910390611c696124d0565b50505b611c77898989611fa3565b505050505050505050565b6007602052816000526040600020602052806000526040600020915061069d9050612595565b6000600b611cb4612595565b906101000a900460ff1615611cd157600080611cce6124d0565b50505b6000848051611ce4929160200190612872565b508260018080611cf2612595565b816001600160a01b0302191690836001600160a01b0316021790611d146125e1565b50505081600260006101000a81611d29612595565b816001600160a01b0302191690836001600160a01b0316021790611d4b6125e1565b50505080600360006101000a81611d60612595565b816001600160a01b0302191690836001600160a01b0316021790611d826125e1565b50505060005a611d90612912565b90506040518060526129a582396052019050604051809103902060405160408082019052600c81526b42617468546f6b656e20763160a01b6020820152805190602001206040516040808201905260018152603160f81b602082015280519060200120835a63996d79a5598160e01b8152602081600483336000905af158601d01573d60011458600c01573d6000803e3d621234565260ea61109c528051925060005b6040811015611e4a57600082820152602001611e33565b5050506040516020810195909552604080860194909452606085019290925260808401526001600160a01b031660a083015260c0909101905160208183030381529060405280519060200120806009611ea16125e1565b506000199150506001600160a01b03851663095ea7b360006002611ec3612595565b906101000a90046001600160a01b0316836040516001600160e01b031960e085901b1681526001600160a01b039092166004830152602482015260440160206040518083038160008780611f1561262f565b158015611f2a57600080611f276124d0565b50505b505a611f34612766565b505050505050158015611f54573d6000803e3d6000611f516124d0565b50505b505050506040513d6020811015611f7357600080611f706124d0565b50505b8101908080515060019250600b915082905081611f8e612595565b8160ff02191690831515021790611c776125e1565b6001600160a01b038316600090815260076020528190604090206001600160a01b0384166000908152602091909152604090208190611fe06125e1565b505050816001600160a01b0316836001600160a01b03167f8c5be1e5ebec7d5bd14f71427d1e84f3dd0314c0f7b2291e5b200ac8c7c3b9258360405190815260200160405180910390a3505050565b600061206f838360405160408082019052601e81527f536166654d6174683a207375627472616374696f6e206f766572666c6f7700006020820152612328565b9392505050565b6001600160a01b0383166000908152600560205261209c90829060409020610744612595565b6001600160a01b038416600090815260056020526040902081906120be6125e1565b5050506001600160a01b038216600090815260056020526120f3908290604090206120e7612595565b9063ffffffff6123c816565b6001600160a01b038316600090815260056020526040902081906121156125e1565b505050816001600160a01b0316836001600160a01b0316600080516020612a188339815191528360405190815260200160405180910390a3505050565b60008261216157506000610674565b8282028284828161216e57fe5b041461206f5760405162461bcd60e51b81526004018080602001828103825260218152602001806129f760219139604001915050604051809103906121b16124d0565b50509392505050565b600061206f838360405160408082019052601a815279536166654d6174683a206469766973696f6e206279207a65726f60301b6020820152612425565b6001600160a01b0382166000908152600560205261221d90829060409020610744612595565b6001600160a01b0383166000908152600560205260409020819061223f6125e1565b505050612250816004610744612595565b80600461225b6125e1565b5060009150506001600160a01b038316600080516020612a188339815191528360405190815260200160405180910390a35050565b61229e8160046120e7612595565b8060046122a96125e1565b5050506001600160a01b038216600090815260056020526122d2908290604090206120e7612595565b6001600160a01b038316600090815260056020526040902081906122f46125e1565b5050506001600160a01b0382166000600080516020612a188339815191528360405190815260200160405180910390a35050565b600081848411156123c05760405162461bcd60e51b81526004018080602001828103825283818151815260200191508051906020019080838360005b8381101561237c578082015183820152602001612364565b50505050905090810190601f1680156123a95780820380516001836020036101000a031916815260200191505b5092505050604051809103906123bd6124d0565b50505b505050900390565b60008282018381101561206f5760405162461bcd60e51b815260206004820152601b60248201527a536166654d6174683a206164646974696f6e206f766572666c6f7760281b6044820152606401604051809103906121b16124d0565b600081836124ba5760405162461bcd60e51b81526004018080602001828103825283818151815260200191508051906020019080838360005b8381101561247657808201518382015260200161245e565b50505050905090810190601f1680156124a35780820380516001836020036101000a031916815260200191505b5092505050604051809103906124b76124d0565b50505b5060008385816124c657fe5b0495945050505050565b632a2a7adb598160e01b8152600481016020815285602082015260005b868110156125085780860151828201604001526020016124ed565b506020828760640184336000905af158601d01573d60011458600c01573d6000803e3d621234565260ea61109c52505050565b6373509064598160e01b8152602081600483336000905af158601d01573d60011458600c01573d6000803e3d621234565260ea61109c528051935060005b604081101561259057600082820152602001612579565b505050565b6303daa959598160e01b8152836004820152602081602483336000905af158601d01573d60011458600c01573d6000803e3d621234565260ea61109c5280516000825293506020612579565b6322bd64c0598160e01b8152836004820152846024820152600081604483336000905af158601d01573d60011458600c01573d6000803e3d621234565260ea61109c52600081526020612579565b638435035b598160e01b8152836004820152602081602483336000905af158601d01573d60011458600c01573d6000803e3d621234565260ea61109c5280516000825293506020612579565b638540661f598160e01b81526126ac565b8080831115610674575090919050565b8080831015610674575090919050565b836004820152846024820152606060448201528660648201526084810160005b888110156126e45780880151828201526020016126cc565b506060828960a40184336000905af158601d01573d60011458600c01573d6000803e3d621234565260ea61109c52815160408301513d6000853e8b8b82606087013350600060045af150596127398d3d61269c565b8c01612745818761268c565b5b8281101561275a5760008152602001612746565b50929c50505050505050565b6385979f76598160e01b8152836004820152846024820152606060448201528760648201526084810160005b898110156127aa578089015182820152602001612792565b506060828a60a40184336000905af158601d01573d60011458600c01573d6000803e3d621234565260ea61109c52815160408301513d6000853e8c8c82606087013350600060045af150596127ff8e3d61269c565b8d0161280b818761268c565b5b82811015612820576000815260200161280c565b50929d50505050505050565b63bdbf8c36598160e01b8152602081600483336000905af158601d01573d60011458600c01573d6000803e3d621234565260ea61109c5280516000825293506020612579565b828061287c612595565b600181600116156101000203166002900490600052602060002090601f016020900481019282601f106128c357805160ff191683800117856128bc6125e1565b5050612902565b828001600101856128d26125e1565b50508215612902579182015b82811115612902578251826128f16125e1565b5050916020019190600101906128de565b5061290e929150612958565b5090565b6390580256598160e01b8152602081600483336000905af158601d01573d60011458600c01573d6000803e3d621234565260ea61109c5280516000825293506020612579565b61297d91905b8082111561290e57600080826129726125e1565b50505060010161295e565b9056fe6e6f7420616e20617070726f766564207374726174656779202d2062617468546f6b656e454950373132446f6d61696e28737472696e67206e616d652c737472696e672076657273696f6e2c75696e7432353620636861696e49642c6164647265737320766572696679696e67436f6e747261637429536166654d6174683a206d756c7469706c69636174696f6e206f766572666c6f77ddf252ad1be2c89b69c2b068fc378daa952ba7f163c4a11628f55a4df523b3ef6e71edae12b1b97f4d1f60370fef10105fa2faae0126114a169c64845d6126c96e6f7420616e20617070726f7665642070616972202d2062617468546f6b656e",
  "linkReferences": {},
  "deployedLinkReferences": {}
}