{
  "_format": "hh-sol-artifact-1",
  "contractName": "RBCN",
  "sourceName": "contracts/RBCN.sol",
  "abi": [
    {
      "inputs": [
        {
          "internalType": "address",
          "name": "aqueduct",
          "type": "address"
        },
        {
          "internalType": "address",
          "name": "admin",
          "type": "address"
        }
      ],
      "payable": false,
      "stateMutability": "nonpayable",
      "type": "constructor"
    },
    {
      "anonymous": false,
      "inputs": [
        {
          "indexed": true,
          "internalType": "address",
          "name": "owner",
          "type": "address"
        },
        {
          "indexed": true,
          "internalType": "address",
          "name": "spender",
          "type": "address"
        },
        {
          "indexed": false,
          "internalType": "uint256",
          "name": "amount",
          "type": "uint256"
        }
      ],
      "name": "Approval",
      "type": "event"
    },
    {
      "anonymous": false,
      "inputs": [
        {
          "indexed": true,
          "internalType": "address",
          "name": "delegator",
          "type": "address"
        },
        {
          "indexed": true,
          "internalType": "address",
          "name": "fromDelegate",
          "type": "address"
        },
        {
          "indexed": true,
          "internalType": "address",
          "name": "toDelegate",
          "type": "address"
        }
      ],
      "name": "DelegateChanged",
      "type": "event"
    },
    {
      "anonymous": false,
      "inputs": [
        {
          "indexed": true,
          "internalType": "address",
          "name": "delegate",
          "type": "address"
        },
        {
          "indexed": false,
          "internalType": "uint256",
          "name": "previousBalance",
          "type": "uint256"
        },
        {
          "indexed": false,
          "internalType": "uint256",
          "name": "newBalance",
          "type": "uint256"
        }
      ],
      "name": "DelegateVotesChanged",
      "type": "event"
    },
    {
      "anonymous": false,
      "inputs": [
        {
          "indexed": true,
          "internalType": "address",
          "name": "from",
          "type": "address"
        },
        {
          "indexed": true,
          "internalType": "address",
          "name": "to",
          "type": "address"
        },
        {
          "indexed": false,
          "internalType": "uint256",
          "name": "amount",
          "type": "uint256"
        }
      ],
      "name": "Transfer",
      "type": "event"
    },
    {
      "constant": true,
      "inputs": [],
      "name": "DELEGATION_TYPEHASH",
      "outputs": [
        {
          "internalType": "bytes32",
          "name": "",
          "type": "bytes32"
        }
      ],
      "payable": false,
      "stateMutability": "view",
      "type": "function"
    },
    {
      "constant": true,
      "inputs": [],
      "name": "DOMAIN_TYPEHASH",
      "outputs": [
        {
          "internalType": "bytes32",
          "name": "",
          "type": "bytes32"
        }
      ],
      "payable": false,
      "stateMutability": "view",
      "type": "function"
    },
    {
      "constant": true,
      "inputs": [
        {
          "internalType": "address",
          "name": "account",
          "type": "address"
        },
        {
          "internalType": "address",
          "name": "spender",
          "type": "address"
        }
      ],
      "name": "allowance",
      "outputs": [
        {
          "internalType": "uint256",
          "name": "",
          "type": "uint256"
        }
      ],
      "payable": false,
      "stateMutability": "view",
      "type": "function"
    },
    {
      "constant": false,
      "inputs": [
        {
          "internalType": "address",
          "name": "spender",
          "type": "address"
        },
        {
          "internalType": "uint256",
          "name": "rawAmount",
          "type": "uint256"
        }
      ],
      "name": "approve",
      "outputs": [
        {
          "internalType": "bool",
          "name": "",
          "type": "bool"
        }
      ],
      "payable": false,
      "stateMutability": "nonpayable",
      "type": "function"
    },
    {
      "constant": true,
      "inputs": [],
      "name": "aqueductAddress",
      "outputs": [
        {
          "internalType": "address",
          "name": "",
          "type": "address"
        }
      ],
      "payable": false,
      "stateMutability": "view",
      "type": "function"
    },
    {
      "constant": true,
      "inputs": [
        {
          "internalType": "address",
          "name": "account",
          "type": "address"
        }
      ],
      "name": "balanceOf",
      "outputs": [
        {
          "internalType": "uint256",
          "name": "",
          "type": "uint256"
        }
      ],
      "payable": false,
      "stateMutability": "view",
      "type": "function"
    },
    {
      "constant": true,
      "inputs": [
        {
          "internalType": "address",
          "name": "",
          "type": "address"
        },
        {
          "internalType": "uint32",
          "name": "",
          "type": "uint32"
        }
      ],
      "name": "checkpoints",
      "outputs": [
        {
          "internalType": "uint32",
          "name": "fromBlock",
          "type": "uint32"
        },
        {
          "internalType": "uint96",
          "name": "votes",
          "type": "uint96"
        }
      ],
      "payable": false,
      "stateMutability": "view",
      "type": "function"
    },
    {
      "constant": true,
      "inputs": [],
      "name": "decimals",
      "outputs": [
        {
          "internalType": "uint8",
          "name": "",
          "type": "uint8"
        }
      ],
      "payable": false,
      "stateMutability": "view",
      "type": "function"
    },
    {
      "constant": false,
      "inputs": [
        {
          "internalType": "address",
          "name": "delegatee",
          "type": "address"
        }
      ],
      "name": "delegate",
      "outputs": [],
      "payable": false,
      "stateMutability": "nonpayable",
      "type": "function"
    },
    {
      "constant": false,
      "inputs": [
        {
          "internalType": "address",
          "name": "delegatee",
          "type": "address"
        },
        {
          "internalType": "uint256",
          "name": "nonce",
          "type": "uint256"
        },
        {
          "internalType": "uint256",
          "name": "expiry",
          "type": "uint256"
        },
        {
          "internalType": "uint8",
          "name": "v",
          "type": "uint8"
        },
        {
          "internalType": "bytes32",
          "name": "r",
          "type": "bytes32"
        },
        {
          "internalType": "bytes32",
          "name": "s",
          "type": "bytes32"
        }
      ],
      "name": "delegateBySig",
      "outputs": [],
      "payable": false,
      "stateMutability": "nonpayable",
      "type": "function"
    },
    {
      "constant": true,
      "inputs": [
        {
          "internalType": "address",
          "name": "",
          "type": "address"
        }
      ],
      "name": "delegates",
      "outputs": [
        {
          "internalType": "address",
          "name": "",
          "type": "address"
        }
      ],
      "payable": false,
      "stateMutability": "view",
      "type": "function"
    },
    {
      "constant": true,
      "inputs": [],
      "name": "distEndTime",
      "outputs": [
        {
          "internalType": "uint256",
          "name": "",
          "type": "uint256"
        }
      ],
      "payable": false,
      "stateMutability": "view",
      "type": "function"
    },
    {
      "constant": true,
      "inputs": [],
      "name": "distRate",
      "outputs": [
        {
          "internalType": "uint256",
          "name": "",
          "type": "uint256"
        }
      ],
      "payable": false,
      "stateMutability": "view",
      "type": "function"
    },
    {
      "constant": true,
      "inputs": [],
      "name": "distStartTime",
      "outputs": [
        {
          "internalType": "uint256",
          "name": "",
          "type": "uint256"
        }
      ],
      "payable": false,
      "stateMutability": "view",
      "type": "function"
    },
    {
      "constant": true,
      "inputs": [
        {
          "internalType": "address",
          "name": "account",
          "type": "address"
        }
      ],
      "name": "getCurrentVotes",
      "outputs": [
        {
          "internalType": "uint96",
          "name": "",
          "type": "uint96"
        }
      ],
      "payable": false,
      "stateMutability": "view",
      "type": "function"
    },
    {
      "constant": true,
      "inputs": [],
      "name": "getDistEndTime",
      "outputs": [
        {
          "internalType": "uint256",
          "name": "",
          "type": "uint256"
        }
      ],
      "payable": false,
      "stateMutability": "view",
      "type": "function"
    },
    {
      "constant": true,
      "inputs": [],
      "name": "getDistRate",
      "outputs": [
        {
          "internalType": "uint256",
          "name": "",
          "type": "uint256"
        }
      ],
      "payable": false,
      "stateMutability": "pure",
      "type": "function"
    },
    {
      "constant": true,
      "inputs": [],
      "name": "getDistStartTime",
      "outputs": [
        {
          "internalType": "uint256",
          "name": "",
          "type": "uint256"
        }
      ],
      "payable": false,
      "stateMutability": "view",
      "type": "function"
    },
    {
      "constant": true,
      "inputs": [
        {
          "internalType": "address",
          "name": "account",
          "type": "address"
        },
        {
          "internalType": "uint256",
          "name": "blockNumber",
          "type": "uint256"
        }
      ],
      "name": "getPriorVotes",
      "outputs": [
        {
          "internalType": "uint96",
          "name": "",
          "type": "uint96"
        }
      ],
      "payable": false,
      "stateMutability": "view",
      "type": "function"
    },
    {
      "constant": true,
      "inputs": [],
      "name": "name",
      "outputs": [
        {
          "internalType": "string",
          "name": "",
          "type": "string"
        }
      ],
      "payable": false,
      "stateMutability": "view",
      "type": "function"
    },
    {
      "constant": true,
      "inputs": [
        {
          "internalType": "address",
          "name": "",
          "type": "address"
        }
      ],
      "name": "nonces",
      "outputs": [
        {
          "internalType": "uint256",
          "name": "",
          "type": "uint256"
        }
      ],
      "payable": false,
      "stateMutability": "view",
      "type": "function"
    },
    {
      "constant": true,
      "inputs": [
        {
          "internalType": "address",
          "name": "",
          "type": "address"
        }
      ],
      "name": "numCheckpoints",
      "outputs": [
        {
          "internalType": "uint32",
          "name": "",
          "type": "uint32"
        }
      ],
      "payable": false,
      "stateMutability": "view",
      "type": "function"
    },
    {
      "constant": true,
      "inputs": [],
      "name": "symbol",
      "outputs": [
        {
          "internalType": "string",
          "name": "",
          "type": "string"
        }
      ],
      "payable": false,
      "stateMutability": "view",
      "type": "function"
    },
    {
      "constant": true,
      "inputs": [],
      "name": "totalSupply",
      "outputs": [
        {
          "internalType": "uint256",
          "name": "",
          "type": "uint256"
        }
      ],
      "payable": false,
      "stateMutability": "view",
      "type": "function"
    },
    {
      "constant": false,
      "inputs": [
        {
          "internalType": "address",
          "name": "dst",
          "type": "address"
        },
        {
          "internalType": "uint256",
          "name": "rawAmount",
          "type": "uint256"
        }
      ],
      "name": "transfer",
      "outputs": [
        {
          "internalType": "bool",
          "name": "",
          "type": "bool"
        }
      ],
      "payable": false,
      "stateMutability": "nonpayable",
      "type": "function"
    },
    {
      "constant": false,
      "inputs": [
        {
          "internalType": "address",
          "name": "src",
          "type": "address"
        },
        {
          "internalType": "address",
          "name": "dst",
          "type": "address"
        },
        {
          "internalType": "uint256",
          "name": "rawAmount",
          "type": "uint256"
        }
      ],
      "name": "transferFrom",
      "outputs": [
        {
          "internalType": "bool",
          "name": "",
          "type": "bool"
        }
      ],
      "payable": false,
      "stateMutability": "nonpayable",
      "type": "function"
    }
  ],
  "bytecode": "0x60806040523480156200001c57600080620000196200020d565b50505b50604051620025c4380380620025c4833981810160405260408110156200004d576000806200004a6200020d565b50505b81019080805192919060200180516001600160a01b038516600090815260046020529093506b01a5dcb365fc4166be00000092506040915020600181620000936200027a565b816001600160601b0302191690836001600160601b0316021790620000b7620002dc565b5050506001600160a01b0382166000600080516020620025a48339815191526b033b2e3c9fd0803ce800000060405190815260200160405180910390a3816002600181620001046200027a565b816001600160a01b0302191690836001600160a01b031602179062000128620002dc565b5050506001600160a01b038116600090815260046020526b0195518939d43ed62a00000090604090206001816200015e6200027a565b816001600160601b0302191690836001600160601b031602179062000182620002dc565b5050506001600160a01b0381166000600080516020620025a48339815191526b0195518939d43ed62a0000006040516001600160601b03909116815260200160405180910390a35a620001d46200032b565b806000620001e1620002dc565b5050505a620001ef6200032b565b630784ce000180600162000202620002dc565b505050505062000372565b632a2a7adb598160e01b8152600481016020815285602082015260005b86811015620002475780860151828201604001526020016200022a565b506020828760640184336000905af158600e01573d6000803e3d6000fd5b3d6001141558600a015760016000f35b505050565b6303daa959598160e01b8152836004820152602081602483336000905af158600e01573d6000803e3d6000fd5b3d6001141558600a015760016000f35b8051935060005b6040811015620002d757600082820152602001620002be565b505050565b6322bd64c0598160e01b8152836004820152846024820152600081604483336000905af158600e01573d6000803e3d6000fd5b3d6001141558600a015760016000f35b600081526020620002be565b63bdbf8c36598160e01b8152602081600483336000905af158600e01573d6000803e3d6000fd5b3d6001141558600a015760016000f35b80516000825293506020620002be565b61222280620003826000396000f3fe608060405234801561001957600080610016611bda565b50505b50600436106101475760003560e01c806306fdde0314610155578063095ea7b3146101d457806318160ddd1461021d57806320606b701461023757806323b872dd1461023f5780632fcd7e431461027e578063313ce5671461028657806344d5437d146102a4578063587cde1e146102ac5780635c19a95c146102f75780636f9dd595146103285780636fcfff451461033057806370a0823114610378578063782d6fe1146103a75780637ecebe00146103f857806395d89b4114610427578063a9059cbb1461042f578063b4b5ea5714610464578063b8df67c814610493578063c0198ac41461049b578063c3cda520146104a3578063cb4774f3146104f3578063dd62ed3e146104fb578063decb7ee914610532578063e7a324dc1461053a578063f1127ed814610542575b600080610152611bda565b50505b61015d6105a5565b60405160208082528190810183818151815260200191508051906020019080838360005b83811015610199578082015183820152602001610181565b50505050905090810190601f1680156101c65780820380516001836020036101000a031916815260200191505b509250505060405180910390f35b610209600480360360408110156101f3576000806101f0611bda565b50505b506001600160a01b0381351690602001356105c6565b604051901515815260200160405180910390f35b6102256106c9565b60405190815260200160405180910390f35b6102256106d8565b6102096004803603606081101561025e5760008061025b611bda565b50505b506001600160a01b038135811691602081013590911690604001356106f3565b610225610886565b61028e610893565b60405160ff909116815260200160405180910390f35b610225610898565b6102db600480360360208110156102cb576000806102c8611bda565b50505b50356001600160a01b03166108a4565b6040516001600160a01b03909116815260200160405180910390f35b6103266004803603602081101561031657600080610313611bda565b50505b50356001600160a01b03166108d1565b005b6102256108e6565b61035f6004803603602081101561034f5760008061034c611bda565b50505b50356001600160a01b03166108f0565b60405163ffffffff909116815260200160405180910390f35b6102256004803603602081101561039757600080610394611bda565b50505b50356001600160a01b031661091a565b6103dc600480360360408110156103c6576000806103c3611bda565b50505b506001600160a01b038135169060200135610955565b6040516001600160601b03909116815260200160405180910390f35b6102256004803603602081101561041757600080610414611bda565b50505b50356001600160a01b0316610c32565b61015d610c4a565b6102096004803603604081101561044e5760008061044b611bda565b50505b506001600160a01b038135169060200135610c68565b6103dc6004803603602081101561048357600080610480611bda565b50505b50356001600160a01b0316610caa565b6102db610d47565b610225610d53565b610326600480360360c08110156104c2576000806104bf611bda565b50505b506001600160a01b038135169060208101359060408101359060ff6060820135169060808101359060a00135610d64565b61022561109f565b6102256004803603604081101561051a57600080610517611bda565b50505b506001600160a01b03813581169160200135166110aa565b6102256110ff565b61022561110b565b61057d600480360360408110156105615760008061055e611bda565b50505b5080356001600160a01b0316906020013563ffffffff16611126565b60405163ffffffff90921682526001600160601b031660208201526040908101905180910390f35b604051604080820190526007815266293ab134b1b7b760c91b602082015281565b6000806000198314156105dc57506000196105ff565b6105fc836040516060810160405260258082526120f1602083013961117f565b90505b80600360005a61060d611c45565b6001600160a01b03166001600160a01b031681526020019081526020016000206001600160a01b038616600090815260209190915260409020600181610651611c9a565b816001600160601b0302191690836001600160601b0316021790610673611ce6565b505050836001600160a01b03165a610689611c45565b6001600160a01b03166000805160206120d1833981519152836040516001600160601b03909116815260200160405180910390a360019150505b92915050565b676765c793fa10079d601b1b81565b60405180604361204282396043019050604051809103902081565b6000805a6106ff611c45565b6001600160a01b03861660009081526003602052909150604081206001600160a01b03831660009081526020919091526040902060009061073e611c9a565b906101000a90046001600160601b031690506000610772856040516060810160405260258082526120f1602083013961117f565b9050866001600160a01b0316836001600160a01b03161415801561079f57506001600160601b0382811614155b1561086e5760006107c7838360405160608101604052603d808252611f5b6020830139611222565b6001600160a01b038916600090815260036020529091508190604090206001600160a01b038616600090815260209190915260409020600181610808611c9a565b816001600160601b0302191690836001600160601b031602179061082a611ce6565b505050836001600160a01b0316886001600160a01b03166000805160206120d1833981519152836040516001600160601b03909116815260200160405180910390a3505b6108798787836112d5565b5060019695505050505050565b6001610890611c9a565b81565b601281565b673820a0bd0399b82290565b6005602052806000526040600020600091506108be611c9a565b906101000a90046001600160a01b031681565b6108e35a6108dd611c45565b8261156c565b50565b6000610890611c9a565b60076020528060005260406000206000915061090a611c9a565b906101000a900463ffffffff1681565b6001600160a01b038116600090815260046020526040812060009061093d611c9a565b6001600160601b036101009290920a90041692915050565b60005a610960611d34565b82106109a65760405162461bcd60e51b8152600401808060200182810382526027815260200180611ff460279139604001915050604051809103906109a3611bda565b50505b6001600160a01b03831660009081526007602052604081206000906109c9611c9a565b63ffffffff6101009290920a9004169050806109e95760009150506106c3565b6001600160a01b0384166000908152600660205283906040902063ffffffff600019840116600090815260209190915260409020600090610a28611c9a565b906101000a900463ffffffff1663ffffffff1611610a95576001600160a01b038416600090815260066020526040902063ffffffff600019830116600090815260209190915260409020600490610a7d611c9a565b906101000a90046001600160601b03169150506106c3565b6001600160a01b03841660009081526006602052839060409020600080805260209190915260409020600090610ac9611c9a565b906101000a900463ffffffff1663ffffffff161115610aec5760009150506106c3565b600060001982015b8163ffffffff168163ffffffff161115610bde57600282820363ffffffff16048103610b1e611d7a565b6001600160a01b038816600090815260066020526040902063ffffffff8316600090815260209190915260409020604051604080820190529081600082610b63611c9a565b63ffffffff6101009290920a9004168152602001600482610b82611c9a565b6001600160601b036101009290920a900416905250905086815163ffffffff161415610bb9578060200151955050505050506106c3565b86815163ffffffff161015610bd057819350610bd7565b6001820392505b5050610af4565b6001600160a01b038616600090815260066020526040902063ffffffff8316600090815260209190915260409020600490610c17611c9a565b906101000a90046001600160601b0316935050505092915050565b60086020528060005260406000209050610890611c9a565b604051604080820190526004815263292121a760e11b602082015281565b600080610c8b83604051606081016040526026808252611fce602083013961117f565b9050610ca05a610c99611c45565b85836112d5565b5060019392505050565b6001600160a01b038116600090815260076020528060408120600090610cce611c9a565b906101000a900463ffffffff16905060008163ffffffff1611610cf2576000610d40565b6001600160a01b038316600090815260066020526040902063ffffffff600019830116600090815260209190915260409020600490610d2f611c9a565b906101000a90046001600160601b03165b9392505050565b600060026108be611c9a565b60006001610d5f611c9a565b905090565b6000604051806043612042823960430190506040518091039020604051604080820190526007815266293ab134b1b7b760c91b602082015280519060200120610dab611683565b5a63996d79a5598160e01b8152602081600483336000905af158600e01573d6000803e3d6000fd5b3d6001141558600a015760016000f35b8051925060005b6040811015610e0157600082820152602001610dea565b505050604051602081019490945260408085019390935260608401919091526001600160a01b0316608083015260a09091019051602081830303815290604052805190602001209050600060405180603a6121528239603a019050604051809103902088888860405160200180858152602001846001600160a01b03166001600160a01b031681526020018381526020018281526020019450505050506040516020818303038152906040528051906020012090506000828260405161190160f01b602082015260228101929092526042820152606201604051602081830303815290604052805190602001209050600060018288888860405160008152602001604052604051808581526020018460ff1660ff1681526020018381526020018281526020019450505050506020604051602081039080840390855a610f45611d91565b5050505050158015610f64573d6000803e3d6000610f61611bda565b50505b5050506020604051035190506001600160a01b038116610fbe5760405162461bcd60e51b81526004018080602001828103825260268152602001806120856026913960400191505060405180910390610fbb611bda565b50505b6001600160a01b0381166000908152600860205260409020600081610fe1611c9a565b91600183019150610ff0611ce6565b505089146110385760405162461bcd60e51b8152600401808060200182810382526022815260200180611f396022913960400191505060405180910390611035611bda565b50505b875a611042611e7c565b11156110885760405162461bcd60e51b81526004018080602001828103825260268152602001806120ab6026913960400191505060405180910390611085611bda565b50505b611092818b61156c565b505050505b505050505050565b600080610d5f611c9a565b6001600160a01b03821660009081526003602052604081206001600160a01b0383166000908152602091909152604090206000906110e6611c9a565b6001600160601b036101009290920a9004169392505050565b673820a0bd0399b82281565b60405180603a6121528239603a019050604051809103902081565b60066020528160005260406000206020528060005260406000209150600090508161114f611c9a565b63ffffffff6101009290920a9004169060048161116a611c9a565b906101000a90046001600160601b0316905082565b600081600160601b841061121a5760405162461bcd60e51b81526004018080602001828103825283818151815260200191508051906020019080838360005b838110156111d65780820151838201526020016111be565b50505050905090810190601f1680156112035780820380516001836020036101000a031916815260200191505b509250505060405180910390611217611bda565b50505b509192915050565b6000836001600160601b0316836001600160601b0316111582906112cd5760405162461bcd60e51b81526004018080602001828103825283818151815260200191508051906020019080838360005b83811015611289578082015183820152602001611271565b50505050905090810190601f1680156112b65780820380516001836020036101000a031916815260200191505b5092505050604051809103906112ca611bda565b50505b505050900390565b6001600160a01b0383166113235760405162461bcd60e51b815260040180806020018281038252603c815260200180612116603c913960400191505060405180910390611320611bda565b50505b6001600160a01b0382166113715760405162461bcd60e51b815260040180806020018281038252603a8152602001806121e8603a91396040019150506040518091039061136e611bda565b50505b6001600160a01b038316600090815260046020526113c59060409020600090611398611c9a565b906101000a90046001600160601b031682604051606081016040526036808252611f986020830139611222565b6001600160a01b03841660009081526004602052604090206001816113e8611c9a565b816001600160601b0302191690836001600160601b031602179061140a611ce6565b5050506001600160a01b038216600090815260046020526114619060409020600090611434611c9a565b906101000a90046001600160601b031682604051606081016040526030808252611f096020830139611695565b6001600160a01b0383166000908152600460205260409020600181611484611c9a565b816001600160601b0302191690836001600160601b03160217906114a6611ce6565b505050816001600160a01b0316836001600160a01b03167fddf252ad1be2c89b69c2b068fc378daa952ba7f163c4a11628f55a4df523b3ef836040516001600160601b03909116815260200160405180910390a36001600160a01b038316600090815260056020526115679060409020600090611521611c9a565b6001600160a01b03858116600090815260056020526101009390930a909104169060409020600090611551611c9a565b906101000a90046001600160a01b031683611745565b505050565b6001600160a01b038216600090815260056020526040812060009061158f611c9a565b6001600160a01b03858116600090815260046020526101009390930a909104169150604081206000906115c0611c9a565b906101000a90046001600160601b031690508260056000866001600160a01b03166001600160a01b03168152602001908152602001600020600181611603611c9a565b816001600160a01b0302191690836001600160a01b0316021790611625611ce6565b505050826001600160a01b0316826001600160a01b0316856001600160a01b03167f3134e8a2e6d97e929a7e54011ea5485d7d196dd5f0ba4d4ef95803e8e3fc257f60405160405180910390a461167d828483611745565b50505050565b6000805a61168f611ec2565b91505090565b6000838301826001600160601b03808716908316101561173c5760405162461bcd60e51b81526004018080602001828103825283818151815260200191508051906020019080838360005b838110156116f85780820151838201526020016116e0565b50505050905090810190601f1680156117255780820380516001836020036101000a031916815260200191505b509250505060405180910390611739611bda565b50505b50949350505050565b816001600160a01b0316836001600160a01b03161415801561177057506000816001600160601b0316115b15611567576001600160a01b03831615611851576001600160a01b03831660009081526007602052604081206000906117a7611c9a565b906101000a900463ffffffff1690506000808263ffffffff16116117cc57600061181a565b6001600160a01b038516600090815260066020526040902063ffffffff600019840116600090815260209190915260409020600490611809611c9a565b906101000a90046001600160601b03165b9050600061183f828560405160608101604052602880825261218c6020830139611222565b905061184d86848484611925565b5050505b6001600160a01b03821615611567576001600160a01b0382166000908152600760205260408120600090611883611c9a565b906101000a900463ffffffff1690506000808263ffffffff16116118a85760006118f6565b6001600160a01b038416600090815260066020526040902063ffffffff6000198401166000908152602091909152604090206004906118e5611c9a565b906101000a90046001600160601b03165b9050600061191b828560405160608101604052602780825261201b6020830139611695565b9050611097858484845b600061194f5a611933611d34565b6040516060810160405260348082526121b46020830139611b85565b905060008463ffffffff161180156119bc57506001600160a01b0385166000908152600660205263ffffffff8216906040902063ffffffff6000198701166000908152602091909152604090206000906119a7611c9a565b906101000a900463ffffffff1663ffffffff16145b15611a2d576001600160a01b0385166000908152600660205282906040902063ffffffff600019870116600090815260209190915260409020600160201b81611a03611c9a565b816001600160601b0302191690836001600160601b0316021790611a25611ce6565b505050611b2e565b6040516040808201815263ffffffff831682526001600160601b0384166020808401919091526001600160a01b038816600090815260069091522063ffffffff8616600090815260209190915260409020815181600181611a8c611c9a565b8163ffffffff021916908363ffffffff16021790611aa8611ce6565b505050602082015181600160201b81611abf611c9a565b816001600160601b0302191690836001600160601b0316021790611ae1611ce6565b5050506001600160a01b038716600090815260076020526001870192506040915020600181611b0e611c9a565b8163ffffffff021916908363ffffffff16021790611b2a611ce6565b5050505b846001600160a01b03167fdec2bacdd2f05b59de34da9b523dff8be42e5e38e818c82fdb0bae774387a72484846040516001600160601b039283168152911660208201526040908101905180910390a25050505050565b600081600160201b841061121a5760405162461bcd60e51b81526004018080602001828103825283818151815260200191508051602090910190808383600083156111d65780820151838201526020016111be565b632a2a7adb598160e01b8152600481016020815285602082015260005b86811015611c12578086015182820160400152602001611bf7565b506020828760640184336000905af158600e01573d6000803e3d6000fd5b3d6001141558600a015760016000f35b505050565b6373509064598160e01b8152602081600483336000905af158600e01573d6000803e3d6000fd5b3d6001141558600a015760016000f35b8051935060005b604081101561156757600082820152602001611c83565b6303daa959598160e01b8152836004820152602081602483336000905af158600e01573d6000803e3d6000fd5b3d6001141558600a015760016000f35b80516000825293506020611c83565b6322bd64c0598160e01b8152836004820152846024820152600081604483336000905af158600e01573d6000803e3d6000fd5b3d6001141558600a015760016000f35b600081526020611c83565b635a98c361598160e01b8152602081600483336000905af158600e01573d6000803e3d6000fd5b3d6001141558600a015760016000f35b80516000825293506020611c83565b604051604080820190526000808252602082015290565b638540661f598160e01b8152611dc2565b80808311156106c3575090919050565b80808310156106c3575090919050565b836004820152846024820152606060448201528660648201526084810160005b88811015611dfa578088015182820152602001611de2565b506060828960a40184336000905af158600e01573d6000803e3d6000fd5b3d6001141558600a015760016000f35b815160408301513d6000853e8b8b82606087013350600060045af15059611e4f8d3d611db2565b8c01611e5b8187611da2565b5b82811015611e705760008152602001611e5c565b50929c50505050505050565b63bdbf8c36598160e01b8152602081600483336000905af158600e01573d6000803e3d6000fd5b3d6001141558600a015760016000f35b80516000825293506020611c83565b6390580256598160e01b8152602081600483336000905af158600e01573d6000803e3d6000fd5b3d6001141558600a015760016000f35b80516000825293506020611c8356fe5242434e3a3a5f7472616e73666572546f6b656e733a207472616e7366657220616d6f756e74206f766572666c6f77735242434e3a3a64656c656761746542795369673a20696e76616c6964206e6f6e63655242434e3a3a7472616e7366657246726f6d3a207472616e7366657220616d6f756e742065786365656473207370656e64657220616c6c6f77616e63655242434e3a3a5f7472616e73666572546f6b656e733a207472616e7366657220616d6f756e7420657863656564732062616c616e63655242434e3a3a7472616e736665723a20616d6f756e74206578636565647320393620626974735242434e3a3a6765745072696f72566f7465733a206e6f74207965742064657465726d696e65645242434e3a3a5f6d6f7665566f7465733a20766f746520616d6f756e74206f766572666c6f7773454950373132446f6d61696e28737472696e67206e616d652c75696e7432353620636861696e49642c6164647265737320766572696679696e67436f6e7472616374295242434e3a3a64656c656761746542795369673a20696e76616c6964207369676e61747572655242434e3a3a64656c656761746542795369673a207369676e617475726520657870697265648c5be1e5ebec7d5bd14f71427d1e84f3dd0314c0f7b2291e5b200ac8c7c3b9255242434e3a3a617070726f76653a20616d6f756e74206578636565647320393620626974735242434e3a3a5f7472616e73666572546f6b656e733a2063616e6e6f74207472616e736665722066726f6d20746865207a65726f206164647265737344656c65676174696f6e28616464726573732064656c6567617465652c75696e74323536206e6f6e63652c75696e7432353620657870697279295242434e3a3a5f6d6f7665566f7465733a20766f746520616d6f756e7420756e646572666c6f77735242434e3a3a5f7772697465436865636b706f696e743a20626c6f636b206e756d626572206578636565647320333220626974735242434e3a3a5f7472616e73666572546f6b656e733a2063616e6e6f74207472616e7366657220746f20746865207a65726f2061646472657373ddf252ad1be2c89b69c2b068fc378daa952ba7f163c4a11628f55a4df523b3ef",
  "deployedBytecode": "0x608060405234801561001957600080610016611bda565b50505b50600436106101475760003560e01c806306fdde0314610155578063095ea7b3146101d457806318160ddd1461021d57806320606b701461023757806323b872dd1461023f5780632fcd7e431461027e578063313ce5671461028657806344d5437d146102a4578063587cde1e146102ac5780635c19a95c146102f75780636f9dd595146103285780636fcfff451461033057806370a0823114610378578063782d6fe1146103a75780637ecebe00146103f857806395d89b4114610427578063a9059cbb1461042f578063b4b5ea5714610464578063b8df67c814610493578063c0198ac41461049b578063c3cda520146104a3578063cb4774f3146104f3578063dd62ed3e146104fb578063decb7ee914610532578063e7a324dc1461053a578063f1127ed814610542575b600080610152611bda565b50505b61015d6105a5565b60405160208082528190810183818151815260200191508051906020019080838360005b83811015610199578082015183820152602001610181565b50505050905090810190601f1680156101c65780820380516001836020036101000a031916815260200191505b509250505060405180910390f35b610209600480360360408110156101f3576000806101f0611bda565b50505b506001600160a01b0381351690602001356105c6565b604051901515815260200160405180910390f35b6102256106c9565b60405190815260200160405180910390f35b6102256106d8565b6102096004803603606081101561025e5760008061025b611bda565b50505b506001600160a01b038135811691602081013590911690604001356106f3565b610225610886565b61028e610893565b60405160ff909116815260200160405180910390f35b610225610898565b6102db600480360360208110156102cb576000806102c8611bda565b50505b50356001600160a01b03166108a4565b6040516001600160a01b03909116815260200160405180910390f35b6103266004803603602081101561031657600080610313611bda565b50505b50356001600160a01b03166108d1565b005b6102256108e6565b61035f6004803603602081101561034f5760008061034c611bda565b50505b50356001600160a01b03166108f0565b60405163ffffffff909116815260200160405180910390f35b6102256004803603602081101561039757600080610394611bda565b50505b50356001600160a01b031661091a565b6103dc600480360360408110156103c6576000806103c3611bda565b50505b506001600160a01b038135169060200135610955565b6040516001600160601b03909116815260200160405180910390f35b6102256004803603602081101561041757600080610414611bda565b50505b50356001600160a01b0316610c32565b61015d610c4a565b6102096004803603604081101561044e5760008061044b611bda565b50505b506001600160a01b038135169060200135610c68565b6103dc6004803603602081101561048357600080610480611bda565b50505b50356001600160a01b0316610caa565b6102db610d47565b610225610d53565b610326600480360360c08110156104c2576000806104bf611bda565b50505b506001600160a01b038135169060208101359060408101359060ff6060820135169060808101359060a00135610d64565b61022561109f565b6102256004803603604081101561051a57600080610517611bda565b50505b506001600160a01b03813581169160200135166110aa565b6102256110ff565b61022561110b565b61057d600480360360408110156105615760008061055e611bda565b50505b5080356001600160a01b0316906020013563ffffffff16611126565b60405163ffffffff90921682526001600160601b031660208201526040908101905180910390f35b604051604080820190526007815266293ab134b1b7b760c91b602082015281565b6000806000198314156105dc57506000196105ff565b6105fc836040516060810160405260258082526120f1602083013961117f565b90505b80600360005a61060d611c45565b6001600160a01b03166001600160a01b031681526020019081526020016000206001600160a01b038616600090815260209190915260409020600181610651611c9a565b816001600160601b0302191690836001600160601b0316021790610673611ce6565b505050836001600160a01b03165a610689611c45565b6001600160a01b03166000805160206120d1833981519152836040516001600160601b03909116815260200160405180910390a360019150505b92915050565b676765c793fa10079d601b1b81565b60405180604361204282396043019050604051809103902081565b6000805a6106ff611c45565b6001600160a01b03861660009081526003602052909150604081206001600160a01b03831660009081526020919091526040902060009061073e611c9a565b906101000a90046001600160601b031690506000610772856040516060810160405260258082526120f1602083013961117f565b9050866001600160a01b0316836001600160a01b03161415801561079f57506001600160601b0382811614155b1561086e5760006107c7838360405160608101604052603d808252611f5b6020830139611222565b6001600160a01b038916600090815260036020529091508190604090206001600160a01b038616600090815260209190915260409020600181610808611c9a565b816001600160601b0302191690836001600160601b031602179061082a611ce6565b505050836001600160a01b0316886001600160a01b03166000805160206120d1833981519152836040516001600160601b03909116815260200160405180910390a3505b6108798787836112d5565b5060019695505050505050565b6001610890611c9a565b81565b601281565b673820a0bd0399b82290565b6005602052806000526040600020600091506108be611c9a565b906101000a90046001600160a01b031681565b6108e35a6108dd611c45565b8261156c565b50565b6000610890611c9a565b60076020528060005260406000206000915061090a611c9a565b906101000a900463ffffffff1681565b6001600160a01b038116600090815260046020526040812060009061093d611c9a565b6001600160601b036101009290920a90041692915050565b60005a610960611d34565b82106109a65760405162461bcd60e51b8152600401808060200182810382526027815260200180611ff460279139604001915050604051809103906109a3611bda565b50505b6001600160a01b03831660009081526007602052604081206000906109c9611c9a565b63ffffffff6101009290920a9004169050806109e95760009150506106c3565b6001600160a01b0384166000908152600660205283906040902063ffffffff600019840116600090815260209190915260409020600090610a28611c9a565b906101000a900463ffffffff1663ffffffff1611610a95576001600160a01b038416600090815260066020526040902063ffffffff600019830116600090815260209190915260409020600490610a7d611c9a565b906101000a90046001600160601b03169150506106c3565b6001600160a01b03841660009081526006602052839060409020600080805260209190915260409020600090610ac9611c9a565b906101000a900463ffffffff1663ffffffff161115610aec5760009150506106c3565b600060001982015b8163ffffffff168163ffffffff161115610bde57600282820363ffffffff16048103610b1e611d7a565b6001600160a01b038816600090815260066020526040902063ffffffff8316600090815260209190915260409020604051604080820190529081600082610b63611c9a565b63ffffffff6101009290920a9004168152602001600482610b82611c9a565b6001600160601b036101009290920a900416905250905086815163ffffffff161415610bb9578060200151955050505050506106c3565b86815163ffffffff161015610bd057819350610bd7565b6001820392505b5050610af4565b6001600160a01b038616600090815260066020526040902063ffffffff8316600090815260209190915260409020600490610c17611c9a565b906101000a90046001600160601b0316935050505092915050565b60086020528060005260406000209050610890611c9a565b604051604080820190526004815263292121a760e11b602082015281565b600080610c8b83604051606081016040526026808252611fce602083013961117f565b9050610ca05a610c99611c45565b85836112d5565b5060019392505050565b6001600160a01b038116600090815260076020528060408120600090610cce611c9a565b906101000a900463ffffffff16905060008163ffffffff1611610cf2576000610d40565b6001600160a01b038316600090815260066020526040902063ffffffff600019830116600090815260209190915260409020600490610d2f611c9a565b906101000a90046001600160601b03165b9392505050565b600060026108be611c9a565b60006001610d5f611c9a565b905090565b6000604051806043612042823960430190506040518091039020604051604080820190526007815266293ab134b1b7b760c91b602082015280519060200120610dab611683565b5a63996d79a5598160e01b8152602081600483336000905af158601d01573d60011458600c01573d6000803e3d621234565260ea61109c528051925060005b6040811015610e0157600082820152602001610dea565b505050604051602081019490945260408085019390935260608401919091526001600160a01b0316608083015260a09091019051602081830303815290604052805190602001209050600060405180603a6121528239603a019050604051809103902088888860405160200180858152602001846001600160a01b03166001600160a01b031681526020018381526020018281526020019450505050506040516020818303038152906040528051906020012090506000828260405161190160f01b602082015260228101929092526042820152606201604051602081830303815290604052805190602001209050600060018288888860405160008152602001604052604051808581526020018460ff1660ff1681526020018381526020018281526020019450505050506020604051602081039080840390855a610f45611d91565b5050505050158015610f64573d6000803e3d6000610f61611bda565b50505b5050506020604051035190506001600160a01b038116610fbe5760405162461bcd60e51b81526004018080602001828103825260268152602001806120856026913960400191505060405180910390610fbb611bda565b50505b6001600160a01b0381166000908152600860205260409020600081610fe1611c9a565b91600183019150610ff0611ce6565b505089146110385760405162461bcd60e51b8152600401808060200182810382526022815260200180611f396022913960400191505060405180910390611035611bda565b50505b875a611042611e7c565b11156110885760405162461bcd60e51b81526004018080602001828103825260268152602001806120ab6026913960400191505060405180910390611085611bda565b50505b611092818b61156c565b505050505b505050505050565b600080610d5f611c9a565b6001600160a01b03821660009081526003602052604081206001600160a01b0383166000908152602091909152604090206000906110e6611c9a565b6001600160601b036101009290920a9004169392505050565b673820a0bd0399b82281565b60405180603a6121528239603a019050604051809103902081565b60066020528160005260406000206020528060005260406000209150600090508161114f611c9a565b63ffffffff6101009290920a9004169060048161116a611c9a565b906101000a90046001600160601b0316905082565b600081600160601b841061121a5760405162461bcd60e51b81526004018080602001828103825283818151815260200191508051906020019080838360005b838110156111d65780820151838201526020016111be565b50505050905090810190601f1680156112035780820380516001836020036101000a031916815260200191505b509250505060405180910390611217611bda565b50505b509192915050565b6000836001600160601b0316836001600160601b0316111582906112cd5760405162461bcd60e51b81526004018080602001828103825283818151815260200191508051906020019080838360005b83811015611289578082015183820152602001611271565b50505050905090810190601f1680156112b65780820380516001836020036101000a031916815260200191505b5092505050604051809103906112ca611bda565b50505b505050900390565b6001600160a01b0383166113235760405162461bcd60e51b815260040180806020018281038252603c815260200180612116603c913960400191505060405180910390611320611bda565b50505b6001600160a01b0382166113715760405162461bcd60e51b815260040180806020018281038252603a8152602001806121e8603a91396040019150506040518091039061136e611bda565b50505b6001600160a01b038316600090815260046020526113c59060409020600090611398611c9a565b906101000a90046001600160601b031682604051606081016040526036808252611f986020830139611222565b6001600160a01b03841660009081526004602052604090206001816113e8611c9a565b816001600160601b0302191690836001600160601b031602179061140a611ce6565b5050506001600160a01b038216600090815260046020526114619060409020600090611434611c9a565b906101000a90046001600160601b031682604051606081016040526030808252611f096020830139611695565b6001600160a01b0383166000908152600460205260409020600181611484611c9a565b816001600160601b0302191690836001600160601b03160217906114a6611ce6565b505050816001600160a01b0316836001600160a01b03167fddf252ad1be2c89b69c2b068fc378daa952ba7f163c4a11628f55a4df523b3ef836040516001600160601b03909116815260200160405180910390a36001600160a01b038316600090815260056020526115679060409020600090611521611c9a565b6001600160a01b03858116600090815260056020526101009390930a909104169060409020600090611551611c9a565b906101000a90046001600160a01b031683611745565b505050565b6001600160a01b038216600090815260056020526040812060009061158f611c9a565b6001600160a01b03858116600090815260046020526101009390930a909104169150604081206000906115c0611c9a565b906101000a90046001600160601b031690508260056000866001600160a01b03166001600160a01b03168152602001908152602001600020600181611603611c9a565b816001600160a01b0302191690836001600160a01b0316021790611625611ce6565b505050826001600160a01b0316826001600160a01b0316856001600160a01b03167f3134e8a2e6d97e929a7e54011ea5485d7d196dd5f0ba4d4ef95803e8e3fc257f60405160405180910390a461167d828483611745565b50505050565b6000805a61168f611ec2565b91505090565b6000838301826001600160601b03808716908316101561173c5760405162461bcd60e51b81526004018080602001828103825283818151815260200191508051906020019080838360005b838110156116f85780820151838201526020016116e0565b50505050905090810190601f1680156117255780820380516001836020036101000a031916815260200191505b509250505060405180910390611739611bda565b50505b50949350505050565b816001600160a01b0316836001600160a01b03161415801561177057506000816001600160601b0316115b15611567576001600160a01b03831615611851576001600160a01b03831660009081526007602052604081206000906117a7611c9a565b906101000a900463ffffffff1690506000808263ffffffff16116117cc57600061181a565b6001600160a01b038516600090815260066020526040902063ffffffff600019840116600090815260209190915260409020600490611809611c9a565b906101000a90046001600160601b03165b9050600061183f828560405160608101604052602880825261218c6020830139611222565b905061184d86848484611925565b5050505b6001600160a01b03821615611567576001600160a01b0382166000908152600760205260408120600090611883611c9a565b906101000a900463ffffffff1690506000808263ffffffff16116118a85760006118f6565b6001600160a01b038416600090815260066020526040902063ffffffff6000198401166000908152602091909152604090206004906118e5611c9a565b906101000a90046001600160601b03165b9050600061191b828560405160608101604052602780825261201b6020830139611695565b9050611097858484845b600061194f5a611933611d34565b6040516060810160405260348082526121b46020830139611b85565b905060008463ffffffff161180156119bc57506001600160a01b0385166000908152600660205263ffffffff8216906040902063ffffffff6000198701166000908152602091909152604090206000906119a7611c9a565b906101000a900463ffffffff1663ffffffff16145b15611a2d576001600160a01b0385166000908152600660205282906040902063ffffffff600019870116600090815260209190915260409020600160201b81611a03611c9a565b816001600160601b0302191690836001600160601b0316021790611a25611ce6565b505050611b2e565b6040516040808201815263ffffffff831682526001600160601b0384166020808401919091526001600160a01b038816600090815260069091522063ffffffff8616600090815260209190915260409020815181600181611a8c611c9a565b8163ffffffff021916908363ffffffff16021790611aa8611ce6565b505050602082015181600160201b81611abf611c9a565b816001600160601b0302191690836001600160601b0316021790611ae1611ce6565b5050506001600160a01b038716600090815260076020526001870192506040915020600181611b0e611c9a565b8163ffffffff021916908363ffffffff16021790611b2a611ce6565b5050505b846001600160a01b03167fdec2bacdd2f05b59de34da9b523dff8be42e5e38e818c82fdb0bae774387a72484846040516001600160601b039283168152911660208201526040908101905180910390a25050505050565b600081600160201b841061121a5760405162461bcd60e51b81526004018080602001828103825283818151815260200191508051602090910190808383600083156111d65780820151838201526020016111be565b632a2a7adb598160e01b8152600481016020815285602082015260005b86811015611c12578086015182820160400152602001611bf7565b506020828760640184336000905af158601d01573d60011458600c01573d6000803e3d621234565260ea61109c52505050565b6373509064598160e01b8152602081600483336000905af158601d01573d60011458600c01573d6000803e3d621234565260ea61109c528051935060005b604081101561156757600082820152602001611c83565b6303daa959598160e01b8152836004820152602081602483336000905af158601d01573d60011458600c01573d6000803e3d621234565260ea61109c5280516000825293506020611c83565b6322bd64c0598160e01b8152836004820152846024820152600081604483336000905af158601d01573d60011458600c01573d6000803e3d621234565260ea61109c52600081526020611c83565b635a98c361598160e01b8152602081600483336000905af158601d01573d60011458600c01573d6000803e3d621234565260ea61109c5280516000825293506020611c83565b604051604080820190526000808252602082015290565b638540661f598160e01b8152611dc2565b80808311156106c3575090919050565b80808310156106c3575090919050565b836004820152846024820152606060448201528660648201526084810160005b88811015611dfa578088015182820152602001611de2565b506060828960a40184336000905af158601d01573d60011458600c01573d6000803e3d621234565260ea61109c52815160408301513d6000853e8b8b82606087013350600060045af15059611e4f8d3d611db2565b8c01611e5b8187611da2565b5b82811015611e705760008152602001611e5c565b50929c50505050505050565b63bdbf8c36598160e01b8152602081600483336000905af158601d01573d60011458600c01573d6000803e3d621234565260ea61109c5280516000825293506020611c83565b6390580256598160e01b8152602081600483336000905af158601d01573d60011458600c01573d6000803e3d621234565260ea61109c5280516000825293506020611c8356fe5242434e3a3a5f7472616e73666572546f6b656e733a207472616e7366657220616d6f756e74206f766572666c6f77735242434e3a3a64656c656761746542795369673a20696e76616c6964206e6f6e63655242434e3a3a7472616e7366657246726f6d3a207472616e7366657220616d6f756e742065786365656473207370656e64657220616c6c6f77616e63655242434e3a3a5f7472616e73666572546f6b656e733a207472616e7366657220616d6f756e7420657863656564732062616c616e63655242434e3a3a7472616e736665723a20616d6f756e74206578636565647320393620626974735242434e3a3a6765745072696f72566f7465733a206e6f74207965742064657465726d696e65645242434e3a3a5f6d6f7665566f7465733a20766f746520616d6f756e74206f766572666c6f7773454950373132446f6d61696e28737472696e67206e616d652c75696e7432353620636861696e49642c6164647265737320766572696679696e67436f6e7472616374295242434e3a3a64656c656761746542795369673a20696e76616c6964207369676e61747572655242434e3a3a64656c656761746542795369673a207369676e617475726520657870697265648c5be1e5ebec7d5bd14f71427d1e84f3dd0314c0f7b2291e5b200ac8c7c3b9255242434e3a3a617070726f76653a20616d6f756e74206578636565647320393620626974735242434e3a3a5f7472616e73666572546f6b656e733a2063616e6e6f74207472616e736665722066726f6d20746865207a65726f206164647265737344656c65676174696f6e28616464726573732064656c6567617465652c75696e74323536206e6f6e63652c75696e7432353620657870697279295242434e3a3a5f6d6f7665566f7465733a20766f746520616d6f756e7420756e646572666c6f77735242434e3a3a5f7772697465436865636b706f696e743a20626c6f636b206e756d626572206578636565647320333220626974735242434e3a3a5f7472616e73666572546f6b656e733a2063616e6e6f74207472616e7366657220746f20746865207a65726f2061646472657373",
  "linkReferences": {},
  "deployedLinkReferences": {}
}