{
  "_format": "hh-sol-artifact-1",
  "contractName": "RBCN",
  "sourceName": "contracts/RBCN.sol",
  "abi": [
    {
      "inputs": [
        {
          "internalType": "address",
          "name": "aqueduct",
          "type": "address"
        },
        {
          "internalType": "address",
          "name": "admin",
          "type": "address"
        }
      ],
      "payable": false,
      "stateMutability": "nonpayable",
      "type": "constructor"
    },
    {
      "anonymous": false,
      "inputs": [
        {
          "indexed": true,
          "internalType": "address",
          "name": "owner",
          "type": "address"
        },
        {
          "indexed": true,
          "internalType": "address",
          "name": "spender",
          "type": "address"
        },
        {
          "indexed": false,
          "internalType": "uint256",
          "name": "amount",
          "type": "uint256"
        }
      ],
      "name": "Approval",
      "type": "event"
    },
    {
      "anonymous": false,
      "inputs": [
        {
          "indexed": true,
          "internalType": "address",
          "name": "delegator",
          "type": "address"
        },
        {
          "indexed": true,
          "internalType": "address",
          "name": "fromDelegate",
          "type": "address"
        },
        {
          "indexed": true,
          "internalType": "address",
          "name": "toDelegate",
          "type": "address"
        }
      ],
      "name": "DelegateChanged",
      "type": "event"
    },
    {
      "anonymous": false,
      "inputs": [
        {
          "indexed": true,
          "internalType": "address",
          "name": "delegate",
          "type": "address"
        },
        {
          "indexed": false,
          "internalType": "uint256",
          "name": "previousBalance",
          "type": "uint256"
        },
        {
          "indexed": false,
          "internalType": "uint256",
          "name": "newBalance",
          "type": "uint256"
        }
      ],
      "name": "DelegateVotesChanged",
      "type": "event"
    },
    {
      "anonymous": false,
      "inputs": [
        {
          "indexed": true,
          "internalType": "address",
          "name": "from",
          "type": "address"
        },
        {
          "indexed": true,
          "internalType": "address",
          "name": "to",
          "type": "address"
        },
        {
          "indexed": false,
          "internalType": "uint256",
          "name": "amount",
          "type": "uint256"
        }
      ],
      "name": "Transfer",
      "type": "event"
    },
    {
      "constant": true,
      "inputs": [],
      "name": "DELEGATION_TYPEHASH",
      "outputs": [
        {
          "internalType": "bytes32",
          "name": "",
          "type": "bytes32"
        }
      ],
      "payable": false,
      "stateMutability": "view",
      "type": "function"
    },
    {
      "constant": true,
      "inputs": [],
      "name": "DOMAIN_TYPEHASH",
      "outputs": [
        {
          "internalType": "bytes32",
          "name": "",
          "type": "bytes32"
        }
      ],
      "payable": false,
      "stateMutability": "view",
      "type": "function"
    },
    {
      "constant": true,
      "inputs": [
        {
          "internalType": "address",
          "name": "account",
          "type": "address"
        },
        {
          "internalType": "address",
          "name": "spender",
          "type": "address"
        }
      ],
      "name": "allowance",
      "outputs": [
        {
          "internalType": "uint256",
          "name": "",
          "type": "uint256"
        }
      ],
      "payable": false,
      "stateMutability": "view",
      "type": "function"
    },
    {
      "constant": false,
      "inputs": [
        {
          "internalType": "address",
          "name": "spender",
          "type": "address"
        },
        {
          "internalType": "uint256",
          "name": "rawAmount",
          "type": "uint256"
        }
      ],
      "name": "approve",
      "outputs": [
        {
          "internalType": "bool",
          "name": "",
          "type": "bool"
        }
      ],
      "payable": false,
      "stateMutability": "nonpayable",
      "type": "function"
    },
    {
      "constant": true,
      "inputs": [],
      "name": "aqueductAddress",
      "outputs": [
        {
          "internalType": "address",
          "name": "",
          "type": "address"
        }
      ],
      "payable": false,
      "stateMutability": "view",
      "type": "function"
    },
    {
      "constant": true,
      "inputs": [
        {
          "internalType": "address",
          "name": "account",
          "type": "address"
        }
      ],
      "name": "balanceOf",
      "outputs": [
        {
          "internalType": "uint256",
          "name": "",
          "type": "uint256"
        }
      ],
      "payable": false,
      "stateMutability": "view",
      "type": "function"
    },
    {
      "constant": true,
      "inputs": [
        {
          "internalType": "address",
          "name": "",
          "type": "address"
        },
        {
          "internalType": "uint32",
          "name": "",
          "type": "uint32"
        }
      ],
      "name": "checkpoints",
      "outputs": [
        {
          "internalType": "uint32",
          "name": "fromBlock",
          "type": "uint32"
        },
        {
          "internalType": "uint96",
          "name": "votes",
          "type": "uint96"
        }
      ],
      "payable": false,
      "stateMutability": "view",
      "type": "function"
    },
    {
      "constant": true,
      "inputs": [],
      "name": "decimals",
      "outputs": [
        {
          "internalType": "uint8",
          "name": "",
          "type": "uint8"
        }
      ],
      "payable": false,
      "stateMutability": "view",
      "type": "function"
    },
    {
      "constant": false,
      "inputs": [
        {
          "internalType": "address",
          "name": "delegatee",
          "type": "address"
        }
      ],
      "name": "delegate",
      "outputs": [],
      "payable": false,
      "stateMutability": "nonpayable",
      "type": "function"
    },
    {
      "constant": false,
      "inputs": [
        {
          "internalType": "address",
          "name": "delegatee",
          "type": "address"
        },
        {
          "internalType": "uint256",
          "name": "nonce",
          "type": "uint256"
        },
        {
          "internalType": "uint256",
          "name": "expiry",
          "type": "uint256"
        },
        {
          "internalType": "uint8",
          "name": "v",
          "type": "uint8"
        },
        {
          "internalType": "bytes32",
          "name": "r",
          "type": "bytes32"
        },
        {
          "internalType": "bytes32",
          "name": "s",
          "type": "bytes32"
        }
      ],
      "name": "delegateBySig",
      "outputs": [],
      "payable": false,
      "stateMutability": "nonpayable",
      "type": "function"
    },
    {
      "constant": true,
      "inputs": [
        {
          "internalType": "address",
          "name": "",
          "type": "address"
        }
      ],
      "name": "delegates",
      "outputs": [
        {
          "internalType": "address",
          "name": "",
          "type": "address"
        }
      ],
      "payable": false,
      "stateMutability": "view",
      "type": "function"
    },
    {
      "constant": true,
      "inputs": [],
      "name": "distEndTime",
      "outputs": [
        {
          "internalType": "uint256",
          "name": "",
          "type": "uint256"
        }
      ],
      "payable": false,
      "stateMutability": "view",
      "type": "function"
    },
    {
      "constant": true,
      "inputs": [],
      "name": "distRate",
      "outputs": [
        {
          "internalType": "uint256",
          "name": "",
          "type": "uint256"
        }
      ],
      "payable": false,
      "stateMutability": "view",
      "type": "function"
    },
    {
      "constant": true,
      "inputs": [],
      "name": "distStartTime",
      "outputs": [
        {
          "internalType": "uint256",
          "name": "",
          "type": "uint256"
        }
      ],
      "payable": false,
      "stateMutability": "view",
      "type": "function"
    },
    {
      "constant": true,
      "inputs": [
        {
          "internalType": "address",
          "name": "account",
          "type": "address"
        }
      ],
      "name": "getCurrentVotes",
      "outputs": [
        {
          "internalType": "uint96",
          "name": "",
          "type": "uint96"
        }
      ],
      "payable": false,
      "stateMutability": "view",
      "type": "function"
    },
    {
      "constant": true,
      "inputs": [],
      "name": "getDistEndTime",
      "outputs": [
        {
          "internalType": "uint256",
          "name": "",
          "type": "uint256"
        }
      ],
      "payable": false,
      "stateMutability": "view",
      "type": "function"
    },
    {
      "constant": true,
      "inputs": [],
      "name": "getDistRate",
      "outputs": [
        {
          "internalType": "uint256",
          "name": "",
          "type": "uint256"
        }
      ],
      "payable": false,
      "stateMutability": "pure",
      "type": "function"
    },
    {
      "constant": true,
      "inputs": [],
      "name": "getDistStartTime",
      "outputs": [
        {
          "internalType": "uint256",
          "name": "",
          "type": "uint256"
        }
      ],
      "payable": false,
      "stateMutability": "view",
      "type": "function"
    },
    {
      "constant": true,
      "inputs": [
        {
          "internalType": "address",
          "name": "account",
          "type": "address"
        },
        {
          "internalType": "uint256",
          "name": "blockNumber",
          "type": "uint256"
        }
      ],
      "name": "getPriorVotes",
      "outputs": [
        {
          "internalType": "uint96",
          "name": "",
          "type": "uint96"
        }
      ],
      "payable": false,
      "stateMutability": "view",
      "type": "function"
    },
    {
      "constant": true,
      "inputs": [],
      "name": "name",
      "outputs": [
        {
          "internalType": "string",
          "name": "",
          "type": "string"
        }
      ],
      "payable": false,
      "stateMutability": "view",
      "type": "function"
    },
    {
      "constant": true,
      "inputs": [
        {
          "internalType": "address",
          "name": "",
          "type": "address"
        }
      ],
      "name": "nonces",
      "outputs": [
        {
          "internalType": "uint256",
          "name": "",
          "type": "uint256"
        }
      ],
      "payable": false,
      "stateMutability": "view",
      "type": "function"
    },
    {
      "constant": true,
      "inputs": [
        {
          "internalType": "address",
          "name": "",
          "type": "address"
        }
      ],
      "name": "numCheckpoints",
      "outputs": [
        {
          "internalType": "uint32",
          "name": "",
          "type": "uint32"
        }
      ],
      "payable": false,
      "stateMutability": "view",
      "type": "function"
    },
    {
      "constant": true,
      "inputs": [],
      "name": "symbol",
      "outputs": [
        {
          "internalType": "string",
          "name": "",
          "type": "string"
        }
      ],
      "payable": false,
      "stateMutability": "view",
      "type": "function"
    },
    {
      "constant": true,
      "inputs": [],
      "name": "totalSupply",
      "outputs": [
        {
          "internalType": "uint256",
          "name": "",
          "type": "uint256"
        }
      ],
      "payable": false,
      "stateMutability": "view",
      "type": "function"
    },
    {
      "constant": false,
      "inputs": [
        {
          "internalType": "address",
          "name": "dst",
          "type": "address"
        },
        {
          "internalType": "uint256",
          "name": "rawAmount",
          "type": "uint256"
        }
      ],
      "name": "transfer",
      "outputs": [
        {
          "internalType": "bool",
          "name": "",
          "type": "bool"
        }
      ],
      "payable": false,
      "stateMutability": "nonpayable",
      "type": "function"
    },
    {
      "constant": false,
      "inputs": [
        {
          "internalType": "address",
          "name": "src",
          "type": "address"
        },
        {
          "internalType": "address",
          "name": "dst",
          "type": "address"
        },
        {
          "internalType": "uint256",
          "name": "rawAmount",
          "type": "uint256"
        }
      ],
      "name": "transferFrom",
      "outputs": [
        {
          "internalType": "bool",
          "name": "",
          "type": "bool"
        }
      ],
      "payable": false,
      "stateMutability": "nonpayable",
      "type": "function"
    }
  ],
  "bytecode": "0x608060405234801561001057600080fd5b50604051611abf380380611abf8339818101604052604081101561003357600080fd5b5080516020918201516001600160a01b038216600081815260048552604080822080546001600160601b0319166b01a5dcb365fc4166be00000017905580516b033b2e3c9fd0803ce8000000815290519495939492939192600080516020611a9f833981519152929181900390910190a3600280546001600160a01b0319166001600160a01b03848116919091179091558116600081815260046020908152604080832080546b0195518939d43ed62a0000006001600160601b0319909116811790915581519081529051600080516020611a9f833981519152929181900390910190a35050426000819055630784ce0001600155611968806101376000396000f3fe608060405234801561001057600080fd5b506004361061018e5760003560e01c8063782d6fe1116100de578063c0198ac411610097578063dd62ed3e11610071578063dd62ed3e146104d4578063decb7ee914610502578063e7a324dc1461050a578063f1127ed8146105125761018e565b8063c0198ac41461047d578063c3cda52014610485578063cb4774f3146104cc5761018e565b8063782d6fe1146103ad5780637ecebe00146103f557806395d89b411461041b578063a9059cbb14610423578063b4b5ea571461044f578063b8df67c8146104755761018e565b8063313ce5671161014b5780635c19a95c116101255780635c19a95c146103185780636f9dd595146103405780636fcfff451461034857806370a08231146103875761018e565b8063313ce567146102b057806344d5437d146102ce578063587cde1e146102d65761018e565b806306fdde0314610193578063095ea7b31461021057806318160ddd1461025057806320606b701461026a57806323b872dd146102725780632fcd7e43146102a8575b600080fd5b61019b61056c565b6040805160208082528351818301528351919283929083019185019080838360005b838110156101d55781810151838201526020016101bd565b50505050905090810190601f1680156102025780820380516001836020036101000a031916815260200191505b509250505060405180910390f35b61023c6004803603604081101561022657600080fd5b506001600160a01b03813516906020013561058f565b604080519115158252519081900360200190f35b61025861064d565b60408051918252519081900360200190f35b61025861065d565b61023c6004803603606081101561028857600080fd5b506001600160a01b03813581169160208101359091169060400135610678565b6102586107bd565b6102b86107c3565b6040805160ff9092168252519081900360200190f35b6102586107c8565b6102fc600480360360208110156102ec57600080fd5b50356001600160a01b03166107d4565b604080516001600160a01b039092168252519081900360200190f35b61033e6004803603602081101561032e57600080fd5b50356001600160a01b03166107ef565b005b6102586107fc565b61036e6004803603602081101561035e57600080fd5b50356001600160a01b0316610802565b6040805163ffffffff9092168252519081900360200190f35b6102586004803603602081101561039d57600080fd5b50356001600160a01b031661081a565b6103d9600480360360408110156103c357600080fd5b506001600160a01b03813516906020013561083e565b604080516001600160601b039092168252519081900360200190f35b6102586004803603602081101561040b57600080fd5b50356001600160a01b0316610a6b565b61019b610a7d565b61023c6004803603604081101561043957600080fd5b506001600160a01b038135169060200135610a9d565b6103d96004803603602081101561046557600080fd5b50356001600160a01b0316610ad9565b6102fc610b4a565b610258610b59565b61033e600480360360c081101561049b57600080fd5b506001600160a01b038135169060208101359060408101359060ff6060820135169060808101359060a00135610b5f565b610258610e07565b610258600480360360408110156104ea57600080fd5b506001600160a01b0381358116916020013516610e0d565b610258610e41565b610258610e4d565b6105446004803603604081101561052857600080fd5b5080356001600160a01b0316906020013563ffffffff16610e68565b6040805163ffffffff90931683526001600160601b0390911660208301528051918290030190f35b60405180604001604052806007815260200166293ab134b1b7b760c91b81525081565b6000806000198314156105a557506000196105ca565b6105c78360405180606001604052806025815260200161180360259139610e9d565b90505b3360008181526003602090815260408083206001600160a01b0389168085529083529281902080546001600160601b0319166001600160601b038716908117909155815190815290519293927f8c5be1e5ebec7d5bd14f71427d1e84f3dd0314c0f7b2291e5b200ac8c7c3b925929181900390910190a360019150505b92915050565b6b033b2e3c9fd0803ce800000081565b60405180604361177482396043019050604051809103902081565b6001600160a01b03831660009081526003602090815260408083203380855290835281842054825160608101909352602580845291936001600160601b039091169285926106d0928892919061180390830139610e9d565b9050866001600160a01b0316836001600160a01b0316141580156106fd57506001600160601b0382811614155b156107a557600061072783836040518060600160405280603d815260200161168d603d9139610f37565b6001600160a01b038981166000818152600360209081526040808320948a168084529482529182902080546001600160601b0319166001600160601b03871690811790915582519081529151949550929391927f8c5be1e5ebec7d5bd14f71427d1e84f3dd0314c0f7b2291e5b200ac8c7c3b92592918290030190a3505b6107b0878783610fa4565b5060019695505050505050565b60015481565b601281565b673820a0bd0399b82290565b6005602052600090815260409020546001600160a01b031681565b6107f93382611189565b50565b60005481565b60076020526000908152604090205463ffffffff1681565b6001600160a01b03166000908152600460205260409020546001600160601b031690565b600043821061087e5760405162461bcd60e51b81526004018080602001828103825260278152602001806117266027913960400191505060405180910390fd5b6001600160a01b03831660009081526007602052604090205463ffffffff16806108ac576000915050610647565b6001600160a01b038416600090815260066020908152604080832063ffffffff600019860181168552925290912054168310610928576001600160a01b03841660009081526006602090815260408083206000199490940163ffffffff1683529290522054600160201b90046001600160601b03169050610647565b6001600160a01b038416600090815260066020908152604080832083805290915290205463ffffffff16831015610963576000915050610647565b600060001982015b8163ffffffff168163ffffffff161115610a2657600282820363ffffffff16048103610995611623565b506001600160a01b038716600090815260066020908152604080832063ffffffff858116855290835292819020815180830190925254928316808252600160201b9093046001600160601b03169181019190915290871415610a01576020015194506106479350505050565b805163ffffffff16871115610a1857819350610a1f565b6001820392505b505061096b565b506001600160a01b038516600090815260066020908152604080832063ffffffff909416835292905220546001600160601b03600160201b9091041691505092915050565b60086020526000908152604090205481565b60405180604001604052806004815260200163292121a760e11b81525081565b600080610ac28360405180606001604052806026815260200161170060269139610e9d565b9050610acf338583610fa4565b5060019392505050565b6001600160a01b03811660009081526007602052604081205463ffffffff1680610b04576000610b43565b6001600160a01b0383166000908152600660209081526040808320600019850163ffffffff168452909152902054600160201b90046001600160601b03165b9392505050565b6002546001600160a01b031681565b60015490565b6000604051808061177460439139604080519182900360430182208282019091526007825266293ab134b1b7b760c91b60209092019190915290507f2b51cdc735b84c612b989d37014cd42ea4cba9f796dbbca0f5a3e281043f70eb610bc3611213565b3060405160200180858152602001848152602001838152602001826001600160a01b03166001600160a01b0316815260200194505050505060405160208183030381529060405280519060200120905060006040518080611864603a91396040805191829003603a0182206020808401919091526001600160a01b038c1683830152606083018b905260808084018b90528251808503909101815260a08401835280519082012061190160f01b60c085015260c2840187905260e2808501829052835180860390910181526101028501808552815191840191909120600091829052610122860180865281905260ff8c1661014287015261016286018b905261018286018a9052935191965092945091926001926101a28083019392601f198301929081900390910190855afa158015610d01573d6000803e3d6000fd5b5050604051601f1901519150506001600160a01b038116610d535760405162461bcd60e51b81526004018080602001828103825260268152602001806117b76026913960400191505060405180910390fd5b6001600160a01b03811660009081526008602052604090208054600181019091558914610db15760405162461bcd60e51b815260040180806020018281038252602281526020018061166b6022913960400191505060405180910390fd5b87421115610df05760405162461bcd60e51b81526004018080602001828103825260268152602001806117dd6026913960400191505060405180910390fd5b610dfa818b611189565b505050505b505050505050565b60005490565b6001600160a01b0391821660009081526003602090815260408083209390941682529190915220546001600160601b031690565b673820a0bd0399b82281565b60405180603a6118648239603a019050604051809103902081565b600660209081526000928352604080842090915290825290205463ffffffff811690600160201b90046001600160601b031682565b600081600160601b8410610f2f5760405162461bcd60e51b81526004018080602001828103825283818151815260200191508051906020019080838360005b83811015610ef4578181015183820152602001610edc565b50505050905090810190601f168015610f215780820380516001836020036101000a031916815260200191505b509250505060405180910390fd5b509192915050565b6000836001600160601b0316836001600160601b031611158290610f9c5760405162461bcd60e51b8152602060048201818152835160248401528351909283926044909101919085019080838360008315610ef4578181015183820152602001610edc565b505050900390565b6001600160a01b038316610fe95760405162461bcd60e51b815260040180806020018281038252603c815260200180611828603c913960400191505060405180910390fd5b6001600160a01b03821661102e5760405162461bcd60e51b815260040180806020018281038252603a8152602001806118fa603a913960400191505060405180910390fd5b6001600160a01b038316600090815260046020908152604091829020548251606081019093526036808452611079936001600160601b0390921692859291906116ca90830139610f37565b6001600160a01b03848116600090815260046020908152604080832080546001600160601b0319166001600160601b039687161790559286168252908290205482516060810190935260308084526110e1949190911692859290919061163b90830139611217565b6001600160a01b0383811660008181526004602090815260409182902080546001600160601b0319166001600160601b039687161790558151948616855290519193928716927fddf252ad1be2c89b69c2b068fc378daa952ba7f163c4a11628f55a4df523b3ef929081900390910190a36001600160a01b0380841660009081526005602052604080822054858416835291205461118492918216911683611281565b505050565b6001600160a01b03808316600081815260056020818152604080842080546004845282862054949093528787166001600160a01b031984168117909155905191909516946001600160601b039092169391928592917f3134e8a2e6d97e929a7e54011ea5485d7d196dd5f0ba4d4ef95803e8e3fc257f9190a461120d828483611281565b50505050565b4690565b6000838301826001600160601b0380871690831610156112785760405162461bcd60e51b8152602060048201818152835160248401528351909283926044909101919085019080838360008315610ef4578181015183820152602001610edc565b50949350505050565b816001600160a01b0316836001600160a01b0316141580156112ac57506000816001600160601b0316115b15611184576001600160a01b03831615611364576001600160a01b03831660009081526007602052604081205463ffffffff1690816112ec57600061132b565b6001600160a01b0385166000908152600660209081526040808320600019860163ffffffff168452909152902054600160201b90046001600160601b03165b90506000611352828560405180606001604052806028815260200161189e60289139610f37565b90506113608684848461140f565b5050505b6001600160a01b03821615611184576001600160a01b03821660009081526007602052604081205463ffffffff16908161139f5760006113de565b6001600160a01b0384166000908152600660209081526040808320600019860163ffffffff168452909152902054600160201b90046001600160601b03165b90506000611405828560405180606001604052806027815260200161174d60279139611217565b9050610dff858484845b6000611433436040518060600160405280603481526020016118c6603491396115ce565b905060008463ffffffff1611801561147c57506001600160a01b038516600090815260066020908152604080832063ffffffff6000198901811685529252909120548282169116145b156114db576001600160a01b0385166000908152600660209081526040808320600019880163ffffffff168452909152902080546fffffffffffffffffffffffff000000001916600160201b6001600160601b0385160217905561157a565b60408051808201825263ffffffff80841682526001600160601b0380861660208085019182526001600160a01b038b166000818152600683528781208c871682528352878120965187549451909516600160201b026fffffffffffffffffffffffff000000001995871663ffffffff19958616179590951694909417909555938252600790935292909220805460018801909316929091169190911790555b604080516001600160601b0380861682528416602082015281516001600160a01b038816927fdec2bacdd2f05b59de34da9b523dff8be42e5e38e818c82fdb0bae774387a724928290030190a25050505050565b600081600160201b8410610f2f5760405162461bcd60e51b8152602060048201818152835160248401528351909283926044909101919085019080838360008315610ef4578181015183820152602001610edc565b60408051808201909152600080825260208201529056fe5242434e3a3a5f7472616e73666572546f6b656e733a207472616e7366657220616d6f756e74206f766572666c6f77735242434e3a3a64656c656761746542795369673a20696e76616c6964206e6f6e63655242434e3a3a7472616e7366657246726f6d3a207472616e7366657220616d6f756e742065786365656473207370656e64657220616c6c6f77616e63655242434e3a3a5f7472616e73666572546f6b656e733a207472616e7366657220616d6f756e7420657863656564732062616c616e63655242434e3a3a7472616e736665723a20616d6f756e74206578636565647320393620626974735242434e3a3a6765745072696f72566f7465733a206e6f74207965742064657465726d696e65645242434e3a3a5f6d6f7665566f7465733a20766f746520616d6f756e74206f766572666c6f7773454950373132446f6d61696e28737472696e67206e616d652c75696e7432353620636861696e49642c6164647265737320766572696679696e67436f6e7472616374295242434e3a3a64656c656761746542795369673a20696e76616c6964207369676e61747572655242434e3a3a64656c656761746542795369673a207369676e617475726520657870697265645242434e3a3a617070726f76653a20616d6f756e74206578636565647320393620626974735242434e3a3a5f7472616e73666572546f6b656e733a2063616e6e6f74207472616e736665722066726f6d20746865207a65726f206164647265737344656c65676174696f6e28616464726573732064656c6567617465652c75696e74323536206e6f6e63652c75696e7432353620657870697279295242434e3a3a5f6d6f7665566f7465733a20766f746520616d6f756e7420756e646572666c6f77735242434e3a3a5f7772697465436865636b706f696e743a20626c6f636b206e756d626572206578636565647320333220626974735242434e3a3a5f7472616e73666572546f6b656e733a2063616e6e6f74207472616e7366657220746f20746865207a65726f2061646472657373a265627a7a723158202f77e843a843b465f8ec57cf10c06413fa1dcb93f359c721b1327357bd60ef0564736f6c63430005100032ddf252ad1be2c89b69c2b068fc378daa952ba7f163c4a11628f55a4df523b3ef",
  "linkReferences": {},
  "deployedLinkReferences": {}
}