{
  "_format": "hh-sol-artifact-1",
  "contractName": "DaiWithFaucet",
  "sourceName": "contracts/peripheral_contracts/DaiWithFaucet.sol",
  "abi": [
    {
      "inputs": [
        {
          "internalType": "uint256",
          "name": "chainId_",
          "type": "uint256"
        }
      ],
      "payable": false,
      "stateMutability": "nonpayable",
      "type": "constructor"
    },
    {
      "anonymous": false,
      "inputs": [
        {
          "indexed": true,
          "internalType": "address",
          "name": "src",
          "type": "address"
        },
        {
          "indexed": true,
          "internalType": "address",
          "name": "guy",
          "type": "address"
        },
        {
          "indexed": false,
          "internalType": "uint256",
          "name": "wad",
          "type": "uint256"
        }
      ],
      "name": "Approval",
      "type": "event"
    },
    {
      "anonymous": true,
      "inputs": [
        {
          "indexed": true,
          "internalType": "bytes4",
          "name": "sig",
          "type": "bytes4"
        },
        {
          "indexed": true,
          "internalType": "address",
          "name": "usr",
          "type": "address"
        },
        {
          "indexed": true,
          "internalType": "bytes32",
          "name": "arg1",
          "type": "bytes32"
        },
        {
          "indexed": true,
          "internalType": "bytes32",
          "name": "arg2",
          "type": "bytes32"
        },
        {
          "indexed": false,
          "internalType": "bytes",
          "name": "data",
          "type": "bytes"
        }
      ],
      "name": "LogNote",
      "type": "event"
    },
    {
      "anonymous": false,
      "inputs": [
        {
          "indexed": true,
          "internalType": "address",
          "name": "src",
          "type": "address"
        },
        {
          "indexed": true,
          "internalType": "address",
          "name": "dst",
          "type": "address"
        },
        {
          "indexed": false,
          "internalType": "uint256",
          "name": "wad",
          "type": "uint256"
        }
      ],
      "name": "Transfer",
      "type": "event"
    },
    {
      "constant": true,
      "inputs": [],
      "name": "DOMAIN_SEPARATOR",
      "outputs": [
        {
          "internalType": "bytes32",
          "name": "",
          "type": "bytes32"
        }
      ],
      "payable": false,
      "stateMutability": "view",
      "type": "function"
    },
    {
      "constant": true,
      "inputs": [],
      "name": "PERMIT_TYPEHASH",
      "outputs": [
        {
          "internalType": "bytes32",
          "name": "",
          "type": "bytes32"
        }
      ],
      "payable": false,
      "stateMutability": "view",
      "type": "function"
    },
    {
      "constant": true,
      "inputs": [
        {
          "internalType": "address",
          "name": "",
          "type": "address"
        },
        {
          "internalType": "address",
          "name": "",
          "type": "address"
        }
      ],
      "name": "allowance",
      "outputs": [
        {
          "internalType": "uint256",
          "name": "",
          "type": "uint256"
        }
      ],
      "payable": false,
      "stateMutability": "view",
      "type": "function"
    },
    {
      "constant": false,
      "inputs": [
        {
          "internalType": "address",
          "name": "usr",
          "type": "address"
        },
        {
          "internalType": "uint256",
          "name": "wad",
          "type": "uint256"
        }
      ],
      "name": "approve",
      "outputs": [
        {
          "internalType": "bool",
          "name": "",
          "type": "bool"
        }
      ],
      "payable": false,
      "stateMutability": "nonpayable",
      "type": "function"
    },
    {
      "constant": true,
      "inputs": [
        {
          "internalType": "address",
          "name": "",
          "type": "address"
        }
      ],
      "name": "balanceOf",
      "outputs": [
        {
          "internalType": "uint256",
          "name": "",
          "type": "uint256"
        }
      ],
      "payable": false,
      "stateMutability": "view",
      "type": "function"
    },
    {
      "constant": false,
      "inputs": [
        {
          "internalType": "address",
          "name": "usr",
          "type": "address"
        },
        {
          "internalType": "uint256",
          "name": "wad",
          "type": "uint256"
        }
      ],
      "name": "burn",
      "outputs": [],
      "payable": false,
      "stateMutability": "nonpayable",
      "type": "function"
    },
    {
      "constant": true,
      "inputs": [],
      "name": "decimals",
      "outputs": [
        {
          "internalType": "uint8",
          "name": "",
          "type": "uint8"
        }
      ],
      "payable": false,
      "stateMutability": "view",
      "type": "function"
    },
    {
      "constant": false,
      "inputs": [
        {
          "internalType": "address",
          "name": "guy",
          "type": "address"
        }
      ],
      "name": "deny",
      "outputs": [],
      "payable": false,
      "stateMutability": "nonpayable",
      "type": "function"
    },
    {
      "constant": false,
      "inputs": [],
      "name": "faucet",
      "outputs": [
        {
          "internalType": "bool",
          "name": "",
          "type": "bool"
        }
      ],
      "payable": false,
      "stateMutability": "nonpayable",
      "type": "function"
    },
    {
      "constant": true,
      "inputs": [
        {
          "internalType": "address",
          "name": "",
          "type": "address"
        }
      ],
      "name": "faucetCheck",
      "outputs": [
        {
          "internalType": "uint256",
          "name": "",
          "type": "uint256"
        }
      ],
      "payable": false,
      "stateMutability": "view",
      "type": "function"
    },
    {
      "constant": false,
      "inputs": [
        {
          "internalType": "address",
          "name": "src",
          "type": "address"
        },
        {
          "internalType": "address",
          "name": "dst",
          "type": "address"
        },
        {
          "internalType": "uint256",
          "name": "wad",
          "type": "uint256"
        }
      ],
      "name": "move",
      "outputs": [],
      "payable": false,
      "stateMutability": "nonpayable",
      "type": "function"
    },
    {
      "constant": true,
      "inputs": [],
      "name": "name",
      "outputs": [
        {
          "internalType": "string",
          "name": "",
          "type": "string"
        }
      ],
      "payable": false,
      "stateMutability": "view",
      "type": "function"
    },
    {
      "constant": true,
      "inputs": [
        {
          "internalType": "address",
          "name": "",
          "type": "address"
        }
      ],
      "name": "nonces",
      "outputs": [
        {
          "internalType": "uint256",
          "name": "",
          "type": "uint256"
        }
      ],
      "payable": false,
      "stateMutability": "view",
      "type": "function"
    },
    {
      "constant": false,
      "inputs": [
        {
          "internalType": "address",
          "name": "holder",
          "type": "address"
        },
        {
          "internalType": "address",
          "name": "spender",
          "type": "address"
        },
        {
          "internalType": "uint256",
          "name": "nonce",
          "type": "uint256"
        },
        {
          "internalType": "uint256",
          "name": "expiry",
          "type": "uint256"
        },
        {
          "internalType": "bool",
          "name": "allowed",
          "type": "bool"
        },
        {
          "internalType": "uint8",
          "name": "v",
          "type": "uint8"
        },
        {
          "internalType": "bytes32",
          "name": "r",
          "type": "bytes32"
        },
        {
          "internalType": "bytes32",
          "name": "s",
          "type": "bytes32"
        }
      ],
      "name": "permit",
      "outputs": [],
      "payable": false,
      "stateMutability": "nonpayable",
      "type": "function"
    },
    {
      "constant": false,
      "inputs": [
        {
          "internalType": "address",
          "name": "usr",
          "type": "address"
        },
        {
          "internalType": "uint256",
          "name": "wad",
          "type": "uint256"
        }
      ],
      "name": "pull",
      "outputs": [],
      "payable": false,
      "stateMutability": "nonpayable",
      "type": "function"
    },
    {
      "constant": false,
      "inputs": [
        {
          "internalType": "address",
          "name": "usr",
          "type": "address"
        },
        {
          "internalType": "uint256",
          "name": "wad",
          "type": "uint256"
        }
      ],
      "name": "push",
      "outputs": [],
      "payable": false,
      "stateMutability": "nonpayable",
      "type": "function"
    },
    {
      "constant": false,
      "inputs": [
        {
          "internalType": "address",
          "name": "guy",
          "type": "address"
        }
      ],
      "name": "rely",
      "outputs": [],
      "payable": false,
      "stateMutability": "nonpayable",
      "type": "function"
    },
    {
      "constant": true,
      "inputs": [],
      "name": "symbol",
      "outputs": [
        {
          "internalType": "string",
          "name": "",
          "type": "string"
        }
      ],
      "payable": false,
      "stateMutability": "view",
      "type": "function"
    },
    {
      "constant": true,
      "inputs": [],
      "name": "totalSupply",
      "outputs": [
        {
          "internalType": "uint256",
          "name": "",
          "type": "uint256"
        }
      ],
      "payable": false,
      "stateMutability": "view",
      "type": "function"
    },
    {
      "constant": false,
      "inputs": [
        {
          "internalType": "address",
          "name": "dst",
          "type": "address"
        },
        {
          "internalType": "uint256",
          "name": "wad",
          "type": "uint256"
        }
      ],
      "name": "transfer",
      "outputs": [
        {
          "internalType": "bool",
          "name": "",
          "type": "bool"
        }
      ],
      "payable": false,
      "stateMutability": "nonpayable",
      "type": "function"
    },
    {
      "constant": false,
      "inputs": [
        {
          "internalType": "address",
          "name": "src",
          "type": "address"
        },
        {
          "internalType": "address",
          "name": "dst",
          "type": "address"
        },
        {
          "internalType": "uint256",
          "name": "wad",
          "type": "uint256"
        }
      ],
      "name": "transferFrom",
      "outputs": [
        {
          "internalType": "bool",
          "name": "",
          "type": "bool"
        }
      ],
      "payable": false,
      "stateMutability": "nonpayable",
      "type": "function"
    },
    {
      "constant": true,
      "inputs": [],
      "name": "version",
      "outputs": [
        {
          "internalType": "string",
          "name": "",
          "type": "string"
        }
      ],
      "payable": false,
      "stateMutability": "view",
      "type": "function"
    },
    {
      "constant": true,
      "inputs": [
        {
          "internalType": "address",
          "name": "",
          "type": "address"
        }
      ],
      "name": "wards",
      "outputs": [
        {
          "internalType": "uint256",
          "name": "",
          "type": "uint256"
        }
      ],
      "payable": false,
      "stateMutability": "view",
      "type": "function"
    }
  ],
  "bytecode": "0x60806040523480156200001c5760008062000019620001b9565b50505b5060405162001a4b38038062001a4b833981810160405260208110156200004d576000806200004a620001b9565b50505b81019080805192506001915060009050805a6200006962000226565b6001600160a01b03166001600160a01b0316815260200190815260200160002081906200009562000282565b505050604051806052620019f982396052019050604051809103902060405160408082019052600f81526e2aa9a2219029ba30b13632b1b7b4b760891b6020820152805190602001206040516040808201905260018152603160f81b602082015280519060200120835a63996d79a5598160e01b8152602081600483336000905af158600e01573d6000803e3d6000fd5b3d6001141558600a015760016000f35b8051925060005b604081101562000156576000828201526020016200013d565b5050506040516020810195909552604080860194909452606085019290925260808401526001600160a01b031660a083015260c0909101905160208183030381529060405280519060200120806006620001af62000282565b50505050620002d1565b632a2a7adb598160e01b8152600481016020815285602082015260005b86811015620001f3578086015182820160400152602001620001d6565b506020828760640184336000905af158600e01573d6000803e3d6000fd5b3d6001141558600a015760016000f35b505050565b6373509064598160e01b8152602081600483336000905af158600e01573d6000803e3d6000fd5b3d6001141558600a015760016000f35b8051935060005b60408110156200027d5760008282015260200162000264565b505050565b6322bd64c0598160e01b8152836004820152846024820152600081604483336000905af158600e01573d6000803e3d6000fd5b3d6001141558600a015760016000f35b60008152602062000264565b61171880620002e16000396000f3fe60806040523480156100195760008061001661148d565b50505b50600436106101565760003560e01c80638fcbaf0c116100cc578063bb35783b11610085578063bb35783b14610483578063bd5c2b25146104c2578063bf353dbb146104f1578063dd62ed3e14610520578063de5f72fd14610557578063f2d5d56b1461055f57610156565b80638fcbaf0c1461034a57806395d89b41146103ad5780639c52a7f1146103b55780639dc29fac146103e4578063a9059cbb14610419578063b753a98c1461044e57610156565b8063313ce5671161011e578063313ce5671461028d5780633644e515146102ab57806354fd4d50146102b357806365fae35e146102bb57806370a08231146102ec5780637ecebe001461031b57610156565b806306fdde0314610164578063095ea7b3146101e357806318160ddd1461022c57806323b872dd1461024657806330adf81f14610285575b60008061016161148d565b50505b61016c610594565b60405160208082528190810183818151815260200191508051906020019080838360005b838110156101a8578082015183820152602001610190565b50505050905090810190601f1680156101d55780820380516001836020036101000a031916815260200191505b509250505060405180910390f35b61021860048036036040811015610202576000806101ff61148d565b50505b506001600160a01b0381351690602001356105bd565b604051901515815260200160405180910390f35b61023461066c565b60405190815260200160405180910390f35b610218600480360360608110156102655760008061026261148d565b50505b506001600160a01b03813581169160208101359091169060400135610679565b6102346109a3565b6102956109c7565b60405160ff909116815260200160405180910390f35b6102346109cc565b61016c6109d6565b6102ea600480360360208110156102da576000806102d761148d565b50505b50356001600160a01b03166109f1565b005b6102346004803603602081101561030b5760008061030861148d565b50505b50356001600160a01b0316610ae0565b6102346004803603602081101561033a5760008061033761148d565b50505b50356001600160a01b0316610af8565b6102ea600480360361010081101561036a5760008061036761148d565b50505b506001600160a01b038135811691602081013590911690604081013590606081013590608081013515159060ff60a0820135169060c08101359060e00135610b10565b61016c610e96565b6102ea600480360360208110156103d4576000806103d161148d565b50505b50356001600160a01b0316610eb4565b6102ea600480360360408110156104035760008061040061148d565b50505b506001600160a01b038135169060200135610f5b565b610218600480360360408110156104385760008061043561148d565b50505b506001600160a01b038135169060200135611245565b6102ea6004803603604081101561046d5760008061046a61148d565b50505b506001600160a01b038135169060200135611261565b6102ea600480360360608110156104a25760008061049f61148d565b50505b506001600160a01b03813581169160208101359091169060400135611279565b610234600480360360208110156104e1576000806104de61148d565b50505b50356001600160a01b031661128a565b610234600480360360208110156105105760008061050d61148d565b50505b50356001600160a01b03166112a2565b6102346004803603604081101561053f5760008061053c61148d565b50505b506001600160a01b03813581169160200135166112ba565b6102186112e0565b6102ea6004803603604081101561057e5760008061057b61148d565b50505b506001600160a01b038135169060200135611399565b60405160408082019052600f81526e2aa9a2219029ba30b13632b1b7b4b760891b602082015281565b600081600360005a6105cd6114f8565b6001600160a01b03166001600160a01b031681526020019081526020016000206001600160a01b038516600090815260209190915260409020819061061061154d565b505050826001600160a01b03165a6106266114f8565b6001600160a01b03167f8c5be1e5ebec7d5bd14f71427d1e84f3dd0314c0f7b2291e5b200ac8c7c3b9258460405190815260200160405180910390a35060015b92915050565b600161067661159b565b81565b6001600160a01b03831660009081526002602052816040822061069a61159b565b10156106f05760405162461bcd60e51b81526020600482015260186024820152774461692f696e73756666696369656e742d62616c616e636560401b6044820152606401604051809103906106ed61148d565b50505b5a6106f96114f8565b6001600160a01b0316846001600160a01b03161415801561076757506001600160a01b03841660009081526003602052600019906040902060005a61073c6114f8565b6001600160a01b03166001600160a01b0316815260200190815260200160002061076461159b565b14155b156108ba576001600160a01b0384166000908152600360205282906040902060005a6107916114f8565b6001600160a01b03166001600160a01b031681526020019081526020016000206107b961159b565b10156108145760405162461bcd60e51b815260206004820152601a60248201527f4461692f696e73756666696369656e742d616c6c6f77616e636500000000000060448201526064016040518091039061081161148d565b50505b6001600160a01b03841660009081526003602052610869906040902060005a61083b6114f8565b6001600160a01b03166001600160a01b0316815260200190815260200160002061086361159b565b836113ac565b6001600160a01b038516600090815260036020526040902060005a61088c6114f8565b6001600160a01b03166001600160a01b0316815260200190815260200160002081906108b661154d565b5050505b6001600160a01b038416600090815260026020526108de906040902061086361159b565b6001600160a01b0385166000908152600260205260409020819061090061154d565b5050506001600160a01b0383166000908152600260205261092d906040902061092761159b565b836113ca565b6001600160a01b0384166000908152600260205260409020819061094f61154d565b505050826001600160a01b0316846001600160a01b03167fddf252ad1be2c89b69c2b068fc378daa952ba7f163c4a11628f55a4df523b3ef8460405190815260200160405180910390a35060019392505050565b7fea2aa0a1be11a07ed86d755c93467f4f82362b452371d1ba94d1715123511acb81565b601281565b600661067661159b565b6040516040808201905260018152603160f81b602082015281565b6000805a6109fd6114f8565b6001600160a01b03166001600160a01b03168152602001908152602001600020610a2561159b565b600114610a765760405162461bcd60e51b815260206004820152601260248201527111185a4bdb9bdd0b585d5d1a1bdc9a5e995960721b604482015260640160405180910390610a7361148d565b50505b6001600160a01b03811660009081526020819052600190604090208190610a9b61154d565b5050505961012081016040526020815260e0602082015260e0600060408301376024356004355a610aca6114f8565b6001600160e01b03196000351661012085a45050565b6002602052806000526040600020905061067661159b565b6004602052806000526040600020905061067661159b565b60006006610b1c61159b565b7fea2aa0a1be11a07ed86d755c93467f4f82362b452371d1ba94d1715123511acb8a8a8a8a8a60405160208101969096526001600160a01b03948516604080880191909152939094166060860152608085019190915260a084015290151560c083015260e090910190516020818303038152906040528051906020012060405161190160f01b6020820152602281019290925260428201526062016040516020818303038152906040528051906020012090506001600160a01b038916610c2a5760405162461bcd60e51b815260206004820152601560248201527404461692f696e76616c69642d616464726573732d3605c1b604482015260640160405180910390610c2761148d565b50505b60018185858560405160008152602001604052604051808581526020018460ff1660ff1681526020018381526020018281526020019450505050506020604051602081039080840390855a610c7d6115e7565b5050505050158015610c9c573d6000803e3d6000610c9961148d565b50505b505050602060405103516001600160a01b0316896001600160a01b031614610d085760405162461bcd60e51b815260206004820152601260248201527111185a4bda5b9d985b1a590b5c195c9b5a5d60721b604482015260640160405180910390610d0561148d565b50505b851580610d1d5750855a610d1a6116d2565b11155b610d6b5760405162461bcd60e51b815260206004820152601260248201527111185a4bdc195c9b5a5d0b595e1c1a5c995960721b604482015260640160405180910390610d6861148d565b50505b6001600160a01b0389166000908152600460205260409020600081610d8e61159b565b91600183019150610d9d61154d565b50508714610dee5760405162461bcd60e51b81526020600482015260116024820152704461692f696e76616c69642d6e6f6e636560781b604482015260640160405180910390610deb61148d565b50505b600085610dfc576000610e00565b6000195b6001600160a01b038b16600090815260036020529091508190604090206001600160a01b038b166000908152602091909152604090208190610e4061154d565b505050886001600160a01b03168a6001600160a01b03167f8c5be1e5ebec7d5bd14f71427d1e84f3dd0314c0f7b2291e5b200ac8c7c3b9258360405190815260200160405180910390a350505050505050505050565b6040516040808201905260048152635553444360e01b602082015281565b6000805a610ec06114f8565b6001600160a01b03166001600160a01b03168152602001908152602001600020610ee861159b565b600114610f395760405162461bcd60e51b815260206004820152601260248201527111185a4bdb9bdd0b585d5d1a1bdc9a5e995960721b604482015260640160405180910390610f3661148d565b50505b6001600160a01b03811660009081526020819052604081208190610a9b61154d565b6001600160a01b03821660009081526002602052819060409020610f7d61159b565b1015610fd35760405162461bcd60e51b81526020600482015260186024820152774461692f696e73756666696369656e742d62616c616e636560401b604482015260640160405180910390610fd061148d565b50505b5a610fdc6114f8565b6001600160a01b0316826001600160a01b03161415801561104a57506001600160a01b03821660009081526003602052600019906040902060005a61101f6114f8565b6001600160a01b03166001600160a01b0316815260200190815260200160002061104761159b565b14155b1561119d576001600160a01b0382166000908152600360205281906040902060005a6110746114f8565b6001600160a01b03166001600160a01b0316815260200190815260200160002061109c61159b565b10156110f75760405162461bcd60e51b815260206004820152601a60248201527f4461692f696e73756666696369656e742d616c6c6f77616e63650000000000006044820152606401604051809103906110f461148d565b50505b6001600160a01b0382166000908152600360205261114c906040902060005a61111e6114f8565b6001600160a01b03166001600160a01b0316815260200190815260200160002061114661159b565b826113ac565b6001600160a01b038316600090815260036020526040902060005a61116f6114f8565b6001600160a01b03166001600160a01b03168152602001908152602001600020819061119961154d565b5050505b6001600160a01b038216600090815260026020526111c1906040902061114661159b565b6001600160a01b038316600090815260026020526040902081906111e361154d565b5050506111f3600161114661159b565b8060016111fe61154d565b5060009150506001600160a01b0383167fddf252ad1be2c89b69c2b068fc378daa952ba7f163c4a11628f55a4df523b3ef8360405190815260200160405180910390a35050565b600061125a5a6112536114f8565b8484610679565b9392505050565b6112745a61126d6114f8565b8383610679565b505050565b611284838383610679565b50505050565b6005602052806000526040600020905061067661159b565b6000602052806000526040600020905061067661159b565b60036020528160005260406000206020528060005260406000209150610676905061159b565b6000600560005a6112ef6114f8565b6001600160a01b03166001600160a01b0316815260200190815260200160002061131761159b565b62015180015a6113256116d2565b101561133357506000611396565b61134e5a61133f6114f8565b68056bc75e2d631000006113e0565b5a6113576116d2565b600560005a6113646114f8565b6001600160a01b03166001600160a01b03168152602001908152602001600020819061138e61154d565b505050600190505b90565b611274825a6113a66114f8565b83610679565b80820382811115610666576000806113c261148d565b505092915050565b80820182811015610666576000806113c261148d565b6001600160a01b0382166000908152600260205261140a906040902061140461159b565b826113ca565b6001600160a01b0383166000908152600260205260409020819061142c61154d565b50505061143c600161140461159b565b80600161144761154d565b5050506001600160a01b03821660007fddf252ad1be2c89b69c2b068fc378daa952ba7f163c4a11628f55a4df523b3ef8360405190815260200160405180910390a35050565b632a2a7adb598160e01b8152600481016020815285602082015260005b868110156114c55780860151828201604001526020016114aa565b506020828760640184336000905af158600e01573d6000803e3d6000fd5b3d6001141558600a015760016000f35b505050565b6373509064598160e01b8152602081600483336000905af158600e01573d6000803e3d6000fd5b3d6001141558600a015760016000f35b8051935060005b604081101561127457600082820152602001611536565b6322bd64c0598160e01b8152836004820152846024820152600081604483336000905af158600e01573d6000803e3d6000fd5b3d6001141558600a015760016000f35b600081526020611536565b6303daa959598160e01b8152836004820152602081602483336000905af158600e01573d6000803e3d6000fd5b3d6001141558600a015760016000f35b80516000825293506020611536565b638540661f598160e01b8152611618565b8080831115610666575090919050565b8080831015610666575090919050565b836004820152846024820152606060448201528660648201526084810160005b88811015611650578088015182820152602001611638565b506060828960a40184336000905af158600e01573d6000803e3d6000fd5b3d6001141558600a015760016000f35b815160408301513d6000853e8b8b82606087013350600060045af150596116a58d3d611608565b8c016116b181876115f8565b5b828110156116c657600081526020016116b2565b50929c50505050505050565b63bdbf8c36598160e01b8152602081600483336000905af158600e01573d6000803e3d6000fd5b3d6001141558600a015760016000f35b8051600082529350602061153656454950373132446f6d61696e28737472696e67206e616d652c737472696e672076657273696f6e2c75696e7432353620636861696e49642c6164647265737320766572696679696e67436f6e747261637429",
  "deployedBytecode": "0x60806040523480156100195760008061001661148d565b50505b50600436106101565760003560e01c80638fcbaf0c116100cc578063bb35783b11610085578063bb35783b14610483578063bd5c2b25146104c2578063bf353dbb146104f1578063dd62ed3e14610520578063de5f72fd14610557578063f2d5d56b1461055f57610156565b80638fcbaf0c1461034a57806395d89b41146103ad5780639c52a7f1146103b55780639dc29fac146103e4578063a9059cbb14610419578063b753a98c1461044e57610156565b8063313ce5671161011e578063313ce5671461028d5780633644e515146102ab57806354fd4d50146102b357806365fae35e146102bb57806370a08231146102ec5780637ecebe001461031b57610156565b806306fdde0314610164578063095ea7b3146101e357806318160ddd1461022c57806323b872dd1461024657806330adf81f14610285575b60008061016161148d565b50505b61016c610594565b60405160208082528190810183818151815260200191508051906020019080838360005b838110156101a8578082015183820152602001610190565b50505050905090810190601f1680156101d55780820380516001836020036101000a031916815260200191505b509250505060405180910390f35b61021860048036036040811015610202576000806101ff61148d565b50505b506001600160a01b0381351690602001356105bd565b604051901515815260200160405180910390f35b61023461066c565b60405190815260200160405180910390f35b610218600480360360608110156102655760008061026261148d565b50505b506001600160a01b03813581169160208101359091169060400135610679565b6102346109a3565b6102956109c7565b60405160ff909116815260200160405180910390f35b6102346109cc565b61016c6109d6565b6102ea600480360360208110156102da576000806102d761148d565b50505b50356001600160a01b03166109f1565b005b6102346004803603602081101561030b5760008061030861148d565b50505b50356001600160a01b0316610ae0565b6102346004803603602081101561033a5760008061033761148d565b50505b50356001600160a01b0316610af8565b6102ea600480360361010081101561036a5760008061036761148d565b50505b506001600160a01b038135811691602081013590911690604081013590606081013590608081013515159060ff60a0820135169060c08101359060e00135610b10565b61016c610e96565b6102ea600480360360208110156103d4576000806103d161148d565b50505b50356001600160a01b0316610eb4565b6102ea600480360360408110156104035760008061040061148d565b50505b506001600160a01b038135169060200135610f5b565b610218600480360360408110156104385760008061043561148d565b50505b506001600160a01b038135169060200135611245565b6102ea6004803603604081101561046d5760008061046a61148d565b50505b506001600160a01b038135169060200135611261565b6102ea600480360360608110156104a25760008061049f61148d565b50505b506001600160a01b03813581169160208101359091169060400135611279565b610234600480360360208110156104e1576000806104de61148d565b50505b50356001600160a01b031661128a565b610234600480360360208110156105105760008061050d61148d565b50505b50356001600160a01b03166112a2565b6102346004803603604081101561053f5760008061053c61148d565b50505b506001600160a01b03813581169160200135166112ba565b6102186112e0565b6102ea6004803603604081101561057e5760008061057b61148d565b50505b506001600160a01b038135169060200135611399565b60405160408082019052600f81526e2aa9a2219029ba30b13632b1b7b4b760891b602082015281565b600081600360005a6105cd6114f8565b6001600160a01b03166001600160a01b031681526020019081526020016000206001600160a01b038516600090815260209190915260409020819061061061154d565b505050826001600160a01b03165a6106266114f8565b6001600160a01b03167f8c5be1e5ebec7d5bd14f71427d1e84f3dd0314c0f7b2291e5b200ac8c7c3b9258460405190815260200160405180910390a35060015b92915050565b600161067661159b565b81565b6001600160a01b03831660009081526002602052816040822061069a61159b565b10156106f05760405162461bcd60e51b81526020600482015260186024820152774461692f696e73756666696369656e742d62616c616e636560401b6044820152606401604051809103906106ed61148d565b50505b5a6106f96114f8565b6001600160a01b0316846001600160a01b03161415801561076757506001600160a01b03841660009081526003602052600019906040902060005a61073c6114f8565b6001600160a01b03166001600160a01b0316815260200190815260200160002061076461159b565b14155b156108ba576001600160a01b0384166000908152600360205282906040902060005a6107916114f8565b6001600160a01b03166001600160a01b031681526020019081526020016000206107b961159b565b10156108145760405162461bcd60e51b815260206004820152601a60248201527f4461692f696e73756666696369656e742d616c6c6f77616e636500000000000060448201526064016040518091039061081161148d565b50505b6001600160a01b03841660009081526003602052610869906040902060005a61083b6114f8565b6001600160a01b03166001600160a01b0316815260200190815260200160002061086361159b565b836113ac565b6001600160a01b038516600090815260036020526040902060005a61088c6114f8565b6001600160a01b03166001600160a01b0316815260200190815260200160002081906108b661154d565b5050505b6001600160a01b038416600090815260026020526108de906040902061086361159b565b6001600160a01b0385166000908152600260205260409020819061090061154d565b5050506001600160a01b0383166000908152600260205261092d906040902061092761159b565b836113ca565b6001600160a01b0384166000908152600260205260409020819061094f61154d565b505050826001600160a01b0316846001600160a01b03167fddf252ad1be2c89b69c2b068fc378daa952ba7f163c4a11628f55a4df523b3ef8460405190815260200160405180910390a35060019392505050565b7fea2aa0a1be11a07ed86d755c93467f4f82362b452371d1ba94d1715123511acb81565b601281565b600661067661159b565b6040516040808201905260018152603160f81b602082015281565b6000805a6109fd6114f8565b6001600160a01b03166001600160a01b03168152602001908152602001600020610a2561159b565b600114610a765760405162461bcd60e51b815260206004820152601260248201527111185a4bdb9bdd0b585d5d1a1bdc9a5e995960721b604482015260640160405180910390610a7361148d565b50505b6001600160a01b03811660009081526020819052600190604090208190610a9b61154d565b5050505961012081016040526020815260e0602082015260e0600060408301376024356004355a610aca6114f8565b6001600160e01b03196000351661012085a45050565b6002602052806000526040600020905061067661159b565b6004602052806000526040600020905061067661159b565b60006006610b1c61159b565b7fea2aa0a1be11a07ed86d755c93467f4f82362b452371d1ba94d1715123511acb8a8a8a8a8a60405160208101969096526001600160a01b03948516604080880191909152939094166060860152608085019190915260a084015290151560c083015260e090910190516020818303038152906040528051906020012060405161190160f01b6020820152602281019290925260428201526062016040516020818303038152906040528051906020012090506001600160a01b038916610c2a5760405162461bcd60e51b815260206004820152601560248201527404461692f696e76616c69642d616464726573732d3605c1b604482015260640160405180910390610c2761148d565b50505b60018185858560405160008152602001604052604051808581526020018460ff1660ff1681526020018381526020018281526020019450505050506020604051602081039080840390855a610c7d6115e7565b5050505050158015610c9c573d6000803e3d6000610c9961148d565b50505b505050602060405103516001600160a01b0316896001600160a01b031614610d085760405162461bcd60e51b815260206004820152601260248201527111185a4bda5b9d985b1a590b5c195c9b5a5d60721b604482015260640160405180910390610d0561148d565b50505b851580610d1d5750855a610d1a6116d2565b11155b610d6b5760405162461bcd60e51b815260206004820152601260248201527111185a4bdc195c9b5a5d0b595e1c1a5c995960721b604482015260640160405180910390610d6861148d565b50505b6001600160a01b0389166000908152600460205260409020600081610d8e61159b565b91600183019150610d9d61154d565b50508714610dee5760405162461bcd60e51b81526020600482015260116024820152704461692f696e76616c69642d6e6f6e636560781b604482015260640160405180910390610deb61148d565b50505b600085610dfc576000610e00565b6000195b6001600160a01b038b16600090815260036020529091508190604090206001600160a01b038b166000908152602091909152604090208190610e4061154d565b505050886001600160a01b03168a6001600160a01b03167f8c5be1e5ebec7d5bd14f71427d1e84f3dd0314c0f7b2291e5b200ac8c7c3b9258360405190815260200160405180910390a350505050505050505050565b6040516040808201905260048152635553444360e01b602082015281565b6000805a610ec06114f8565b6001600160a01b03166001600160a01b03168152602001908152602001600020610ee861159b565b600114610f395760405162461bcd60e51b815260206004820152601260248201527111185a4bdb9bdd0b585d5d1a1bdc9a5e995960721b604482015260640160405180910390610f3661148d565b50505b6001600160a01b03811660009081526020819052604081208190610a9b61154d565b6001600160a01b03821660009081526002602052819060409020610f7d61159b565b1015610fd35760405162461bcd60e51b81526020600482015260186024820152774461692f696e73756666696369656e742d62616c616e636560401b604482015260640160405180910390610fd061148d565b50505b5a610fdc6114f8565b6001600160a01b0316826001600160a01b03161415801561104a57506001600160a01b03821660009081526003602052600019906040902060005a61101f6114f8565b6001600160a01b03166001600160a01b0316815260200190815260200160002061104761159b565b14155b1561119d576001600160a01b0382166000908152600360205281906040902060005a6110746114f8565b6001600160a01b03166001600160a01b0316815260200190815260200160002061109c61159b565b10156110f75760405162461bcd60e51b815260206004820152601a60248201527f4461692f696e73756666696369656e742d616c6c6f77616e63650000000000006044820152606401604051809103906110f461148d565b50505b6001600160a01b0382166000908152600360205261114c906040902060005a61111e6114f8565b6001600160a01b03166001600160a01b0316815260200190815260200160002061114661159b565b826113ac565b6001600160a01b038316600090815260036020526040902060005a61116f6114f8565b6001600160a01b03166001600160a01b03168152602001908152602001600020819061119961154d565b5050505b6001600160a01b038216600090815260026020526111c1906040902061114661159b565b6001600160a01b038316600090815260026020526040902081906111e361154d565b5050506111f3600161114661159b565b8060016111fe61154d565b5060009150506001600160a01b0383167fddf252ad1be2c89b69c2b068fc378daa952ba7f163c4a11628f55a4df523b3ef8360405190815260200160405180910390a35050565b600061125a5a6112536114f8565b8484610679565b9392505050565b6112745a61126d6114f8565b8383610679565b505050565b611284838383610679565b50505050565b6005602052806000526040600020905061067661159b565b6000602052806000526040600020905061067661159b565b60036020528160005260406000206020528060005260406000209150610676905061159b565b6000600560005a6112ef6114f8565b6001600160a01b03166001600160a01b0316815260200190815260200160002061131761159b565b62015180015a6113256116d2565b101561133357506000611396565b61134e5a61133f6114f8565b68056bc75e2d631000006113e0565b5a6113576116d2565b600560005a6113646114f8565b6001600160a01b03166001600160a01b03168152602001908152602001600020819061138e61154d565b505050600190505b90565b611274825a6113a66114f8565b83610679565b80820382811115610666576000806113c261148d565b505092915050565b80820182811015610666576000806113c261148d565b6001600160a01b0382166000908152600260205261140a906040902061140461159b565b826113ca565b6001600160a01b0383166000908152600260205260409020819061142c61154d565b50505061143c600161140461159b565b80600161144761154d565b5050506001600160a01b03821660007fddf252ad1be2c89b69c2b068fc378daa952ba7f163c4a11628f55a4df523b3ef8360405190815260200160405180910390a35050565b632a2a7adb598160e01b8152600481016020815285602082015260005b868110156114c55780860151828201604001526020016114aa565b506020828760640184336000905af158601d01573d60011458600c01573d6000803e3d621234565260ea61109c52505050565b6373509064598160e01b8152602081600483336000905af158601d01573d60011458600c01573d6000803e3d621234565260ea61109c528051935060005b604081101561127457600082820152602001611536565b6322bd64c0598160e01b8152836004820152846024820152600081604483336000905af158601d01573d60011458600c01573d6000803e3d621234565260ea61109c52600081526020611536565b6303daa959598160e01b8152836004820152602081602483336000905af158601d01573d60011458600c01573d6000803e3d621234565260ea61109c5280516000825293506020611536565b638540661f598160e01b8152611618565b8080831115610666575090919050565b8080831015610666575090919050565b836004820152846024820152606060448201528660648201526084810160005b88811015611650578088015182820152602001611638565b506060828960a40184336000905af158601d01573d60011458600c01573d6000803e3d621234565260ea61109c52815160408301513d6000853e8b8b82606087013350600060045af150596116a58d3d611608565b8c016116b181876115f8565b5b828110156116c657600081526020016116b2565b50929c50505050505050565b63bdbf8c36598160e01b8152602081600483336000905af158601d01573d60011458600c01573d6000803e3d621234565260ea61109c528051600082529350602061153656",
  "linkReferences": {},
  "deployedLinkReferences": {}
}