{
  "_format": "hh-sol-artifact-1",
  "contractName": "DaiWithFaucet",
  "sourceName": "contracts/peripheral_contracts/DaiWithFaucet.sol",
  "abi": [
    {
      "inputs": [
        {
          "internalType": "uint256",
          "name": "chainId_",
          "type": "uint256"
        }
      ],
      "payable": false,
      "stateMutability": "nonpayable",
      "type": "constructor"
    },
    {
      "anonymous": false,
      "inputs": [
        {
          "indexed": true,
          "internalType": "address",
          "name": "src",
          "type": "address"
        },
        {
          "indexed": true,
          "internalType": "address",
          "name": "guy",
          "type": "address"
        },
        {
          "indexed": false,
          "internalType": "uint256",
          "name": "wad",
          "type": "uint256"
        }
      ],
      "name": "Approval",
      "type": "event"
    },
    {
      "anonymous": true,
      "inputs": [
        {
          "indexed": true,
          "internalType": "bytes4",
          "name": "sig",
          "type": "bytes4"
        },
        {
          "indexed": true,
          "internalType": "address",
          "name": "usr",
          "type": "address"
        },
        {
          "indexed": true,
          "internalType": "bytes32",
          "name": "arg1",
          "type": "bytes32"
        },
        {
          "indexed": true,
          "internalType": "bytes32",
          "name": "arg2",
          "type": "bytes32"
        },
        {
          "indexed": false,
          "internalType": "bytes",
          "name": "data",
          "type": "bytes"
        }
      ],
      "name": "LogNote",
      "type": "event"
    },
    {
      "anonymous": false,
      "inputs": [
        {
          "indexed": true,
          "internalType": "address",
          "name": "src",
          "type": "address"
        },
        {
          "indexed": true,
          "internalType": "address",
          "name": "dst",
          "type": "address"
        },
        {
          "indexed": false,
          "internalType": "uint256",
          "name": "wad",
          "type": "uint256"
        }
      ],
      "name": "Transfer",
      "type": "event"
    },
    {
      "constant": true,
      "inputs": [],
      "name": "DOMAIN_SEPARATOR",
      "outputs": [
        {
          "internalType": "bytes32",
          "name": "",
          "type": "bytes32"
        }
      ],
      "payable": false,
      "stateMutability": "view",
      "type": "function"
    },
    {
      "constant": true,
      "inputs": [],
      "name": "PERMIT_TYPEHASH",
      "outputs": [
        {
          "internalType": "bytes32",
          "name": "",
          "type": "bytes32"
        }
      ],
      "payable": false,
      "stateMutability": "view",
      "type": "function"
    },
    {
      "constant": true,
      "inputs": [
        {
          "internalType": "address",
          "name": "",
          "type": "address"
        },
        {
          "internalType": "address",
          "name": "",
          "type": "address"
        }
      ],
      "name": "allowance",
      "outputs": [
        {
          "internalType": "uint256",
          "name": "",
          "type": "uint256"
        }
      ],
      "payable": false,
      "stateMutability": "view",
      "type": "function"
    },
    {
      "constant": false,
      "inputs": [
        {
          "internalType": "address",
          "name": "usr",
          "type": "address"
        },
        {
          "internalType": "uint256",
          "name": "wad",
          "type": "uint256"
        }
      ],
      "name": "approve",
      "outputs": [
        {
          "internalType": "bool",
          "name": "",
          "type": "bool"
        }
      ],
      "payable": false,
      "stateMutability": "nonpayable",
      "type": "function"
    },
    {
      "constant": true,
      "inputs": [
        {
          "internalType": "address",
          "name": "",
          "type": "address"
        }
      ],
      "name": "balanceOf",
      "outputs": [
        {
          "internalType": "uint256",
          "name": "",
          "type": "uint256"
        }
      ],
      "payable": false,
      "stateMutability": "view",
      "type": "function"
    },
    {
      "constant": false,
      "inputs": [
        {
          "internalType": "address",
          "name": "usr",
          "type": "address"
        },
        {
          "internalType": "uint256",
          "name": "wad",
          "type": "uint256"
        }
      ],
      "name": "burn",
      "outputs": [],
      "payable": false,
      "stateMutability": "nonpayable",
      "type": "function"
    },
    {
      "constant": true,
      "inputs": [],
      "name": "decimals",
      "outputs": [
        {
          "internalType": "uint8",
          "name": "",
          "type": "uint8"
        }
      ],
      "payable": false,
      "stateMutability": "view",
      "type": "function"
    },
    {
      "constant": false,
      "inputs": [
        {
          "internalType": "address",
          "name": "guy",
          "type": "address"
        }
      ],
      "name": "deny",
      "outputs": [],
      "payable": false,
      "stateMutability": "nonpayable",
      "type": "function"
    },
    {
      "constant": false,
      "inputs": [],
      "name": "faucet",
      "outputs": [
        {
          "internalType": "bool",
          "name": "",
          "type": "bool"
        }
      ],
      "payable": false,
      "stateMutability": "nonpayable",
      "type": "function"
    },
    {
      "constant": true,
      "inputs": [
        {
          "internalType": "address",
          "name": "",
          "type": "address"
        }
      ],
      "name": "faucetCheck",
      "outputs": [
        {
          "internalType": "uint256",
          "name": "",
          "type": "uint256"
        }
      ],
      "payable": false,
      "stateMutability": "view",
      "type": "function"
    },
    {
      "constant": false,
      "inputs": [
        {
          "internalType": "address",
          "name": "src",
          "type": "address"
        },
        {
          "internalType": "address",
          "name": "dst",
          "type": "address"
        },
        {
          "internalType": "uint256",
          "name": "wad",
          "type": "uint256"
        }
      ],
      "name": "move",
      "outputs": [],
      "payable": false,
      "stateMutability": "nonpayable",
      "type": "function"
    },
    {
      "constant": true,
      "inputs": [],
      "name": "name",
      "outputs": [
        {
          "internalType": "string",
          "name": "",
          "type": "string"
        }
      ],
      "payable": false,
      "stateMutability": "view",
      "type": "function"
    },
    {
      "constant": true,
      "inputs": [
        {
          "internalType": "address",
          "name": "",
          "type": "address"
        }
      ],
      "name": "nonces",
      "outputs": [
        {
          "internalType": "uint256",
          "name": "",
          "type": "uint256"
        }
      ],
      "payable": false,
      "stateMutability": "view",
      "type": "function"
    },
    {
      "constant": false,
      "inputs": [
        {
          "internalType": "address",
          "name": "holder",
          "type": "address"
        },
        {
          "internalType": "address",
          "name": "spender",
          "type": "address"
        },
        {
          "internalType": "uint256",
          "name": "nonce",
          "type": "uint256"
        },
        {
          "internalType": "uint256",
          "name": "expiry",
          "type": "uint256"
        },
        {
          "internalType": "bool",
          "name": "allowed",
          "type": "bool"
        },
        {
          "internalType": "uint8",
          "name": "v",
          "type": "uint8"
        },
        {
          "internalType": "bytes32",
          "name": "r",
          "type": "bytes32"
        },
        {
          "internalType": "bytes32",
          "name": "s",
          "type": "bytes32"
        }
      ],
      "name": "permit",
      "outputs": [],
      "payable": false,
      "stateMutability": "nonpayable",
      "type": "function"
    },
    {
      "constant": false,
      "inputs": [
        {
          "internalType": "address",
          "name": "usr",
          "type": "address"
        },
        {
          "internalType": "uint256",
          "name": "wad",
          "type": "uint256"
        }
      ],
      "name": "pull",
      "outputs": [],
      "payable": false,
      "stateMutability": "nonpayable",
      "type": "function"
    },
    {
      "constant": false,
      "inputs": [
        {
          "internalType": "address",
          "name": "usr",
          "type": "address"
        },
        {
          "internalType": "uint256",
          "name": "wad",
          "type": "uint256"
        }
      ],
      "name": "push",
      "outputs": [],
      "payable": false,
      "stateMutability": "nonpayable",
      "type": "function"
    },
    {
      "constant": false,
      "inputs": [
        {
          "internalType": "address",
          "name": "guy",
          "type": "address"
        }
      ],
      "name": "rely",
      "outputs": [],
      "payable": false,
      "stateMutability": "nonpayable",
      "type": "function"
    },
    {
      "constant": true,
      "inputs": [],
      "name": "symbol",
      "outputs": [
        {
          "internalType": "string",
          "name": "",
          "type": "string"
        }
      ],
      "payable": false,
      "stateMutability": "view",
      "type": "function"
    },
    {
      "constant": true,
      "inputs": [],
      "name": "totalSupply",
      "outputs": [
        {
          "internalType": "uint256",
          "name": "",
          "type": "uint256"
        }
      ],
      "payable": false,
      "stateMutability": "view",
      "type": "function"
    },
    {
      "constant": false,
      "inputs": [
        {
          "internalType": "address",
          "name": "dst",
          "type": "address"
        },
        {
          "internalType": "uint256",
          "name": "wad",
          "type": "uint256"
        }
      ],
      "name": "transfer",
      "outputs": [
        {
          "internalType": "bool",
          "name": "",
          "type": "bool"
        }
      ],
      "payable": false,
      "stateMutability": "nonpayable",
      "type": "function"
    },
    {
      "constant": false,
      "inputs": [
        {
          "internalType": "address",
          "name": "src",
          "type": "address"
        },
        {
          "internalType": "address",
          "name": "dst",
          "type": "address"
        },
        {
          "internalType": "uint256",
          "name": "wad",
          "type": "uint256"
        }
      ],
      "name": "transferFrom",
      "outputs": [
        {
          "internalType": "bool",
          "name": "",
          "type": "bool"
        }
      ],
      "payable": false,
      "stateMutability": "nonpayable",
      "type": "function"
    },
    {
      "constant": true,
      "inputs": [],
      "name": "version",
      "outputs": [
        {
          "internalType": "string",
          "name": "",
          "type": "string"
        }
      ],
      "payable": false,
      "stateMutability": "view",
      "type": "function"
    },
    {
      "constant": true,
      "inputs": [
        {
          "internalType": "address",
          "name": "",
          "type": "address"
        }
      ],
      "name": "wards",
      "outputs": [
        {
          "internalType": "uint256",
          "name": "",
          "type": "uint256"
        }
      ],
      "payable": false,
      "stateMutability": "view",
      "type": "function"
    }
  ],
  "bytecode": "0x60806040523480156200001c5760008062000019620001b9565b50505b50604051620019f8380380620019f8833981810160405260208110156200004d576000806200004a620001b9565b50505b81019080805192506001915060009050805a6200006962000226565b6001600160a01b03166001600160a01b0316815260200190815260200160002081906200009562000282565b505050604051806052620019a682396052019050604051809103902060405160408082019052600f81526e2aa9a2219029ba30b13632b1b7b4b760891b6020820152805190602001206040516040808201905260018152603160f81b602082015280519060200120835a63996d79a5598160e01b8152602081600483336000905af158600e01573d6000803e3d6000fd5b3d6001141558600a015760016000f35b8051925060005b604081101562000156576000828201526020016200013d565b5050506040516020810195909552604080860194909452606085019290925260808401526001600160a01b031660a083015260c0909101905160208183030381529060405280519060200120806006620001af62000282565b50505050620002d1565b632a2a7adb598160e01b8152600481016020815285602082015260005b86811015620001f3578086015182820160400152602001620001d6565b506020828760640184336000905af158600e01573d6000803e3d6000fd5b3d6001141558600a015760016000f35b505050565b6373509064598160e01b8152602081600483336000905af158600e01573d6000803e3d6000fd5b3d6001141558600a015760016000f35b8051935060005b60408110156200027d5760008282015260200162000264565b505050565b6322bd64c0598160e01b8152836004820152846024820152600081604483336000905af158600e01573d6000803e3d6000fd5b3d6001141558600a015760016000f35b60008152602062000264565b6116c580620002e16000396000f3fe6080604052348015610019576000806100166113d9565b50505b50600436106101265760003560e01c806306fdde0314610134578063095ea7b3146101b357806318160ddd146101fc57806323b872dd1461021657806330adf81f14610255578063313ce5671461025d5780633644e5151461027b57806354fd4d501461028357806365fae35e1461028b57806370a08231146102bc5780637ecebe00146102eb5780638fcbaf0c1461031a57806395d89b411461037d5780639c52a7f1146103855780639dc29fac146103b4578063a9059cbb146103e9578063b753a98c1461041e578063bb35783b14610453578063bd5c2b2514610492578063bf353dbb146104c1578063dd62ed3e146104f0578063de5f72fd14610527578063f2d5d56b1461052f575b6000806101316113d9565b50505b61013c610564565b60405160208082528190810183818151815260200191508051906020019080838360005b83811015610178578082015183820152602001610160565b50505050905090810190601f1680156101a55780820380516001836020036101000a031916815260200191505b509250505060405180910390f35b6101e8600480360360408110156101d2576000806101cf6113d9565b50505b506001600160a01b03813516906020013561058d565b604051901515815260200160405180910390f35b61020461062a565b60405190815260200160405180910390f35b6101e860048036036060811015610235576000806102326113d9565b50505b506001600160a01b03813581169160208101359091169060400135610637565b61020461094c565b61026561095e565b60405160ff909116815260200160405180910390f35b610204610963565b61013c61096d565b6102ba600480360360208110156102aa576000806102a76113d9565b50505b50356001600160a01b0316610988565b005b610204600480360360208110156102db576000806102d86113d9565b50505b50356001600160a01b0316610a77565b6102046004803603602081101561030a576000806103076113d9565b50505b50356001600160a01b0316610a8f565b6102ba600480360361010081101561033a576000806103376113d9565b50505b506001600160a01b038135811691602081013590911690604081013590606081013590608081013515159060ff60a0820135169060c08101359060e00135610aa7565b61013c610e09565b6102ba600480360360208110156103a4576000806103a16113d9565b50505b50356001600160a01b0316610e27565b6102ba600480360360408110156103d3576000806103d06113d9565b50505b506001600160a01b038135169060200135610ece565b6101e860048036036040811015610408576000806104056113d9565b50505b506001600160a01b0381351690602001356111a3565b6102ba6004803603604081101561043d5760008061043a6113d9565b50505b506001600160a01b0381351690602001356111bf565b6102ba600480360360608110156104725760008061046f6113d9565b50505b506001600160a01b038135811691602081013590911690604001356111d7565b610204600480360360208110156104b1576000806104ae6113d9565b50505b50356001600160a01b03166111e8565b610204600480360360208110156104e0576000806104dd6113d9565b50505b50356001600160a01b0316611200565b6102046004803603604081101561050f5760008061050c6113d9565b50505b506001600160a01b0381358116916020013516611218565b6101e861123e565b6102ba6004803603604081101561054e5760008061054b6113d9565b50505b506001600160a01b0381351690602001356112f7565b60405160408082019052600f81526e2aa9a2219029ba30b13632b1b7b4b760891b602082015281565b600081600360005a61059d611444565b6001600160a01b03166001600160a01b031681526020019081526020016000206001600160a01b03851660009081526020919091526040902081906105e0611499565b505050826001600160a01b03165a6105f6611444565b6001600160a01b03166000805160206116a58339815191528460405190815260200160405180910390a35060015b92915050565b60016106346114e7565b81565b6001600160a01b0383166000908152600260205281604082206106586114e7565b10156106ae5760405162461bcd60e51b81526020600482015260186024820152774461692f696e73756666696369656e742d62616c616e636560401b6044820152606401604051809103906106ab6113d9565b50505b5a6106b7611444565b6001600160a01b0316846001600160a01b03161415801561072557506001600160a01b03841660009081526003602052600019906040902060005a6106fa611444565b6001600160a01b03166001600160a01b031681526020019081526020016000206107226114e7565b14155b15610875576001600160a01b0384166000908152600360205282906040902060005a61074f611444565b6001600160a01b03166001600160a01b031681526020019081526020016000206107776114e7565b10156107cf5760405162461bcd60e51b815260206004820152601a6024820152794461692f696e73756666696369656e742d616c6c6f77616e636560301b6044820152606401604051809103906107cc6113d9565b50505b6001600160a01b03841660009081526003602052610824906040902060005a6107f6611444565b6001600160a01b03166001600160a01b0316815260200190815260200160002061081e6114e7565b8361130a565b6001600160a01b038516600090815260036020526040902060005a610847611444565b6001600160a01b03166001600160a01b031681526020019081526020016000208190610871611499565b5050505b6001600160a01b03841660009081526002602052610899906040902061081e6114e7565b6001600160a01b038516600090815260026020526040902081906108bb611499565b5050506001600160a01b038316600090815260026020526108e890604090206108e26114e7565b83611328565b6001600160a01b0384166000908152600260205260409020819061090a611499565b505050826001600160a01b0316846001600160a01b03166000805160206116858339815191528460405190815260200160405180910390a35060019392505050565b60008051602061166583398151915281565b601281565b60066106346114e7565b6040516040808201905260018152603160f81b602082015281565b6000805a610994611444565b6001600160a01b03166001600160a01b031681526020019081526020016000206109bc6114e7565b600114610a0d5760405162461bcd60e51b815260206004820152601260248201527111185a4bdb9bdd0b585d5d1a1bdc9a5e995960721b604482015260640160405180910390610a0a6113d9565b50505b6001600160a01b03811660009081526020819052600190604090208190610a32611499565b5050505961012081016040526020815260e0602082015260e0600060408301376024356004355a610a61611444565b6001600160e01b03196000351661012085a45050565b600260205280600052604060002090506106346114e7565b600460205280600052604060002090506106346114e7565b60006006610ab36114e7565b6000805160206116658339815191528a8a8a8a8a60405160208101969096526001600160a01b03948516604080880191909152939094166060860152608085019190915260a084015290151560c083015260e090910190516020818303038152906040528051906020012060405161190160f01b6020820152602281019290925260428201526062016040516020818303038152906040528051906020012090506001600160a01b038916610baf5760405162461bcd60e51b815260206004820152601560248201527404461692f696e76616c69642d616464726573732d3605c1b604482015260640160405180910390610bac6113d9565b50505b60018185858560405160008152602001604052604051808581526020018460ff1660ff1681526020018381526020018281526020019450505050506020604051602081039080840390855a610c02611533565b5050505050158015610c21573d6000803e3d6000610c1e6113d9565b50505b505050602060405103516001600160a01b0316896001600160a01b031614610c8d5760405162461bcd60e51b815260206004820152601260248201527111185a4bda5b9d985b1a590b5c195c9b5a5d60721b604482015260640160405180910390610c8a6113d9565b50505b851580610ca25750855a610c9f61161e565b11155b610cf05760405162461bcd60e51b815260206004820152601260248201527111185a4bdc195c9b5a5d0b595e1c1a5c995960721b604482015260640160405180910390610ced6113d9565b50505b6001600160a01b0389166000908152600460205260409020600081610d136114e7565b91600183019150610d22611499565b50508714610d735760405162461bcd60e51b81526020600482015260116024820152704461692f696e76616c69642d6e6f6e636560781b604482015260640160405180910390610d706113d9565b50505b600085610d81576000610d85565b6000195b6001600160a01b038b16600090815260036020529091508190604090206001600160a01b038b166000908152602091909152604090208190610dc5611499565b505050886001600160a01b03168a6001600160a01b03166000805160206116a58339815191528360405190815260200160405180910390a350505050505050505050565b6040516040808201905260048152635553444360e01b602082015281565b6000805a610e33611444565b6001600160a01b03166001600160a01b03168152602001908152602001600020610e5b6114e7565b600114610eac5760405162461bcd60e51b815260206004820152601260248201527111185a4bdb9bdd0b585d5d1a1bdc9a5e995960721b604482015260640160405180910390610ea96113d9565b50505b6001600160a01b03811660009081526020819052604081208190610a32611499565b6001600160a01b03821660009081526002602052819060409020610ef06114e7565b1015610f465760405162461bcd60e51b81526020600482015260186024820152774461692f696e73756666696369656e742d62616c616e636560401b604482015260640160405180910390610f436113d9565b50505b5a610f4f611444565b6001600160a01b0316826001600160a01b031614158015610fbd57506001600160a01b03821660009081526003602052600019906040902060005a610f92611444565b6001600160a01b03166001600160a01b03168152602001908152602001600020610fba6114e7565b14155b1561110d576001600160a01b0382166000908152600360205281906040902060005a610fe7611444565b6001600160a01b03166001600160a01b0316815260200190815260200160002061100f6114e7565b10156110675760405162461bcd60e51b815260206004820152601a6024820152794461692f696e73756666696369656e742d616c6c6f77616e636560301b6044820152606401604051809103906110646113d9565b50505b6001600160a01b038216600090815260036020526110bc906040902060005a61108e611444565b6001600160a01b03166001600160a01b031681526020019081526020016000206110b66114e7565b8261130a565b6001600160a01b038316600090815260036020526040902060005a6110df611444565b6001600160a01b03166001600160a01b031681526020019081526020016000208190611109611499565b5050505b6001600160a01b0382166000908152600260205261113190604090206110b66114e7565b6001600160a01b03831660009081526002602052604090208190611153611499565b50505061116360016110b66114e7565b80600161116e611499565b5060009150506001600160a01b0383166000805160206116858339815191528360405190815260200160405180910390a35050565b60006111b85a6111b1611444565b8484610637565b9392505050565b6111d25a6111cb611444565b8383610637565b505050565b6111e2838383610637565b50505050565b600560205280600052604060002090506106346114e7565b600060205280600052604060002090506106346114e7565b6003602052816000526040600020602052806000526040600020915061063490506114e7565b6000600560005a61124d611444565b6001600160a01b03166001600160a01b031681526020019081526020016000206112756114e7565b62015180015a61128361161e565b1015611291575060006112f4565b6112ac5a61129d611444565b68056bc75e2d6310000061133e565b5a6112b561161e565b600560005a6112c2611444565b6001600160a01b03166001600160a01b0316815260200190815260200160002081906112ec611499565b505050600190505b90565b6111d2825a611304611444565b83610637565b80820382811115610624576000806113206113d9565b505092915050565b80820182811015610624576000806113206113d9565b6001600160a01b0382166000908152600260205261136890604090206113626114e7565b82611328565b6001600160a01b0383166000908152600260205260409020819061138a611499565b50505061139a60016113626114e7565b8060016113a5611499565b5050506001600160a01b03821660006000805160206116858339815191528360405190815260200160405180910390a35050565b632a2a7adb598160e01b8152600481016020815285602082015260005b868110156114115780860151828201604001526020016113f6565b506020828760640184336000905af158600e01573d6000803e3d6000fd5b3d6001141558600a015760016000f35b505050565b6373509064598160e01b8152602081600483336000905af158600e01573d6000803e3d6000fd5b3d6001141558600a015760016000f35b8051935060005b60408110156111d257600082820152602001611482565b6322bd64c0598160e01b8152836004820152846024820152600081604483336000905af158600e01573d6000803e3d6000fd5b3d6001141558600a015760016000f35b600081526020611482565b6303daa959598160e01b8152836004820152602081602483336000905af158600e01573d6000803e3d6000fd5b3d6001141558600a015760016000f35b80516000825293506020611482565b638540661f598160e01b8152611564565b8080831115610624575090919050565b8080831015610624575090919050565b836004820152846024820152606060448201528660648201526084810160005b8881101561159c578088015182820152602001611584565b506060828960a40184336000905af158600e01573d6000803e3d6000fd5b3d6001141558600a015760016000f35b815160408301513d6000853e8b8b82606087013350600060045af150596115f18d3d611554565b8c016115fd8187611544565b5b8281101561161257600081526020016115fe565b50929c50505050505050565b63bdbf8c36598160e01b8152602081600483336000905af158600e01573d6000803e3d6000fd5b3d6001141558600a015760016000f35b8051600082529350602061148256feea2aa0a1be11a07ed86d755c93467f4f82362b452371d1ba94d1715123511acbddf252ad1be2c89b69c2b068fc378daa952ba7f163c4a11628f55a4df523b3ef8c5be1e5ebec7d5bd14f71427d1e84f3dd0314c0f7b2291e5b200ac8c7c3b925454950373132446f6d61696e28737472696e67206e616d652c737472696e672076657273696f6e2c75696e7432353620636861696e49642c6164647265737320766572696679696e67436f6e747261637429",
  "deployedBytecode": "0x6080604052348015610019576000806100166113d9565b50505b50600436106101265760003560e01c806306fdde0314610134578063095ea7b3146101b357806318160ddd146101fc57806323b872dd1461021657806330adf81f14610255578063313ce5671461025d5780633644e5151461027b57806354fd4d501461028357806365fae35e1461028b57806370a08231146102bc5780637ecebe00146102eb5780638fcbaf0c1461031a57806395d89b411461037d5780639c52a7f1146103855780639dc29fac146103b4578063a9059cbb146103e9578063b753a98c1461041e578063bb35783b14610453578063bd5c2b2514610492578063bf353dbb146104c1578063dd62ed3e146104f0578063de5f72fd14610527578063f2d5d56b1461052f575b6000806101316113d9565b50505b61013c610564565b60405160208082528190810183818151815260200191508051906020019080838360005b83811015610178578082015183820152602001610160565b50505050905090810190601f1680156101a55780820380516001836020036101000a031916815260200191505b509250505060405180910390f35b6101e8600480360360408110156101d2576000806101cf6113d9565b50505b506001600160a01b03813516906020013561058d565b604051901515815260200160405180910390f35b61020461062a565b60405190815260200160405180910390f35b6101e860048036036060811015610235576000806102326113d9565b50505b506001600160a01b03813581169160208101359091169060400135610637565b61020461094c565b61026561095e565b60405160ff909116815260200160405180910390f35b610204610963565b61013c61096d565b6102ba600480360360208110156102aa576000806102a76113d9565b50505b50356001600160a01b0316610988565b005b610204600480360360208110156102db576000806102d86113d9565b50505b50356001600160a01b0316610a77565b6102046004803603602081101561030a576000806103076113d9565b50505b50356001600160a01b0316610a8f565b6102ba600480360361010081101561033a576000806103376113d9565b50505b506001600160a01b038135811691602081013590911690604081013590606081013590608081013515159060ff60a0820135169060c08101359060e00135610aa7565b61013c610e09565b6102ba600480360360208110156103a4576000806103a16113d9565b50505b50356001600160a01b0316610e27565b6102ba600480360360408110156103d3576000806103d06113d9565b50505b506001600160a01b038135169060200135610ece565b6101e860048036036040811015610408576000806104056113d9565b50505b506001600160a01b0381351690602001356111a3565b6102ba6004803603604081101561043d5760008061043a6113d9565b50505b506001600160a01b0381351690602001356111bf565b6102ba600480360360608110156104725760008061046f6113d9565b50505b506001600160a01b038135811691602081013590911690604001356111d7565b610204600480360360208110156104b1576000806104ae6113d9565b50505b50356001600160a01b03166111e8565b610204600480360360208110156104e0576000806104dd6113d9565b50505b50356001600160a01b0316611200565b6102046004803603604081101561050f5760008061050c6113d9565b50505b506001600160a01b0381358116916020013516611218565b6101e861123e565b6102ba6004803603604081101561054e5760008061054b6113d9565b50505b506001600160a01b0381351690602001356112f7565b60405160408082019052600f81526e2aa9a2219029ba30b13632b1b7b4b760891b602082015281565b600081600360005a61059d611444565b6001600160a01b03166001600160a01b031681526020019081526020016000206001600160a01b03851660009081526020919091526040902081906105e0611499565b505050826001600160a01b03165a6105f6611444565b6001600160a01b03166000805160206116a58339815191528460405190815260200160405180910390a35060015b92915050565b60016106346114e7565b81565b6001600160a01b0383166000908152600260205281604082206106586114e7565b10156106ae5760405162461bcd60e51b81526020600482015260186024820152774461692f696e73756666696369656e742d62616c616e636560401b6044820152606401604051809103906106ab6113d9565b50505b5a6106b7611444565b6001600160a01b0316846001600160a01b03161415801561072557506001600160a01b03841660009081526003602052600019906040902060005a6106fa611444565b6001600160a01b03166001600160a01b031681526020019081526020016000206107226114e7565b14155b15610875576001600160a01b0384166000908152600360205282906040902060005a61074f611444565b6001600160a01b03166001600160a01b031681526020019081526020016000206107776114e7565b10156107cf5760405162461bcd60e51b815260206004820152601a6024820152794461692f696e73756666696369656e742d616c6c6f77616e636560301b6044820152606401604051809103906107cc6113d9565b50505b6001600160a01b03841660009081526003602052610824906040902060005a6107f6611444565b6001600160a01b03166001600160a01b0316815260200190815260200160002061081e6114e7565b8361130a565b6001600160a01b038516600090815260036020526040902060005a610847611444565b6001600160a01b03166001600160a01b031681526020019081526020016000208190610871611499565b5050505b6001600160a01b03841660009081526002602052610899906040902061081e6114e7565b6001600160a01b038516600090815260026020526040902081906108bb611499565b5050506001600160a01b038316600090815260026020526108e890604090206108e26114e7565b83611328565b6001600160a01b0384166000908152600260205260409020819061090a611499565b505050826001600160a01b0316846001600160a01b03166000805160206116858339815191528460405190815260200160405180910390a35060019392505050565b60008051602061166583398151915281565b601281565b60066106346114e7565b6040516040808201905260018152603160f81b602082015281565b6000805a610994611444565b6001600160a01b03166001600160a01b031681526020019081526020016000206109bc6114e7565b600114610a0d5760405162461bcd60e51b815260206004820152601260248201527111185a4bdb9bdd0b585d5d1a1bdc9a5e995960721b604482015260640160405180910390610a0a6113d9565b50505b6001600160a01b03811660009081526020819052600190604090208190610a32611499565b5050505961012081016040526020815260e0602082015260e0600060408301376024356004355a610a61611444565b6001600160e01b03196000351661012085a45050565b600260205280600052604060002090506106346114e7565b600460205280600052604060002090506106346114e7565b60006006610ab36114e7565b6000805160206116658339815191528a8a8a8a8a60405160208101969096526001600160a01b03948516604080880191909152939094166060860152608085019190915260a084015290151560c083015260e090910190516020818303038152906040528051906020012060405161190160f01b6020820152602281019290925260428201526062016040516020818303038152906040528051906020012090506001600160a01b038916610baf5760405162461bcd60e51b815260206004820152601560248201527404461692f696e76616c69642d616464726573732d3605c1b604482015260640160405180910390610bac6113d9565b50505b60018185858560405160008152602001604052604051808581526020018460ff1660ff1681526020018381526020018281526020019450505050506020604051602081039080840390855a610c02611533565b5050505050158015610c21573d6000803e3d6000610c1e6113d9565b50505b505050602060405103516001600160a01b0316896001600160a01b031614610c8d5760405162461bcd60e51b815260206004820152601260248201527111185a4bda5b9d985b1a590b5c195c9b5a5d60721b604482015260640160405180910390610c8a6113d9565b50505b851580610ca25750855a610c9f61161e565b11155b610cf05760405162461bcd60e51b815260206004820152601260248201527111185a4bdc195c9b5a5d0b595e1c1a5c995960721b604482015260640160405180910390610ced6113d9565b50505b6001600160a01b0389166000908152600460205260409020600081610d136114e7565b91600183019150610d22611499565b50508714610d735760405162461bcd60e51b81526020600482015260116024820152704461692f696e76616c69642d6e6f6e636560781b604482015260640160405180910390610d706113d9565b50505b600085610d81576000610d85565b6000195b6001600160a01b038b16600090815260036020529091508190604090206001600160a01b038b166000908152602091909152604090208190610dc5611499565b505050886001600160a01b03168a6001600160a01b03166000805160206116a58339815191528360405190815260200160405180910390a350505050505050505050565b6040516040808201905260048152635553444360e01b602082015281565b6000805a610e33611444565b6001600160a01b03166001600160a01b03168152602001908152602001600020610e5b6114e7565b600114610eac5760405162461bcd60e51b815260206004820152601260248201527111185a4bdb9bdd0b585d5d1a1bdc9a5e995960721b604482015260640160405180910390610ea96113d9565b50505b6001600160a01b03811660009081526020819052604081208190610a32611499565b6001600160a01b03821660009081526002602052819060409020610ef06114e7565b1015610f465760405162461bcd60e51b81526020600482015260186024820152774461692f696e73756666696369656e742d62616c616e636560401b604482015260640160405180910390610f436113d9565b50505b5a610f4f611444565b6001600160a01b0316826001600160a01b031614158015610fbd57506001600160a01b03821660009081526003602052600019906040902060005a610f92611444565b6001600160a01b03166001600160a01b03168152602001908152602001600020610fba6114e7565b14155b1561110d576001600160a01b0382166000908152600360205281906040902060005a610fe7611444565b6001600160a01b03166001600160a01b0316815260200190815260200160002061100f6114e7565b10156110675760405162461bcd60e51b815260206004820152601a6024820152794461692f696e73756666696369656e742d616c6c6f77616e636560301b6044820152606401604051809103906110646113d9565b50505b6001600160a01b038216600090815260036020526110bc906040902060005a61108e611444565b6001600160a01b03166001600160a01b031681526020019081526020016000206110b66114e7565b8261130a565b6001600160a01b038316600090815260036020526040902060005a6110df611444565b6001600160a01b03166001600160a01b031681526020019081526020016000208190611109611499565b5050505b6001600160a01b0382166000908152600260205261113190604090206110b66114e7565b6001600160a01b03831660009081526002602052604090208190611153611499565b50505061116360016110b66114e7565b80600161116e611499565b5060009150506001600160a01b0383166000805160206116858339815191528360405190815260200160405180910390a35050565b60006111b85a6111b1611444565b8484610637565b9392505050565b6111d25a6111cb611444565b8383610637565b505050565b6111e2838383610637565b50505050565b600560205280600052604060002090506106346114e7565b600060205280600052604060002090506106346114e7565b6003602052816000526040600020602052806000526040600020915061063490506114e7565b6000600560005a61124d611444565b6001600160a01b03166001600160a01b031681526020019081526020016000206112756114e7565b62015180015a61128361161e565b1015611291575060006112f4565b6112ac5a61129d611444565b68056bc75e2d6310000061133e565b5a6112b561161e565b600560005a6112c2611444565b6001600160a01b03166001600160a01b0316815260200190815260200160002081906112ec611499565b505050600190505b90565b6111d2825a611304611444565b83610637565b80820382811115610624576000806113206113d9565b505092915050565b80820182811015610624576000806113206113d9565b6001600160a01b0382166000908152600260205261136890604090206113626114e7565b82611328565b6001600160a01b0383166000908152600260205260409020819061138a611499565b50505061139a60016113626114e7565b8060016113a5611499565b5050506001600160a01b03821660006000805160206116858339815191528360405190815260200160405180910390a35050565b632a2a7adb598160e01b8152600481016020815285602082015260005b868110156114115780860151828201604001526020016113f6565b506020828760640184336000905af158601d01573d60011458600c01573d6000803e3d621234565260ea61109c52505050565b6373509064598160e01b8152602081600483336000905af158601d01573d60011458600c01573d6000803e3d621234565260ea61109c528051935060005b60408110156111d257600082820152602001611482565b6322bd64c0598160e01b8152836004820152846024820152600081604483336000905af158601d01573d60011458600c01573d6000803e3d621234565260ea61109c52600081526020611482565b6303daa959598160e01b8152836004820152602081602483336000905af158601d01573d60011458600c01573d6000803e3d621234565260ea61109c5280516000825293506020611482565b638540661f598160e01b8152611564565b8080831115610624575090919050565b8080831015610624575090919050565b836004820152846024820152606060448201528660648201526084810160005b8881101561159c578088015182820152602001611584565b506060828960a40184336000905af158601d01573d60011458600c01573d6000803e3d621234565260ea61109c52815160408301513d6000853e8b8b82606087013350600060045af150596115f18d3d611554565b8c016115fd8187611544565b5b8281101561161257600081526020016115fe565b50929c50505050505050565b63bdbf8c36598160e01b8152602081600483336000905af158601d01573d60011458600c01573d6000803e3d621234565260ea61109c528051600082529350602061148256feea2aa0a1be11a07ed86d755c93467f4f82362b452371d1ba94d1715123511acbddf252ad1be2c89b69c2b068fc378daa952ba7f163c4a11628f55a4df523b3ef8c5be1e5ebec7d5bd14f71427d1e84f3dd0314c0f7b2291e5b200ac8c7c3b925",
  "linkReferences": {},
  "deployedLinkReferences": {}
}