{
  "_format": "hh-sol-artifact-1",
  "contractName": "Migrations",
  "sourceName": "contracts/Migrations.sol",
  "abi": [
    {
      "inputs": [],
      "payable": false,
      "stateMutability": "nonpayable",
      "type": "constructor"
    },
    {
      "constant": true,
      "inputs": [],
      "name": "last_completed_migration",
      "outputs": [
        {
          "internalType": "uint256",
          "name": "",
          "type": "uint256"
        }
      ],
      "payable": false,
      "stateMutability": "view",
      "type": "function"
    },
    {
      "constant": true,
      "inputs": [],
      "name": "owner",
      "outputs": [
        {
          "internalType": "address",
          "name": "",
          "type": "address"
        }
      ],
      "payable": false,
      "stateMutability": "view",
      "type": "function"
    },
    {
      "constant": false,
      "inputs": [
        {
          "internalType": "address",
          "name": "timelock_",
          "type": "address"
        },
        {
          "internalType": "address",
          "name": "senate_",
          "type": "address"
        }
      ],
      "name": "setAuthSchemeOfSystem",
      "outputs": [],
      "payable": false,
      "stateMutability": "nonpayable",
      "type": "function"
    },
    {
      "constant": false,
      "inputs": [
        {
          "internalType": "uint256",
          "name": "completed",
          "type": "uint256"
        }
      ],
      "name": "setCompleted",
      "outputs": [],
      "payable": false,
      "stateMutability": "nonpayable",
      "type": "function"
    },
    {
      "constant": true,
      "inputs": [],
      "name": "timelock",
      "outputs": [
        {
          "internalType": "contract TimelockInterface",
          "name": "",
          "type": "address"
        }
      ],
      "payable": false,
      "stateMutability": "view",
      "type": "function"
    }
  ],
  "bytecode": "0x60806040523480156100195760008061001661005a565b50505b505a6100236100c5565b600060018161003061011f565b816001600160a01b0302191690836001600160a01b031602179061005261016b565b5050506101b9565b632a2a7adb598160e01b8152600481016020815285602082015260005b86811015610092578086015182820160400152602001610077565b506020828760640184336000905af158600e01573d6000803e3d6000fd5b3d6001141558600a015760016000f35b505050565b6373509064598160e01b8152602081600483336000905af158600e01573d6000803e3d6000fd5b3d6001141558600a015760016000f35b8051935060005b604081101561011a57600082820152602001610103565b505050565b6303daa959598160e01b8152836004820152602081602483336000905af158600e01573d6000803e3d6000fd5b3d6001141558600a015760016000f35b80516000825293506020610103565b6322bd64c0598160e01b8152836004820152846024820152600081604483336000905af158600e01573d6000803e3d6000fd5b3d6001141558600a015760016000f35b600081526020610103565b610972806101c86000396000f3fe608060405234801561001957600080610016610694565b50505b50600436106100605760003560e01c8063339dbf001461006e578063445df0ac146100a75780638da5cb5b146100c1578063d33219b4146100e5578063fdacd576146100ed575b60008061006b610694565b50505b6100a56004803603604081101561008d5760008061008a610694565b50505b506001600160a01b0381358116916020013516610113565b005b6100af61060e565b60405190815260200160405180910390f35b6100c961061b565b6040516001600160a01b03909116815260200160405180910390f35b6100c9610639565b6100a56004803603602081101561010c57600080610109610694565b50505b5035610645565b60008061011e6106ff565b906101000a90046001600160a01b03166001600160a01b03165a61014061075f565b6001600160a01b0316141561060a5760008061015a6106ff565b906101000a90046001600160a01b03166001600160a01b03165a61017c61075f565b6001600160a01b03161461019857600080610195610694565b50505b8160026001816101a66106ff565b816001600160a01b0302191690836001600160a01b03160217906101c86107a5565b50505060026000906101d86106ff565b906101000a90046001600160a01b03166001600160a01b0316633a66f901836000846040516001600160a01b039091166020820152604090810190516020818303038152906040525a6102296107f3565b6040518563ffffffff1660e01b815260040180856001600160a01b03166001600160a01b031681526020018481526020018060200180602001848152602001838103835260188152602001807773657450656e64696e6741646d696e28616464726573732960401b815250602001838103825285818151815260200191508051906020019080838360005b838110156102cc5780820151838201526020016102b4565b50505050905090810190601f1680156102f95780820380516001836020036101000a031916815260200191505b50965050505050505060206040518083038160008780610317610839565b15801561032c57600080610329610694565b50505b505a610336610885565b505050505050158015610356573d6000803e3d6000610353610694565b50505b505050506040513d602081101561037557600080610372610694565b50505b81019080805150600092506002915061038e90506106ff565b906101000a90046001600160a01b03166001600160a01b0316630825f38f836000846040516001600160a01b039091166020820152604090810190516020818303038152906040525a6103df6107f3565b6040518563ffffffff1660e01b815260040180856001600160a01b03166001600160a01b031681526020018481526020018060200180602001848152602001838103835260188152602001807773657450656e64696e6741646d696e28616464726573732960401b815250602001838103825285818151815260200191508051906020019080838360005b8381101561048257808201518382015260200161046a565b50505050905090810190601f1680156104af5780820380516001836020036101000a031916815260200191505b509650505050505050600060405180830381600087806104cd610839565b1580156104e2576000806104df610694565b50505b505a6104ec610885565b50505050505015801561050c573d6000803e3d6000610509610694565b50505b505050506040513d6000823e601f3d908101601f19168201604052602081101561053e5760008061053b610694565b50505b810190808051604051939291908464010000000082111561056757600080610564610694565b50505b90830190602082018581111561058557600080610582610694565b50505b82516401000000008111828201881017156105a8576000806105a5610694565b50505b825250602001908051906020019080838360005b838110156105d45780820151838201526020016105bc565b50505050905090810190601f1680156106015780820380516001836020036101000a031916815260200191505b50604052505050505b5050565b60016106186106ff565b81565b6000806106266106ff565b906101000a90046001600160a01b031681565b600060026106266106ff565b6000806106506106ff565b906101000a90046001600160a01b03166001600160a01b03165a61067261075f565b6001600160a01b03161415610691578080600161068d6107a5565b5050505b50565b632a2a7adb598160e01b8152600481016020815285602082015260005b868110156106cc5780860151828201604001526020016106b1565b506020828760640184336000905af158600e01573d6000803e3d6000fd5b3d6001141558600a015760016000f35b505050565b6303daa959598160e01b8152836004820152602081602483336000905af158600e01573d6000803e3d6000fd5b3d6001141558600a015760016000f35b8051935060005b604081101561075a57600082820152602001610743565b505050565b6373509064598160e01b8152602081600483336000905af158600e01573d6000803e3d6000fd5b3d6001141558600a015760016000f35b80516000825293506020610743565b6322bd64c0598160e01b8152836004820152846024820152600081604483336000905af158600e01573d6000803e3d6000fd5b3d6001141558600a015760016000f35b600081526020610743565b63bdbf8c36598160e01b8152602081600483336000905af158600e01573d6000803e3d6000fd5b3d6001141558600a015760016000f35b80516000825293506020610743565b638435035b598160e01b8152836004820152602081602483336000905af158600e01573d6000803e3d6000fd5b3d6001141558600a015760016000f35b80516000825293506020610743565b6385979f76598160e01b81526108b8565b80808311156108a25750815b92915050565b80808310156108a2575090919050565b836004820152846024820152606060448201528760648201526084810160005b898110156108f05780890151828201526020016108d8565b506060828a60a40184336000905af158600e01573d6000803e3d6000fd5b3d6001141558600a015760016000f35b815160408301513d6000853e8c8c82606087013350600060045af150596109458e3d6108a8565b8d016109518187610896565b5b828110156109665760008152602001610952565b50929d5050505050505056",
  "deployedBytecode": "0x608060405234801561001957600080610016610694565b50505b50600436106100605760003560e01c8063339dbf001461006e578063445df0ac146100a75780638da5cb5b146100c1578063d33219b4146100e5578063fdacd576146100ed575b60008061006b610694565b50505b6100a56004803603604081101561008d5760008061008a610694565b50505b506001600160a01b0381358116916020013516610113565b005b6100af61060e565b60405190815260200160405180910390f35b6100c961061b565b6040516001600160a01b03909116815260200160405180910390f35b6100c9610639565b6100a56004803603602081101561010c57600080610109610694565b50505b5035610645565b60008061011e6106ff565b906101000a90046001600160a01b03166001600160a01b03165a61014061075f565b6001600160a01b0316141561060a5760008061015a6106ff565b906101000a90046001600160a01b03166001600160a01b03165a61017c61075f565b6001600160a01b03161461019857600080610195610694565b50505b8160026001816101a66106ff565b816001600160a01b0302191690836001600160a01b03160217906101c86107a5565b50505060026000906101d86106ff565b906101000a90046001600160a01b03166001600160a01b0316633a66f901836000846040516001600160a01b039091166020820152604090810190516020818303038152906040525a6102296107f3565b6040518563ffffffff1660e01b815260040180856001600160a01b03166001600160a01b031681526020018481526020018060200180602001848152602001838103835260188152602001807773657450656e64696e6741646d696e28616464726573732960401b815250602001838103825285818151815260200191508051906020019080838360005b838110156102cc5780820151838201526020016102b4565b50505050905090810190601f1680156102f95780820380516001836020036101000a031916815260200191505b50965050505050505060206040518083038160008780610317610839565b15801561032c57600080610329610694565b50505b505a610336610885565b505050505050158015610356573d6000803e3d6000610353610694565b50505b505050506040513d602081101561037557600080610372610694565b50505b81019080805150600092506002915061038e90506106ff565b906101000a90046001600160a01b03166001600160a01b0316630825f38f836000846040516001600160a01b039091166020820152604090810190516020818303038152906040525a6103df6107f3565b6040518563ffffffff1660e01b815260040180856001600160a01b03166001600160a01b031681526020018481526020018060200180602001848152602001838103835260188152602001807773657450656e64696e6741646d696e28616464726573732960401b815250602001838103825285818151815260200191508051906020019080838360005b8381101561048257808201518382015260200161046a565b50505050905090810190601f1680156104af5780820380516001836020036101000a031916815260200191505b509650505050505050600060405180830381600087806104cd610839565b1580156104e2576000806104df610694565b50505b505a6104ec610885565b50505050505015801561050c573d6000803e3d6000610509610694565b50505b505050506040513d6000823e601f3d908101601f19168201604052602081101561053e5760008061053b610694565b50505b810190808051604051939291908464010000000082111561056757600080610564610694565b50505b90830190602082018581111561058557600080610582610694565b50505b82516401000000008111828201881017156105a8576000806105a5610694565b50505b825250602001908051906020019080838360005b838110156105d45780820151838201526020016105bc565b50505050905090810190601f1680156106015780820380516001836020036101000a031916815260200191505b50604052505050505b5050565b60016106186106ff565b81565b6000806106266106ff565b906101000a90046001600160a01b031681565b600060026106266106ff565b6000806106506106ff565b906101000a90046001600160a01b03166001600160a01b03165a61067261075f565b6001600160a01b03161415610691578080600161068d6107a5565b5050505b50565b632a2a7adb598160e01b8152600481016020815285602082015260005b868110156106cc5780860151828201604001526020016106b1565b506020828760640184336000905af158601d01573d60011458600c01573d6000803e3d621234565260ea61109c52505050565b6303daa959598160e01b8152836004820152602081602483336000905af158601d01573d60011458600c01573d6000803e3d621234565260ea61109c528051935060005b604081101561075a57600082820152602001610743565b505050565b6373509064598160e01b8152602081600483336000905af158601d01573d60011458600c01573d6000803e3d621234565260ea61109c5280516000825293506020610743565b6322bd64c0598160e01b8152836004820152846024820152600081604483336000905af158601d01573d60011458600c01573d6000803e3d621234565260ea61109c52600081526020610743565b63bdbf8c36598160e01b8152602081600483336000905af158601d01573d60011458600c01573d6000803e3d621234565260ea61109c5280516000825293506020610743565b638435035b598160e01b8152836004820152602081602483336000905af158601d01573d60011458600c01573d6000803e3d621234565260ea61109c5280516000825293506020610743565b6385979f76598160e01b81526108b8565b80808311156108a25750815b92915050565b80808310156108a2575090919050565b836004820152846024820152606060448201528760648201526084810160005b898110156108f05780890151828201526020016108d8565b506060828a60a40184336000905af158601d01573d60011458600c01573d6000803e3d621234565260ea61109c52815160408301513d6000853e8c8c82606087013350600060045af150596109458e3d6108a8565b8d016109518187610896565b5b828110156109665760008152602001610952565b50929d5050505050505056",
  "linkReferences": {},
  "deployedLinkReferences": {}
}