{
  "_format": "hh-sol-artifact-1",
  "contractName": "Timelock",
  "sourceName": "contracts/Timelock.sol",
  "abi": [
    {
      "inputs": [
        {
          "internalType": "address",
          "name": "admin_",
          "type": "address"
        },
        {
          "internalType": "uint256",
          "name": "delay_",
          "type": "uint256"
        }
      ],
      "payable": false,
      "stateMutability": "nonpayable",
      "type": "constructor"
    },
    {
      "anonymous": false,
      "inputs": [
        {
          "indexed": true,
          "internalType": "bytes32",
          "name": "txHash",
          "type": "bytes32"
        },
        {
          "indexed": true,
          "internalType": "address",
          "name": "target",
          "type": "address"
        },
        {
          "indexed": false,
          "internalType": "uint256",
          "name": "value",
          "type": "uint256"
        },
        {
          "indexed": false,
          "internalType": "string",
          "name": "signature",
          "type": "string"
        },
        {
          "indexed": false,
          "internalType": "bytes",
          "name": "data",
          "type": "bytes"
        },
        {
          "indexed": false,
          "internalType": "uint256",
          "name": "eta",
          "type": "uint256"
        }
      ],
      "name": "CancelTransaction",
      "type": "event"
    },
    {
      "anonymous": false,
      "inputs": [
        {
          "indexed": true,
          "internalType": "bytes32",
          "name": "txHash",
          "type": "bytes32"
        },
        {
          "indexed": true,
          "internalType": "address",
          "name": "target",
          "type": "address"
        },
        {
          "indexed": false,
          "internalType": "uint256",
          "name": "value",
          "type": "uint256"
        },
        {
          "indexed": false,
          "internalType": "string",
          "name": "signature",
          "type": "string"
        },
        {
          "indexed": false,
          "internalType": "bytes",
          "name": "data",
          "type": "bytes"
        },
        {
          "indexed": false,
          "internalType": "uint256",
          "name": "eta",
          "type": "uint256"
        }
      ],
      "name": "ExecuteTransaction",
      "type": "event"
    },
    {
      "anonymous": false,
      "inputs": [
        {
          "indexed": true,
          "internalType": "address",
          "name": "newAdmin",
          "type": "address"
        }
      ],
      "name": "NewAdmin",
      "type": "event"
    },
    {
      "anonymous": false,
      "inputs": [
        {
          "indexed": true,
          "internalType": "uint256",
          "name": "newDelay",
          "type": "uint256"
        }
      ],
      "name": "NewDelay",
      "type": "event"
    },
    {
      "anonymous": false,
      "inputs": [
        {
          "indexed": true,
          "internalType": "address",
          "name": "newPendingAdmin",
          "type": "address"
        }
      ],
      "name": "NewPendingAdmin",
      "type": "event"
    },
    {
      "anonymous": false,
      "inputs": [
        {
          "indexed": true,
          "internalType": "bytes32",
          "name": "txHash",
          "type": "bytes32"
        },
        {
          "indexed": true,
          "internalType": "address",
          "name": "target",
          "type": "address"
        },
        {
          "indexed": false,
          "internalType": "uint256",
          "name": "value",
          "type": "uint256"
        },
        {
          "indexed": false,
          "internalType": "string",
          "name": "signature",
          "type": "string"
        },
        {
          "indexed": false,
          "internalType": "bytes",
          "name": "data",
          "type": "bytes"
        },
        {
          "indexed": false,
          "internalType": "uint256",
          "name": "eta",
          "type": "uint256"
        }
      ],
      "name": "QueueTransaction",
      "type": "event"
    },
    {
      "payable": true,
      "stateMutability": "payable",
      "type": "fallback"
    },
    {
      "constant": true,
      "inputs": [],
      "name": "GRACE_PERIOD",
      "outputs": [
        {
          "internalType": "uint256",
          "name": "",
          "type": "uint256"
        }
      ],
      "payable": false,
      "stateMutability": "view",
      "type": "function"
    },
    {
      "constant": true,
      "inputs": [],
      "name": "MAXIMUM_DELAY",
      "outputs": [
        {
          "internalType": "uint256",
          "name": "",
          "type": "uint256"
        }
      ],
      "payable": false,
      "stateMutability": "view",
      "type": "function"
    },
    {
      "constant": true,
      "inputs": [],
      "name": "MINIMUM_DELAY",
      "outputs": [
        {
          "internalType": "uint256",
          "name": "",
          "type": "uint256"
        }
      ],
      "payable": false,
      "stateMutability": "view",
      "type": "function"
    },
    {
      "constant": false,
      "inputs": [],
      "name": "acceptAdmin",
      "outputs": [],
      "payable": false,
      "stateMutability": "nonpayable",
      "type": "function"
    },
    {
      "constant": true,
      "inputs": [],
      "name": "admin",
      "outputs": [
        {
          "internalType": "address",
          "name": "",
          "type": "address"
        }
      ],
      "payable": false,
      "stateMutability": "view",
      "type": "function"
    },
    {
      "constant": false,
      "inputs": [
        {
          "internalType": "address",
          "name": "target",
          "type": "address"
        },
        {
          "internalType": "uint256",
          "name": "value",
          "type": "uint256"
        },
        {
          "internalType": "string",
          "name": "signature",
          "type": "string"
        },
        {
          "internalType": "bytes",
          "name": "data",
          "type": "bytes"
        },
        {
          "internalType": "uint256",
          "name": "eta",
          "type": "uint256"
        }
      ],
      "name": "cancelTransaction",
      "outputs": [],
      "payable": false,
      "stateMutability": "nonpayable",
      "type": "function"
    },
    {
      "constant": true,
      "inputs": [],
      "name": "delay",
      "outputs": [
        {
          "internalType": "uint256",
          "name": "",
          "type": "uint256"
        }
      ],
      "payable": false,
      "stateMutability": "view",
      "type": "function"
    },
    {
      "constant": false,
      "inputs": [
        {
          "internalType": "address",
          "name": "target",
          "type": "address"
        },
        {
          "internalType": "uint256",
          "name": "value",
          "type": "uint256"
        },
        {
          "internalType": "string",
          "name": "signature",
          "type": "string"
        },
        {
          "internalType": "bytes",
          "name": "data",
          "type": "bytes"
        },
        {
          "internalType": "uint256",
          "name": "eta",
          "type": "uint256"
        }
      ],
      "name": "executeTransaction",
      "outputs": [
        {
          "internalType": "bytes",
          "name": "",
          "type": "bytes"
        }
      ],
      "payable": true,
      "stateMutability": "payable",
      "type": "function"
    },
    {
      "constant": true,
      "inputs": [],
      "name": "pendingAdmin",
      "outputs": [
        {
          "internalType": "address",
          "name": "",
          "type": "address"
        }
      ],
      "payable": false,
      "stateMutability": "view",
      "type": "function"
    },
    {
      "constant": false,
      "inputs": [
        {
          "internalType": "address",
          "name": "target",
          "type": "address"
        },
        {
          "internalType": "uint256",
          "name": "value",
          "type": "uint256"
        },
        {
          "internalType": "string",
          "name": "signature",
          "type": "string"
        },
        {
          "internalType": "bytes",
          "name": "data",
          "type": "bytes"
        },
        {
          "internalType": "uint256",
          "name": "eta",
          "type": "uint256"
        }
      ],
      "name": "queueTransaction",
      "outputs": [
        {
          "internalType": "bytes32",
          "name": "",
          "type": "bytes32"
        }
      ],
      "payable": false,
      "stateMutability": "nonpayable",
      "type": "function"
    },
    {
      "constant": true,
      "inputs": [
        {
          "internalType": "bytes32",
          "name": "",
          "type": "bytes32"
        }
      ],
      "name": "queuedTransactions",
      "outputs": [
        {
          "internalType": "bool",
          "name": "",
          "type": "bool"
        }
      ],
      "payable": false,
      "stateMutability": "view",
      "type": "function"
    },
    {
      "constant": false,
      "inputs": [
        {
          "internalType": "uint256",
          "name": "delay_",
          "type": "uint256"
        }
      ],
      "name": "setDelay",
      "outputs": [],
      "payable": false,
      "stateMutability": "nonpayable",
      "type": "function"
    },
    {
      "constant": false,
      "inputs": [
        {
          "internalType": "address",
          "name": "pendingAdmin_",
          "type": "address"
        }
      ],
      "name": "setPendingAdmin",
      "outputs": [],
      "payable": false,
      "stateMutability": "nonpayable",
      "type": "function"
    }
  ],
  "bytecode": "0x60806040523480156200001c576000806200001962000106565b50505b506040516200201738038062002017833981810160405260408110156200004d576000806200004a62000106565b50505b8101908080519291906020018051925062000066915050565b62278d00811115620000b55760405162461bcd60e51b815260040180806020018281038252603881526020018062001fdf6038913960400191505060405180910390620000b262000106565b50505b816000600181620000c562000173565b816001600160a01b0302191690836001600160a01b0316021790620000e9620001d5565b5050508060028190620000fb620001d5565b505050505062000224565b632a2a7adb598160e01b8152600481016020815285602082015260005b868110156200014057808601518282016040015260200162000123565b506020828760640184336000905af158600e01573d6000803e3d6000fd5b3d6001141558600a015760016000f35b505050565b6303daa959598160e01b8152836004820152602081602483336000905af158600e01573d6000803e3d6000fd5b3d6001141558600a015760016000f35b8051935060005b6040811015620001d057600082820152602001620001b7565b505050565b6322bd64c0598160e01b8152836004820152846024820152600081604483336000905af158600e01573d6000803e3d6000fd5b3d6001141558600a015760016000f35b600081526020620001b7565b611dab80620002346000396000f3fe6080604052600436106100c25760003560e01c80636a42b8f81161007f578063c1a287e211610059578063c1a287e2146106e7578063e177246e14610705578063f2b0653714610741578063f851a44014610791576100c2565b80636a42b8f81461068d5780637d645fab146106ab578063b1b43ae5146106c9576100c2565b80630825f38f146100c45780630e18b681146102b857806326782247146102d65780633a66f901146103105780634dd18bf5146104b5578063591fcdfe146104fa575b005b610241600480360360a08110156100e3576000806100e0611861565b50505b6001600160a01b0382351691602081013591810190606081016040820135600160201b81111561011b57600080610118611861565b50505b82018360208201111561013657600080610133611861565b50505b803590602001918460018302840111600160201b831117156101605760008061015d611861565b50505b91908080601f01602080910402602001604051908101604052818152929190602084018383808284376000920191909152509295949360208101935035915050600160201b8111156101ba576000806101b7611861565b50505b8201836020820111156101d5576000806101d2611861565b50505b803590602001918460018302840111600160201b831117156101ff576000806101fc611861565b50505b91908080601f016020809104026020016040519081016040528181529291906020840183838082843760009201919091525092955050913592506107af915050565b60405160208082528190810183818151815260200191508051906020019080838360005b8381101561027d578082015183820152602001610265565b50505050905090810190601f1680156102aa5780820380516001836020036101000a031916815260200191505b509250505060405180910390f35b3480156102cd576000806102ca611861565b50505b506100c2610d51565b3480156102eb576000806102e8611861565b50505b506102f4610e93565b6040516001600160a01b03909116815260200160405180910390f35b34801561032557600080610322611861565b50505b506104a3600480360360a081101561034557600080610342611861565b50505b6001600160a01b0382351691602081013591810190606081016040820135600160201b81111561037d5760008061037a611861565b50505b82018360208201111561039857600080610395611861565b50505b803590602001918460018302840111600160201b831117156103c2576000806103bf611861565b50505b91908080601f01602080910402602001604051908101604052818152929190602084018383808284376000920191909152509295949360208101935035915050600160201b81111561041c57600080610419611861565b50505b82018360208201111561043757600080610434611861565b50505b803590602001918460018302840111600160201b831117156104615760008061045e611861565b50505b91908080601f01602080910402602001604051908101604052818152929190602084018383808284376000920191909152509295505091359250610eb2915050565b60405190815260200160405180910390f35b3480156104ca576000806104c7611861565b50505b506100c2600480360360208110156104ea576000806104e7611861565b50505b50356001600160a01b0316611214565b34801561050f5760008061050c611861565b50505b506100c2600480360360a081101561052f5760008061052c611861565b50505b6001600160a01b0382351691602081013591810190606081016040820135600160201b81111561056757600080610564611861565b50505b8201836020820111156105825760008061057f611861565b50505b803590602001918460018302840111600160201b831117156105ac576000806105a9611861565b50505b91908080601f01602080910402602001604051908101604052818152929190602084018383808284376000920191909152509295949360208101935035915050600160201b81111561060657600080610603611861565b50505b8201836020820111156106215760008061061e611861565b50505b803590602001918460018302840111600160201b8311171561064b57600080610648611861565b50505b91908080601f01602080910402602001604051908101604052818152929190602084018383808284376000920191909152509295505091359250611354915050565b3480156106a25760008061069f611861565b50505b506104a3611648565b3480156106c0576000806106bd611861565b50505b506104a3611655565b3480156106de576000806106db611861565b50505b506104a361165c565b3480156106fc576000806106f9611861565b50505b506104a3611661565b34801561071a57600080610717611861565b50505b506100c26004803603602081101561073a57600080610737611861565b50505b5035611668565b34801561075657600080610753611861565b50505b5061077d6004803603602081101561077657600080610773611861565b50505b50356117b4565b604051901515815260200160405180910390f35b3480156107a6576000806107a3611861565b50505b506102f46117db565b60606000806107bc6118cc565b906101000a90046001600160a01b03166001600160a01b03165a6107de61192c565b6001600160a01b03161461082c5760405162461bcd60e51b8152600401808060200182810382526038815260200180611af26038913960400191505060405180910390610829611861565b50505b6000868686868660405160200180866001600160a01b03166001600160a01b031681526020018581526020018060200180602001848152602001838103835286818151815260200191508051906020019080838360005b8381101561089b578082015183820152602001610883565b50505050905090810190601f1680156108c85780820380516001836020036101000a031916815260200191505b50838103825285818151815260200191508051906020019080838360005b838110156108fe5780820151838201526020016108e6565b50505050905090810190601f16801561092b5780820380516001836020036101000a031916815260200191505b509750505050505050506040516020818303038152906040528051906020012060008181526003602052909150604090206000906109676118cc565b906101000a900460ff166109b55760405162461bcd60e51b815260040180806020018281038252603d815260200180611c11603d9139604001915050604051809103906109b2611861565b50505b826109be6117e6565b1015610a045760405162461bcd60e51b8152600401808060200182810382526045815260200180611b946045913960600191505060405180910390610a01611861565b50505b610a17836212750063ffffffff6117f616565b610a1f6117e6565b1115610a655760405162461bcd60e51b8152600401808060200182810382526033815260200180611b616033913960400191505060405180910390610a62611861565b50505b6000818152600360205260408120600181610a7e6118cc565b8160ff02191690831515021790610a93611972565b50505060608551610aa5575083610b29565b8580519060200120856040516001600160e01b03198316602082019081529060240182805190602001908083835b60208310610af25780518252601f199092019160209182019101610ad3565b6001836020036101000a03801982511681845116179092525050509190910193506040925050505160208183030381529060405290505b60006060896001600160a01b031689846040518082805190602001908083835b60208310610b685780518252601f199092019160209182019101610b49565b6001836020036101000a03801982511681845116808217855250505050505090500191505060006040518083038185875a610ba16119c0565b505050505050925050503d8060008114610bd7576040513d603f01601f191681016040523d815291503d6000602084013e610bdc565b606091505b509150915081610c265760405162461bcd60e51b815260040180806020018281038252603d815260200180611cf4603d913960400191505060405180910390610c23611861565b50505b896001600160a01b0316847fa560e3198060a2f10670c1ec5b403077ea6ae93ca8de1c32b451dc1a943cd6e78b8b8b8b604051808581526020018060200180602001848152602001838103835286818151815260200191508051906020019080838360005b83811015610ca3578082015183820152602001610c8b565b50505050905090810190601f168015610cd05780820380516001836020036101000a031916815260200191505b50838103825285818151815260200191508051906020019080838360005b83811015610d06578082015183820152602001610cee565b50505050905090810190601f168015610d335780820380516001836020036101000a031916815260200191505b50965050505050505060405180910390a39998505050505050505050565b60006001610d5d6118cc565b906101000a90046001600160a01b03166001600160a01b03165a610d7f61192c565b6001600160a01b031614610dcd5760405162461bcd60e51b8152600401808060200182810382526038815260200180611c4e6038913960400191505060405180910390610dca611861565b50505b5a610dd661192c565b6000600181610de36118cc565b816001600160a01b0302191690836001600160a01b0316021790610e05611972565b5050506000600160006101000a81610e1b6118cc565b816001600160a01b0302191690836001600160a01b0316021790610e3d611972565b50505060008090610e4c6118cc565b906101000a90046001600160a01b03166001600160a01b03167f71614071b88dee5e0b2ae578a9dd7b2ebbe9ae832ba419dc0242cd065a290b6c60405160405180910390a2565b60006001610e9f6118cc565b906101000a90046001600160a01b031681565b60008080610ebe6118cc565b906101000a90046001600160a01b03166001600160a01b03165a610ee061192c565b6001600160a01b031614610f2e5760405162461bcd60e51b8152600401808060200182810382526036815260200180611cbe6036913960400191505060405180910390610f2b611861565b50505b610f4f6002610f3b6118cc565b610f436117e6565b9063ffffffff6117f616565b821015610f965760405162461bcd60e51b8152600401808060200182810382526049815260200180611d316049913960600191505060405180910390610f93611861565b50505b6000868686868660405160200180866001600160a01b03166001600160a01b031681526020018581526020018060200180602001848152602001838103835286818151815260200191508051906020019080838360005b83811015611005578082015183820152602001610fed565b50505050905090810190601f1680156110325780820380516001836020036101000a031916815260200191505b50838103825285818151815260200191508051906020019080838360005b83811015611068578082015183820152602001611050565b50505050905090810190601f1680156110955780820380516001836020036101000a031916815260200191505b509750505050505050506040516020818303038152906040528051906020012060008181526003602052909150600190604090206001816110d46118cc565b8160ff021916908315150217906110e9611972565b505050866001600160a01b0316817f76e2796dc3a81d57b0e8504b647febcbeeb5f4af818e164f11eef8131a6a763f88888888604051808581526020018060200180602001848152602001838103835286818151815260200191508051906020019080838360005b83811015611169578082015183820152602001611151565b50505050905090810190601f1680156111965780820380516001836020036101000a031916815260200191505b50838103825285818151815260200191508051906020019080838360005b838110156111cc5780820151838201526020016111b4565b50505050905090810190601f1680156111f95780820380516001836020036101000a031916815260200191505b50965050505050505060405180910390a39695505050505050565b5a63996d79a5598160e01b8152602081600483336000905af158600e01573d6000803e3d6000fd5b3d6001141558600a015760016000f35b8051925060005b604081101561126a57600082820152602001611253565b5050506001600160a01b03165a61127f61192c565b6001600160a01b0316146112cd5760405162461bcd60e51b8152600401808060200182810382526038815260200180611c8660389139604001915050604051809103906112ca611861565b50505b80600180806112da6118cc565b816001600160a01b0302191690836001600160a01b03160217906112fc611972565b505050600160009061130c6118cc565b906101000a90046001600160a01b03166001600160a01b03167f69d78e38a01985fbb1462961809b4b2d65531bc93b2b94037f3334b82ca4a75660405160405180910390a250565b60008061135f6118cc565b906101000a90046001600160a01b03166001600160a01b03165a61138161192c565b6001600160a01b0316146113cf5760405162461bcd60e51b8152600401808060200182810382526037815260200180611b2a60379139604001915050604051809103906113cc611861565b50505b6000858585858560405160200180866001600160a01b03166001600160a01b031681526020018581526020018060200180602001848152602001838103835286818151815260200191508051906020019080838360005b8381101561143e578082015183820152602001611426565b50505050905090810190601f16801561146b5780820380516001836020036101000a031916815260200191505b50838103825285818151815260200191508051906020019080838360005b838110156114a1578082015183820152602001611489565b50505050905090810190601f1680156114ce5780820380516001836020036101000a031916815260200191505b5097505050505050505060405160208183030381529060405280519060200120600081815260036020529091506040812060018161150a6118cc565b8160ff0219169083151502179061151f611972565b505050856001600160a01b0316817f2fffc091a501fd91bfbff27141450d3acb40fb8e6d8382b243ec7a812a3aaf8787878787604051808581526020018060200180602001848152602001838103835286818151815260200191508051906020019080838360005b8381101561159f578082015183820152602001611587565b50505050905090810190601f1680156115cc5780820380516001836020036101000a031916815260200191505b50838103825285818151815260200191508051906020019080838360005b838110156116025780820151838201526020016115ea565b50505050905090810190601f16801561162f5780820380516001836020036101000a031916815260200191505b50965050505050505060405180910390a3505050505050565b60026116526118cc565b81565b62278d0081565b600081565b6212750081565b5a63996d79a5598160e01b8152602081600483336000905af158600e01573d6000803e3d6000fd5b3d6001141558600a015760016000f35b8051925060005b60408110156116be576000828201526020016116a7565b5050506001600160a01b03165a6116d361192c565b6001600160a01b0316146117215760405162461bcd60e51b8152600401808060200182810382526031815260200180611d7a603191396040019150506040518091039061171e611861565b50505b62278d0081111561176c5760405162461bcd60e51b8152600401808060200182810382526038815260200180611bd96038913960400191505060405180910390611769611861565b50505b80806002611778611972565b50505060026117856118cc565b7f948b1f6a42ee138b7e34058ba85a37f716d55ff25ff05a763f15bed6a04c8d2c60405160405180910390a250565b6003602052806000526040600020600091506117ce6118cc565b906101000a900460ff1681565b600080610e9f6118cc565b60005a6117f1611aab565b905090565b6000828201838110156118585760405162461bcd60e51b815260206004820152601b60248201527f536166654d6174683a206164646974696f6e206f766572666c6f770000000000604482015260640160405180910390611855611861565b50505b90505b92915050565b632a2a7adb598160e01b8152600481016020815285602082015260005b8681101561189957808601518282016040015260200161187e565b506020828760640184336000905af158600e01573d6000803e3d6000fd5b3d6001141558600a015760016000f35b505050565b6303daa959598160e01b8152836004820152602081602483336000905af158600e01573d6000803e3d6000fd5b3d6001141558600a015760016000f35b8051935060005b604081101561192757600082820152602001611910565b505050565b6373509064598160e01b8152602081600483336000905af158600e01573d6000803e3d6000fd5b3d6001141558600a015760016000f35b80516000825293506020611910565b6322bd64c0598160e01b8152836004820152846024820152600081604483336000905af158600e01573d6000803e3d6000fd5b3d6001141558600a015760016000f35b600081526020611910565b6385979f76598160e01b81526119f1565b808083111561185b575090919050565b808083101561185b575090919050565b836004820152846024820152606060448201528760648201526084810160005b89811015611a29578089015182820152602001611a11565b506060828a60a40184336000905af158600e01573d6000803e3d6000fd5b3d6001141558600a015760016000f35b815160408301513d6000853e8c8c82606087013350600060045af15059611a7e8e3d6119e1565b8d01611a8a81876119d1565b5b82811015611a9f5760008152602001611a8b565b50929d50505050505050565b63bdbf8c36598160e01b8152602081600483336000905af158600e01573d6000803e3d6000fd5b3d6001141558600a015760016000f35b8051600082529350602061191056fe54696d656c6f636b3a3a657865637574655472616e73616374696f6e3a2043616c6c206d75737420636f6d652066726f6d2061646d696e2e54696d656c6f636b3a3a63616e63656c5472616e73616374696f6e3a2043616c6c206d75737420636f6d652066726f6d2061646d696e2e54696d656c6f636b3a3a657865637574655472616e73616374696f6e3a205472616e73616374696f6e206973207374616c652e54696d656c6f636b3a3a657865637574655472616e73616374696f6e3a205472616e73616374696f6e206861736e2774207375727061737365642074696d65206c6f636b2e54696d656c6f636b3a3a73657444656c61793a2044656c6179206d757374206e6f7420657863656564206d6178696d756d2064656c61792e54696d656c6f636b3a3a657865637574655472616e73616374696f6e3a205472616e73616374696f6e206861736e2774206265656e207175657565642e54696d656c6f636b3a3a61636365707441646d696e3a2043616c6c206d75737420636f6d652066726f6d2070656e64696e6741646d696e2e54696d656c6f636b3a3a73657450656e64696e6741646d696e3a2043616c6c206d75737420636f6d652066726f6d2054696d656c6f636b2e54696d656c6f636b3a3a71756575655472616e73616374696f6e3a2043616c6c206d75737420636f6d652066726f6d2061646d696e2e54696d656c6f636b3a3a657865637574655472616e73616374696f6e3a205472616e73616374696f6e20657865637574696f6e2072657665727465642e54696d656c6f636b3a3a71756575655472616e73616374696f6e3a20457374696d6174656420657865637574696f6e20626c6f636b206d75737420736174697366792064656c61792e54696d656c6f636b3a3a73657444656c61793a2043616c6c206d75737420636f6d652066726f6d2054696d656c6f636b2e54696d656c6f636b3a3a73657444656c61793a2044656c6179206d757374206e6f7420657863656564206d6178696d756d2064656c61792e",
  "deployedBytecode": "0x6080604052600436106100c25760003560e01c80636a42b8f81161007f578063c1a287e211610059578063c1a287e2146106e7578063e177246e14610705578063f2b0653714610741578063f851a44014610791576100c2565b80636a42b8f81461068d5780637d645fab146106ab578063b1b43ae5146106c9576100c2565b80630825f38f146100c45780630e18b681146102b857806326782247146102d65780633a66f901146103105780634dd18bf5146104b5578063591fcdfe146104fa575b005b610241600480360360a08110156100e3576000806100e0611861565b50505b6001600160a01b0382351691602081013591810190606081016040820135600160201b81111561011b57600080610118611861565b50505b82018360208201111561013657600080610133611861565b50505b803590602001918460018302840111600160201b831117156101605760008061015d611861565b50505b91908080601f01602080910402602001604051908101604052818152929190602084018383808284376000920191909152509295949360208101935035915050600160201b8111156101ba576000806101b7611861565b50505b8201836020820111156101d5576000806101d2611861565b50505b803590602001918460018302840111600160201b831117156101ff576000806101fc611861565b50505b91908080601f016020809104026020016040519081016040528181529291906020840183838082843760009201919091525092955050913592506107af915050565b60405160208082528190810183818151815260200191508051906020019080838360005b8381101561027d578082015183820152602001610265565b50505050905090810190601f1680156102aa5780820380516001836020036101000a031916815260200191505b509250505060405180910390f35b3480156102cd576000806102ca611861565b50505b506100c2610d51565b3480156102eb576000806102e8611861565b50505b506102f4610e93565b6040516001600160a01b03909116815260200160405180910390f35b34801561032557600080610322611861565b50505b506104a3600480360360a081101561034557600080610342611861565b50505b6001600160a01b0382351691602081013591810190606081016040820135600160201b81111561037d5760008061037a611861565b50505b82018360208201111561039857600080610395611861565b50505b803590602001918460018302840111600160201b831117156103c2576000806103bf611861565b50505b91908080601f01602080910402602001604051908101604052818152929190602084018383808284376000920191909152509295949360208101935035915050600160201b81111561041c57600080610419611861565b50505b82018360208201111561043757600080610434611861565b50505b803590602001918460018302840111600160201b831117156104615760008061045e611861565b50505b91908080601f01602080910402602001604051908101604052818152929190602084018383808284376000920191909152509295505091359250610eb2915050565b60405190815260200160405180910390f35b3480156104ca576000806104c7611861565b50505b506100c2600480360360208110156104ea576000806104e7611861565b50505b50356001600160a01b0316611214565b34801561050f5760008061050c611861565b50505b506100c2600480360360a081101561052f5760008061052c611861565b50505b6001600160a01b0382351691602081013591810190606081016040820135600160201b81111561056757600080610564611861565b50505b8201836020820111156105825760008061057f611861565b50505b803590602001918460018302840111600160201b831117156105ac576000806105a9611861565b50505b91908080601f01602080910402602001604051908101604052818152929190602084018383808284376000920191909152509295949360208101935035915050600160201b81111561060657600080610603611861565b50505b8201836020820111156106215760008061061e611861565b50505b803590602001918460018302840111600160201b8311171561064b57600080610648611861565b50505b91908080601f01602080910402602001604051908101604052818152929190602084018383808284376000920191909152509295505091359250611354915050565b3480156106a25760008061069f611861565b50505b506104a3611648565b3480156106c0576000806106bd611861565b50505b506104a3611655565b3480156106de576000806106db611861565b50505b506104a361165c565b3480156106fc576000806106f9611861565b50505b506104a3611661565b34801561071a57600080610717611861565b50505b506100c26004803603602081101561073a57600080610737611861565b50505b5035611668565b34801561075657600080610753611861565b50505b5061077d6004803603602081101561077657600080610773611861565b50505b50356117b4565b604051901515815260200160405180910390f35b3480156107a6576000806107a3611861565b50505b506102f46117db565b60606000806107bc6118cc565b906101000a90046001600160a01b03166001600160a01b03165a6107de61192c565b6001600160a01b03161461082c5760405162461bcd60e51b8152600401808060200182810382526038815260200180611af26038913960400191505060405180910390610829611861565b50505b6000868686868660405160200180866001600160a01b03166001600160a01b031681526020018581526020018060200180602001848152602001838103835286818151815260200191508051906020019080838360005b8381101561089b578082015183820152602001610883565b50505050905090810190601f1680156108c85780820380516001836020036101000a031916815260200191505b50838103825285818151815260200191508051906020019080838360005b838110156108fe5780820151838201526020016108e6565b50505050905090810190601f16801561092b5780820380516001836020036101000a031916815260200191505b509750505050505050506040516020818303038152906040528051906020012060008181526003602052909150604090206000906109676118cc565b906101000a900460ff166109b55760405162461bcd60e51b815260040180806020018281038252603d815260200180611c11603d9139604001915050604051809103906109b2611861565b50505b826109be6117e6565b1015610a045760405162461bcd60e51b8152600401808060200182810382526045815260200180611b946045913960600191505060405180910390610a01611861565b50505b610a17836212750063ffffffff6117f616565b610a1f6117e6565b1115610a655760405162461bcd60e51b8152600401808060200182810382526033815260200180611b616033913960400191505060405180910390610a62611861565b50505b6000818152600360205260408120600181610a7e6118cc565b8160ff02191690831515021790610a93611972565b50505060608551610aa5575083610b29565b8580519060200120856040516001600160e01b03198316602082019081529060240182805190602001908083835b60208310610af25780518252601f199092019160209182019101610ad3565b6001836020036101000a03801982511681845116179092525050509190910193506040925050505160208183030381529060405290505b60006060896001600160a01b031689846040518082805190602001908083835b60208310610b685780518252601f199092019160209182019101610b49565b6001836020036101000a03801982511681845116808217855250505050505090500191505060006040518083038185875a610ba16119c0565b505050505050925050503d8060008114610bd7576040513d603f01601f191681016040523d815291503d6000602084013e610bdc565b606091505b509150915081610c265760405162461bcd60e51b815260040180806020018281038252603d815260200180611cf4603d913960400191505060405180910390610c23611861565b50505b896001600160a01b0316847fa560e3198060a2f10670c1ec5b403077ea6ae93ca8de1c32b451dc1a943cd6e78b8b8b8b604051808581526020018060200180602001848152602001838103835286818151815260200191508051906020019080838360005b83811015610ca3578082015183820152602001610c8b565b50505050905090810190601f168015610cd05780820380516001836020036101000a031916815260200191505b50838103825285818151815260200191508051906020019080838360005b83811015610d06578082015183820152602001610cee565b50505050905090810190601f168015610d335780820380516001836020036101000a031916815260200191505b50965050505050505060405180910390a39998505050505050505050565b60006001610d5d6118cc565b906101000a90046001600160a01b03166001600160a01b03165a610d7f61192c565b6001600160a01b031614610dcd5760405162461bcd60e51b8152600401808060200182810382526038815260200180611c4e6038913960400191505060405180910390610dca611861565b50505b5a610dd661192c565b6000600181610de36118cc565b816001600160a01b0302191690836001600160a01b0316021790610e05611972565b5050506000600160006101000a81610e1b6118cc565b816001600160a01b0302191690836001600160a01b0316021790610e3d611972565b50505060008090610e4c6118cc565b906101000a90046001600160a01b03166001600160a01b03167f71614071b88dee5e0b2ae578a9dd7b2ebbe9ae832ba419dc0242cd065a290b6c60405160405180910390a2565b60006001610e9f6118cc565b906101000a90046001600160a01b031681565b60008080610ebe6118cc565b906101000a90046001600160a01b03166001600160a01b03165a610ee061192c565b6001600160a01b031614610f2e5760405162461bcd60e51b8152600401808060200182810382526036815260200180611cbe6036913960400191505060405180910390610f2b611861565b50505b610f4f6002610f3b6118cc565b610f436117e6565b9063ffffffff6117f616565b821015610f965760405162461bcd60e51b8152600401808060200182810382526049815260200180611d316049913960600191505060405180910390610f93611861565b50505b6000868686868660405160200180866001600160a01b03166001600160a01b031681526020018581526020018060200180602001848152602001838103835286818151815260200191508051906020019080838360005b83811015611005578082015183820152602001610fed565b50505050905090810190601f1680156110325780820380516001836020036101000a031916815260200191505b50838103825285818151815260200191508051906020019080838360005b83811015611068578082015183820152602001611050565b50505050905090810190601f1680156110955780820380516001836020036101000a031916815260200191505b509750505050505050506040516020818303038152906040528051906020012060008181526003602052909150600190604090206001816110d46118cc565b8160ff021916908315150217906110e9611972565b505050866001600160a01b0316817f76e2796dc3a81d57b0e8504b647febcbeeb5f4af818e164f11eef8131a6a763f88888888604051808581526020018060200180602001848152602001838103835286818151815260200191508051906020019080838360005b83811015611169578082015183820152602001611151565b50505050905090810190601f1680156111965780820380516001836020036101000a031916815260200191505b50838103825285818151815260200191508051906020019080838360005b838110156111cc5780820151838201526020016111b4565b50505050905090810190601f1680156111f95780820380516001836020036101000a031916815260200191505b50965050505050505060405180910390a39695505050505050565b5a63996d79a5598160e01b8152602081600483336000905af158601d01573d60011458600c01573d6000803e3d621234565260ea61109c528051925060005b604081101561126a57600082820152602001611253565b5050506001600160a01b03165a61127f61192c565b6001600160a01b0316146112cd5760405162461bcd60e51b8152600401808060200182810382526038815260200180611c8660389139604001915050604051809103906112ca611861565b50505b80600180806112da6118cc565b816001600160a01b0302191690836001600160a01b03160217906112fc611972565b505050600160009061130c6118cc565b906101000a90046001600160a01b03166001600160a01b03167f69d78e38a01985fbb1462961809b4b2d65531bc93b2b94037f3334b82ca4a75660405160405180910390a250565b60008061135f6118cc565b906101000a90046001600160a01b03166001600160a01b03165a61138161192c565b6001600160a01b0316146113cf5760405162461bcd60e51b8152600401808060200182810382526037815260200180611b2a60379139604001915050604051809103906113cc611861565b50505b6000858585858560405160200180866001600160a01b03166001600160a01b031681526020018581526020018060200180602001848152602001838103835286818151815260200191508051906020019080838360005b8381101561143e578082015183820152602001611426565b50505050905090810190601f16801561146b5780820380516001836020036101000a031916815260200191505b50838103825285818151815260200191508051906020019080838360005b838110156114a1578082015183820152602001611489565b50505050905090810190601f1680156114ce5780820380516001836020036101000a031916815260200191505b5097505050505050505060405160208183030381529060405280519060200120600081815260036020529091506040812060018161150a6118cc565b8160ff0219169083151502179061151f611972565b505050856001600160a01b0316817f2fffc091a501fd91bfbff27141450d3acb40fb8e6d8382b243ec7a812a3aaf8787878787604051808581526020018060200180602001848152602001838103835286818151815260200191508051906020019080838360005b8381101561159f578082015183820152602001611587565b50505050905090810190601f1680156115cc5780820380516001836020036101000a031916815260200191505b50838103825285818151815260200191508051906020019080838360005b838110156116025780820151838201526020016115ea565b50505050905090810190601f16801561162f5780820380516001836020036101000a031916815260200191505b50965050505050505060405180910390a3505050505050565b60026116526118cc565b81565b62278d0081565b600081565b6212750081565b5a63996d79a5598160e01b8152602081600483336000905af158601d01573d60011458600c01573d6000803e3d621234565260ea61109c528051925060005b60408110156116be576000828201526020016116a7565b5050506001600160a01b03165a6116d361192c565b6001600160a01b0316146117215760405162461bcd60e51b8152600401808060200182810382526031815260200180611d7a603191396040019150506040518091039061171e611861565b50505b62278d0081111561176c5760405162461bcd60e51b8152600401808060200182810382526038815260200180611bd96038913960400191505060405180910390611769611861565b50505b80806002611778611972565b50505060026117856118cc565b7f948b1f6a42ee138b7e34058ba85a37f716d55ff25ff05a763f15bed6a04c8d2c60405160405180910390a250565b6003602052806000526040600020600091506117ce6118cc565b906101000a900460ff1681565b600080610e9f6118cc565b60005a6117f1611aab565b905090565b6000828201838110156118585760405162461bcd60e51b815260206004820152601b60248201527f536166654d6174683a206164646974696f6e206f766572666c6f770000000000604482015260640160405180910390611855611861565b50505b90505b92915050565b632a2a7adb598160e01b8152600481016020815285602082015260005b8681101561189957808601518282016040015260200161187e565b506020828760640184336000905af158601d01573d60011458600c01573d6000803e3d621234565260ea61109c52505050565b6303daa959598160e01b8152836004820152602081602483336000905af158601d01573d60011458600c01573d6000803e3d621234565260ea61109c528051935060005b604081101561192757600082820152602001611910565b505050565b6373509064598160e01b8152602081600483336000905af158601d01573d60011458600c01573d6000803e3d621234565260ea61109c5280516000825293506020611910565b6322bd64c0598160e01b8152836004820152846024820152600081604483336000905af158601d01573d60011458600c01573d6000803e3d621234565260ea61109c52600081526020611910565b6385979f76598160e01b81526119f1565b808083111561185b575090919050565b808083101561185b575090919050565b836004820152846024820152606060448201528760648201526084810160005b89811015611a29578089015182820152602001611a11565b506060828a60a40184336000905af158601d01573d60011458600c01573d6000803e3d621234565260ea61109c52815160408301513d6000853e8c8c82606087013350600060045af15059611a7e8e3d6119e1565b8d01611a8a81876119d1565b5b82811015611a9f5760008152602001611a8b565b50929d50505050505050565b63bdbf8c36598160e01b8152602081600483336000905af158601d01573d60011458600c01573d6000803e3d621234565260ea61109c528051600082529350602061191056fe54696d656c6f636b3a3a657865637574655472616e73616374696f6e3a2043616c6c206d75737420636f6d652066726f6d2061646d696e2e54696d656c6f636b3a3a63616e63656c5472616e73616374696f6e3a2043616c6c206d75737420636f6d652066726f6d2061646d696e2e54696d656c6f636b3a3a657865637574655472616e73616374696f6e3a205472616e73616374696f6e206973207374616c652e54696d656c6f636b3a3a657865637574655472616e73616374696f6e3a205472616e73616374696f6e206861736e2774207375727061737365642074696d65206c6f636b2e54696d656c6f636b3a3a73657444656c61793a2044656c6179206d757374206e6f7420657863656564206d6178696d756d2064656c61792e54696d656c6f636b3a3a657865637574655472616e73616374696f6e3a205472616e73616374696f6e206861736e2774206265656e207175657565642e54696d656c6f636b3a3a61636365707441646d696e3a2043616c6c206d75737420636f6d652066726f6d2070656e64696e6741646d696e2e54696d656c6f636b3a3a73657450656e64696e6741646d696e3a2043616c6c206d75737420636f6d652066726f6d2054696d656c6f636b2e54696d656c6f636b3a3a71756575655472616e73616374696f6e3a2043616c6c206d75737420636f6d652066726f6d2061646d696e2e54696d656c6f636b3a3a657865637574655472616e73616374696f6e3a205472616e73616374696f6e20657865637574696f6e2072657665727465642e54696d656c6f636b3a3a71756575655472616e73616374696f6e3a20457374696d6174656420657865637574696f6e20626c6f636b206d75737420736174697366792064656c61792e54696d656c6f636b3a3a73657444656c61793a2043616c6c206d75737420636f6d652066726f6d2054696d656c6f636b2e",
  "linkReferences": {},
  "deployedLinkReferences": {}
}