{
  "_format": "hh-sol-artifact-1",
  "contractName": "ExpiringMarket",
  "sourceName": "contracts/RubiconMarket.sol",
  "abi": [
    {
      "anonymous": false,
      "inputs": [
        {
          "indexed": false,
          "internalType": "bytes32",
          "name": "id",
          "type": "bytes32"
        },
        {
          "indexed": true,
          "internalType": "bytes32",
          "name": "pair",
          "type": "bytes32"
        },
        {
          "indexed": true,
          "internalType": "address",
          "name": "maker",
          "type": "address"
        },
        {
          "indexed": false,
          "internalType": "contract ERC20",
          "name": "pay_gem",
          "type": "address"
        },
        {
          "indexed": false,
          "internalType": "contract ERC20",
          "name": "buy_gem",
          "type": "address"
        },
        {
          "indexed": true,
          "internalType": "address",
          "name": "taker",
          "type": "address"
        },
        {
          "indexed": false,
          "internalType": "uint128",
          "name": "take_amt",
          "type": "uint128"
        },
        {
          "indexed": false,
          "internalType": "uint128",
          "name": "give_amt",
          "type": "uint128"
        },
        {
          "indexed": false,
          "internalType": "uint256",
          "name": "feeAmt",
          "type": "uint256"
        },
        {
          "indexed": false,
          "internalType": "address",
          "name": "feeTo",
          "type": "address"
        },
        {
          "indexed": false,
          "internalType": "uint64",
          "name": "timestamp",
          "type": "uint64"
        }
      ],
      "name": "FeeTake",
      "type": "event"
    },
    {
      "anonymous": false,
      "inputs": [
        {
          "indexed": true,
          "internalType": "bytes32",
          "name": "id",
          "type": "bytes32"
        },
        {
          "indexed": true,
          "internalType": "bytes32",
          "name": "pair",
          "type": "bytes32"
        },
        {
          "indexed": true,
          "internalType": "address",
          "name": "maker",
          "type": "address"
        },
        {
          "indexed": false,
          "internalType": "contract ERC20",
          "name": "pay_gem",
          "type": "address"
        },
        {
          "indexed": false,
          "internalType": "contract ERC20",
          "name": "buy_gem",
          "type": "address"
        },
        {
          "indexed": false,
          "internalType": "uint128",
          "name": "pay_amt",
          "type": "uint128"
        },
        {
          "indexed": false,
          "internalType": "uint128",
          "name": "buy_amt",
          "type": "uint128"
        },
        {
          "indexed": false,
          "internalType": "uint64",
          "name": "timestamp",
          "type": "uint64"
        }
      ],
      "name": "LogBump",
      "type": "event"
    },
    {
      "anonymous": false,
      "inputs": [
        {
          "indexed": false,
          "internalType": "string",
          "name": "lol",
          "type": "string"
        },
        {
          "indexed": false,
          "internalType": "uint256",
          "name": "input",
          "type": "uint256"
        }
      ],
      "name": "LogInt",
      "type": "event"
    },
    {
      "anonymous": false,
      "inputs": [
        {
          "indexed": false,
          "internalType": "uint256",
          "name": "id",
          "type": "uint256"
        }
      ],
      "name": "LogItemUpdate",
      "type": "event"
    },
    {
      "anonymous": false,
      "inputs": [
        {
          "indexed": true,
          "internalType": "bytes32",
          "name": "id",
          "type": "bytes32"
        },
        {
          "indexed": true,
          "internalType": "bytes32",
          "name": "pair",
          "type": "bytes32"
        },
        {
          "indexed": true,
          "internalType": "address",
          "name": "maker",
          "type": "address"
        },
        {
          "indexed": false,
          "internalType": "contract ERC20",
          "name": "pay_gem",
          "type": "address"
        },
        {
          "indexed": false,
          "internalType": "contract ERC20",
          "name": "buy_gem",
          "type": "address"
        },
        {
          "indexed": false,
          "internalType": "uint128",
          "name": "pay_amt",
          "type": "uint128"
        },
        {
          "indexed": false,
          "internalType": "uint128",
          "name": "buy_amt",
          "type": "uint128"
        },
        {
          "indexed": false,
          "internalType": "uint64",
          "name": "timestamp",
          "type": "uint64"
        }
      ],
      "name": "LogKill",
      "type": "event"
    },
    {
      "anonymous": false,
      "inputs": [
        {
          "indexed": true,
          "internalType": "bytes32",
          "name": "id",
          "type": "bytes32"
        },
        {
          "indexed": true,
          "internalType": "bytes32",
          "name": "pair",
          "type": "bytes32"
        },
        {
          "indexed": true,
          "internalType": "address",
          "name": "maker",
          "type": "address"
        },
        {
          "indexed": false,
          "internalType": "contract ERC20",
          "name": "pay_gem",
          "type": "address"
        },
        {
          "indexed": false,
          "internalType": "contract ERC20",
          "name": "buy_gem",
          "type": "address"
        },
        {
          "indexed": false,
          "internalType": "uint128",
          "name": "pay_amt",
          "type": "uint128"
        },
        {
          "indexed": false,
          "internalType": "uint128",
          "name": "buy_amt",
          "type": "uint128"
        },
        {
          "indexed": false,
          "internalType": "uint64",
          "name": "timestamp",
          "type": "uint64"
        }
      ],
      "name": "LogMake",
      "type": "event"
    },
    {
      "anonymous": false,
      "inputs": [
        {
          "indexed": true,
          "internalType": "address",
          "name": "authority",
          "type": "address"
        }
      ],
      "name": "LogSetAuthority",
      "type": "event"
    },
    {
      "anonymous": false,
      "inputs": [
        {
          "indexed": true,
          "internalType": "address",
          "name": "owner",
          "type": "address"
        }
      ],
      "name": "LogSetOwner",
      "type": "event"
    },
    {
      "anonymous": false,
      "inputs": [
        {
          "indexed": false,
          "internalType": "bytes32",
          "name": "id",
          "type": "bytes32"
        },
        {
          "indexed": true,
          "internalType": "bytes32",
          "name": "pair",
          "type": "bytes32"
        },
        {
          "indexed": true,
          "internalType": "address",
          "name": "maker",
          "type": "address"
        },
        {
          "indexed": false,
          "internalType": "contract ERC20",
          "name": "pay_gem",
          "type": "address"
        },
        {
          "indexed": false,
          "internalType": "contract ERC20",
          "name": "buy_gem",
          "type": "address"
        },
        {
          "indexed": true,
          "internalType": "address",
          "name": "taker",
          "type": "address"
        },
        {
          "indexed": false,
          "internalType": "uint128",
          "name": "take_amt",
          "type": "uint128"
        },
        {
          "indexed": false,
          "internalType": "uint128",
          "name": "give_amt",
          "type": "uint128"
        },
        {
          "indexed": false,
          "internalType": "uint64",
          "name": "timestamp",
          "type": "uint64"
        }
      ],
      "name": "LogTake",
      "type": "event"
    },
    {
      "anonymous": false,
      "inputs": [
        {
          "indexed": false,
          "internalType": "uint256",
          "name": "pay_amt",
          "type": "uint256"
        },
        {
          "indexed": true,
          "internalType": "address",
          "name": "pay_gem",
          "type": "address"
        },
        {
          "indexed": false,
          "internalType": "uint256",
          "name": "buy_amt",
          "type": "uint256"
        },
        {
          "indexed": true,
          "internalType": "address",
          "name": "buy_gem",
          "type": "address"
        }
      ],
      "name": "LogTrade",
      "type": "event"
    },
    {
      "anonymous": false,
      "inputs": [
        {
          "indexed": false,
          "internalType": "uint256",
          "name": "id",
          "type": "uint256"
        }
      ],
      "name": "OfferDeleted",
      "type": "event"
    },
    {
      "constant": false,
      "inputs": [
        {
          "internalType": "bytes32",
          "name": "id_",
          "type": "bytes32"
        }
      ],
      "name": "bump",
      "outputs": [],
      "payable": false,
      "stateMutability": "nonpayable",
      "type": "function"
    },
    {
      "constant": false,
      "inputs": [
        {
          "internalType": "uint256",
          "name": "id",
          "type": "uint256"
        },
        {
          "internalType": "uint256",
          "name": "quantity",
          "type": "uint256"
        }
      ],
      "name": "buy",
      "outputs": [
        {
          "internalType": "bool",
          "name": "",
          "type": "bool"
        }
      ],
      "payable": false,
      "stateMutability": "nonpayable",
      "type": "function"
    },
    {
      "constant": false,
      "inputs": [
        {
          "internalType": "uint256",
          "name": "id",
          "type": "uint256"
        }
      ],
      "name": "cancel",
      "outputs": [
        {
          "internalType": "bool",
          "name": "success",
          "type": "bool"
        }
      ],
      "payable": false,
      "stateMutability": "nonpayable",
      "type": "function"
    },
    {
      "constant": true,
      "inputs": [
        {
          "internalType": "uint256",
          "name": "id",
          "type": "uint256"
        }
      ],
      "name": "getOffer",
      "outputs": [
        {
          "internalType": "uint256",
          "name": "",
          "type": "uint256"
        },
        {
          "internalType": "contract ERC20",
          "name": "",
          "type": "address"
        },
        {
          "internalType": "uint256",
          "name": "",
          "type": "uint256"
        },
        {
          "internalType": "contract ERC20",
          "name": "",
          "type": "address"
        }
      ],
      "payable": false,
      "stateMutability": "view",
      "type": "function"
    },
    {
      "constant": true,
      "inputs": [
        {
          "internalType": "uint256",
          "name": "id",
          "type": "uint256"
        }
      ],
      "name": "getOwner",
      "outputs": [
        {
          "internalType": "address",
          "name": "owner",
          "type": "address"
        }
      ],
      "payable": false,
      "stateMutability": "view",
      "type": "function"
    },
    {
      "constant": true,
      "inputs": [],
      "name": "getTime",
      "outputs": [
        {
          "internalType": "uint64",
          "name": "",
          "type": "uint64"
        }
      ],
      "payable": false,
      "stateMutability": "view",
      "type": "function"
    },
    {
      "constant": true,
      "inputs": [
        {
          "internalType": "uint256",
          "name": "id",
          "type": "uint256"
        }
      ],
      "name": "isActive",
      "outputs": [
        {
          "internalType": "bool",
          "name": "active",
          "type": "bool"
        }
      ],
      "payable": false,
      "stateMutability": "view",
      "type": "function"
    },
    {
      "constant": true,
      "inputs": [],
      "name": "isClosed",
      "outputs": [
        {
          "internalType": "bool",
          "name": "closed",
          "type": "bool"
        }
      ],
      "payable": false,
      "stateMutability": "pure",
      "type": "function"
    },
    {
      "constant": false,
      "inputs": [
        {
          "internalType": "bytes32",
          "name": "id",
          "type": "bytes32"
        }
      ],
      "name": "kill",
      "outputs": [],
      "payable": false,
      "stateMutability": "nonpayable",
      "type": "function"
    },
    {
      "constant": true,
      "inputs": [],
      "name": "last_offer_id",
      "outputs": [
        {
          "internalType": "uint256",
          "name": "",
          "type": "uint256"
        }
      ],
      "payable": false,
      "stateMutability": "view",
      "type": "function"
    },
    {
      "constant": false,
      "inputs": [
        {
          "internalType": "contract ERC20",
          "name": "pay_gem",
          "type": "address"
        },
        {
          "internalType": "contract ERC20",
          "name": "buy_gem",
          "type": "address"
        },
        {
          "internalType": "uint128",
          "name": "pay_amt",
          "type": "uint128"
        },
        {
          "internalType": "uint128",
          "name": "buy_amt",
          "type": "uint128"
        }
      ],
      "name": "make",
      "outputs": [
        {
          "internalType": "bytes32",
          "name": "id",
          "type": "bytes32"
        }
      ],
      "payable": false,
      "stateMutability": "nonpayable",
      "type": "function"
    },
    {
      "constant": false,
      "inputs": [
        {
          "internalType": "uint256",
          "name": "pay_amt",
          "type": "uint256"
        },
        {
          "internalType": "contract ERC20",
          "name": "pay_gem",
          "type": "address"
        },
        {
          "internalType": "uint256",
          "name": "buy_amt",
          "type": "uint256"
        },
        {
          "internalType": "contract ERC20",
          "name": "buy_gem",
          "type": "address"
        }
      ],
      "name": "offer",
      "outputs": [
        {
          "internalType": "uint256",
          "name": "id",
          "type": "uint256"
        }
      ],
      "payable": false,
      "stateMutability": "nonpayable",
      "type": "function"
    },
    {
      "constant": true,
      "inputs": [
        {
          "internalType": "uint256",
          "name": "",
          "type": "uint256"
        }
      ],
      "name": "offers",
      "outputs": [
        {
          "internalType": "uint256",
          "name": "pay_amt",
          "type": "uint256"
        },
        {
          "internalType": "contract ERC20",
          "name": "pay_gem",
          "type": "address"
        },
        {
          "internalType": "uint256",
          "name": "buy_amt",
          "type": "uint256"
        },
        {
          "internalType": "contract ERC20",
          "name": "buy_gem",
          "type": "address"
        },
        {
          "internalType": "address",
          "name": "owner",
          "type": "address"
        },
        {
          "internalType": "uint64",
          "name": "timestamp",
          "type": "uint64"
        }
      ],
      "payable": false,
      "stateMutability": "view",
      "type": "function"
    },
    {
      "constant": true,
      "inputs": [],
      "name": "owner",
      "outputs": [
        {
          "internalType": "address",
          "name": "",
          "type": "address"
        }
      ],
      "payable": false,
      "stateMutability": "view",
      "type": "function"
    },
    {
      "constant": false,
      "inputs": [
        {
          "internalType": "address",
          "name": "owner_",
          "type": "address"
        }
      ],
      "name": "setOwner",
      "outputs": [],
      "payable": false,
      "stateMutability": "nonpayable",
      "type": "function"
    },
    {
      "constant": false,
      "inputs": [],
      "name": "stop",
      "outputs": [],
      "payable": false,
      "stateMutability": "nonpayable",
      "type": "function"
    },
    {
      "constant": true,
      "inputs": [],
      "name": "stopped",
      "outputs": [
        {
          "internalType": "bool",
          "name": "",
          "type": "bool"
        }
      ],
      "payable": false,
      "stateMutability": "view",
      "type": "function"
    },
    {
      "constant": false,
      "inputs": [
        {
          "internalType": "bytes32",
          "name": "id",
          "type": "bytes32"
        },
        {
          "internalType": "uint128",
          "name": "maxTakeAmount",
          "type": "uint128"
        }
      ],
      "name": "take",
      "outputs": [],
      "payable": false,
      "stateMutability": "nonpayable",
      "type": "function"
    }
  ],
  "bytecode": "0x60806040523480156100195760008061001661001f565b50505b5061008a565b632a2a7adb598160e01b8152600481016020815285602082015260005b8681101561005757808601518282016040015260200161003c565b506020828760640184336000905af158600e01573d6000803e3d6000fd5b3d6001141558600a015760016000f35b505050565b612423806200009a6000396000f3fe608060405234801561001957600080610016612062565b50505b50600436106100ef5760003560e01c806307da68f5146100fd578063093f51981461010757806313af403514610169578063232cae0b1461019857806340e58ee5146101a05780634579268a146101da5780634960645514610234578063557ed1ba1461026957806375f12b211461028d578063779997c31461029557806382afd23b146102bb5780638a72ea6a146102e15780638da5cb5b14610353578063b4f9b6c814610377578063c2b6b58c1461039d578063c41a360a146103a5578063d6febde8146103cb578063f09ea2a6146103f7575b6000806100fa612062565b50505b61010561043c565b005b6101576004803603608081101561012657600080610123612062565b50505b506001600160a01b0381358116916020810135909116906001600160801b03604082013581169160600135166104c9565b60405190815260200160405180910390f35b6101056004803603602081101561018857600080610185612062565b50505b50356001600160a01b03166104f2565b6101576105d5565b6101c6600480360360208110156101bf576000806101bc612062565b50505b50356105e2565b604051901515815260200160405180910390f35b610200600480360360208110156101f9576000806101f6612062565b50505b5035610a39565b6040519384526001600160a01b03928316602085015260408085019290925290911660608301526080909101905180910390f35b6101056004803603604081101561025357600080610250612062565b50505b50803590602001356001600160801b0316610b35565b610271610b5e565b6040516001600160401b03909116815260200160405180910390f35b6101c6610b6e565b610105600480360360208110156102b4576000806102b1612062565b50505b5035610b87565b6101c6600480360360208110156102da576000806102d7612062565b50505b5035610dc6565b61030760048036036020811015610300576000806102fd612062565b50505b5035610e05565b6040519586526001600160a01b039485166020870152604080870194909452918416606086015290921660808401526001600160401b0390911660a083015260c0909101905180910390f35b61035b610eae565b6040516001600160a01b03909116815260200160405180910390f35b6101056004803603602081101561039657600080610393612062565b50505b5035610ecc565b6101c6610ee7565b61035b600480360360208110156103c4576000806103c1612062565b50505b5035610eec565b6101c6600480360360408110156103ea576000806103e7612062565b50505b5080359060200135610f1f565b6101576004803603608081101561041657600080610413612062565b50505b508035906001600160a01b03602082013581169160408101359160609091013516611938565b61044d5a6104486120cd565b611e7d565b61049d5760405162461bcd60e51b8152602060048201526014602482015273191ccb585d5d1a0b5d5b985d5d1a1bdc9a5e995960621b60448201526064016040518091039061049a612062565b50505b60016006600160a01b816104af612122565b8160ff021916908315150217906104c461216e565b505050565b60006104e9836001600160801b031686846001600160801b031687611938565b95945050505050565b6104fe5a6104486120cd565b61054e5760405162461bcd60e51b8152602060048201526014602482015273191ccb585d5d1a0b5d5b985d5d1a1bdc9a5e995960621b60448201526064016040518091039061054b612062565b50505b80600060018161055c612122565b816001600160a01b0302191690836001600160a01b031602179061057e61216e565b5050506000809061058d612122565b906101000a90046001600160a01b03166001600160a01b03167fce241d7ca1f669fee44b6fc00b8eba2df3bb514eed0f6f668f8f89096e81ed9460405160405180910390a250565b60016105df612122565b81565b6000816105ee81610dc6565b610600576000806105fd612062565b50505b61060981610eec565b6001600160a01b03165a61061b6120cd565b6001600160a01b031614806106335750610633610ee7565b61064557600080610642612062565b50505b60006004610651612122565b906101000a900460ff161561066e5760008061066b612062565b50505b60016004818161067c612122565b8160ff0219169083151502179061069161216e565b50505061069c6121bc565b600084815260026020526040902060405160c081016040529081816106bf612122565b81526020016000600183016106d2612122565b6001600160a01b036101009290920a9004168152602001600282016106f5612122565b8152602001600060038301610708612122565b6001600160a01b036101009290920a900416815260200160006004830161072d612122565b6001600160a01b036101009290920a9004168152602001601460048301610752612122565b6001600160401b036101009290920a90041690525060008581526002602052909150604090206000808261078461216e565b505060018281019081610795612122565b906001600160a01b03021916906107aa61216e565b5050600282016000906107bb61216e565b5050600382016001816107cc612122565b906001600160a01b03021916906107e161216e565b5050600482016001816107f2612122565b906001600160a01b030219169061080761216e565b505060048201600160a01b8161081b612122565b906001600160401b030219169061083061216e565b5050505080602001516001600160a01b031663a9059cbb826080015183516040516001600160e01b031960e085901b1681526001600160a01b03909216600483015260248201526044016020604051808303816000878061088f6121f0565b1580156108a4576000806108a1612062565b50505b505a6108ae61223c565b5050505050501580156108ce573d6000803e3d60006108cb612062565b50505b505050506040513d60208110156108ed576000806108ea612062565b50505b810190808051925061090a91505057600080610907612062565b50505b60008051602061236e8339815191528460405190815260200160405180910390a180608001516001600160a01b0316816020015182606001516040516001600160601b0319606093841b811660208301529190921b16603482015260480160405160208183030381529060405280519060200120857f9577941d28fff863bfbee4694a6a4a56fb09e169619189d2eaa750b5b481999560208501518560600151865187604001515a6109ba612327565b6040516001600160a01b0395861681529390941660208401526001600160801b03918216604080850191909152911660608301526001600160401b03909216608082015260a001905180910390a45060019150600060048381610a1b612122565b8160ff02191690831515021790610a3061216e565b50505050919050565b600080600080610a476121bc565b600086815260026020526040902060405160c08101604052908181610a6a612122565b8152602001600060018301610a7d612122565b6001600160a01b036101009290920a900416815260200160028201610aa0612122565b8152602001600060038301610ab3612122565b6001600160a01b036101009290920a9004168152602001600060048301610ad8612122565b6001600160a01b036101009290920a9004168152602001601460048301610afd612122565b6001600160401b036101009290920a900416905250905080518160200151826040015183606001519450945094509450509193509193565b610b48826001600160801b038316610f1f565b610b5a57600080610b57612062565b50505b5050565b60005a610b69612327565b905090565b60146006610b7a612122565b906101000a900460ff1681565b80610b9181610dc6565b610ba357600080610ba0612062565b50505b610bab610ee7565b15610bbe57600080610bbb612062565b50505b60008281526002602052829060409020600401600090610bdc612122565b906101000a90046001600160a01b03166001600160a01b031660026000838152602001908152602001600020600101600090610c16612122565b906101000a90046001600160a01b031660026000848152602001908152602001600020600301600090610c47612122565b906101000a90046001600160a01b03166040516001600160601b0319606093841b811660208301529190921b166034820152604801604051602081830303815290604052805190602001206000838152600260205285907f70a14c213064359ede031fd2a1645a11ce2ec825ffe6ab5cfb5b160c3ef4d0a29060409020600101600090610cd2612122565b906101000a90046001600160a01b031660026000878152602001908152602001600020600301600090610d03612122565b906101000a90046001600160a01b031660026000888152602001908152602001600020610d2e612122565b6000888152600260205260409020600201610d47612122565b6000898152600260205260409020600401601490610d63612122565b906101000a90046001600160401b03166040516001600160a01b0395861681529390941660208401526001600160801b03918216604080850191909152911660608301526001600160401b03909216608082015260a001905180910390a4505050565b600081815260026020528060408120600401601490610de3612122565b906101000a90046001600160401b03166001600160401b03161190505b919050565b6002602052806000526040600020905080610e1e612122565b90600060018201610e2d612122565b906101000a90046001600160a01b03169080600201610e4a612122565b90600060038201610e59612122565b906101000a90046001600160a01b03169080600401600090610e79612122565b906101000a90046001600160a01b03169080600401601490610e99612122565b906101000a90046001600160401b0316905086565b600080610eb9612122565b906101000a90046001600160a01b031681565b610ed5816105e2565b610ee4576000806104c4612062565b50565b600090565b6000818152600260205260408120600401600090610f08612122565b906101000a90046001600160a01b03169050919050565b600082610f2b81610dc6565b610f3d57600080610f3a612062565b50505b610f45610ee7565b15610f5857600080610f55612062565b50505b60006004610f64612122565b906101000a900460ff1615610f8157600080610f7e612062565b50505b600160048181610f8f612122565b8160ff02191690831515021790610fa461216e565b505050610faf6121bc565b600085815260026020526040902060405160c08101604052908181610fd2612122565b8152602001600060018301610fe5612122565b6001600160a01b036101009290920a900416815260200160028201611008612122565b815260200160006003830161101b612122565b6001600160a01b036101009290920a9004168152602001600060048301611040612122565b6001600160a01b036101009290920a9004168152602001601460048301611065612122565b6001600160401b036101009290920a90041690525090506000815161108e868460400151611f3d565b8161109557fe5b04905080816001600160801b0316146110f35760405162461bcd60e51b81526020600482015260136024820152721cdc195b99081a5cc81b9bdd08185b881a5b9d606a1b6044820152606401604051809103906110f0612062565b50505b84856001600160801b0316146111515760405162461bcd60e51b81526020600482015260166024820152751c5d585b9d1a5d1e481a5cc81b9bdd08185b881a5b9d60521b60448201526064016040518091039061114e612062565b50505b84158061115c575080155b806111675750815185115b806111755750816040015181115b156111855760009350505061190a565b600061271061119d836005611198612122565b611f3d565b816111a457fe5b04905082606001516001600160a01b03166323b872dd5a6111c36120cd565b600060066111cf612122565b906101000a90046001600160a01b0316846040516001600160e01b031960e086901b1681526001600160a01b03938416600482015291909216602482015260448101919091526064016020604051808303816000878061122d6121f0565b1580156112425760008061123f612062565b50505b505a61124c61223c565b50505050505015801561126c573d6000803e3d6000611269612062565b50505b505050506040513d602081101561128b57600080611288612062565b50505b81019080805192506112ef9150505760405162461bcd60e51b815260206004820152601f60248201527f496e73756666696369656e742066756e647320746f20636f76657220666565006044820152606401604051809103906112ec612062565b50505b6112fa835187611fae565b6000888152600260205260409020819061131261216e565b505050611323836040015183611fae565b6000888152600260205260409020600201819061133e61216e565b50505082606001516001600160a01b03166323b872dd5a61135d6120cd565b8560800151856040516001600160e01b031960e086901b1681526001600160a01b0393841660048201529190921660248201526044810191909152606401602060405180830381600087806113b06121f0565b1580156113c5576000806113c2612062565b50505b505a6113cf61223c565b5050505050501580156113ef573d6000803e3d60006113ec612062565b50505b505050506040513d602081101561140e5760008061140b612062565b50505b810190808051925061145d9150505760405162461bcd60e51b81526004018080602001828103825260628152602001806123c1606291396080019150506040518091039061145a612062565b50505b82602001516001600160a01b031663a9059cbb5a6114796120cd565b886040516001600160e01b031960e085901b1681526001600160a01b0390921660048301526024820152604401602060405180830381600087806114bb6121f0565b1580156114d0576000806114cd612062565b50505b505a6114da61223c565b5050505050501580156114fa573d6000803e3d60006114f7612062565b50505b505050506040513d602081101561151957600080611516612062565b50505b81019080805192506115689150505760405162461bcd60e51b815260040180806020018281038252603381526020018061238e6033913960400191505060405180910390611565612062565b50505b60008051602061236e8339815191528760405190815260200160405180910390a15a6115926120cd565b6001600160a01b031683608001516001600160a01b0316846020015185606001516040516001600160601b0319606093841b811660208301529190921b166034820152604801604051602081830303815290604052805190602001207f3383e3357c77fd2e3a4b30deea81179bc70a795d053d14d5b7f2f01d0fd4596f8a602088015188606001518c895a611625612327565b6040519586526001600160a01b039485166020870152929093166040808601919091526001600160801b039182166060860152921660808401526001600160401b031660a083015260c0909101905180910390a45a6116826120cd565b6001600160a01b031683608001516001600160a01b0316846020015185606001516040516001600160601b0319606093841b811660208301529190921b166034820152604801604051602081830303815290604052805190602001207f0ae463beeed705bdba735cc0f80a21bc43e39fa85611fbceb6e509ca190cc6e28a602088015188606001518c898960006006611719612122565b906101000a90046001600160a01b03165a611732612327565b6040519788526001600160a01b0396871660208901529486166040808901919091526001600160801b03948516606089015292909316608087015260a0860152921660c08401526001600160401b031660e0830152610100909101905180910390a482606001516001600160a01b031683602001516001600160a01b03167f819e390338feffe95e2de57172d6faf337853dfd15c7a09a32d76f7fd2443875888560405191825260208201526040908101905180910390a36000878152600260205260409020611800612122565b6119025760008781526002602052604090206000808261181e61216e565b50506001828101908161182f612122565b906001600160a01b030219169061184461216e565b50506002820160009061185561216e565b505060038201600181611866612122565b906001600160a01b030219169061187b61216e565b50506004820160018161188c612122565b906001600160a01b03021916906118a161216e565b505060048201600160a01b816118b5612122565b906001600160401b03021916906118ca61216e565b505050507f88686b85d6f2c3ab9a04e4f15a22fcfa025ffd97226dcf0a67cdf682def556768760405190815260200160405180910390a15b600194505050505b60006004600181611919612122565b8160ff0219169083151502179061192e61216e565b5050505092915050565b6000611942610ee7565b1561195557600080611952612062565b50505b60006004611961612122565b906101000a900460ff161561197e5760008061197b612062565b50505b60016004818161198c612122565b8160ff021916908315150217906119a161216e565b50505083826119af82612003565b6119c1576000806119be612062565b50505b6119ca81612003565b6119dc576000806119d9612062565b50505b86876001600160801b0316146119fa576000806119f7612062565b50505b84856001600160801b031614611a1857600080611a15612062565b50505b60008711611a2e57600080611a2b612062565b50505b6001600160a01b038616611a4a57600080611a47612062565b50505b60008511611a6057600080611a5d612062565b50505b6001600160a01b038416611a7c57600080611a79612062565b50505b836001600160a01b0316866001600160a01b03161415611aa457600080611aa1612062565b50505b611aac6121bc565b8781526001600160a01b03808816602083015260408201879052851660608201525a611ad66120cd565b6001600160a01b031660808201525a611aed612327565b6001600160401b031660a0820152611b03612037565b60008181526002602052909450819060409020815181611b2161216e565b5050602082015160018083019081611b37612122565b816001600160a01b0302191690836001600160a01b0316021790611b5961216e565b505050604082015181600201611b6d61216e565b5050606082015160038201600181611b83612122565b816001600160a01b0302191690836001600160a01b0316021790611ba561216e565b505050608082015160048201600181611bbc612122565b816001600160a01b0302191690836001600160a01b0316021790611bde61216e565b50505060a082015160048201600160a01b81611bf8612122565b816001600160401b0302191690836001600160401b0316021790611c1a61216e565b505050905050866001600160a01b03166323b872dd5a611c386120cd565b5a63996d79a5598160e01b8152602081600483336000905af158600e01573d6000803e3d6000fd5b3d6001141558600a015760016000f35b8051925060005b6040811015611c8e57600082820152602001611c77565b5050508b6040516001600160e01b031960e086901b1681526001600160a01b039384166004820152919092166024820152604481019190915260640160206040518083038160008780611cdf6121f0565b158015611cf457600080611cf1612062565b50505b505a611cfe61223c565b505050505050158015611d1e573d6000803e3d6000611d1b612062565b50505b505050506040513d6020811015611d3d57600080611d3a612062565b50505b8101908080519250611d5a91505057600080611d57612062565b50505b60008051602061236e8339815191528460405190815260200160405180910390a15a611d846120cd565b6001600160a01b031687866040516001600160601b0319606093841b811660208301529190921b16603482015260480160405160208183030381529060405280519060200120857f773ff502687307abfa024ac9f62f9752a0d210dac2ffd9a29e38e12e2ea82c828a898d8c5a611df9612327565b6040516001600160a01b0395861681529390941660208401526001600160801b03918216604080850191909152911660608301526001600160401b03909216608082015260a001905180910390a45050506000600460006101000a81611e5d612122565b8160ff02191690831515021790611e7261216e565b505050949350505050565b60005a63996d79a5598160e01b8152602081600483336000905af158600e01573d6000803e3d6000fd5b3d6001141558600a015760016000f35b8051925060005b6040811015611ed557600082820152602001611ebe565b5050506001600160a01b0316826001600160a01b03161415611ef957506001610e00565b600080611f04612122565b906101000a90046001600160a01b03166001600160a01b0316826001600160a01b03161415611f3557506001610e00565b506000610e00565b6000811580611f5857505080820282828281611f5557fe5b04145b611fa85760405162461bcd60e51b815260206004820152601460248201527364732d6d6174682d6d756c2d6f766572666c6f7760601b604482015260640160405180910390611fa5612062565b50505b92915050565b80820382811115611fa85760405162461bcd60e51b815260206004820152601560248201527464732d6d6174682d7375622d756e646572666c6f7760581b604482015260640160405180910390611fa5612062565b6001600160a01b0381166000908152600360205260408120600090612026612122565b906101000a900460ff169050919050565b60006001600081612046612122565b9160018301915061205561216e565b5050506001610b69612122565b632a2a7adb598160e01b8152600481016020815285602082015260005b8681101561209a57808601518282016040015260200161207f565b506020828760640184336000905af158600e01573d6000803e3d6000fd5b3d6001141558600a015760016000f35b505050565b6373509064598160e01b8152602081600483336000905af158600e01573d6000803e3d6000fd5b3d6001141558600a015760016000f35b8051935060005b60408110156104c45760008282015260200161210b565b6303daa959598160e01b8152836004820152602081602483336000905af158600e01573d6000803e3d6000fd5b3d6001141558600a015760016000f35b8051600082529350602061210b565b6322bd64c0598160e01b8152836004820152846024820152600081604483336000905af158600e01573d6000803e3d6000fd5b3d6001141558600a015760016000f35b60008152602061210b565b60405160c081016040908152600080835260208301819052908201819052606082018190526080820181905260a082015290565b638435035b598160e01b8152836004820152602081602483336000905af158600e01573d6000803e3d6000fd5b3d6001141558600a015760016000f35b8051600082529350602061210b565b6385979f76598160e01b815261226d565b8080831115611fa8575090919050565b8080831015611fa8575090919050565b836004820152846024820152606060448201528760648201526084810160005b898110156122a557808901518282015260200161228d565b506060828a60a40184336000905af158600e01573d6000803e3d6000fd5b3d6001141558600a015760016000f35b815160408301513d6000853e8c8c82606087013350600060045af150596122fa8e3d61225d565b8d01612306818761224d565b5b8281101561231b5760008152602001612307565b50929d50505050505050565b63bdbf8c36598160e01b8152602081600483336000905af158600e01573d6000803e3d6000fd5b3d6001141558600a015760016000f35b8051600082529350602061210b56fea2c251311b1a7a475913900a2a73dc9789a21b04bc737e050bbc506dd4eb34886f666665722e7061795f67656d2e7472616e73666572286d73672e73656e6465722c207175616e7469747929206661696c65646f666665722e6275795f67656d2e7472616e7366657246726f6d286d73672e73656e6465722c206f666665722e6f776e65722c207370656e6429206661696c6564202d20636865636b207468617420796f752063616e207061792074686520666565",
  "deployedBytecode": "0x608060405234801561001957600080610016612062565b50505b50600436106100ef5760003560e01c806307da68f5146100fd578063093f51981461010757806313af403514610169578063232cae0b1461019857806340e58ee5146101a05780634579268a146101da5780634960645514610234578063557ed1ba1461026957806375f12b211461028d578063779997c31461029557806382afd23b146102bb5780638a72ea6a146102e15780638da5cb5b14610353578063b4f9b6c814610377578063c2b6b58c1461039d578063c41a360a146103a5578063d6febde8146103cb578063f09ea2a6146103f7575b6000806100fa612062565b50505b61010561043c565b005b6101576004803603608081101561012657600080610123612062565b50505b506001600160a01b0381358116916020810135909116906001600160801b03604082013581169160600135166104c9565b60405190815260200160405180910390f35b6101056004803603602081101561018857600080610185612062565b50505b50356001600160a01b03166104f2565b6101576105d5565b6101c6600480360360208110156101bf576000806101bc612062565b50505b50356105e2565b604051901515815260200160405180910390f35b610200600480360360208110156101f9576000806101f6612062565b50505b5035610a39565b6040519384526001600160a01b03928316602085015260408085019290925290911660608301526080909101905180910390f35b6101056004803603604081101561025357600080610250612062565b50505b50803590602001356001600160801b0316610b35565b610271610b5e565b6040516001600160401b03909116815260200160405180910390f35b6101c6610b6e565b610105600480360360208110156102b4576000806102b1612062565b50505b5035610b87565b6101c6600480360360208110156102da576000806102d7612062565b50505b5035610dc6565b61030760048036036020811015610300576000806102fd612062565b50505b5035610e05565b6040519586526001600160a01b039485166020870152604080870194909452918416606086015290921660808401526001600160401b0390911660a083015260c0909101905180910390f35b61035b610eae565b6040516001600160a01b03909116815260200160405180910390f35b6101056004803603602081101561039657600080610393612062565b50505b5035610ecc565b6101c6610ee7565b61035b600480360360208110156103c4576000806103c1612062565b50505b5035610eec565b6101c6600480360360408110156103ea576000806103e7612062565b50505b5080359060200135610f1f565b6101576004803603608081101561041657600080610413612062565b50505b508035906001600160a01b03602082013581169160408101359160609091013516611938565b61044d5a6104486120cd565b611e7d565b61049d5760405162461bcd60e51b8152602060048201526014602482015273191ccb585d5d1a0b5d5b985d5d1a1bdc9a5e995960621b60448201526064016040518091039061049a612062565b50505b60016006600160a01b816104af612122565b8160ff021916908315150217906104c461216e565b505050565b60006104e9836001600160801b031686846001600160801b031687611938565b95945050505050565b6104fe5a6104486120cd565b61054e5760405162461bcd60e51b8152602060048201526014602482015273191ccb585d5d1a0b5d5b985d5d1a1bdc9a5e995960621b60448201526064016040518091039061054b612062565b50505b80600060018161055c612122565b816001600160a01b0302191690836001600160a01b031602179061057e61216e565b5050506000809061058d612122565b906101000a90046001600160a01b03166001600160a01b03167fce241d7ca1f669fee44b6fc00b8eba2df3bb514eed0f6f668f8f89096e81ed9460405160405180910390a250565b60016105df612122565b81565b6000816105ee81610dc6565b610600576000806105fd612062565b50505b61060981610eec565b6001600160a01b03165a61061b6120cd565b6001600160a01b031614806106335750610633610ee7565b61064557600080610642612062565b50505b60006004610651612122565b906101000a900460ff161561066e5760008061066b612062565b50505b60016004818161067c612122565b8160ff0219169083151502179061069161216e565b50505061069c6121bc565b600084815260026020526040902060405160c081016040529081816106bf612122565b81526020016000600183016106d2612122565b6001600160a01b036101009290920a9004168152602001600282016106f5612122565b8152602001600060038301610708612122565b6001600160a01b036101009290920a900416815260200160006004830161072d612122565b6001600160a01b036101009290920a9004168152602001601460048301610752612122565b6001600160401b036101009290920a90041690525060008581526002602052909150604090206000808261078461216e565b505060018281019081610795612122565b906001600160a01b03021916906107aa61216e565b5050600282016000906107bb61216e565b5050600382016001816107cc612122565b906001600160a01b03021916906107e161216e565b5050600482016001816107f2612122565b906001600160a01b030219169061080761216e565b505060048201600160a01b8161081b612122565b906001600160401b030219169061083061216e565b5050505080602001516001600160a01b031663a9059cbb826080015183516040516001600160e01b031960e085901b1681526001600160a01b03909216600483015260248201526044016020604051808303816000878061088f6121f0565b1580156108a4576000806108a1612062565b50505b505a6108ae61223c565b5050505050501580156108ce573d6000803e3d60006108cb612062565b50505b505050506040513d60208110156108ed576000806108ea612062565b50505b810190808051925061090a91505057600080610907612062565b50505b60008051602061236e8339815191528460405190815260200160405180910390a180608001516001600160a01b0316816020015182606001516040516001600160601b0319606093841b811660208301529190921b16603482015260480160405160208183030381529060405280519060200120857f9577941d28fff863bfbee4694a6a4a56fb09e169619189d2eaa750b5b481999560208501518560600151865187604001515a6109ba612327565b6040516001600160a01b0395861681529390941660208401526001600160801b03918216604080850191909152911660608301526001600160401b03909216608082015260a001905180910390a45060019150600060048381610a1b612122565b8160ff02191690831515021790610a3061216e565b50505050919050565b600080600080610a476121bc565b600086815260026020526040902060405160c08101604052908181610a6a612122565b8152602001600060018301610a7d612122565b6001600160a01b036101009290920a900416815260200160028201610aa0612122565b8152602001600060038301610ab3612122565b6001600160a01b036101009290920a9004168152602001600060048301610ad8612122565b6001600160a01b036101009290920a9004168152602001601460048301610afd612122565b6001600160401b036101009290920a900416905250905080518160200151826040015183606001519450945094509450509193509193565b610b48826001600160801b038316610f1f565b610b5a57600080610b57612062565b50505b5050565b60005a610b69612327565b905090565b60146006610b7a612122565b906101000a900460ff1681565b80610b9181610dc6565b610ba357600080610ba0612062565b50505b610bab610ee7565b15610bbe57600080610bbb612062565b50505b60008281526002602052829060409020600401600090610bdc612122565b906101000a90046001600160a01b03166001600160a01b031660026000838152602001908152602001600020600101600090610c16612122565b906101000a90046001600160a01b031660026000848152602001908152602001600020600301600090610c47612122565b906101000a90046001600160a01b03166040516001600160601b0319606093841b811660208301529190921b166034820152604801604051602081830303815290604052805190602001206000838152600260205285907f70a14c213064359ede031fd2a1645a11ce2ec825ffe6ab5cfb5b160c3ef4d0a29060409020600101600090610cd2612122565b906101000a90046001600160a01b031660026000878152602001908152602001600020600301600090610d03612122565b906101000a90046001600160a01b031660026000888152602001908152602001600020610d2e612122565b6000888152600260205260409020600201610d47612122565b6000898152600260205260409020600401601490610d63612122565b906101000a90046001600160401b03166040516001600160a01b0395861681529390941660208401526001600160801b03918216604080850191909152911660608301526001600160401b03909216608082015260a001905180910390a4505050565b600081815260026020528060408120600401601490610de3612122565b906101000a90046001600160401b03166001600160401b03161190505b919050565b6002602052806000526040600020905080610e1e612122565b90600060018201610e2d612122565b906101000a90046001600160a01b03169080600201610e4a612122565b90600060038201610e59612122565b906101000a90046001600160a01b03169080600401600090610e79612122565b906101000a90046001600160a01b03169080600401601490610e99612122565b906101000a90046001600160401b0316905086565b600080610eb9612122565b906101000a90046001600160a01b031681565b610ed5816105e2565b610ee4576000806104c4612062565b50565b600090565b6000818152600260205260408120600401600090610f08612122565b906101000a90046001600160a01b03169050919050565b600082610f2b81610dc6565b610f3d57600080610f3a612062565b50505b610f45610ee7565b15610f5857600080610f55612062565b50505b60006004610f64612122565b906101000a900460ff1615610f8157600080610f7e612062565b50505b600160048181610f8f612122565b8160ff02191690831515021790610fa461216e565b505050610faf6121bc565b600085815260026020526040902060405160c08101604052908181610fd2612122565b8152602001600060018301610fe5612122565b6001600160a01b036101009290920a900416815260200160028201611008612122565b815260200160006003830161101b612122565b6001600160a01b036101009290920a9004168152602001600060048301611040612122565b6001600160a01b036101009290920a9004168152602001601460048301611065612122565b6001600160401b036101009290920a90041690525090506000815161108e868460400151611f3d565b8161109557fe5b04905080816001600160801b0316146110f35760405162461bcd60e51b81526020600482015260136024820152721cdc195b99081a5cc81b9bdd08185b881a5b9d606a1b6044820152606401604051809103906110f0612062565b50505b84856001600160801b0316146111515760405162461bcd60e51b81526020600482015260166024820152751c5d585b9d1a5d1e481a5cc81b9bdd08185b881a5b9d60521b60448201526064016040518091039061114e612062565b50505b84158061115c575080155b806111675750815185115b806111755750816040015181115b156111855760009350505061190a565b600061271061119d836005611198612122565b611f3d565b816111a457fe5b04905082606001516001600160a01b03166323b872dd5a6111c36120cd565b600060066111cf612122565b906101000a90046001600160a01b0316846040516001600160e01b031960e086901b1681526001600160a01b03938416600482015291909216602482015260448101919091526064016020604051808303816000878061122d6121f0565b1580156112425760008061123f612062565b50505b505a61124c61223c565b50505050505015801561126c573d6000803e3d6000611269612062565b50505b505050506040513d602081101561128b57600080611288612062565b50505b81019080805192506112ef9150505760405162461bcd60e51b815260206004820152601f60248201527f496e73756666696369656e742066756e647320746f20636f76657220666565006044820152606401604051809103906112ec612062565b50505b6112fa835187611fae565b6000888152600260205260409020819061131261216e565b505050611323836040015183611fae565b6000888152600260205260409020600201819061133e61216e565b50505082606001516001600160a01b03166323b872dd5a61135d6120cd565b8560800151856040516001600160e01b031960e086901b1681526001600160a01b0393841660048201529190921660248201526044810191909152606401602060405180830381600087806113b06121f0565b1580156113c5576000806113c2612062565b50505b505a6113cf61223c565b5050505050501580156113ef573d6000803e3d60006113ec612062565b50505b505050506040513d602081101561140e5760008061140b612062565b50505b810190808051925061145d9150505760405162461bcd60e51b81526004018080602001828103825260628152602001806123c1606291396080019150506040518091039061145a612062565b50505b82602001516001600160a01b031663a9059cbb5a6114796120cd565b886040516001600160e01b031960e085901b1681526001600160a01b0390921660048301526024820152604401602060405180830381600087806114bb6121f0565b1580156114d0576000806114cd612062565b50505b505a6114da61223c565b5050505050501580156114fa573d6000803e3d60006114f7612062565b50505b505050506040513d602081101561151957600080611516612062565b50505b81019080805192506115689150505760405162461bcd60e51b815260040180806020018281038252603381526020018061238e6033913960400191505060405180910390611565612062565b50505b60008051602061236e8339815191528760405190815260200160405180910390a15a6115926120cd565b6001600160a01b031683608001516001600160a01b0316846020015185606001516040516001600160601b0319606093841b811660208301529190921b166034820152604801604051602081830303815290604052805190602001207f3383e3357c77fd2e3a4b30deea81179bc70a795d053d14d5b7f2f01d0fd4596f8a602088015188606001518c895a611625612327565b6040519586526001600160a01b039485166020870152929093166040808601919091526001600160801b039182166060860152921660808401526001600160401b031660a083015260c0909101905180910390a45a6116826120cd565b6001600160a01b031683608001516001600160a01b0316846020015185606001516040516001600160601b0319606093841b811660208301529190921b166034820152604801604051602081830303815290604052805190602001207f0ae463beeed705bdba735cc0f80a21bc43e39fa85611fbceb6e509ca190cc6e28a602088015188606001518c898960006006611719612122565b906101000a90046001600160a01b03165a611732612327565b6040519788526001600160a01b0396871660208901529486166040808901919091526001600160801b03948516606089015292909316608087015260a0860152921660c08401526001600160401b031660e0830152610100909101905180910390a482606001516001600160a01b031683602001516001600160a01b03167f819e390338feffe95e2de57172d6faf337853dfd15c7a09a32d76f7fd2443875888560405191825260208201526040908101905180910390a36000878152600260205260409020611800612122565b6119025760008781526002602052604090206000808261181e61216e565b50506001828101908161182f612122565b906001600160a01b030219169061184461216e565b50506002820160009061185561216e565b505060038201600181611866612122565b906001600160a01b030219169061187b61216e565b50506004820160018161188c612122565b906001600160a01b03021916906118a161216e565b505060048201600160a01b816118b5612122565b906001600160401b03021916906118ca61216e565b505050507f88686b85d6f2c3ab9a04e4f15a22fcfa025ffd97226dcf0a67cdf682def556768760405190815260200160405180910390a15b600194505050505b60006004600181611919612122565b8160ff0219169083151502179061192e61216e565b5050505092915050565b6000611942610ee7565b1561195557600080611952612062565b50505b60006004611961612122565b906101000a900460ff161561197e5760008061197b612062565b50505b60016004818161198c612122565b8160ff021916908315150217906119a161216e565b50505083826119af82612003565b6119c1576000806119be612062565b50505b6119ca81612003565b6119dc576000806119d9612062565b50505b86876001600160801b0316146119fa576000806119f7612062565b50505b84856001600160801b031614611a1857600080611a15612062565b50505b60008711611a2e57600080611a2b612062565b50505b6001600160a01b038616611a4a57600080611a47612062565b50505b60008511611a6057600080611a5d612062565b50505b6001600160a01b038416611a7c57600080611a79612062565b50505b836001600160a01b0316866001600160a01b03161415611aa457600080611aa1612062565b50505b611aac6121bc565b8781526001600160a01b03808816602083015260408201879052851660608201525a611ad66120cd565b6001600160a01b031660808201525a611aed612327565b6001600160401b031660a0820152611b03612037565b60008181526002602052909450819060409020815181611b2161216e565b5050602082015160018083019081611b37612122565b816001600160a01b0302191690836001600160a01b0316021790611b5961216e565b505050604082015181600201611b6d61216e565b5050606082015160038201600181611b83612122565b816001600160a01b0302191690836001600160a01b0316021790611ba561216e565b505050608082015160048201600181611bbc612122565b816001600160a01b0302191690836001600160a01b0316021790611bde61216e565b50505060a082015160048201600160a01b81611bf8612122565b816001600160401b0302191690836001600160401b0316021790611c1a61216e565b505050905050866001600160a01b03166323b872dd5a611c386120cd565b5a63996d79a5598160e01b8152602081600483336000905af158601d01573d60011458600c01573d6000803e3d621234565260ea61109c528051925060005b6040811015611c8e57600082820152602001611c77565b5050508b6040516001600160e01b031960e086901b1681526001600160a01b039384166004820152919092166024820152604481019190915260640160206040518083038160008780611cdf6121f0565b158015611cf457600080611cf1612062565b50505b505a611cfe61223c565b505050505050158015611d1e573d6000803e3d6000611d1b612062565b50505b505050506040513d6020811015611d3d57600080611d3a612062565b50505b8101908080519250611d5a91505057600080611d57612062565b50505b60008051602061236e8339815191528460405190815260200160405180910390a15a611d846120cd565b6001600160a01b031687866040516001600160601b0319606093841b811660208301529190921b16603482015260480160405160208183030381529060405280519060200120857f773ff502687307abfa024ac9f62f9752a0d210dac2ffd9a29e38e12e2ea82c828a898d8c5a611df9612327565b6040516001600160a01b0395861681529390941660208401526001600160801b03918216604080850191909152911660608301526001600160401b03909216608082015260a001905180910390a45050506000600460006101000a81611e5d612122565b8160ff02191690831515021790611e7261216e565b505050949350505050565b60005a63996d79a5598160e01b8152602081600483336000905af158601d01573d60011458600c01573d6000803e3d621234565260ea61109c528051925060005b6040811015611ed557600082820152602001611ebe565b5050506001600160a01b0316826001600160a01b03161415611ef957506001610e00565b600080611f04612122565b906101000a90046001600160a01b03166001600160a01b0316826001600160a01b03161415611f3557506001610e00565b506000610e00565b6000811580611f5857505080820282828281611f5557fe5b04145b611fa85760405162461bcd60e51b815260206004820152601460248201527364732d6d6174682d6d756c2d6f766572666c6f7760601b604482015260640160405180910390611fa5612062565b50505b92915050565b80820382811115611fa85760405162461bcd60e51b815260206004820152601560248201527464732d6d6174682d7375622d756e646572666c6f7760581b604482015260640160405180910390611fa5612062565b6001600160a01b0381166000908152600360205260408120600090612026612122565b906101000a900460ff169050919050565b60006001600081612046612122565b9160018301915061205561216e565b5050506001610b69612122565b632a2a7adb598160e01b8152600481016020815285602082015260005b8681101561209a57808601518282016040015260200161207f565b506020828760640184336000905af158601d01573d60011458600c01573d6000803e3d621234565260ea61109c52505050565b6373509064598160e01b8152602081600483336000905af158601d01573d60011458600c01573d6000803e3d621234565260ea61109c528051935060005b60408110156104c45760008282015260200161210b565b6303daa959598160e01b8152836004820152602081602483336000905af158601d01573d60011458600c01573d6000803e3d621234565260ea61109c528051600082529350602061210b565b6322bd64c0598160e01b8152836004820152846024820152600081604483336000905af158601d01573d60011458600c01573d6000803e3d621234565260ea61109c5260008152602061210b565b60405160c081016040908152600080835260208301819052908201819052606082018190526080820181905260a082015290565b638435035b598160e01b8152836004820152602081602483336000905af158601d01573d60011458600c01573d6000803e3d621234565260ea61109c528051600082529350602061210b565b6385979f76598160e01b815261226d565b8080831115611fa8575090919050565b8080831015611fa8575090919050565b836004820152846024820152606060448201528760648201526084810160005b898110156122a557808901518282015260200161228d565b506060828a60a40184336000905af158601d01573d60011458600c01573d6000803e3d621234565260ea61109c52815160408301513d6000853e8c8c82606087013350600060045af150596122fa8e3d61225d565b8d01612306818761224d565b5b8281101561231b5760008152602001612307565b50929d50505050505050565b63bdbf8c36598160e01b8152602081600483336000905af158601d01573d60011458600c01573d6000803e3d621234565260ea61109c528051600082529350602061210b56fea2c251311b1a7a475913900a2a73dc9789a21b04bc737e050bbc506dd4eb34886f666665722e7061795f67656d2e7472616e73666572286d73672e73656e6465722c207175616e7469747929206661696c65646f666665722e6275795f67656d2e7472616e7366657246726f6d286d73672e73656e6465722c206f666665722e6f776e65722c207370656e6429206661696c6564202d20636865636b207468617420796f752063616e207061792074686520666565",
  "linkReferences": {},
  "deployedLinkReferences": {}
}