{
  "_format": "hh-sol-artifact-1",
  "contractName": "ExpiringMarket",
  "sourceName": "contracts/RubiconMarket.sol",
  "abi": [
    {
      "anonymous": false,
      "inputs": [
        {
          "indexed": false,
          "internalType": "bytes32",
          "name": "id",
          "type": "bytes32"
        },
        {
          "indexed": true,
          "internalType": "bytes32",
          "name": "pair",
          "type": "bytes32"
        },
        {
          "indexed": true,
          "internalType": "address",
          "name": "maker",
          "type": "address"
        },
        {
          "indexed": false,
          "internalType": "contract ERC20",
          "name": "pay_gem",
          "type": "address"
        },
        {
          "indexed": false,
          "internalType": "contract ERC20",
          "name": "buy_gem",
          "type": "address"
        },
        {
          "indexed": true,
          "internalType": "address",
          "name": "taker",
          "type": "address"
        },
        {
          "indexed": false,
          "internalType": "uint128",
          "name": "take_amt",
          "type": "uint128"
        },
        {
          "indexed": false,
          "internalType": "uint128",
          "name": "give_amt",
          "type": "uint128"
        },
        {
          "indexed": false,
          "internalType": "uint256",
          "name": "feeAmt",
          "type": "uint256"
        },
        {
          "indexed": false,
          "internalType": "address",
          "name": "feeTo",
          "type": "address"
        },
        {
          "indexed": false,
          "internalType": "uint64",
          "name": "timestamp",
          "type": "uint64"
        }
      ],
      "name": "FeeTake",
      "type": "event"
    },
    {
      "anonymous": false,
      "inputs": [
        {
          "indexed": true,
          "internalType": "bytes32",
          "name": "id",
          "type": "bytes32"
        },
        {
          "indexed": true,
          "internalType": "bytes32",
          "name": "pair",
          "type": "bytes32"
        },
        {
          "indexed": true,
          "internalType": "address",
          "name": "maker",
          "type": "address"
        },
        {
          "indexed": false,
          "internalType": "contract ERC20",
          "name": "pay_gem",
          "type": "address"
        },
        {
          "indexed": false,
          "internalType": "contract ERC20",
          "name": "buy_gem",
          "type": "address"
        },
        {
          "indexed": false,
          "internalType": "uint128",
          "name": "pay_amt",
          "type": "uint128"
        },
        {
          "indexed": false,
          "internalType": "uint128",
          "name": "buy_amt",
          "type": "uint128"
        },
        {
          "indexed": false,
          "internalType": "uint64",
          "name": "timestamp",
          "type": "uint64"
        }
      ],
      "name": "LogBump",
      "type": "event"
    },
    {
      "anonymous": false,
      "inputs": [
        {
          "indexed": false,
          "internalType": "string",
          "name": "lol",
          "type": "string"
        },
        {
          "indexed": false,
          "internalType": "uint256",
          "name": "input",
          "type": "uint256"
        }
      ],
      "name": "LogInt",
      "type": "event"
    },
    {
      "anonymous": false,
      "inputs": [
        {
          "indexed": false,
          "internalType": "uint256",
          "name": "id",
          "type": "uint256"
        }
      ],
      "name": "LogItemUpdate",
      "type": "event"
    },
    {
      "anonymous": false,
      "inputs": [
        {
          "indexed": true,
          "internalType": "bytes32",
          "name": "id",
          "type": "bytes32"
        },
        {
          "indexed": true,
          "internalType": "bytes32",
          "name": "pair",
          "type": "bytes32"
        },
        {
          "indexed": true,
          "internalType": "address",
          "name": "maker",
          "type": "address"
        },
        {
          "indexed": false,
          "internalType": "contract ERC20",
          "name": "pay_gem",
          "type": "address"
        },
        {
          "indexed": false,
          "internalType": "contract ERC20",
          "name": "buy_gem",
          "type": "address"
        },
        {
          "indexed": false,
          "internalType": "uint128",
          "name": "pay_amt",
          "type": "uint128"
        },
        {
          "indexed": false,
          "internalType": "uint128",
          "name": "buy_amt",
          "type": "uint128"
        },
        {
          "indexed": false,
          "internalType": "uint64",
          "name": "timestamp",
          "type": "uint64"
        }
      ],
      "name": "LogKill",
      "type": "event"
    },
    {
      "anonymous": false,
      "inputs": [
        {
          "indexed": true,
          "internalType": "bytes32",
          "name": "id",
          "type": "bytes32"
        },
        {
          "indexed": true,
          "internalType": "bytes32",
          "name": "pair",
          "type": "bytes32"
        },
        {
          "indexed": true,
          "internalType": "address",
          "name": "maker",
          "type": "address"
        },
        {
          "indexed": false,
          "internalType": "contract ERC20",
          "name": "pay_gem",
          "type": "address"
        },
        {
          "indexed": false,
          "internalType": "contract ERC20",
          "name": "buy_gem",
          "type": "address"
        },
        {
          "indexed": false,
          "internalType": "uint128",
          "name": "pay_amt",
          "type": "uint128"
        },
        {
          "indexed": false,
          "internalType": "uint128",
          "name": "buy_amt",
          "type": "uint128"
        },
        {
          "indexed": false,
          "internalType": "uint64",
          "name": "timestamp",
          "type": "uint64"
        }
      ],
      "name": "LogMake",
      "type": "event"
    },
    {
      "anonymous": false,
      "inputs": [
        {
          "indexed": true,
          "internalType": "address",
          "name": "authority",
          "type": "address"
        }
      ],
      "name": "LogSetAuthority",
      "type": "event"
    },
    {
      "anonymous": false,
      "inputs": [
        {
          "indexed": true,
          "internalType": "address",
          "name": "owner",
          "type": "address"
        }
      ],
      "name": "LogSetOwner",
      "type": "event"
    },
    {
      "anonymous": false,
      "inputs": [
        {
          "indexed": false,
          "internalType": "bytes32",
          "name": "id",
          "type": "bytes32"
        },
        {
          "indexed": true,
          "internalType": "bytes32",
          "name": "pair",
          "type": "bytes32"
        },
        {
          "indexed": true,
          "internalType": "address",
          "name": "maker",
          "type": "address"
        },
        {
          "indexed": false,
          "internalType": "contract ERC20",
          "name": "pay_gem",
          "type": "address"
        },
        {
          "indexed": false,
          "internalType": "contract ERC20",
          "name": "buy_gem",
          "type": "address"
        },
        {
          "indexed": true,
          "internalType": "address",
          "name": "taker",
          "type": "address"
        },
        {
          "indexed": false,
          "internalType": "uint128",
          "name": "take_amt",
          "type": "uint128"
        },
        {
          "indexed": false,
          "internalType": "uint128",
          "name": "give_amt",
          "type": "uint128"
        },
        {
          "indexed": false,
          "internalType": "uint64",
          "name": "timestamp",
          "type": "uint64"
        }
      ],
      "name": "LogTake",
      "type": "event"
    },
    {
      "anonymous": false,
      "inputs": [
        {
          "indexed": false,
          "internalType": "uint256",
          "name": "pay_amt",
          "type": "uint256"
        },
        {
          "indexed": true,
          "internalType": "address",
          "name": "pay_gem",
          "type": "address"
        },
        {
          "indexed": false,
          "internalType": "uint256",
          "name": "buy_amt",
          "type": "uint256"
        },
        {
          "indexed": true,
          "internalType": "address",
          "name": "buy_gem",
          "type": "address"
        }
      ],
      "name": "LogTrade",
      "type": "event"
    },
    {
      "anonymous": false,
      "inputs": [
        {
          "indexed": false,
          "internalType": "uint256",
          "name": "id",
          "type": "uint256"
        }
      ],
      "name": "OfferDeleted",
      "type": "event"
    },
    {
      "constant": false,
      "inputs": [
        {
          "internalType": "bytes32",
          "name": "id_",
          "type": "bytes32"
        }
      ],
      "name": "bump",
      "outputs": [],
      "payable": false,
      "stateMutability": "nonpayable",
      "type": "function"
    },
    {
      "constant": false,
      "inputs": [
        {
          "internalType": "uint256",
          "name": "id",
          "type": "uint256"
        },
        {
          "internalType": "uint256",
          "name": "quantity",
          "type": "uint256"
        }
      ],
      "name": "buy",
      "outputs": [
        {
          "internalType": "bool",
          "name": "",
          "type": "bool"
        }
      ],
      "payable": false,
      "stateMutability": "nonpayable",
      "type": "function"
    },
    {
      "constant": false,
      "inputs": [
        {
          "internalType": "uint256",
          "name": "id",
          "type": "uint256"
        }
      ],
      "name": "cancel",
      "outputs": [
        {
          "internalType": "bool",
          "name": "success",
          "type": "bool"
        }
      ],
      "payable": false,
      "stateMutability": "nonpayable",
      "type": "function"
    },
    {
      "constant": true,
      "inputs": [
        {
          "internalType": "uint256",
          "name": "id",
          "type": "uint256"
        }
      ],
      "name": "getOffer",
      "outputs": [
        {
          "internalType": "uint256",
          "name": "",
          "type": "uint256"
        },
        {
          "internalType": "contract ERC20",
          "name": "",
          "type": "address"
        },
        {
          "internalType": "uint256",
          "name": "",
          "type": "uint256"
        },
        {
          "internalType": "contract ERC20",
          "name": "",
          "type": "address"
        }
      ],
      "payable": false,
      "stateMutability": "view",
      "type": "function"
    },
    {
      "constant": true,
      "inputs": [
        {
          "internalType": "uint256",
          "name": "id",
          "type": "uint256"
        }
      ],
      "name": "getOwner",
      "outputs": [
        {
          "internalType": "address",
          "name": "owner",
          "type": "address"
        }
      ],
      "payable": false,
      "stateMutability": "view",
      "type": "function"
    },
    {
      "constant": true,
      "inputs": [],
      "name": "getTime",
      "outputs": [
        {
          "internalType": "uint64",
          "name": "",
          "type": "uint64"
        }
      ],
      "payable": false,
      "stateMutability": "view",
      "type": "function"
    },
    {
      "constant": true,
      "inputs": [
        {
          "internalType": "uint256",
          "name": "id",
          "type": "uint256"
        }
      ],
      "name": "isActive",
      "outputs": [
        {
          "internalType": "bool",
          "name": "active",
          "type": "bool"
        }
      ],
      "payable": false,
      "stateMutability": "view",
      "type": "function"
    },
    {
      "constant": true,
      "inputs": [],
      "name": "isClosed",
      "outputs": [
        {
          "internalType": "bool",
          "name": "closed",
          "type": "bool"
        }
      ],
      "payable": false,
      "stateMutability": "pure",
      "type": "function"
    },
    {
      "constant": false,
      "inputs": [
        {
          "internalType": "bytes32",
          "name": "id",
          "type": "bytes32"
        }
      ],
      "name": "kill",
      "outputs": [],
      "payable": false,
      "stateMutability": "nonpayable",
      "type": "function"
    },
    {
      "constant": true,
      "inputs": [],
      "name": "last_offer_id",
      "outputs": [
        {
          "internalType": "uint256",
          "name": "",
          "type": "uint256"
        }
      ],
      "payable": false,
      "stateMutability": "view",
      "type": "function"
    },
    {
      "constant": false,
      "inputs": [
        {
          "internalType": "contract ERC20",
          "name": "pay_gem",
          "type": "address"
        },
        {
          "internalType": "contract ERC20",
          "name": "buy_gem",
          "type": "address"
        },
        {
          "internalType": "uint128",
          "name": "pay_amt",
          "type": "uint128"
        },
        {
          "internalType": "uint128",
          "name": "buy_amt",
          "type": "uint128"
        }
      ],
      "name": "make",
      "outputs": [
        {
          "internalType": "bytes32",
          "name": "id",
          "type": "bytes32"
        }
      ],
      "payable": false,
      "stateMutability": "nonpayable",
      "type": "function"
    },
    {
      "constant": false,
      "inputs": [
        {
          "internalType": "uint256",
          "name": "pay_amt",
          "type": "uint256"
        },
        {
          "internalType": "contract ERC20",
          "name": "pay_gem",
          "type": "address"
        },
        {
          "internalType": "uint256",
          "name": "buy_amt",
          "type": "uint256"
        },
        {
          "internalType": "contract ERC20",
          "name": "buy_gem",
          "type": "address"
        }
      ],
      "name": "offer",
      "outputs": [
        {
          "internalType": "uint256",
          "name": "id",
          "type": "uint256"
        }
      ],
      "payable": false,
      "stateMutability": "nonpayable",
      "type": "function"
    },
    {
      "constant": true,
      "inputs": [
        {
          "internalType": "uint256",
          "name": "",
          "type": "uint256"
        }
      ],
      "name": "offers",
      "outputs": [
        {
          "internalType": "uint256",
          "name": "pay_amt",
          "type": "uint256"
        },
        {
          "internalType": "contract ERC20",
          "name": "pay_gem",
          "type": "address"
        },
        {
          "internalType": "uint256",
          "name": "buy_amt",
          "type": "uint256"
        },
        {
          "internalType": "contract ERC20",
          "name": "buy_gem",
          "type": "address"
        },
        {
          "internalType": "address",
          "name": "owner",
          "type": "address"
        },
        {
          "internalType": "uint64",
          "name": "timestamp",
          "type": "uint64"
        }
      ],
      "payable": false,
      "stateMutability": "view",
      "type": "function"
    },
    {
      "constant": true,
      "inputs": [],
      "name": "owner",
      "outputs": [
        {
          "internalType": "address",
          "name": "",
          "type": "address"
        }
      ],
      "payable": false,
      "stateMutability": "view",
      "type": "function"
    },
    {
      "constant": false,
      "inputs": [
        {
          "internalType": "address",
          "name": "owner_",
          "type": "address"
        }
      ],
      "name": "setOwner",
      "outputs": [],
      "payable": false,
      "stateMutability": "nonpayable",
      "type": "function"
    },
    {
      "constant": false,
      "inputs": [],
      "name": "stop",
      "outputs": [],
      "payable": false,
      "stateMutability": "nonpayable",
      "type": "function"
    },
    {
      "constant": true,
      "inputs": [],
      "name": "stopped",
      "outputs": [
        {
          "internalType": "bool",
          "name": "",
          "type": "bool"
        }
      ],
      "payable": false,
      "stateMutability": "view",
      "type": "function"
    },
    {
      "constant": false,
      "inputs": [
        {
          "internalType": "bytes32",
          "name": "id",
          "type": "bytes32"
        },
        {
          "internalType": "uint128",
          "name": "maxTakeAmount",
          "type": "uint128"
        }
      ],
      "name": "take",
      "outputs": [],
      "payable": false,
      "stateMutability": "nonpayable",
      "type": "function"
    }
  ],
  "bytecode": "0x60806040523480156100195760008061001661001f565b50505b5061008a565b632a2a7adb598160e01b8152600481016020815285602082015260005b8681101561005757808601518282016040015260200161003c565b506020828760640184336000905af158600e01573d6000803e3d6000fd5b3d6001141558600a015760016000f35b505050565b612469806200009a6000396000f3fe6080604052348015610019576000806100166120c8565b50505b506004361061011f5760003560e01c8063779997c3116100ab578063b4f9b6c81161007a578063b4f9b6c8146103a7578063c2b6b58c146103cd578063c41a360a146103d5578063d6febde8146103fb578063f09ea2a6146104275761011f565b8063779997c3146102c557806382afd23b146102eb5780638a72ea6a146103115780638da5cb5b146103835761011f565b806340e58ee5116100f257806340e58ee5146101d05780634579268a1461020a5780634960645514610264578063557ed1ba1461029957806375f12b21146102bd5761011f565b806307da68f51461012d578063093f51981461013757806313af403514610199578063232cae0b146101c8575b60008061012a6120c8565b50505b61013561046c565b005b61018760048036036080811015610156576000806101536120c8565b50505b506001600160a01b0381358116916020810135909116906001600160801b03604082013581169160600135166104f9565b60405190815260200160405180910390f35b610135600480360360208110156101b8576000806101b56120c8565b50505b50356001600160a01b0316610522565b610187610605565b6101f6600480360360208110156101ef576000806101ec6120c8565b50505b5035610612565b604051901515815260200160405180910390f35b61023060048036036020811015610229576000806102266120c8565b50505b5035610a7b565b6040519384526001600160a01b03928316602085015260408085019290925290911660608301526080909101905180910390f35b61013560048036036040811015610283576000806102806120c8565b50505b50803590602001356001600160801b0316610b77565b6102a1610ba0565b6040516001600160401b03909116815260200160405180910390f35b6101f6610bb0565b610135600480360360208110156102e4576000806102e16120c8565b50505b5035610bc9565b6101f66004803603602081101561030a576000806103076120c8565b50505b5035610e08565b610337600480360360208110156103305760008061032d6120c8565b50505b5035610e47565b6040519586526001600160a01b039485166020870152604080870194909452918416606086015290921660808401526001600160401b0390911660a083015260c0909101905180910390f35b61038b610ef0565b6040516001600160a01b03909116815260200160405180910390f35b610135600480360360208110156103c6576000806103c36120c8565b50505b5035610f0e565b6101f6610f29565b61038b600480360360208110156103f4576000806103f16120c8565b50505b5035610f2e565b6101f66004803603604081101561041a576000806104176120c8565b50505b5080359060200135610f61565b61018760048036036080811015610446576000806104436120c8565b50505b508035906001600160a01b0360208201358116916040810135916060909101351661198c565b61047d5a610478612133565b611ee3565b6104cd5760405162461bcd60e51b8152602060048201526014602482015273191ccb585d5d1a0b5d5b985d5d1a1bdc9a5e995960621b6044820152606401604051809103906104ca6120c8565b50505b60016006600160a01b816104df612188565b8160ff021916908315150217906104f46121d4565b505050565b6000610519836001600160801b031686846001600160801b03168761198c565b95945050505050565b61052e5a610478612133565b61057e5760405162461bcd60e51b8152602060048201526014602482015273191ccb585d5d1a0b5d5b985d5d1a1bdc9a5e995960621b60448201526064016040518091039061057b6120c8565b50505b80600060018161058c612188565b816001600160a01b0302191690836001600160a01b03160217906105ae6121d4565b505050600080906105bd612188565b906101000a90046001600160a01b03166001600160a01b03167fce241d7ca1f669fee44b6fc00b8eba2df3bb514eed0f6f668f8f89096e81ed9460405160405180910390a250565b600161060f612188565b81565b60008161061e81610e08565b6106305760008061062d6120c8565b50505b61063981610f2e565b6001600160a01b03165a61064b612133565b6001600160a01b031614806106635750610663610f29565b610675576000806106726120c8565b50505b60006004610681612188565b906101000a900460ff161561069e5760008061069b6120c8565b50505b6001600481816106ac612188565b8160ff021916908315150217906106c16121d4565b5050506106cc612222565b600084815260026020526040902060405160c081016040529081816106ef612188565b8152602001600060018301610702612188565b6001600160a01b036101009290920a900416815260200160028201610725612188565b8152602001600060038301610738612188565b6001600160a01b036101009290920a900416815260200160006004830161075d612188565b6001600160a01b036101009290920a9004168152602001601460048301610782612188565b6001600160401b036101009290920a9004169052506000858152600260205290915060409020600080826107b46121d4565b5050600182810190816107c5612188565b906001600160a01b03021916906107da6121d4565b5050600282016000906107eb6121d4565b5050600382016001816107fc612188565b906001600160a01b03021916906108116121d4565b505060048201600181610822612188565b906001600160a01b03021916906108376121d4565b505060048201600160a01b8161084b612188565b906001600160401b03021916906108606121d4565b5050505080602001516001600160a01b031663a9059cbb826080015183516040516001600160e01b031960e085901b1681526001600160a01b0390921660048301526024820152604401602060405180830381600087806108bf612256565b1580156108d4576000806108d16120c8565b50505b505a6108de6122a2565b5050505050501580156108fe573d6000803e3d60006108fb6120c8565b50505b505050506040513d602081101561091d5760008061091a6120c8565b50505b810190808051925061093a915050576000806109376120c8565b50505b7fa2c251311b1a7a475913900a2a73dc9789a21b04bc737e050bbc506dd4eb34888460405190815260200160405180910390a180608001516001600160a01b0316816020015182606001516040516001600160601b0319606093841b811660208301529190921b16603482015260480160405160208183030381529060405280519060200120857f9577941d28fff863bfbee4694a6a4a56fb09e169619189d2eaa750b5b481999560208501518560600151865187604001515a6109fc61238d565b6040516001600160a01b0395861681529390941660208401526001600160801b03918216604080850191909152911660608301526001600160401b03909216608082015260a001905180910390a45060019150600060048381610a5d612188565b8160ff02191690831515021790610a726121d4565b50505050919050565b600080600080610a89612222565b600086815260026020526040902060405160c08101604052908181610aac612188565b8152602001600060018301610abf612188565b6001600160a01b036101009290920a900416815260200160028201610ae2612188565b8152602001600060038301610af5612188565b6001600160a01b036101009290920a9004168152602001600060048301610b1a612188565b6001600160a01b036101009290920a9004168152602001601460048301610b3f612188565b6001600160401b036101009290920a900416905250905080518160200151826040015183606001519450945094509450509193509193565b610b8a826001600160801b038316610f61565b610b9c57600080610b996120c8565b50505b5050565b60005a610bab61238d565b905090565b60146006610bbc612188565b906101000a900460ff1681565b80610bd381610e08565b610be557600080610be26120c8565b50505b610bed610f29565b15610c0057600080610bfd6120c8565b50505b60008281526002602052829060409020600401600090610c1e612188565b906101000a90046001600160a01b03166001600160a01b031660026000838152602001908152602001600020600101600090610c58612188565b906101000a90046001600160a01b031660026000848152602001908152602001600020600301600090610c89612188565b906101000a90046001600160a01b03166040516001600160601b0319606093841b811660208301529190921b166034820152604801604051602081830303815290604052805190602001206000838152600260205285907f70a14c213064359ede031fd2a1645a11ce2ec825ffe6ab5cfb5b160c3ef4d0a29060409020600101600090610d14612188565b906101000a90046001600160a01b031660026000878152602001908152602001600020600301600090610d45612188565b906101000a90046001600160a01b031660026000888152602001908152602001600020610d70612188565b6000888152600260205260409020600201610d89612188565b6000898152600260205260409020600401601490610da5612188565b906101000a90046001600160401b03166040516001600160a01b0395861681529390941660208401526001600160801b03918216604080850191909152911660608301526001600160401b03909216608082015260a001905180910390a4505050565b600081815260026020528060408120600401601490610e25612188565b906101000a90046001600160401b03166001600160401b03161190505b919050565b6002602052806000526040600020905080610e60612188565b90600060018201610e6f612188565b906101000a90046001600160a01b03169080600201610e8c612188565b90600060038201610e9b612188565b906101000a90046001600160a01b03169080600401600090610ebb612188565b906101000a90046001600160a01b03169080600401601490610edb612188565b906101000a90046001600160401b0316905086565b600080610efb612188565b906101000a90046001600160a01b031681565b610f1781610612565b610f26576000806104f46120c8565b50565b600090565b6000818152600260205260408120600401600090610f4a612188565b906101000a90046001600160a01b03169050919050565b600082610f6d81610e08565b610f7f57600080610f7c6120c8565b50505b610f87610f29565b15610f9a57600080610f976120c8565b50505b60006004610fa6612188565b906101000a900460ff1615610fc357600080610fc06120c8565b50505b600160048181610fd1612188565b8160ff02191690831515021790610fe66121d4565b505050610ff1612222565b600085815260026020526040902060405160c08101604052908181611014612188565b8152602001600060018301611027612188565b6001600160a01b036101009290920a90041681526020016002820161104a612188565b815260200160006003830161105d612188565b6001600160a01b036101009290920a9004168152602001600060048301611082612188565b6001600160a01b036101009290920a90041681526020016014600483016110a7612188565b6001600160401b036101009290920a9004169052509050600081516110d0868460400151611fa3565b816110d757fe5b04905080816001600160801b0316146111355760405162461bcd60e51b81526020600482015260136024820152721cdc195b99081a5cc81b9bdd08185b881a5b9d606a1b6044820152606401604051809103906111326120c8565b50505b84856001600160801b0316146111935760405162461bcd60e51b81526020600482015260166024820152751c5d585b9d1a5d1e481a5cc81b9bdd08185b881a5b9d60521b6044820152606401604051809103906111906120c8565b50505b84158061119e575080155b806111a95750815185115b806111b75750816040015181115b156111c75760009350505061195e565b60006127106111df8360056111da612188565b611fa3565b816111e657fe5b04905082606001516001600160a01b03166323b872dd5a611205612133565b60006006611211612188565b906101000a90046001600160a01b0316846040516001600160e01b031960e086901b1681526001600160a01b03938416600482015291909216602482015260448101919091526064016020604051808303816000878061126f612256565b158015611284576000806112816120c8565b50505b505a61128e6122a2565b5050505050501580156112ae573d6000803e3d60006112ab6120c8565b50505b505050506040513d60208110156112cd576000806112ca6120c8565b50505b81019080805192506113319150505760405162461bcd60e51b815260206004820152601f60248201527f496e73756666696369656e742066756e647320746f20636f766572206665650060448201526064016040518091039061132e6120c8565b50505b61133c835187612014565b600088815260026020526040902081906113546121d4565b505050611365836040015183612014565b600088815260026020526040902060020181906113806121d4565b50505082606001516001600160a01b03166323b872dd5a61139f612133565b8560800151856040516001600160e01b031960e086901b1681526001600160a01b0393841660048201529190921660248201526044810191909152606401602060405180830381600087806113f2612256565b158015611407576000806114046120c8565b50505b505a6114116122a2565b505050505050158015611431573d6000803e3d600061142e6120c8565b50505b505050506040513d60208110156114505760008061144d6120c8565b50505b810190808051925061149f9150505760405162461bcd60e51b8152600401808060200182810382526062815260200180612407606291396080019150506040518091039061149c6120c8565b50505b82602001516001600160a01b031663a9059cbb5a6114bb612133565b886040516001600160e01b031960e085901b1681526001600160a01b0390921660048301526024820152604401602060405180830381600087806114fd612256565b1580156115125760008061150f6120c8565b50505b505a61151c6122a2565b50505050505015801561153c573d6000803e3d60006115396120c8565b50505b505050506040513d602081101561155b576000806115586120c8565b50505b81019080805192506115aa9150505760405162461bcd60e51b81526004018080602001828103825260338152602001806123d460339139604001915050604051809103906115a76120c8565b50505b7fa2c251311b1a7a475913900a2a73dc9789a21b04bc737e050bbc506dd4eb34888760405190815260200160405180910390a15a6115e6612133565b6001600160a01b031683608001516001600160a01b0316846020015185606001516040516001600160601b0319606093841b811660208301529190921b166034820152604801604051602081830303815290604052805190602001207f3383e3357c77fd2e3a4b30deea81179bc70a795d053d14d5b7f2f01d0fd4596f8a602088015188606001518c895a61167961238d565b6040519586526001600160a01b039485166020870152929093166040808601919091526001600160801b039182166060860152921660808401526001600160401b031660a083015260c0909101905180910390a45a6116d6612133565b6001600160a01b031683608001516001600160a01b0316846020015185606001516040516001600160601b0319606093841b811660208301529190921b166034820152604801604051602081830303815290604052805190602001207f0ae463beeed705bdba735cc0f80a21bc43e39fa85611fbceb6e509ca190cc6e28a602088015188606001518c89896000600661176d612188565b906101000a90046001600160a01b03165a61178661238d565b6040519788526001600160a01b0396871660208901529486166040808901919091526001600160801b03948516606089015292909316608087015260a0860152921660c08401526001600160401b031660e0830152610100909101905180910390a482606001516001600160a01b031683602001516001600160a01b03167f819e390338feffe95e2de57172d6faf337853dfd15c7a09a32d76f7fd2443875888560405191825260208201526040908101905180910390a36000878152600260205260409020611854612188565b611956576000878152600260205260409020600080826118726121d4565b505060018281019081611883612188565b906001600160a01b03021916906118986121d4565b5050600282016000906118a96121d4565b5050600382016001816118ba612188565b906001600160a01b03021916906118cf6121d4565b5050600482016001816118e0612188565b906001600160a01b03021916906118f56121d4565b505060048201600160a01b81611909612188565b906001600160401b030219169061191e6121d4565b505050507f88686b85d6f2c3ab9a04e4f15a22fcfa025ffd97226dcf0a67cdf682def556768760405190815260200160405180910390a15b600194505050505b6000600460018161196d612188565b8160ff021916908315150217906119826121d4565b5050505092915050565b6000611996610f29565b156119a9576000806119a66120c8565b50505b600060046119b5612188565b906101000a900460ff16156119d2576000806119cf6120c8565b50505b6001600481816119e0612188565b8160ff021916908315150217906119f56121d4565b5050508382611a0382612069565b611a1557600080611a126120c8565b50505b611a1e81612069565b611a3057600080611a2d6120c8565b50505b86876001600160801b031614611a4e57600080611a4b6120c8565b50505b84856001600160801b031614611a6c57600080611a696120c8565b50505b60008711611a8257600080611a7f6120c8565b50505b6001600160a01b038616611a9e57600080611a9b6120c8565b50505b60008511611ab457600080611ab16120c8565b50505b6001600160a01b038416611ad057600080611acd6120c8565b50505b836001600160a01b0316866001600160a01b03161415611af857600080611af56120c8565b50505b611b00612222565b8781526001600160a01b03808816602083015260408201879052851660608201525a611b2a612133565b6001600160a01b031660808201525a611b4161238d565b6001600160401b031660a0820152611b5761209d565b60008181526002602052909450819060409020815181611b756121d4565b5050602082015160018083019081611b8b612188565b816001600160a01b0302191690836001600160a01b0316021790611bad6121d4565b505050604082015181600201611bc16121d4565b5050606082015160038201600181611bd7612188565b816001600160a01b0302191690836001600160a01b0316021790611bf96121d4565b505050608082015160048201600181611c10612188565b816001600160a01b0302191690836001600160a01b0316021790611c326121d4565b50505060a082015160048201600160a01b81611c4c612188565b816001600160401b0302191690836001600160401b0316021790611c6e6121d4565b505050905050866001600160a01b03166323b872dd5a611c8c612133565b5a63996d79a5598160e01b8152602081600483336000905af158600e01573d6000803e3d6000fd5b3d6001141558600a015760016000f35b8051925060005b6040811015611ce257600082820152602001611ccb565b5050508b6040516001600160e01b031960e086901b1681526001600160a01b039384166004820152919092166024820152604481019190915260640160206040518083038160008780611d33612256565b158015611d4857600080611d456120c8565b50505b505a611d526122a2565b505050505050158015611d72573d6000803e3d6000611d6f6120c8565b50505b505050506040513d6020811015611d9157600080611d8e6120c8565b50505b8101908080519250611dae91505057600080611dab6120c8565b50505b7fa2c251311b1a7a475913900a2a73dc9789a21b04bc737e050bbc506dd4eb34888460405190815260200160405180910390a15a611dea612133565b6001600160a01b031687866040516001600160601b0319606093841b811660208301529190921b16603482015260480160405160208183030381529060405280519060200120857f773ff502687307abfa024ac9f62f9752a0d210dac2ffd9a29e38e12e2ea82c828a898d8c5a611e5f61238d565b6040516001600160a01b0395861681529390941660208401526001600160801b03918216604080850191909152911660608301526001600160401b03909216608082015260a001905180910390a45050506000600460006101000a81611ec3612188565b8160ff02191690831515021790611ed86121d4565b505050949350505050565b60005a63996d79a5598160e01b8152602081600483336000905af158600e01573d6000803e3d6000fd5b3d6001141558600a015760016000f35b8051925060005b6040811015611f3b57600082820152602001611f24565b5050506001600160a01b0316826001600160a01b03161415611f5f57506001610e42565b600080611f6a612188565b906101000a90046001600160a01b03166001600160a01b0316826001600160a01b03161415611f9b57506001610e42565b506000610e42565b6000811580611fbe57505080820282828281611fbb57fe5b04145b61200e5760405162461bcd60e51b815260206004820152601460248201527364732d6d6174682d6d756c2d6f766572666c6f7760601b60448201526064016040518091039061200b6120c8565b50505b92915050565b8082038281111561200e5760405162461bcd60e51b815260206004820152601560248201527464732d6d6174682d7375622d756e646572666c6f7760581b60448201526064016040518091039061200b6120c8565b6001600160a01b038116600090815260036020526040812060009061208c612188565b906101000a900460ff169050919050565b600060016000816120ac612188565b916001830191506120bb6121d4565b5050506001610bab612188565b632a2a7adb598160e01b8152600481016020815285602082015260005b868110156121005780860151828201604001526020016120e5565b506020828760640184336000905af158600e01573d6000803e3d6000fd5b3d6001141558600a015760016000f35b505050565b6373509064598160e01b8152602081600483336000905af158600e01573d6000803e3d6000fd5b3d6001141558600a015760016000f35b8051935060005b60408110156104f457600082820152602001612171565b6303daa959598160e01b8152836004820152602081602483336000905af158600e01573d6000803e3d6000fd5b3d6001141558600a015760016000f35b80516000825293506020612171565b6322bd64c0598160e01b8152836004820152846024820152600081604483336000905af158600e01573d6000803e3d6000fd5b3d6001141558600a015760016000f35b600081526020612171565b60405160c081016040908152600080835260208301819052908201819052606082018190526080820181905260a082015290565b638435035b598160e01b8152836004820152602081602483336000905af158600e01573d6000803e3d6000fd5b3d6001141558600a015760016000f35b80516000825293506020612171565b6385979f76598160e01b81526122d3565b808083111561200e575090919050565b808083101561200e575090919050565b836004820152846024820152606060448201528760648201526084810160005b8981101561230b5780890151828201526020016122f3565b506060828a60a40184336000905af158600e01573d6000803e3d6000fd5b3d6001141558600a015760016000f35b815160408301513d6000853e8c8c82606087013350600060045af150596123608e3d6122c3565b8d0161236c81876122b3565b5b82811015612381576000815260200161236d565b50929d50505050505050565b63bdbf8c36598160e01b8152602081600483336000905af158600e01573d6000803e3d6000fd5b3d6001141558600a015760016000f35b8051600082529350602061217156fe6f666665722e7061795f67656d2e7472616e73666572286d73672e73656e6465722c207175616e7469747929206661696c65646f666665722e6275795f67656d2e7472616e7366657246726f6d286d73672e73656e6465722c206f666665722e6f776e65722c207370656e6429206661696c6564202d20636865636b207468617420796f752063616e207061792074686520666565",
  "deployedBytecode": "0x6080604052348015610019576000806100166120c8565b50505b506004361061011f5760003560e01c8063779997c3116100ab578063b4f9b6c81161007a578063b4f9b6c8146103a7578063c2b6b58c146103cd578063c41a360a146103d5578063d6febde8146103fb578063f09ea2a6146104275761011f565b8063779997c3146102c557806382afd23b146102eb5780638a72ea6a146103115780638da5cb5b146103835761011f565b806340e58ee5116100f257806340e58ee5146101d05780634579268a1461020a5780634960645514610264578063557ed1ba1461029957806375f12b21146102bd5761011f565b806307da68f51461012d578063093f51981461013757806313af403514610199578063232cae0b146101c8575b60008061012a6120c8565b50505b61013561046c565b005b61018760048036036080811015610156576000806101536120c8565b50505b506001600160a01b0381358116916020810135909116906001600160801b03604082013581169160600135166104f9565b60405190815260200160405180910390f35b610135600480360360208110156101b8576000806101b56120c8565b50505b50356001600160a01b0316610522565b610187610605565b6101f6600480360360208110156101ef576000806101ec6120c8565b50505b5035610612565b604051901515815260200160405180910390f35b61023060048036036020811015610229576000806102266120c8565b50505b5035610a7b565b6040519384526001600160a01b03928316602085015260408085019290925290911660608301526080909101905180910390f35b61013560048036036040811015610283576000806102806120c8565b50505b50803590602001356001600160801b0316610b77565b6102a1610ba0565b6040516001600160401b03909116815260200160405180910390f35b6101f6610bb0565b610135600480360360208110156102e4576000806102e16120c8565b50505b5035610bc9565b6101f66004803603602081101561030a576000806103076120c8565b50505b5035610e08565b610337600480360360208110156103305760008061032d6120c8565b50505b5035610e47565b6040519586526001600160a01b039485166020870152604080870194909452918416606086015290921660808401526001600160401b0390911660a083015260c0909101905180910390f35b61038b610ef0565b6040516001600160a01b03909116815260200160405180910390f35b610135600480360360208110156103c6576000806103c36120c8565b50505b5035610f0e565b6101f6610f29565b61038b600480360360208110156103f4576000806103f16120c8565b50505b5035610f2e565b6101f66004803603604081101561041a576000806104176120c8565b50505b5080359060200135610f61565b61018760048036036080811015610446576000806104436120c8565b50505b508035906001600160a01b0360208201358116916040810135916060909101351661198c565b61047d5a610478612133565b611ee3565b6104cd5760405162461bcd60e51b8152602060048201526014602482015273191ccb585d5d1a0b5d5b985d5d1a1bdc9a5e995960621b6044820152606401604051809103906104ca6120c8565b50505b60016006600160a01b816104df612188565b8160ff021916908315150217906104f46121d4565b505050565b6000610519836001600160801b031686846001600160801b03168761198c565b95945050505050565b61052e5a610478612133565b61057e5760405162461bcd60e51b8152602060048201526014602482015273191ccb585d5d1a0b5d5b985d5d1a1bdc9a5e995960621b60448201526064016040518091039061057b6120c8565b50505b80600060018161058c612188565b816001600160a01b0302191690836001600160a01b03160217906105ae6121d4565b505050600080906105bd612188565b906101000a90046001600160a01b03166001600160a01b03167fce241d7ca1f669fee44b6fc00b8eba2df3bb514eed0f6f668f8f89096e81ed9460405160405180910390a250565b600161060f612188565b81565b60008161061e81610e08565b6106305760008061062d6120c8565b50505b61063981610f2e565b6001600160a01b03165a61064b612133565b6001600160a01b031614806106635750610663610f29565b610675576000806106726120c8565b50505b60006004610681612188565b906101000a900460ff161561069e5760008061069b6120c8565b50505b6001600481816106ac612188565b8160ff021916908315150217906106c16121d4565b5050506106cc612222565b600084815260026020526040902060405160c081016040529081816106ef612188565b8152602001600060018301610702612188565b6001600160a01b036101009290920a900416815260200160028201610725612188565b8152602001600060038301610738612188565b6001600160a01b036101009290920a900416815260200160006004830161075d612188565b6001600160a01b036101009290920a9004168152602001601460048301610782612188565b6001600160401b036101009290920a9004169052506000858152600260205290915060409020600080826107b46121d4565b5050600182810190816107c5612188565b906001600160a01b03021916906107da6121d4565b5050600282016000906107eb6121d4565b5050600382016001816107fc612188565b906001600160a01b03021916906108116121d4565b505060048201600181610822612188565b906001600160a01b03021916906108376121d4565b505060048201600160a01b8161084b612188565b906001600160401b03021916906108606121d4565b5050505080602001516001600160a01b031663a9059cbb826080015183516040516001600160e01b031960e085901b1681526001600160a01b0390921660048301526024820152604401602060405180830381600087806108bf612256565b1580156108d4576000806108d16120c8565b50505b505a6108de6122a2565b5050505050501580156108fe573d6000803e3d60006108fb6120c8565b50505b505050506040513d602081101561091d5760008061091a6120c8565b50505b810190808051925061093a915050576000806109376120c8565b50505b7fa2c251311b1a7a475913900a2a73dc9789a21b04bc737e050bbc506dd4eb34888460405190815260200160405180910390a180608001516001600160a01b0316816020015182606001516040516001600160601b0319606093841b811660208301529190921b16603482015260480160405160208183030381529060405280519060200120857f9577941d28fff863bfbee4694a6a4a56fb09e169619189d2eaa750b5b481999560208501518560600151865187604001515a6109fc61238d565b6040516001600160a01b0395861681529390941660208401526001600160801b03918216604080850191909152911660608301526001600160401b03909216608082015260a001905180910390a45060019150600060048381610a5d612188565b8160ff02191690831515021790610a726121d4565b50505050919050565b600080600080610a89612222565b600086815260026020526040902060405160c08101604052908181610aac612188565b8152602001600060018301610abf612188565b6001600160a01b036101009290920a900416815260200160028201610ae2612188565b8152602001600060038301610af5612188565b6001600160a01b036101009290920a9004168152602001600060048301610b1a612188565b6001600160a01b036101009290920a9004168152602001601460048301610b3f612188565b6001600160401b036101009290920a900416905250905080518160200151826040015183606001519450945094509450509193509193565b610b8a826001600160801b038316610f61565b610b9c57600080610b996120c8565b50505b5050565b60005a610bab61238d565b905090565b60146006610bbc612188565b906101000a900460ff1681565b80610bd381610e08565b610be557600080610be26120c8565b50505b610bed610f29565b15610c0057600080610bfd6120c8565b50505b60008281526002602052829060409020600401600090610c1e612188565b906101000a90046001600160a01b03166001600160a01b031660026000838152602001908152602001600020600101600090610c58612188565b906101000a90046001600160a01b031660026000848152602001908152602001600020600301600090610c89612188565b906101000a90046001600160a01b03166040516001600160601b0319606093841b811660208301529190921b166034820152604801604051602081830303815290604052805190602001206000838152600260205285907f70a14c213064359ede031fd2a1645a11ce2ec825ffe6ab5cfb5b160c3ef4d0a29060409020600101600090610d14612188565b906101000a90046001600160a01b031660026000878152602001908152602001600020600301600090610d45612188565b906101000a90046001600160a01b031660026000888152602001908152602001600020610d70612188565b6000888152600260205260409020600201610d89612188565b6000898152600260205260409020600401601490610da5612188565b906101000a90046001600160401b03166040516001600160a01b0395861681529390941660208401526001600160801b03918216604080850191909152911660608301526001600160401b03909216608082015260a001905180910390a4505050565b600081815260026020528060408120600401601490610e25612188565b906101000a90046001600160401b03166001600160401b03161190505b919050565b6002602052806000526040600020905080610e60612188565b90600060018201610e6f612188565b906101000a90046001600160a01b03169080600201610e8c612188565b90600060038201610e9b612188565b906101000a90046001600160a01b03169080600401600090610ebb612188565b906101000a90046001600160a01b03169080600401601490610edb612188565b906101000a90046001600160401b0316905086565b600080610efb612188565b906101000a90046001600160a01b031681565b610f1781610612565b610f26576000806104f46120c8565b50565b600090565b6000818152600260205260408120600401600090610f4a612188565b906101000a90046001600160a01b03169050919050565b600082610f6d81610e08565b610f7f57600080610f7c6120c8565b50505b610f87610f29565b15610f9a57600080610f976120c8565b50505b60006004610fa6612188565b906101000a900460ff1615610fc357600080610fc06120c8565b50505b600160048181610fd1612188565b8160ff02191690831515021790610fe66121d4565b505050610ff1612222565b600085815260026020526040902060405160c08101604052908181611014612188565b8152602001600060018301611027612188565b6001600160a01b036101009290920a90041681526020016002820161104a612188565b815260200160006003830161105d612188565b6001600160a01b036101009290920a9004168152602001600060048301611082612188565b6001600160a01b036101009290920a90041681526020016014600483016110a7612188565b6001600160401b036101009290920a9004169052509050600081516110d0868460400151611fa3565b816110d757fe5b04905080816001600160801b0316146111355760405162461bcd60e51b81526020600482015260136024820152721cdc195b99081a5cc81b9bdd08185b881a5b9d606a1b6044820152606401604051809103906111326120c8565b50505b84856001600160801b0316146111935760405162461bcd60e51b81526020600482015260166024820152751c5d585b9d1a5d1e481a5cc81b9bdd08185b881a5b9d60521b6044820152606401604051809103906111906120c8565b50505b84158061119e575080155b806111a95750815185115b806111b75750816040015181115b156111c75760009350505061195e565b60006127106111df8360056111da612188565b611fa3565b816111e657fe5b04905082606001516001600160a01b03166323b872dd5a611205612133565b60006006611211612188565b906101000a90046001600160a01b0316846040516001600160e01b031960e086901b1681526001600160a01b03938416600482015291909216602482015260448101919091526064016020604051808303816000878061126f612256565b158015611284576000806112816120c8565b50505b505a61128e6122a2565b5050505050501580156112ae573d6000803e3d60006112ab6120c8565b50505b505050506040513d60208110156112cd576000806112ca6120c8565b50505b81019080805192506113319150505760405162461bcd60e51b815260206004820152601f60248201527f496e73756666696369656e742066756e647320746f20636f766572206665650060448201526064016040518091039061132e6120c8565b50505b61133c835187612014565b600088815260026020526040902081906113546121d4565b505050611365836040015183612014565b600088815260026020526040902060020181906113806121d4565b50505082606001516001600160a01b03166323b872dd5a61139f612133565b8560800151856040516001600160e01b031960e086901b1681526001600160a01b0393841660048201529190921660248201526044810191909152606401602060405180830381600087806113f2612256565b158015611407576000806114046120c8565b50505b505a6114116122a2565b505050505050158015611431573d6000803e3d600061142e6120c8565b50505b505050506040513d60208110156114505760008061144d6120c8565b50505b810190808051925061149f9150505760405162461bcd60e51b8152600401808060200182810382526062815260200180612407606291396080019150506040518091039061149c6120c8565b50505b82602001516001600160a01b031663a9059cbb5a6114bb612133565b886040516001600160e01b031960e085901b1681526001600160a01b0390921660048301526024820152604401602060405180830381600087806114fd612256565b1580156115125760008061150f6120c8565b50505b505a61151c6122a2565b50505050505015801561153c573d6000803e3d60006115396120c8565b50505b505050506040513d602081101561155b576000806115586120c8565b50505b81019080805192506115aa9150505760405162461bcd60e51b81526004018080602001828103825260338152602001806123d460339139604001915050604051809103906115a76120c8565b50505b7fa2c251311b1a7a475913900a2a73dc9789a21b04bc737e050bbc506dd4eb34888760405190815260200160405180910390a15a6115e6612133565b6001600160a01b031683608001516001600160a01b0316846020015185606001516040516001600160601b0319606093841b811660208301529190921b166034820152604801604051602081830303815290604052805190602001207f3383e3357c77fd2e3a4b30deea81179bc70a795d053d14d5b7f2f01d0fd4596f8a602088015188606001518c895a61167961238d565b6040519586526001600160a01b039485166020870152929093166040808601919091526001600160801b039182166060860152921660808401526001600160401b031660a083015260c0909101905180910390a45a6116d6612133565b6001600160a01b031683608001516001600160a01b0316846020015185606001516040516001600160601b0319606093841b811660208301529190921b166034820152604801604051602081830303815290604052805190602001207f0ae463beeed705bdba735cc0f80a21bc43e39fa85611fbceb6e509ca190cc6e28a602088015188606001518c89896000600661176d612188565b906101000a90046001600160a01b03165a61178661238d565b6040519788526001600160a01b0396871660208901529486166040808901919091526001600160801b03948516606089015292909316608087015260a0860152921660c08401526001600160401b031660e0830152610100909101905180910390a482606001516001600160a01b031683602001516001600160a01b03167f819e390338feffe95e2de57172d6faf337853dfd15c7a09a32d76f7fd2443875888560405191825260208201526040908101905180910390a36000878152600260205260409020611854612188565b611956576000878152600260205260409020600080826118726121d4565b505060018281019081611883612188565b906001600160a01b03021916906118986121d4565b5050600282016000906118a96121d4565b5050600382016001816118ba612188565b906001600160a01b03021916906118cf6121d4565b5050600482016001816118e0612188565b906001600160a01b03021916906118f56121d4565b505060048201600160a01b81611909612188565b906001600160401b030219169061191e6121d4565b505050507f88686b85d6f2c3ab9a04e4f15a22fcfa025ffd97226dcf0a67cdf682def556768760405190815260200160405180910390a15b600194505050505b6000600460018161196d612188565b8160ff021916908315150217906119826121d4565b5050505092915050565b6000611996610f29565b156119a9576000806119a66120c8565b50505b600060046119b5612188565b906101000a900460ff16156119d2576000806119cf6120c8565b50505b6001600481816119e0612188565b8160ff021916908315150217906119f56121d4565b5050508382611a0382612069565b611a1557600080611a126120c8565b50505b611a1e81612069565b611a3057600080611a2d6120c8565b50505b86876001600160801b031614611a4e57600080611a4b6120c8565b50505b84856001600160801b031614611a6c57600080611a696120c8565b50505b60008711611a8257600080611a7f6120c8565b50505b6001600160a01b038616611a9e57600080611a9b6120c8565b50505b60008511611ab457600080611ab16120c8565b50505b6001600160a01b038416611ad057600080611acd6120c8565b50505b836001600160a01b0316866001600160a01b03161415611af857600080611af56120c8565b50505b611b00612222565b8781526001600160a01b03808816602083015260408201879052851660608201525a611b2a612133565b6001600160a01b031660808201525a611b4161238d565b6001600160401b031660a0820152611b5761209d565b60008181526002602052909450819060409020815181611b756121d4565b5050602082015160018083019081611b8b612188565b816001600160a01b0302191690836001600160a01b0316021790611bad6121d4565b505050604082015181600201611bc16121d4565b5050606082015160038201600181611bd7612188565b816001600160a01b0302191690836001600160a01b0316021790611bf96121d4565b505050608082015160048201600181611c10612188565b816001600160a01b0302191690836001600160a01b0316021790611c326121d4565b50505060a082015160048201600160a01b81611c4c612188565b816001600160401b0302191690836001600160401b0316021790611c6e6121d4565b505050905050866001600160a01b03166323b872dd5a611c8c612133565b5a63996d79a5598160e01b8152602081600483336000905af158601d01573d60011458600c01573d6000803e3d621234565260ea61109c528051925060005b6040811015611ce257600082820152602001611ccb565b5050508b6040516001600160e01b031960e086901b1681526001600160a01b039384166004820152919092166024820152604481019190915260640160206040518083038160008780611d33612256565b158015611d4857600080611d456120c8565b50505b505a611d526122a2565b505050505050158015611d72573d6000803e3d6000611d6f6120c8565b50505b505050506040513d6020811015611d9157600080611d8e6120c8565b50505b8101908080519250611dae91505057600080611dab6120c8565b50505b7fa2c251311b1a7a475913900a2a73dc9789a21b04bc737e050bbc506dd4eb34888460405190815260200160405180910390a15a611dea612133565b6001600160a01b031687866040516001600160601b0319606093841b811660208301529190921b16603482015260480160405160208183030381529060405280519060200120857f773ff502687307abfa024ac9f62f9752a0d210dac2ffd9a29e38e12e2ea82c828a898d8c5a611e5f61238d565b6040516001600160a01b0395861681529390941660208401526001600160801b03918216604080850191909152911660608301526001600160401b03909216608082015260a001905180910390a45050506000600460006101000a81611ec3612188565b8160ff02191690831515021790611ed86121d4565b505050949350505050565b60005a63996d79a5598160e01b8152602081600483336000905af158601d01573d60011458600c01573d6000803e3d621234565260ea61109c528051925060005b6040811015611f3b57600082820152602001611f24565b5050506001600160a01b0316826001600160a01b03161415611f5f57506001610e42565b600080611f6a612188565b906101000a90046001600160a01b03166001600160a01b0316826001600160a01b03161415611f9b57506001610e42565b506000610e42565b6000811580611fbe57505080820282828281611fbb57fe5b04145b61200e5760405162461bcd60e51b815260206004820152601460248201527364732d6d6174682d6d756c2d6f766572666c6f7760601b60448201526064016040518091039061200b6120c8565b50505b92915050565b8082038281111561200e5760405162461bcd60e51b815260206004820152601560248201527464732d6d6174682d7375622d756e646572666c6f7760581b60448201526064016040518091039061200b6120c8565b6001600160a01b038116600090815260036020526040812060009061208c612188565b906101000a900460ff169050919050565b600060016000816120ac612188565b916001830191506120bb6121d4565b5050506001610bab612188565b632a2a7adb598160e01b8152600481016020815285602082015260005b868110156121005780860151828201604001526020016120e5565b506020828760640184336000905af158601d01573d60011458600c01573d6000803e3d621234565260ea61109c52505050565b6373509064598160e01b8152602081600483336000905af158601d01573d60011458600c01573d6000803e3d621234565260ea61109c528051935060005b60408110156104f457600082820152602001612171565b6303daa959598160e01b8152836004820152602081602483336000905af158601d01573d60011458600c01573d6000803e3d621234565260ea61109c5280516000825293506020612171565b6322bd64c0598160e01b8152836004820152846024820152600081604483336000905af158601d01573d60011458600c01573d6000803e3d621234565260ea61109c52600081526020612171565b60405160c081016040908152600080835260208301819052908201819052606082018190526080820181905260a082015290565b638435035b598160e01b8152836004820152602081602483336000905af158601d01573d60011458600c01573d6000803e3d621234565260ea61109c5280516000825293506020612171565b6385979f76598160e01b81526122d3565b808083111561200e575090919050565b808083101561200e575090919050565b836004820152846024820152606060448201528760648201526084810160005b8981101561230b5780890151828201526020016122f3565b506060828a60a40184336000905af158601d01573d60011458600c01573d6000803e3d621234565260ea61109c52815160408301513d6000853e8c8c82606087013350600060045af150596123608e3d6122c3565b8d0161236c81876122b3565b5b82811015612381576000815260200161236d565b50929d50505050505050565b63bdbf8c36598160e01b8152602081600483336000905af158601d01573d60011458600c01573d6000803e3d621234565260ea61109c528051600082529350602061217156fe6f666665722e7061795f67656d2e7472616e73666572286d73672e73656e6465722c207175616e7469747929206661696c65646f666665722e6275795f67656d2e7472616e7366657246726f6d286d73672e73656e6465722c206f666665722e6f776e65722c207370656e6429206661696c6564202d20636865636b207468617420796f752063616e207061792074686520666565",
  "linkReferences": {},
  "deployedLinkReferences": {}
}