{
  "_format": "hh-sol-artifact-1",
  "contractName": "RubiconMarket",
  "sourceName": "contracts/RubiconMarket.sol",
  "abi": [
    {
      "anonymous": false,
      "inputs": [
        {
          "indexed": false,
          "internalType": "bytes32",
          "name": "id",
          "type": "bytes32"
        },
        {
          "indexed": true,
          "internalType": "bytes32",
          "name": "pair",
          "type": "bytes32"
        },
        {
          "indexed": true,
          "internalType": "address",
          "name": "maker",
          "type": "address"
        },
        {
          "indexed": false,
          "internalType": "contract ERC20",
          "name": "pay_gem",
          "type": "address"
        },
        {
          "indexed": false,
          "internalType": "contract ERC20",
          "name": "buy_gem",
          "type": "address"
        },
        {
          "indexed": true,
          "internalType": "address",
          "name": "taker",
          "type": "address"
        },
        {
          "indexed": false,
          "internalType": "uint128",
          "name": "take_amt",
          "type": "uint128"
        },
        {
          "indexed": false,
          "internalType": "uint128",
          "name": "give_amt",
          "type": "uint128"
        },
        {
          "indexed": false,
          "internalType": "uint256",
          "name": "feeAmt",
          "type": "uint256"
        },
        {
          "indexed": false,
          "internalType": "address",
          "name": "feeTo",
          "type": "address"
        },
        {
          "indexed": false,
          "internalType": "uint64",
          "name": "timestamp",
          "type": "uint64"
        }
      ],
      "name": "FeeTake",
      "type": "event"
    },
    {
      "anonymous": false,
      "inputs": [
        {
          "indexed": true,
          "internalType": "bytes32",
          "name": "id",
          "type": "bytes32"
        },
        {
          "indexed": true,
          "internalType": "bytes32",
          "name": "pair",
          "type": "bytes32"
        },
        {
          "indexed": true,
          "internalType": "address",
          "name": "maker",
          "type": "address"
        },
        {
          "indexed": false,
          "internalType": "contract ERC20",
          "name": "pay_gem",
          "type": "address"
        },
        {
          "indexed": false,
          "internalType": "contract ERC20",
          "name": "buy_gem",
          "type": "address"
        },
        {
          "indexed": false,
          "internalType": "uint128",
          "name": "pay_amt",
          "type": "uint128"
        },
        {
          "indexed": false,
          "internalType": "uint128",
          "name": "buy_amt",
          "type": "uint128"
        },
        {
          "indexed": false,
          "internalType": "uint64",
          "name": "timestamp",
          "type": "uint64"
        }
      ],
      "name": "LogBump",
      "type": "event"
    },
    {
      "anonymous": false,
      "inputs": [
        {
          "indexed": false,
          "internalType": "bool",
          "name": "isEnabled",
          "type": "bool"
        }
      ],
      "name": "LogBuyEnabled",
      "type": "event"
    },
    {
      "anonymous": false,
      "inputs": [
        {
          "indexed": false,
          "internalType": "address",
          "name": "keeper",
          "type": "address"
        },
        {
          "indexed": false,
          "internalType": "uint256",
          "name": "id",
          "type": "uint256"
        }
      ],
      "name": "LogDelete",
      "type": "event"
    },
    {
      "anonymous": false,
      "inputs": [
        {
          "indexed": false,
          "internalType": "address",
          "name": "keeper",
          "type": "address"
        },
        {
          "indexed": false,
          "internalType": "uint256",
          "name": "id",
          "type": "uint256"
        }
      ],
      "name": "LogInsert",
      "type": "event"
    },
    {
      "anonymous": false,
      "inputs": [
        {
          "indexed": false,
          "internalType": "string",
          "name": "lol",
          "type": "string"
        },
        {
          "indexed": false,
          "internalType": "uint256",
          "name": "input",
          "type": "uint256"
        }
      ],
      "name": "LogInt",
      "type": "event"
    },
    {
      "anonymous": false,
      "inputs": [
        {
          "indexed": false,
          "internalType": "uint256",
          "name": "id",
          "type": "uint256"
        }
      ],
      "name": "LogItemUpdate",
      "type": "event"
    },
    {
      "anonymous": false,
      "inputs": [
        {
          "indexed": true,
          "internalType": "bytes32",
          "name": "id",
          "type": "bytes32"
        },
        {
          "indexed": true,
          "internalType": "bytes32",
          "name": "pair",
          "type": "bytes32"
        },
        {
          "indexed": true,
          "internalType": "address",
          "name": "maker",
          "type": "address"
        },
        {
          "indexed": false,
          "internalType": "contract ERC20",
          "name": "pay_gem",
          "type": "address"
        },
        {
          "indexed": false,
          "internalType": "contract ERC20",
          "name": "buy_gem",
          "type": "address"
        },
        {
          "indexed": false,
          "internalType": "uint128",
          "name": "pay_amt",
          "type": "uint128"
        },
        {
          "indexed": false,
          "internalType": "uint128",
          "name": "buy_amt",
          "type": "uint128"
        },
        {
          "indexed": false,
          "internalType": "uint64",
          "name": "timestamp",
          "type": "uint64"
        }
      ],
      "name": "LogKill",
      "type": "event"
    },
    {
      "anonymous": false,
      "inputs": [
        {
          "indexed": true,
          "internalType": "bytes32",
          "name": "id",
          "type": "bytes32"
        },
        {
          "indexed": true,
          "internalType": "bytes32",
          "name": "pair",
          "type": "bytes32"
        },
        {
          "indexed": true,
          "internalType": "address",
          "name": "maker",
          "type": "address"
        },
        {
          "indexed": false,
          "internalType": "contract ERC20",
          "name": "pay_gem",
          "type": "address"
        },
        {
          "indexed": false,
          "internalType": "contract ERC20",
          "name": "buy_gem",
          "type": "address"
        },
        {
          "indexed": false,
          "internalType": "uint128",
          "name": "pay_amt",
          "type": "uint128"
        },
        {
          "indexed": false,
          "internalType": "uint128",
          "name": "buy_amt",
          "type": "uint128"
        },
        {
          "indexed": false,
          "internalType": "uint64",
          "name": "timestamp",
          "type": "uint64"
        }
      ],
      "name": "LogMake",
      "type": "event"
    },
    {
      "anonymous": false,
      "inputs": [
        {
          "indexed": false,
          "internalType": "uint256",
          "name": "id",
          "type": "uint256"
        },
        {
          "indexed": false,
          "internalType": "uint256",
          "name": "amount",
          "type": "uint256"
        }
      ],
      "name": "LogMatch",
      "type": "event"
    },
    {
      "anonymous": false,
      "inputs": [
        {
          "indexed": false,
          "internalType": "bool",
          "name": "isEnabled",
          "type": "bool"
        }
      ],
      "name": "LogMatchingEnabled",
      "type": "event"
    },
    {
      "anonymous": false,
      "inputs": [
        {
          "indexed": false,
          "internalType": "address",
          "name": "pay_gem",
          "type": "address"
        },
        {
          "indexed": false,
          "internalType": "uint256",
          "name": "min_amount",
          "type": "uint256"
        }
      ],
      "name": "LogMinSell",
      "type": "event"
    },
    {
      "anonymous": true,
      "inputs": [
        {
          "indexed": true,
          "internalType": "bytes4",
          "name": "sig",
          "type": "bytes4"
        },
        {
          "indexed": true,
          "internalType": "address",
          "name": "guy",
          "type": "address"
        },
        {
          "indexed": true,
          "internalType": "bytes32",
          "name": "foo",
          "type": "bytes32"
        },
        {
          "indexed": true,
          "internalType": "bytes32",
          "name": "bar",
          "type": "bytes32"
        },
        {
          "indexed": false,
          "internalType": "uint256",
          "name": "wad",
          "type": "uint256"
        },
        {
          "indexed": false,
          "internalType": "bytes",
          "name": "fax",
          "type": "bytes"
        }
      ],
      "name": "LogNote",
      "type": "event"
    },
    {
      "anonymous": false,
      "inputs": [
        {
          "indexed": true,
          "internalType": "address",
          "name": "authority",
          "type": "address"
        }
      ],
      "name": "LogSetAuthority",
      "type": "event"
    },
    {
      "anonymous": false,
      "inputs": [
        {
          "indexed": true,
          "internalType": "address",
          "name": "owner",
          "type": "address"
        }
      ],
      "name": "LogSetOwner",
      "type": "event"
    },
    {
      "anonymous": false,
      "inputs": [
        {
          "indexed": false,
          "internalType": "uint256",
          "name": "id",
          "type": "uint256"
        }
      ],
      "name": "LogSortedOffer",
      "type": "event"
    },
    {
      "anonymous": false,
      "inputs": [
        {
          "indexed": false,
          "internalType": "bytes32",
          "name": "id",
          "type": "bytes32"
        },
        {
          "indexed": true,
          "internalType": "bytes32",
          "name": "pair",
          "type": "bytes32"
        },
        {
          "indexed": true,
          "internalType": "address",
          "name": "maker",
          "type": "address"
        },
        {
          "indexed": false,
          "internalType": "contract ERC20",
          "name": "pay_gem",
          "type": "address"
        },
        {
          "indexed": false,
          "internalType": "contract ERC20",
          "name": "buy_gem",
          "type": "address"
        },
        {
          "indexed": true,
          "internalType": "address",
          "name": "taker",
          "type": "address"
        },
        {
          "indexed": false,
          "internalType": "uint128",
          "name": "take_amt",
          "type": "uint128"
        },
        {
          "indexed": false,
          "internalType": "uint128",
          "name": "give_amt",
          "type": "uint128"
        },
        {
          "indexed": false,
          "internalType": "uint64",
          "name": "timestamp",
          "type": "uint64"
        }
      ],
      "name": "LogTake",
      "type": "event"
    },
    {
      "anonymous": false,
      "inputs": [
        {
          "indexed": false,
          "internalType": "uint256",
          "name": "pay_amt",
          "type": "uint256"
        },
        {
          "indexed": true,
          "internalType": "address",
          "name": "pay_gem",
          "type": "address"
        },
        {
          "indexed": false,
          "internalType": "uint256",
          "name": "buy_amt",
          "type": "uint256"
        },
        {
          "indexed": true,
          "internalType": "address",
          "name": "buy_gem",
          "type": "address"
        }
      ],
      "name": "LogTrade",
      "type": "event"
    },
    {
      "anonymous": false,
      "inputs": [
        {
          "indexed": false,
          "internalType": "uint256",
          "name": "id",
          "type": "uint256"
        }
      ],
      "name": "LogUnsortedOffer",
      "type": "event"
    },
    {
      "anonymous": false,
      "inputs": [
        {
          "indexed": false,
          "internalType": "uint256",
          "name": "id",
          "type": "uint256"
        }
      ],
      "name": "OfferDeleted",
      "type": "event"
    },
    {
      "constant": true,
      "inputs": [],
      "name": "AqueductAddress",
      "outputs": [
        {
          "internalType": "address",
          "name": "",
          "type": "address"
        }
      ],
      "payable": false,
      "stateMutability": "view",
      "type": "function"
    },
    {
      "constant": true,
      "inputs": [],
      "name": "AqueductDistributionLive",
      "outputs": [
        {
          "internalType": "bool",
          "name": "",
          "type": "bool"
        }
      ],
      "payable": false,
      "stateMutability": "view",
      "type": "function"
    },
    {
      "constant": true,
      "inputs": [
        {
          "internalType": "address",
          "name": "",
          "type": "address"
        },
        {
          "internalType": "address",
          "name": "",
          "type": "address"
        }
      ],
      "name": "_best",
      "outputs": [
        {
          "internalType": "uint256",
          "name": "",
          "type": "uint256"
        }
      ],
      "payable": false,
      "stateMutability": "view",
      "type": "function"
    },
    {
      "constant": true,
      "inputs": [
        {
          "internalType": "address",
          "name": "",
          "type": "address"
        }
      ],
      "name": "_dust",
      "outputs": [
        {
          "internalType": "uint256",
          "name": "",
          "type": "uint256"
        }
      ],
      "payable": false,
      "stateMutability": "view",
      "type": "function"
    },
    {
      "constant": true,
      "inputs": [
        {
          "internalType": "uint256",
          "name": "",
          "type": "uint256"
        }
      ],
      "name": "_near",
      "outputs": [
        {
          "internalType": "uint256",
          "name": "",
          "type": "uint256"
        }
      ],
      "payable": false,
      "stateMutability": "view",
      "type": "function"
    },
    {
      "constant": true,
      "inputs": [
        {
          "internalType": "uint256",
          "name": "",
          "type": "uint256"
        }
      ],
      "name": "_rank",
      "outputs": [
        {
          "internalType": "uint256",
          "name": "next",
          "type": "uint256"
        },
        {
          "internalType": "uint256",
          "name": "prev",
          "type": "uint256"
        },
        {
          "internalType": "uint256",
          "name": "delb",
          "type": "uint256"
        }
      ],
      "payable": false,
      "stateMutability": "view",
      "type": "function"
    },
    {
      "constant": true,
      "inputs": [
        {
          "internalType": "address",
          "name": "",
          "type": "address"
        },
        {
          "internalType": "address",
          "name": "",
          "type": "address"
        }
      ],
      "name": "_span",
      "outputs": [
        {
          "internalType": "uint256",
          "name": "",
          "type": "uint256"
        }
      ],
      "payable": false,
      "stateMutability": "view",
      "type": "function"
    },
    {
      "constant": false,
      "inputs": [
        {
          "internalType": "address",
          "name": "addition",
          "type": "address"
        }
      ],
      "name": "addToWhitelist",
      "outputs": [],
      "payable": false,
      "stateMutability": "nonpayable",
      "type": "function"
    },
    {
      "constant": false,
      "inputs": [
        {
          "internalType": "bytes32",
          "name": "id_",
          "type": "bytes32"
        }
      ],
      "name": "bump",
      "outputs": [],
      "payable": false,
      "stateMutability": "nonpayable",
      "type": "function"
    },
    {
      "constant": false,
      "inputs": [
        {
          "internalType": "uint256",
          "name": "id",
          "type": "uint256"
        },
        {
          "internalType": "uint256",
          "name": "amount",
          "type": "uint256"
        }
      ],
      "name": "buy",
      "outputs": [
        {
          "internalType": "bool",
          "name": "",
          "type": "bool"
        }
      ],
      "payable": false,
      "stateMutability": "nonpayable",
      "type": "function"
    },
    {
      "constant": false,
      "inputs": [
        {
          "internalType": "contract ERC20",
          "name": "buy_gem",
          "type": "address"
        },
        {
          "internalType": "uint256",
          "name": "buy_amt",
          "type": "uint256"
        },
        {
          "internalType": "contract ERC20",
          "name": "pay_gem",
          "type": "address"
        },
        {
          "internalType": "uint256",
          "name": "max_fill_amount",
          "type": "uint256"
        }
      ],
      "name": "buyAllAmount",
      "outputs": [
        {
          "internalType": "uint256",
          "name": "fill_amt",
          "type": "uint256"
        }
      ],
      "payable": false,
      "stateMutability": "nonpayable",
      "type": "function"
    },
    {
      "constant": true,
      "inputs": [],
      "name": "buyEnabled",
      "outputs": [
        {
          "internalType": "bool",
          "name": "",
          "type": "bool"
        }
      ],
      "payable": false,
      "stateMutability": "view",
      "type": "function"
    },
    {
      "constant": false,
      "inputs": [
        {
          "internalType": "uint256",
          "name": "id",
          "type": "uint256"
        }
      ],
      "name": "cancel",
      "outputs": [
        {
          "internalType": "bool",
          "name": "success",
          "type": "bool"
        }
      ],
      "payable": false,
      "stateMutability": "nonpayable",
      "type": "function"
    },
    {
      "constant": false,
      "inputs": [
        {
          "internalType": "uint256",
          "name": "id",
          "type": "uint256"
        }
      ],
      "name": "del_rank",
      "outputs": [
        {
          "internalType": "bool",
          "name": "",
          "type": "bool"
        }
      ],
      "payable": false,
      "stateMutability": "nonpayable",
      "type": "function"
    },
    {
      "constant": true,
      "inputs": [],
      "name": "dustId",
      "outputs": [
        {
          "internalType": "uint256",
          "name": "",
          "type": "uint256"
        }
      ],
      "payable": false,
      "stateMutability": "view",
      "type": "function"
    },
    {
      "constant": true,
      "inputs": [
        {
          "internalType": "contract ERC20",
          "name": "sell_gem",
          "type": "address"
        },
        {
          "internalType": "contract ERC20",
          "name": "buy_gem",
          "type": "address"
        }
      ],
      "name": "getBestOffer",
      "outputs": [
        {
          "internalType": "uint256",
          "name": "",
          "type": "uint256"
        }
      ],
      "payable": false,
      "stateMutability": "view",
      "type": "function"
    },
    {
      "constant": true,
      "inputs": [
        {
          "internalType": "uint256",
          "name": "id",
          "type": "uint256"
        }
      ],
      "name": "getBetterOffer",
      "outputs": [
        {
          "internalType": "uint256",
          "name": "",
          "type": "uint256"
        }
      ],
      "payable": false,
      "stateMutability": "view",
      "type": "function"
    },
    {
      "constant": true,
      "inputs": [
        {
          "internalType": "contract ERC20",
          "name": "buy_gem",
          "type": "address"
        },
        {
          "internalType": "contract ERC20",
          "name": "pay_gem",
          "type": "address"
        },
        {
          "internalType": "uint256",
          "name": "pay_amt",
          "type": "uint256"
        }
      ],
      "name": "getBuyAmount",
      "outputs": [
        {
          "internalType": "uint256",
          "name": "fill_amt",
          "type": "uint256"
        }
      ],
      "payable": false,
      "stateMutability": "view",
      "type": "function"
    },
    {
      "constant": true,
      "inputs": [],
      "name": "getFirstUnsortedOffer",
      "outputs": [
        {
          "internalType": "uint256",
          "name": "",
          "type": "uint256"
        }
      ],
      "payable": false,
      "stateMutability": "view",
      "type": "function"
    },
    {
      "constant": true,
      "inputs": [
        {
          "internalType": "contract ERC20",
          "name": "pay_gem",
          "type": "address"
        }
      ],
      "name": "getMinSell",
      "outputs": [
        {
          "internalType": "uint256",
          "name": "",
          "type": "uint256"
        }
      ],
      "payable": false,
      "stateMutability": "view",
      "type": "function"
    },
    {
      "constant": true,
      "inputs": [
        {
          "internalType": "uint256",
          "name": "id",
          "type": "uint256"
        }
      ],
      "name": "getNextUnsortedOffer",
      "outputs": [
        {
          "internalType": "uint256",
          "name": "",
          "type": "uint256"
        }
      ],
      "payable": false,
      "stateMutability": "view",
      "type": "function"
    },
    {
      "constant": true,
      "inputs": [
        {
          "internalType": "uint256",
          "name": "id",
          "type": "uint256"
        }
      ],
      "name": "getOffer",
      "outputs": [
        {
          "internalType": "uint256",
          "name": "",
          "type": "uint256"
        },
        {
          "internalType": "contract ERC20",
          "name": "",
          "type": "address"
        },
        {
          "internalType": "uint256",
          "name": "",
          "type": "uint256"
        },
        {
          "internalType": "contract ERC20",
          "name": "",
          "type": "address"
        }
      ],
      "payable": false,
      "stateMutability": "view",
      "type": "function"
    },
    {
      "constant": true,
      "inputs": [
        {
          "internalType": "contract ERC20",
          "name": "sell_gem",
          "type": "address"
        },
        {
          "internalType": "contract ERC20",
          "name": "buy_gem",
          "type": "address"
        }
      ],
      "name": "getOfferCount",
      "outputs": [
        {
          "internalType": "uint256",
          "name": "",
          "type": "uint256"
        }
      ],
      "payable": false,
      "stateMutability": "view",
      "type": "function"
    },
    {
      "constant": true,
      "inputs": [
        {
          "internalType": "uint256",
          "name": "id",
          "type": "uint256"
        }
      ],
      "name": "getOwner",
      "outputs": [
        {
          "internalType": "address",
          "name": "owner",
          "type": "address"
        }
      ],
      "payable": false,
      "stateMutability": "view",
      "type": "function"
    },
    {
      "constant": true,
      "inputs": [
        {
          "internalType": "contract ERC20",
          "name": "pay_gem",
          "type": "address"
        },
        {
          "internalType": "contract ERC20",
          "name": "buy_gem",
          "type": "address"
        },
        {
          "internalType": "uint256",
          "name": "buy_amt",
          "type": "uint256"
        }
      ],
      "name": "getPayAmount",
      "outputs": [
        {
          "internalType": "uint256",
          "name": "fill_amt",
          "type": "uint256"
        }
      ],
      "payable": false,
      "stateMutability": "view",
      "type": "function"
    },
    {
      "constant": true,
      "inputs": [],
      "name": "getTime",
      "outputs": [
        {
          "internalType": "uint64",
          "name": "",
          "type": "uint64"
        }
      ],
      "payable": false,
      "stateMutability": "view",
      "type": "function"
    },
    {
      "constant": true,
      "inputs": [
        {
          "internalType": "uint256",
          "name": "id",
          "type": "uint256"
        }
      ],
      "name": "getWorseOffer",
      "outputs": [
        {
          "internalType": "uint256",
          "name": "",
          "type": "uint256"
        }
      ],
      "payable": false,
      "stateMutability": "view",
      "type": "function"
    },
    {
      "constant": false,
      "inputs": [
        {
          "internalType": "bool",
          "name": "RBCNDist",
          "type": "bool"
        },
        {
          "internalType": "address",
          "name": "_feeTo",
          "type": "address"
        }
      ],
      "name": "initialize",
      "outputs": [],
      "payable": false,
      "stateMutability": "nonpayable",
      "type": "function"
    },
    {
      "constant": true,
      "inputs": [],
      "name": "initialized",
      "outputs": [
        {
          "internalType": "bool",
          "name": "",
          "type": "bool"
        }
      ],
      "payable": false,
      "stateMutability": "view",
      "type": "function"
    },
    {
      "constant": false,
      "inputs": [
        {
          "internalType": "uint256",
          "name": "id",
          "type": "uint256"
        },
        {
          "internalType": "uint256",
          "name": "pos",
          "type": "uint256"
        }
      ],
      "name": "insert",
      "outputs": [
        {
          "internalType": "bool",
          "name": "",
          "type": "bool"
        }
      ],
      "payable": false,
      "stateMutability": "nonpayable",
      "type": "function"
    },
    {
      "constant": true,
      "inputs": [
        {
          "internalType": "uint256",
          "name": "id",
          "type": "uint256"
        }
      ],
      "name": "isActive",
      "outputs": [
        {
          "internalType": "bool",
          "name": "active",
          "type": "bool"
        }
      ],
      "payable": false,
      "stateMutability": "view",
      "type": "function"
    },
    {
      "constant": true,
      "inputs": [],
      "name": "isClosed",
      "outputs": [
        {
          "internalType": "bool",
          "name": "closed",
          "type": "bool"
        }
      ],
      "payable": false,
      "stateMutability": "pure",
      "type": "function"
    },
    {
      "constant": true,
      "inputs": [
        {
          "internalType": "uint256",
          "name": "id",
          "type": "uint256"
        }
      ],
      "name": "isOfferSorted",
      "outputs": [
        {
          "internalType": "bool",
          "name": "",
          "type": "bool"
        }
      ],
      "payable": false,
      "stateMutability": "view",
      "type": "function"
    },
    {
      "constant": false,
      "inputs": [
        {
          "internalType": "bytes32",
          "name": "id",
          "type": "bytes32"
        }
      ],
      "name": "kill",
      "outputs": [],
      "payable": false,
      "stateMutability": "nonpayable",
      "type": "function"
    },
    {
      "constant": true,
      "inputs": [],
      "name": "last_offer_id",
      "outputs": [
        {
          "internalType": "uint256",
          "name": "",
          "type": "uint256"
        }
      ],
      "payable": false,
      "stateMutability": "view",
      "type": "function"
    },
    {
      "constant": false,
      "inputs": [
        {
          "internalType": "contract ERC20",
          "name": "pay_gem",
          "type": "address"
        },
        {
          "internalType": "contract ERC20",
          "name": "buy_gem",
          "type": "address"
        },
        {
          "internalType": "uint128",
          "name": "pay_amt",
          "type": "uint128"
        },
        {
          "internalType": "uint128",
          "name": "buy_amt",
          "type": "uint128"
        }
      ],
      "name": "make",
      "outputs": [
        {
          "internalType": "bytes32",
          "name": "",
          "type": "bytes32"
        }
      ],
      "payable": false,
      "stateMutability": "nonpayable",
      "type": "function"
    },
    {
      "constant": true,
      "inputs": [],
      "name": "matchingEnabled",
      "outputs": [
        {
          "internalType": "bool",
          "name": "",
          "type": "bool"
        }
      ],
      "payable": false,
      "stateMutability": "view",
      "type": "function"
    },
    {
      "constant": false,
      "inputs": [
        {
          "internalType": "uint256",
          "name": "pay_amt",
          "type": "uint256"
        },
        {
          "internalType": "contract ERC20",
          "name": "pay_gem",
          "type": "address"
        },
        {
          "internalType": "uint256",
          "name": "buy_amt",
          "type": "uint256"
        },
        {
          "internalType": "contract ERC20",
          "name": "buy_gem",
          "type": "address"
        },
        {
          "internalType": "uint256",
          "name": "pos",
          "type": "uint256"
        }
      ],
      "name": "offer",
      "outputs": [
        {
          "internalType": "uint256",
          "name": "",
          "type": "uint256"
        }
      ],
      "payable": false,
      "stateMutability": "nonpayable",
      "type": "function"
    },
    {
      "constant": false,
      "inputs": [
        {
          "internalType": "uint256",
          "name": "pay_amt",
          "type": "uint256"
        },
        {
          "internalType": "contract ERC20",
          "name": "pay_gem",
          "type": "address"
        },
        {
          "internalType": "uint256",
          "name": "buy_amt",
          "type": "uint256"
        },
        {
          "internalType": "contract ERC20",
          "name": "buy_gem",
          "type": "address"
        },
        {
          "internalType": "uint256",
          "name": "pos",
          "type": "uint256"
        },
        {
          "internalType": "bool",
          "name": "matching",
          "type": "bool"
        }
      ],
      "name": "offer",
      "outputs": [
        {
          "internalType": "uint256",
          "name": "",
          "type": "uint256"
        }
      ],
      "payable": false,
      "stateMutability": "nonpayable",
      "type": "function"
    },
    {
      "constant": false,
      "inputs": [
        {
          "internalType": "uint256",
          "name": "pay_amt",
          "type": "uint256"
        },
        {
          "internalType": "contract ERC20",
          "name": "pay_gem",
          "type": "address"
        },
        {
          "internalType": "uint256",
          "name": "buy_amt",
          "type": "uint256"
        },
        {
          "internalType": "contract ERC20",
          "name": "buy_gem",
          "type": "address"
        }
      ],
      "name": "offer",
      "outputs": [
        {
          "internalType": "uint256",
          "name": "",
          "type": "uint256"
        }
      ],
      "payable": false,
      "stateMutability": "nonpayable",
      "type": "function"
    },
    {
      "constant": true,
      "inputs": [
        {
          "internalType": "uint256",
          "name": "",
          "type": "uint256"
        }
      ],
      "name": "offers",
      "outputs": [
        {
          "internalType": "uint256",
          "name": "pay_amt",
          "type": "uint256"
        },
        {
          "internalType": "contract ERC20",
          "name": "pay_gem",
          "type": "address"
        },
        {
          "internalType": "uint256",
          "name": "buy_amt",
          "type": "uint256"
        },
        {
          "internalType": "contract ERC20",
          "name": "buy_gem",
          "type": "address"
        },
        {
          "internalType": "address",
          "name": "owner",
          "type": "address"
        },
        {
          "internalType": "uint64",
          "name": "timestamp",
          "type": "uint64"
        }
      ],
      "payable": false,
      "stateMutability": "view",
      "type": "function"
    },
    {
      "constant": true,
      "inputs": [],
      "name": "owner",
      "outputs": [
        {
          "internalType": "address",
          "name": "",
          "type": "address"
        }
      ],
      "payable": false,
      "stateMutability": "view",
      "type": "function"
    },
    {
      "constant": false,
      "inputs": [
        {
          "internalType": "address",
          "name": "remove",
          "type": "address"
        }
      ],
      "name": "removeFromWhitelist",
      "outputs": [],
      "payable": false,
      "stateMutability": "nonpayable",
      "type": "function"
    },
    {
      "constant": false,
      "inputs": [
        {
          "internalType": "contract ERC20",
          "name": "pay_gem",
          "type": "address"
        },
        {
          "internalType": "uint256",
          "name": "pay_amt",
          "type": "uint256"
        },
        {
          "internalType": "contract ERC20",
          "name": "buy_gem",
          "type": "address"
        },
        {
          "internalType": "uint256",
          "name": "min_fill_amount",
          "type": "uint256"
        }
      ],
      "name": "sellAllAmount",
      "outputs": [
        {
          "internalType": "uint256",
          "name": "fill_amt",
          "type": "uint256"
        }
      ],
      "payable": false,
      "stateMutability": "nonpayable",
      "type": "function"
    },
    {
      "constant": false,
      "inputs": [
        {
          "internalType": "address",
          "name": "_Aqueduct",
          "type": "address"
        }
      ],
      "name": "setAqueductAddress",
      "outputs": [
        {
          "internalType": "bool",
          "name": "",
          "type": "bool"
        }
      ],
      "payable": false,
      "stateMutability": "nonpayable",
      "type": "function"
    },
    {
      "constant": false,
      "inputs": [
        {
          "internalType": "bool",
          "name": "live",
          "type": "bool"
        }
      ],
      "name": "setAqueductDistributionLive",
      "outputs": [
        {
          "internalType": "bool",
          "name": "",
          "type": "bool"
        }
      ],
      "payable": false,
      "stateMutability": "nonpayable",
      "type": "function"
    },
    {
      "constant": false,
      "inputs": [
        {
          "internalType": "bool",
          "name": "buyEnabled_",
          "type": "bool"
        }
      ],
      "name": "setBuyEnabled",
      "outputs": [
        {
          "internalType": "bool",
          "name": "",
          "type": "bool"
        }
      ],
      "payable": false,
      "stateMutability": "nonpayable",
      "type": "function"
    },
    {
      "constant": false,
      "inputs": [
        {
          "internalType": "uint256",
          "name": "_newFeeBPS",
          "type": "uint256"
        }
      ],
      "name": "setFeeBPS",
      "outputs": [
        {
          "internalType": "bool",
          "name": "",
          "type": "bool"
        }
      ],
      "payable": false,
      "stateMutability": "nonpayable",
      "type": "function"
    },
    {
      "constant": false,
      "inputs": [
        {
          "internalType": "address",
          "name": "newFeeTo",
          "type": "address"
        }
      ],
      "name": "setFeeTo",
      "outputs": [
        {
          "internalType": "bool",
          "name": "",
          "type": "bool"
        }
      ],
      "payable": false,
      "stateMutability": "nonpayable",
      "type": "function"
    },
    {
      "constant": false,
      "inputs": [
        {
          "internalType": "bool",
          "name": "matchingEnabled_",
          "type": "bool"
        }
      ],
      "name": "setMatchingEnabled",
      "outputs": [
        {
          "internalType": "bool",
          "name": "",
          "type": "bool"
        }
      ],
      "payable": false,
      "stateMutability": "nonpayable",
      "type": "function"
    },
    {
      "constant": false,
      "inputs": [
        {
          "internalType": "contract ERC20",
          "name": "pay_gem",
          "type": "address"
        },
        {
          "internalType": "uint256",
          "name": "dust",
          "type": "uint256"
        }
      ],
      "name": "setMinSell",
      "outputs": [
        {
          "internalType": "bool",
          "name": "",
          "type": "bool"
        }
      ],
      "payable": false,
      "stateMutability": "nonpayable",
      "type": "function"
    },
    {
      "constant": false,
      "inputs": [
        {
          "internalType": "address",
          "name": "owner_",
          "type": "address"
        }
      ],
      "name": "setOwner",
      "outputs": [],
      "payable": false,
      "stateMutability": "nonpayable",
      "type": "function"
    },
    {
      "constant": false,
      "inputs": [],
      "name": "stop",
      "outputs": [],
      "payable": false,
      "stateMutability": "nonpayable",
      "type": "function"
    },
    {
      "constant": true,
      "inputs": [],
      "name": "stopped",
      "outputs": [
        {
          "internalType": "bool",
          "name": "",
          "type": "bool"
        }
      ],
      "payable": false,
      "stateMutability": "view",
      "type": "function"
    },
    {
      "constant": false,
      "inputs": [
        {
          "internalType": "bytes32",
          "name": "id",
          "type": "bytes32"
        },
        {
          "internalType": "uint128",
          "name": "maxTakeAmount",
          "type": "uint128"
        }
      ],
      "name": "take",
      "outputs": [],
      "payable": false,
      "stateMutability": "nonpayable",
      "type": "function"
    }
  ],
  "bytecode": "0x608060405260016006600160a81b816200001862000080565b8160ff021916908315150217906200002f620000e2565b5050506001600660166101000a816200004762000080565b8160ff021916908315150217906200005e620000e2565b50505034801562000079576000806200007662000131565b50505b506200019e565b6303daa959598160e01b8152836004820152602081602483336000905af158600e01573d6000803e3d6000fd5b3d6001141558600a015760016000f35b8051935060005b6040811015620000dd57600082820152602001620000c4565b505050565b6322bd64c0598160e01b8152836004820152846024820152600081604483336000905af158600e01573d6000803e3d6000fd5b3d6001141558600a015760016000f35b600081526020620000c4565b632a2a7adb598160e01b8152600481016020815285602082015260005b868110156200016b5780860151828201604001526020016200014e565b506020828760640184336000905af158600e01573d6000803e3d6000fd5b3d6001141558600a015760016000f35b505050565b6152a480620001ae6000396000f3fe608060405234801561001957600080610016614d9a565b50505b50600436106102865760003560e01c806301492a0b146102945780630374fc6f146102b05780630621b4f6146102f957806307da68f51461033c578063093f51981461034657806313af403514610396578063144a2752146103c5578063158ef93e146104045780631b33d4121461040c5780631d834a1b14610455578063232cae0b146104815780632aed1905146104895780632f90a6fc146104b157806340e58ee5146104b95780634579268a146104df578063467f0b7b14610539578063496064551461055f578063511fa48714610594578063557ed1ba146105c357806356ad8764146105e7578063604b6a9c146105ef57806361f54a7914610615578063677170e11461063b5780636b9d8c4b1461067257806374c1d7d31461069657806375f12b21146106cd578063779997c3146106d55780637ca9429a146106fb5780638185402b1461073257806382afd23b1461077557806385ee7ba61461079b5780638a72ea6a146107d25780638ab1d681146108445780638af82a2e146108735780638da5cb5b1461087b578063911550f41461088357806391be90c8146108a9578063943911bc146108d8578063a128171b146108fe578063a78d431614610926578063b4f9b6c81461094c578063be71f5ce14610972578063bf7c734e146109a1578063c2b6b58c146109d6578063c2d526aa146109de578063c41a360a14610a28578063d2b420ce14610a4e578063d6f1546914610a74578063d6febde814610a9c578063e1a6f01414610ac8578063e43252d714610b19578063f09ea2a614610b48578063f46901ed14610b8d578063f582d29314610bbc578063ff1fd97414610bc4575b600080610291614d9a565b50505b61029c610c03565b604051901515815260200160405180910390f35b6102e7600480360360408110156102cf576000806102cc614d9a565b50505b506001600160a01b0381358116916020013516610c1c565b60405190815260200160405180910390f35b6102e76004803603608081101561031857600080610315614d9a565b50505b506001600160a01b0381358116916020810135916040820135169060600135610c5e565b610344610e54565b005b6102e76004803603608081101561036557600080610362614d9a565b50505b506001600160a01b0381358116916020810135909116906001600160801b0360408201358116916060013516610ed8565b610344600480360360208110156103b5576000806103b2614d9a565b50505b50356001600160a01b0316610f01565b6102e7600480360360608110156103e4576000806103e1614d9a565b50505b506001600160a01b03813581169160208101359091169060400135610fc9565b61029c6110b9565b6102e7600480360360a081101561042b57600080610428614d9a565b50505b508035906001600160a01b03602082013581169160408101359160608201351690608001356110c5565b61029c6004803603604081101561047457600080610471614d9a565b50505b50803590602001356110fb565b6102e76111fa565b61029c600480360360208110156104a8576000806104a5614d9a565b50505b50351515611207565b61029c6112d9565b61029c600480360360208110156104d8576000806104d5614d9a565b50505b50356112e5565b610505600480360360208110156104fe576000806104fb614d9a565b50505b5035611492565b6040519384526001600160a01b03928316602085015260408085019290925290911660608301526080909101905180910390f35b61029c6004803603602081101561055857600080610555614d9a565b50505b503561158e565b6103446004803603604081101561057e5760008061057b614d9a565b50505b50803590602001356001600160801b03166116f1565b6102e7600480360360208110156105b3576000806105b0614d9a565b50505b50356001600160a01b031661171a565b6105cb61173a565b6040516001600160401b03909116815260200160405180910390f35b6102e761174a565b61029c6004803603602081101561060e5760008061060b614d9a565b50505b5035611754565b6102e76004803603602081101561063457600080610631614d9a565b50505b50356117c0565b6102e76004803603604081101561065a57600080610657614d9a565b50505b506001600160a01b03813581169160200135166117d6565b61067a6117fc565b6040516001600160a01b03909116815260200160405180910390f35b6102e7600480360360408110156106b5576000806106b2614d9a565b50505b506001600160a01b038135811691602001351661181b565b61029c611841565b610344600480360360208110156106f4576000806106f1614d9a565b50505b503561184d565b6102e76004803603604081101561071a57600080610717614d9a565b50505b506001600160a01b0381358116916020013516611a8c565b6102e7600480360360808110156107515760008061074e614d9a565b50505b506001600160a01b0381358116916020810135916040820135169060600135611ac5565b61029c6004803603602081101561079457600080610791614d9a565b50505b5035611c86565b610344600480360360408110156107ba576000806107b7614d9a565b50505b508035151590602001356001600160a01b0316611cbc565b6107f8600480360360208110156107f1576000806107ee614d9a565b50505b5035611e32565b6040519586526001600160a01b039485166020870152604080870194909452918416606086015290921660808401526001600160401b0390911660a083015260c0909101905180910390f35b6103446004803603602081101561086357600080610860614d9a565b50505b50356001600160a01b0316611edb565b6102e7611f66565b61067a611f72565b6102e7600480360360208110156108a25760008061089f614d9a565b50505b5035611f7d565b6102e7600480360360208110156108c8576000806108c5614d9a565b50505b50356001600160a01b0316611f93565b6102e7600480360360208110156108f7576000806108f4614d9a565b50505b5035611fab565b61029c6004803603602081101561091d5760008061091a614d9a565b50505b50351515611fc4565b6102e76004803603602081101561094557600080610942614d9a565b50505b503561203f565b6103446004803603602081101561096b57600080610968614d9a565b50505b5035612057565b61029c600480360360208110156109915760008061098e614d9a565b50505b50356001600160a01b0316612072565b61029c600480360360408110156109c0576000806109bd614d9a565b50505b506001600160a01b0381351690602001356120f7565b61029c612238565b610a04600480360360208110156109fd576000806109fa614d9a565b50505b503561223d565b60405180848152602001838152602001828152602001935050505060405180910390f35b61067a60048036036020811015610a4757600080610a44614d9a565b50505b5035612275565b61029c60048036036020811015610a6d57600080610a6a614d9a565b50505b50356122a8565b61029c60048036036020811015610a9357600080610a90614d9a565b50505b50351515612394565b61029c60048036036040811015610abb57600080610ab8614d9a565b50505b5080359060200135612440565b6102e7600480360360c0811015610ae757600080610ae4614d9a565b50505b508035906001600160a01b0360208201358116916040810135916060820135169060808101359060a001351515612613565b61034460048036036020811015610b3857600080610b35614d9a565b50505b50356001600160a01b031661270b565b6102e760048036036080811015610b6757600080610b64614d9a565b50505b508035906001600160a01b03602082013581169160408101359160609091013516612784565b61029c60048036036020811015610bac57600080610ba9614d9a565b50505b50356001600160a01b031661281e565b61029c612881565b6102e760048036036060811015610be357600080610be0614d9a565b50505b506001600160a01b0381358116916020810135909116906040013561288d565b60166006610c0f614e05565b906101000a900460ff1681565b6001600160a01b03821660009081526009602052604081206001600160a01b038316600090815260209190915260409020610c55614e05565b90505b92915050565b6000806004610c6b614e05565b906101000a900460ff1615610cbd5760405162461bcd60e51b815260206004820152601260248201526000805160206150ee833981519152604482015260640160405180910390610cba614d9a565b50505b60005b8415610e3557610cd08487610c1c565b905080610ce557600080610ce2614d9a565b50505b60008181526002602052610d1d9060409020600201610d02614e05565b6000838152600260205260409020610d18614e05565b612957565b85670de0b6b3a7640000021015610d3357610e35565b6000818152600260205260409020600201610d4c614e05565b8510610dc35760008181526002602052610d7390839060409020610d6e614e05565b612986565b60008281526002602052909250610d9a90869060409020600201610d95614e05565b6129e2565b60008281526002602052909550610dbe90829060409020610db9614e05565b6116f1565b610e30565b60008181526002602052633b9aca00610e0a878202610e0560408520610de7614e05565b6000878152600260205260409020600201610e00614e05565b612a37565b612a52565b81610e1157fe5b049050610e1e8382612986565b9250610e2a82826116f1565b60009550505b610cc0565b82821015610e4b57600080610e48614d9a565b50505b50949350505050565b610e655a610e60614e60565b612a80565b610eac5760405162461bcd60e51b81526020600482015260146024820152600080516020615284833981519152604482015260640160405180910390610ea9614d9a565b50505b60016006600160a01b81610ebe614e05565b8160ff02191690831515021790610ed3614ea6565b505050565b6000610ef8836001600160801b031686846001600160801b031687612784565b95945050505050565b610f0d5a610e60614e60565b610f545760405162461bcd60e51b81526020600482015260146024820152600080516020615284833981519152604482015260640160405180910390610f51614d9a565b50505b806000600181610f62614e05565b816001600160a01b0302191690836001600160a01b0316021790610f84614ea6565b50505060008090610f93614e05565b906101000a90046001600160a01b03166001600160a01b031660008051602061518e83398151915260405160405180910390a250565b600080610fd68585610c1c565b90505b6000818152600260205260409020600201610ff2614e05565b831115611062576000818152600260205261101590839060409020610d6e614e05565b6000828152600260205290925061103790849060409020600201610d95614e05565b9250821561105d5761104881611fab565b90508061105d5760008061105a614d9a565b50505b610fd9565b610ef882633b9aca006110ac86633b9aca0002610e0560026000888152602001908152602001600020611093614e05565b6000888152600260205260409020600201610e00614e05565b816110b357fe5b04612986565b60176006610c0f614e05565b60006110cf612238565b156110e2576000806110df614d9a565b50505b6110f186868686866001612613565b9695505050505050565b6000806004611108614e05565b906101000a900460ff161561115a5760405162461bcd60e51b815260206004820152601260248201526000805160206150ee833981519152604482015260640160405180910390611157614d9a565b50505b611163836122a8565b1561117657600080611173614d9a565b50505b61117f83611c86565b6111915760008061118e614d9a565b50505b61119a83612b40565b506111a58383612c64565b7f6d5c16212bdea16850dce4d9fa2314c446bd30ce84700d9c36c7677c6d2839405a6111cf614e60565b846040516001600160a01b03909216825260208201526040908101905180910390a150600192915050565b6001611204614e05565b81565b60006112155a610e60614e60565b61125c5760405162461bcd60e51b81526020600482015260146024820152600080516020615284833981519152604482015260640160405180910390611259614d9a565b50505b816006600160b01b8161126d614e05565b8160ff02191690831515021790611282614ea6565b5050507fea11e00ec1642be9b494019b756440e2c57dbe9e59242c4f9c64ce33fb4f41d960066016906112b3614e05565b906101000a900460ff16604051901515815260200160405180910390a15060015b919050565b60186006610c0f614e05565b6000816112f181611c86565b6113355760405162461bcd60e51b815260040180806020018281038252602d815260200180615161602d913960400191505060405180910390611332614d9a565b50505b61133d612238565b80611369575061134c81612275565b6001600160a01b03165a61135e614e60565b6001600160a01b0316145b8061137c5750600e611379614e05565b81145b6113c05760405162461bcd60e51b81526004018080602001828103825260748152602001806151ae60749139608001915050604051809103906113bd614d9a565b50505b600060046113cc614e05565b906101000a900460ff161561141e5760405162461bcd60e51b815260206004820152601260248201526000805160206150ee83398151915260448201526064016040518091039061141b614d9a565b50505b6016600661142a614e05565b906101000a900460ff161561148257611442836122a8565b156114675761145083612f56565b6114625760008061145f614d9a565b50505b611482565b61147083612b40565b6114825760008061147f614d9a565b50505b61148b83613292565b9392505050565b6000806000806114a0614ef4565b600086815260026020526040902060405160c081016040529081816114c3614e05565b81526020016000600183016114d6614e05565b6001600160a01b036101009290920a9004168152602001600282016114f9614e05565b815260200160006003830161150c614e05565b6001600160a01b036101009290920a9004168152602001600060048301611531614e05565b6001600160a01b036101009290920a9004168152602001601460048301611556614e05565b6001600160401b036101009290920a900416905250905080518160200151826040015183606001519450945094509450509193509193565b600080600461159b614e05565b906101000a900460ff16156115ed5760405162461bcd60e51b815260206004820152601260248201526000805160206150ee8339815191526044820152606401604051809103906115ea614d9a565b50505b6115f682611c86565b15801561161a57506000828152600860205260409020600201611617614e05565b15155b801561164b5750600a5a61162c614f28565b600084815260086020529190039060409020600201611649614e05565b105b61165d5760008061165a614d9a565b50505b600082815260086020526040902060008082611677614ea6565b505060018201600090611688614ea6565b505060028201600090611699614ea6565b505050507fcb9d6176c6aac6478ebb9a2754cdce22a944de29ed1f2642f8613884eba4b40c5a6116c7614e60565b836040516001600160a01b03909216825260208201526040908101905180910390a1506001919050565b611704826001600160801b038316612440565b61171657600080611713614d9a565b50505b5050565b6001600160a01b0381166000908152600b60205260408120610c58614e05565b60005a611745614f6e565b905090565b600e611204614e05565b60006117625a610e60614e60565b6117a95760405162461bcd60e51b815260206004820152601460248201526000805160206152848339815191526044820152606401604051809103906117a6614d9a565b50505b818060056117b5614ea6565b506001949350505050565b6000818152600c60205260408120610c58614e05565b600a60205281600052604060002060205280600052604060002091506112049050614e05565b60006007611808614e05565b906101000a90046001600160a01b031681565b600960205281600052604060002060205280600052604060002091506112049050614e05565b60146006610c0f614e05565b8061185781611c86565b61186957600080611866614d9a565b50505b611871612238565b1561188457600080611881614d9a565b50505b600082815260026020528290604090206004016000906118a2614e05565b906101000a90046001600160a01b03166001600160a01b0316600260008381526020019081526020016000206001016000906118dc614e05565b906101000a90046001600160a01b03166002600084815260200190815260200160002060030160009061190d614e05565b906101000a90046001600160a01b03166040516001600160601b0319606093841b811660208301529190921b166034820152604801604051602081830303815290604052805190602001206000838152600260205285907f70a14c213064359ede031fd2a1645a11ce2ec825ffe6ab5cfb5b160c3ef4d0a29060409020600101600090611998614e05565b906101000a90046001600160a01b0316600260008781526020019081526020016000206003016000906119c9614e05565b906101000a90046001600160a01b0316600260008881526020019081526020016000206119f4614e05565b6000888152600260205260409020600201611a0d614e05565b6000898152600260205260409020600401601490611a29614e05565b906101000a90046001600160401b03166040516001600160a01b0395861681529390941660208401526001600160801b03918216604080850191909152911660608301526001600160401b03909216608082015260a001905180910390a4505050565b6001600160a01b0382166000908152600a602052604081206001600160a01b038316600090815260209190915260409020610c55614e05565b6000806004611ad2614e05565b906101000a900460ff1615611b245760405162461bcd60e51b815260206004820152601260248201526000805160206150ee833981519152604482015260640160405180910390611b21614d9a565b50505b60005b8415611c7357611b378685610c1c565b905080611b4c57600080611b49614d9a565b50505b60008181526002602052611b7f9060409020611b66614e05565b6000838152600260205260409020600201610d18614e05565b85670de0b6b3a7640000021015611b9557611c73565b6000818152600260205260409020611bab614e05565b8510611c135760008181526002602052611bd090839060409020600201610d6e614e05565b60008281526002602052909250611bef90869060409020610d95614e05565b60008281526002602052909550611c0e90829060409020610db9614e05565b611c6e565b611c5d82633b9aca006110ac88633b9aca0002610e0560026000888152602001908152602001600020600201611c47614e05565b6000888152600260205260409020610e00614e05565b9150611c6981866116f1565b600094505b611b27565b82821115610e4b57600080610e48614d9a565b600081815260026020528060408120600401601490611ca3614e05565b6001600160401b036101009290920a9004161192915050565b60176006611cc8614e05565b906101000a900460ff1615611d2c5760405162461bcd60e51b815260206004820152601f60248201527f636f6e747261637420697320616c726561647920696e697469616c697a656400604482015260640160405180910390611d29614d9a565b50505b816006600160c01b81611d3d614e05565b8160ff02191690831515021790611d52614ea6565b50505080600660006101000a81611d67614e05565b816001600160a01b0302191690836001600160a01b0316021790611d89614ea6565b5050505a611d95614e60565b6000600181611da2614e05565b816001600160a01b0302191690836001600160a01b0316021790611dc4614ea6565b5050505a611dd0614e60565b6001600160a01b031660008051602061518e83398151915260405160405180910390a26014806005611e00614ea6565b5050506001600660176101000a81611e16614e05565b8160ff02191690831515021790611e2b614ea6565b5050505050565b6002602052806000526040600020905080611e4b614e05565b90600060018201611e5a614e05565b906101000a90046001600160a01b03169080600201611e77614e05565b90600060038201611e86614e05565b906101000a90046001600160a01b03169080600401600090611ea6614e05565b906101000a90046001600160a01b03169080600401601490611ec6614e05565b906101000a90046001600160401b0316905086565b611ee75a610e60614e60565b611f2e5760405162461bcd60e51b81526020600482015260146024820152600080516020615284833981519152604482015260640160405180910390611f2b614d9a565b50505b6001600160a01b0381166000908152600360205260408120600181611f51614e05565b8160ff02191690831515021790611713614ea6565b6000600d611745614e05565b600080611808614e05565b6000818152600860205260408120610c58614e05565b600b6020528060005260406000209050611204614e05565b6000818152600860205260408120600101610c58614e05565b6000611fd25a610e60614e60565b6120195760405162461bcd60e51b81526020600482015260146024820152600080516020615284833981519152604482015260640160405180910390612016614d9a565b50505b816006600160c01b8161202a614e05565b8160ff021916908315150217906117b5614ea6565b600c6020528060005260406000209050611204614e05565b612060816112e5565b61206f57600080610ed3614d9a565b50565b60006120805a610e60614e60565b6120c75760405162461bcd60e51b815260206004820152601460248201526000805160206152848339815191526044820152606401604051809103906120c4614d9a565b50505b8160076001816120d5614e05565b816001600160a01b0302191690836001600160a01b03160217906117b5614ea6565b60006121055a610e60614e60565b61214c5760405162461bcd60e51b81526020600482015260146024820152600080516020615284833981519152604482015260640160405180910390612149614d9a565b50505b6004356024353481835a61215e614e60565b6001600160a01b03166000356001600160e01b0319166001600160e01b0319168460003660405183815260406020820181815290820183905260608201848480828437600083820152601f01601f1916909101955060409450505050505180910390a46001600160a01b0386166000908152600b60205285906040902081906121e5614ea6565b5050507fc28d56449b0bb31e64ee7487e061f57a2e72aea8019d810832f26dda099823d086866040516001600160a01b03909216825260208201526040908101905180910390a150600195945050505050565b600090565b6008602052806000526040600020905080612256614e05565b9080600101612263614e05565b9080600201612270614e05565b905083565b6000818152600260205260408120600401600090612291614e05565b906101000a90046001600160a01b03169050919050565b60008181526008602052604081206122be614e05565b1515806122e2575060008281526008602052604090206001016122df614e05565b15155b80610c58575060008281526002602052829060099060408120600101600090612309614e05565b906101000a90046001600160a01b03166001600160a01b03166001600160a01b031681526020019081526020016000206000848152600260205260408120600301600090612355614e05565b906101000a90046001600160a01b03166001600160a01b03166001600160a01b0316815260200190815260200160002061238d614e05565b1492915050565b60006123a25a610e60614e60565b6123e95760405162461bcd60e51b815260206004820152601460248201526000805160206152848339815191526044820152606401604051809103906123e6614d9a565b50505b816006600160a81b816123fa614e05565b8160ff0219169083151502179061240f614ea6565b5050507f7089e4f0bcc948f9f723a361590c32d9c2284da7ab1981b1249ad2edb9f953c160066015906112b3614e05565b60008261244c81611c86565b61245e5760008061245b614d9a565b50505b612466612238565b1561247957600080612476614d9a565b50505b60006004612485614e05565b906101000a900460ff16156124d75760405162461bcd60e51b815260206004820152601260248201526000805160206150ee8339815191526044820152606401604051809103906124d4614d9a565b50505b601860066124e3614e05565b906101000a900460ff16156125da57600060076124fe614e05565b906101000a90046001600160a01b03166001600160a01b031663b30ed7b361252586612275565b5a61252e614e60565b6040516001600160e01b031960e085901b1681526001600160a01b0392831660048201529116602482015260440160206040518083038160008780612571614fb4565b15801561258657600080612583614d9a565b50505b505a612590615000565b5050505050501580156125b0573d6000803e3d60006125ad614d9a565b50505b505050506040513d60208110156125cf576000806125cc614d9a565b50505b810190808051505050505b6150eb601660066125e9614e05565b906101000a900460ff166125ff57613761612603565b61417a5b9050610ef885858363ffffffff16565b600061261d612238565b156126305760008061262d614d9a565b50505b6000600461263c614e05565b906101000a900460ff161561268e5760405162461bcd60e51b815260206004820152601260248201526000805160206150ee83398151915260448201526064016040518091039061268b614d9a565b50505b6001600160a01b0386166000908152600b6020528790604090206126b0614e05565b11156126c4576000806126c1614d9a565b50505b601660066126d0614e05565b906101000a900460ff16156126f4576126ed8787878787876142ac565b90506110f1565b61270087878787614497565b979650505050505050565b6127175a610e60614e60565b61275e5760405162461bcd60e51b8152602060048201526014602482015260008051602061528483398151915260448201526064016040518091039061275b614d9a565b50505b6001600160a01b0381166000908152600360205260019060409020600181611f51614e05565b6000806004612791614e05565b906101000a900460ff16156127e35760405162461bcd60e51b815260206004820152601260248201526000805160206150ee8339815191526044820152606401604051809103906127e0614d9a565b50505b6150eb601660066127f2614e05565b906101000a900460ff166128085761449761280c565b6149d15b90506110f1868686868563ffffffff16565b600061282c5a610e60614e60565b6128735760405162461bcd60e51b81526020600482015260146024820152600080516020615284833981519152604482015260640160405180910390612870614d9a565b50505b8160066001816120d5614e05565b60156006610c0f614e05565b60008061289a8486610c1c565b90505b60008181526002602052604090206128b3614e05565b83111561292357600081815260026020526128d990839060409020600201610d6e614e05565b600082815260026020529092506128f890849060409020610d95614e05565b9250821561291e5761290981611fab565b90508061291e5760008061291b614d9a565b50505b61289d565b610ef882633b9aca006110ac86633b9aca0002610e0560026000888152602001908152602001600020600201611c47614e05565b60008161297761296f85670de0b6b3a7640000614a84565b6002856110b3565b8161297e57fe5b049392505050565b80820182811015610c585760405162461bcd60e51b815260206004820152601460248201527364732d6d6174682d6164642d6f766572666c6f7760601b6044820152606401604051809103906129da614d9a565b505092915050565b80820382811115610c585760405162461bcd60e51b815260206004820152601560248201527464732d6d6174682d7375622d756e646572666c6f7760581b6044820152606401604051809103906129da614d9a565b60008161297761296f85676765c793fa10079d601b1b614a84565b6000676765c793fa10079d601b1b612977612a6d8585614a84565b6002676765c793fa10079d601b1b6110b3565b60005a63996d79a5598160e01b8152602081600483336000905af158600e01573d6000803e3d6000fd5b3d6001141558600a015760016000f35b8051925060005b6040811015612ad857600082820152602001612ac1565b5050506001600160a01b0316826001600160a01b03161415612afc575060016112d4565b600080612b07614e05565b906101000a90046001600160a01b03166001600160a01b0316826001600160a01b03161415612b38575060016112d4565b5060006112d4565b600080600d612b4d614e05565b905080612b59846122a8565b15612b6c57600080612b69614d9a565b50505b83600d612b77614e05565b1415612bc7576000848152600c60205260409020612b93614e05565b80600d612b9e614ea6565b5050506000848152600c602052604081208190612bb9614ea6565b5050506001925050506112d4565b600082118015612bd75750838214155b15612bfc57506000818152600c602052819060409020612bf5614e05565b9150612bc7565b838214612c0e576000925050506112d4565b6000848152600c60205260409020612c24614e05565b6000828152600c602052604090208190612c3c614ea6565b5050506000848152600c602052604081208190612c57614ea6565b5060019695505050505050565b612c6d82611c86565b612c7f57600080612c7c614d9a565b50505b6000828152600260205260408120600301600090612c9b614e05565b906101000a90046001600160a01b03169050600060026000858152602001908152602001600020600101600090612cd0614e05565b906101000a90046001600160a01b0316905060008360001480612d315750600084815260026020526001600160a01b0383169060409020600101600090612d15614e05565b906101000a90046001600160a01b03166001600160a01b031614155b80612d7a5750600084815260026020526001600160a01b0384169060409020600301600090612d5e614e05565b906101000a90046001600160a01b03166001600160a01b031614155b80612d8b5750612d89846122a8565b155b612d9e57612d998585614aec565b612da7565b612da785614bdf565b93508315612e0d576000848152600860205260409020600101612dc8614e05565b600085815260086020529091508590604090206001018190612de8614ea6565b505050600085815260086020528490604090208190612e05614ea6565b505050612e8a565b6001600160a01b03821660009081526009602052604090206001600160a01b038416600090815260209190915260409020612e46614e05565b6001600160a01b038316600090815260096020529091508590604090206001600160a01b0385166000908152602091909152604090208190612e86614ea6565b5050505b8015612ece57600081815260086020528590604090208190612eaa614ea6565b505050600085815260086020528190604090206001018190612eca614ea6565b5050505b6001600160a01b0382166000908152600a602052604090206001600160a01b038416600090815260209190915260409020600081612f0a614e05565b91600183019150612f19614ea6565b5050507f20fb9bad86c18f7e22e8065258790d9416a7d2df8ff05f80f82c46d38b925acd8560405190815260200160405180910390a15050505050565b600081815260026020528060408120600301600090612f73614e05565b906101000a90046001600160a01b03169050600060026000858152602001908152602001600020600101600090612fa8614e05565b6001600160a01b036101009290920a9004166000818152600a602052909150604081206001600160a01b038416600090815260209190915260409020612fec614e05565b11612fff57600080612ffc614d9a565b50505b6000848152600860205260409020600201613018614e05565b1580156130295750613029846122a8565b61303b57600080613038614d9a565b50505b6001600160a01b03811660009081526009602052604090206001600160a01b038316600090815260209190915260409020613074614e05565b841461311557600084815260086020819052859160408120613094614e05565b81526020019081526020016000206001016130ad614e05565b146130c0576000806130bd614d9a565b50505b60008481526008602052604090206001016130d9614e05565b60008581526008602081905290604081206130f2614e05565b8152602001908152602001600020600101819061310d614ea6565b50505061316d565b600084815260086020526040902060010161312e614e05565b6001600160a01b03821660009081526009602052604090206001600160a01b0384166000908152602091909152604090208190613169614ea6565b5050505b6000848152600860205260409020600101613186614e05565b1561321f576000848152600860208190528591604081206001016131a8614e05565b81526020019081526020016000206131be614e05565b146131d1576000806131ce614d9a565b50505b60008481526008602052604090206131e7614e05565b6000858152600860208190529060408120600101613203614e05565b8152602001908152602001600020819061321b614ea6565b5050505b6001600160a01b0381166000908152600a602052604090206001600160a01b03831660009081526020919091526040902060008161325b614e05565b916000198301915061326b614ea6565b5050505a613277614f28565b60008581526008602052604090206002018190612c57614ea6565b60008161329e81611c86565b6132e25760405162461bcd60e51b815260040180806020018281038252602d815260200180615161602d9139604001915050604051809103906132df614d9a565b50505b6132ea612238565b8061331657506132f981612275565b6001600160a01b03165a61330b614e60565b6001600160a01b0316145b806133295750600e613326614e05565b81145b61336d5760405162461bcd60e51b81526004018080602001828103825260748152602001806151ae607491396080019150506040518091039061336a614d9a565b50505b60006004613379614e05565b906101000a900460ff161561339657600080613393614d9a565b50505b6001600481816133a4614e05565b8160ff021916908315150217906133b9614ea6565b5050506133c4614ef4565b600084815260026020526040902060405160c081016040529081816133e7614e05565b81526020016000600183016133fa614e05565b6001600160a01b036101009290920a90041681526020016002820161341d614e05565b8152602001600060038301613430614e05565b6001600160a01b036101009290920a9004168152602001600060048301613455614e05565b6001600160a01b036101009290920a900416815260200160146004830161347a614e05565b6001600160401b036101009290920a9004169052506000858152600260205290915060409020600080826134ac614ea6565b5050600182810190816134bd614e05565b906001600160a01b03021916906134d2614ea6565b5050600282016000906134e3614ea6565b5050600382016001816134f4614e05565b906001600160a01b0302191690613509614ea6565b50506004820160018161351a614e05565b906001600160a01b030219169061352f614ea6565b505060048201600160a01b81613543614e05565b906001600160401b0302191690613558614ea6565b5050505080602001516001600160a01b031663a9059cbb826080015183516040516001600160e01b031960e085901b1681526001600160a01b0390921660048301526024820152604401602060405180830381600087806135b7614fb4565b1580156135cc576000806135c9614d9a565b50505b505a6135d6615000565b5050505050501580156135f6573d6000803e3d60006135f3614d9a565b50505b505050506040513d602081101561361557600080613612614d9a565b50505b81019080805192506136329150505760008061362f614d9a565b50505b60008051602061510e8339815191528460405190815260200160405180910390a180608001516001600160a01b0316816020015182606001516040516001600160601b0319606093841b811660208301529190921b16603482015260480160405160208183030381529060405280519060200120857f9577941d28fff863bfbee4694a6a4a56fb09e169619189d2eaa750b5b481999560208501518560600151865187604001515a6136e2614f6e565b6040516001600160a01b0395861681529390941660208401526001600160801b03918216604080850191909152911660608301526001600160401b03909216608082015260a001905180910390a45060019150600060048381613743614e05565b8160ff02191690831515021790613758614ea6565b50505050919050565b60008261376d81611c86565b61377f5760008061377c614d9a565b50505b613787612238565b1561379a57600080613797614d9a565b50505b600060046137a6614e05565b906101000a900460ff16156137c3576000806137c0614d9a565b50505b6001600481816137d1614e05565b8160ff021916908315150217906137e6614ea6565b5050506137f1614ef4565b600085815260026020526040902060405160c08101604052908181613814614e05565b8152602001600060018301613827614e05565b6001600160a01b036101009290920a90041681526020016002820161384a614e05565b815260200160006003830161385d614e05565b6001600160a01b036101009290920a9004168152602001600060048301613882614e05565b6001600160a01b036101009290920a90041681526020016014600483016138a7614e05565b6001600160401b036101009290920a9004169052509050600081516138d0868460400151614a84565b816138d757fe5b04905080816001600160801b0316146139355760405162461bcd60e51b81526020600482015260136024820152721cdc195b99081a5cc81b9bdd08185b881a5b9d606a1b604482015260640160405180910390613932614d9a565b50505b84856001600160801b0316146139935760405162461bcd60e51b81526020600482015260166024820152751c5d585b9d1a5d1e481a5cc81b9bdd08185b881a5b9d60521b604482015260640160405180910390613990614d9a565b50505b84158061399e575080155b806139a95750815185115b806139b75750816040015181115b156139c75760009350505061414c565b60006127106139df8360056139da614e05565b614a84565b816139e657fe5b04905082606001516001600160a01b03166323b872dd5a613a05614e60565b60006006613a11614e05565b906101000a90046001600160a01b0316846040516001600160e01b031960e086901b1681526001600160a01b039384166004820152919092166024820152604481019190915260640160206040518083038160008780613a6f614fb4565b158015613a8457600080613a81614d9a565b50505b505a613a8e615000565b505050505050158015613aae573d6000803e3d6000613aab614d9a565b50505b505050506040513d6020811015613acd57600080613aca614d9a565b50505b8101908080519250613b319150505760405162461bcd60e51b815260206004820152601f60248201527f496e73756666696369656e742066756e647320746f20636f7665722066656500604482015260640160405180910390613b2e614d9a565b50505b613b3c8351876129e2565b60008881526002602052604090208190613b54614ea6565b505050613b658360400151836129e2565b60008881526002602052604090206002018190613b80614ea6565b50505082606001516001600160a01b03166323b872dd5a613b9f614e60565b8560800151856040516001600160e01b031960e086901b1681526001600160a01b039384166004820152919092166024820152604481019190915260640160206040518083038160008780613bf2614fb4565b158015613c0757600080613c04614d9a565b50505b505a613c11615000565b505050505050158015613c31573d6000803e3d6000613c2e614d9a565b50505b505050506040513d6020811015613c5057600080613c4d614d9a565b50505b8101908080519250613c9f9150505760405162461bcd60e51b81526004018080602001828103825260628152602001806152226062913960800191505060405180910390613c9c614d9a565b50505b82602001516001600160a01b031663a9059cbb5a613cbb614e60565b886040516001600160e01b031960e085901b1681526001600160a01b039092166004830152602482015260440160206040518083038160008780613cfd614fb4565b158015613d1257600080613d0f614d9a565b50505b505a613d1c615000565b505050505050158015613d3c573d6000803e3d6000613d39614d9a565b50505b505050506040513d6020811015613d5b57600080613d58614d9a565b50505b8101908080519250613daa9150505760405162461bcd60e51b815260040180806020018281038252603381526020018061512e6033913960400191505060405180910390613da7614d9a565b50505b60008051602061510e8339815191528760405190815260200160405180910390a15a613dd4614e60565b6001600160a01b031683608001516001600160a01b0316846020015185606001516040516001600160601b0319606093841b811660208301529190921b166034820152604801604051602081830303815290604052805190602001207f3383e3357c77fd2e3a4b30deea81179bc70a795d053d14d5b7f2f01d0fd4596f8a602088015188606001518c895a613e67614f6e565b6040519586526001600160a01b039485166020870152929093166040808601919091526001600160801b039182166060860152921660808401526001600160401b031660a083015260c0909101905180910390a45a613ec4614e60565b6001600160a01b031683608001516001600160a01b0316846020015185606001516040516001600160601b0319606093841b811660208301529190921b166034820152604801604051602081830303815290604052805190602001207f0ae463beeed705bdba735cc0f80a21bc43e39fa85611fbceb6e509ca190cc6e28a602088015188606001518c898960006006613f5b614e05565b906101000a90046001600160a01b03165a613f74614f6e565b6040519788526001600160a01b0396871660208901529486166040808901919091526001600160801b03948516606089015292909316608087015260a0860152921660c08401526001600160401b031660e0830152610100909101905180910390a482606001516001600160a01b031683602001516001600160a01b03167f819e390338feffe95e2de57172d6faf337853dfd15c7a09a32d76f7fd2443875888560405191825260208201526040908101905180910390a36000878152600260205260409020614042614e05565b61414457600087815260026020526040902060008082614060614ea6565b505060018281019081614071614e05565b906001600160a01b0302191690614086614ea6565b505060028201600090614097614ea6565b5050600382016001816140a8614e05565b906001600160a01b03021916906140bd614ea6565b5050600482016001816140ce614e05565b906001600160a01b03021916906140e3614ea6565b505060048201600160a01b816140f7614e05565b906001600160401b030219169061410c614ea6565b505050507f88686b85d6f2c3ab9a04e4f15a22fcfa025ffd97226dcf0a67cdf682def556768760405190815260200160405180910390a15b600194505050505b6000600460018161415b614e05565b8160ff02191690831515021790614170614ea6565b5050505092915050565b600060156006614188614e05565b906101000a900460ff166141a4576000806141a1614d9a565b50505b60008381526002602052604090206141ba614e05565b8214156141e9576141ca836122a8565b156141de576141d883612f56565b506141e9565b6141e783612b40565b505b6141f38383613761565b61420557600080614202614d9a565b50505b61420e83611c86565b8015614284575060008381526002602052600b9060408120600101600090614234614e05565b906101000a90046001600160a01b03166001600160a01b03166001600160a01b0316815260200190815260200160002061426c614e05565b6000848152600260205260409020614282614e05565b105b156142a3578280600e614295614ea6565b5050506142a1836112e5565b505b50600192915050565b60008060008060005b6001600160a01b03881660009081526009602052604081206001600160a01b038c166000908152602091909152604090206142ee614e05565b1115614431576001600160a01b03881660009081526009602052604090206001600160a01b038b1660009081526020919091526040902061432d614e05565b6000818152600260205290945060409020600201614349614e05565b6000858152600260205290925060409020614362614e05565b905085614370576000614378565b808b8a840101015b6143828c83614a84565b0161438d838b614a84565b111561439857614431565b6143ab846143a6838c614ccc565b612440565b507f3156f1facedd2c8392e4de7babf62e19484c1ac8f306f3a857c46a1bf39013b9856143d8838c614ccc565b60405191825260208201526040908101905180910390a188925061440089610d95838c614ccc565b98508261440d8a8d614a84565b8161441457fe5b049a508a1580614422575088155b1561442c57614431565b6142b5565b600089118015614441575060008b115b801561446c57506001600160a01b038a166000908152600b60205260409020614468614e05565b8b10155b156144895761447d8b8b8b8b614497565b94506144898588612c64565b505050509695505050505050565b60006144a1612238565b156144b4576000806144b1614d9a565b50505b600060046144c0614e05565b906101000a900460ff16156144dd576000806144da614d9a565b50505b6001600481816144eb614e05565b8160ff02191690831515021790614500614ea6565b505050838261450e82614ce3565b6145205760008061451d614d9a565b50505b61452981614ce3565b61453b57600080614538614d9a565b50505b86876001600160801b03161461455957600080614556614d9a565b50505b84856001600160801b03161461457757600080614574614d9a565b50505b6000871161458d5760008061458a614d9a565b50505b6001600160a01b0386166145a9576000806145a6614d9a565b50505b600085116145bf576000806145bc614d9a565b50505b6001600160a01b0384166145db576000806145d8614d9a565b50505b836001600160a01b0316866001600160a01b0316141561460357600080614600614d9a565b50505b61460b614ef4565b8781526001600160a01b03808816602083015260408201879052851660608201525a614635614e60565b6001600160a01b031660808201525a61464c614f6e565b6001600160401b031660a0820152614662614d17565b60008181526002602052909450819060409020815181614680614ea6565b5050602082015160018083019081614696614e05565b816001600160a01b0302191690836001600160a01b03160217906146b8614ea6565b5050506040820151816002016146cc614ea6565b50506060820151600382016001816146e2614e05565b816001600160a01b0302191690836001600160a01b0316021790614704614ea6565b50505060808201516004820160018161471b614e05565b816001600160a01b0302191690836001600160a01b031602179061473d614ea6565b50505060a082015160048201600160a01b81614757614e05565b816001600160401b0302191690836001600160401b0316021790614779614ea6565b505050905050866001600160a01b03166323b872dd5a614797614e60565b5a63996d79a5598160e01b8152602081600483336000905af158600e01573d6000803e3d6000fd5b3d6001141558600a015760016000f35b8051925060005b60408110156147ed576000828201526020016147d6565b5050508b6040516001600160e01b031960e086901b1681526001600160a01b03938416600482015291909216602482015260448101919091526064016020604051808303816000878061483e614fb4565b15801561485357600080614850614d9a565b50505b505a61485d615000565b50505050505015801561487d573d6000803e3d600061487a614d9a565b50505b505050506040513d602081101561489c57600080614899614d9a565b50505b81019080805192506148b9915050576000806148b6614d9a565b50505b60008051602061510e8339815191528460405190815260200160405180910390a15a6148e3614e60565b6001600160a01b031687866040516001600160601b0319606093841b811660208301529190921b16603482015260480160405160208183030381529060405280519060200120857f773ff502687307abfa024ac9f62f9752a0d210dac2ffd9a29e38e12e2ea82c828a898d8c5a614958614f6e565b6040516001600160a01b0395861681529390941660208401526001600160801b03918216604080850191909152911660608301526001600160401b03909216608082015260a001905180910390a45050506000600460006101000a816149bc614e05565b8160ff02191690831515021790610e48614ea6565b6001600160a01b0383166000908152600b60205284604082206149f2614e05565b1115614a0657600080614a03614d9a565b50505b614a1285858585614497565b9050600d614a1e614e05565b6000828152600c602052604090208190614a36614ea6565b50505080600d8190614a46614ea6565b5050507f8173832a493e0a3989e521458e55bfe9feac9f9b675a94e100b9d5a85f8148628160405190815260200160405180910390a1949350505050565b6000811580614a9f57505080820282828281614a9c57fe5b04145b610c585760405162461bcd60e51b815260206004820152601460248201527364732d6d6174682d6d756c2d6f766572666c6f7760601b6044820152606401604051809103906129da614d9a565b6000808311614b0357600080614b00614d9a565b50505b8115801590614b185750614b1682611c86565b155b15614b3d576000828152600860205260409020600101614b36614e05565b9150614b03565b81614b5257614b4b83614bdf565b9050610c58565b614b5c8383614d42565b15614ba05760005b8215801590614b785750614b788484614d42565b15614b4b575060008281526008602052829060409020600101614b99614e05565b9250614b64565b8115801590614bb65750614bb48383614d42565b155b15614bd8576000828152600860205260409020614bd1614e05565b9150614ba0565b5080610c58565b6000808211614bf657600080614bf3614d9a565b50505b6000828152600260205260408120600301600090614c12614e05565b906101000a90046001600160a01b03169050600060026000858152602001908152602001600020600101600090614c47614e05565b6001600160a01b036101009290920a90041660008181526009602052909150604081206001600160a01b038416600090815260209190915260409020614c8b614e05565b905060005b8115801590614ca45750614ca48683614d42565b15610ef8575060008181526008602052819060409020600101614cc5614e05565b9150614c90565b600081831115614cdc5781610c55565b5090919050565b6001600160a01b0381166000908152600360205260408120600090614d06614e05565b906101000a900460ff169050919050565b60006001600081614d26614e05565b91600183019150614d35614ea6565b5050506001611745614e05565b60008181526002602052614d7460408220600201614d5e614e05565b60008581526002602052604090206139da614e05565b60008481526002602052614d919060409020600201614d5e614e05565b10159392505050565b632a2a7adb598160e01b8152600481016020815285602082015260005b86811015614dd2578086015182820160400152602001614db7565b506020828760640184336000905af158600e01573d6000803e3d6000fd5b3d6001141558600a015760016000f35b505050565b6303daa959598160e01b8152836004820152602081602483336000905af158600e01573d6000803e3d6000fd5b3d6001141558600a015760016000f35b8051935060005b6040811015610ed357600082820152602001614e49565b6373509064598160e01b8152602081600483336000905af158600e01573d6000803e3d6000fd5b3d6001141558600a015760016000f35b80516000825293506020614e49565b6322bd64c0598160e01b8152836004820152846024820152600081604483336000905af158600e01573d6000803e3d6000fd5b3d6001141558600a015760016000f35b600081526020614e49565b60405160c081016040908152600080835260208301819052908201819052606082018190526080820181905260a082015290565b635a98c361598160e01b8152602081600483336000905af158600e01573d6000803e3d6000fd5b3d6001141558600a015760016000f35b80516000825293506020614e49565b63bdbf8c36598160e01b8152602081600483336000905af158600e01573d6000803e3d6000fd5b3d6001141558600a015760016000f35b80516000825293506020614e49565b638435035b598160e01b8152836004820152602081602483336000905af158600e01573d6000803e3d6000fd5b3d6001141558600a015760016000f35b80516000825293506020614e49565b6385979f76598160e01b8152615031565b8080831115610c58575090919050565b8080831015610c58575090919050565b836004820152846024820152606060448201528760648201526084810160005b89811015615069578089015182820152602001615051565b506060828a60a40184336000905af158600e01573d6000803e3d6000fd5b3d6001141558600a015760016000f35b815160408301513d6000853e8c8c82606087013350600060045af150596150be8e3d615021565b8d016150ca8187615011565b5b828110156150df57600081526020016150cb565b50929d50505050505050565bfefe5265656e7472616e637920617474656d70740000000000000000000000000000a2c251311b1a7a475913900a2a73dc9789a21b04bc737e050bbc506dd4eb34886f666665722e7061795f67656d2e7472616e73666572286d73672e73656e6465722c207175616e7469747929206661696c65644f66666572207761732064656c65746564206f722074616b656e2c206f72206e6576657220657869737465642ece241d7ca1f669fee44b6fc00b8eba2df3bb514eed0f6f668f8f89096e81ed944f666665722063616e206e6f742062652063616e63656c6c656420626563617573652075736572206973206e6f74206f776e65722c20616e64206d61726b6574206973206f70656e2c20616e64206f666665722073656c6c7320726571756972656420616d6f756e74206f6620746f6b656e732e6f666665722e6275795f67656d2e7472616e7366657246726f6d286d73672e73656e6465722c206f666665722e6f776e65722c207370656e6429206661696c6564202d20636865636b207468617420796f752063616e20706179207468652066656564732d617574682d756e617574686f72697a6564000000000000000000000000",
  "deployedBytecode": "0x608060405234801561001957600080610016614d9a565b50505b50600436106102865760003560e01c806301492a0b146102945780630374fc6f146102b05780630621b4f6146102f957806307da68f51461033c578063093f51981461034657806313af403514610396578063144a2752146103c5578063158ef93e146104045780631b33d4121461040c5780631d834a1b14610455578063232cae0b146104815780632aed1905146104895780632f90a6fc146104b157806340e58ee5146104b95780634579268a146104df578063467f0b7b14610539578063496064551461055f578063511fa48714610594578063557ed1ba146105c357806356ad8764146105e7578063604b6a9c146105ef57806361f54a7914610615578063677170e11461063b5780636b9d8c4b1461067257806374c1d7d31461069657806375f12b21146106cd578063779997c3146106d55780637ca9429a146106fb5780638185402b1461073257806382afd23b1461077557806385ee7ba61461079b5780638a72ea6a146107d25780638ab1d681146108445780638af82a2e146108735780638da5cb5b1461087b578063911550f41461088357806391be90c8146108a9578063943911bc146108d8578063a128171b146108fe578063a78d431614610926578063b4f9b6c81461094c578063be71f5ce14610972578063bf7c734e146109a1578063c2b6b58c146109d6578063c2d526aa146109de578063c41a360a14610a28578063d2b420ce14610a4e578063d6f1546914610a74578063d6febde814610a9c578063e1a6f01414610ac8578063e43252d714610b19578063f09ea2a614610b48578063f46901ed14610b8d578063f582d29314610bbc578063ff1fd97414610bc4575b600080610291614d9a565b50505b61029c610c03565b604051901515815260200160405180910390f35b6102e7600480360360408110156102cf576000806102cc614d9a565b50505b506001600160a01b0381358116916020013516610c1c565b60405190815260200160405180910390f35b6102e76004803603608081101561031857600080610315614d9a565b50505b506001600160a01b0381358116916020810135916040820135169060600135610c5e565b610344610e54565b005b6102e76004803603608081101561036557600080610362614d9a565b50505b506001600160a01b0381358116916020810135909116906001600160801b0360408201358116916060013516610ed8565b610344600480360360208110156103b5576000806103b2614d9a565b50505b50356001600160a01b0316610f01565b6102e7600480360360608110156103e4576000806103e1614d9a565b50505b506001600160a01b03813581169160208101359091169060400135610fc9565b61029c6110b9565b6102e7600480360360a081101561042b57600080610428614d9a565b50505b508035906001600160a01b03602082013581169160408101359160608201351690608001356110c5565b61029c6004803603604081101561047457600080610471614d9a565b50505b50803590602001356110fb565b6102e76111fa565b61029c600480360360208110156104a8576000806104a5614d9a565b50505b50351515611207565b61029c6112d9565b61029c600480360360208110156104d8576000806104d5614d9a565b50505b50356112e5565b610505600480360360208110156104fe576000806104fb614d9a565b50505b5035611492565b6040519384526001600160a01b03928316602085015260408085019290925290911660608301526080909101905180910390f35b61029c6004803603602081101561055857600080610555614d9a565b50505b503561158e565b6103446004803603604081101561057e5760008061057b614d9a565b50505b50803590602001356001600160801b03166116f1565b6102e7600480360360208110156105b3576000806105b0614d9a565b50505b50356001600160a01b031661171a565b6105cb61173a565b6040516001600160401b03909116815260200160405180910390f35b6102e761174a565b61029c6004803603602081101561060e5760008061060b614d9a565b50505b5035611754565b6102e76004803603602081101561063457600080610631614d9a565b50505b50356117c0565b6102e76004803603604081101561065a57600080610657614d9a565b50505b506001600160a01b03813581169160200135166117d6565b61067a6117fc565b6040516001600160a01b03909116815260200160405180910390f35b6102e7600480360360408110156106b5576000806106b2614d9a565b50505b506001600160a01b038135811691602001351661181b565b61029c611841565b610344600480360360208110156106f4576000806106f1614d9a565b50505b503561184d565b6102e76004803603604081101561071a57600080610717614d9a565b50505b506001600160a01b0381358116916020013516611a8c565b6102e7600480360360808110156107515760008061074e614d9a565b50505b506001600160a01b0381358116916020810135916040820135169060600135611ac5565b61029c6004803603602081101561079457600080610791614d9a565b50505b5035611c86565b610344600480360360408110156107ba576000806107b7614d9a565b50505b508035151590602001356001600160a01b0316611cbc565b6107f8600480360360208110156107f1576000806107ee614d9a565b50505b5035611e32565b6040519586526001600160a01b039485166020870152604080870194909452918416606086015290921660808401526001600160401b0390911660a083015260c0909101905180910390f35b6103446004803603602081101561086357600080610860614d9a565b50505b50356001600160a01b0316611edb565b6102e7611f66565b61067a611f72565b6102e7600480360360208110156108a25760008061089f614d9a565b50505b5035611f7d565b6102e7600480360360208110156108c8576000806108c5614d9a565b50505b50356001600160a01b0316611f93565b6102e7600480360360208110156108f7576000806108f4614d9a565b50505b5035611fab565b61029c6004803603602081101561091d5760008061091a614d9a565b50505b50351515611fc4565b6102e76004803603602081101561094557600080610942614d9a565b50505b503561203f565b6103446004803603602081101561096b57600080610968614d9a565b50505b5035612057565b61029c600480360360208110156109915760008061098e614d9a565b50505b50356001600160a01b0316612072565b61029c600480360360408110156109c0576000806109bd614d9a565b50505b506001600160a01b0381351690602001356120f7565b61029c612238565b610a04600480360360208110156109fd576000806109fa614d9a565b50505b503561223d565b60405180848152602001838152602001828152602001935050505060405180910390f35b61067a60048036036020811015610a4757600080610a44614d9a565b50505b5035612275565b61029c60048036036020811015610a6d57600080610a6a614d9a565b50505b50356122a8565b61029c60048036036020811015610a9357600080610a90614d9a565b50505b50351515612394565b61029c60048036036040811015610abb57600080610ab8614d9a565b50505b5080359060200135612440565b6102e7600480360360c0811015610ae757600080610ae4614d9a565b50505b508035906001600160a01b0360208201358116916040810135916060820135169060808101359060a001351515612613565b61034460048036036020811015610b3857600080610b35614d9a565b50505b50356001600160a01b031661270b565b6102e760048036036080811015610b6757600080610b64614d9a565b50505b508035906001600160a01b03602082013581169160408101359160609091013516612784565b61029c60048036036020811015610bac57600080610ba9614d9a565b50505b50356001600160a01b031661281e565b61029c612881565b6102e760048036036060811015610be357600080610be0614d9a565b50505b506001600160a01b0381358116916020810135909116906040013561288d565b60166006610c0f614e05565b906101000a900460ff1681565b6001600160a01b03821660009081526009602052604081206001600160a01b038316600090815260209190915260409020610c55614e05565b90505b92915050565b6000806004610c6b614e05565b906101000a900460ff1615610cbd5760405162461bcd60e51b815260206004820152601260248201526000805160206150ee833981519152604482015260640160405180910390610cba614d9a565b50505b60005b8415610e3557610cd08487610c1c565b905080610ce557600080610ce2614d9a565b50505b60008181526002602052610d1d9060409020600201610d02614e05565b6000838152600260205260409020610d18614e05565b612957565b85670de0b6b3a7640000021015610d3357610e35565b6000818152600260205260409020600201610d4c614e05565b8510610dc35760008181526002602052610d7390839060409020610d6e614e05565b612986565b60008281526002602052909250610d9a90869060409020600201610d95614e05565b6129e2565b60008281526002602052909550610dbe90829060409020610db9614e05565b6116f1565b610e30565b60008181526002602052633b9aca00610e0a878202610e0560408520610de7614e05565b6000878152600260205260409020600201610e00614e05565b612a37565b612a52565b81610e1157fe5b049050610e1e8382612986565b9250610e2a82826116f1565b60009550505b610cc0565b82821015610e4b57600080610e48614d9a565b50505b50949350505050565b610e655a610e60614e60565b612a80565b610eac5760405162461bcd60e51b81526020600482015260146024820152600080516020615284833981519152604482015260640160405180910390610ea9614d9a565b50505b60016006600160a01b81610ebe614e05565b8160ff02191690831515021790610ed3614ea6565b505050565b6000610ef8836001600160801b031686846001600160801b031687612784565b95945050505050565b610f0d5a610e60614e60565b610f545760405162461bcd60e51b81526020600482015260146024820152600080516020615284833981519152604482015260640160405180910390610f51614d9a565b50505b806000600181610f62614e05565b816001600160a01b0302191690836001600160a01b0316021790610f84614ea6565b50505060008090610f93614e05565b906101000a90046001600160a01b03166001600160a01b031660008051602061518e83398151915260405160405180910390a250565b600080610fd68585610c1c565b90505b6000818152600260205260409020600201610ff2614e05565b831115611062576000818152600260205261101590839060409020610d6e614e05565b6000828152600260205290925061103790849060409020600201610d95614e05565b9250821561105d5761104881611fab565b90508061105d5760008061105a614d9a565b50505b610fd9565b610ef882633b9aca006110ac86633b9aca0002610e0560026000888152602001908152602001600020611093614e05565b6000888152600260205260409020600201610e00614e05565b816110b357fe5b04612986565b60176006610c0f614e05565b60006110cf612238565b156110e2576000806110df614d9a565b50505b6110f186868686866001612613565b9695505050505050565b6000806004611108614e05565b906101000a900460ff161561115a5760405162461bcd60e51b815260206004820152601260248201526000805160206150ee833981519152604482015260640160405180910390611157614d9a565b50505b611163836122a8565b1561117657600080611173614d9a565b50505b61117f83611c86565b6111915760008061118e614d9a565b50505b61119a83612b40565b506111a58383612c64565b7f6d5c16212bdea16850dce4d9fa2314c446bd30ce84700d9c36c7677c6d2839405a6111cf614e60565b846040516001600160a01b03909216825260208201526040908101905180910390a150600192915050565b6001611204614e05565b81565b60006112155a610e60614e60565b61125c5760405162461bcd60e51b81526020600482015260146024820152600080516020615284833981519152604482015260640160405180910390611259614d9a565b50505b816006600160b01b8161126d614e05565b8160ff02191690831515021790611282614ea6565b5050507fea11e00ec1642be9b494019b756440e2c57dbe9e59242c4f9c64ce33fb4f41d960066016906112b3614e05565b906101000a900460ff16604051901515815260200160405180910390a15060015b919050565b60186006610c0f614e05565b6000816112f181611c86565b6113355760405162461bcd60e51b815260040180806020018281038252602d815260200180615161602d913960400191505060405180910390611332614d9a565b50505b61133d612238565b80611369575061134c81612275565b6001600160a01b03165a61135e614e60565b6001600160a01b0316145b8061137c5750600e611379614e05565b81145b6113c05760405162461bcd60e51b81526004018080602001828103825260748152602001806151ae60749139608001915050604051809103906113bd614d9a565b50505b600060046113cc614e05565b906101000a900460ff161561141e5760405162461bcd60e51b815260206004820152601260248201526000805160206150ee83398151915260448201526064016040518091039061141b614d9a565b50505b6016600661142a614e05565b906101000a900460ff161561148257611442836122a8565b156114675761145083612f56565b6114625760008061145f614d9a565b50505b611482565b61147083612b40565b6114825760008061147f614d9a565b50505b61148b83613292565b9392505050565b6000806000806114a0614ef4565b600086815260026020526040902060405160c081016040529081816114c3614e05565b81526020016000600183016114d6614e05565b6001600160a01b036101009290920a9004168152602001600282016114f9614e05565b815260200160006003830161150c614e05565b6001600160a01b036101009290920a9004168152602001600060048301611531614e05565b6001600160a01b036101009290920a9004168152602001601460048301611556614e05565b6001600160401b036101009290920a900416905250905080518160200151826040015183606001519450945094509450509193509193565b600080600461159b614e05565b906101000a900460ff16156115ed5760405162461bcd60e51b815260206004820152601260248201526000805160206150ee8339815191526044820152606401604051809103906115ea614d9a565b50505b6115f682611c86565b15801561161a57506000828152600860205260409020600201611617614e05565b15155b801561164b5750600a5a61162c614f28565b600084815260086020529190039060409020600201611649614e05565b105b61165d5760008061165a614d9a565b50505b600082815260086020526040902060008082611677614ea6565b505060018201600090611688614ea6565b505060028201600090611699614ea6565b505050507fcb9d6176c6aac6478ebb9a2754cdce22a944de29ed1f2642f8613884eba4b40c5a6116c7614e60565b836040516001600160a01b03909216825260208201526040908101905180910390a1506001919050565b611704826001600160801b038316612440565b61171657600080611713614d9a565b50505b5050565b6001600160a01b0381166000908152600b60205260408120610c58614e05565b60005a611745614f6e565b905090565b600e611204614e05565b60006117625a610e60614e60565b6117a95760405162461bcd60e51b815260206004820152601460248201526000805160206152848339815191526044820152606401604051809103906117a6614d9a565b50505b818060056117b5614ea6565b506001949350505050565b6000818152600c60205260408120610c58614e05565b600a60205281600052604060002060205280600052604060002091506112049050614e05565b60006007611808614e05565b906101000a90046001600160a01b031681565b600960205281600052604060002060205280600052604060002091506112049050614e05565b60146006610c0f614e05565b8061185781611c86565b61186957600080611866614d9a565b50505b611871612238565b1561188457600080611881614d9a565b50505b600082815260026020528290604090206004016000906118a2614e05565b906101000a90046001600160a01b03166001600160a01b0316600260008381526020019081526020016000206001016000906118dc614e05565b906101000a90046001600160a01b03166002600084815260200190815260200160002060030160009061190d614e05565b906101000a90046001600160a01b03166040516001600160601b0319606093841b811660208301529190921b166034820152604801604051602081830303815290604052805190602001206000838152600260205285907f70a14c213064359ede031fd2a1645a11ce2ec825ffe6ab5cfb5b160c3ef4d0a29060409020600101600090611998614e05565b906101000a90046001600160a01b0316600260008781526020019081526020016000206003016000906119c9614e05565b906101000a90046001600160a01b0316600260008881526020019081526020016000206119f4614e05565b6000888152600260205260409020600201611a0d614e05565b6000898152600260205260409020600401601490611a29614e05565b906101000a90046001600160401b03166040516001600160a01b0395861681529390941660208401526001600160801b03918216604080850191909152911660608301526001600160401b03909216608082015260a001905180910390a4505050565b6001600160a01b0382166000908152600a602052604081206001600160a01b038316600090815260209190915260409020610c55614e05565b6000806004611ad2614e05565b906101000a900460ff1615611b245760405162461bcd60e51b815260206004820152601260248201526000805160206150ee833981519152604482015260640160405180910390611b21614d9a565b50505b60005b8415611c7357611b378685610c1c565b905080611b4c57600080611b49614d9a565b50505b60008181526002602052611b7f9060409020611b66614e05565b6000838152600260205260409020600201610d18614e05565b85670de0b6b3a7640000021015611b9557611c73565b6000818152600260205260409020611bab614e05565b8510611c135760008181526002602052611bd090839060409020600201610d6e614e05565b60008281526002602052909250611bef90869060409020610d95614e05565b60008281526002602052909550611c0e90829060409020610db9614e05565b611c6e565b611c5d82633b9aca006110ac88633b9aca0002610e0560026000888152602001908152602001600020600201611c47614e05565b6000888152600260205260409020610e00614e05565b9150611c6981866116f1565b600094505b611b27565b82821115610e4b57600080610e48614d9a565b600081815260026020528060408120600401601490611ca3614e05565b6001600160401b036101009290920a9004161192915050565b60176006611cc8614e05565b906101000a900460ff1615611d2c5760405162461bcd60e51b815260206004820152601f60248201527f636f6e747261637420697320616c726561647920696e697469616c697a656400604482015260640160405180910390611d29614d9a565b50505b816006600160c01b81611d3d614e05565b8160ff02191690831515021790611d52614ea6565b50505080600660006101000a81611d67614e05565b816001600160a01b0302191690836001600160a01b0316021790611d89614ea6565b5050505a611d95614e60565b6000600181611da2614e05565b816001600160a01b0302191690836001600160a01b0316021790611dc4614ea6565b5050505a611dd0614e60565b6001600160a01b031660008051602061518e83398151915260405160405180910390a26014806005611e00614ea6565b5050506001600660176101000a81611e16614e05565b8160ff02191690831515021790611e2b614ea6565b5050505050565b6002602052806000526040600020905080611e4b614e05565b90600060018201611e5a614e05565b906101000a90046001600160a01b03169080600201611e77614e05565b90600060038201611e86614e05565b906101000a90046001600160a01b03169080600401600090611ea6614e05565b906101000a90046001600160a01b03169080600401601490611ec6614e05565b906101000a90046001600160401b0316905086565b611ee75a610e60614e60565b611f2e5760405162461bcd60e51b81526020600482015260146024820152600080516020615284833981519152604482015260640160405180910390611f2b614d9a565b50505b6001600160a01b0381166000908152600360205260408120600181611f51614e05565b8160ff02191690831515021790611713614ea6565b6000600d611745614e05565b600080611808614e05565b6000818152600860205260408120610c58614e05565b600b6020528060005260406000209050611204614e05565b6000818152600860205260408120600101610c58614e05565b6000611fd25a610e60614e60565b6120195760405162461bcd60e51b81526020600482015260146024820152600080516020615284833981519152604482015260640160405180910390612016614d9a565b50505b816006600160c01b8161202a614e05565b8160ff021916908315150217906117b5614ea6565b600c6020528060005260406000209050611204614e05565b612060816112e5565b61206f57600080610ed3614d9a565b50565b60006120805a610e60614e60565b6120c75760405162461bcd60e51b815260206004820152601460248201526000805160206152848339815191526044820152606401604051809103906120c4614d9a565b50505b8160076001816120d5614e05565b816001600160a01b0302191690836001600160a01b03160217906117b5614ea6565b60006121055a610e60614e60565b61214c5760405162461bcd60e51b81526020600482015260146024820152600080516020615284833981519152604482015260640160405180910390612149614d9a565b50505b6004356024353481835a61215e614e60565b6001600160a01b03166000356001600160e01b0319166001600160e01b0319168460003660405183815260406020820181815290820183905260608201848480828437600083820152601f01601f1916909101955060409450505050505180910390a46001600160a01b0386166000908152600b60205285906040902081906121e5614ea6565b5050507fc28d56449b0bb31e64ee7487e061f57a2e72aea8019d810832f26dda099823d086866040516001600160a01b03909216825260208201526040908101905180910390a150600195945050505050565b600090565b6008602052806000526040600020905080612256614e05565b9080600101612263614e05565b9080600201612270614e05565b905083565b6000818152600260205260408120600401600090612291614e05565b906101000a90046001600160a01b03169050919050565b60008181526008602052604081206122be614e05565b1515806122e2575060008281526008602052604090206001016122df614e05565b15155b80610c58575060008281526002602052829060099060408120600101600090612309614e05565b906101000a90046001600160a01b03166001600160a01b03166001600160a01b031681526020019081526020016000206000848152600260205260408120600301600090612355614e05565b906101000a90046001600160a01b03166001600160a01b03166001600160a01b0316815260200190815260200160002061238d614e05565b1492915050565b60006123a25a610e60614e60565b6123e95760405162461bcd60e51b815260206004820152601460248201526000805160206152848339815191526044820152606401604051809103906123e6614d9a565b50505b816006600160a81b816123fa614e05565b8160ff0219169083151502179061240f614ea6565b5050507f7089e4f0bcc948f9f723a361590c32d9c2284da7ab1981b1249ad2edb9f953c160066015906112b3614e05565b60008261244c81611c86565b61245e5760008061245b614d9a565b50505b612466612238565b1561247957600080612476614d9a565b50505b60006004612485614e05565b906101000a900460ff16156124d75760405162461bcd60e51b815260206004820152601260248201526000805160206150ee8339815191526044820152606401604051809103906124d4614d9a565b50505b601860066124e3614e05565b906101000a900460ff16156125da57600060076124fe614e05565b906101000a90046001600160a01b03166001600160a01b031663b30ed7b361252586612275565b5a61252e614e60565b6040516001600160e01b031960e085901b1681526001600160a01b0392831660048201529116602482015260440160206040518083038160008780612571614fb4565b15801561258657600080612583614d9a565b50505b505a612590615000565b5050505050501580156125b0573d6000803e3d60006125ad614d9a565b50505b505050506040513d60208110156125cf576000806125cc614d9a565b50505b810190808051505050505b6150eb601660066125e9614e05565b906101000a900460ff166125ff57613761612603565b61417a5b9050610ef885858363ffffffff16565b600061261d612238565b156126305760008061262d614d9a565b50505b6000600461263c614e05565b906101000a900460ff161561268e5760405162461bcd60e51b815260206004820152601260248201526000805160206150ee83398151915260448201526064016040518091039061268b614d9a565b50505b6001600160a01b0386166000908152600b6020528790604090206126b0614e05565b11156126c4576000806126c1614d9a565b50505b601660066126d0614e05565b906101000a900460ff16156126f4576126ed8787878787876142ac565b90506110f1565b61270087878787614497565b979650505050505050565b6127175a610e60614e60565b61275e5760405162461bcd60e51b8152602060048201526014602482015260008051602061528483398151915260448201526064016040518091039061275b614d9a565b50505b6001600160a01b0381166000908152600360205260019060409020600181611f51614e05565b6000806004612791614e05565b906101000a900460ff16156127e35760405162461bcd60e51b815260206004820152601260248201526000805160206150ee8339815191526044820152606401604051809103906127e0614d9a565b50505b6150eb601660066127f2614e05565b906101000a900460ff166128085761449761280c565b6149d15b90506110f1868686868563ffffffff16565b600061282c5a610e60614e60565b6128735760405162461bcd60e51b81526020600482015260146024820152600080516020615284833981519152604482015260640160405180910390612870614d9a565b50505b8160066001816120d5614e05565b60156006610c0f614e05565b60008061289a8486610c1c565b90505b60008181526002602052604090206128b3614e05565b83111561292357600081815260026020526128d990839060409020600201610d6e614e05565b600082815260026020529092506128f890849060409020610d95614e05565b9250821561291e5761290981611fab565b90508061291e5760008061291b614d9a565b50505b61289d565b610ef882633b9aca006110ac86633b9aca0002610e0560026000888152602001908152602001600020600201611c47614e05565b60008161297761296f85670de0b6b3a7640000614a84565b6002856110b3565b8161297e57fe5b049392505050565b80820182811015610c585760405162461bcd60e51b815260206004820152601460248201527364732d6d6174682d6164642d6f766572666c6f7760601b6044820152606401604051809103906129da614d9a565b505092915050565b80820382811115610c585760405162461bcd60e51b815260206004820152601560248201527464732d6d6174682d7375622d756e646572666c6f7760581b6044820152606401604051809103906129da614d9a565b60008161297761296f85676765c793fa10079d601b1b614a84565b6000676765c793fa10079d601b1b612977612a6d8585614a84565b6002676765c793fa10079d601b1b6110b3565b60005a63996d79a5598160e01b8152602081600483336000905af158601d01573d60011458600c01573d6000803e3d621234565260ea61109c528051925060005b6040811015612ad857600082820152602001612ac1565b5050506001600160a01b0316826001600160a01b03161415612afc575060016112d4565b600080612b07614e05565b906101000a90046001600160a01b03166001600160a01b0316826001600160a01b03161415612b38575060016112d4565b5060006112d4565b600080600d612b4d614e05565b905080612b59846122a8565b15612b6c57600080612b69614d9a565b50505b83600d612b77614e05565b1415612bc7576000848152600c60205260409020612b93614e05565b80600d612b9e614ea6565b5050506000848152600c602052604081208190612bb9614ea6565b5050506001925050506112d4565b600082118015612bd75750838214155b15612bfc57506000818152600c602052819060409020612bf5614e05565b9150612bc7565b838214612c0e576000925050506112d4565b6000848152600c60205260409020612c24614e05565b6000828152600c602052604090208190612c3c614ea6565b5050506000848152600c602052604081208190612c57614ea6565b5060019695505050505050565b612c6d82611c86565b612c7f57600080612c7c614d9a565b50505b6000828152600260205260408120600301600090612c9b614e05565b906101000a90046001600160a01b03169050600060026000858152602001908152602001600020600101600090612cd0614e05565b906101000a90046001600160a01b0316905060008360001480612d315750600084815260026020526001600160a01b0383169060409020600101600090612d15614e05565b906101000a90046001600160a01b03166001600160a01b031614155b80612d7a5750600084815260026020526001600160a01b0384169060409020600301600090612d5e614e05565b906101000a90046001600160a01b03166001600160a01b031614155b80612d8b5750612d89846122a8565b155b612d9e57612d998585614aec565b612da7565b612da785614bdf565b93508315612e0d576000848152600860205260409020600101612dc8614e05565b600085815260086020529091508590604090206001018190612de8614ea6565b505050600085815260086020528490604090208190612e05614ea6565b505050612e8a565b6001600160a01b03821660009081526009602052604090206001600160a01b038416600090815260209190915260409020612e46614e05565b6001600160a01b038316600090815260096020529091508590604090206001600160a01b0385166000908152602091909152604090208190612e86614ea6565b5050505b8015612ece57600081815260086020528590604090208190612eaa614ea6565b505050600085815260086020528190604090206001018190612eca614ea6565b5050505b6001600160a01b0382166000908152600a602052604090206001600160a01b038416600090815260209190915260409020600081612f0a614e05565b91600183019150612f19614ea6565b5050507f20fb9bad86c18f7e22e8065258790d9416a7d2df8ff05f80f82c46d38b925acd8560405190815260200160405180910390a15050505050565b600081815260026020528060408120600301600090612f73614e05565b906101000a90046001600160a01b03169050600060026000858152602001908152602001600020600101600090612fa8614e05565b6001600160a01b036101009290920a9004166000818152600a602052909150604081206001600160a01b038416600090815260209190915260409020612fec614e05565b11612fff57600080612ffc614d9a565b50505b6000848152600860205260409020600201613018614e05565b1580156130295750613029846122a8565b61303b57600080613038614d9a565b50505b6001600160a01b03811660009081526009602052604090206001600160a01b038316600090815260209190915260409020613074614e05565b841461311557600084815260086020819052859160408120613094614e05565b81526020019081526020016000206001016130ad614e05565b146130c0576000806130bd614d9a565b50505b60008481526008602052604090206001016130d9614e05565b60008581526008602081905290604081206130f2614e05565b8152602001908152602001600020600101819061310d614ea6565b50505061316d565b600084815260086020526040902060010161312e614e05565b6001600160a01b03821660009081526009602052604090206001600160a01b0384166000908152602091909152604090208190613169614ea6565b5050505b6000848152600860205260409020600101613186614e05565b1561321f576000848152600860208190528591604081206001016131a8614e05565b81526020019081526020016000206131be614e05565b146131d1576000806131ce614d9a565b50505b60008481526008602052604090206131e7614e05565b6000858152600860208190529060408120600101613203614e05565b8152602001908152602001600020819061321b614ea6565b5050505b6001600160a01b0381166000908152600a602052604090206001600160a01b03831660009081526020919091526040902060008161325b614e05565b916000198301915061326b614ea6565b5050505a613277614f28565b60008581526008602052604090206002018190612c57614ea6565b60008161329e81611c86565b6132e25760405162461bcd60e51b815260040180806020018281038252602d815260200180615161602d9139604001915050604051809103906132df614d9a565b50505b6132ea612238565b8061331657506132f981612275565b6001600160a01b03165a61330b614e60565b6001600160a01b0316145b806133295750600e613326614e05565b81145b61336d5760405162461bcd60e51b81526004018080602001828103825260748152602001806151ae607491396080019150506040518091039061336a614d9a565b50505b60006004613379614e05565b906101000a900460ff161561339657600080613393614d9a565b50505b6001600481816133a4614e05565b8160ff021916908315150217906133b9614ea6565b5050506133c4614ef4565b600084815260026020526040902060405160c081016040529081816133e7614e05565b81526020016000600183016133fa614e05565b6001600160a01b036101009290920a90041681526020016002820161341d614e05565b8152602001600060038301613430614e05565b6001600160a01b036101009290920a9004168152602001600060048301613455614e05565b6001600160a01b036101009290920a900416815260200160146004830161347a614e05565b6001600160401b036101009290920a9004169052506000858152600260205290915060409020600080826134ac614ea6565b5050600182810190816134bd614e05565b906001600160a01b03021916906134d2614ea6565b5050600282016000906134e3614ea6565b5050600382016001816134f4614e05565b906001600160a01b0302191690613509614ea6565b50506004820160018161351a614e05565b906001600160a01b030219169061352f614ea6565b505060048201600160a01b81613543614e05565b906001600160401b0302191690613558614ea6565b5050505080602001516001600160a01b031663a9059cbb826080015183516040516001600160e01b031960e085901b1681526001600160a01b0390921660048301526024820152604401602060405180830381600087806135b7614fb4565b1580156135cc576000806135c9614d9a565b50505b505a6135d6615000565b5050505050501580156135f6573d6000803e3d60006135f3614d9a565b50505b505050506040513d602081101561361557600080613612614d9a565b50505b81019080805192506136329150505760008061362f614d9a565b50505b60008051602061510e8339815191528460405190815260200160405180910390a180608001516001600160a01b0316816020015182606001516040516001600160601b0319606093841b811660208301529190921b16603482015260480160405160208183030381529060405280519060200120857f9577941d28fff863bfbee4694a6a4a56fb09e169619189d2eaa750b5b481999560208501518560600151865187604001515a6136e2614f6e565b6040516001600160a01b0395861681529390941660208401526001600160801b03918216604080850191909152911660608301526001600160401b03909216608082015260a001905180910390a45060019150600060048381613743614e05565b8160ff02191690831515021790613758614ea6565b50505050919050565b60008261376d81611c86565b61377f5760008061377c614d9a565b50505b613787612238565b1561379a57600080613797614d9a565b50505b600060046137a6614e05565b906101000a900460ff16156137c3576000806137c0614d9a565b50505b6001600481816137d1614e05565b8160ff021916908315150217906137e6614ea6565b5050506137f1614ef4565b600085815260026020526040902060405160c08101604052908181613814614e05565b8152602001600060018301613827614e05565b6001600160a01b036101009290920a90041681526020016002820161384a614e05565b815260200160006003830161385d614e05565b6001600160a01b036101009290920a9004168152602001600060048301613882614e05565b6001600160a01b036101009290920a90041681526020016014600483016138a7614e05565b6001600160401b036101009290920a9004169052509050600081516138d0868460400151614a84565b816138d757fe5b04905080816001600160801b0316146139355760405162461bcd60e51b81526020600482015260136024820152721cdc195b99081a5cc81b9bdd08185b881a5b9d606a1b604482015260640160405180910390613932614d9a565b50505b84856001600160801b0316146139935760405162461bcd60e51b81526020600482015260166024820152751c5d585b9d1a5d1e481a5cc81b9bdd08185b881a5b9d60521b604482015260640160405180910390613990614d9a565b50505b84158061399e575080155b806139a95750815185115b806139b75750816040015181115b156139c75760009350505061414c565b60006127106139df8360056139da614e05565b614a84565b816139e657fe5b04905082606001516001600160a01b03166323b872dd5a613a05614e60565b60006006613a11614e05565b906101000a90046001600160a01b0316846040516001600160e01b031960e086901b1681526001600160a01b039384166004820152919092166024820152604481019190915260640160206040518083038160008780613a6f614fb4565b158015613a8457600080613a81614d9a565b50505b505a613a8e615000565b505050505050158015613aae573d6000803e3d6000613aab614d9a565b50505b505050506040513d6020811015613acd57600080613aca614d9a565b50505b8101908080519250613b319150505760405162461bcd60e51b815260206004820152601f60248201527f496e73756666696369656e742066756e647320746f20636f7665722066656500604482015260640160405180910390613b2e614d9a565b50505b613b3c8351876129e2565b60008881526002602052604090208190613b54614ea6565b505050613b658360400151836129e2565b60008881526002602052604090206002018190613b80614ea6565b50505082606001516001600160a01b03166323b872dd5a613b9f614e60565b8560800151856040516001600160e01b031960e086901b1681526001600160a01b039384166004820152919092166024820152604481019190915260640160206040518083038160008780613bf2614fb4565b158015613c0757600080613c04614d9a565b50505b505a613c11615000565b505050505050158015613c31573d6000803e3d6000613c2e614d9a565b50505b505050506040513d6020811015613c5057600080613c4d614d9a565b50505b8101908080519250613c9f9150505760405162461bcd60e51b81526004018080602001828103825260628152602001806152226062913960800191505060405180910390613c9c614d9a565b50505b82602001516001600160a01b031663a9059cbb5a613cbb614e60565b886040516001600160e01b031960e085901b1681526001600160a01b039092166004830152602482015260440160206040518083038160008780613cfd614fb4565b158015613d1257600080613d0f614d9a565b50505b505a613d1c615000565b505050505050158015613d3c573d6000803e3d6000613d39614d9a565b50505b505050506040513d6020811015613d5b57600080613d58614d9a565b50505b8101908080519250613daa9150505760405162461bcd60e51b815260040180806020018281038252603381526020018061512e6033913960400191505060405180910390613da7614d9a565b50505b60008051602061510e8339815191528760405190815260200160405180910390a15a613dd4614e60565b6001600160a01b031683608001516001600160a01b0316846020015185606001516040516001600160601b0319606093841b811660208301529190921b166034820152604801604051602081830303815290604052805190602001207f3383e3357c77fd2e3a4b30deea81179bc70a795d053d14d5b7f2f01d0fd4596f8a602088015188606001518c895a613e67614f6e565b6040519586526001600160a01b039485166020870152929093166040808601919091526001600160801b039182166060860152921660808401526001600160401b031660a083015260c0909101905180910390a45a613ec4614e60565b6001600160a01b031683608001516001600160a01b0316846020015185606001516040516001600160601b0319606093841b811660208301529190921b166034820152604801604051602081830303815290604052805190602001207f0ae463beeed705bdba735cc0f80a21bc43e39fa85611fbceb6e509ca190cc6e28a602088015188606001518c898960006006613f5b614e05565b906101000a90046001600160a01b03165a613f74614f6e565b6040519788526001600160a01b0396871660208901529486166040808901919091526001600160801b03948516606089015292909316608087015260a0860152921660c08401526001600160401b031660e0830152610100909101905180910390a482606001516001600160a01b031683602001516001600160a01b03167f819e390338feffe95e2de57172d6faf337853dfd15c7a09a32d76f7fd2443875888560405191825260208201526040908101905180910390a36000878152600260205260409020614042614e05565b61414457600087815260026020526040902060008082614060614ea6565b505060018281019081614071614e05565b906001600160a01b0302191690614086614ea6565b505060028201600090614097614ea6565b5050600382016001816140a8614e05565b906001600160a01b03021916906140bd614ea6565b5050600482016001816140ce614e05565b906001600160a01b03021916906140e3614ea6565b505060048201600160a01b816140f7614e05565b906001600160401b030219169061410c614ea6565b505050507f88686b85d6f2c3ab9a04e4f15a22fcfa025ffd97226dcf0a67cdf682def556768760405190815260200160405180910390a15b600194505050505b6000600460018161415b614e05565b8160ff02191690831515021790614170614ea6565b5050505092915050565b600060156006614188614e05565b906101000a900460ff166141a4576000806141a1614d9a565b50505b60008381526002602052604090206141ba614e05565b8214156141e9576141ca836122a8565b156141de576141d883612f56565b506141e9565b6141e783612b40565b505b6141f38383613761565b61420557600080614202614d9a565b50505b61420e83611c86565b8015614284575060008381526002602052600b9060408120600101600090614234614e05565b906101000a90046001600160a01b03166001600160a01b03166001600160a01b0316815260200190815260200160002061426c614e05565b6000848152600260205260409020614282614e05565b105b156142a3578280600e614295614ea6565b5050506142a1836112e5565b505b50600192915050565b60008060008060005b6001600160a01b03881660009081526009602052604081206001600160a01b038c166000908152602091909152604090206142ee614e05565b1115614431576001600160a01b03881660009081526009602052604090206001600160a01b038b1660009081526020919091526040902061432d614e05565b6000818152600260205290945060409020600201614349614e05565b6000858152600260205290925060409020614362614e05565b905085614370576000614378565b808b8a840101015b6143828c83614a84565b0161438d838b614a84565b111561439857614431565b6143ab846143a6838c614ccc565b612440565b507f3156f1facedd2c8392e4de7babf62e19484c1ac8f306f3a857c46a1bf39013b9856143d8838c614ccc565b60405191825260208201526040908101905180910390a188925061440089610d95838c614ccc565b98508261440d8a8d614a84565b8161441457fe5b049a508a1580614422575088155b1561442c57614431565b6142b5565b600089118015614441575060008b115b801561446c57506001600160a01b038a166000908152600b60205260409020614468614e05565b8b10155b156144895761447d8b8b8b8b614497565b94506144898588612c64565b505050509695505050505050565b60006144a1612238565b156144b4576000806144b1614d9a565b50505b600060046144c0614e05565b906101000a900460ff16156144dd576000806144da614d9a565b50505b6001600481816144eb614e05565b8160ff02191690831515021790614500614ea6565b505050838261450e82614ce3565b6145205760008061451d614d9a565b50505b61452981614ce3565b61453b57600080614538614d9a565b50505b86876001600160801b03161461455957600080614556614d9a565b50505b84856001600160801b03161461457757600080614574614d9a565b50505b6000871161458d5760008061458a614d9a565b50505b6001600160a01b0386166145a9576000806145a6614d9a565b50505b600085116145bf576000806145bc614d9a565b50505b6001600160a01b0384166145db576000806145d8614d9a565b50505b836001600160a01b0316866001600160a01b0316141561460357600080614600614d9a565b50505b61460b614ef4565b8781526001600160a01b03808816602083015260408201879052851660608201525a614635614e60565b6001600160a01b031660808201525a61464c614f6e565b6001600160401b031660a0820152614662614d17565b60008181526002602052909450819060409020815181614680614ea6565b5050602082015160018083019081614696614e05565b816001600160a01b0302191690836001600160a01b03160217906146b8614ea6565b5050506040820151816002016146cc614ea6565b50506060820151600382016001816146e2614e05565b816001600160a01b0302191690836001600160a01b0316021790614704614ea6565b50505060808201516004820160018161471b614e05565b816001600160a01b0302191690836001600160a01b031602179061473d614ea6565b50505060a082015160048201600160a01b81614757614e05565b816001600160401b0302191690836001600160401b0316021790614779614ea6565b505050905050866001600160a01b03166323b872dd5a614797614e60565b5a63996d79a5598160e01b8152602081600483336000905af158601d01573d60011458600c01573d6000803e3d621234565260ea61109c528051925060005b60408110156147ed576000828201526020016147d6565b5050508b6040516001600160e01b031960e086901b1681526001600160a01b03938416600482015291909216602482015260448101919091526064016020604051808303816000878061483e614fb4565b15801561485357600080614850614d9a565b50505b505a61485d615000565b50505050505015801561487d573d6000803e3d600061487a614d9a565b50505b505050506040513d602081101561489c57600080614899614d9a565b50505b81019080805192506148b9915050576000806148b6614d9a565b50505b60008051602061510e8339815191528460405190815260200160405180910390a15a6148e3614e60565b6001600160a01b031687866040516001600160601b0319606093841b811660208301529190921b16603482015260480160405160208183030381529060405280519060200120857f773ff502687307abfa024ac9f62f9752a0d210dac2ffd9a29e38e12e2ea82c828a898d8c5a614958614f6e565b6040516001600160a01b0395861681529390941660208401526001600160801b03918216604080850191909152911660608301526001600160401b03909216608082015260a001905180910390a45050506000600460006101000a816149bc614e05565b8160ff02191690831515021790610e48614ea6565b6001600160a01b0383166000908152600b60205284604082206149f2614e05565b1115614a0657600080614a03614d9a565b50505b614a1285858585614497565b9050600d614a1e614e05565b6000828152600c602052604090208190614a36614ea6565b50505080600d8190614a46614ea6565b5050507f8173832a493e0a3989e521458e55bfe9feac9f9b675a94e100b9d5a85f8148628160405190815260200160405180910390a1949350505050565b6000811580614a9f57505080820282828281614a9c57fe5b04145b610c585760405162461bcd60e51b815260206004820152601460248201527364732d6d6174682d6d756c2d6f766572666c6f7760601b6044820152606401604051809103906129da614d9a565b6000808311614b0357600080614b00614d9a565b50505b8115801590614b185750614b1682611c86565b155b15614b3d576000828152600860205260409020600101614b36614e05565b9150614b03565b81614b5257614b4b83614bdf565b9050610c58565b614b5c8383614d42565b15614ba05760005b8215801590614b785750614b788484614d42565b15614b4b575060008281526008602052829060409020600101614b99614e05565b9250614b64565b8115801590614bb65750614bb48383614d42565b155b15614bd8576000828152600860205260409020614bd1614e05565b9150614ba0565b5080610c58565b6000808211614bf657600080614bf3614d9a565b50505b6000828152600260205260408120600301600090614c12614e05565b906101000a90046001600160a01b03169050600060026000858152602001908152602001600020600101600090614c47614e05565b6001600160a01b036101009290920a90041660008181526009602052909150604081206001600160a01b038416600090815260209190915260409020614c8b614e05565b905060005b8115801590614ca45750614ca48683614d42565b15610ef8575060008181526008602052819060409020600101614cc5614e05565b9150614c90565b600081831115614cdc5781610c55565b5090919050565b6001600160a01b0381166000908152600360205260408120600090614d06614e05565b906101000a900460ff169050919050565b60006001600081614d26614e05565b91600183019150614d35614ea6565b5050506001611745614e05565b60008181526002602052614d7460408220600201614d5e614e05565b60008581526002602052604090206139da614e05565b60008481526002602052614d919060409020600201614d5e614e05565b10159392505050565b632a2a7adb598160e01b8152600481016020815285602082015260005b86811015614dd2578086015182820160400152602001614db7565b506020828760640184336000905af158601d01573d60011458600c01573d6000803e3d621234565260ea61109c52505050565b6303daa959598160e01b8152836004820152602081602483336000905af158601d01573d60011458600c01573d6000803e3d621234565260ea61109c528051935060005b6040811015610ed357600082820152602001614e49565b6373509064598160e01b8152602081600483336000905af158601d01573d60011458600c01573d6000803e3d621234565260ea61109c5280516000825293506020614e49565b6322bd64c0598160e01b8152836004820152846024820152600081604483336000905af158601d01573d60011458600c01573d6000803e3d621234565260ea61109c52600081526020614e49565b60405160c081016040908152600080835260208301819052908201819052606082018190526080820181905260a082015290565b635a98c361598160e01b8152602081600483336000905af158601d01573d60011458600c01573d6000803e3d621234565260ea61109c5280516000825293506020614e49565b63bdbf8c36598160e01b8152602081600483336000905af158601d01573d60011458600c01573d6000803e3d621234565260ea61109c5280516000825293506020614e49565b638435035b598160e01b8152836004820152602081602483336000905af158601d01573d60011458600c01573d6000803e3d621234565260ea61109c5280516000825293506020614e49565b6385979f76598160e01b8152615031565b8080831115610c58575090919050565b8080831015610c58575090919050565b836004820152846024820152606060448201528760648201526084810160005b89811015615069578089015182820152602001615051565b506060828a60a40184336000905af158601d01573d60011458600c01573d6000803e3d621234565260ea61109c52815160408301513d6000853e8c8c82606087013350600060045af150596150be8e3d615021565b8d016150ca8187615011565b5b828110156150df57600081526020016150cb565b50929d50505050505050565bfefe5265656e7472616e637920617474656d70740000000000000000000000000000a2c251311b1a7a475913900a2a73dc9789a21b04bc737e050bbc506dd4eb34886f666665722e7061795f67656d2e7472616e73666572286d73672e73656e6465722c207175616e7469747929206661696c65644f66666572207761732064656c65746564206f722074616b656e2c206f72206e6576657220657869737465642ece241d7ca1f669fee44b6fc00b8eba2df3bb514eed0f6f668f8f89096e81ed944f666665722063616e206e6f742062652063616e63656c6c656420626563617573652075736572206973206e6f74206f776e65722c20616e64206d61726b6574206973206f70656e2c20616e64206f666665722073656c6c7320726571756972656420616d6f756e74206f6620746f6b656e732e6f666665722e6275795f67656d2e7472616e7366657246726f6d286d73672e73656e6465722c206f666665722e6f776e65722c207370656e6429206661696c6564202d20636865636b207468617420796f752063616e20706179207468652066656564732d617574682d756e617574686f72697a6564000000000000000000000000",
  "linkReferences": {},
  "deployedLinkReferences": {}
}