{
  "_format": "hh-sol-artifact-1",
  "contractName": "SimpleMarket",
  "sourceName": "contracts/RubiconMarket.sol",
  "abi": [
    {
      "anonymous": false,
      "inputs": [
        {
          "indexed": false,
          "internalType": "bytes32",
          "name": "id",
          "type": "bytes32"
        },
        {
          "indexed": true,
          "internalType": "bytes32",
          "name": "pair",
          "type": "bytes32"
        },
        {
          "indexed": true,
          "internalType": "address",
          "name": "maker",
          "type": "address"
        },
        {
          "indexed": false,
          "internalType": "contract ERC20",
          "name": "pay_gem",
          "type": "address"
        },
        {
          "indexed": false,
          "internalType": "contract ERC20",
          "name": "buy_gem",
          "type": "address"
        },
        {
          "indexed": true,
          "internalType": "address",
          "name": "taker",
          "type": "address"
        },
        {
          "indexed": false,
          "internalType": "uint128",
          "name": "take_amt",
          "type": "uint128"
        },
        {
          "indexed": false,
          "internalType": "uint128",
          "name": "give_amt",
          "type": "uint128"
        },
        {
          "indexed": false,
          "internalType": "uint256",
          "name": "feeAmt",
          "type": "uint256"
        },
        {
          "indexed": false,
          "internalType": "address",
          "name": "feeTo",
          "type": "address"
        },
        {
          "indexed": false,
          "internalType": "uint64",
          "name": "timestamp",
          "type": "uint64"
        }
      ],
      "name": "FeeTake",
      "type": "event"
    },
    {
      "anonymous": false,
      "inputs": [
        {
          "indexed": true,
          "internalType": "bytes32",
          "name": "id",
          "type": "bytes32"
        },
        {
          "indexed": true,
          "internalType": "bytes32",
          "name": "pair",
          "type": "bytes32"
        },
        {
          "indexed": true,
          "internalType": "address",
          "name": "maker",
          "type": "address"
        },
        {
          "indexed": false,
          "internalType": "contract ERC20",
          "name": "pay_gem",
          "type": "address"
        },
        {
          "indexed": false,
          "internalType": "contract ERC20",
          "name": "buy_gem",
          "type": "address"
        },
        {
          "indexed": false,
          "internalType": "uint128",
          "name": "pay_amt",
          "type": "uint128"
        },
        {
          "indexed": false,
          "internalType": "uint128",
          "name": "buy_amt",
          "type": "uint128"
        },
        {
          "indexed": false,
          "internalType": "uint64",
          "name": "timestamp",
          "type": "uint64"
        }
      ],
      "name": "LogBump",
      "type": "event"
    },
    {
      "anonymous": false,
      "inputs": [
        {
          "indexed": false,
          "internalType": "string",
          "name": "lol",
          "type": "string"
        },
        {
          "indexed": false,
          "internalType": "uint256",
          "name": "input",
          "type": "uint256"
        }
      ],
      "name": "LogInt",
      "type": "event"
    },
    {
      "anonymous": false,
      "inputs": [
        {
          "indexed": false,
          "internalType": "uint256",
          "name": "id",
          "type": "uint256"
        }
      ],
      "name": "LogItemUpdate",
      "type": "event"
    },
    {
      "anonymous": false,
      "inputs": [
        {
          "indexed": true,
          "internalType": "bytes32",
          "name": "id",
          "type": "bytes32"
        },
        {
          "indexed": true,
          "internalType": "bytes32",
          "name": "pair",
          "type": "bytes32"
        },
        {
          "indexed": true,
          "internalType": "address",
          "name": "maker",
          "type": "address"
        },
        {
          "indexed": false,
          "internalType": "contract ERC20",
          "name": "pay_gem",
          "type": "address"
        },
        {
          "indexed": false,
          "internalType": "contract ERC20",
          "name": "buy_gem",
          "type": "address"
        },
        {
          "indexed": false,
          "internalType": "uint128",
          "name": "pay_amt",
          "type": "uint128"
        },
        {
          "indexed": false,
          "internalType": "uint128",
          "name": "buy_amt",
          "type": "uint128"
        },
        {
          "indexed": false,
          "internalType": "uint64",
          "name": "timestamp",
          "type": "uint64"
        }
      ],
      "name": "LogKill",
      "type": "event"
    },
    {
      "anonymous": false,
      "inputs": [
        {
          "indexed": true,
          "internalType": "bytes32",
          "name": "id",
          "type": "bytes32"
        },
        {
          "indexed": true,
          "internalType": "bytes32",
          "name": "pair",
          "type": "bytes32"
        },
        {
          "indexed": true,
          "internalType": "address",
          "name": "maker",
          "type": "address"
        },
        {
          "indexed": false,
          "internalType": "contract ERC20",
          "name": "pay_gem",
          "type": "address"
        },
        {
          "indexed": false,
          "internalType": "contract ERC20",
          "name": "buy_gem",
          "type": "address"
        },
        {
          "indexed": false,
          "internalType": "uint128",
          "name": "pay_amt",
          "type": "uint128"
        },
        {
          "indexed": false,
          "internalType": "uint128",
          "name": "buy_amt",
          "type": "uint128"
        },
        {
          "indexed": false,
          "internalType": "uint64",
          "name": "timestamp",
          "type": "uint64"
        }
      ],
      "name": "LogMake",
      "type": "event"
    },
    {
      "anonymous": false,
      "inputs": [
        {
          "indexed": false,
          "internalType": "bytes32",
          "name": "id",
          "type": "bytes32"
        },
        {
          "indexed": true,
          "internalType": "bytes32",
          "name": "pair",
          "type": "bytes32"
        },
        {
          "indexed": true,
          "internalType": "address",
          "name": "maker",
          "type": "address"
        },
        {
          "indexed": false,
          "internalType": "contract ERC20",
          "name": "pay_gem",
          "type": "address"
        },
        {
          "indexed": false,
          "internalType": "contract ERC20",
          "name": "buy_gem",
          "type": "address"
        },
        {
          "indexed": true,
          "internalType": "address",
          "name": "taker",
          "type": "address"
        },
        {
          "indexed": false,
          "internalType": "uint128",
          "name": "take_amt",
          "type": "uint128"
        },
        {
          "indexed": false,
          "internalType": "uint128",
          "name": "give_amt",
          "type": "uint128"
        },
        {
          "indexed": false,
          "internalType": "uint64",
          "name": "timestamp",
          "type": "uint64"
        }
      ],
      "name": "LogTake",
      "type": "event"
    },
    {
      "anonymous": false,
      "inputs": [
        {
          "indexed": false,
          "internalType": "uint256",
          "name": "pay_amt",
          "type": "uint256"
        },
        {
          "indexed": true,
          "internalType": "address",
          "name": "pay_gem",
          "type": "address"
        },
        {
          "indexed": false,
          "internalType": "uint256",
          "name": "buy_amt",
          "type": "uint256"
        },
        {
          "indexed": true,
          "internalType": "address",
          "name": "buy_gem",
          "type": "address"
        }
      ],
      "name": "LogTrade",
      "type": "event"
    },
    {
      "anonymous": false,
      "inputs": [
        {
          "indexed": false,
          "internalType": "uint256",
          "name": "id",
          "type": "uint256"
        }
      ],
      "name": "OfferDeleted",
      "type": "event"
    },
    {
      "constant": false,
      "inputs": [
        {
          "internalType": "bytes32",
          "name": "id_",
          "type": "bytes32"
        }
      ],
      "name": "bump",
      "outputs": [],
      "payable": false,
      "stateMutability": "nonpayable",
      "type": "function"
    },
    {
      "constant": false,
      "inputs": [
        {
          "internalType": "uint256",
          "name": "id",
          "type": "uint256"
        },
        {
          "internalType": "uint256",
          "name": "quantity",
          "type": "uint256"
        }
      ],
      "name": "buy",
      "outputs": [
        {
          "internalType": "bool",
          "name": "",
          "type": "bool"
        }
      ],
      "payable": false,
      "stateMutability": "nonpayable",
      "type": "function"
    },
    {
      "constant": false,
      "inputs": [
        {
          "internalType": "uint256",
          "name": "id",
          "type": "uint256"
        }
      ],
      "name": "cancel",
      "outputs": [
        {
          "internalType": "bool",
          "name": "success",
          "type": "bool"
        }
      ],
      "payable": false,
      "stateMutability": "nonpayable",
      "type": "function"
    },
    {
      "constant": true,
      "inputs": [
        {
          "internalType": "uint256",
          "name": "id",
          "type": "uint256"
        }
      ],
      "name": "getOffer",
      "outputs": [
        {
          "internalType": "uint256",
          "name": "",
          "type": "uint256"
        },
        {
          "internalType": "contract ERC20",
          "name": "",
          "type": "address"
        },
        {
          "internalType": "uint256",
          "name": "",
          "type": "uint256"
        },
        {
          "internalType": "contract ERC20",
          "name": "",
          "type": "address"
        }
      ],
      "payable": false,
      "stateMutability": "view",
      "type": "function"
    },
    {
      "constant": true,
      "inputs": [
        {
          "internalType": "uint256",
          "name": "id",
          "type": "uint256"
        }
      ],
      "name": "getOwner",
      "outputs": [
        {
          "internalType": "address",
          "name": "owner",
          "type": "address"
        }
      ],
      "payable": false,
      "stateMutability": "view",
      "type": "function"
    },
    {
      "constant": true,
      "inputs": [
        {
          "internalType": "uint256",
          "name": "id",
          "type": "uint256"
        }
      ],
      "name": "isActive",
      "outputs": [
        {
          "internalType": "bool",
          "name": "active",
          "type": "bool"
        }
      ],
      "payable": false,
      "stateMutability": "view",
      "type": "function"
    },
    {
      "constant": false,
      "inputs": [
        {
          "internalType": "bytes32",
          "name": "id",
          "type": "bytes32"
        }
      ],
      "name": "kill",
      "outputs": [],
      "payable": false,
      "stateMutability": "nonpayable",
      "type": "function"
    },
    {
      "constant": true,
      "inputs": [],
      "name": "last_offer_id",
      "outputs": [
        {
          "internalType": "uint256",
          "name": "",
          "type": "uint256"
        }
      ],
      "payable": false,
      "stateMutability": "view",
      "type": "function"
    },
    {
      "constant": false,
      "inputs": [
        {
          "internalType": "contract ERC20",
          "name": "pay_gem",
          "type": "address"
        },
        {
          "internalType": "contract ERC20",
          "name": "buy_gem",
          "type": "address"
        },
        {
          "internalType": "uint128",
          "name": "pay_amt",
          "type": "uint128"
        },
        {
          "internalType": "uint128",
          "name": "buy_amt",
          "type": "uint128"
        }
      ],
      "name": "make",
      "outputs": [
        {
          "internalType": "bytes32",
          "name": "id",
          "type": "bytes32"
        }
      ],
      "payable": false,
      "stateMutability": "nonpayable",
      "type": "function"
    },
    {
      "constant": false,
      "inputs": [
        {
          "internalType": "uint256",
          "name": "pay_amt",
          "type": "uint256"
        },
        {
          "internalType": "contract ERC20",
          "name": "pay_gem",
          "type": "address"
        },
        {
          "internalType": "uint256",
          "name": "buy_amt",
          "type": "uint256"
        },
        {
          "internalType": "contract ERC20",
          "name": "buy_gem",
          "type": "address"
        }
      ],
      "name": "offer",
      "outputs": [
        {
          "internalType": "uint256",
          "name": "id",
          "type": "uint256"
        }
      ],
      "payable": false,
      "stateMutability": "nonpayable",
      "type": "function"
    },
    {
      "constant": true,
      "inputs": [
        {
          "internalType": "uint256",
          "name": "",
          "type": "uint256"
        }
      ],
      "name": "offers",
      "outputs": [
        {
          "internalType": "uint256",
          "name": "pay_amt",
          "type": "uint256"
        },
        {
          "internalType": "contract ERC20",
          "name": "pay_gem",
          "type": "address"
        },
        {
          "internalType": "uint256",
          "name": "buy_amt",
          "type": "uint256"
        },
        {
          "internalType": "contract ERC20",
          "name": "buy_gem",
          "type": "address"
        },
        {
          "internalType": "address",
          "name": "owner",
          "type": "address"
        },
        {
          "internalType": "uint64",
          "name": "timestamp",
          "type": "uint64"
        }
      ],
      "payable": false,
      "stateMutability": "view",
      "type": "function"
    },
    {
      "constant": false,
      "inputs": [
        {
          "internalType": "bytes32",
          "name": "id",
          "type": "bytes32"
        },
        {
          "internalType": "uint128",
          "name": "maxTakeAmount",
          "type": "uint128"
        }
      ],
      "name": "take",
      "outputs": [],
      "payable": false,
      "stateMutability": "nonpayable",
      "type": "function"
    }
  ],
  "bytecode": "0x60806040523480156100195760008061001661001f565b50505b5061008a565b632a2a7adb598160e01b8152600481016020815285602082015260005b8681101561005757808601518282016040015260200161003c565b506020828760640184336000905af158600e01573d6000803e3d6000fd5b3d6001141558600a015760016000f35b505050565b6120b6806200009a6000396000f3fe608060405234801561001957600080610016611d15565b50505b50600436106100bd5760003560e01c806382afd23b1161007a57806382afd23b146102265780638a72ea6a1461024c578063b4f9b6c8146102be578063c41a360a146102e4578063d6febde814610326578063f09ea2a614610352576100bd565b8063093f5198146100cb578063232cae0b1461012d57806340e58ee5146101355780634579268a1461016f57806349606455146101c9578063779997c314610200575b6000806100c8611d15565b50505b61011b600480360360808110156100ea576000806100e7611d15565b50505b506001600160a01b0381358116916020810135909116906001600160801b0360408201358116916060013516610397565b60405190815260200160405180910390f35b61011b6103c0565b61015b6004803603602081101561015457600080610151611d15565b50505b50356103cd565b604051901515815260200160405180910390f35b6101956004803603602081101561018e5760008061018b611d15565b50505b5035610828565b6040519384526001600160a01b03928316602085015260408085019290925290911660608301526080909101905180910390f35b6101fe600480360360408110156101e8576000806101e5611d15565b50505b50803590602001356001600160801b0316610924565b005b6101fe6004803603602081101561021f5760008061021c611d15565b50505b503561094d565b61015b6004803603602081101561024557600080610242611d15565b50505b5035610b71565b6102726004803603602081101561026b57600080610268611d15565b50505b5035610ba7565b6040519586526001600160a01b039485166020870152604080870194909452918416606086015290921660808401526001600160401b0390911660a083015260c0909101905180910390f35b6101fe600480360360208110156102dd576000806102da611d15565b50505b5035610c50565b61030a6004803603602081101561030357600080610300611d15565b50505b5035610c6e565b6040516001600160a01b03909116815260200160405180910390f35b61015b6004803603604081101561034557600080610342611d15565b50505b5080359060200135610ca1565b61011b600480360360808110156103715760008061036e611d15565b50505b508035906001600160a01b036020820135811691604081013591606090910135166116b1565b60006103b7836001600160801b031686846001600160801b0316876116b1565b95945050505050565b60006103ca611d80565b81565b6000816103d981610b71565b6103eb576000806103e8611d15565b50505b5a6103f4611ddb565b6001600160a01b031661040682610c6e565b6001600160a01b0316146104225760008061041f611d15565b50505b6000600361042e611d80565b906101000a900460ff161561044b57600080610448611d15565b50505b600160038181610459611d80565b8160ff0219169083151502179061046e611e21565b505050610479611e6f565b600084815260016020526040902060405160c0810160405290818161049c611d80565b81526020016000600183016104af611d80565b6001600160a01b036101009290920a9004168152602001600282016104d2611d80565b81526020016000600383016104e5611d80565b6001600160a01b036101009290920a900416815260200160006004830161050a611d80565b6001600160a01b036101009290920a900416815260200160146004830161052f611d80565b6001600160401b036101009290920a900416905250600085815260016020529091506040902060008082610561611e21565b505060018281019081610572611d80565b906001600160a01b0302191690610587611e21565b505060028201600090610598611e21565b5050600382016001816105a9611d80565b906001600160a01b03021916906105be611e21565b5050600482016001816105cf611d80565b906001600160a01b03021916906105e4611e21565b505060048201600160a01b816105f8611d80565b906001600160401b030219169061060d611e21565b5050505080602001516001600160a01b031663a9059cbb826080015183516040516001600160e01b031960e085901b1681526001600160a01b03909216600483015260248201526044016020604051808303816000878061066c611ea3565b1580156106815760008061067e611d15565b50505b505a61068b611eef565b5050505050501580156106ab573d6000803e3d60006106a8611d15565b50505b505050506040513d60208110156106ca576000806106c7611d15565b50505b81019080805192506106e7915050576000806106e4611d15565b50505b7fa2c251311b1a7a475913900a2a73dc9789a21b04bc737e050bbc506dd4eb34888460405190815260200160405180910390a180608001516001600160a01b0316816020015182606001516040516001600160601b0319606093841b811660208301529190921b16603482015260480160405160208183030381529060405280519060200120857f9577941d28fff863bfbee4694a6a4a56fb09e169619189d2eaa750b5b481999560208501518560600151865187604001515a6107a9611fda565b6040516001600160a01b0395861681529390941660208401526001600160801b03918216604080850191909152911660608301526001600160401b03909216608082015260a001905180910390a4506001915060006003838161080a611d80565b8160ff0219169083151502179061081f611e21565b50505050919050565b600080600080610836611e6f565b600086815260016020526040902060405160c08101604052908181610859611d80565b815260200160006001830161086c611d80565b6001600160a01b036101009290920a90041681526020016002820161088f611d80565b81526020016000600383016108a2611d80565b6001600160a01b036101009290920a90041681526020016000600483016108c7611d80565b6001600160a01b036101009290920a90041681526020016014600483016108ec611d80565b6001600160401b036101009290920a900416905250905080518160200151826040015183606001519450945094509450509193509193565b610937826001600160801b038316610ca1565b61094957600080610946611d15565b50505b5050565b8061095781610b71565b61096957600080610966611d15565b50505b60008281526001602052829060409020600401600090610987611d80565b906101000a90046001600160a01b03166001600160a01b0316600160008381526020019081526020016000206001016000906109c1611d80565b906101000a90046001600160a01b0316600160008481526020019081526020016000206003016000906109f2611d80565b906101000a90046001600160a01b03166040516001600160601b0319606093841b811660208301529190921b166034820152604801604051602081830303815290604052805190602001206000838152600160205285907f70a14c213064359ede031fd2a1645a11ce2ec825ffe6ab5cfb5b160c3ef4d0a29060409020600101600090610a7d611d80565b906101000a90046001600160a01b031660016000878152602001908152602001600020600301600090610aae611d80565b906101000a90046001600160a01b031660016000888152602001908152602001600020610ad9611d80565b6000888152600160205260409020600201610af2611d80565b6000898152600160205260409020600401601490610b0e611d80565b906101000a90046001600160401b03166040516001600160a01b0395861681529390941660208401526001600160801b03918216604080850191909152911660608301526001600160401b03909216608082015260a001905180910390a4505050565b600081815260016020528060408120600401601490610b8e611d80565b6001600160401b036101009290920a9004161192915050565b6001602052806000526040600020905080610bc0611d80565b90600060018201610bcf611d80565b906101000a90046001600160a01b03169080600201610bec611d80565b90600060038201610bfb611d80565b906101000a90046001600160a01b03169080600401600090610c1b611d80565b906101000a90046001600160a01b03169080600401601490610c3b611d80565b906101000a90046001600160401b0316905086565b610c59816103cd565b610c6b57600080610c68611d15565b50505b50565b6000818152600160205260408120600401600090610c8a611d80565b906101000a90046001600160a01b03169050919050565b600082610cad81610b71565b610cbf57600080610cbc611d15565b50505b60006003610ccb611d80565b906101000a900460ff1615610ce857600080610ce5611d15565b50505b600160038181610cf6611d80565b8160ff02191690831515021790610d0b611e21565b505050610d16611e6f565b600085815260016020526040902060405160c08101604052908181610d39611d80565b8152602001600060018301610d4c611d80565b6001600160a01b036101009290920a900416815260200160028201610d6f611d80565b8152602001600060038301610d82611d80565b6001600160a01b036101009290920a9004168152602001600060048301610da7611d80565b6001600160a01b036101009290920a9004168152602001601460048301610dcc611d80565b6001600160401b036101009290920a900416905250905060008151610df5868460400151611bec565b81610dfc57fe5b04905080816001600160801b031614610e5a5760405162461bcd60e51b81526020600482015260136024820152721cdc195b99081a5cc81b9bdd08185b881a5b9d606a1b604482015260640160405180910390610e57611d15565b50505b84856001600160801b031614610eb85760405162461bcd60e51b81526020600482015260166024820152751c5d585b9d1a5d1e481a5cc81b9bdd08185b881a5b9d60521b604482015260640160405180910390610eb5611d15565b50505b841580610ec3575080155b80610ece5750815185115b80610edc5750816040015181115b15610eec57600093505050611683565b6000612710610f04836004610eff611d80565b611bec565b81610f0b57fe5b04905082606001516001600160a01b03166323b872dd5a610f2a611ddb565b60006005610f36611d80565b906101000a90046001600160a01b0316846040516001600160e01b031960e086901b1681526001600160a01b039384166004820152919092166024820152604481019190915260640160206040518083038160008780610f94611ea3565b158015610fa957600080610fa6611d15565b50505b505a610fb3611eef565b505050505050158015610fd3573d6000803e3d6000610fd0611d15565b50505b505050506040513d6020811015610ff257600080610fef611d15565b50505b81019080805192506110569150505760405162461bcd60e51b815260206004820152601f60248201527f496e73756666696369656e742066756e647320746f20636f7665722066656500604482015260640160405180910390611053611d15565b50505b611061835187611c5d565b60008881526001602052604090208190611079611e21565b50505061108a836040015183611c5d565b600088815260016020526040902060020181906110a5611e21565b50505082606001516001600160a01b03166323b872dd5a6110c4611ddb565b8560800151856040516001600160e01b031960e086901b1681526001600160a01b039384166004820152919092166024820152604481019190915260640160206040518083038160008780611117611ea3565b15801561112c57600080611129611d15565b50505b505a611136611eef565b505050505050158015611156573d6000803e3d6000611153611d15565b50505b505050506040513d602081101561117557600080611172611d15565b50505b81019080805192506111c49150505760405162461bcd60e51b815260040180806020018281038252606281526020018061205460629139608001915050604051809103906111c1611d15565b50505b82602001516001600160a01b031663a9059cbb5a6111e0611ddb565b886040516001600160e01b031960e085901b1681526001600160a01b039092166004830152602482015260440160206040518083038160008780611222611ea3565b15801561123757600080611234611d15565b50505b505a611241611eef565b505050505050158015611261573d6000803e3d600061125e611d15565b50505b505050506040513d60208110156112805760008061127d611d15565b50505b81019080805192506112cf9150505760405162461bcd60e51b815260040180806020018281038252603381526020018061202160339139604001915050604051809103906112cc611d15565b50505b7fa2c251311b1a7a475913900a2a73dc9789a21b04bc737e050bbc506dd4eb34888760405190815260200160405180910390a15a61130b611ddb565b6001600160a01b031683608001516001600160a01b0316846020015185606001516040516001600160601b0319606093841b811660208301529190921b166034820152604801604051602081830303815290604052805190602001207f3383e3357c77fd2e3a4b30deea81179bc70a795d053d14d5b7f2f01d0fd4596f8a602088015188606001518c895a61139e611fda565b6040519586526001600160a01b039485166020870152929093166040808601919091526001600160801b039182166060860152921660808401526001600160401b031660a083015260c0909101905180910390a45a6113fb611ddb565b6001600160a01b031683608001516001600160a01b0316846020015185606001516040516001600160601b0319606093841b811660208301529190921b166034820152604801604051602081830303815290604052805190602001207f0ae463beeed705bdba735cc0f80a21bc43e39fa85611fbceb6e509ca190cc6e28a602088015188606001518c898960006005611492611d80565b906101000a90046001600160a01b03165a6114ab611fda565b6040519788526001600160a01b0396871660208901529486166040808901919091526001600160801b03948516606089015292909316608087015260a0860152921660c08401526001600160401b031660e0830152610100909101905180910390a482606001516001600160a01b031683602001516001600160a01b03167f819e390338feffe95e2de57172d6faf337853dfd15c7a09a32d76f7fd2443875888560405191825260208201526040908101905180910390a36000878152600160205260409020611579611d80565b61167b57600087815260016020526040902060008082611597611e21565b5050600182810190816115a8611d80565b906001600160a01b03021916906115bd611e21565b5050600282016000906115ce611e21565b5050600382016001816115df611d80565b906001600160a01b03021916906115f4611e21565b505060048201600181611605611d80565b906001600160a01b030219169061161a611e21565b505060048201600160a01b8161162e611d80565b906001600160401b0302191690611643611e21565b505050507f88686b85d6f2c3ab9a04e4f15a22fcfa025ffd97226dcf0a67cdf682def556768760405190815260200160405180910390a15b600194505050505b60006003600181611692611d80565b8160ff021916908315150217906116a7611e21565b5050505092915050565b60008060036116be611d80565b906101000a900460ff16156116db576000806116d8611d15565b50505b6001600381816116e9611d80565b8160ff021916908315150217906116fe611e21565b505050838261170c82611cb2565b61171e5760008061171b611d15565b50505b61172781611cb2565b61173957600080611736611d15565b50505b86876001600160801b03161461175757600080611754611d15565b50505b84856001600160801b03161461177557600080611772611d15565b50505b6000871161178b57600080611788611d15565b50505b6001600160a01b0386166117a7576000806117a4611d15565b50505b600085116117bd576000806117ba611d15565b50505b6001600160a01b0384166117d9576000806117d6611d15565b50505b836001600160a01b0316866001600160a01b03161415611801576000806117fe611d15565b50505b611809611e6f565b8781526001600160a01b03808816602083015260408201879052851660608201525a611833611ddb565b6001600160a01b031660808201525a61184a611fda565b6001600160401b031660a0820152611860611ce6565b6000818152600160205290945081906040902081518161187e611e21565b5050602082015160018083019081611894611d80565b816001600160a01b0302191690836001600160a01b03160217906118b6611e21565b5050506040820151816002016118ca611e21565b50506060820151600382016001816118e0611d80565b816001600160a01b0302191690836001600160a01b0316021790611902611e21565b505050608082015160048201600181611919611d80565b816001600160a01b0302191690836001600160a01b031602179061193b611e21565b50505060a082015160048201600160a01b81611955611d80565b816001600160401b0302191690836001600160401b0316021790611977611e21565b505050905050866001600160a01b03166323b872dd5a611995611ddb565b5a63996d79a5598160e01b8152602081600483336000905af158600e01573d6000803e3d6000fd5b3d6001141558600a015760016000f35b8051925060005b60408110156119eb576000828201526020016119d4565b5050508b6040516001600160e01b031960e086901b1681526001600160a01b039384166004820152919092166024820152604481019190915260640160206040518083038160008780611a3c611ea3565b158015611a5157600080611a4e611d15565b50505b505a611a5b611eef565b505050505050158015611a7b573d6000803e3d6000611a78611d15565b50505b505050506040513d6020811015611a9a57600080611a97611d15565b50505b8101908080519250611ab791505057600080611ab4611d15565b50505b7fa2c251311b1a7a475913900a2a73dc9789a21b04bc737e050bbc506dd4eb34888460405190815260200160405180910390a15a611af3611ddb565b6001600160a01b031687866040516001600160601b0319606093841b811660208301529190921b16603482015260480160405160208183030381529060405280519060200120857f773ff502687307abfa024ac9f62f9752a0d210dac2ffd9a29e38e12e2ea82c828a898d8c5a611b68611fda565b6040516001600160a01b0395861681529390941660208401526001600160801b03918216604080850191909152911660608301526001600160401b03909216608082015260a001905180910390a45050506000600360006101000a81611bcc611d80565b8160ff02191690831515021790611be1611e21565b505050949350505050565b6000811580611c0757505080820282828281611c0457fe5b04145b611c575760405162461bcd60e51b815260206004820152601460248201527364732d6d6174682d6d756c2d6f766572666c6f7760601b604482015260640160405180910390611c54611d15565b50505b92915050565b80820382811115611c575760405162461bcd60e51b815260206004820152601560248201527464732d6d6174682d7375622d756e646572666c6f7760581b604482015260640160405180910390611c54611d15565b6001600160a01b0381166000908152600260205260408120600090611cd5611d80565b906101000a900460ff169050919050565b600080600081611cf4611d80565b91600183019150611d03611e21565b5050506000611d10611d80565b905090565b632a2a7adb598160e01b8152600481016020815285602082015260005b86811015611d4d578086015182820160400152602001611d32565b506020828760640184336000905af158600e01573d6000803e3d6000fd5b3d6001141558600a015760016000f35b505050565b6303daa959598160e01b8152836004820152602081602483336000905af158600e01573d6000803e3d6000fd5b3d6001141558600a015760016000f35b8051935060005b6040811015610c6857600082820152602001611dc4565b6373509064598160e01b8152602081600483336000905af158600e01573d6000803e3d6000fd5b3d6001141558600a015760016000f35b80516000825293506020611dc4565b6322bd64c0598160e01b8152836004820152846024820152600081604483336000905af158600e01573d6000803e3d6000fd5b3d6001141558600a015760016000f35b600081526020611dc4565b60405160c081016040908152600080835260208301819052908201819052606082018190526080820181905260a082015290565b638435035b598160e01b8152836004820152602081602483336000905af158600e01573d6000803e3d6000fd5b3d6001141558600a015760016000f35b80516000825293506020611dc4565b6385979f76598160e01b8152611f20565b8080831115611c57575090919050565b8080831015611c57575090919050565b836004820152846024820152606060448201528760648201526084810160005b89811015611f58578089015182820152602001611f40565b506060828a60a40184336000905af158600e01573d6000803e3d6000fd5b3d6001141558600a015760016000f35b815160408301513d6000853e8c8c82606087013350600060045af15059611fad8e3d611f10565b8d01611fb98187611f00565b5b82811015611fce5760008152602001611fba565b50929d50505050505050565b63bdbf8c36598160e01b8152602081600483336000905af158600e01573d6000803e3d6000fd5b3d6001141558600a015760016000f35b80516000825293506020611dc456fe6f666665722e7061795f67656d2e7472616e73666572286d73672e73656e6465722c207175616e7469747929206661696c65646f666665722e6275795f67656d2e7472616e7366657246726f6d286d73672e73656e6465722c206f666665722e6f776e65722c207370656e6429206661696c6564202d20636865636b207468617420796f752063616e207061792074686520666565",
  "deployedBytecode": "0x608060405234801561001957600080610016611d15565b50505b50600436106100bd5760003560e01c806382afd23b1161007a57806382afd23b146102265780638a72ea6a1461024c578063b4f9b6c8146102be578063c41a360a146102e4578063d6febde814610326578063f09ea2a614610352576100bd565b8063093f5198146100cb578063232cae0b1461012d57806340e58ee5146101355780634579268a1461016f57806349606455146101c9578063779997c314610200575b6000806100c8611d15565b50505b61011b600480360360808110156100ea576000806100e7611d15565b50505b506001600160a01b0381358116916020810135909116906001600160801b0360408201358116916060013516610397565b60405190815260200160405180910390f35b61011b6103c0565b61015b6004803603602081101561015457600080610151611d15565b50505b50356103cd565b604051901515815260200160405180910390f35b6101956004803603602081101561018e5760008061018b611d15565b50505b5035610828565b6040519384526001600160a01b03928316602085015260408085019290925290911660608301526080909101905180910390f35b6101fe600480360360408110156101e8576000806101e5611d15565b50505b50803590602001356001600160801b0316610924565b005b6101fe6004803603602081101561021f5760008061021c611d15565b50505b503561094d565b61015b6004803603602081101561024557600080610242611d15565b50505b5035610b71565b6102726004803603602081101561026b57600080610268611d15565b50505b5035610ba7565b6040519586526001600160a01b039485166020870152604080870194909452918416606086015290921660808401526001600160401b0390911660a083015260c0909101905180910390f35b6101fe600480360360208110156102dd576000806102da611d15565b50505b5035610c50565b61030a6004803603602081101561030357600080610300611d15565b50505b5035610c6e565b6040516001600160a01b03909116815260200160405180910390f35b61015b6004803603604081101561034557600080610342611d15565b50505b5080359060200135610ca1565b61011b600480360360808110156103715760008061036e611d15565b50505b508035906001600160a01b036020820135811691604081013591606090910135166116b1565b60006103b7836001600160801b031686846001600160801b0316876116b1565b95945050505050565b60006103ca611d80565b81565b6000816103d981610b71565b6103eb576000806103e8611d15565b50505b5a6103f4611ddb565b6001600160a01b031661040682610c6e565b6001600160a01b0316146104225760008061041f611d15565b50505b6000600361042e611d80565b906101000a900460ff161561044b57600080610448611d15565b50505b600160038181610459611d80565b8160ff0219169083151502179061046e611e21565b505050610479611e6f565b600084815260016020526040902060405160c0810160405290818161049c611d80565b81526020016000600183016104af611d80565b6001600160a01b036101009290920a9004168152602001600282016104d2611d80565b81526020016000600383016104e5611d80565b6001600160a01b036101009290920a900416815260200160006004830161050a611d80565b6001600160a01b036101009290920a900416815260200160146004830161052f611d80565b6001600160401b036101009290920a900416905250600085815260016020529091506040902060008082610561611e21565b505060018281019081610572611d80565b906001600160a01b0302191690610587611e21565b505060028201600090610598611e21565b5050600382016001816105a9611d80565b906001600160a01b03021916906105be611e21565b5050600482016001816105cf611d80565b906001600160a01b03021916906105e4611e21565b505060048201600160a01b816105f8611d80565b906001600160401b030219169061060d611e21565b5050505080602001516001600160a01b031663a9059cbb826080015183516040516001600160e01b031960e085901b1681526001600160a01b03909216600483015260248201526044016020604051808303816000878061066c611ea3565b1580156106815760008061067e611d15565b50505b505a61068b611eef565b5050505050501580156106ab573d6000803e3d60006106a8611d15565b50505b505050506040513d60208110156106ca576000806106c7611d15565b50505b81019080805192506106e7915050576000806106e4611d15565b50505b7fa2c251311b1a7a475913900a2a73dc9789a21b04bc737e050bbc506dd4eb34888460405190815260200160405180910390a180608001516001600160a01b0316816020015182606001516040516001600160601b0319606093841b811660208301529190921b16603482015260480160405160208183030381529060405280519060200120857f9577941d28fff863bfbee4694a6a4a56fb09e169619189d2eaa750b5b481999560208501518560600151865187604001515a6107a9611fda565b6040516001600160a01b0395861681529390941660208401526001600160801b03918216604080850191909152911660608301526001600160401b03909216608082015260a001905180910390a4506001915060006003838161080a611d80565b8160ff0219169083151502179061081f611e21565b50505050919050565b600080600080610836611e6f565b600086815260016020526040902060405160c08101604052908181610859611d80565b815260200160006001830161086c611d80565b6001600160a01b036101009290920a90041681526020016002820161088f611d80565b81526020016000600383016108a2611d80565b6001600160a01b036101009290920a90041681526020016000600483016108c7611d80565b6001600160a01b036101009290920a90041681526020016014600483016108ec611d80565b6001600160401b036101009290920a900416905250905080518160200151826040015183606001519450945094509450509193509193565b610937826001600160801b038316610ca1565b61094957600080610946611d15565b50505b5050565b8061095781610b71565b61096957600080610966611d15565b50505b60008281526001602052829060409020600401600090610987611d80565b906101000a90046001600160a01b03166001600160a01b0316600160008381526020019081526020016000206001016000906109c1611d80565b906101000a90046001600160a01b0316600160008481526020019081526020016000206003016000906109f2611d80565b906101000a90046001600160a01b03166040516001600160601b0319606093841b811660208301529190921b166034820152604801604051602081830303815290604052805190602001206000838152600160205285907f70a14c213064359ede031fd2a1645a11ce2ec825ffe6ab5cfb5b160c3ef4d0a29060409020600101600090610a7d611d80565b906101000a90046001600160a01b031660016000878152602001908152602001600020600301600090610aae611d80565b906101000a90046001600160a01b031660016000888152602001908152602001600020610ad9611d80565b6000888152600160205260409020600201610af2611d80565b6000898152600160205260409020600401601490610b0e611d80565b906101000a90046001600160401b03166040516001600160a01b0395861681529390941660208401526001600160801b03918216604080850191909152911660608301526001600160401b03909216608082015260a001905180910390a4505050565b600081815260016020528060408120600401601490610b8e611d80565b6001600160401b036101009290920a9004161192915050565b6001602052806000526040600020905080610bc0611d80565b90600060018201610bcf611d80565b906101000a90046001600160a01b03169080600201610bec611d80565b90600060038201610bfb611d80565b906101000a90046001600160a01b03169080600401600090610c1b611d80565b906101000a90046001600160a01b03169080600401601490610c3b611d80565b906101000a90046001600160401b0316905086565b610c59816103cd565b610c6b57600080610c68611d15565b50505b50565b6000818152600160205260408120600401600090610c8a611d80565b906101000a90046001600160a01b03169050919050565b600082610cad81610b71565b610cbf57600080610cbc611d15565b50505b60006003610ccb611d80565b906101000a900460ff1615610ce857600080610ce5611d15565b50505b600160038181610cf6611d80565b8160ff02191690831515021790610d0b611e21565b505050610d16611e6f565b600085815260016020526040902060405160c08101604052908181610d39611d80565b8152602001600060018301610d4c611d80565b6001600160a01b036101009290920a900416815260200160028201610d6f611d80565b8152602001600060038301610d82611d80565b6001600160a01b036101009290920a9004168152602001600060048301610da7611d80565b6001600160a01b036101009290920a9004168152602001601460048301610dcc611d80565b6001600160401b036101009290920a900416905250905060008151610df5868460400151611bec565b81610dfc57fe5b04905080816001600160801b031614610e5a5760405162461bcd60e51b81526020600482015260136024820152721cdc195b99081a5cc81b9bdd08185b881a5b9d606a1b604482015260640160405180910390610e57611d15565b50505b84856001600160801b031614610eb85760405162461bcd60e51b81526020600482015260166024820152751c5d585b9d1a5d1e481a5cc81b9bdd08185b881a5b9d60521b604482015260640160405180910390610eb5611d15565b50505b841580610ec3575080155b80610ece5750815185115b80610edc5750816040015181115b15610eec57600093505050611683565b6000612710610f04836004610eff611d80565b611bec565b81610f0b57fe5b04905082606001516001600160a01b03166323b872dd5a610f2a611ddb565b60006005610f36611d80565b906101000a90046001600160a01b0316846040516001600160e01b031960e086901b1681526001600160a01b039384166004820152919092166024820152604481019190915260640160206040518083038160008780610f94611ea3565b158015610fa957600080610fa6611d15565b50505b505a610fb3611eef565b505050505050158015610fd3573d6000803e3d6000610fd0611d15565b50505b505050506040513d6020811015610ff257600080610fef611d15565b50505b81019080805192506110569150505760405162461bcd60e51b815260206004820152601f60248201527f496e73756666696369656e742066756e647320746f20636f7665722066656500604482015260640160405180910390611053611d15565b50505b611061835187611c5d565b60008881526001602052604090208190611079611e21565b50505061108a836040015183611c5d565b600088815260016020526040902060020181906110a5611e21565b50505082606001516001600160a01b03166323b872dd5a6110c4611ddb565b8560800151856040516001600160e01b031960e086901b1681526001600160a01b039384166004820152919092166024820152604481019190915260640160206040518083038160008780611117611ea3565b15801561112c57600080611129611d15565b50505b505a611136611eef565b505050505050158015611156573d6000803e3d6000611153611d15565b50505b505050506040513d602081101561117557600080611172611d15565b50505b81019080805192506111c49150505760405162461bcd60e51b815260040180806020018281038252606281526020018061205460629139608001915050604051809103906111c1611d15565b50505b82602001516001600160a01b031663a9059cbb5a6111e0611ddb565b886040516001600160e01b031960e085901b1681526001600160a01b039092166004830152602482015260440160206040518083038160008780611222611ea3565b15801561123757600080611234611d15565b50505b505a611241611eef565b505050505050158015611261573d6000803e3d600061125e611d15565b50505b505050506040513d60208110156112805760008061127d611d15565b50505b81019080805192506112cf9150505760405162461bcd60e51b815260040180806020018281038252603381526020018061202160339139604001915050604051809103906112cc611d15565b50505b7fa2c251311b1a7a475913900a2a73dc9789a21b04bc737e050bbc506dd4eb34888760405190815260200160405180910390a15a61130b611ddb565b6001600160a01b031683608001516001600160a01b0316846020015185606001516040516001600160601b0319606093841b811660208301529190921b166034820152604801604051602081830303815290604052805190602001207f3383e3357c77fd2e3a4b30deea81179bc70a795d053d14d5b7f2f01d0fd4596f8a602088015188606001518c895a61139e611fda565b6040519586526001600160a01b039485166020870152929093166040808601919091526001600160801b039182166060860152921660808401526001600160401b031660a083015260c0909101905180910390a45a6113fb611ddb565b6001600160a01b031683608001516001600160a01b0316846020015185606001516040516001600160601b0319606093841b811660208301529190921b166034820152604801604051602081830303815290604052805190602001207f0ae463beeed705bdba735cc0f80a21bc43e39fa85611fbceb6e509ca190cc6e28a602088015188606001518c898960006005611492611d80565b906101000a90046001600160a01b03165a6114ab611fda565b6040519788526001600160a01b0396871660208901529486166040808901919091526001600160801b03948516606089015292909316608087015260a0860152921660c08401526001600160401b031660e0830152610100909101905180910390a482606001516001600160a01b031683602001516001600160a01b03167f819e390338feffe95e2de57172d6faf337853dfd15c7a09a32d76f7fd2443875888560405191825260208201526040908101905180910390a36000878152600160205260409020611579611d80565b61167b57600087815260016020526040902060008082611597611e21565b5050600182810190816115a8611d80565b906001600160a01b03021916906115bd611e21565b5050600282016000906115ce611e21565b5050600382016001816115df611d80565b906001600160a01b03021916906115f4611e21565b505060048201600181611605611d80565b906001600160a01b030219169061161a611e21565b505060048201600160a01b8161162e611d80565b906001600160401b0302191690611643611e21565b505050507f88686b85d6f2c3ab9a04e4f15a22fcfa025ffd97226dcf0a67cdf682def556768760405190815260200160405180910390a15b600194505050505b60006003600181611692611d80565b8160ff021916908315150217906116a7611e21565b5050505092915050565b60008060036116be611d80565b906101000a900460ff16156116db576000806116d8611d15565b50505b6001600381816116e9611d80565b8160ff021916908315150217906116fe611e21565b505050838261170c82611cb2565b61171e5760008061171b611d15565b50505b61172781611cb2565b61173957600080611736611d15565b50505b86876001600160801b03161461175757600080611754611d15565b50505b84856001600160801b03161461177557600080611772611d15565b50505b6000871161178b57600080611788611d15565b50505b6001600160a01b0386166117a7576000806117a4611d15565b50505b600085116117bd576000806117ba611d15565b50505b6001600160a01b0384166117d9576000806117d6611d15565b50505b836001600160a01b0316866001600160a01b03161415611801576000806117fe611d15565b50505b611809611e6f565b8781526001600160a01b03808816602083015260408201879052851660608201525a611833611ddb565b6001600160a01b031660808201525a61184a611fda565b6001600160401b031660a0820152611860611ce6565b6000818152600160205290945081906040902081518161187e611e21565b5050602082015160018083019081611894611d80565b816001600160a01b0302191690836001600160a01b03160217906118b6611e21565b5050506040820151816002016118ca611e21565b50506060820151600382016001816118e0611d80565b816001600160a01b0302191690836001600160a01b0316021790611902611e21565b505050608082015160048201600181611919611d80565b816001600160a01b0302191690836001600160a01b031602179061193b611e21565b50505060a082015160048201600160a01b81611955611d80565b816001600160401b0302191690836001600160401b0316021790611977611e21565b505050905050866001600160a01b03166323b872dd5a611995611ddb565b5a63996d79a5598160e01b8152602081600483336000905af158601d01573d60011458600c01573d6000803e3d621234565260ea61109c528051925060005b60408110156119eb576000828201526020016119d4565b5050508b6040516001600160e01b031960e086901b1681526001600160a01b039384166004820152919092166024820152604481019190915260640160206040518083038160008780611a3c611ea3565b158015611a5157600080611a4e611d15565b50505b505a611a5b611eef565b505050505050158015611a7b573d6000803e3d6000611a78611d15565b50505b505050506040513d6020811015611a9a57600080611a97611d15565b50505b8101908080519250611ab791505057600080611ab4611d15565b50505b7fa2c251311b1a7a475913900a2a73dc9789a21b04bc737e050bbc506dd4eb34888460405190815260200160405180910390a15a611af3611ddb565b6001600160a01b031687866040516001600160601b0319606093841b811660208301529190921b16603482015260480160405160208183030381529060405280519060200120857f773ff502687307abfa024ac9f62f9752a0d210dac2ffd9a29e38e12e2ea82c828a898d8c5a611b68611fda565b6040516001600160a01b0395861681529390941660208401526001600160801b03918216604080850191909152911660608301526001600160401b03909216608082015260a001905180910390a45050506000600360006101000a81611bcc611d80565b8160ff02191690831515021790611be1611e21565b505050949350505050565b6000811580611c0757505080820282828281611c0457fe5b04145b611c575760405162461bcd60e51b815260206004820152601460248201527364732d6d6174682d6d756c2d6f766572666c6f7760601b604482015260640160405180910390611c54611d15565b50505b92915050565b80820382811115611c575760405162461bcd60e51b815260206004820152601560248201527464732d6d6174682d7375622d756e646572666c6f7760581b604482015260640160405180910390611c54611d15565b6001600160a01b0381166000908152600260205260408120600090611cd5611d80565b906101000a900460ff169050919050565b600080600081611cf4611d80565b91600183019150611d03611e21565b5050506000611d10611d80565b905090565b632a2a7adb598160e01b8152600481016020815285602082015260005b86811015611d4d578086015182820160400152602001611d32565b506020828760640184336000905af158601d01573d60011458600c01573d6000803e3d621234565260ea61109c52505050565b6303daa959598160e01b8152836004820152602081602483336000905af158601d01573d60011458600c01573d6000803e3d621234565260ea61109c528051935060005b6040811015610c6857600082820152602001611dc4565b6373509064598160e01b8152602081600483336000905af158601d01573d60011458600c01573d6000803e3d621234565260ea61109c5280516000825293506020611dc4565b6322bd64c0598160e01b8152836004820152846024820152600081604483336000905af158601d01573d60011458600c01573d6000803e3d621234565260ea61109c52600081526020611dc4565b60405160c081016040908152600080835260208301819052908201819052606082018190526080820181905260a082015290565b638435035b598160e01b8152836004820152602081602483336000905af158601d01573d60011458600c01573d6000803e3d621234565260ea61109c5280516000825293506020611dc4565b6385979f76598160e01b8152611f20565b8080831115611c57575090919050565b8080831015611c57575090919050565b836004820152846024820152606060448201528760648201526084810160005b89811015611f58578089015182820152602001611f40565b506060828a60a40184336000905af158601d01573d60011458600c01573d6000803e3d621234565260ea61109c52815160408301513d6000853e8c8c82606087013350600060045af15059611fad8e3d611f10565b8d01611fb98187611f00565b5b82811015611fce5760008152602001611fba565b50929d50505050505050565b63bdbf8c36598160e01b8152602081600483336000905af158601d01573d60011458600c01573d6000803e3d621234565260ea61109c5280516000825293506020611dc456fe6f666665722e7061795f67656d2e7472616e73666572286d73672e73656e6465722c207175616e7469747929206661696c65646f666665722e6275795f67656d2e7472616e7366657246726f6d286d73672e73656e6465722c206f666665722e6f776e65722c207370656e6429206661696c6564202d20636865636b207468617420796f752063616e207061792074686520666565",
  "linkReferences": {},
  "deployedLinkReferences": {}
}