{
  "contracts/Aqueduct.sol": {
    "Aqueduct": {
      "abi": [
        {
          "inputs": [
            {
              "internalType": "uint256",
              "name": "communityDuration",
              "type": "uint256"
            },
            {
              "internalType": "address",
              "name": "_owner",
              "type": "address"
            }
          ],
          "payable": false,
          "stateMutability": "nonpayable",
          "type": "constructor"
        },
        {
          "anonymous": false,
          "inputs": [
            {
              "indexed": false,
              "internalType": "address",
              "name": "recipient",
              "type": "address"
            },
            {
              "indexed": false,
              "internalType": "uint256",
              "name": "amount",
              "type": "uint256"
            },
            {
              "indexed": false,
              "internalType": "uint256",
              "name": "timestamp",
              "type": "uint256"
            }
          ],
          "name": "Distribution",
          "type": "event"
        },
        {
          "constant": true,
          "inputs": [],
          "name": "RBCN",
          "outputs": [
            {
              "internalType": "contract RBCNInterface",
              "name": "",
              "type": "address"
            }
          ],
          "payable": false,
          "stateMutability": "view",
          "type": "function"
        },
        {
          "constant": true,
          "inputs": [],
          "name": "RBCNAddress",
          "outputs": [
            {
              "internalType": "address",
              "name": "",
              "type": "address"
            }
          ],
          "payable": false,
          "stateMutability": "view",
          "type": "function"
        },
        {
          "constant": true,
          "inputs": [],
          "name": "RubiconMarketAddress",
          "outputs": [
            {
              "internalType": "address",
              "name": "",
              "type": "address"
            }
          ],
          "payable": false,
          "stateMutability": "view",
          "type": "function"
        },
        {
          "constant": false,
          "inputs": [
            {
              "internalType": "address",
              "name": "maker",
              "type": "address"
            },
            {
              "internalType": "address",
              "name": "taker",
              "type": "address"
            }
          ],
          "name": "distributeToMakerAndTaker",
          "outputs": [
            {
              "internalType": "bool",
              "name": "",
              "type": "bool"
            }
          ],
          "payable": false,
          "stateMutability": "nonpayable",
          "type": "function"
        },
        {
          "constant": true,
          "inputs": [],
          "name": "distributionDuration",
          "outputs": [
            {
              "internalType": "uint256",
              "name": "",
              "type": "uint256"
            }
          ],
          "payable": false,
          "stateMutability": "view",
          "type": "function"
        },
        {
          "constant": true,
          "inputs": [],
          "name": "getPropToMakers",
          "outputs": [
            {
              "internalType": "uint256",
              "name": "",
              "type": "uint256"
            }
          ],
          "payable": false,
          "stateMutability": "view",
          "type": "function"
        },
        {
          "constant": true,
          "inputs": [],
          "name": "getRBCNAddress",
          "outputs": [
            {
              "internalType": "address",
              "name": "",
              "type": "address"
            }
          ],
          "payable": false,
          "stateMutability": "view",
          "type": "function"
        },
        {
          "constant": true,
          "inputs": [],
          "name": "isExchange",
          "outputs": [
            {
              "internalType": "bool",
              "name": "",
              "type": "bool"
            }
          ],
          "payable": false,
          "stateMutability": "view",
          "type": "function"
        },
        {
          "constant": true,
          "inputs": [],
          "name": "isOwner",
          "outputs": [
            {
              "internalType": "bool",
              "name": "",
              "type": "bool"
            }
          ],
          "payable": false,
          "stateMutability": "view",
          "type": "function"
        },
        {
          "constant": true,
          "inputs": [],
          "name": "owner",
          "outputs": [
            {
              "internalType": "address",
              "name": "",
              "type": "address"
            }
          ],
          "payable": false,
          "stateMutability": "view",
          "type": "function"
        },
        {
          "constant": true,
          "inputs": [],
          "name": "propToMakers",
          "outputs": [
            {
              "internalType": "uint256",
              "name": "",
              "type": "uint256"
            }
          ],
          "payable": false,
          "stateMutability": "view",
          "type": "function"
        },
        {
          "constant": false,
          "inputs": [
            {
              "internalType": "address",
              "name": "_RBCNAddress",
              "type": "address"
            },
            {
              "internalType": "address",
              "name": "RubiconMarket",
              "type": "address"
            }
          ],
          "name": "setDistributionParams",
          "outputs": [
            {
              "internalType": "bool",
              "name": "",
              "type": "bool"
            }
          ],
          "payable": false,
          "stateMutability": "nonpayable",
          "type": "function"
        },
        {
          "constant": false,
          "inputs": [
            {
              "internalType": "address",
              "name": "newImplementation",
              "type": "address"
            }
          ],
          "name": "setNewExchange",
          "outputs": [
            {
              "internalType": "bool",
              "name": "",
              "type": "bool"
            }
          ],
          "payable": false,
          "stateMutability": "nonpayable",
          "type": "function"
        },
        {
          "constant": false,
          "inputs": [
            {
              "internalType": "address",
              "name": "newOwner",
              "type": "address"
            }
          ],
          "name": "setOwner",
          "outputs": [
            {
              "internalType": "bool",
              "name": "",
              "type": "bool"
            }
          ],
          "payable": false,
          "stateMutability": "nonpayable",
          "type": "function"
        },
        {
          "constant": false,
          "inputs": [
            {
              "internalType": "uint256",
              "name": "newProp",
              "type": "uint256"
            }
          ],
          "name": "setPropToMakers",
          "outputs": [
            {
              "internalType": "bool",
              "name": "",
              "type": "bool"
            }
          ],
          "payable": false,
          "stateMutability": "nonpayable",
          "type": "function"
        },
        {
          "constant": true,
          "inputs": [],
          "name": "timeOfLastRBCNDist",
          "outputs": [
            {
              "internalType": "uint256",
              "name": "",
              "type": "uint256"
            }
          ],
          "payable": false,
          "stateMutability": "view",
          "type": "function"
        }
      ],
      "devdoc": {
        "methods": {
          "isExchange()": {
            "details": "Returns true if the caller is the current Rubicon Exchange."
          },
          "isOwner()": {
            "details": "Returns true if the caller is the current owner."
          },
          "setNewExchange(address)": {
            "details": "Admin has the ability to choose a new exchange."
          },
          "setOwner(address)": {
            "details": "Only the owner can set a new owner. Timelock can be set as owner"
          }
        }
      },
      "evm": {
        "bytecode": {
          "linkReferences": {},
          "object": "60806040523480156200001c5760008062000019620000d9565b50505b506040516200141d3803806200141d833981810160405260408110156200004d576000806200004a620000d9565b50505b81019080805192919060200180519250505081620000755760008062000072620000d9565b50505b8060036001816200008562000146565b816001600160a01b0302191690836001600160a01b0316021790620000a9620001a8565b5050508160028190620000bb620001a8565b505050603c60068190620000ce620001a8565b5050505050620001f7565b632a2a7adb598160e01b8152600481016020815285602082015260005b8681101562000113578086015182820160400152602001620000f6565b506020828760640184336000905af158600e01573d6000803e3d6000fd5b3d6001141558600a015760016000f35b505050565b6303daa959598160e01b8152836004820152602081602483336000905af158600e01573d6000803e3d6000fd5b3d6001141558600a015760016000f35b8051935060005b6040811015620001a3576000828201526020016200018a565b505050565b6322bd64c0598160e01b8152836004820152846024820152600081604483336000905af158600e01573d6000803e3d6000fd5b3d6001141558600a015760016000f35b6000815260206200018a565b61121680620002076000396000f3fe608060405234801561001957600080610016610e2f565b50505b50600436106100d95760003560e01c806305a695c5146100e7578063114eb4db1461010157806313af4035146101095780631d156dcf1461014c578063540907bb146101545780635794a68a1461018357806358cb0340146101a757806360f71b24146101af57806382f107e0146101b75780638aadb371146101ee5780638cce6851146102145780638da5cb5b1461021c5780638f32d59b14610224578063b30ed7b31461022c578063c3a4b81f14610263578063d6c3bf2c1461026b575b6000806100e4610e2f565b50505b6100ef610273565b60405190815260200160405180910390f35b6100ef610280565b6101386004803603602081101561012857600080610125610e2f565b50505b50356001600160a01b0316610291565b604051901515815260200160405180910390f35b6100ef61031a565b6101386004803603602081101561017357600080610170610e2f565b50505b50356001600160a01b0316610324565b61018b610382565b6040516001600160a01b03909116815260200160405180910390f35b6101386103a1565b61018b6103df565b610138600480360360408110156101d6576000806101d3610e2f565b50505b506001600160a01b03813581169160200135166103eb565b6101386004803603602081101561020d5760008061020a610e2f565b50505b50356105c5565b61018b61062d565b61018b61064e565b61013861065a565b6101386004803603604081101561024b57600080610248610e2f565b50505b506001600160a01b0381358116916020013516610667565b6100ef610b99565b61018b610ba3565b600561027d610e9a565b81565b6000600661028c610e9a565b905090565b600061029b61065a565b6102e25760405162461bcd60e51b815260206004820181905260248201526000805160206111d28339815191526044820152606401604051809103906102df610e2f565b50505b8160036001816102f0610e9a565b816001600160a01b0302191690836001600160a01b0316021790610312610efa565b505050919050565b600261027d610e9a565b600061032e61065a565b6103755760405162461bcd60e51b815260206004820181905260248201526000805160206111d2833981519152604482015260640160405180910390610372610e2f565b50505b81600180806102f0610e9a565b6000600461038e610e9a565b906101000a90046001600160a01b031681565b60008060016103ae610e9a565b906101000a90046001600160a01b03166001600160a01b03165a6103d0610f48565b6001600160a01b031614905090565b6000600161038e610e9a565b60006103f561065a565b61043c5760405162461bcd60e51b815260206004820181905260248201526000805160206111d2833981519152604482015260640160405180910390610439610e2f565b50505b82600060018161044a610e9a565b816001600160a01b0302191690836001600160a01b031602179061046c610efa565b50505081600160006101000a81610481610e9a565b816001600160a01b0302191690836001600160a01b03160217906104a3610efa565b505050600080906104b2610e9a565b906101000a90046001600160a01b0316600460006101000a816104d3610e9a565b816001600160a01b0302191690836001600160a01b03160217906104f5610efa565b5050506004600090610505610e9a565b906101000a90046001600160a01b03166001600160a01b031663cb4774f36040518163ffffffff1660e01b81526004016020604051808303818680610548610f8e565b15801561055d5760008061055a610e2f565b50505b505a610567610fda565b5050505050158015610586573d6000803e3d6000610583610e2f565b50505b505050506040513d60208110156105a5576000806105a2610e2f565b50505b8101908080519250829150600590506105bc610efa565b50505092915050565b60006105cf61065a565b6106165760405162461bcd60e51b815260206004820181905260248201526000805160206111d2833981519152604482015260640160405180910390610613610e2f565b50505b81806006610622610efa565b506001949350505050565b60008080610639610e9a565b906101000a90046001600160a01b0316905090565b6000600361038e610e9a565b60008060036103ae610e9a565b60006106716103a1565b6106ca5760405162461bcd60e51b815260206004820181905260248201527f43616c6c6572206973206e6f74207468652052756269636f6e204d61726b65746044820152606401604051809103906106c7610e2f565b50505b5a6106d36110c5565b60056106dd610e9a565b106107225760405162461bcd60e51b81526004018080602001828103825260248152602001806111f2602491396040019150506040518091039061071f610e2f565b50505b6001600160a01b03821661077d5760405162461bcd60e51b815260206004820152601560248201527474616b6572206973207a65726f206164647265737360581b60448201526064016040518091039061077a610e2f565b50505b6001600160a01b0383166107d85760405162461bcd60e51b81526020600482015260156024820152746d616b6572206973207a65726f206164647265737360581b6044820152606401604051809103906107d5610e2f565b50505b600060046107e4610e9a565b906101000a90046001600160a01b03166001600160a01b031663c0198ac46040518163ffffffff1660e01b81526004016020604051808303818680610827610f8e565b15801561083c57600080610839610e2f565b50505b505a610846610fda565b5050505050158015610865573d6000803e3d6000610862610e2f565b50505b505050506040513d602081101561088457600080610881610e2f565b50505b810190808051925050505a6108976110c5565b11156108ee5760405162461bcd60e51b8152602060048201526019602482015278292121a7102234b9ba3934b13aba34b7b71034b99037bb32b960391b6044820152606401604051809103906108eb610e2f565b50505b600061090b5a6108fc6110c5565b6005610906610e9a565b610bae565b90506000606481600461091c610e9a565b906101000a90046001600160a01b03166001600160a01b03166344d5437d6040518163ffffffff1660e01b8152600401602060405180830381868061095f610f8e565b15801561097457600080610971610e2f565b50505b505a61097e610fda565b505050505015801561099d573d6000803e3d600061099a610e2f565b50505b505050506040513d60208110156109bc576000806109b9610e2f565b50505b81019080805192508591506109d19050610280565b0202816109da57fe5b049050600060648160046109ec610e9a565b906101000a90046001600160a01b03166001600160a01b03166344d5437d6040518163ffffffff1660e01b81526004016020604051808303818680610a2f610f8e565b158015610a4457600080610a41610e2f565b50505b505a610a4e610fda565b5050505050158015610a6d573d6000803e3d6000610a6a610e2f565b50505b505050506040513d6020811015610a8c57600080610a89610e2f565b50505b8101908080519250869150610aa19050610280565b606403020281610aad57fe5b049050610aba8683610c0b565b610b125760405162461bcd60e51b815260206004820152601c60248201527b191a5cdd1c9a589d5d1a5bdb881d1bc81b585ad95c8819985a5b195960221b604482015260640160405180910390610b0f610e2f565b50505b610b1c8582610c0b565b610b745760405162461bcd60e51b815260206004820152601c60248201527b191a5cdd1c9a589d5d1a5bdb881d1bc81d185ad95c8819985a5b195960221b604482015260640160405180910390610b71610e2f565b50505b5a610b7d6110c5565b806005610b88610efa565b505050600193505050505b92915050565b600661027d610e9a565b60008061038e610e9a565b80820382811115610b935760405162461bcd60e51b815260206004820152601560248201527464732d6d6174682d7375622d756e646572666c6f7760581b604482015260640160405180910390610c03610e2f565b505092915050565b6000806001610c18610e9a565b906101000a90046001600160a01b03166001600160a01b03165a610c3a610f48565b6001600160a01b031614610c9c5760405162461bcd60e51b815260206004820152601c60248201527b18d85b1b195c881a5cc81b9bdd08149d589a58dbdb8813585c9ad95d60221b604482015260640160405180910390610c99610e2f565b50505b60006004610ca8610e9a565b906101000a90046001600160a01b03166001600160a01b031663a9059cbb84846040516001600160e01b031960e085901b1681526001600160a01b039092166004830152602482015260440160206040518083038160008780610d09610f8e565b158015610d1e57600080610d1b610e2f565b50505b505a610d2861110b565b505050505050158015610d48573d6000803e3d6000610d45610e2f565b50505b505050506040513d6020811015610d6757600080610d64610e2f565b50505b8101908080519250610dc59150505760405162461bcd60e51b81526020600482015260176024820152761d1c985b9cd9995c881bd988149090d38819985a5b1959604a1b604482015260640160405180910390610dc2610e2f565b50505b7fa8ee3e5c0b1fd681042265199e8b28cf463b81bc21f6658d4c73e741aeabd3f583835a610df16110c5565b60405180846001600160a01b03166001600160a01b03168152602001838152602001828152602001935050505060405180910390a150600192915050565b632a2a7adb598160e01b8152600481016020815285602082015260005b86811015610e67578086015182820160400152602001610e4c565b506020828760640184336000905af158600e01573d6000803e3d6000fd5b3d6001141558600a015760016000f35b505050565b6303daa959598160e01b8152836004820152602081602483336000905af158600e01573d6000803e3d6000fd5b3d6001141558600a015760016000f35b8051935060005b6040811015610ef557600082820152602001610ede565b505050565b6322bd64c0598160e01b8152836004820152846024820152600081604483336000905af158600e01573d6000803e3d6000fd5b3d6001141558600a015760016000f35b600081526020610ede565b6373509064598160e01b8152602081600483336000905af158600e01573d6000803e3d6000fd5b3d6001141558600a015760016000f35b80516000825293506020610ede565b638435035b598160e01b8152836004820152602081602483336000905af158600e01573d6000803e3d6000fd5b3d6001141558600a015760016000f35b80516000825293506020610ede565b638540661f598160e01b815261100b565b8080831115610b93575090919050565b8080831015610b93575090919050565b836004820152846024820152606060448201528660648201526084810160005b8881101561104357808801518282015260200161102b565b506060828960a40184336000905af158600e01573d6000803e3d6000fd5b3d6001141558600a015760016000f35b815160408301513d6000853e8b8b82606087013350600060045af150596110988d3d610ffb565b8c016110a48187610feb565b5b828110156110b957600081526020016110a5565b50929c50505050505050565b63bdbf8c36598160e01b8152602081600483336000905af158600e01573d6000803e3d6000fd5b3d6001141558600a015760016000f35b80516000825293506020610ede565b6385979f76598160e01b8152836004820152846024820152606060448201528760648201526084810160005b8981101561114f578089015182820152602001611137565b506060828a60a40184336000905af158600e01573d6000803e3d6000fd5b3d6001141558600a015760016000f35b815160408301513d6000853e8c8c82606087013350600060045af150596111a48e3d610ffb565b8d016111b08187610feb565b5b828110156111c557600081526020016111b1565b50929d5050505050505056fe4f776e61626c653a2063616c6c6572206973206e6f7420746865206f776e657274696d654f664c6173745242434e44697374203c20626c6f636b2e74696d657374616d70",
          "opcodes": "PUSH1 0x80 PUSH1 0x40 MSTORE CALLVALUE DUP1 ISZERO PUSH3 0x1C JUMPI PUSH1 0x0 DUP1 PUSH3 0x19 PUSH3 0xD9 JUMP JUMPDEST POP POP JUMPDEST POP PUSH1 0x40 MLOAD PUSH3 0x141D CODESIZE SUB DUP1 PUSH3 0x141D DUP4 CODECOPY DUP2 DUP2 ADD PUSH1 0x40 MSTORE PUSH1 0x40 DUP2 LT ISZERO PUSH3 0x4D JUMPI PUSH1 0x0 DUP1 PUSH3 0x4A PUSH3 0xD9 JUMP JUMPDEST POP POP JUMPDEST DUP2 ADD SWAP1 DUP1 DUP1 MLOAD SWAP3 SWAP2 SWAP1 PUSH1 0x20 ADD DUP1 MLOAD SWAP3 POP POP POP DUP2 PUSH3 0x75 JUMPI PUSH1 0x0 DUP1 PUSH3 0x72 PUSH3 0xD9 JUMP JUMPDEST POP POP JUMPDEST DUP1 PUSH1 0x3 PUSH1 0x1 DUP2 PUSH3 0x85 PUSH3 0x146 JUMP JUMPDEST DUP2 PUSH1 0x1 PUSH1 0x1 PUSH1 0xA0 SHL SUB MUL NOT AND SWAP1 DUP4 PUSH1 0x1 PUSH1 0x1 PUSH1 0xA0 SHL SUB AND MUL OR SWAP1 PUSH3 0xA9 PUSH3 0x1A8 JUMP JUMPDEST POP POP POP DUP2 PUSH1 0x2 DUP2 SWAP1 PUSH3 0xBB PUSH3 0x1A8 JUMP JUMPDEST POP POP POP PUSH1 0x3C PUSH1 0x6 DUP2 SWAP1 PUSH3 0xCE PUSH3 0x1A8 JUMP JUMPDEST POP POP POP POP POP PUSH3 0x1F7 JUMP JUMPDEST PUSH4 0x2A2A7ADB MSIZE DUP2 PUSH1 0xE0 SHL DUP2 MSTORE PUSH1 0x4 DUP2 ADD PUSH1 0x20 DUP2 MSTORE DUP6 PUSH1 0x20 DUP3 ADD MSTORE PUSH1 0x0 JUMPDEST DUP7 DUP2 LT ISZERO PUSH3 0x113 JUMPI DUP1 DUP7 ADD MLOAD DUP3 DUP3 ADD PUSH1 0x40 ADD MSTORE PUSH1 0x20 ADD PUSH3 0xF6 JUMP JUMPDEST POP PUSH1 0x20 DUP3 DUP8 PUSH1 0x64 ADD DUP5 CALLER PUSH1 0x0 SWAP1 GAS CALL PC PUSH1 0xE ADD JUMPI RETURNDATASIZE PUSH1 0x0 DUP1 RETURNDATACOPY RETURNDATASIZE PUSH1 0x0 REVERT JUMPDEST RETURNDATASIZE PUSH1 0x1 EQ ISZERO PC PUSH1 0xA ADD JUMPI PUSH1 0x1 PUSH1 0x0 RETURN JUMPDEST POP POP POP JUMP JUMPDEST PUSH4 0x3DAA959 MSIZE DUP2 PUSH1 0xE0 SHL DUP2 MSTORE DUP4 PUSH1 0x4 DUP3 ADD MSTORE PUSH1 0x20 DUP2 PUSH1 0x24 DUP4 CALLER PUSH1 0x0 SWAP1 GAS CALL PC PUSH1 0xE ADD JUMPI RETURNDATASIZE PUSH1 0x0 DUP1 RETURNDATACOPY RETURNDATASIZE PUSH1 0x0 REVERT JUMPDEST RETURNDATASIZE PUSH1 0x1 EQ ISZERO PC PUSH1 0xA ADD JUMPI PUSH1 0x1 PUSH1 0x0 RETURN JUMPDEST DUP1 MLOAD SWAP4 POP PUSH1 0x0 JUMPDEST PUSH1 0x40 DUP2 LT ISZERO PUSH3 0x1A3 JUMPI PUSH1 0x0 DUP3 DUP3 ADD MSTORE PUSH1 0x20 ADD PUSH3 0x18A JUMP JUMPDEST POP POP POP JUMP JUMPDEST PUSH4 0x22BD64C0 MSIZE DUP2 PUSH1 0xE0 SHL DUP2 MSTORE DUP4 PUSH1 0x4 DUP3 ADD MSTORE DUP5 PUSH1 0x24 DUP3 ADD MSTORE PUSH1 0x0 DUP2 PUSH1 0x44 DUP4 CALLER PUSH1 0x0 SWAP1 GAS CALL PC PUSH1 0xE ADD JUMPI RETURNDATASIZE PUSH1 0x0 DUP1 RETURNDATACOPY RETURNDATASIZE PUSH1 0x0 REVERT JUMPDEST RETURNDATASIZE PUSH1 0x1 EQ ISZERO PC PUSH1 0xA ADD JUMPI PUSH1 0x1 PUSH1 0x0 RETURN JUMPDEST PUSH1 0x0 DUP2 MSTORE PUSH1 0x20 PUSH3 0x18A JUMP JUMPDEST PUSH2 0x1216 DUP1 PUSH3 0x207 PUSH1 0x0 CODECOPY PUSH1 0x0 RETURN INVALID PUSH1 0x80 PUSH1 0x40 MSTORE CALLVALUE DUP1 ISZERO PUSH2 0x19 JUMPI PUSH1 0x0 DUP1 PUSH2 0x16 PUSH2 0xE2F JUMP JUMPDEST POP POP JUMPDEST POP PUSH1 0x4 CALLDATASIZE LT PUSH2 0xD9 JUMPI PUSH1 0x0 CALLDATALOAD PUSH1 0xE0 SHR DUP1 PUSH4 0x5A695C5 EQ PUSH2 0xE7 JUMPI DUP1 PUSH4 0x114EB4DB EQ PUSH2 0x101 JUMPI DUP1 PUSH4 0x13AF4035 EQ PUSH2 0x109 JUMPI DUP1 PUSH4 0x1D156DCF EQ PUSH2 0x14C JUMPI DUP1 PUSH4 0x540907BB EQ PUSH2 0x154 JUMPI DUP1 PUSH4 0x5794A68A EQ PUSH2 0x183 JUMPI DUP1 PUSH4 0x58CB0340 EQ PUSH2 0x1A7 JUMPI DUP1 PUSH4 0x60F71B24 EQ PUSH2 0x1AF JUMPI DUP1 PUSH4 0x82F107E0 EQ PUSH2 0x1B7 JUMPI DUP1 PUSH4 0x8AADB371 EQ PUSH2 0x1EE JUMPI DUP1 PUSH4 0x8CCE6851 EQ PUSH2 0x214 JUMPI DUP1 PUSH4 0x8DA5CB5B EQ PUSH2 0x21C JUMPI DUP1 PUSH4 0x8F32D59B EQ PUSH2 0x224 JUMPI DUP1 PUSH4 0xB30ED7B3 EQ PUSH2 0x22C JUMPI DUP1 PUSH4 0xC3A4B81F EQ PUSH2 0x263 JUMPI DUP1 PUSH4 0xD6C3BF2C EQ PUSH2 0x26B JUMPI JUMPDEST PUSH1 0x0 DUP1 PUSH2 0xE4 PUSH2 0xE2F JUMP JUMPDEST POP POP JUMPDEST PUSH2 0xEF PUSH2 0x273 JUMP JUMPDEST PUSH1 0x40 MLOAD SWAP1 DUP2 MSTORE PUSH1 0x20 ADD PUSH1 0x40 MLOAD DUP1 SWAP2 SUB SWAP1 RETURN JUMPDEST PUSH2 0xEF PUSH2 0x280 JUMP JUMPDEST PUSH2 0x138 PUSH1 0x4 DUP1 CALLDATASIZE SUB PUSH1 0x20 DUP2 LT ISZERO PUSH2 0x128 JUMPI PUSH1 0x0 DUP1 PUSH2 0x125 PUSH2 0xE2F JUMP JUMPDEST POP POP JUMPDEST POP CALLDATALOAD PUSH1 0x1 PUSH1 0x1 PUSH1 0xA0 SHL SUB AND PUSH2 0x291 JUMP JUMPDEST PUSH1 0x40 MLOAD SWAP1 ISZERO ISZERO DUP2 MSTORE PUSH1 0x20 ADD PUSH1 0x40 MLOAD DUP1 SWAP2 SUB SWAP1 RETURN JUMPDEST PUSH2 0xEF PUSH2 0x31A JUMP JUMPDEST PUSH2 0x138 PUSH1 0x4 DUP1 CALLDATASIZE SUB PUSH1 0x20 DUP2 LT ISZERO PUSH2 0x173 JUMPI PUSH1 0x0 DUP1 PUSH2 0x170 PUSH2 0xE2F JUMP JUMPDEST POP POP JUMPDEST POP CALLDATALOAD PUSH1 0x1 PUSH1 0x1 PUSH1 0xA0 SHL SUB AND PUSH2 0x324 JUMP JUMPDEST PUSH2 0x18B PUSH2 0x382 JUMP JUMPDEST PUSH1 0x40 MLOAD PUSH1 0x1 PUSH1 0x1 PUSH1 0xA0 SHL SUB SWAP1 SWAP2 AND DUP2 MSTORE PUSH1 0x20 ADD PUSH1 0x40 MLOAD DUP1 SWAP2 SUB SWAP1 RETURN JUMPDEST PUSH2 0x138 PUSH2 0x3A1 JUMP JUMPDEST PUSH2 0x18B PUSH2 0x3DF JUMP JUMPDEST PUSH2 0x138 PUSH1 0x4 DUP1 CALLDATASIZE SUB PUSH1 0x40 DUP2 LT ISZERO PUSH2 0x1D6 JUMPI PUSH1 0x0 DUP1 PUSH2 0x1D3 PUSH2 0xE2F JUMP JUMPDEST POP POP JUMPDEST POP PUSH1 0x1 PUSH1 0x1 PUSH1 0xA0 SHL SUB DUP2 CALLDATALOAD DUP2 AND SWAP2 PUSH1 0x20 ADD CALLDATALOAD AND PUSH2 0x3EB JUMP JUMPDEST PUSH2 0x138 PUSH1 0x4 DUP1 CALLDATASIZE SUB PUSH1 0x20 DUP2 LT ISZERO PUSH2 0x20D JUMPI PUSH1 0x0 DUP1 PUSH2 0x20A PUSH2 0xE2F JUMP JUMPDEST POP POP JUMPDEST POP CALLDATALOAD PUSH2 0x5C5 JUMP JUMPDEST PUSH2 0x18B PUSH2 0x62D JUMP JUMPDEST PUSH2 0x18B PUSH2 0x64E JUMP JUMPDEST PUSH2 0x138 PUSH2 0x65A JUMP JUMPDEST PUSH2 0x138 PUSH1 0x4 DUP1 CALLDATASIZE SUB PUSH1 0x40 DUP2 LT ISZERO PUSH2 0x24B JUMPI PUSH1 0x0 DUP1 PUSH2 0x248 PUSH2 0xE2F JUMP JUMPDEST POP POP JUMPDEST POP PUSH1 0x1 PUSH1 0x1 PUSH1 0xA0 SHL SUB DUP2 CALLDATALOAD DUP2 AND SWAP2 PUSH1 0x20 ADD CALLDATALOAD AND PUSH2 0x667 JUMP JUMPDEST PUSH2 0xEF PUSH2 0xB99 JUMP JUMPDEST PUSH2 0x18B PUSH2 0xBA3 JUMP JUMPDEST PUSH1 0x5 PUSH2 0x27D PUSH2 0xE9A JUMP JUMPDEST DUP2 JUMP JUMPDEST PUSH1 0x0 PUSH1 0x6 PUSH2 0x28C PUSH2 0xE9A JUMP JUMPDEST SWAP1 POP SWAP1 JUMP JUMPDEST PUSH1 0x0 PUSH2 0x29B PUSH2 0x65A JUMP JUMPDEST PUSH2 0x2E2 JUMPI PUSH1 0x40 MLOAD PUSH3 0x461BCD PUSH1 0xE5 SHL DUP2 MSTORE PUSH1 0x20 PUSH1 0x4 DUP3 ADD DUP2 SWAP1 MSTORE PUSH1 0x24 DUP3 ADD MSTORE PUSH1 0x0 DUP1 MLOAD PUSH1 0x20 PUSH2 0x11D2 DUP4 CODECOPY DUP2 MLOAD SWAP2 MSTORE PUSH1 0x44 DUP3 ADD MSTORE PUSH1 0x64 ADD PUSH1 0x40 MLOAD DUP1 SWAP2 SUB SWAP1 PUSH2 0x2DF PUSH2 0xE2F JUMP JUMPDEST POP POP JUMPDEST DUP2 PUSH1 0x3 PUSH1 0x1 DUP2 PUSH2 0x2F0 PUSH2 0xE9A JUMP JUMPDEST DUP2 PUSH1 0x1 PUSH1 0x1 PUSH1 0xA0 SHL SUB MUL NOT AND SWAP1 DUP4 PUSH1 0x1 PUSH1 0x1 PUSH1 0xA0 SHL SUB AND MUL OR SWAP1 PUSH2 0x312 PUSH2 0xEFA JUMP JUMPDEST POP POP POP SWAP2 SWAP1 POP JUMP JUMPDEST PUSH1 0x2 PUSH2 0x27D PUSH2 0xE9A JUMP JUMPDEST PUSH1 0x0 PUSH2 0x32E PUSH2 0x65A JUMP JUMPDEST PUSH2 0x375 JUMPI PUSH1 0x40 MLOAD PUSH3 0x461BCD PUSH1 0xE5 SHL DUP2 MSTORE PUSH1 0x20 PUSH1 0x4 DUP3 ADD DUP2 SWAP1 MSTORE PUSH1 0x24 DUP3 ADD MSTORE PUSH1 0x0 DUP1 MLOAD PUSH1 0x20 PUSH2 0x11D2 DUP4 CODECOPY DUP2 MLOAD SWAP2 MSTORE PUSH1 0x44 DUP3 ADD MSTORE PUSH1 0x64 ADD PUSH1 0x40 MLOAD DUP1 SWAP2 SUB SWAP1 PUSH2 0x372 PUSH2 0xE2F JUMP JUMPDEST POP POP JUMPDEST DUP2 PUSH1 0x1 DUP1 DUP1 PUSH2 0x2F0 PUSH2 0xE9A JUMP JUMPDEST PUSH1 0x0 PUSH1 0x4 PUSH2 0x38E PUSH2 0xE9A JUMP JUMPDEST SWAP1 PUSH2 0x100 EXP SWAP1 DIV PUSH1 0x1 PUSH1 0x1 PUSH1 0xA0 SHL SUB AND DUP2 JUMP JUMPDEST PUSH1 0x0 DUP1 PUSH1 0x1 PUSH2 0x3AE PUSH2 0xE9A JUMP JUMPDEST SWAP1 PUSH2 0x100 EXP SWAP1 DIV PUSH1 0x1 PUSH1 0x1 PUSH1 0xA0 SHL SUB AND PUSH1 0x1 PUSH1 0x1 PUSH1 0xA0 SHL SUB AND GAS PUSH2 0x3D0 PUSH2 0xF48 JUMP JUMPDEST PUSH1 0x1 PUSH1 0x1 PUSH1 0xA0 SHL SUB AND EQ SWAP1 POP SWAP1 JUMP JUMPDEST PUSH1 0x0 PUSH1 0x1 PUSH2 0x38E PUSH2 0xE9A JUMP JUMPDEST PUSH1 0x0 PUSH2 0x3F5 PUSH2 0x65A JUMP JUMPDEST PUSH2 0x43C JUMPI PUSH1 0x40 MLOAD PUSH3 0x461BCD PUSH1 0xE5 SHL DUP2 MSTORE PUSH1 0x20 PUSH1 0x4 DUP3 ADD DUP2 SWAP1 MSTORE PUSH1 0x24 DUP3 ADD MSTORE PUSH1 0x0 DUP1 MLOAD PUSH1 0x20 PUSH2 0x11D2 DUP4 CODECOPY DUP2 MLOAD SWAP2 MSTORE PUSH1 0x44 DUP3 ADD MSTORE PUSH1 0x64 ADD PUSH1 0x40 MLOAD DUP1 SWAP2 SUB SWAP1 PUSH2 0x439 PUSH2 0xE2F JUMP JUMPDEST POP POP JUMPDEST DUP3 PUSH1 0x0 PUSH1 0x1 DUP2 PUSH2 0x44A PUSH2 0xE9A JUMP JUMPDEST DUP2 PUSH1 0x1 PUSH1 0x1 PUSH1 0xA0 SHL SUB MUL NOT AND SWAP1 DUP4 PUSH1 0x1 PUSH1 0x1 PUSH1 0xA0 SHL SUB AND MUL OR SWAP1 PUSH2 0x46C PUSH2 0xEFA JUMP JUMPDEST POP POP POP DUP2 PUSH1 0x1 PUSH1 0x0 PUSH2 0x100 EXP DUP2 PUSH2 0x481 PUSH2 0xE9A JUMP JUMPDEST DUP2 PUSH1 0x1 PUSH1 0x1 PUSH1 0xA0 SHL SUB MUL NOT AND SWAP1 DUP4 PUSH1 0x1 PUSH1 0x1 PUSH1 0xA0 SHL SUB AND MUL OR SWAP1 PUSH2 0x4A3 PUSH2 0xEFA JUMP JUMPDEST POP POP POP PUSH1 0x0 DUP1 SWAP1 PUSH2 0x4B2 PUSH2 0xE9A JUMP JUMPDEST SWAP1 PUSH2 0x100 EXP SWAP1 DIV PUSH1 0x1 PUSH1 0x1 PUSH1 0xA0 SHL SUB AND PUSH1 0x4 PUSH1 0x0 PUSH2 0x100 EXP DUP2 PUSH2 0x4D3 PUSH2 0xE9A JUMP JUMPDEST DUP2 PUSH1 0x1 PUSH1 0x1 PUSH1 0xA0 SHL SUB MUL NOT AND SWAP1 DUP4 PUSH1 0x1 PUSH1 0x1 PUSH1 0xA0 SHL SUB AND MUL OR SWAP1 PUSH2 0x4F5 PUSH2 0xEFA JUMP JUMPDEST POP POP POP PUSH1 0x4 PUSH1 0x0 SWAP1 PUSH2 0x505 PUSH2 0xE9A JUMP JUMPDEST SWAP1 PUSH2 0x100 EXP SWAP1 DIV PUSH1 0x1 PUSH1 0x1 PUSH1 0xA0 SHL SUB AND PUSH1 0x1 PUSH1 0x1 PUSH1 0xA0 SHL SUB AND PUSH4 0xCB4774F3 PUSH1 0x40 MLOAD DUP2 PUSH4 0xFFFFFFFF AND PUSH1 0xE0 SHL DUP2 MSTORE PUSH1 0x4 ADD PUSH1 0x20 PUSH1 0x40 MLOAD DUP1 DUP4 SUB DUP2 DUP7 DUP1 PUSH2 0x548 PUSH2 0xF8E JUMP JUMPDEST ISZERO DUP1 ISZERO PUSH2 0x55D JUMPI PUSH1 0x0 DUP1 PUSH2 0x55A PUSH2 0xE2F JUMP JUMPDEST POP POP JUMPDEST POP GAS PUSH2 0x567 PUSH2 0xFDA JUMP JUMPDEST POP POP POP POP POP ISZERO DUP1 ISZERO PUSH2 0x586 JUMPI RETURNDATASIZE PUSH1 0x0 DUP1 RETURNDATACOPY RETURNDATASIZE PUSH1 0x0 PUSH2 0x583 PUSH2 0xE2F JUMP JUMPDEST POP POP JUMPDEST POP POP POP POP PUSH1 0x40 MLOAD RETURNDATASIZE PUSH1 0x20 DUP2 LT ISZERO PUSH2 0x5A5 JUMPI PUSH1 0x0 DUP1 PUSH2 0x5A2 PUSH2 0xE2F JUMP JUMPDEST POP POP JUMPDEST DUP2 ADD SWAP1 DUP1 DUP1 MLOAD SWAP3 POP DUP3 SWAP2 POP PUSH1 0x5 SWAP1 POP PUSH2 0x5BC PUSH2 0xEFA JUMP JUMPDEST POP POP POP SWAP3 SWAP2 POP POP JUMP JUMPDEST PUSH1 0x0 PUSH2 0x5CF PUSH2 0x65A JUMP JUMPDEST PUSH2 0x616 JUMPI PUSH1 0x40 MLOAD PUSH3 0x461BCD PUSH1 0xE5 SHL DUP2 MSTORE PUSH1 0x20 PUSH1 0x4 DUP3 ADD DUP2 SWAP1 MSTORE PUSH1 0x24 DUP3 ADD MSTORE PUSH1 0x0 DUP1 MLOAD PUSH1 0x20 PUSH2 0x11D2 DUP4 CODECOPY DUP2 MLOAD SWAP2 MSTORE PUSH1 0x44 DUP3 ADD MSTORE PUSH1 0x64 ADD PUSH1 0x40 MLOAD DUP1 SWAP2 SUB SWAP1 PUSH2 0x613 PUSH2 0xE2F JUMP JUMPDEST POP POP JUMPDEST DUP2 DUP1 PUSH1 0x6 PUSH2 0x622 PUSH2 0xEFA JUMP JUMPDEST POP PUSH1 0x1 SWAP5 SWAP4 POP POP POP POP JUMP JUMPDEST PUSH1 0x0 DUP1 DUP1 PUSH2 0x639 PUSH2 0xE9A JUMP JUMPDEST SWAP1 PUSH2 0x100 EXP SWAP1 DIV PUSH1 0x1 PUSH1 0x1 PUSH1 0xA0 SHL SUB AND SWAP1 POP SWAP1 JUMP JUMPDEST PUSH1 0x0 PUSH1 0x3 PUSH2 0x38E PUSH2 0xE9A JUMP JUMPDEST PUSH1 0x0 DUP1 PUSH1 0x3 PUSH2 0x3AE PUSH2 0xE9A JUMP JUMPDEST PUSH1 0x0 PUSH2 0x671 PUSH2 0x3A1 JUMP JUMPDEST PUSH2 0x6CA JUMPI PUSH1 0x40 MLOAD PUSH3 0x461BCD PUSH1 0xE5 SHL DUP2 MSTORE PUSH1 0x20 PUSH1 0x4 DUP3 ADD DUP2 SWAP1 MSTORE PUSH1 0x24 DUP3 ADD MSTORE PUSH32 0x43616C6C6572206973206E6F74207468652052756269636F6E204D61726B6574 PUSH1 0x44 DUP3 ADD MSTORE PUSH1 0x64 ADD PUSH1 0x40 MLOAD DUP1 SWAP2 SUB SWAP1 PUSH2 0x6C7 PUSH2 0xE2F JUMP JUMPDEST POP POP JUMPDEST GAS PUSH2 0x6D3 PUSH2 0x10C5 JUMP JUMPDEST PUSH1 0x5 PUSH2 0x6DD PUSH2 0xE9A JUMP JUMPDEST LT PUSH2 0x722 JUMPI PUSH1 0x40 MLOAD PUSH3 0x461BCD PUSH1 0xE5 SHL DUP2 MSTORE PUSH1 0x4 ADD DUP1 DUP1 PUSH1 0x20 ADD DUP3 DUP2 SUB DUP3 MSTORE PUSH1 0x24 DUP2 MSTORE PUSH1 0x20 ADD DUP1 PUSH2 0x11F2 PUSH1 0x24 SWAP2 CODECOPY PUSH1 0x40 ADD SWAP2 POP POP PUSH1 0x40 MLOAD DUP1 SWAP2 SUB SWAP1 PUSH2 0x71F PUSH2 0xE2F JUMP JUMPDEST POP POP JUMPDEST PUSH1 0x1 PUSH1 0x1 PUSH1 0xA0 SHL SUB DUP3 AND PUSH2 0x77D JUMPI PUSH1 0x40 MLOAD PUSH3 0x461BCD PUSH1 0xE5 SHL DUP2 MSTORE PUSH1 0x20 PUSH1 0x4 DUP3 ADD MSTORE PUSH1 0x15 PUSH1 0x24 DUP3 ADD MSTORE PUSH21 0x74616B6572206973207A65726F2061646472657373 PUSH1 0x58 SHL PUSH1 0x44 DUP3 ADD MSTORE PUSH1 0x64 ADD PUSH1 0x40 MLOAD DUP1 SWAP2 SUB SWAP1 PUSH2 0x77A PUSH2 0xE2F JUMP JUMPDEST POP POP JUMPDEST PUSH1 0x1 PUSH1 0x1 PUSH1 0xA0 SHL SUB DUP4 AND PUSH2 0x7D8 JUMPI PUSH1 0x40 MLOAD PUSH3 0x461BCD PUSH1 0xE5 SHL DUP2 MSTORE PUSH1 0x20 PUSH1 0x4 DUP3 ADD MSTORE PUSH1 0x15 PUSH1 0x24 DUP3 ADD MSTORE PUSH21 0x6D616B6572206973207A65726F2061646472657373 PUSH1 0x58 SHL PUSH1 0x44 DUP3 ADD MSTORE PUSH1 0x64 ADD PUSH1 0x40 MLOAD DUP1 SWAP2 SUB SWAP1 PUSH2 0x7D5 PUSH2 0xE2F JUMP JUMPDEST POP POP JUMPDEST PUSH1 0x0 PUSH1 0x4 PUSH2 0x7E4 PUSH2 0xE9A JUMP JUMPDEST SWAP1 PUSH2 0x100 EXP SWAP1 DIV PUSH1 0x1 PUSH1 0x1 PUSH1 0xA0 SHL SUB AND PUSH1 0x1 PUSH1 0x1 PUSH1 0xA0 SHL SUB AND PUSH4 0xC0198AC4 PUSH1 0x40 MLOAD DUP2 PUSH4 0xFFFFFFFF AND PUSH1 0xE0 SHL DUP2 MSTORE PUSH1 0x4 ADD PUSH1 0x20 PUSH1 0x40 MLOAD DUP1 DUP4 SUB DUP2 DUP7 DUP1 PUSH2 0x827 PUSH2 0xF8E JUMP JUMPDEST ISZERO DUP1 ISZERO PUSH2 0x83C JUMPI PUSH1 0x0 DUP1 PUSH2 0x839 PUSH2 0xE2F JUMP JUMPDEST POP POP JUMPDEST POP GAS PUSH2 0x846 PUSH2 0xFDA JUMP JUMPDEST POP POP POP POP POP ISZERO DUP1 ISZERO PUSH2 0x865 JUMPI RETURNDATASIZE PUSH1 0x0 DUP1 RETURNDATACOPY RETURNDATASIZE PUSH1 0x0 PUSH2 0x862 PUSH2 0xE2F JUMP JUMPDEST POP POP JUMPDEST POP POP POP POP PUSH1 0x40 MLOAD RETURNDATASIZE PUSH1 0x20 DUP2 LT ISZERO PUSH2 0x884 JUMPI PUSH1 0x0 DUP1 PUSH2 0x881 PUSH2 0xE2F JUMP JUMPDEST POP POP JUMPDEST DUP2 ADD SWAP1 DUP1 DUP1 MLOAD SWAP3 POP POP POP GAS PUSH2 0x897 PUSH2 0x10C5 JUMP JUMPDEST GT ISZERO PUSH2 0x8EE JUMPI PUSH1 0x40 MLOAD PUSH3 0x461BCD PUSH1 0xE5 SHL DUP2 MSTORE PUSH1 0x20 PUSH1 0x4 DUP3 ADD MSTORE PUSH1 0x19 PUSH1 0x24 DUP3 ADD MSTORE PUSH25 0x292121A7102234B9BA3934B13ABA34B7B71034B99037BB32B9 PUSH1 0x39 SHL PUSH1 0x44 DUP3 ADD MSTORE PUSH1 0x64 ADD PUSH1 0x40 MLOAD DUP1 SWAP2 SUB SWAP1 PUSH2 0x8EB PUSH2 0xE2F JUMP JUMPDEST POP POP JUMPDEST PUSH1 0x0 PUSH2 0x90B GAS PUSH2 0x8FC PUSH2 0x10C5 JUMP JUMPDEST PUSH1 0x5 PUSH2 0x906 PUSH2 0xE9A JUMP JUMPDEST PUSH2 0xBAE JUMP JUMPDEST SWAP1 POP PUSH1 0x0 PUSH1 0x64 DUP2 PUSH1 0x4 PUSH2 0x91C PUSH2 0xE9A JUMP JUMPDEST SWAP1 PUSH2 0x100 EXP SWAP1 DIV PUSH1 0x1 PUSH1 0x1 PUSH1 0xA0 SHL SUB AND PUSH1 0x1 PUSH1 0x1 PUSH1 0xA0 SHL SUB AND PUSH4 0x44D5437D PUSH1 0x40 MLOAD DUP2 PUSH4 0xFFFFFFFF AND PUSH1 0xE0 SHL DUP2 MSTORE PUSH1 0x4 ADD PUSH1 0x20 PUSH1 0x40 MLOAD DUP1 DUP4 SUB DUP2 DUP7 DUP1 PUSH2 0x95F PUSH2 0xF8E JUMP JUMPDEST ISZERO DUP1 ISZERO PUSH2 0x974 JUMPI PUSH1 0x0 DUP1 PUSH2 0x971 PUSH2 0xE2F JUMP JUMPDEST POP POP JUMPDEST POP GAS PUSH2 0x97E PUSH2 0xFDA JUMP JUMPDEST POP POP POP POP POP ISZERO DUP1 ISZERO PUSH2 0x99D JUMPI RETURNDATASIZE PUSH1 0x0 DUP1 RETURNDATACOPY RETURNDATASIZE PUSH1 0x0 PUSH2 0x99A PUSH2 0xE2F JUMP JUMPDEST POP POP JUMPDEST POP POP POP POP PUSH1 0x40 MLOAD RETURNDATASIZE PUSH1 0x20 DUP2 LT ISZERO PUSH2 0x9BC JUMPI PUSH1 0x0 DUP1 PUSH2 0x9B9 PUSH2 0xE2F JUMP JUMPDEST POP POP JUMPDEST DUP2 ADD SWAP1 DUP1 DUP1 MLOAD SWAP3 POP DUP6 SWAP2 POP PUSH2 0x9D1 SWAP1 POP PUSH2 0x280 JUMP JUMPDEST MUL MUL DUP2 PUSH2 0x9DA JUMPI INVALID JUMPDEST DIV SWAP1 POP PUSH1 0x0 PUSH1 0x64 DUP2 PUSH1 0x4 PUSH2 0x9EC PUSH2 0xE9A JUMP JUMPDEST SWAP1 PUSH2 0x100 EXP SWAP1 DIV PUSH1 0x1 PUSH1 0x1 PUSH1 0xA0 SHL SUB AND PUSH1 0x1 PUSH1 0x1 PUSH1 0xA0 SHL SUB AND PUSH4 0x44D5437D PUSH1 0x40 MLOAD DUP2 PUSH4 0xFFFFFFFF AND PUSH1 0xE0 SHL DUP2 MSTORE PUSH1 0x4 ADD PUSH1 0x20 PUSH1 0x40 MLOAD DUP1 DUP4 SUB DUP2 DUP7 DUP1 PUSH2 0xA2F PUSH2 0xF8E JUMP JUMPDEST ISZERO DUP1 ISZERO PUSH2 0xA44 JUMPI PUSH1 0x0 DUP1 PUSH2 0xA41 PUSH2 0xE2F JUMP JUMPDEST POP POP JUMPDEST POP GAS PUSH2 0xA4E PUSH2 0xFDA JUMP JUMPDEST POP POP POP POP POP ISZERO DUP1 ISZERO PUSH2 0xA6D JUMPI RETURNDATASIZE PUSH1 0x0 DUP1 RETURNDATACOPY RETURNDATASIZE PUSH1 0x0 PUSH2 0xA6A PUSH2 0xE2F JUMP JUMPDEST POP POP JUMPDEST POP POP POP POP PUSH1 0x40 MLOAD RETURNDATASIZE PUSH1 0x20 DUP2 LT ISZERO PUSH2 0xA8C JUMPI PUSH1 0x0 DUP1 PUSH2 0xA89 PUSH2 0xE2F JUMP JUMPDEST POP POP JUMPDEST DUP2 ADD SWAP1 DUP1 DUP1 MLOAD SWAP3 POP DUP7 SWAP2 POP PUSH2 0xAA1 SWAP1 POP PUSH2 0x280 JUMP JUMPDEST PUSH1 0x64 SUB MUL MUL DUP2 PUSH2 0xAAD JUMPI INVALID JUMPDEST DIV SWAP1 POP PUSH2 0xABA DUP7 DUP4 PUSH2 0xC0B JUMP JUMPDEST PUSH2 0xB12 JUMPI PUSH1 0x40 MLOAD PUSH3 0x461BCD PUSH1 0xE5 SHL DUP2 MSTORE PUSH1 0x20 PUSH1 0x4 DUP3 ADD MSTORE PUSH1 0x1C PUSH1 0x24 DUP3 ADD MSTORE PUSH28 0x191A5CDD1C9A589D5D1A5BDB881D1BC81B585AD95C8819985A5B1959 PUSH1 0x22 SHL PUSH1 0x44 DUP3 ADD MSTORE PUSH1 0x64 ADD PUSH1 0x40 MLOAD DUP1 SWAP2 SUB SWAP1 PUSH2 0xB0F PUSH2 0xE2F JUMP JUMPDEST POP POP JUMPDEST PUSH2 0xB1C DUP6 DUP3 PUSH2 0xC0B JUMP JUMPDEST PUSH2 0xB74 JUMPI PUSH1 0x40 MLOAD PUSH3 0x461BCD PUSH1 0xE5 SHL DUP2 MSTORE PUSH1 0x20 PUSH1 0x4 DUP3 ADD MSTORE PUSH1 0x1C PUSH1 0x24 DUP3 ADD MSTORE PUSH28 0x191A5CDD1C9A589D5D1A5BDB881D1BC81D185AD95C8819985A5B1959 PUSH1 0x22 SHL PUSH1 0x44 DUP3 ADD MSTORE PUSH1 0x64 ADD PUSH1 0x40 MLOAD DUP1 SWAP2 SUB SWAP1 PUSH2 0xB71 PUSH2 0xE2F JUMP JUMPDEST POP POP JUMPDEST GAS PUSH2 0xB7D PUSH2 0x10C5 JUMP JUMPDEST DUP1 PUSH1 0x5 PUSH2 0xB88 PUSH2 0xEFA JUMP JUMPDEST POP POP POP PUSH1 0x1 SWAP4 POP POP POP POP JUMPDEST SWAP3 SWAP2 POP POP JUMP JUMPDEST PUSH1 0x6 PUSH2 0x27D PUSH2 0xE9A JUMP JUMPDEST PUSH1 0x0 DUP1 PUSH2 0x38E PUSH2 0xE9A JUMP JUMPDEST DUP1 DUP3 SUB DUP3 DUP2 GT ISZERO PUSH2 0xB93 JUMPI PUSH1 0x40 MLOAD PUSH3 0x461BCD PUSH1 0xE5 SHL DUP2 MSTORE PUSH1 0x20 PUSH1 0x4 DUP3 ADD MSTORE PUSH1 0x15 PUSH1 0x24 DUP3 ADD MSTORE PUSH21 0x64732D6D6174682D7375622D756E646572666C6F77 PUSH1 0x58 SHL PUSH1 0x44 DUP3 ADD MSTORE PUSH1 0x64 ADD PUSH1 0x40 MLOAD DUP1 SWAP2 SUB SWAP1 PUSH2 0xC03 PUSH2 0xE2F JUMP JUMPDEST POP POP SWAP3 SWAP2 POP POP JUMP JUMPDEST PUSH1 0x0 DUP1 PUSH1 0x1 PUSH2 0xC18 PUSH2 0xE9A JUMP JUMPDEST SWAP1 PUSH2 0x100 EXP SWAP1 DIV PUSH1 0x1 PUSH1 0x1 PUSH1 0xA0 SHL SUB AND PUSH1 0x1 PUSH1 0x1 PUSH1 0xA0 SHL SUB AND GAS PUSH2 0xC3A PUSH2 0xF48 JUMP JUMPDEST PUSH1 0x1 PUSH1 0x1 PUSH1 0xA0 SHL SUB AND EQ PUSH2 0xC9C JUMPI PUSH1 0x40 MLOAD PUSH3 0x461BCD PUSH1 0xE5 SHL DUP2 MSTORE PUSH1 0x20 PUSH1 0x4 DUP3 ADD MSTORE PUSH1 0x1C PUSH1 0x24 DUP3 ADD MSTORE PUSH28 0x18D85B1B195C881A5CC81B9BDD08149D589A58DBDB8813585C9AD95D PUSH1 0x22 SHL PUSH1 0x44 DUP3 ADD MSTORE PUSH1 0x64 ADD PUSH1 0x40 MLOAD DUP1 SWAP2 SUB SWAP1 PUSH2 0xC99 PUSH2 0xE2F JUMP JUMPDEST POP POP JUMPDEST PUSH1 0x0 PUSH1 0x4 PUSH2 0xCA8 PUSH2 0xE9A JUMP JUMPDEST SWAP1 PUSH2 0x100 EXP SWAP1 DIV PUSH1 0x1 PUSH1 0x1 PUSH1 0xA0 SHL SUB AND PUSH1 0x1 PUSH1 0x1 PUSH1 0xA0 SHL SUB AND PUSH4 0xA9059CBB DUP5 DUP5 PUSH1 0x40 MLOAD PUSH1 0x1 PUSH1 0x1 PUSH1 0xE0 SHL SUB NOT PUSH1 0xE0 DUP6 SWAP1 SHL AND DUP2 MSTORE PUSH1 0x1 PUSH1 0x1 PUSH1 0xA0 SHL SUB SWAP1 SWAP3 AND PUSH1 0x4 DUP4 ADD MSTORE PUSH1 0x24 DUP3 ADD MSTORE PUSH1 0x44 ADD PUSH1 0x20 PUSH1 0x40 MLOAD DUP1 DUP4 SUB DUP2 PUSH1 0x0 DUP8 DUP1 PUSH2 0xD09 PUSH2 0xF8E JUMP JUMPDEST ISZERO DUP1 ISZERO PUSH2 0xD1E JUMPI PUSH1 0x0 DUP1 PUSH2 0xD1B PUSH2 0xE2F JUMP JUMPDEST POP POP JUMPDEST POP GAS PUSH2 0xD28 PUSH2 0x110B JUMP JUMPDEST POP POP POP POP POP POP ISZERO DUP1 ISZERO PUSH2 0xD48 JUMPI RETURNDATASIZE PUSH1 0x0 DUP1 RETURNDATACOPY RETURNDATASIZE PUSH1 0x0 PUSH2 0xD45 PUSH2 0xE2F JUMP JUMPDEST POP POP JUMPDEST POP POP POP POP PUSH1 0x40 MLOAD RETURNDATASIZE PUSH1 0x20 DUP2 LT ISZERO PUSH2 0xD67 JUMPI PUSH1 0x0 DUP1 PUSH2 0xD64 PUSH2 0xE2F JUMP JUMPDEST POP POP JUMPDEST DUP2 ADD SWAP1 DUP1 DUP1 MLOAD SWAP3 POP PUSH2 0xDC5 SWAP2 POP POP JUMPI PUSH1 0x40 MLOAD PUSH3 0x461BCD PUSH1 0xE5 SHL DUP2 MSTORE PUSH1 0x20 PUSH1 0x4 DUP3 ADD MSTORE PUSH1 0x17 PUSH1 0x24 DUP3 ADD MSTORE PUSH23 0x1D1C985B9CD9995C881BD988149090D38819985A5B1959 PUSH1 0x4A SHL PUSH1 0x44 DUP3 ADD MSTORE PUSH1 0x64 ADD PUSH1 0x40 MLOAD DUP1 SWAP2 SUB SWAP1 PUSH2 0xDC2 PUSH2 0xE2F JUMP JUMPDEST POP POP JUMPDEST PUSH32 0xA8EE3E5C0B1FD681042265199E8B28CF463B81BC21F6658D4C73E741AEABD3F5 DUP4 DUP4 GAS PUSH2 0xDF1 PUSH2 0x10C5 JUMP JUMPDEST PUSH1 0x40 MLOAD DUP1 DUP5 PUSH1 0x1 PUSH1 0x1 PUSH1 0xA0 SHL SUB AND PUSH1 0x1 PUSH1 0x1 PUSH1 0xA0 SHL SUB AND DUP2 MSTORE PUSH1 0x20 ADD DUP4 DUP2 MSTORE PUSH1 0x20 ADD DUP3 DUP2 MSTORE PUSH1 0x20 ADD SWAP4 POP POP POP POP PUSH1 0x40 MLOAD DUP1 SWAP2 SUB SWAP1 LOG1 POP PUSH1 0x1 SWAP3 SWAP2 POP POP JUMP JUMPDEST PUSH4 0x2A2A7ADB MSIZE DUP2 PUSH1 0xE0 SHL DUP2 MSTORE PUSH1 0x4 DUP2 ADD PUSH1 0x20 DUP2 MSTORE DUP6 PUSH1 0x20 DUP3 ADD MSTORE PUSH1 0x0 JUMPDEST DUP7 DUP2 LT ISZERO PUSH2 0xE67 JUMPI DUP1 DUP7 ADD MLOAD DUP3 DUP3 ADD PUSH1 0x40 ADD MSTORE PUSH1 0x20 ADD PUSH2 0xE4C JUMP JUMPDEST POP PUSH1 0x20 DUP3 DUP8 PUSH1 0x64 ADD DUP5 CALLER PUSH1 0x0 SWAP1 GAS CALL PC PUSH1 0xE ADD JUMPI RETURNDATASIZE PUSH1 0x0 DUP1 RETURNDATACOPY RETURNDATASIZE PUSH1 0x0 REVERT JUMPDEST RETURNDATASIZE PUSH1 0x1 EQ ISZERO PC PUSH1 0xA ADD JUMPI PUSH1 0x1 PUSH1 0x0 RETURN JUMPDEST POP POP POP JUMP JUMPDEST PUSH4 0x3DAA959 MSIZE DUP2 PUSH1 0xE0 SHL DUP2 MSTORE DUP4 PUSH1 0x4 DUP3 ADD MSTORE PUSH1 0x20 DUP2 PUSH1 0x24 DUP4 CALLER PUSH1 0x0 SWAP1 GAS CALL PC PUSH1 0xE ADD JUMPI RETURNDATASIZE PUSH1 0x0 DUP1 RETURNDATACOPY RETURNDATASIZE PUSH1 0x0 REVERT JUMPDEST RETURNDATASIZE PUSH1 0x1 EQ ISZERO PC PUSH1 0xA ADD JUMPI PUSH1 0x1 PUSH1 0x0 RETURN JUMPDEST DUP1 MLOAD SWAP4 POP PUSH1 0x0 JUMPDEST PUSH1 0x40 DUP2 LT ISZERO PUSH2 0xEF5 JUMPI PUSH1 0x0 DUP3 DUP3 ADD MSTORE PUSH1 0x20 ADD PUSH2 0xEDE JUMP JUMPDEST POP POP POP JUMP JUMPDEST PUSH4 0x22BD64C0 MSIZE DUP2 PUSH1 0xE0 SHL DUP2 MSTORE DUP4 PUSH1 0x4 DUP3 ADD MSTORE DUP5 PUSH1 0x24 DUP3 ADD MSTORE PUSH1 0x0 DUP2 PUSH1 0x44 DUP4 CALLER PUSH1 0x0 SWAP1 GAS CALL PC PUSH1 0xE ADD JUMPI RETURNDATASIZE PUSH1 0x0 DUP1 RETURNDATACOPY RETURNDATASIZE PUSH1 0x0 REVERT JUMPDEST RETURNDATASIZE PUSH1 0x1 EQ ISZERO PC PUSH1 0xA ADD JUMPI PUSH1 0x1 PUSH1 0x0 RETURN JUMPDEST PUSH1 0x0 DUP2 MSTORE PUSH1 0x20 PUSH2 0xEDE JUMP JUMPDEST PUSH4 0x73509064 MSIZE DUP2 PUSH1 0xE0 SHL DUP2 MSTORE PUSH1 0x20 DUP2 PUSH1 0x4 DUP4 CALLER PUSH1 0x0 SWAP1 GAS CALL PC PUSH1 0xE ADD JUMPI RETURNDATASIZE PUSH1 0x0 DUP1 RETURNDATACOPY RETURNDATASIZE PUSH1 0x0 REVERT JUMPDEST RETURNDATASIZE PUSH1 0x1 EQ ISZERO PC PUSH1 0xA ADD JUMPI PUSH1 0x1 PUSH1 0x0 RETURN JUMPDEST DUP1 MLOAD PUSH1 0x0 DUP3 MSTORE SWAP4 POP PUSH1 0x20 PUSH2 0xEDE JUMP JUMPDEST PUSH4 0x8435035B MSIZE DUP2 PUSH1 0xE0 SHL DUP2 MSTORE DUP4 PUSH1 0x4 DUP3 ADD MSTORE PUSH1 0x20 DUP2 PUSH1 0x24 DUP4 CALLER PUSH1 0x0 SWAP1 GAS CALL PC PUSH1 0xE ADD JUMPI RETURNDATASIZE PUSH1 0x0 DUP1 RETURNDATACOPY RETURNDATASIZE PUSH1 0x0 REVERT JUMPDEST RETURNDATASIZE PUSH1 0x1 EQ ISZERO PC PUSH1 0xA ADD JUMPI PUSH1 0x1 PUSH1 0x0 RETURN JUMPDEST DUP1 MLOAD PUSH1 0x0 DUP3 MSTORE SWAP4 POP PUSH1 0x20 PUSH2 0xEDE JUMP JUMPDEST PUSH4 0x8540661F MSIZE DUP2 PUSH1 0xE0 SHL DUP2 MSTORE PUSH2 0x100B JUMP JUMPDEST DUP1 DUP1 DUP4 GT ISZERO PUSH2 0xB93 JUMPI POP SWAP1 SWAP2 SWAP1 POP JUMP JUMPDEST DUP1 DUP1 DUP4 LT ISZERO PUSH2 0xB93 JUMPI POP SWAP1 SWAP2 SWAP1 POP JUMP JUMPDEST DUP4 PUSH1 0x4 DUP3 ADD MSTORE DUP5 PUSH1 0x24 DUP3 ADD MSTORE PUSH1 0x60 PUSH1 0x44 DUP3 ADD MSTORE DUP7 PUSH1 0x64 DUP3 ADD MSTORE PUSH1 0x84 DUP2 ADD PUSH1 0x0 JUMPDEST DUP9 DUP2 LT ISZERO PUSH2 0x1043 JUMPI DUP1 DUP9 ADD MLOAD DUP3 DUP3 ADD MSTORE PUSH1 0x20 ADD PUSH2 0x102B JUMP JUMPDEST POP PUSH1 0x60 DUP3 DUP10 PUSH1 0xA4 ADD DUP5 CALLER PUSH1 0x0 SWAP1 GAS CALL PC PUSH1 0xE ADD JUMPI RETURNDATASIZE PUSH1 0x0 DUP1 RETURNDATACOPY RETURNDATASIZE PUSH1 0x0 REVERT JUMPDEST RETURNDATASIZE PUSH1 0x1 EQ ISZERO PC PUSH1 0xA ADD JUMPI PUSH1 0x1 PUSH1 0x0 RETURN JUMPDEST DUP2 MLOAD PUSH1 0x40 DUP4 ADD MLOAD RETURNDATASIZE PUSH1 0x0 DUP6 RETURNDATACOPY DUP12 DUP12 DUP3 PUSH1 0x60 DUP8 ADD CALLER POP PUSH1 0x0 PUSH1 0x4 GAS CALL POP MSIZE PUSH2 0x1098 DUP14 RETURNDATASIZE PUSH2 0xFFB JUMP JUMPDEST DUP13 ADD PUSH2 0x10A4 DUP2 DUP8 PUSH2 0xFEB JUMP JUMPDEST JUMPDEST DUP3 DUP2 LT ISZERO PUSH2 0x10B9 JUMPI PUSH1 0x0 DUP2 MSTORE PUSH1 0x20 ADD PUSH2 0x10A5 JUMP JUMPDEST POP SWAP3 SWAP13 POP POP POP POP POP POP POP JUMP JUMPDEST PUSH4 0xBDBF8C36 MSIZE DUP2 PUSH1 0xE0 SHL DUP2 MSTORE PUSH1 0x20 DUP2 PUSH1 0x4 DUP4 CALLER PUSH1 0x0 SWAP1 GAS CALL PC PUSH1 0xE ADD JUMPI RETURNDATASIZE PUSH1 0x0 DUP1 RETURNDATACOPY RETURNDATASIZE PUSH1 0x0 REVERT JUMPDEST RETURNDATASIZE PUSH1 0x1 EQ ISZERO PC PUSH1 0xA ADD JUMPI PUSH1 0x1 PUSH1 0x0 RETURN JUMPDEST DUP1 MLOAD PUSH1 0x0 DUP3 MSTORE SWAP4 POP PUSH1 0x20 PUSH2 0xEDE JUMP JUMPDEST PUSH4 0x85979F76 MSIZE DUP2 PUSH1 0xE0 SHL DUP2 MSTORE DUP4 PUSH1 0x4 DUP3 ADD MSTORE DUP5 PUSH1 0x24 DUP3 ADD MSTORE PUSH1 0x60 PUSH1 0x44 DUP3 ADD MSTORE DUP8 PUSH1 0x64 DUP3 ADD MSTORE PUSH1 0x84 DUP2 ADD PUSH1 0x0 JUMPDEST DUP10 DUP2 LT ISZERO PUSH2 0x114F JUMPI DUP1 DUP10 ADD MLOAD DUP3 DUP3 ADD MSTORE PUSH1 0x20 ADD PUSH2 0x1137 JUMP JUMPDEST POP PUSH1 0x60 DUP3 DUP11 PUSH1 0xA4 ADD DUP5 CALLER PUSH1 0x0 SWAP1 GAS CALL PC PUSH1 0xE ADD JUMPI RETURNDATASIZE PUSH1 0x0 DUP1 RETURNDATACOPY RETURNDATASIZE PUSH1 0x0 REVERT JUMPDEST RETURNDATASIZE PUSH1 0x1 EQ ISZERO PC PUSH1 0xA ADD JUMPI PUSH1 0x1 PUSH1 0x0 RETURN JUMPDEST DUP2 MLOAD PUSH1 0x40 DUP4 ADD MLOAD RETURNDATASIZE PUSH1 0x0 DUP6 RETURNDATACOPY DUP13 DUP13 DUP3 PUSH1 0x60 DUP8 ADD CALLER POP PUSH1 0x0 PUSH1 0x4 GAS CALL POP MSIZE PUSH2 0x11A4 DUP15 RETURNDATASIZE PUSH2 0xFFB JUMP JUMPDEST DUP14 ADD PUSH2 0x11B0 DUP2 DUP8 PUSH2 0xFEB JUMP JUMPDEST JUMPDEST DUP3 DUP2 LT ISZERO PUSH2 0x11C5 JUMPI PUSH1 0x0 DUP2 MSTORE PUSH1 0x20 ADD PUSH2 0x11B1 JUMP JUMPDEST POP SWAP3 SWAP14 POP POP POP POP POP POP POP JUMP INVALID 0x4F PUSH24 0x6E61626C653A2063616C6C6572206973206E6F7420746865 KECCAK256 PUSH16 0x776E657274696D654F664C6173745242 NUMBER 0x4E DIFFICULTY PUSH10 0x7374203C20626C6F636B 0x2E PUSH21 0x696D657374616D7000000000000000000000000000 "
        },
        "deployedBytecode": {
          "linkReferences": {},
          "object": "608060405234801561001957600080610016610e2f565b50505b50600436106100d95760003560e01c806305a695c5146100e7578063114eb4db1461010157806313af4035146101095780631d156dcf1461014c578063540907bb146101545780635794a68a1461018357806358cb0340146101a757806360f71b24146101af57806382f107e0146101b75780638aadb371146101ee5780638cce6851146102145780638da5cb5b1461021c5780638f32d59b14610224578063b30ed7b31461022c578063c3a4b81f14610263578063d6c3bf2c1461026b575b6000806100e4610e2f565b50505b6100ef610273565b60405190815260200160405180910390f35b6100ef610280565b6101386004803603602081101561012857600080610125610e2f565b50505b50356001600160a01b0316610291565b604051901515815260200160405180910390f35b6100ef61031a565b6101386004803603602081101561017357600080610170610e2f565b50505b50356001600160a01b0316610324565b61018b610382565b6040516001600160a01b03909116815260200160405180910390f35b6101386103a1565b61018b6103df565b610138600480360360408110156101d6576000806101d3610e2f565b50505b506001600160a01b03813581169160200135166103eb565b6101386004803603602081101561020d5760008061020a610e2f565b50505b50356105c5565b61018b61062d565b61018b61064e565b61013861065a565b6101386004803603604081101561024b57600080610248610e2f565b50505b506001600160a01b0381358116916020013516610667565b6100ef610b99565b61018b610ba3565b600561027d610e9a565b81565b6000600661028c610e9a565b905090565b600061029b61065a565b6102e25760405162461bcd60e51b815260206004820181905260248201526000805160206111d28339815191526044820152606401604051809103906102df610e2f565b50505b8160036001816102f0610e9a565b816001600160a01b0302191690836001600160a01b0316021790610312610efa565b505050919050565b600261027d610e9a565b600061032e61065a565b6103755760405162461bcd60e51b815260206004820181905260248201526000805160206111d2833981519152604482015260640160405180910390610372610e2f565b50505b81600180806102f0610e9a565b6000600461038e610e9a565b906101000a90046001600160a01b031681565b60008060016103ae610e9a565b906101000a90046001600160a01b03166001600160a01b03165a6103d0610f48565b6001600160a01b031614905090565b6000600161038e610e9a565b60006103f561065a565b61043c5760405162461bcd60e51b815260206004820181905260248201526000805160206111d2833981519152604482015260640160405180910390610439610e2f565b50505b82600060018161044a610e9a565b816001600160a01b0302191690836001600160a01b031602179061046c610efa565b50505081600160006101000a81610481610e9a565b816001600160a01b0302191690836001600160a01b03160217906104a3610efa565b505050600080906104b2610e9a565b906101000a90046001600160a01b0316600460006101000a816104d3610e9a565b816001600160a01b0302191690836001600160a01b03160217906104f5610efa565b5050506004600090610505610e9a565b906101000a90046001600160a01b03166001600160a01b031663cb4774f36040518163ffffffff1660e01b81526004016020604051808303818680610548610f8e565b15801561055d5760008061055a610e2f565b50505b505a610567610fda565b5050505050158015610586573d6000803e3d6000610583610e2f565b50505b505050506040513d60208110156105a5576000806105a2610e2f565b50505b8101908080519250829150600590506105bc610efa565b50505092915050565b60006105cf61065a565b6106165760405162461bcd60e51b815260206004820181905260248201526000805160206111d2833981519152604482015260640160405180910390610613610e2f565b50505b81806006610622610efa565b506001949350505050565b60008080610639610e9a565b906101000a90046001600160a01b0316905090565b6000600361038e610e9a565b60008060036103ae610e9a565b60006106716103a1565b6106ca5760405162461bcd60e51b815260206004820181905260248201527f43616c6c6572206973206e6f74207468652052756269636f6e204d61726b65746044820152606401604051809103906106c7610e2f565b50505b5a6106d36110c5565b60056106dd610e9a565b106107225760405162461bcd60e51b81526004018080602001828103825260248152602001806111f2602491396040019150506040518091039061071f610e2f565b50505b6001600160a01b03821661077d5760405162461bcd60e51b815260206004820152601560248201527474616b6572206973207a65726f206164647265737360581b60448201526064016040518091039061077a610e2f565b50505b6001600160a01b0383166107d85760405162461bcd60e51b81526020600482015260156024820152746d616b6572206973207a65726f206164647265737360581b6044820152606401604051809103906107d5610e2f565b50505b600060046107e4610e9a565b906101000a90046001600160a01b03166001600160a01b031663c0198ac46040518163ffffffff1660e01b81526004016020604051808303818680610827610f8e565b15801561083c57600080610839610e2f565b50505b505a610846610fda565b5050505050158015610865573d6000803e3d6000610862610e2f565b50505b505050506040513d602081101561088457600080610881610e2f565b50505b810190808051925050505a6108976110c5565b11156108ee5760405162461bcd60e51b8152602060048201526019602482015278292121a7102234b9ba3934b13aba34b7b71034b99037bb32b960391b6044820152606401604051809103906108eb610e2f565b50505b600061090b5a6108fc6110c5565b6005610906610e9a565b610bae565b90506000606481600461091c610e9a565b906101000a90046001600160a01b03166001600160a01b03166344d5437d6040518163ffffffff1660e01b8152600401602060405180830381868061095f610f8e565b15801561097457600080610971610e2f565b50505b505a61097e610fda565b505050505015801561099d573d6000803e3d600061099a610e2f565b50505b505050506040513d60208110156109bc576000806109b9610e2f565b50505b81019080805192508591506109d19050610280565b0202816109da57fe5b049050600060648160046109ec610e9a565b906101000a90046001600160a01b03166001600160a01b03166344d5437d6040518163ffffffff1660e01b81526004016020604051808303818680610a2f610f8e565b158015610a4457600080610a41610e2f565b50505b505a610a4e610fda565b5050505050158015610a6d573d6000803e3d6000610a6a610e2f565b50505b505050506040513d6020811015610a8c57600080610a89610e2f565b50505b8101908080519250869150610aa19050610280565b606403020281610aad57fe5b049050610aba8683610c0b565b610b125760405162461bcd60e51b815260206004820152601c60248201527b191a5cdd1c9a589d5d1a5bdb881d1bc81b585ad95c8819985a5b195960221b604482015260640160405180910390610b0f610e2f565b50505b610b1c8582610c0b565b610b745760405162461bcd60e51b815260206004820152601c60248201527b191a5cdd1c9a589d5d1a5bdb881d1bc81d185ad95c8819985a5b195960221b604482015260640160405180910390610b71610e2f565b50505b5a610b7d6110c5565b806005610b88610efa565b505050600193505050505b92915050565b600661027d610e9a565b60008061038e610e9a565b80820382811115610b935760405162461bcd60e51b815260206004820152601560248201527464732d6d6174682d7375622d756e646572666c6f7760581b604482015260640160405180910390610c03610e2f565b505092915050565b6000806001610c18610e9a565b906101000a90046001600160a01b03166001600160a01b03165a610c3a610f48565b6001600160a01b031614610c9c5760405162461bcd60e51b815260206004820152601c60248201527b18d85b1b195c881a5cc81b9bdd08149d589a58dbdb8813585c9ad95d60221b604482015260640160405180910390610c99610e2f565b50505b60006004610ca8610e9a565b906101000a90046001600160a01b03166001600160a01b031663a9059cbb84846040516001600160e01b031960e085901b1681526001600160a01b039092166004830152602482015260440160206040518083038160008780610d09610f8e565b158015610d1e57600080610d1b610e2f565b50505b505a610d2861110b565b505050505050158015610d48573d6000803e3d6000610d45610e2f565b50505b505050506040513d6020811015610d6757600080610d64610e2f565b50505b8101908080519250610dc59150505760405162461bcd60e51b81526020600482015260176024820152761d1c985b9cd9995c881bd988149090d38819985a5b1959604a1b604482015260640160405180910390610dc2610e2f565b50505b7fa8ee3e5c0b1fd681042265199e8b28cf463b81bc21f6658d4c73e741aeabd3f583835a610df16110c5565b60405180846001600160a01b03166001600160a01b03168152602001838152602001828152602001935050505060405180910390a150600192915050565b632a2a7adb598160e01b8152600481016020815285602082015260005b86811015610e67578086015182820160400152602001610e4c565b506020828760640184336000905af158601d01573d60011458600c01573d6000803e3d621234565260ea61109c52505050565b6303daa959598160e01b8152836004820152602081602483336000905af158601d01573d60011458600c01573d6000803e3d621234565260ea61109c528051935060005b6040811015610ef557600082820152602001610ede565b505050565b6322bd64c0598160e01b8152836004820152846024820152600081604483336000905af158601d01573d60011458600c01573d6000803e3d621234565260ea61109c52600081526020610ede565b6373509064598160e01b8152602081600483336000905af158601d01573d60011458600c01573d6000803e3d621234565260ea61109c5280516000825293506020610ede565b638435035b598160e01b8152836004820152602081602483336000905af158601d01573d60011458600c01573d6000803e3d621234565260ea61109c5280516000825293506020610ede565b638540661f598160e01b815261100b565b8080831115610b93575090919050565b8080831015610b93575090919050565b836004820152846024820152606060448201528660648201526084810160005b8881101561104357808801518282015260200161102b565b506060828960a40184336000905af158601d01573d60011458600c01573d6000803e3d621234565260ea61109c52815160408301513d6000853e8b8b82606087013350600060045af150596110988d3d610ffb565b8c016110a48187610feb565b5b828110156110b957600081526020016110a5565b50929c50505050505050565b63bdbf8c36598160e01b8152602081600483336000905af158601d01573d60011458600c01573d6000803e3d621234565260ea61109c5280516000825293506020610ede565b6385979f76598160e01b8152836004820152846024820152606060448201528760648201526084810160005b8981101561114f578089015182820152602001611137565b506060828a60a40184336000905af158601d01573d60011458600c01573d6000803e3d621234565260ea61109c52815160408301513d6000853e8c8c82606087013350600060045af150596111a48e3d610ffb565b8d016111b08187610feb565b5b828110156111c557600081526020016111b1565b50929d5050505050505056fe4f776e61626c653a2063616c6c6572206973206e6f7420746865206f776e657274696d654f664c6173745242434e44697374203c20626c6f636b2e74696d657374616d70",
          "opcodes": "PUSH1 0x80 PUSH1 0x40 MSTORE CALLVALUE DUP1 ISZERO PUSH2 0x19 JUMPI PUSH1 0x0 DUP1 PUSH2 0x16 PUSH2 0xE2F JUMP JUMPDEST POP POP JUMPDEST POP PUSH1 0x4 CALLDATASIZE LT PUSH2 0xD9 JUMPI PUSH1 0x0 CALLDATALOAD PUSH1 0xE0 SHR DUP1 PUSH4 0x5A695C5 EQ PUSH2 0xE7 JUMPI DUP1 PUSH4 0x114EB4DB EQ PUSH2 0x101 JUMPI DUP1 PUSH4 0x13AF4035 EQ PUSH2 0x109 JUMPI DUP1 PUSH4 0x1D156DCF EQ PUSH2 0x14C JUMPI DUP1 PUSH4 0x540907BB EQ PUSH2 0x154 JUMPI DUP1 PUSH4 0x5794A68A EQ PUSH2 0x183 JUMPI DUP1 PUSH4 0x58CB0340 EQ PUSH2 0x1A7 JUMPI DUP1 PUSH4 0x60F71B24 EQ PUSH2 0x1AF JUMPI DUP1 PUSH4 0x82F107E0 EQ PUSH2 0x1B7 JUMPI DUP1 PUSH4 0x8AADB371 EQ PUSH2 0x1EE JUMPI DUP1 PUSH4 0x8CCE6851 EQ PUSH2 0x214 JUMPI DUP1 PUSH4 0x8DA5CB5B EQ PUSH2 0x21C JUMPI DUP1 PUSH4 0x8F32D59B EQ PUSH2 0x224 JUMPI DUP1 PUSH4 0xB30ED7B3 EQ PUSH2 0x22C JUMPI DUP1 PUSH4 0xC3A4B81F EQ PUSH2 0x263 JUMPI DUP1 PUSH4 0xD6C3BF2C EQ PUSH2 0x26B JUMPI JUMPDEST PUSH1 0x0 DUP1 PUSH2 0xE4 PUSH2 0xE2F JUMP JUMPDEST POP POP JUMPDEST PUSH2 0xEF PUSH2 0x273 JUMP JUMPDEST PUSH1 0x40 MLOAD SWAP1 DUP2 MSTORE PUSH1 0x20 ADD PUSH1 0x40 MLOAD DUP1 SWAP2 SUB SWAP1 RETURN JUMPDEST PUSH2 0xEF PUSH2 0x280 JUMP JUMPDEST PUSH2 0x138 PUSH1 0x4 DUP1 CALLDATASIZE SUB PUSH1 0x20 DUP2 LT ISZERO PUSH2 0x128 JUMPI PUSH1 0x0 DUP1 PUSH2 0x125 PUSH2 0xE2F JUMP JUMPDEST POP POP JUMPDEST POP CALLDATALOAD PUSH1 0x1 PUSH1 0x1 PUSH1 0xA0 SHL SUB AND PUSH2 0x291 JUMP JUMPDEST PUSH1 0x40 MLOAD SWAP1 ISZERO ISZERO DUP2 MSTORE PUSH1 0x20 ADD PUSH1 0x40 MLOAD DUP1 SWAP2 SUB SWAP1 RETURN JUMPDEST PUSH2 0xEF PUSH2 0x31A JUMP JUMPDEST PUSH2 0x138 PUSH1 0x4 DUP1 CALLDATASIZE SUB PUSH1 0x20 DUP2 LT ISZERO PUSH2 0x173 JUMPI PUSH1 0x0 DUP1 PUSH2 0x170 PUSH2 0xE2F JUMP JUMPDEST POP POP JUMPDEST POP CALLDATALOAD PUSH1 0x1 PUSH1 0x1 PUSH1 0xA0 SHL SUB AND PUSH2 0x324 JUMP JUMPDEST PUSH2 0x18B PUSH2 0x382 JUMP JUMPDEST PUSH1 0x40 MLOAD PUSH1 0x1 PUSH1 0x1 PUSH1 0xA0 SHL SUB SWAP1 SWAP2 AND DUP2 MSTORE PUSH1 0x20 ADD PUSH1 0x40 MLOAD DUP1 SWAP2 SUB SWAP1 RETURN JUMPDEST PUSH2 0x138 PUSH2 0x3A1 JUMP JUMPDEST PUSH2 0x18B PUSH2 0x3DF JUMP JUMPDEST PUSH2 0x138 PUSH1 0x4 DUP1 CALLDATASIZE SUB PUSH1 0x40 DUP2 LT ISZERO PUSH2 0x1D6 JUMPI PUSH1 0x0 DUP1 PUSH2 0x1D3 PUSH2 0xE2F JUMP JUMPDEST POP POP JUMPDEST POP PUSH1 0x1 PUSH1 0x1 PUSH1 0xA0 SHL SUB DUP2 CALLDATALOAD DUP2 AND SWAP2 PUSH1 0x20 ADD CALLDATALOAD AND PUSH2 0x3EB JUMP JUMPDEST PUSH2 0x138 PUSH1 0x4 DUP1 CALLDATASIZE SUB PUSH1 0x20 DUP2 LT ISZERO PUSH2 0x20D JUMPI PUSH1 0x0 DUP1 PUSH2 0x20A PUSH2 0xE2F JUMP JUMPDEST POP POP JUMPDEST POP CALLDATALOAD PUSH2 0x5C5 JUMP JUMPDEST PUSH2 0x18B PUSH2 0x62D JUMP JUMPDEST PUSH2 0x18B PUSH2 0x64E JUMP JUMPDEST PUSH2 0x138 PUSH2 0x65A JUMP JUMPDEST PUSH2 0x138 PUSH1 0x4 DUP1 CALLDATASIZE SUB PUSH1 0x40 DUP2 LT ISZERO PUSH2 0x24B JUMPI PUSH1 0x0 DUP1 PUSH2 0x248 PUSH2 0xE2F JUMP JUMPDEST POP POP JUMPDEST POP PUSH1 0x1 PUSH1 0x1 PUSH1 0xA0 SHL SUB DUP2 CALLDATALOAD DUP2 AND SWAP2 PUSH1 0x20 ADD CALLDATALOAD AND PUSH2 0x667 JUMP JUMPDEST PUSH2 0xEF PUSH2 0xB99 JUMP JUMPDEST PUSH2 0x18B PUSH2 0xBA3 JUMP JUMPDEST PUSH1 0x5 PUSH2 0x27D PUSH2 0xE9A JUMP JUMPDEST DUP2 JUMP JUMPDEST PUSH1 0x0 PUSH1 0x6 PUSH2 0x28C PUSH2 0xE9A JUMP JUMPDEST SWAP1 POP SWAP1 JUMP JUMPDEST PUSH1 0x0 PUSH2 0x29B PUSH2 0x65A JUMP JUMPDEST PUSH2 0x2E2 JUMPI PUSH1 0x40 MLOAD PUSH3 0x461BCD PUSH1 0xE5 SHL DUP2 MSTORE PUSH1 0x20 PUSH1 0x4 DUP3 ADD DUP2 SWAP1 MSTORE PUSH1 0x24 DUP3 ADD MSTORE PUSH1 0x0 DUP1 MLOAD PUSH1 0x20 PUSH2 0x11D2 DUP4 CODECOPY DUP2 MLOAD SWAP2 MSTORE PUSH1 0x44 DUP3 ADD MSTORE PUSH1 0x64 ADD PUSH1 0x40 MLOAD DUP1 SWAP2 SUB SWAP1 PUSH2 0x2DF PUSH2 0xE2F JUMP JUMPDEST POP POP JUMPDEST DUP2 PUSH1 0x3 PUSH1 0x1 DUP2 PUSH2 0x2F0 PUSH2 0xE9A JUMP JUMPDEST DUP2 PUSH1 0x1 PUSH1 0x1 PUSH1 0xA0 SHL SUB MUL NOT AND SWAP1 DUP4 PUSH1 0x1 PUSH1 0x1 PUSH1 0xA0 SHL SUB AND MUL OR SWAP1 PUSH2 0x312 PUSH2 0xEFA JUMP JUMPDEST POP POP POP SWAP2 SWAP1 POP JUMP JUMPDEST PUSH1 0x2 PUSH2 0x27D PUSH2 0xE9A JUMP JUMPDEST PUSH1 0x0 PUSH2 0x32E PUSH2 0x65A JUMP JUMPDEST PUSH2 0x375 JUMPI PUSH1 0x40 MLOAD PUSH3 0x461BCD PUSH1 0xE5 SHL DUP2 MSTORE PUSH1 0x20 PUSH1 0x4 DUP3 ADD DUP2 SWAP1 MSTORE PUSH1 0x24 DUP3 ADD MSTORE PUSH1 0x0 DUP1 MLOAD PUSH1 0x20 PUSH2 0x11D2 DUP4 CODECOPY DUP2 MLOAD SWAP2 MSTORE PUSH1 0x44 DUP3 ADD MSTORE PUSH1 0x64 ADD PUSH1 0x40 MLOAD DUP1 SWAP2 SUB SWAP1 PUSH2 0x372 PUSH2 0xE2F JUMP JUMPDEST POP POP JUMPDEST DUP2 PUSH1 0x1 DUP1 DUP1 PUSH2 0x2F0 PUSH2 0xE9A JUMP JUMPDEST PUSH1 0x0 PUSH1 0x4 PUSH2 0x38E PUSH2 0xE9A JUMP JUMPDEST SWAP1 PUSH2 0x100 EXP SWAP1 DIV PUSH1 0x1 PUSH1 0x1 PUSH1 0xA0 SHL SUB AND DUP2 JUMP JUMPDEST PUSH1 0x0 DUP1 PUSH1 0x1 PUSH2 0x3AE PUSH2 0xE9A JUMP JUMPDEST SWAP1 PUSH2 0x100 EXP SWAP1 DIV PUSH1 0x1 PUSH1 0x1 PUSH1 0xA0 SHL SUB AND PUSH1 0x1 PUSH1 0x1 PUSH1 0xA0 SHL SUB AND GAS PUSH2 0x3D0 PUSH2 0xF48 JUMP JUMPDEST PUSH1 0x1 PUSH1 0x1 PUSH1 0xA0 SHL SUB AND EQ SWAP1 POP SWAP1 JUMP JUMPDEST PUSH1 0x0 PUSH1 0x1 PUSH2 0x38E PUSH2 0xE9A JUMP JUMPDEST PUSH1 0x0 PUSH2 0x3F5 PUSH2 0x65A JUMP JUMPDEST PUSH2 0x43C JUMPI PUSH1 0x40 MLOAD PUSH3 0x461BCD PUSH1 0xE5 SHL DUP2 MSTORE PUSH1 0x20 PUSH1 0x4 DUP3 ADD DUP2 SWAP1 MSTORE PUSH1 0x24 DUP3 ADD MSTORE PUSH1 0x0 DUP1 MLOAD PUSH1 0x20 PUSH2 0x11D2 DUP4 CODECOPY DUP2 MLOAD SWAP2 MSTORE PUSH1 0x44 DUP3 ADD MSTORE PUSH1 0x64 ADD PUSH1 0x40 MLOAD DUP1 SWAP2 SUB SWAP1 PUSH2 0x439 PUSH2 0xE2F JUMP JUMPDEST POP POP JUMPDEST DUP3 PUSH1 0x0 PUSH1 0x1 DUP2 PUSH2 0x44A PUSH2 0xE9A JUMP JUMPDEST DUP2 PUSH1 0x1 PUSH1 0x1 PUSH1 0xA0 SHL SUB MUL NOT AND SWAP1 DUP4 PUSH1 0x1 PUSH1 0x1 PUSH1 0xA0 SHL SUB AND MUL OR SWAP1 PUSH2 0x46C PUSH2 0xEFA JUMP JUMPDEST POP POP POP DUP2 PUSH1 0x1 PUSH1 0x0 PUSH2 0x100 EXP DUP2 PUSH2 0x481 PUSH2 0xE9A JUMP JUMPDEST DUP2 PUSH1 0x1 PUSH1 0x1 PUSH1 0xA0 SHL SUB MUL NOT AND SWAP1 DUP4 PUSH1 0x1 PUSH1 0x1 PUSH1 0xA0 SHL SUB AND MUL OR SWAP1 PUSH2 0x4A3 PUSH2 0xEFA JUMP JUMPDEST POP POP POP PUSH1 0x0 DUP1 SWAP1 PUSH2 0x4B2 PUSH2 0xE9A JUMP JUMPDEST SWAP1 PUSH2 0x100 EXP SWAP1 DIV PUSH1 0x1 PUSH1 0x1 PUSH1 0xA0 SHL SUB AND PUSH1 0x4 PUSH1 0x0 PUSH2 0x100 EXP DUP2 PUSH2 0x4D3 PUSH2 0xE9A JUMP JUMPDEST DUP2 PUSH1 0x1 PUSH1 0x1 PUSH1 0xA0 SHL SUB MUL NOT AND SWAP1 DUP4 PUSH1 0x1 PUSH1 0x1 PUSH1 0xA0 SHL SUB AND MUL OR SWAP1 PUSH2 0x4F5 PUSH2 0xEFA JUMP JUMPDEST POP POP POP PUSH1 0x4 PUSH1 0x0 SWAP1 PUSH2 0x505 PUSH2 0xE9A JUMP JUMPDEST SWAP1 PUSH2 0x100 EXP SWAP1 DIV PUSH1 0x1 PUSH1 0x1 PUSH1 0xA0 SHL SUB AND PUSH1 0x1 PUSH1 0x1 PUSH1 0xA0 SHL SUB AND PUSH4 0xCB4774F3 PUSH1 0x40 MLOAD DUP2 PUSH4 0xFFFFFFFF AND PUSH1 0xE0 SHL DUP2 MSTORE PUSH1 0x4 ADD PUSH1 0x20 PUSH1 0x40 MLOAD DUP1 DUP4 SUB DUP2 DUP7 DUP1 PUSH2 0x548 PUSH2 0xF8E JUMP JUMPDEST ISZERO DUP1 ISZERO PUSH2 0x55D JUMPI PUSH1 0x0 DUP1 PUSH2 0x55A PUSH2 0xE2F JUMP JUMPDEST POP POP JUMPDEST POP GAS PUSH2 0x567 PUSH2 0xFDA JUMP JUMPDEST POP POP POP POP POP ISZERO DUP1 ISZERO PUSH2 0x586 JUMPI RETURNDATASIZE PUSH1 0x0 DUP1 RETURNDATACOPY RETURNDATASIZE PUSH1 0x0 PUSH2 0x583 PUSH2 0xE2F JUMP JUMPDEST POP POP JUMPDEST POP POP POP POP PUSH1 0x40 MLOAD RETURNDATASIZE PUSH1 0x20 DUP2 LT ISZERO PUSH2 0x5A5 JUMPI PUSH1 0x0 DUP1 PUSH2 0x5A2 PUSH2 0xE2F JUMP JUMPDEST POP POP JUMPDEST DUP2 ADD SWAP1 DUP1 DUP1 MLOAD SWAP3 POP DUP3 SWAP2 POP PUSH1 0x5 SWAP1 POP PUSH2 0x5BC PUSH2 0xEFA JUMP JUMPDEST POP POP POP SWAP3 SWAP2 POP POP JUMP JUMPDEST PUSH1 0x0 PUSH2 0x5CF PUSH2 0x65A JUMP JUMPDEST PUSH2 0x616 JUMPI PUSH1 0x40 MLOAD PUSH3 0x461BCD PUSH1 0xE5 SHL DUP2 MSTORE PUSH1 0x20 PUSH1 0x4 DUP3 ADD DUP2 SWAP1 MSTORE PUSH1 0x24 DUP3 ADD MSTORE PUSH1 0x0 DUP1 MLOAD PUSH1 0x20 PUSH2 0x11D2 DUP4 CODECOPY DUP2 MLOAD SWAP2 MSTORE PUSH1 0x44 DUP3 ADD MSTORE PUSH1 0x64 ADD PUSH1 0x40 MLOAD DUP1 SWAP2 SUB SWAP1 PUSH2 0x613 PUSH2 0xE2F JUMP JUMPDEST POP POP JUMPDEST DUP2 DUP1 PUSH1 0x6 PUSH2 0x622 PUSH2 0xEFA JUMP JUMPDEST POP PUSH1 0x1 SWAP5 SWAP4 POP POP POP POP JUMP JUMPDEST PUSH1 0x0 DUP1 DUP1 PUSH2 0x639 PUSH2 0xE9A JUMP JUMPDEST SWAP1 PUSH2 0x100 EXP SWAP1 DIV PUSH1 0x1 PUSH1 0x1 PUSH1 0xA0 SHL SUB AND SWAP1 POP SWAP1 JUMP JUMPDEST PUSH1 0x0 PUSH1 0x3 PUSH2 0x38E PUSH2 0xE9A JUMP JUMPDEST PUSH1 0x0 DUP1 PUSH1 0x3 PUSH2 0x3AE PUSH2 0xE9A JUMP JUMPDEST PUSH1 0x0 PUSH2 0x671 PUSH2 0x3A1 JUMP JUMPDEST PUSH2 0x6CA JUMPI PUSH1 0x40 MLOAD PUSH3 0x461BCD PUSH1 0xE5 SHL DUP2 MSTORE PUSH1 0x20 PUSH1 0x4 DUP3 ADD DUP2 SWAP1 MSTORE PUSH1 0x24 DUP3 ADD MSTORE PUSH32 0x43616C6C6572206973206E6F74207468652052756269636F6E204D61726B6574 PUSH1 0x44 DUP3 ADD MSTORE PUSH1 0x64 ADD PUSH1 0x40 MLOAD DUP1 SWAP2 SUB SWAP1 PUSH2 0x6C7 PUSH2 0xE2F JUMP JUMPDEST POP POP JUMPDEST GAS PUSH2 0x6D3 PUSH2 0x10C5 JUMP JUMPDEST PUSH1 0x5 PUSH2 0x6DD PUSH2 0xE9A JUMP JUMPDEST LT PUSH2 0x722 JUMPI PUSH1 0x40 MLOAD PUSH3 0x461BCD PUSH1 0xE5 SHL DUP2 MSTORE PUSH1 0x4 ADD DUP1 DUP1 PUSH1 0x20 ADD DUP3 DUP2 SUB DUP3 MSTORE PUSH1 0x24 DUP2 MSTORE PUSH1 0x20 ADD DUP1 PUSH2 0x11F2 PUSH1 0x24 SWAP2 CODECOPY PUSH1 0x40 ADD SWAP2 POP POP PUSH1 0x40 MLOAD DUP1 SWAP2 SUB SWAP1 PUSH2 0x71F PUSH2 0xE2F JUMP JUMPDEST POP POP JUMPDEST PUSH1 0x1 PUSH1 0x1 PUSH1 0xA0 SHL SUB DUP3 AND PUSH2 0x77D JUMPI PUSH1 0x40 MLOAD PUSH3 0x461BCD PUSH1 0xE5 SHL DUP2 MSTORE PUSH1 0x20 PUSH1 0x4 DUP3 ADD MSTORE PUSH1 0x15 PUSH1 0x24 DUP3 ADD MSTORE PUSH21 0x74616B6572206973207A65726F2061646472657373 PUSH1 0x58 SHL PUSH1 0x44 DUP3 ADD MSTORE PUSH1 0x64 ADD PUSH1 0x40 MLOAD DUP1 SWAP2 SUB SWAP1 PUSH2 0x77A PUSH2 0xE2F JUMP JUMPDEST POP POP JUMPDEST PUSH1 0x1 PUSH1 0x1 PUSH1 0xA0 SHL SUB DUP4 AND PUSH2 0x7D8 JUMPI PUSH1 0x40 MLOAD PUSH3 0x461BCD PUSH1 0xE5 SHL DUP2 MSTORE PUSH1 0x20 PUSH1 0x4 DUP3 ADD MSTORE PUSH1 0x15 PUSH1 0x24 DUP3 ADD MSTORE PUSH21 0x6D616B6572206973207A65726F2061646472657373 PUSH1 0x58 SHL PUSH1 0x44 DUP3 ADD MSTORE PUSH1 0x64 ADD PUSH1 0x40 MLOAD DUP1 SWAP2 SUB SWAP1 PUSH2 0x7D5 PUSH2 0xE2F JUMP JUMPDEST POP POP JUMPDEST PUSH1 0x0 PUSH1 0x4 PUSH2 0x7E4 PUSH2 0xE9A JUMP JUMPDEST SWAP1 PUSH2 0x100 EXP SWAP1 DIV PUSH1 0x1 PUSH1 0x1 PUSH1 0xA0 SHL SUB AND PUSH1 0x1 PUSH1 0x1 PUSH1 0xA0 SHL SUB AND PUSH4 0xC0198AC4 PUSH1 0x40 MLOAD DUP2 PUSH4 0xFFFFFFFF AND PUSH1 0xE0 SHL DUP2 MSTORE PUSH1 0x4 ADD PUSH1 0x20 PUSH1 0x40 MLOAD DUP1 DUP4 SUB DUP2 DUP7 DUP1 PUSH2 0x827 PUSH2 0xF8E JUMP JUMPDEST ISZERO DUP1 ISZERO PUSH2 0x83C JUMPI PUSH1 0x0 DUP1 PUSH2 0x839 PUSH2 0xE2F JUMP JUMPDEST POP POP JUMPDEST POP GAS PUSH2 0x846 PUSH2 0xFDA JUMP JUMPDEST POP POP POP POP POP ISZERO DUP1 ISZERO PUSH2 0x865 JUMPI RETURNDATASIZE PUSH1 0x0 DUP1 RETURNDATACOPY RETURNDATASIZE PUSH1 0x0 PUSH2 0x862 PUSH2 0xE2F JUMP JUMPDEST POP POP JUMPDEST POP POP POP POP PUSH1 0x40 MLOAD RETURNDATASIZE PUSH1 0x20 DUP2 LT ISZERO PUSH2 0x884 JUMPI PUSH1 0x0 DUP1 PUSH2 0x881 PUSH2 0xE2F JUMP JUMPDEST POP POP JUMPDEST DUP2 ADD SWAP1 DUP1 DUP1 MLOAD SWAP3 POP POP POP GAS PUSH2 0x897 PUSH2 0x10C5 JUMP JUMPDEST GT ISZERO PUSH2 0x8EE JUMPI PUSH1 0x40 MLOAD PUSH3 0x461BCD PUSH1 0xE5 SHL DUP2 MSTORE PUSH1 0x20 PUSH1 0x4 DUP3 ADD MSTORE PUSH1 0x19 PUSH1 0x24 DUP3 ADD MSTORE PUSH25 0x292121A7102234B9BA3934B13ABA34B7B71034B99037BB32B9 PUSH1 0x39 SHL PUSH1 0x44 DUP3 ADD MSTORE PUSH1 0x64 ADD PUSH1 0x40 MLOAD DUP1 SWAP2 SUB SWAP1 PUSH2 0x8EB PUSH2 0xE2F JUMP JUMPDEST POP POP JUMPDEST PUSH1 0x0 PUSH2 0x90B GAS PUSH2 0x8FC PUSH2 0x10C5 JUMP JUMPDEST PUSH1 0x5 PUSH2 0x906 PUSH2 0xE9A JUMP JUMPDEST PUSH2 0xBAE JUMP JUMPDEST SWAP1 POP PUSH1 0x0 PUSH1 0x64 DUP2 PUSH1 0x4 PUSH2 0x91C PUSH2 0xE9A JUMP JUMPDEST SWAP1 PUSH2 0x100 EXP SWAP1 DIV PUSH1 0x1 PUSH1 0x1 PUSH1 0xA0 SHL SUB AND PUSH1 0x1 PUSH1 0x1 PUSH1 0xA0 SHL SUB AND PUSH4 0x44D5437D PUSH1 0x40 MLOAD DUP2 PUSH4 0xFFFFFFFF AND PUSH1 0xE0 SHL DUP2 MSTORE PUSH1 0x4 ADD PUSH1 0x20 PUSH1 0x40 MLOAD DUP1 DUP4 SUB DUP2 DUP7 DUP1 PUSH2 0x95F PUSH2 0xF8E JUMP JUMPDEST ISZERO DUP1 ISZERO PUSH2 0x974 JUMPI PUSH1 0x0 DUP1 PUSH2 0x971 PUSH2 0xE2F JUMP JUMPDEST POP POP JUMPDEST POP GAS PUSH2 0x97E PUSH2 0xFDA JUMP JUMPDEST POP POP POP POP POP ISZERO DUP1 ISZERO PUSH2 0x99D JUMPI RETURNDATASIZE PUSH1 0x0 DUP1 RETURNDATACOPY RETURNDATASIZE PUSH1 0x0 PUSH2 0x99A PUSH2 0xE2F JUMP JUMPDEST POP POP JUMPDEST POP POP POP POP PUSH1 0x40 MLOAD RETURNDATASIZE PUSH1 0x20 DUP2 LT ISZERO PUSH2 0x9BC JUMPI PUSH1 0x0 DUP1 PUSH2 0x9B9 PUSH2 0xE2F JUMP JUMPDEST POP POP JUMPDEST DUP2 ADD SWAP1 DUP1 DUP1 MLOAD SWAP3 POP DUP6 SWAP2 POP PUSH2 0x9D1 SWAP1 POP PUSH2 0x280 JUMP JUMPDEST MUL MUL DUP2 PUSH2 0x9DA JUMPI INVALID JUMPDEST DIV SWAP1 POP PUSH1 0x0 PUSH1 0x64 DUP2 PUSH1 0x4 PUSH2 0x9EC PUSH2 0xE9A JUMP JUMPDEST SWAP1 PUSH2 0x100 EXP SWAP1 DIV PUSH1 0x1 PUSH1 0x1 PUSH1 0xA0 SHL SUB AND PUSH1 0x1 PUSH1 0x1 PUSH1 0xA0 SHL SUB AND PUSH4 0x44D5437D PUSH1 0x40 MLOAD DUP2 PUSH4 0xFFFFFFFF AND PUSH1 0xE0 SHL DUP2 MSTORE PUSH1 0x4 ADD PUSH1 0x20 PUSH1 0x40 MLOAD DUP1 DUP4 SUB DUP2 DUP7 DUP1 PUSH2 0xA2F PUSH2 0xF8E JUMP JUMPDEST ISZERO DUP1 ISZERO PUSH2 0xA44 JUMPI PUSH1 0x0 DUP1 PUSH2 0xA41 PUSH2 0xE2F JUMP JUMPDEST POP POP JUMPDEST POP GAS PUSH2 0xA4E PUSH2 0xFDA JUMP JUMPDEST POP POP POP POP POP ISZERO DUP1 ISZERO PUSH2 0xA6D JUMPI RETURNDATASIZE PUSH1 0x0 DUP1 RETURNDATACOPY RETURNDATASIZE PUSH1 0x0 PUSH2 0xA6A PUSH2 0xE2F JUMP JUMPDEST POP POP JUMPDEST POP POP POP POP PUSH1 0x40 MLOAD RETURNDATASIZE PUSH1 0x20 DUP2 LT ISZERO PUSH2 0xA8C JUMPI PUSH1 0x0 DUP1 PUSH2 0xA89 PUSH2 0xE2F JUMP JUMPDEST POP POP JUMPDEST DUP2 ADD SWAP1 DUP1 DUP1 MLOAD SWAP3 POP DUP7 SWAP2 POP PUSH2 0xAA1 SWAP1 POP PUSH2 0x280 JUMP JUMPDEST PUSH1 0x64 SUB MUL MUL DUP2 PUSH2 0xAAD JUMPI INVALID JUMPDEST DIV SWAP1 POP PUSH2 0xABA DUP7 DUP4 PUSH2 0xC0B JUMP JUMPDEST PUSH2 0xB12 JUMPI PUSH1 0x40 MLOAD PUSH3 0x461BCD PUSH1 0xE5 SHL DUP2 MSTORE PUSH1 0x20 PUSH1 0x4 DUP3 ADD MSTORE PUSH1 0x1C PUSH1 0x24 DUP3 ADD MSTORE PUSH28 0x191A5CDD1C9A589D5D1A5BDB881D1BC81B585AD95C8819985A5B1959 PUSH1 0x22 SHL PUSH1 0x44 DUP3 ADD MSTORE PUSH1 0x64 ADD PUSH1 0x40 MLOAD DUP1 SWAP2 SUB SWAP1 PUSH2 0xB0F PUSH2 0xE2F JUMP JUMPDEST POP POP JUMPDEST PUSH2 0xB1C DUP6 DUP3 PUSH2 0xC0B JUMP JUMPDEST PUSH2 0xB74 JUMPI PUSH1 0x40 MLOAD PUSH3 0x461BCD PUSH1 0xE5 SHL DUP2 MSTORE PUSH1 0x20 PUSH1 0x4 DUP3 ADD MSTORE PUSH1 0x1C PUSH1 0x24 DUP3 ADD MSTORE PUSH28 0x191A5CDD1C9A589D5D1A5BDB881D1BC81D185AD95C8819985A5B1959 PUSH1 0x22 SHL PUSH1 0x44 DUP3 ADD MSTORE PUSH1 0x64 ADD PUSH1 0x40 MLOAD DUP1 SWAP2 SUB SWAP1 PUSH2 0xB71 PUSH2 0xE2F JUMP JUMPDEST POP POP JUMPDEST GAS PUSH2 0xB7D PUSH2 0x10C5 JUMP JUMPDEST DUP1 PUSH1 0x5 PUSH2 0xB88 PUSH2 0xEFA JUMP JUMPDEST POP POP POP PUSH1 0x1 SWAP4 POP POP POP POP JUMPDEST SWAP3 SWAP2 POP POP JUMP JUMPDEST PUSH1 0x6 PUSH2 0x27D PUSH2 0xE9A JUMP JUMPDEST PUSH1 0x0 DUP1 PUSH2 0x38E PUSH2 0xE9A JUMP JUMPDEST DUP1 DUP3 SUB DUP3 DUP2 GT ISZERO PUSH2 0xB93 JUMPI PUSH1 0x40 MLOAD PUSH3 0x461BCD PUSH1 0xE5 SHL DUP2 MSTORE PUSH1 0x20 PUSH1 0x4 DUP3 ADD MSTORE PUSH1 0x15 PUSH1 0x24 DUP3 ADD MSTORE PUSH21 0x64732D6D6174682D7375622D756E646572666C6F77 PUSH1 0x58 SHL PUSH1 0x44 DUP3 ADD MSTORE PUSH1 0x64 ADD PUSH1 0x40 MLOAD DUP1 SWAP2 SUB SWAP1 PUSH2 0xC03 PUSH2 0xE2F JUMP JUMPDEST POP POP SWAP3 SWAP2 POP POP JUMP JUMPDEST PUSH1 0x0 DUP1 PUSH1 0x1 PUSH2 0xC18 PUSH2 0xE9A JUMP JUMPDEST SWAP1 PUSH2 0x100 EXP SWAP1 DIV PUSH1 0x1 PUSH1 0x1 PUSH1 0xA0 SHL SUB AND PUSH1 0x1 PUSH1 0x1 PUSH1 0xA0 SHL SUB AND GAS PUSH2 0xC3A PUSH2 0xF48 JUMP JUMPDEST PUSH1 0x1 PUSH1 0x1 PUSH1 0xA0 SHL SUB AND EQ PUSH2 0xC9C JUMPI PUSH1 0x40 MLOAD PUSH3 0x461BCD PUSH1 0xE5 SHL DUP2 MSTORE PUSH1 0x20 PUSH1 0x4 DUP3 ADD MSTORE PUSH1 0x1C PUSH1 0x24 DUP3 ADD MSTORE PUSH28 0x18D85B1B195C881A5CC81B9BDD08149D589A58DBDB8813585C9AD95D PUSH1 0x22 SHL PUSH1 0x44 DUP3 ADD MSTORE PUSH1 0x64 ADD PUSH1 0x40 MLOAD DUP1 SWAP2 SUB SWAP1 PUSH2 0xC99 PUSH2 0xE2F JUMP JUMPDEST POP POP JUMPDEST PUSH1 0x0 PUSH1 0x4 PUSH2 0xCA8 PUSH2 0xE9A JUMP JUMPDEST SWAP1 PUSH2 0x100 EXP SWAP1 DIV PUSH1 0x1 PUSH1 0x1 PUSH1 0xA0 SHL SUB AND PUSH1 0x1 PUSH1 0x1 PUSH1 0xA0 SHL SUB AND PUSH4 0xA9059CBB DUP5 DUP5 PUSH1 0x40 MLOAD PUSH1 0x1 PUSH1 0x1 PUSH1 0xE0 SHL SUB NOT PUSH1 0xE0 DUP6 SWAP1 SHL AND DUP2 MSTORE PUSH1 0x1 PUSH1 0x1 PUSH1 0xA0 SHL SUB SWAP1 SWAP3 AND PUSH1 0x4 DUP4 ADD MSTORE PUSH1 0x24 DUP3 ADD MSTORE PUSH1 0x44 ADD PUSH1 0x20 PUSH1 0x40 MLOAD DUP1 DUP4 SUB DUP2 PUSH1 0x0 DUP8 DUP1 PUSH2 0xD09 PUSH2 0xF8E JUMP JUMPDEST ISZERO DUP1 ISZERO PUSH2 0xD1E JUMPI PUSH1 0x0 DUP1 PUSH2 0xD1B PUSH2 0xE2F JUMP JUMPDEST POP POP JUMPDEST POP GAS PUSH2 0xD28 PUSH2 0x110B JUMP JUMPDEST POP POP POP POP POP POP ISZERO DUP1 ISZERO PUSH2 0xD48 JUMPI RETURNDATASIZE PUSH1 0x0 DUP1 RETURNDATACOPY RETURNDATASIZE PUSH1 0x0 PUSH2 0xD45 PUSH2 0xE2F JUMP JUMPDEST POP POP JUMPDEST POP POP POP POP PUSH1 0x40 MLOAD RETURNDATASIZE PUSH1 0x20 DUP2 LT ISZERO PUSH2 0xD67 JUMPI PUSH1 0x0 DUP1 PUSH2 0xD64 PUSH2 0xE2F JUMP JUMPDEST POP POP JUMPDEST DUP2 ADD SWAP1 DUP1 DUP1 MLOAD SWAP3 POP PUSH2 0xDC5 SWAP2 POP POP JUMPI PUSH1 0x40 MLOAD PUSH3 0x461BCD PUSH1 0xE5 SHL DUP2 MSTORE PUSH1 0x20 PUSH1 0x4 DUP3 ADD MSTORE PUSH1 0x17 PUSH1 0x24 DUP3 ADD MSTORE PUSH23 0x1D1C985B9CD9995C881BD988149090D38819985A5B1959 PUSH1 0x4A SHL PUSH1 0x44 DUP3 ADD MSTORE PUSH1 0x64 ADD PUSH1 0x40 MLOAD DUP1 SWAP2 SUB SWAP1 PUSH2 0xDC2 PUSH2 0xE2F JUMP JUMPDEST POP POP JUMPDEST PUSH32 0xA8EE3E5C0B1FD681042265199E8B28CF463B81BC21F6658D4C73E741AEABD3F5 DUP4 DUP4 GAS PUSH2 0xDF1 PUSH2 0x10C5 JUMP JUMPDEST PUSH1 0x40 MLOAD DUP1 DUP5 PUSH1 0x1 PUSH1 0x1 PUSH1 0xA0 SHL SUB AND PUSH1 0x1 PUSH1 0x1 PUSH1 0xA0 SHL SUB AND DUP2 MSTORE PUSH1 0x20 ADD DUP4 DUP2 MSTORE PUSH1 0x20 ADD DUP3 DUP2 MSTORE PUSH1 0x20 ADD SWAP4 POP POP POP POP PUSH1 0x40 MLOAD DUP1 SWAP2 SUB SWAP1 LOG1 POP PUSH1 0x1 SWAP3 SWAP2 POP POP JUMP JUMPDEST PUSH4 0x2A2A7ADB MSIZE DUP2 PUSH1 0xE0 SHL DUP2 MSTORE PUSH1 0x4 DUP2 ADD PUSH1 0x20 DUP2 MSTORE DUP6 PUSH1 0x20 DUP3 ADD MSTORE PUSH1 0x0 JUMPDEST DUP7 DUP2 LT ISZERO PUSH2 0xE67 JUMPI DUP1 DUP7 ADD MLOAD DUP3 DUP3 ADD PUSH1 0x40 ADD MSTORE PUSH1 0x20 ADD PUSH2 0xE4C JUMP JUMPDEST POP PUSH1 0x20 DUP3 DUP8 PUSH1 0x64 ADD DUP5 CALLER PUSH1 0x0 SWAP1 GAS CALL PC PUSH1 0x1D ADD JUMPI RETURNDATASIZE PUSH1 0x1 EQ PC PUSH1 0xC ADD JUMPI RETURNDATASIZE PUSH1 0x0 DUP1 RETURNDATACOPY RETURNDATASIZE PUSH3 0x123456 MSTORE PUSH1 0xEA PUSH2 0x109C MSTORE POP POP POP JUMP JUMPDEST PUSH4 0x3DAA959 MSIZE DUP2 PUSH1 0xE0 SHL DUP2 MSTORE DUP4 PUSH1 0x4 DUP3 ADD MSTORE PUSH1 0x20 DUP2 PUSH1 0x24 DUP4 CALLER PUSH1 0x0 SWAP1 GAS CALL PC PUSH1 0x1D ADD JUMPI RETURNDATASIZE PUSH1 0x1 EQ PC PUSH1 0xC ADD JUMPI RETURNDATASIZE PUSH1 0x0 DUP1 RETURNDATACOPY RETURNDATASIZE PUSH3 0x123456 MSTORE PUSH1 0xEA PUSH2 0x109C MSTORE DUP1 MLOAD SWAP4 POP PUSH1 0x0 JUMPDEST PUSH1 0x40 DUP2 LT ISZERO PUSH2 0xEF5 JUMPI PUSH1 0x0 DUP3 DUP3 ADD MSTORE PUSH1 0x20 ADD PUSH2 0xEDE JUMP JUMPDEST POP POP POP JUMP JUMPDEST PUSH4 0x22BD64C0 MSIZE DUP2 PUSH1 0xE0 SHL DUP2 MSTORE DUP4 PUSH1 0x4 DUP3 ADD MSTORE DUP5 PUSH1 0x24 DUP3 ADD MSTORE PUSH1 0x0 DUP2 PUSH1 0x44 DUP4 CALLER PUSH1 0x0 SWAP1 GAS CALL PC PUSH1 0x1D ADD JUMPI RETURNDATASIZE PUSH1 0x1 EQ PC PUSH1 0xC ADD JUMPI RETURNDATASIZE PUSH1 0x0 DUP1 RETURNDATACOPY RETURNDATASIZE PUSH3 0x123456 MSTORE PUSH1 0xEA PUSH2 0x109C MSTORE PUSH1 0x0 DUP2 MSTORE PUSH1 0x20 PUSH2 0xEDE JUMP JUMPDEST PUSH4 0x73509064 MSIZE DUP2 PUSH1 0xE0 SHL DUP2 MSTORE PUSH1 0x20 DUP2 PUSH1 0x4 DUP4 CALLER PUSH1 0x0 SWAP1 GAS CALL PC PUSH1 0x1D ADD JUMPI RETURNDATASIZE PUSH1 0x1 EQ PC PUSH1 0xC ADD JUMPI RETURNDATASIZE PUSH1 0x0 DUP1 RETURNDATACOPY RETURNDATASIZE PUSH3 0x123456 MSTORE PUSH1 0xEA PUSH2 0x109C MSTORE DUP1 MLOAD PUSH1 0x0 DUP3 MSTORE SWAP4 POP PUSH1 0x20 PUSH2 0xEDE JUMP JUMPDEST PUSH4 0x8435035B MSIZE DUP2 PUSH1 0xE0 SHL DUP2 MSTORE DUP4 PUSH1 0x4 DUP3 ADD MSTORE PUSH1 0x20 DUP2 PUSH1 0x24 DUP4 CALLER PUSH1 0x0 SWAP1 GAS CALL PC PUSH1 0x1D ADD JUMPI RETURNDATASIZE PUSH1 0x1 EQ PC PUSH1 0xC ADD JUMPI RETURNDATASIZE PUSH1 0x0 DUP1 RETURNDATACOPY RETURNDATASIZE PUSH3 0x123456 MSTORE PUSH1 0xEA PUSH2 0x109C MSTORE DUP1 MLOAD PUSH1 0x0 DUP3 MSTORE SWAP4 POP PUSH1 0x20 PUSH2 0xEDE JUMP JUMPDEST PUSH4 0x8540661F MSIZE DUP2 PUSH1 0xE0 SHL DUP2 MSTORE PUSH2 0x100B JUMP JUMPDEST DUP1 DUP1 DUP4 GT ISZERO PUSH2 0xB93 JUMPI POP SWAP1 SWAP2 SWAP1 POP JUMP JUMPDEST DUP1 DUP1 DUP4 LT ISZERO PUSH2 0xB93 JUMPI POP SWAP1 SWAP2 SWAP1 POP JUMP JUMPDEST DUP4 PUSH1 0x4 DUP3 ADD MSTORE DUP5 PUSH1 0x24 DUP3 ADD MSTORE PUSH1 0x60 PUSH1 0x44 DUP3 ADD MSTORE DUP7 PUSH1 0x64 DUP3 ADD MSTORE PUSH1 0x84 DUP2 ADD PUSH1 0x0 JUMPDEST DUP9 DUP2 LT ISZERO PUSH2 0x1043 JUMPI DUP1 DUP9 ADD MLOAD DUP3 DUP3 ADD MSTORE PUSH1 0x20 ADD PUSH2 0x102B JUMP JUMPDEST POP PUSH1 0x60 DUP3 DUP10 PUSH1 0xA4 ADD DUP5 CALLER PUSH1 0x0 SWAP1 GAS CALL PC PUSH1 0x1D ADD JUMPI RETURNDATASIZE PUSH1 0x1 EQ PC PUSH1 0xC ADD JUMPI RETURNDATASIZE PUSH1 0x0 DUP1 RETURNDATACOPY RETURNDATASIZE PUSH3 0x123456 MSTORE PUSH1 0xEA PUSH2 0x109C MSTORE DUP2 MLOAD PUSH1 0x40 DUP4 ADD MLOAD RETURNDATASIZE PUSH1 0x0 DUP6 RETURNDATACOPY DUP12 DUP12 DUP3 PUSH1 0x60 DUP8 ADD CALLER POP PUSH1 0x0 PUSH1 0x4 GAS CALL POP MSIZE PUSH2 0x1098 DUP14 RETURNDATASIZE PUSH2 0xFFB JUMP JUMPDEST DUP13 ADD PUSH2 0x10A4 DUP2 DUP8 PUSH2 0xFEB JUMP JUMPDEST JUMPDEST DUP3 DUP2 LT ISZERO PUSH2 0x10B9 JUMPI PUSH1 0x0 DUP2 MSTORE PUSH1 0x20 ADD PUSH2 0x10A5 JUMP JUMPDEST POP SWAP3 SWAP13 POP POP POP POP POP POP POP JUMP JUMPDEST PUSH4 0xBDBF8C36 MSIZE DUP2 PUSH1 0xE0 SHL DUP2 MSTORE PUSH1 0x20 DUP2 PUSH1 0x4 DUP4 CALLER PUSH1 0x0 SWAP1 GAS CALL PC PUSH1 0x1D ADD JUMPI RETURNDATASIZE PUSH1 0x1 EQ PC PUSH1 0xC ADD JUMPI RETURNDATASIZE PUSH1 0x0 DUP1 RETURNDATACOPY RETURNDATASIZE PUSH3 0x123456 MSTORE PUSH1 0xEA PUSH2 0x109C MSTORE DUP1 MLOAD PUSH1 0x0 DUP3 MSTORE SWAP4 POP PUSH1 0x20 PUSH2 0xEDE JUMP JUMPDEST PUSH4 0x85979F76 MSIZE DUP2 PUSH1 0xE0 SHL DUP2 MSTORE DUP4 PUSH1 0x4 DUP3 ADD MSTORE DUP5 PUSH1 0x24 DUP3 ADD MSTORE PUSH1 0x60 PUSH1 0x44 DUP3 ADD MSTORE DUP8 PUSH1 0x64 DUP3 ADD MSTORE PUSH1 0x84 DUP2 ADD PUSH1 0x0 JUMPDEST DUP10 DUP2 LT ISZERO PUSH2 0x114F JUMPI DUP1 DUP10 ADD MLOAD DUP3 DUP3 ADD MSTORE PUSH1 0x20 ADD PUSH2 0x1137 JUMP JUMPDEST POP PUSH1 0x60 DUP3 DUP11 PUSH1 0xA4 ADD DUP5 CALLER PUSH1 0x0 SWAP1 GAS CALL PC PUSH1 0x1D ADD JUMPI RETURNDATASIZE PUSH1 0x1 EQ PC PUSH1 0xC ADD JUMPI RETURNDATASIZE PUSH1 0x0 DUP1 RETURNDATACOPY RETURNDATASIZE PUSH3 0x123456 MSTORE PUSH1 0xEA PUSH2 0x109C MSTORE DUP2 MLOAD PUSH1 0x40 DUP4 ADD MLOAD RETURNDATASIZE PUSH1 0x0 DUP6 RETURNDATACOPY DUP13 DUP13 DUP3 PUSH1 0x60 DUP8 ADD CALLER POP PUSH1 0x0 PUSH1 0x4 GAS CALL POP MSIZE PUSH2 0x11A4 DUP15 RETURNDATASIZE PUSH2 0xFFB JUMP JUMPDEST DUP14 ADD PUSH2 0x11B0 DUP2 DUP8 PUSH2 0xFEB JUMP JUMPDEST JUMPDEST DUP3 DUP2 LT ISZERO PUSH2 0x11C5 JUMPI PUSH1 0x0 DUP2 MSTORE PUSH1 0x20 ADD PUSH2 0x11B1 JUMP JUMPDEST POP SWAP3 SWAP14 POP POP POP POP POP POP POP JUMP INVALID 0x4F PUSH24 0x6E61626C653A2063616C6C6572206973206E6F7420746865 KECCAK256 PUSH16 0x776E657274696D654F664C6173745242 NUMBER 0x4E DIFFICULTY PUSH10 0x7374203C20626C6F636B 0x2E PUSH21 0x696D657374616D7000000000000000000000000000 "
        },
        "gasEstimates": {
          "creation": {
            "codeDepositCost": "926000",
            "executionCost": "infinite",
            "totalCost": "infinite"
          },
          "external": {
            "RBCN()": "infinite",
            "RBCNAddress()": "infinite",
            "RubiconMarketAddress()": "infinite",
            "distributeToMakerAndTaker(address,address)": "infinite",
            "distributionDuration()": "infinite",
            "getPropToMakers()": "infinite",
            "getRBCNAddress()": "infinite",
            "isExchange()": "infinite",
            "isOwner()": "infinite",
            "owner()": "infinite",
            "propToMakers()": "infinite",
            "setDistributionParams(address,address)": "infinite",
            "setNewExchange(address)": "infinite",
            "setOwner(address)": "infinite",
            "setPropToMakers(uint256)": "infinite",
            "timeOfLastRBCNDist()": "infinite"
          },
          "internal": {
            "distributeGovernanceToken(address,uint256)": "infinite",
            "sub(uint256,uint256)": "infinite"
          }
        },
        "methodIdentifiers": {
          "RBCN()": "5794a68a",
          "RBCNAddress()": "d6c3bf2c",
          "RubiconMarketAddress()": "60f71b24",
          "distributeToMakerAndTaker(address,address)": "b30ed7b3",
          "distributionDuration()": "1d156dcf",
          "getPropToMakers()": "114eb4db",
          "getRBCNAddress()": "8cce6851",
          "isExchange()": "58cb0340",
          "isOwner()": "8f32d59b",
          "owner()": "8da5cb5b",
          "propToMakers()": "c3a4b81f",
          "setDistributionParams(address,address)": "82f107e0",
          "setNewExchange(address)": "540907bb",
          "setOwner(address)": "13af4035",
          "setPropToMakers(uint256)": "8aadb371",
          "timeOfLastRBCNDist()": "05a695c5"
        }
      },
      "storageLayout": {
        "storage": [
          {
            "astId": 4,
            "contract": "contracts/Aqueduct.sol:Aqueduct",
            "label": "RBCNAddress",
            "offset": 0,
            "slot": "0",
            "type": "t_address"
          },
          {
            "astId": 6,
            "contract": "contracts/Aqueduct.sol:Aqueduct",
            "label": "RubiconMarketAddress",
            "offset": 0,
            "slot": "1",
            "type": "t_address"
          },
          {
            "astId": 8,
            "contract": "contracts/Aqueduct.sol:Aqueduct",
            "label": "distributionDuration",
            "offset": 0,
            "slot": "2",
            "type": "t_uint256"
          },
          {
            "astId": 10,
            "contract": "contracts/Aqueduct.sol:Aqueduct",
            "label": "owner",
            "offset": 0,
            "slot": "3",
            "type": "t_address"
          },
          {
            "astId": 12,
            "contract": "contracts/Aqueduct.sol:Aqueduct",
            "label": "RBCN",
            "offset": 0,
            "slot": "4",
            "type": "t_contract(RBCNInterface)390"
          },
          {
            "astId": 14,
            "contract": "contracts/Aqueduct.sol:Aqueduct",
            "label": "timeOfLastRBCNDist",
            "offset": 0,
            "slot": "5",
            "type": "t_uint256"
          },
          {
            "astId": 16,
            "contract": "contracts/Aqueduct.sol:Aqueduct",
            "label": "propToMakers",
            "offset": 0,
            "slot": "6",
            "type": "t_uint256"
          }
        ],
        "types": {
          "t_address": {
            "encoding": "inplace",
            "label": "address",
            "numberOfBytes": "20"
          },
          "t_contract(RBCNInterface)390": {
            "encoding": "inplace",
            "label": "contract RBCNInterface",
            "numberOfBytes": "20"
          },
          "t_uint256": {
            "encoding": "inplace",
            "label": "uint256",
            "numberOfBytes": "32"
          }
        }
      },
      "userdoc": {
        "methods": {}
      }
    }
  }
}