{
  "_format": "hh-sol-artifact-1",
  "contractName": "BathHouse",
  "sourceName": "contracts/rubiconPoolsv0/BathHouse.sol",
  "abi": [
    {
      "constant": true,
      "inputs": [],
      "name": "RubiconMarketAddress",
      "outputs": [
        {
          "internalType": "address",
          "name": "",
          "type": "address"
        }
      ],
      "payable": false,
      "stateMutability": "view",
      "type": "function"
    },
    {
      "constant": true,
      "inputs": [],
      "name": "admin",
      "outputs": [
        {
          "internalType": "address",
          "name": "",
          "type": "address"
        }
      ],
      "payable": false,
      "stateMutability": "view",
      "type": "function"
    },
    {
      "constant": true,
      "inputs": [
        {
          "internalType": "uint256",
          "name": "",
          "type": "uint256"
        }
      ],
      "name": "allBathPairs",
      "outputs": [
        {
          "internalType": "address",
          "name": "",
          "type": "address"
        }
      ],
      "payable": false,
      "stateMutability": "view",
      "type": "function"
    },
    {
      "constant": false,
      "inputs": [
        {
          "internalType": "address",
          "name": "strategy",
          "type": "address"
        }
      ],
      "name": "approveStrategy",
      "outputs": [
        {
          "internalType": "bool",
          "name": "",
          "type": "bool"
        }
      ],
      "payable": false,
      "stateMutability": "nonpayable",
      "type": "function"
    },
    {
      "constant": true,
      "inputs": [
        {
          "internalType": "address",
          "name": "quote",
          "type": "address"
        }
      ],
      "name": "doesQuoteExist",
      "outputs": [
        {
          "internalType": "bool",
          "name": "",
          "type": "bool"
        }
      ],
      "payable": false,
      "stateMutability": "view",
      "type": "function"
    },
    {
      "constant": true,
      "inputs": [
        {
          "internalType": "address",
          "name": "asset",
          "type": "address"
        },
        {
          "internalType": "address",
          "name": "quote",
          "type": "address"
        }
      ],
      "name": "getBathPair",
      "outputs": [
        {
          "internalType": "address",
          "name": "pair",
          "type": "address"
        }
      ],
      "payable": false,
      "stateMutability": "view",
      "type": "function"
    },
    {
      "constant": true,
      "inputs": [
        {
          "internalType": "address",
          "name": "",
          "type": "address"
        },
        {
          "internalType": "address",
          "name": "",
          "type": "address"
        }
      ],
      "name": "getPair",
      "outputs": [
        {
          "internalType": "address",
          "name": "",
          "type": "address"
        }
      ],
      "payable": false,
      "stateMutability": "view",
      "type": "function"
    },
    {
      "constant": false,
      "inputs": [
        {
          "internalType": "address",
          "name": "asset",
          "type": "address"
        },
        {
          "internalType": "string",
          "name": "assetName",
          "type": "string"
        },
        {
          "internalType": "address",
          "name": "quote",
          "type": "address"
        },
        {
          "internalType": "string",
          "name": "quoteName",
          "type": "string"
        },
        {
          "internalType": "uint256",
          "name": "_reserveRatio",
          "type": "uint256"
        },
        {
          "internalType": "uint256",
          "name": "_timeDelay",
          "type": "uint256"
        },
        {
          "internalType": "uint256",
          "name": "_maxOutstandingPairCount",
          "type": "uint256"
        }
      ],
      "name": "initBathPair",
      "outputs": [
        {
          "internalType": "address",
          "name": "newPair",
          "type": "address"
        }
      ],
      "payable": false,
      "stateMutability": "nonpayable",
      "type": "function"
    },
    {
      "constant": false,
      "inputs": [
        {
          "internalType": "address",
          "name": "market",
          "type": "address"
        }
      ],
      "name": "initialize",
      "outputs": [],
      "payable": false,
      "stateMutability": "nonpayable",
      "type": "function"
    },
    {
      "constant": true,
      "inputs": [],
      "name": "initialized",
      "outputs": [
        {
          "internalType": "bool",
          "name": "",
          "type": "bool"
        }
      ],
      "payable": false,
      "stateMutability": "view",
      "type": "function"
    },
    {
      "constant": true,
      "inputs": [
        {
          "internalType": "address",
          "name": "pair",
          "type": "address"
        }
      ],
      "name": "isApprovedPair",
      "outputs": [
        {
          "internalType": "bool",
          "name": "",
          "type": "bool"
        }
      ],
      "payable": false,
      "stateMutability": "view",
      "type": "function"
    },
    {
      "constant": true,
      "inputs": [
        {
          "internalType": "address",
          "name": "strategy",
          "type": "address"
        }
      ],
      "name": "isApprovedStrat",
      "outputs": [
        {
          "internalType": "bool",
          "name": "",
          "type": "bool"
        }
      ],
      "payable": false,
      "stateMutability": "view",
      "type": "function"
    },
    {
      "constant": true,
      "inputs": [],
      "name": "name",
      "outputs": [
        {
          "internalType": "string",
          "name": "",
          "type": "string"
        }
      ],
      "payable": false,
      "stateMutability": "view",
      "type": "function"
    },
    {
      "constant": true,
      "inputs": [
        {
          "internalType": "address",
          "name": "quote",
          "type": "address"
        }
      ],
      "name": "quoteToBathQuoteCheck",
      "outputs": [
        {
          "internalType": "address",
          "name": "",
          "type": "address"
        }
      ],
      "payable": false,
      "stateMutability": "view",
      "type": "function"
    },
    {
      "constant": false,
      "inputs": [
        {
          "internalType": "address",
          "name": "bathPair",
          "type": "address"
        },
        {
          "internalType": "uint256",
          "name": "value",
          "type": "uint256"
        }
      ],
      "name": "setCancelTimeDelay",
      "outputs": [],
      "payable": false,
      "stateMutability": "nonpayable",
      "type": "function"
    },
    {
      "constant": false,
      "inputs": [
        {
          "internalType": "address",
          "name": "bathPair",
          "type": "address"
        },
        {
          "internalType": "uint256",
          "name": "value",
          "type": "uint256"
        }
      ],
      "name": "setMaxOutstandingPairCount",
      "outputs": [],
      "payable": false,
      "stateMutability": "nonpayable",
      "type": "function"
    }
  ],
  "bytecode": "0x608060405260405160408082019052601281527152756269636f6e204261746820486f75736560701b602082015260009080516200004292916020019062000062565b503480156200005b576000806200005862000111565b50505b506200025c565b82806200006e6200017e565b600181600116156101000203166002900490600052602060002090601f016020900481019282601f10620000b957805160ff19168380011785620000b1620001e0565b5050620000ff565b82800160010185620000ca620001e0565b50508215620000ff579182015b82811115620000ff57825182620000ed620001e0565b505091602001919060010190620000d7565b506200010d9291506200022f565b5090565b632a2a7adb598160e01b8152600481016020815285602082015260005b868110156200014b5780860151828201604001526020016200012e565b506020828760640184336000905af158600e01573d6000803e3d6000fd5b3d6001141558600a015760016000f35b505050565b6303daa959598160e01b8152836004820152602081602483336000905af158600e01573d6000803e3d6000fd5b3d6001141558600a015760016000f35b8051935060005b6040811015620001db57600082820152602001620001c2565b505050565b6322bd64c0598160e01b8152836004820152846024820152600081604483336000905af158600e01573d6000803e3d6000fd5b3d6001141558600a015760016000f35b600081526020620001c2565b6200025991905b808211156200010d57600080826200024d620001e0565b50505060010162000236565b90565b619dc6806200026c6000396000f3fe60806040523480156200001c576000806200001962000f43565b50505b5060043610620000ed5760003560e01c806301df192514620000fd57806306fdde031462000145578063158ef93e14620001c95780633b8ae39714620001d3578063418effd3146200020757806360f71b24146200024357806378d02345146200026957806386cbe02714620003a6578063b3d7480e14620003da578063bd1133c01462000416578063c4d66de81462000450578063ca3a86cd1462000484578063d45f3aea14620004b8578063e6a4390514620004ec578063f851a4401462000528578063fbb038f11462000532575b600080620000fa62000f43565b50505b620001316004803603602081101562000120576000806200011d62000f43565b50505b50356001600160a01b03166200055d565b604051901515815260200160405180910390f35b6200014f62000594565b60405160208082528190810183818151815260200191508051906020019080838360005b838110156200018d57808201518382015260200162000173565b50505050905090810190601f168015620001bb5780820380516001836020036101000a031916815260200191505b509250505060405180910390f35b6200013162000659565b6200013160048036036020811015620001f657600080620001f362000f43565b50505b50356001600160a01b031662000674565b62000241600480360360408110156200022a576000806200022762000f43565b50505b506001600160a01b0381351690602001356200070d565b005b6200024d620007f3565b6040516001600160a01b03909116815260200160405180910390f35b6200024d600480360360e08110156200028c576000806200028962000f43565b50505b6001600160a01b038235169190810190604081016020820135600160201b811115620002c257600080620002bf62000f43565b50505b820183602082011115620002e057600080620002dd62000f43565b50505b803590602001918460018302840111600160201b831117156200030d576000806200030a62000f43565b50505b919390926001600160a01b0383351692604081019060200135600160201b81111562000343576000806200034062000f43565b50505b82018360208201111562000361576000806200035e62000f43565b50505b803590602001918460018302840111600160201b831117156200038e576000806200038b62000f43565b50505b91935091508035906020810135906040013562000814565b6200013160048036036020811015620003c957600080620003c662000f43565b50505b50356001600160a01b031662000b6b565b6200024d60048036036040811015620003fd57600080620003fa62000f43565b50505b506001600160a01b038135811691602001351662000bb9565b620002416004803603604081101562000439576000806200043662000f43565b50505b506001600160a01b03813516906020013562000c10565b620002416004803603602081101562000473576000806200047062000f43565b50505b50356001600160a01b031662000ca7565b6200013160048036036020811015620004a757600080620004a462000f43565b50505b50356001600160a01b031662000d83565b6200024d60048036036020811015620004db57600080620004d862000f43565b50505b50356001600160a01b031662000da8565b6200024d600480360360408110156200050f576000806200050c62000f43565b50505b506001600160a01b038135811691602001351662000de4565b6200024d62000e0e565b6200024d6004803603602081101562000555576000806200055262000f43565b50505b503562000e1c565b6001600160a01b03811660009081526007602052604081206000906200058262000fb0565b906101000a900460ff1690505b919050565b600080620005a162000fb0565b600181600116156101000203166002900480601f016020809104026020016040519081016040528181529190602083018280620005dd62000fb0565b60018160011615610100020316600290048015620006515780601f106200061c5761010080836200060d62000fb0565b04028352916020019162000651565b820191906000526020600020905b816200063562000fb0565b815290600101906020018083116200062a57829003601f168201915b505050505081565b600060096200066762000fb0565b906101000a900460ff1681565b60008060036200068362000fb0565b906101000a90046001600160a01b03166001600160a01b03165a620006a762001012565b6001600160a01b031614620006c657600080620006c362000f43565b50505b6001600160a01b0382166000908152600560205260019060409020600181620006ee62000fb0565b8160ff021916908315150217906200070562001059565b505050919050565b600060036200071b62000fb0565b906101000a90046001600160a01b03166001600160a01b03165a6200073f62001012565b6001600160a01b0316146200075e576000806200075b62000f43565b50505b816001600160a01b0316635a7a5cbc826040516001600160e01b031960e084901b168152600481019190915260240160006040518083038160008780620007a4620010a8565b158015620007bc57600080620007b962000f43565b50505b505a620007c8620010f5565b505050505050158015620007eb573d6000803e3d6000620007e862000f43565b50505b505050505050565b600060046200080162000fb0565b906101000a90046001600160a01b031681565b60008060036200082362000fb0565b906101000a90046001600160a01b03166001600160a01b03165a6200084762001012565b6001600160a01b03161462000866576000806200086362000f43565b50505b866001600160a01b03168a6001600160a01b0316141562000891576000806200088e62000f43565b50505b6001600160a01b038a16620008b057600080620008ad62000f43565b50505b6001600160a01b038716620008cf57600080620008cc62000f43565b50505b6001600160a01b038a1660009081526002602052604081206001600160a01b0389166000908152602091909152604090206000906200090d62000fb0565b906101000a90046001600160a01b03166001600160a01b0316146200093c576000806200093962000f43565b50505b6064841062000955576000806200095262000f43565b50505b603c84116200096e576000806200096b62000f43565b50505b60008a8a8a8a8a8a8660046200098362000fb0565b906101000a90046001600160a01b03168b8b8b604051620009a490620011eb565b6001600160a01b03808c16825288811660408301528516608082015260a0810184905260c0810183905260e08101829052610100602082018181529082018a90526060820161012083018c8c80828437600083820152601f01601f191690910184810383528981526020019050898980828437600083820152601f01601f19169091019d5060409c505050505050505050505050505180910390600062000a4a620011f9565b50508015801562000a6a573d6000803e3d600062000a6762000f43565b50505b50905080600180808062000a7d62000fb0565b01808262000a8a62001059565b505060009283529160001983019150602090209192910160018162000aae62000fb0565b816001600160a01b0302191690836001600160a01b031602179062000ad262001059565b5050506001600160a01b038c1660009081526002602052829150604090206001600160a01b038a1660009081526020919091526040902060018162000b1662000fb0565b816001600160a01b0302191690836001600160a01b031602179062000b3a62001059565b50505062000b488162000e4b565b62000b5d88826001600160a01b031662000e73565b9a9950505050505050505050565b6001600160a01b038116600090815260056020526040812060009062000b9062000fb0565b906101000a900460ff16151560011515141562000bb0575060016200058f565b5060006200058f565b6001600160a01b03821660009081526002602052604081206001600160a01b03831660009081526020919091526040902060009062000bf762000fb0565b906101000a90046001600160a01b031690505b92915050565b6000600362000c1e62000fb0565b906101000a90046001600160a01b03166001600160a01b03165a62000c4262001012565b6001600160a01b03161462000c615760008062000c5e62000f43565b50505b816001600160a01b031663023fa1d0826040516001600160e01b031960e084901b168152600481019190915260240160006040518083038160008780620007a4620010a8565b6000600962000cb562000fb0565b906101000a900460ff161562000cd55760008062000cd262000f43565b50505b5a62000ce062001012565b600360018162000cef62000fb0565b816001600160a01b0302191690836001600160a01b031602179062000d1362001059565b50505080600460006101000a8162000d2a62000fb0565b816001600160a01b0302191690836001600160a01b031602179062000d4e62001059565b5050506001600960006101000a8162000d6662000fb0565b8160ff0219169083151502179062000d7d62001059565b50505050565b6001600160a01b038116600090815260066020526040812060009062000b9062000fb0565b6001600160a01b038116600090815260086020526040812060009062000dcd62000fb0565b906101000a90046001600160a01b03169050919050565b60026020528160005260406000206020528060005260406000206000925090506200080162000fb0565b600060036200080162000fb0565b6001818162000e2a62000fb0565b811062000e3357fe5b90600052602060002001600091506200080162000fb0565b6001600160a01b038116600090815260066020526001906040902060018162000d6662000fb0565b6001600160a01b038216600090815260076020526040902060009062000e9862000fb0565b906101000a900460ff161562000eae5762000f3f565b6001600160a01b038216600090815260076020526001906040902060018162000ed662000fb0565b8160ff0219169083151502179062000eed62001059565b5050506001600160a01b0382166000908152600860205281906040902060018162000f1762000fb0565b816001600160a01b0302191690836001600160a01b031602179062000f3b62001059565b5050505b5050565b632a2a7adb598160e01b8152600481016020815285602082015260005b8681101562000f7d57808601518282016040015260200162000f60565b506020828760640184336000905af158600e01573d6000803e3d6000fd5b3d6001141558600a015760016000f35b505050565b6303daa959598160e01b8152836004820152602081602483336000905af158600e01573d6000803e3d6000fd5b3d6001141558600a015760016000f35b8051935060005b60408110156200100d5760008282015260200162000ff4565b505050565b6373509064598160e01b8152602081600483336000905af158600e01573d6000803e3d6000fd5b3d6001141558600a015760016000f35b8051600082529350602062000ff4565b6322bd64c0598160e01b8152836004820152846024820152600081604483336000905af158600e01573d6000803e3d6000fd5b3d6001141558600a015760016000f35b60008152602062000ff4565b638435035b598160e01b8152836004820152602081602483336000905af158600e01573d6000803e3d6000fd5b3d6001141558600a015760016000f35b8051600082529350602062000ff4565b6385979f76598160e01b815262001129565b808083111562000c0a575090919050565b808083101562000c0a575090919050565b836004820152846024820152606060448201528760648201526084810160005b898110156200116357808901518282015260200162001149565b506060828a60a40184336000905af158600e01573d6000803e3d6000fd5b3d6001141558600a015760016000f35b815160408301513d6000853e8c8c82606087013350600060045af15059620011ba8e3d62001118565b8d01620011c8818762001107565b5b82811015620011df5760008152602001620011c9565b50929d50505050505050565b618b47806200127f83390190565b6314aa2ff7598160e01b8152600481016020815286602082015260005b878110156200123357808701518282016040015260200162001216565b506020828860640184336000905af158600e01573d6000803e3d6000fd5b3d6001141558600a015760016000f35b8151965059825b8181101562000f3b57600081526020016200126856fe60806040523480156200001c57600080620000196200062c565b50505b5060405162008b4738038062008b478339810160408190526200003f9162000b17565b5a6200004a62000699565b600060018162000059620006f5565b816001600160a01b0302191690836001600160a01b03160217906200007d62000742565b50505060648311156200009a57600080620000976200062c565b50505b60008311620000b357600080620000b06200062c565b50505b82806007620000c162000742565b5050508160098190620000d362000742565b50505080600a8190620000e562000742565b50505087600160006101000a81620000fc620006f5565b816001600160a01b0302191690836001600160a01b03160217906200012062000742565b50505085600260006101000a8162000137620006f5565b816001600160a01b0302191690836001600160a01b03160217906200015b62000742565b50505060006040516200016e9062000791565b604051809103906000620001816200079f565b505080158015620001a1573d6000803e3d60006200019e6200062c565b50505b509050806001600160a01b031663f34822b489604051602001620001c6919062000d08565b6040516020818303038152906040528b8860008090620001e5620006f5565b906101000a90046001600160a01b03166040518563ffffffff1660e01b815260040162000216949392919062000d3a565b600060405180830381600087806200022d6200082b565b1580156200024557600080620002426200062c565b50505b505a6200025162000878565b50505050505015801562000274573d6000803e3d6000620002716200062c565b50505b5050505080600360006101000a816200028c620006f5565b816001600160a01b0302191690836001600160a01b0316021790620002b062000742565b50505060008090620002c1620006f5565b906101000a90046001600160a01b03166001600160a01b03166301df1925886040518263ffffffff1660e01b8152600401620002fe919062000d2a565b6020604051808303818680620003136200082b565b1580156200032b57600080620003286200062c565b50505b505a6200033762000970565b505050505015801562000359573d6000803e3d6000620003566200062c565b50505b50505050604051601f3d908101601f191682016040526200037e919081019062000c29565b156200048f576000808062000392620006f5565b906101000a90046001600160a01b03166001600160a01b031663d45f3aea896040518263ffffffff1660e01b8152600401620003cf919062000d2a565b6020604051808303818680620003e46200082b565b158015620003fc57600080620003f96200062c565b50505b505a6200040862000970565b50505050501580156200042a573d6000803e3d6000620004276200062c565b50505b50505050604051601f3d908101601f191682016040526200044f919081019062000ae3565b905080600460018162000461620006f5565b816001600160a01b0302191690836001600160a01b03160217906200048562000742565b50505050620005e6565b60006040516200049f9062000791565b604051809103906000620004b26200079f565b505080158015620004d2573d6000803e3d6000620004cf6200062c565b50505b509050806001600160a01b031663f34822b488604051602001620004f7919062000d08565b6040516020818303038152906040528a896000809062000516620006f5565b906101000a90046001600160a01b03166040518563ffffffff1660e01b815260040162000547949392919062000d3a565b600060405180830381600087806200055e6200082b565b1580156200057657600080620005736200062c565b50505b505a6200058262000878565b505050505050158015620005a5573d6000803e3d6000620005a26200062c565b50505b5050505080600460006101000a81620005bd620006f5565b816001600160a01b0302191690836001600160a01b0316021790620005e162000742565b505050505b846005600181620005f6620006f5565b816001600160a01b0302191690836001600160a01b03160217906200061a62000742565b50505050505050505050505062000ea9565b632a2a7adb598160e01b8152600481016020815285602082015260005b868110156200066657808601518282016040015260200162000649565b506020828760640184336000905af158600e01573d6000803e3d6000fd5b3d6001141558600a015760016000f35b505050565b6373509064598160e01b8152602081600483336000905af158600e01573d6000803e3d6000fd5b3d6001141558600a015760016000f35b8051935060005b6040811015620006f057600082820152602001620006d7565b505050565b6303daa959598160e01b8152836004820152602081602483336000905af158600e01573d6000803e3d6000fd5b3d6001141558600a015760016000f35b80516000825293506020620006d7565b6322bd64c0598160e01b8152836004820152846024820152600081604483336000905af158600e01573d6000803e3d6000fd5b3d6001141558600a015760016000f35b600081526020620006d7565b612b18806200602f83390190565b6314aa2ff7598160e01b8152600481016020815286602082015260005b87811015620007d9578087015182820160400152602001620007bc565b506020828860640184336000905af158600e01573d6000803e3d6000fd5b3d6001141558600a015760016000f35b8151965059825b818110156200082457600081526020016200080e565b5050505050565b638435035b598160e01b8152836004820152602081602483336000905af158600e01573d6000803e3d6000fd5b3d6001141558600a015760016000f35b80516000825293506020620006d7565b6385979f76598160e01b8152620008ae565b8080831115620008975750815b92915050565b808083101562000897575090919050565b836004820152846024820152606060448201528760648201526084810160005b89811015620008e8578089015182820152602001620008ce565b506060828a60a40184336000905af158600e01573d6000803e3d6000fd5b3d6001141558600a015760016000f35b815160408301513d6000853e8c8c82606087013350600060045af150596200093f8e3d6200089d565b8d016200094d81876200088a565b5b828110156200096457600081526020016200094e565b50929d50505050505050565b638540661f598160e01b8152836004820152846024820152606060448201528660648201526084810160005b88811015620009b65780880151828201526020016200099c565b506060828960a40184336000905af158600e01573d6000803e3d6000fd5b3d6001141558600a015760016000f35b815160408301513d6000853e8b8b82606087013350600060045af1505962000a0d8d3d6200089d565b8c0162000a1b81876200088a565b5b8281101562000a32576000815260200162000a1c565b50929c50505050505050565b600081519050620008978162000e71565b600081519050620008978162000e93565b600082601f83011262000a7d5760008062000a7a6200062c565b50505b815162000a9462000a8e8262000dbb565b62000d85565b9150808252602083016020830185838301111562000abc5760008062000ab96200062c565b50505b62000ac983828462000e34565b50505092915050565b600081519050620008978162000e9e565b60006020828403121562000b015760008062000afe6200062c565b50505b600062000b0f848462000a3e565b949350505050565b600080600080600080600080610100898b03121562000b405760008062000b3d6200062c565b50505b600062000b4e8b8b62000a3e565b98505060208901516001600160401b0381111562000b765760008062000b736200062c565b50505b62000b848b828c0162000a60565b975050604062000b978b828c0162000a3e565b96505060608901516001600160401b0381111562000bbf5760008062000bbc6200062c565b50505b62000bcd8b828c0162000a60565b955050608062000be08b828c0162000a3e565b94505060a062000bf38b828c0162000ad2565b93505060c062000c068b828c0162000ad2565b92505060e062000c198b828c0162000ad2565b9150509295985092959890939650565b60006020828403121562000c475760008062000c446200062c565b50505b600062000b0f848462000a4f565b62000c608162000e06565b82525050565b62000c608162000e27565b600062000c7e8262000dee565b62000c8a818562000df8565b935062000c9c81856020860162000e34565b62000ca78162000e67565b9093019392505050565b600062000cbe8262000dee565b62000cca818562000e01565b935062000cdc81856020860162000e34565b9290920192915050565b600062000cf560048362000e01565b630c4c2e8d60e31b815260040192915050565b600062000d158262000ce6565b915062000d23828462000cb1565b9392505050565b6020810162000897828462000c55565b6080808252810162000d4d818762000c71565b905062000d5e602083018662000c66565b62000d6d604083018562000c55565b62000d7c606083018462000c55565b95945050505050565b600060405190508181018181106001600160401b038211171562000db35760008062000db06200062c565b50505b604052919050565b60006001600160401b0382111562000ddd5760008062000dda6200062c565b50505b506020601f91909101601f19160190565b6000815192915050565b90815260200190565b919050565b6000620008978262000e18565b151590565b6001600160a01b031690565b90565b6000620008978262000e06565b60005b8381101562000e5157808201518382015260200162000e37565b8381111562000e61576000848401525b50505050565b601f01601f191690565b62000e7c8162000e06565b811462000e9057600080620006f06200062c565b50565b62000e7c8162000e13565b62000e7c8162000e24565b6151768062000eb96000396000f3fe6080604052348015610019576000806100166141ad565b50505b50600436106101105760003560e01c8063023fa1d01461011e5780630c7d5cd8146101335780630d4741581461015157806332bdd13c146101645780633c4fc85d1461018d57806357556172146101955780635a7a5cbc146101a857806360c38b28146101bb57806360f71b24146101d0578063613e8993146101d8578063649fb7c3146101e057806364ae722a146101f35780637158da7c1461020657806371a4188b1461020e5780637d1c98fa146102215780638f259e451461023457806398ef30411461023c578063a7001d2314610244578063ac4d352014610257578063af07acb21461025f578063c9dec36114610267575b60008061011b6141ad565b50505b61013161012c3660046147f3565b61026f565b005b61013b6102ca565b604051610148919061503e565b60405180910390f35b61013b61015f3660046148ab565b6102d7565b6101776101723660046147f3565b610311565b6040516101489a99989796959493929190614dea565b610131610416565b6101316101a33660046147a5565b6108c4565b6101316101b63660046147f3565b6109f9565b6101c3610a4e565b6040516101489190614d4a565b6101c3610a6c565b6101c3610a78565b6101c36101ee3660046147f3565b610a84565b610131610201366004614727565b610a9e565b6101c3611707565b61013b61021c3660046146b5565b611713565b61013b61022f3660046146b5565b61172b565b61013b611743565b6101c361174d565b61013b6102523660046146e4565b611759565b61013b611cee565b6101c3611cf8565b61013b611d04565b60008061027a614218565b906101000a90046001600160a01b03166001600160a01b03165a61029c614273565b6001600160a01b0316146102b8576000806102b56141ad565b50505b808060096102c46142b9565b50505050565b60076102d4614218565b81565b600682816102e3614218565b81106102eb57fe5b9060005260206000209060030201816003811061030457fe5b0191506102d49050614218565b600e818161031d614218565b811061032557fe5b906000526020600020600d909102019050600081610341614218565b906101000a90046001600160a01b03169080600101600090610361614218565b906101000a90046001600160a01b03169080600201600090610381614218565b906101000a90046001600160a01b031690806003016000906103a1614218565b906101000a90046001600160a01b031690806004016103be614218565b90806005016103cb614218565b90806006016103d8614218565b90806007016103e5614218565b906000600882016103f4614218565b906101000a90046001600160a01b03169080600901610411614218565b90508a565b6000600c60005a610425614273565b6001600160a01b03166001600160a01b0316815260200190815260200160002061044d614218565b90506000600d60005a61045e614273565b6001600160a01b03166001600160a01b03168152602001908152602001600020610486614218565b905081156106a4576000600f61049a614218565b600060016104a6614218565b906101000a90046001600160a01b03166001600160a01b03166370a082315a63996d79a5598160e01b8152602081600483336000905af158600e01573d6000803e3d6000fd5b3d6001141558600a015760016000f35b8051925060005b604081101561051a57600082820152602001610503565b5050506040518263ffffffff1660e01b81526004016105399190614d4a565b602060405180830381868061054c614307565b1580156105615760008061055e6141ad565b50505b505a61056b614353565b505050505015801561058a573d6000803e3d60006105876141ad565b50505b50505050604051601f3d908101601f191682016040526105ad919081019061481a565b8402816105b657fe5b049050600060016105c5614218565b906101000a90046001600160a01b03166001600160a01b031663a9059cbb5a6105ec614273565b836040518363ffffffff1660e01b815260040161060a929190614d58565b6020604051808303816000878061061f614307565b158015610634576000806106316141ad565b50505b505a61063e61443e565b50505050505015801561065e573d6000803e3d600061065b6141ad565b50505b50505050604051601f3d908101601f1916820160405261068191908101906147cc565b5082600f60008282610691614218565b03925050819061069f6142b9565b505050505b80156108c057600060106106b6614218565b600060026106c2614218565b906101000a90046001600160a01b03166001600160a01b03166370a082315a63996d79a5598160e01b8152602081600483336000905af158600e01573d6000803e3d6000fd5b3d6001141558600a015760016000f35b8051925060005b60408110156107365760008282015260200161071f565b5050506040518263ffffffff1660e01b81526004016107559190614d4a565b6020604051808303818680610768614307565b15801561077d5760008061077a6141ad565b50505b505a610787614353565b50505050501580156107a6573d6000803e3d60006107a36141ad565b50505b50505050604051601f3d908101601f191682016040526107c9919081019061481a565b8302816107d257fe5b049050600060026107e1614218565b906101000a90046001600160a01b03166001600160a01b031663a9059cbb5a610808614273565b836040518363ffffffff1660e01b8152600401610826929190614d58565b6020604051808303816000878061083b614307565b1580156108505760008061084d6141ad565b50505b505a61085a61443e565b50505050505015801561087a573d6000803e3d60006108776141ad565b50505b50505050604051601f3d908101601f1916820160405261089d91908101906147cc565b50816010600082826108ad614218565b0392505081906108bb6142b9565b505050505b5050565b5a6108cd614273565b6000806108d8614218565b906101000a90046001600160a01b03166001600160a01b03166386cbe027826040518263ffffffff1660e01b81526004016109139190614d4a565b6020604051808303818680610926614307565b15801561093b576000806109386141ad565b50505b505a610945614353565b5050505050158015610964573d6000803e3d60006109616141ad565b50505b50505050604051601f3d908101601f1916820160405261098791908101906147cc565b15156001146109ba5760405162461bcd60e51b81526004016109a890614eff565b604051809103906109b76141ad565b50505b816006806001816109c9614218565b0180826109d46142b9565b5050600092835291600019830191506020902091926102c49260039283020191614504565b600080610a04614218565b906101000a90046001600160a01b03166001600160a01b03165a610a26614273565b6001600160a01b031614610a4257600080610a3f6141ad565b50505b8080600a6102c46142b9565b600080610a59614218565b906101000a90046001600160a01b031681565b60006005610a59614218565b60006002610a59614218565b600b60205280600052604060002060009150610a59614218565b84600080610aaa614218565b906101000a90046001600160a01b03166001600160a01b03166386cbe027826040518263ffffffff1660e01b8152600401610ae59190614d4a565b6020604051808303818680610af8614307565b158015610b0d57600080610b0a6141ad565b50505b505a610b17614353565b5050505050158015610b36573d6000803e3d6000610b336141ad565b50505b50505050604051601f3d908101601f19168201604052610b5991908101906147cc565b1515600114610b8c5760405162461bcd60e51b8152600401610b7a90614eff565b60405180910390610b896141ad565b50505b60006001610b98614218565b6001600160a01b036101009290920a9004166370a0823160006003610bbb614218565b906101000a90046001600160a01b03166040518263ffffffff1660e01b8152600401610be79190614d4a565b6020604051808303818680610bfa614307565b158015610c0f57600080610c0c6141ad565b50505b505a610c19614353565b5050505050158015610c38573d6000803e3d6000610c356141ad565b50505b50505050604051601f3d908101601f19168201604052610c5b919081019061481a565b60646007610c67614218565b60006003610c73614218565b906101000a90046001600160a01b03166001600160a01b03166318160ddd6040518163ffffffff1660e01b81526004016020604051808303818680610cb6614307565b158015610ccb57600080610cc86141ad565b50505b505a610cd5614353565b5050505050158015610cf4573d6000803e3d6000610cf16141ad565b50505b50505050604051601f3d908101601f19168201604052610d17919081019061481a565b0281610d1f57fe5b041115610d3457600080610d316141ad565b50505b60006002610d40614218565b6001600160a01b036101009290920a9004166370a0823160006004610d63614218565b906101000a90046001600160a01b03166040518263ffffffff1660e01b8152600401610d8f9190614d4a565b6020604051808303818680610da2614307565b158015610db757600080610db46141ad565b50505b505a610dc1614353565b5050505050158015610de0573d6000803e3d6000610ddd6141ad565b50505b50505050604051601f3d908101601f19168201604052610e03919081019061481a565b60646007610e0f614218565b60006004610e1b614218565b906101000a90046001600160a01b03166001600160a01b03166318160ddd6040518163ffffffff1660e01b81526004016020604051808303818680610e5e614307565b158015610e7357600080610e706141ad565b50505b505a610e7d614353565b5050505050158015610e9c573d6000803e3d6000610e996141ad565b50505b50505050604051601f3d908101601f19168201604052610ebf919081019061481a565b0281610ec757fe5b041115610edc57600080610ed96141ad565b50505b600085118015610eec5750600084115b8015610ef85750600083115b8015610f045750600082115b610f1657600080610f136141ad565b50505b610f5760006001610f25614218565b906101000a90046001600160a01b03166003600090610f42614218565b906101000a90046001600160a01b0316611759565b851115610f885760405162461bcd60e51b8152600401610f769061501e565b60405180910390610f856141ad565b50505b610fb460006002610f97614218565b906101000a90046001600160a01b03166004600090610f42614218565b831115610fe55760405162461bcd60e51b8152600401610fd390614fae565b60405180910390610fe26141ad565b50505b610ff185858585611d0e565b6001600160a01b038616639958525f6000600161100c614218565b906101000a90046001600160a01b03166003600090611029614218565b906101000a90046001600160a01b03166002600090611046614218565b906101000a90046001600160a01b03166004600090611063614218565b906101000a90046001600160a01b03168a8a8a8a6040518963ffffffff1660e01b815260040161109a989796959493929190614d73565b600060405180830381600087806110af614307565b1580156110c4576000806110c16141ad565b50505b505a6110ce61443e565b5050505050501580156110ee573d6000803e3d60006110eb6141ad565b50505b50505050600e6040516101608101604052806000600161110c614218565b6001600160a01b036101009290920a90041681526020016000600361112f614218565b6001600160a01b036101009290920a900416815260200160006002611152614218565b6001600160a01b036101009290920a900416815260200160006004611175614218565b906101000a90046001600160a01b03166001600160a01b031681526020018781526020018681526020018581526020018481526020015a6111b4614273565b6001600160a01b031681526020015a6111cb61454b565b81526020016111d8611fc6565b905290806001816111e7614218565b0180826111f26142b9565b50506000928352916000198301915060209020919291600d9091020181518160018161121c614218565b816001600160a01b0302191690836001600160a01b031602179061123e6142b9565b505050602082015160018083019081611255614218565b816001600160a01b0302191690836001600160a01b03160217906112776142b9565b50505060408201516002820160018161128e614218565b816001600160a01b0302191690836001600160a01b03160217906112b06142b9565b5050506060820151600382016001816112c7614218565b816001600160a01b0302191690836001600160a01b03160217906112e96142b9565b5050506080820151816004016112fd6142b9565b505060a0820151816005016113106142b9565b505060c0820151816006016113236142b9565b505060e0820151816007016113366142b9565b50506101008201516008820160018161134d614218565b816001600160a01b0302191690836001600160a01b031602179061136f6142b9565b505050610120820151816009016113846142b9565b505061014082015161139c90600a8301906003614591565b505050506113a8612093565b6113b0612975565b600060016113bc614218565b6001600160a01b036101009290920a9004166370a08231600060036113df614218565b906101000a90046001600160a01b03166040518263ffffffff1660e01b815260040161140b9190614d4a565b602060405180830381868061141e614307565b158015611433576000806114306141ad565b50505b505a61143d614353565b505050505015801561145c573d6000803e3d60006114596141ad565b50505b50505050604051601f3d908101601f1916820160405261147f919081019061481a565b6064600761148b614218565b60006003611497614218565b906101000a90046001600160a01b03166001600160a01b03166318160ddd6040518163ffffffff1660e01b815260040160206040518083038186806114da614307565b1580156114ef576000806114ec6141ad565b50505b505a6114f9614353565b5050505050158015611518573d6000803e3d60006115156141ad565b50505b50505050604051601f3d908101601f1916820160405261153b919081019061481a565b028161154357fe5b041115611558576000806115556141ad565b50505b60006002611564614218565b6001600160a01b036101009290920a9004166370a0823160006004611587614218565b906101000a90046001600160a01b03166040518263ffffffff1660e01b81526004016115b39190614d4a565b60206040518083038186806115c6614307565b1580156115db576000806115d86141ad565b50505b505a6115e5614353565b5050505050158015611604573d6000803e3d60006116016141ad565b50505b50505050604051601f3d908101601f19168201604052611627919081019061481a565b60646007611633614218565b6000600461163f614218565b906101000a90046001600160a01b03166001600160a01b03166318160ddd6040518163ffffffff1660e01b81526004016020604051808303818680611682614307565b158015611697576000806116946141ad565b50505b505a6116a1614353565b50505050501580156116c0573d6000803e3d60006116bd6141ad565b50505b50505050604051601f3d908101601f191682016040526116e3919081019061481a565b02816116eb57fe5b0411156108bb576000806116fd6141ad565b5050505050505050565b60006001610a59614218565b600d60205280600052604060002090506102d4614218565b600c60205280600052604060002090506102d4614218565b600a6102d4614218565b60006003610a59614218565b6000806001611766614218565b906101000a90046001600160a01b03166001600160a01b0316836001600160a01b031614806117c157506000600261179c614218565b906101000a90046001600160a01b03166001600160a01b0316836001600160a01b0316145b6117d3576000806117d06141ad565b50505b603260006001600160a01b0385166370a08231856040518263ffffffff1660e01b81526004016118039190614d4a565b6020604051808303818680611816614307565b15801561182b576000806118286141ad565b50505b505a611835614353565b5050505050158015611854573d6000803e3d60006118516141ad565b50505b50505050604051601f3d908101601f19168201604052611877919081019061481a565b9050600080516020615116833981519152816040516118969190614f5e565b60405180910390a1600080516020615116833981519152600060026118b9614218565b6001600160a01b036101009290920a9004166370a08231600060046118dc614218565b906101000a90046001600160a01b03166040518263ffffffff1660e01b81526004016119089190614d4a565b602060405180830381868061191b614307565b1580156119305760008061192d6141ad565b50505b505a61193a614353565b5050505050158015611959573d6000803e3d60006119566141ad565b50505b50505050604051601f3d908101601f1916820160405261197c919081019061481a565b6040516119899190614fee565b60405180910390a160006119a16004196103e8612f4e565b9050600080516020615136833981519152816040516119c09190614ffe565b60405180910390a1600060016119d4614218565b906101000a90046001600160a01b03166001600160a01b0316866001600160a01b03161415611c38576000611ad683826002611a0e614218565b6001600160a01b036101009290920a9004166370a0823160006004611a31614218565b906101000a90046001600160a01b03166040518263ffffffff1660e01b8152600401611a5d9190614d4a565b6020604051808303818680611a70614307565b158015611a8557600080611a826141ad565b50505b505a611a8f614353565b5050505050158015611aae573d6000803e3d6000611aab6141ad565b50505b50505050604051601f3d908101601f19168201604052611ad1919081019061481a565b612fba565b905060008051602061513683398151915281604051611af59190614f1f565b60405180910390a1600160401b611b1382611b0e613000565b613262565b600f0b1315611b5457600080516020615116833981519152606485850204604051611b3e9190614f4e565b60405180910390a1505060649102049050611ce8565b60648385020460008051602061511683398151915281604051611b779190614f7e565b60405180910390a16000611b94611b8c61329e565b611ad16132a5565b905060008051602061513683398151915281604051611bb39190614fce565b60405180910390a16000611bcf611bca8686613262565b6132ac565b905060008051602061513683398151915281604051611bee9190614fde565b60405180910390a16000611c028285613310565b905060008051602061511683398151915281604051611c219190614f3e565b60405180910390a19750611ce89650505050505050565b60006002611c44614218565b906101000a90046001600160a01b03166001600160a01b0316866001600160a01b03161415611ce4576000611ca183826001611c7e614218565b6001600160a01b036101009290920a9004166370a0823160006003611a31614218565b9050600160401b611cb982611cb4613000565b612f4e565b600f0b1315611b5457600080516020615116833981519152606485850204604051611b3e9190614ed0565b5050505b92915050565b60086102d4614218565b60006004610a59614218565b60096102d4614218565b82820281850210611d435760405162461bcd60e51b8152600401611d3190614f9e565b60405180910390611d406141ad565b50505b6000806005611d50614218565b6001600160a01b036101009290920a900416630374fc6f60006001611d73614218565b906101000a90046001600160a01b03166002600090611d90614218565b906101000a90046001600160a01b03166040518363ffffffff1660e01b8152600401611dbd929190614eb5565b6020604051808303818680611dd0614307565b158015611de557600080611de26141ad565b50505b505a611def614353565b5050505050158015611e0e573d6000803e3d6000611e0b6141ad565b50505b50505050604051601f3d908101601f19168201604052611e31919081019061481a565b90506000806005611e40614218565b6001600160a01b036101009290920a900416630374fc6f60006002611e63614218565b906101000a90046001600160a01b03166001600090611e80614218565b906101000a90046001600160a01b03166040518363ffffffff1660e01b8152600401611ead929190614eb5565b6020604051808303818680611ec0614307565b158015611ed557600080611ed26141ad565b50505b505a611edf614353565b5050505050158015611efe573d6000803e3d6000611efb6141ad565b50505b50505050604051601f3d908101601f19168201604052611f21919081019061481a565b9050611f2b6145c8565b611f3483613393565b9050611f3e6145c8565b611f4783613393565b9050868160400151028151890210611f835760405162461bcd60e51b8152600401611f7190614fbe565b60405180910390611f806141ad565b50505b8582604001510285835102106116fd5760405162461bcd60e51b8152600401611fab9061500e565b60405180910390611fba6141ad565b50505050505050505050565b611fce6145ee565b5a611fd761454b565b60066001600680611fe6614218565b90500381611ff2614218565b8110611ffa57fe5b906000526020600020600390910201600201612014614218565b14612027576000806120246141ad565b50505b60066001600680612036614218565b90500381612042614218565b811061204a57fe5b90600052602060002060039182020190606060405190810160405291906060830182845b81612077614218565b8152602001906001019080831161206e57505050505090505b90565b600a61209d614218565b6006806120a8614218565b9050106120d95760405162461bcd60e51b81526004016120c790614eef565b604051809103906120d66141ad565b50505b60005b6006806120e7614218565b9050811015612971576120f86145c8565b61212f60068381612107614218565b811061210f57fe5b90600052602060002060039091020160005b0161212a614218565b613393565b90506121396145c8565b61216660068481612148614218565b811061215057fe5b9060005260206000206003909102016001612121565b905081511580156121845750600060208301516001600160a01b0316145b801561219257508160400151155b80156121ab5750600060608301516001600160a01b0316145b80156121f957508051158015906121d05750600060208201516001600160a01b031614155b80156121df5750806040015115155b80156121f95750600060608201516001600160a01b031614155b15612392576000600461220a614218565b906101000a90046001600160a01b03166001600160a01b03166340e58ee560068581612234614218565b811061223c57fe5b906000526020600020600390910201600101612256614218565b6040518263ffffffff1660e01b8152600401612272919061503e565b60006040518083038160008780612287614307565b15801561229c576000806122996141ad565b50505b505a6122a661443e565b5050505050501580156122c6573d6000803e3d60006122c36141ad565b50505b50505050600080516020615156833981519152600684816122e5614218565b81106122ed57fe5b906000526020600020600390910201600101612307614218565b8360200151845160405161231d9392919061504c565b60405180910390a160068381612331614218565b811061233957fe5b9060005260206000206123519160030201600061460a565b61238a60068481612360614218565b811061236857fe5b90600052602060002060039091020160005b01612383614218565b600061349f565b505050612973565b8151158015906123b05750600060208301516001600160a01b031614155b80156123bf5750816040015115155b80156123d95750600060208301516001600160a01b031614155b8015612423575080511580156123fc5750600060208201516001600160a01b0316145b801561240a57508060400151155b80156124235750600060608201516001600160a01b0316145b156125b05760006003612434614218565b906101000a90046001600160a01b03166001600160a01b03166340e58ee56006858161245e614218565b811061246657fe5b9060005260206000206003919091020161247e614218565b6040518263ffffffff1660e01b815260040161249a919061503e565b600060405180830381600087806124af614307565b1580156124c4576000806124c16141ad565b50505b505a6124ce61443e565b5050505050501580156124ee573d6000803e3d60006124eb6141ad565b50505b505050506000805160206151568339815191526006848161250d614218565b811061251557fe5b9060005260206000206003919091020161252d614218565b826020015183516040516125439392919061504c565b60405180910390a160068381612557614218565b811061255f57fe5b9060005260206000206125779160030201600061460a565b61238a60068481612586614218565b811061258e57fe5b90600052602060002060039091020160015b016125a9614218565b600161349f565b8151158015906125ce5750600060208301516001600160a01b031614155b80156125dd5750816040015115155b80156125f75750600060208301516001600160a01b031614155b8015612645575080511580159061261c5750600060208201516001600160a01b031614155b801561262b5750806040015115155b80156126455750600060608201516001600160a01b031614155b15612967576009612654614218565b5a61265d61454b565b036006848161266a614218565b811061267257fe5b90600052602060002060039091020160020161268c614218565b101561290d576000600361269e614218565b906101000a90046001600160a01b03166001600160a01b03166340e58ee5600685816126c8614218565b81106126d057fe5b906000526020600020600391909102016126e8614218565b6040518263ffffffff1660e01b8152600401612704919061503e565b60006040518083038160008780612719614307565b15801561272e5760008061272b6141ad565b50505b505a61273861443e565b505050505050158015612758573d6000803e3d60006127556141ad565b50505b5050505060008051602061515683398151915260068481612777614218565b811061277f57fe5b90600052602060002060039190910201612797614218565b826020015183516040516127ad9392919061504c565b60405180910390a1600060036127c1614218565b906101000a90046001600160a01b03166001600160a01b03166340e58ee5600685816127eb614218565b81106127f357fe5b90600052602060002060039091020160010161280d614218565b6040518263ffffffff1660e01b8152600401612829919061503e565b6000604051808303816000878061283e614307565b158015612853576000806128506141ad565b50505b505a61285d61443e565b50505050505015801561287d573d6000803e3d600061287a6141ad565b50505b505050506000805160206151568339815191526006848161289c614218565b81106128a457fe5b9060005260206000206003909102016001016128be614218565b826020015183516040516128d49392919061504c565b60405180910390a1600683816128e8614218565b81106128f057fe5b9060005260206000206129089160030201600061460a565b612967565b61293a6006848161291c614218565b811061292457fe5b906000526020600020600390910201600161237a565b61296760068481612949614218565b811061295157fe5b90600052602060002060039091020160006125a0565b50506001016120dc565b505b565b6000806002612982614218565b6001600160a01b036101009290920a9004166370a08231600060036129a5614218565b906101000a90046001600160a01b03166040518263ffffffff1660e01b81526004016129d19190614d4a565b60206040518083038186806129e4614307565b1580156129f9576000806129f66141ad565b50505b505a612a03614353565b5050505050158015612a22573d6000803e3d6000612a1f6141ad565b50505b50505050604051601f3d908101601f19168201604052612a45919081019061481a565b90506000806001612a54614218565b6001600160a01b036101009290920a9004166370a0823160006004612a77614218565b906101000a90046001600160a01b03166040518263ffffffff1660e01b8152600401612aa39190614d4a565b6020604051808303818680612ab6614307565b158015612acb57600080612ac86141ad565b50505b505a612ad5614353565b5050505050158015612af4573d6000803e3d6000612af16141ad565b50505b50505050604051601f3d908101601f19168201604052612b17919081019061481a565b90508115612c375760006003612b2b614218565b6001600160a01b036101009290920a90041663b3f865f760006004612b4e614218565b906101000a90046001600160a01b03166002600090612b6b614218565b906101000a90046001600160a01b031660056040518463ffffffff1660e01b8152600401612b9b93929190614e7f565b60006040518083038160008780612bb0614307565b158015612bc557600080612bc26141ad565b50505b505a612bcf61443e565b505050505050158015612bef573d6000803e3d6000612bec6141ad565b50505b505050506000805160206150f68339815191526004600090612c0f614218565b906101000a90046001600160a01b031683604051612c2e929190614ea7565b60405180910390a15b8015612d555760006004612c49614218565b6001600160a01b036101009290920a90041663b3f865f760006003612c6c614218565b906101000a90046001600160a01b03166001600090612c89614218565b906101000a90046001600160a01b031660056040518463ffffffff1660e01b8152600401612cb993929190614e7f565b60006040518083038160008780612cce614307565b158015612ce357600080612ce06141ad565b50505b505a612ced61443e565b505050505050158015612d0d573d6000803e3d6000612d0a6141ad565b50505b505050506000805160206150f68339815191526003600090612d2d614218565b906101000a90046001600160a01b031682604051612d4c929190614ea7565b60405180910390a15b60006001612d61614218565b6001600160a01b036101009290920a9004166370a0823160006004612d84614218565b906101000a90046001600160a01b03166040518263ffffffff1660e01b8152600401612db09190614d4a565b6020604051808303818680612dc3614307565b158015612dd857600080612dd56141ad565b50505b505a612de2614353565b5050505050158015612e01573d6000803e3d6000612dfe6141ad565b50505b50505050604051601f3d908101601f19168201604052612e24919081019061481a565b15612e535760405162461bcd60e51b8152600401612e419061502e565b60405180910390612e506141ad565b50505b60006002612e5f614218565b6001600160a01b036101009290920a9004166370a0823160006003612e82614218565b906101000a90046001600160a01b03166040518263ffffffff1660e01b8152600401612eae9190614d4a565b6020604051808303818680612ec1614307565b158015612ed657600080612ed36141ad565b50505b505a612ee0614353565b5050505050158015612eff573d6000803e3d6000612efc6141ad565b50505b50505050604051601f3d908101601f19168201604052612f22919081019061481a565b156108c05760405162461bcd60e51b8152600401612f3f9061502e565b604051809103906102c46141ad565b600081600f0b60001415612f6a57600080612f676141ad565b50505b600082600f0b604085600f0b901b81612f7f57fe5b05905060016001607f1b03198112801590612fa1575060016001607f1b038113155b612fb357600080612fb06141ad565b50505b9392505050565b600081612fcf57600080612fcc6141ad565b50505b6000612fdb84846135e9565b905060016001607f1b036001600160801b0382161115612fb357600080612fb06141ad565b60008080600561300e614218565b6001600160a01b036101009290920a900416630374fc6f60006001613031614218565b906101000a90046001600160a01b0316600260009061304e614218565b906101000a90046001600160a01b03166040518363ffffffff1660e01b815260040161307b929190614eb5565b602060405180830381868061308e614307565b1580156130a3576000806130a06141ad565b50505b505a6130ad614353565b50505050501580156130cc573d6000803e3d60006130c96141ad565b50505b50505050604051601f3d908101601f191682016040526130ef919081019061481a565b905060008060056130fe614218565b6001600160a01b036101009290920a900416630374fc6f60006002613121614218565b906101000a90046001600160a01b0316600160009061313e614218565b906101000a90046001600160a01b03166040518363ffffffff1660e01b815260040161316b929190614eb5565b602060405180830381868061317e614307565b158015613193576000806131906141ad565b50505b505a61319d614353565b50505050501580156131bc573d6000803e3d60006131b96141ad565b50505b50505050604051601f3d908101601f191682016040526131df919081019061481a565b90506131e96145c8565b6131f283613393565b90506131fc6145c8565b61320583613393565b90506000613232826040015183518161321a57fe5b04845185604001518161322957fe5b04016002612fba565b9050600080516020615136833981519152816040516132519190614f6e565b60405180910390a194505050505090565b6000600f83810b9083900b0260401d60016001607f1b03198112801590612fa1575060016001607f1b03811315612fb357600080612fb06141ad565b620425d490565b620186a090565b6000600160461b82600f0b126132ca576000806132c76141ad565b50505b6001600160461b031982600f0b12156132e55750600061330b565b613308608083600f0b700171547652b82fe1777d0ffda0d23a7d1202901d61374a565b90505b919050565b60008161331f57506000611ce8565b600083600f0b1215613339576000806133366141ad565b50505b600f83900b6001600160801b038316810260401c90608084901c026001600160c01b038111156133715760008061336e6141ad565b50505b60401b811981111561338b576000806133886141ad565b50505b019392505050565b61339b6145c8565b60008080808060056133ab614218565b906101000a90046001600160a01b03166001600160a01b0316634579268a876040518263ffffffff1660e01b81526004016133e6919061503e565b60806040518083038186806133f9614307565b15801561340e5760008061340b6141ad565b50505b505a613418614353565b5050505050158015613437573d6000803e3d60006134346141ad565b50505b50505050604051601f3d908101601f1916820160405261345a9190810190614841565b935093509350935061346a6145c8565b6040516080810160409081529581526001600160a01b0394851660208201529485019290925290911660608301525092915050565b6000828152600b602052604081206000906134b8614218565b906101000a90046001600160a01b03169050811561355c576001600160a01b0381166000908152600c60205260019060409020600082826134f7614218565b0192505081906135056142b9565b5050506001600f60008282613518614218565b0192505081906135266142b9565b505050600080516020615116833981519152600f613542614218565b60405161354f9190614f8e565b60405180910390a16135e4565b6001600160a01b0381166000908152600d6020526001906040902060008282613583614218565b0192505081906135916142b9565b50505060016010600082826135a4614218565b0192505081906135b26142b9565b50505060008051602061511683398151915260106135ce614218565b6040516135db9190614f0f565b60405180910390a15b505050565b6000816135fe576000806135fb6141ad565b50505b60006001600160c01b0384116136235782604085901b8161361b57fe5b049050613730565b60c084811c600160201b811061363b576020918201911c5b62010000811061364d576010918201911c5b610100811061365e576008918201911c5b6010811061366e576004918201911c5b6004811061367e576002918201911c5b6002811061368d576001820191505b60bf820360018603901c6001018260ff0387901b816136a857fe5b0492506001600160801b038311156136c8576000806136c56141ad565b50505b608085901c83026001600160801b038616840260c088901c604089901b828110156136f4576001820391505b608084901b9290038281101561370b576001820391505b829003608084901c821461371b57fe5b88818161372457fe5b04870196505050505050505b6001600160801b03811115612fb357600080612fb06141ad565b6000600160461b82600f0b12613768576000806137656141ad565b50505b6001600160461b031982600f0b12156137835750600061330b565b6001607f1b60006001603f1b8416600f0b13156137b15770016a09e667f3bcc908b2fb1366ea957d3e0260801c5b6000836001603e1b16600f0b13156137da577001306fe0a31b7152de8d5a46305c85edec0260801c5b6000836001603d1b16600f0b1315613803577001172b83c7d517adcdf7c8c50eb14a791f0260801c5b6000836001603c1b16600f0b131561382c5770010b5586cf9890f6298b92b71842a983630260801c5b6000836001603b1b16600f0b1315613855577001059b0d31585743ae7c548eb68ca417fd0260801c5b6000836001603a1b16600f0b131561387e57700102c9a3e778060ee6f7caca4f7a29bde80260801c5b600083600160391b16600f0b13156138a75770010163da9fb33356d84a66ae336dcdfa3f0260801c5b600083600160381b16600f0b13156138d057700100b1afa5abcbed6129ab13ec11dc95430260801c5b600083600160371b16600f0b13156138f95770010058c86da1c09ea1ff19d294cf2f679b0260801c5b600083600160361b16600f0b1315613922577001002c605e2e8cec506d21bfc89a23a00f0260801c5b600083600160351b16600f0b131561394b57700100162f3904051fa128bca9c55c31e5df0260801c5b600083600160341b16600f0b1315613974577001000b175effdc76ba38e31671ca9397250260801c5b600083600160331b16600f0b131561399d57700100058ba01fb9f96d6cacd4b180917c3d0260801c5b600083600160321b16600f0b13156139c65770010002c5cc37da9491d0985c348c68e7b30260801c5b600083600160311b16600f0b13156139ef577001000162e525ee054754457d59952920260260801c5b600083600160301b16600f0b1315613a185770010000b17255775c040618bf4a4ade83fc0260801c5b6000836001602f1b16600f0b1315613a41577001000058b91b5bc9ae2eed81e9b7d4cfab0260801c5b6000836001602e1b16600f0b1315613a6a57700100002c5c89d5ec6ca4d7c8acc017b7c90260801c5b6000836001602d1b16600f0b1315613a935770010000162e43f4f831060e02d839a9d16d0260801c5b6000836001602c1b16600f0b1315613abc57700100000b1721bcfc99d9f890ea069117630260801c5b6000836001602b1b16600f0b1315613ae55770010000058b90cf1e6d97f9ca14dbcc16280260801c5b6000836001602a1b16600f0b1315613b0e577001000002c5c863b73f016468f6bac5ca2b0260801c5b600083600160291b16600f0b1315613b3757700100000162e430e5a18f6119e3c02282a50260801c5b600083600160281b16600f0b1315613b60577001000000b1721835514b86e6d96efd1bfe0260801c5b600083600160271b16600f0b1315613b8957700100000058b90c0b48c6be5df846c5b2ef0260801c5b600083600160261b16600f0b1315613bb25770010000002c5c8601cc6b9e94213c72737a0260801c5b600083600160251b16600f0b1315613bdb577001000000162e42fff037df38aa2b219f060260801c5b600083600160241b16600f0b1315613c045770010000000b17217fba9c739aa5819f44f90260801c5b600083600160231b16600f0b1315613c2d577001000000058b90bfcdee5acd3c1cedc8230260801c5b600083600160221b16600f0b1315613c5657700100000002c5c85fe31f35a6a30da1be500260801c5b600083600160211b16600f0b1315613c7f5770010000000162e42ff0999ce3541b9fffcf0260801c5b600083600160201b16600f0b1315613ca857700100000000b17217f80f4ef5aadda455540260801c5b600083638000000016600f0b1315613cd15770010000000058b90bfbf8479bd5a81b51ad0260801c5b600083634000000016600f0b1315613cfa577001000000002c5c85fdf84bd62ae30a74cc0260801c5b600083632000000016600f0b1315613d2357700100000000162e42fefb2fed257559bdaa0260801c5b600083631000000016600f0b1315613d4c577001000000000b17217f7d5a7716bba4a9ae0260801c5b600083630800000016600f0b1315613d7557700100000000058b90bfbe9ddbac5e109cce0260801c5b600083630400000016600f0b1315613d9e5770010000000002c5c85fdf4b15de6f17eb0d0260801c5b600083630200000016600f0b1315613dc7577001000000000162e42fefa494f1478fde050260801c5b600083630100000016600f0b1315613df05770010000000000b17217f7d20cf927c8e94c0260801c5b6000836280000016600f0b1315613e18577001000000000058b90bfbe8f71cb4e4b33d0260801c5b6000836240000016600f0b1315613e4057700100000000002c5c85fdf477b662b269450260801c5b6000836220000016600f0b1315613e685770010000000000162e42fefa3ae53369388c0260801c5b6000836210000016600f0b1315613e9057700100000000000b17217f7d1d351a389d400260801c5b6000836208000016600f0b1315613eb85770010000000000058b90bfbe8e8b2d3d4ede0260801c5b6000836204000016600f0b1315613ee0577001000000000002c5c85fdf4741bea6e77e0260801c5b6000836202000016600f0b1315613f0857700100000000000162e42fefa39fe95583c20260801c5b6000836201000016600f0b1315613f2f5769b17217f7d1cfb72b45e1600160801b010260801c5b60008361800016600f0b1315613f55576958b90bfbe8e7cc35c3f0600160801b010260801c5b60008361400016600f0b1315613f7b57692c5c85fdf473e242ea38600160801b010260801c5b60008361200016600f0b1315613fa15769162e42fefa39f02b772c600160801b010260801c5b60008361100016600f0b1315613fc757690b17217f7d1cf7d83c1a600160801b010260801c5b60008361080016600f0b1315613fed5769058b90bfbe8e7bdcbe2e600160801b010260801c5b60008361040016600f0b1315614013576902c5c85fdf473dea871f600160801b010260801c5b60008361020016600f0b131561403957690162e42fefa39ef44d91600160801b010260801c5b60008361010016600f0b131561405e5768b17217f7d1cf79e949600160801b010260801c5b600083608016600f0b1315614082576858b90bfbe8e7bce544600160801b010260801c5b600083604016600f0b13156140a657682c5c85fdf473de6eca600160801b010260801c5b600083602016600f0b13156140ca5768162e42fefa39ef366f600160801b010260801c5b600083601016600f0b13156140ee57680b17217f7d1cf79afa600160801b010260801c5b600083600816600f0b13156141125768058b90bfbe8e7bcd6d600160801b010260801c5b600083600416600f0b1315614136576802c5c85fdf473de6b2600160801b010260801c5b600083600216600f0b131561415a57680162e42fefa39ef358600160801b010260801c5b600083600116600f0b131561417d5767b17217f7d1cf79ab600160801b010260801c5b600f83810b60401d603f03900b1c60016001607f1b03811115613308576000806141a56141ad565b505092915050565b632a2a7adb598160e01b8152600481016020815285602082015260005b868110156141e55780860151828201604001526020016141ca565b506020828760640184336000905af158600e01573d6000803e3d6000fd5b3d6001141558600a015760016000f35b505050565b6303daa959598160e01b8152836004820152602081602483336000905af158600e01573d6000803e3d6000fd5b3d6001141558600a015760016000f35b8051935060005b60408110156135e45760008282015260200161425c565b6373509064598160e01b8152602081600483336000905af158600e01573d6000803e3d6000fd5b3d6001141558600a015760016000f35b8051600082529350602061425c565b6322bd64c0598160e01b8152836004820152846024820152600081604483336000905af158600e01573d6000803e3d6000fd5b3d6001141558600a015760016000f35b60008152602061425c565b638435035b598160e01b8152836004820152602081602483336000905af158600e01573d6000803e3d6000fd5b3d6001141558600a015760016000f35b8051600082529350602061425c565b638540661f598160e01b8152614384565b8080831115611ce8575090919050565b8080831015611ce8575090919050565b836004820152846024820152606060448201528660648201526084810160005b888110156143bc5780880151828201526020016143a4565b506060828960a40184336000905af158600e01573d6000803e3d6000fd5b3d6001141558600a015760016000f35b815160408301513d6000853e8b8b82606087013350600060045af150596144118d3d614374565b8c0161441d8187614364565b5b82811015614432576000815260200161441e565b50929c50505050505050565b6385979f76598160e01b8152836004820152846024820152606060448201528760648201526084810160005b8981101561448257808901518282015260200161446a565b506060828a60a40184336000905af158600e01573d6000803e3d6000fd5b3d6001141558600a015760016000f35b815160408301513d6000853e8c8c82606087013350600060045af150596144d78e3d614374565b8d016144e38187614364565b5b828110156144f857600081526020016144e4565b50929d50505050505050565b826003810192821561453b579160200282015b8281111561453b5782358261452a6142b9565b505091602001919060010190614517565b50614547929150614636565b5090565b63bdbf8c36598160e01b8152602081600483336000905af158600e01573d6000803e3d6000fd5b3d6001141558600a015760016000f35b8051600082529350602061425c565b826003810192821561453b579160200282015b8281111561453b578251826145b76142b9565b5050916020019190600101906145a4565b604051608081016040908152600080835260208301819052908201819052606082015290565b6040516060808201604052600390829080388339509192915050565b506000816146166142b9565b50506001016000816146266142b9565b50506001016000906108c06142b9565b61209091905b8082111561454757600080826146506142b9565b50505060010161463c565b8035611ce8816150c0565b8060608101831015611ce8576000806141a56141ad565b600081519050611ce8816150da565b600081519050611ce8816150e3565b8035611ce8816150ec565b600081519050611ce8816150ec565b6000602082840312156146d0576000806146cd6141ad565b50505b60006146dc848461465b565b949350505050565b60008060408385031215614700576000806146fd6141ad565b50505b600061470c858561465b565b925050602061471d8582860161465b565b9150509250929050565b600080600080600060a08688031215614748576000806147456141ad565b50505b6000614754888861465b565b95505060206147658882890161469b565b94505060406147768882890161469b565b93505060606147878882890161469b565b92505060806147988882890161469b565b9150509295509295909350565b6000606082840312156147c0576000806147bd6141ad565b50505b60006146dc8484614666565b6000602082840312156147e7576000806147e46141ad565b50505b60006146dc848461467d565b60006020828403121561480e5760008061480b6141ad565b50505b60006146dc848461469b565b600060208284031215614835576000806148326141ad565b50505b60006146dc84846146a6565b600080600080608085870312156148605760008061485d6141ad565b50505b600061486c87876146a6565b945050602061487d8782880161468c565b935050604061488e878288016146a6565b925050606061489f8782880161468c565b91505092959194509250565b600080604083850312156148c7576000806148c46141ad565b50505b60006148d3858561469b565b925050602061471d8582860161469b565b6148ed816150aa565b82525050565b6148ed8161507d565b6148ed8161508d565b6148ed81615098565b6148ed816150b5565b6000614924601483615074565b736e6f726d616c206d617853697a652051756f746560601b815260200192915050565b6000614954601a83615074565b79746f6f206d616e79206f75747374616e64696e6720706169727360301b815260200192915050565b600061498a602383615074565b7f6e6f7420616e20617070726f766564207374726174656779202d20626174685081526230b4b960e91b602082015260400192915050565b60006149cf600d83615074565b6c6c6f6746696c6c2071756f746560981b815260200192915050565b60006149f8600583615074565b64726174696f60d81b815260200192915050565b6000614a19601583615074565b74191e5b985b5a58c81b585e14da5e9948105cdcd95d605a1b815260200192915050565b6000614a4a601483615074565b731b9bdc9b585b081b585e14da5e9948105cdcd95d60621b815260200192915050565b6000614a7a601183615074565b70756e6465726c79696e6742616c616e636560781b815260200192915050565b6000614aa7601483615074565b7336b4b23837b4b73a1031b0b631bab630ba32b21d60611b815260200192915050565b6000614ad7600b83615074565b6a726177206d617853697a6560a81b815260200192915050565b6000614afe600d83615074565b6c1b1bd9d19a5b1b08185cdcd95d609a1b815260200192915050565b6000614b27603083615074565b7f7468657265206973206e6f74206120737072656164206f6e207374726174656781526f6973742773207061697220747261646560801b602082015260400192915050565b6000614b79601c83615074565b7b7468652062696420697320746f6f206c6172676520696e2073697a6560201b815260200192915050565b6000614bb1602a83615074565b7f61736b207072696365206973206e6f742067726561746572207468616e207468815269194818995cdd08189a5960b21b602082015260400192915050565b6000614bfd600183615074565b606560f81b815260200192915050565b6000614c1a600d83615074565b6c72616973656420746f2074686560981b815260200192915050565b6000614c43601083615074565b6f3ab73232b9363cb4b7339037ba3432b960811b815260200192915050565b6000614c6f600983615074565b6839b430b832a1b7b2b360b91b815260200192915050565b6000614c94602783615074565b7f626964207072696365206973206e6f74206c657373207468616e2074686520628152666573742061736b60c81b602082015260400192915050565b6000614cdd601c83615074565b7b7468652061736b20697320746f6f206c6172676520696e2073697a6560201b815260200192915050565b6000614d15601e83615074565b7f7969656c64206e6f7420636f72726563746c7920726562616c616e6365640000815260200192915050565b6148ed81612090565b60208101611ce882846148f3565b60408101614d6682856148e4565b612fb36020830184614d41565b6101008101614d82828b6148f3565b614d8f602083018a6148f3565b614d9c60408301896148f3565b614da960608301886148f3565b614db66080830187614d41565b614dc360a0830186614d41565b614dd060c0830185614d41565b614ddd60e0830184614d41565b9998505050505050505050565b6101408101614df9828d6148f3565b614e06602083018c6148f3565b614e13604083018b6148f3565b614e20606083018a6148f3565b614e2d6080830189614d41565b614e3a60a0830188614d41565b614e4760c0830187614d41565b614e5460e0830186614d41565b614e626101008301856148f3565b614e70610120830184614d41565b9b9a5050505050505050505050565b60608101614e8d82866148f3565b614e9a60208301856148f3565b6146dc604083018461490e565b60408101614d6682856148f3565b60408101614ec382856148fc565b612fb360208301846148fc565b60408082528101614ee081614917565b9050611ce86020830184614d41565b6020808252810161330881614947565b602080825281016133088161497d565b60408082528101614ee0816149c2565b60408082528101614f2f816149eb565b9050611ce86020830184614905565b60408082528101614ee081614a0c565b60408082528101614ee081614a3d565b60408082528101614ee081614a6d565b60408082528101614f2f81614a9a565b60408082528101614ee081614aca565b60408082528101614ee081614af1565b6020808252810161330881614b1a565b6020808252810161330881614b6c565b6020808252810161330881614ba4565b60408082528101614f2f81614bf0565b60408082528101614f2f81614c0d565b60408082528101614ee081614c36565b60408082528101614f2f81614c62565b6020808252810161330881614c87565b6020808252810161330881614cd0565b6020808252810161330881614d08565b60208101611ce88284614d41565b6060810161505a8286614d41565b61506760208301856148fc565b6146dc6040830184614d41565b90815260200190565b60006133088261509e565b151590565b60006133088261507d565b600f0b90565b6001600160a01b031690565b60006133088261508d565b600061330882612090565b6150c98161507d565b8114612971576000806135e46141ad565b6150c981615088565b6150c98161508d565b6150c98161209056fee75bdd3aabe6a577fc304e4dd38b1f51d87462047d87241a8b36804dedfdd277237ed0dc730435f49ffc52e0c385fe376f53260bda0022cdbd6bea601c0584961eed1b3cc441a43b0abc6b2676a5071c862f7570637f009a01de6dc2a982bea54e4fbd9f26259e82cfb30871ba8fb37535ebc893e81ff81141c1a2dc925d930f60806040523480156200001c576000806200001962000023565b50505b5062000090565b632a2a7adb598160e01b8152600481016020815285602082015260005b868110156200005d57808601518282016040015260200162000040565b506020828760640184336000905af158600e01573d6000803e3d6000fd5b3d6001141558600a015760016000f35b505050565b612a7880620000a06000396000f3fe6080604052348015610019576000806100166124d0565b50505b506004361061013c5760003560e01c806306fdde031461014a578063095ea7b3146101c9578063158ef93e1461021257806318160ddd1461021a57806323b872dd146102345780632495a59914610273578063271e4426146102975780632e1a7d4d146102dc57806330adf81f14610304578063313ce5671461030c5780633644e5151461032a5780633830f1b61461033257806340e58ee51461035e57806360c38b281461038457806360f71b241461038c57806370a08231146103945780637ecebe00146103c357806395d89b41146103f2578063a9059cbb146103fa578063afd639ee1461042f578063b3f865f71461045e578063b6b55f251461049d578063d505accf146104c3578063dd62ed3e1461051d578063f34822b414610554575b6000806101476124d0565b50505b610152610635565b60405160208082528190810183818151815260200191508051906020019080838360005b8381101561018e578082015183820152602001610176565b50505050905090810190601f1680156101bb5780820380516001836020036101000a031916815260200191505b509250505060405180910390f35b6101fe600480360360408110156101e8576000806101e56124d0565b50505b506001600160a01b03813516906020013561065b565b604051901515815260200160405180910390f35b6101fe61067a565b610222610693565b60405190815260200160405180910390f35b6101fe60048036036060811015610253576000806102506124d0565b50505b506001600160a01b038135811691602081013590911690604001356106a0565b61027b6107b6565b6040516001600160a01b03909116815260200160405180910390f35b610222600480360360808110156102b6576000806102b36124d0565b50505b508035906001600160a01b036020820135811691604081013591606090910135166107d5565b610302600480360360208110156102fb576000806102f86124d0565b50505b5035610a55565b005b610222610c9a565b610314610cac565b60405160ff909116815260200160405180910390f35b610222610cb1565b610222600480360360408110156103515760008061034e6124d0565b50505b5080359060200135610cbb565b6103026004803603602081101561037d5760008061037a6124d0565b50505b5035610cf5565b61027b610ee0565b61027b610eec565b610222600480360360208110156103b3576000806103b06124d0565b50505b50356001600160a01b0316610ef8565b610222600480360360208110156103e2576000806103df6124d0565b50505b50356001600160a01b0316610f10565b610152610f28565b6101fe60048036036040811015610419576000806104166124d0565b50505b506001600160a01b038135169060200135610fe1565b6102226004803603602081101561044e5760008061044b6124d0565b50505b50356001600160a01b0316610ff6565b6103026004803603606081101561047d5760008061047a6124d0565b50505b506001600160a01b0381358116916020810135909116906040013561100e565b610302600480360360208110156104bc576000806104b96124d0565b50505b50356114f4565b610302600480360360e08110156104e2576000806104df6124d0565b50505b506001600160a01b03813581169160208101359091169060408101359060608101359060ff6080820135169060a08101359060c00135611a17565b6102226004803603604081101561053c576000806105396124d0565b50505b506001600160a01b0381358116916020013516611c82565b61030260048036036080811015610573576000806105706124d0565b50505b810190602081018135600160201b811115610596576000806105936124d0565b50505b8201836020820111156105b1576000806105ae6124d0565b50505b803590602001918460018302840111600160201b831117156105db576000806105d86124d0565b50505b91908080601f0160208091040260200160405190810160405281815292919060208401838380828437600092019190915250929550506001600160a01b03833581169450602084013581169360400135169150611ca89050565b60405160408082019052600c81526b42617468546f6b656e20763160a01b602082015281565b60006106705a61066961253b565b8484611fa3565b5060015b92915050565b6000600b610686612595565b906101000a900460ff1681565b600461069d612595565b81565b6001600160a01b038316600090815260076020526000196040822060005a6106c661253b565b6001600160a01b03166001600160a01b031681526020019081526020016000206106ee612595565b146107a1576001600160a01b038416600090815260076020526107509083906040902060005a61071c61253b565b6001600160a01b03166001600160a01b03168152602001908152602001600020610744612595565b9063ffffffff61202f16565b6001600160a01b038516600090815260076020526040902060005a61077361253b565b6001600160a01b03166001600160a01b03168152602001908152602001600020819061079d6125e1565b5050505b6107ac848484612076565b5060019392505050565b600060016107c2612595565b906101000a90046001600160a01b031681565b60008060036107e2612595565b906101000a90046001600160a01b03166001600160a01b03166386cbe0275a61080961253b565b6040516001600160e01b031960e084901b1681526001600160a01b039091166004820152602401602060405180830381868061084361262f565b158015610858576000806108556124d0565b50505b505a61086261267b565b5050505050158015610881573d6000803e3d600061087e6124d0565b50505b505050506040513d60208110156108a05760008061089d6124d0565b50505b810190808051151560011492506108f49150505760405162461bcd60e51b815260040180806020018281038252602481526020018061298160249139604001915050604051809103906108f16124d0565b50505b6000806002610901612595565b906101000a90046001600160a01b03166001600160a01b031663e1a6f014878787876000806040516001600160e01b031960e089901b16815260048101969096526001600160a01b0394851660248701526044860193909352921660648401526084830191909152151560a482015260c4016020604051808303816000878061098861262f565b15801561099d5760008061099a6124d0565b50505b505a6109a7612766565b5050505050501580156109c7573d6000803e3d60006109c46124d0565b50505b505050506040513d60208110156109e6576000806109e36124d0565b50505b81019080805193507f819e390338feffe95e2de57172d6faf337853dfd15c7a09a32d76f7fd2443875925088915087905086866040519384526001600160a01b03928316602085015260408085019290925290911660608301526080909101905180910390a195945050505050565b6000610ba56004610a64612595565b610b998460006001610a74612595565b906101000a90046001600160a01b03166001600160a01b03166370a082315a63996d79a5598160e01b8152602081600483336000905af158600e01573d6000803e3d6000fd5b3d6001141558600a015760016000f35b8051925060005b6040811015610ae857600082820152602001610ad1565b5050506040516001600160e01b031960e084901b1681526001600160a01b0390911660048201526024016020604051808303818680610b2561262f565b158015610b3a57600080610b376124d0565b50505b505a610b4461267b565b5050505050158015610b63573d6000803e3d6000610b606124d0565b50505b505050506040513d6020811015610b8257600080610b7f6124d0565b50505b8101908080519392505063ffffffff612152169050565b9063ffffffff6121ba16565b9050610bb95a610bb361253b565b836121f7565b60006001610bc5612595565b906101000a90046001600160a01b03166001600160a01b031663a9059cbb5a610bec61253b565b836040516001600160e01b031960e085901b1681526001600160a01b039092166004830152602482015260440160206040518083038160008780610c2e61262f565b158015610c4357600080610c406124d0565b50505b505a610c4d612766565b505050505050158015610c6d573d6000803e3d6000610c6a6124d0565b50505b505050506040513d6020811015610c8c57600080610c896124d0565b50505b810190808051505050505050565b600080516020612a3883398151915281565b601281565b600961069d612595565b60088281610cc7612595565b8110610ccf57fe5b90600052602060002090600202018160028110610ce857fe5b01915061069d9050612595565b60006003610d01612595565b906101000a90046001600160a01b03166001600160a01b031663ca3a86cd5a610d2861253b565b6040516001600160e01b031960e084901b1681526001600160a01b0390911660048201526024016020604051808303818680610d6261262f565b158015610d7757600080610d746124d0565b50505b505a610d8161267b565b5050505050158015610da0573d6000803e3d6000610d9d6124d0565b50505b505050506040513d6020811015610dbf57600080610dbc6124d0565b50505b81019080805115156001149250610e169150505760405162461bcd60e51b81526020600482018190526024820152600080516020612a58833981519152604482015260640160405180910390610e136124d0565b50505b60006002610e22612595565b906101000a90046001600160a01b03166001600160a01b03166340e58ee5826040516001600160e01b031960e084901b168152600481019190915260240160206040518083038160008780610e7561262f565b158015610e8a57600080610e876124d0565b50505b505a610e94612766565b505050505050158015610eb4573d6000803e3d6000610eb16124d0565b50505b505050506040513d6020811015610ed357600080610ed06124d0565b50505b8101908080515050505050565b600060036107c2612595565b600060026107c2612595565b6005602052806000526040600020905061069d612595565b600a602052806000526040600020905061069d612595565b600080610f33612595565b600181600116156101000203166002900480601f016020809104026020016040519081016040528181529190602083018280610f6d612595565b60018160011615610100020316600290048015610fd95780601f10610fa7576101008083610f99612595565b040283529160200191610fd9565b820191906000526020600020905b81610fbe612595565b81529060010190602001808311610fb557829003601f168201915b505050505081565b60006106705a610fef61253b565b8484612076565b6006602052806000526040600020905061069d612595565b6000600361101a612595565b906101000a90046001600160a01b03166001600160a01b031663ca3a86cd5a61104161253b565b6040516001600160e01b031960e084901b1681526001600160a01b039091166004820152602401602060405180830381868061107b61262f565b1580156110905760008061108d6124d0565b50505b505a61109a61267b565b50505050501580156110b9573d6000803e3d60006110b66124d0565b50505b505050506040513d60208110156110d8576000806110d56124d0565b50505b8101908080511515600114925061112f9150505760405162461bcd60e51b81526020600482018190526024820152600080516020612a5883398151915260448201526064016040518091039061112c6124d0565b50505b60008111801561113f5750601481105b6111515760008061114e6124d0565b50505b60006064836001600160a01b03166370a082315a63996d79a5598160e01b8152602081600483336000905af158600e01573d6000803e3d6000fd5b3d6001141558600a015760016000f35b8051925060005b60408110156111ba576000828201526020016111a3565b5050506040516001600160e01b031960e084901b1681526001600160a01b03909116600482015260240160206040518083038186806111f761262f565b15801561120c576000806112096124d0565b50505b505a61121661267b565b5050505050158015611235573d6000803e3d60006112326124d0565b50505b505050506040513d6020811015611254576000806112516124d0565b50505b81019080805186029250839150611269905057fe5b0490506001600160a01b03831663a9059cbb8583836370a082315a63996d79a5598160e01b8152602081600483336000905af158600e01573d6000803e3d6000fd5b3d6001141558600a015760016000f35b8051925060005b60408110156112d9576000828201526020016112c2565b5050506040516001600160e01b031960e084901b1681526001600160a01b039091166004820152602401602060405180830381868061131661262f565b15801561132b576000806113286124d0565b50505b505a61133561267b565b5050505050158015611354573d6000803e3d60006113516124d0565b50505b505050506040513d6020811015611373576000806113706124d0565b50505b8101908080519390930392506040915050516001600160e01b031960e085901b1681526001600160a01b0390921660048301526024820152604401602060405180830381600087806113c361262f565b1580156113d8576000806113d56124d0565b50505b505a6113e2612766565b505050505050158015611402573d6000803e3d60006113ff6124d0565b50505b505050506040513d60208110156114215760008061141e6124d0565b50505b8101908080515050506001600160a01b038416905063a9059cbb5a61144461253b565b836040516001600160e01b031960e085901b1681526001600160a01b03909216600483015260248201526044016020604051808303816000878061148661262f565b15801561149b576000806114986124d0565b50505b505a6114a5612766565b5050505050501580156114c5573d6000803e3d60006114c26124d0565b50505b505050506040513d60208110156114e4576000806114e16124d0565b50505b8101908080515050505050505050565b6000806001611501612595565b906101000a90046001600160a01b03166001600160a01b03166370a082315a63996d79a5598160e01b8152602081600483336000905af158600e01573d6000803e3d6000fd5b3d6001141558600a015760016000f35b8051925060005b60408110156115755760008282015260200161155e565b5050506040516001600160e01b031960e084901b1681526001600160a01b03909116600482015260240160206040518083038186806115b261262f565b1580156115c7576000806115c46124d0565b50505b505a6115d161267b565b50505050501580156115f0573d6000803e3d60006115ed6124d0565b50505b505050506040513d602081101561160f5760008061160c6124d0565b50505b8101908080519350600092508291506001905061162a612595565b906101000a90046001600160a01b03166001600160a01b03166370a082315a63996d79a5598160e01b8152602081600483336000905af158600e01573d6000803e3d6000fd5b3d6001141558600a015760016000f35b8051925060005b604081101561169e57600082820152602001611687565b5050506040516001600160e01b031960e084901b1681526001600160a01b03909116600482015260240160206040518083038186806116db61262f565b1580156116f0576000806116ed6124d0565b50505b505a6116fa61267b565b5050505050158015611719573d6000803e3d60006117166124d0565b50505b505050506040513d6020811015611738576000806117356124d0565b50505b810190808051935060009250600191506117529050612595565b906101000a90046001600160a01b03166001600160a01b03166323b872dd5a61177961253b565b5a63996d79a5598160e01b8152602081600483336000905af158600e01573d6000803e3d6000fd5b3d6001141558600a015760016000f35b8051925060005b60408110156117cf576000828201526020016117b8565b505050866040516001600160e01b031960e086901b1681526001600160a01b03938416600482015291909216602482015260448101919091526064016020604051808303816000878061182061262f565b158015611835576000806118326124d0565b50505b505a61183f612766565b50505050505015801561185f573d6000803e3d600061185c6124d0565b50505b505050506040513d602081101561187e5760008061187b6124d0565b50505b810190808051506000925082915060019050611898612595565b906101000a90046001600160a01b03166001600160a01b03166370a082315a63996d79a5598160e01b8152602081600483336000905af158600e01573d6000803e3d6000fd5b3d6001141558600a015760016000f35b8051925060005b604081101561190c576000828201526020016118f5565b5050506040516001600160e01b031960e084901b1681526001600160a01b039091166004820152602401602060405180830381868061194961262f565b15801561195e5760008061195b6124d0565b50505b505a61196861267b565b5050505050158015611987573d6000803e3d60006119846124d0565b50505b505050506040513d60208110156119a6576000806119a36124d0565b50505b81019080805193506119c4925083915084905063ffffffff61202f16565b9350600060046119d2612595565b6119dd5750836119fe565b6119fb84610b9960046119ee612595565b889063ffffffff61215216565b90505b611a105a611a0a61253b565b82612290565b5050505050565b5a611a2061282c565b841015611a715760405162461bcd60e51b8152602060048201526012602482015271155b9a5cddd85c158c8e881156141254915160721b604482015260640160405180910390611a6e6124d0565b50505b60006009611a7d612595565b6001600160a01b0389166000908152600a602052600080516020612a38833981519152908a908a908a9060409020600081611ab6612595565b91600183019150611ac56125e1565b50508a60405160200180878152602001866001600160a01b03166001600160a01b03168152602001856001600160a01b03166001600160a01b0316815260200184815260200183815260200182815260200196505050505050506040516020818303038152906040528051906020012060405161190160f01b602082015260228101929092526042820152606201604051602081830303815290604052805190602001209050600060018286868660405160008152602001604052604051808581526020018460ff1660ff1681526020018381526020018281526020019450505050506020604051602081039080840390855a611bc061267b565b5050505050158015611bdf573d6000803e3d6000611bdc6124d0565b50505b5050506020604051035190506001600160a01b03811615801590611c145750886001600160a01b0316816001600160a01b0316145b611c6c5760405162461bcd60e51b815260206004820152601c60248201527b556e697377617056323a20494e56414c49445f5349474e415455524560201b604482015260640160405180910390611c696124d0565b50505b611c77898989611fa3565b505050505050505050565b6007602052816000526040600020602052806000526040600020915061069d9050612595565b6000600b611cb4612595565b906101000a900460ff1615611cd157600080611cce6124d0565b50505b6000848051611ce4929160200190612872565b508260018080611cf2612595565b816001600160a01b0302191690836001600160a01b0316021790611d146125e1565b50505081600260006101000a81611d29612595565b816001600160a01b0302191690836001600160a01b0316021790611d4b6125e1565b50505080600360006101000a81611d60612595565b816001600160a01b0302191690836001600160a01b0316021790611d826125e1565b50505060005a611d90612912565b90506040518060526129a582396052019050604051809103902060405160408082019052600c81526b42617468546f6b656e20763160a01b6020820152805190602001206040516040808201905260018152603160f81b602082015280519060200120835a63996d79a5598160e01b8152602081600483336000905af158600e01573d6000803e3d6000fd5b3d6001141558600a015760016000f35b8051925060005b6040811015611e4a57600082820152602001611e33565b5050506040516020810195909552604080860194909452606085019290925260808401526001600160a01b031660a083015260c0909101905160208183030381529060405280519060200120806009611ea16125e1565b506000199150506001600160a01b03851663095ea7b360006002611ec3612595565b906101000a90046001600160a01b0316836040516001600160e01b031960e085901b1681526001600160a01b039092166004830152602482015260440160206040518083038160008780611f1561262f565b158015611f2a57600080611f276124d0565b50505b505a611f34612766565b505050505050158015611f54573d6000803e3d6000611f516124d0565b50505b505050506040513d6020811015611f7357600080611f706124d0565b50505b8101908080515060019250600b915082905081611f8e612595565b8160ff02191690831515021790611c776125e1565b6001600160a01b038316600090815260076020528190604090206001600160a01b0384166000908152602091909152604090208190611fe06125e1565b505050816001600160a01b0316836001600160a01b03167f8c5be1e5ebec7d5bd14f71427d1e84f3dd0314c0f7b2291e5b200ac8c7c3b9258360405190815260200160405180910390a3505050565b600061206f838360405160408082019052601e81527f536166654d6174683a207375627472616374696f6e206f766572666c6f7700006020820152612328565b9392505050565b6001600160a01b0383166000908152600560205261209c90829060409020610744612595565b6001600160a01b038416600090815260056020526040902081906120be6125e1565b5050506001600160a01b038216600090815260056020526120f3908290604090206120e7612595565b9063ffffffff6123c816565b6001600160a01b038316600090815260056020526040902081906121156125e1565b505050816001600160a01b0316836001600160a01b0316600080516020612a188339815191528360405190815260200160405180910390a3505050565b60008261216157506000610674565b8282028284828161216e57fe5b041461206f5760405162461bcd60e51b81526004018080602001828103825260218152602001806129f760219139604001915050604051809103906121b16124d0565b50509392505050565b600061206f838360405160408082019052601a815279536166654d6174683a206469766973696f6e206279207a65726f60301b6020820152612425565b6001600160a01b0382166000908152600560205261221d90829060409020610744612595565b6001600160a01b0383166000908152600560205260409020819061223f6125e1565b505050612250816004610744612595565b80600461225b6125e1565b5060009150506001600160a01b038316600080516020612a188339815191528360405190815260200160405180910390a35050565b61229e8160046120e7612595565b8060046122a96125e1565b5050506001600160a01b038216600090815260056020526122d2908290604090206120e7612595565b6001600160a01b038316600090815260056020526040902081906122f46125e1565b5050506001600160a01b0382166000600080516020612a188339815191528360405190815260200160405180910390a35050565b600081848411156123c05760405162461bcd60e51b81526004018080602001828103825283818151815260200191508051906020019080838360005b8381101561237c578082015183820152602001612364565b50505050905090810190601f1680156123a95780820380516001836020036101000a031916815260200191505b5092505050604051809103906123bd6124d0565b50505b505050900390565b60008282018381101561206f5760405162461bcd60e51b815260206004820152601b60248201527a536166654d6174683a206164646974696f6e206f766572666c6f7760281b6044820152606401604051809103906121b16124d0565b600081836124ba5760405162461bcd60e51b81526004018080602001828103825283818151815260200191508051906020019080838360005b8381101561247657808201518382015260200161245e565b50505050905090810190601f1680156124a35780820380516001836020036101000a031916815260200191505b5092505050604051809103906124b76124d0565b50505b5060008385816124c657fe5b0495945050505050565b632a2a7adb598160e01b8152600481016020815285602082015260005b868110156125085780860151828201604001526020016124ed565b506020828760640184336000905af158600e01573d6000803e3d6000fd5b3d6001141558600a015760016000f35b505050565b6373509064598160e01b8152602081600483336000905af158600e01573d6000803e3d6000fd5b3d6001141558600a015760016000f35b8051935060005b604081101561259057600082820152602001612579565b505050565b6303daa959598160e01b8152836004820152602081602483336000905af158600e01573d6000803e3d6000fd5b3d6001141558600a015760016000f35b80516000825293506020612579565b6322bd64c0598160e01b8152836004820152846024820152600081604483336000905af158600e01573d6000803e3d6000fd5b3d6001141558600a015760016000f35b600081526020612579565b638435035b598160e01b8152836004820152602081602483336000905af158600e01573d6000803e3d6000fd5b3d6001141558600a015760016000f35b80516000825293506020612579565b638540661f598160e01b81526126ac565b8080831115610674575090919050565b8080831015610674575090919050565b836004820152846024820152606060448201528660648201526084810160005b888110156126e45780880151828201526020016126cc565b506060828960a40184336000905af158600e01573d6000803e3d6000fd5b3d6001141558600a015760016000f35b815160408301513d6000853e8b8b82606087013350600060045af150596127398d3d61269c565b8c01612745818761268c565b5b8281101561275a5760008152602001612746565b50929c50505050505050565b6385979f76598160e01b8152836004820152846024820152606060448201528760648201526084810160005b898110156127aa578089015182820152602001612792565b506060828a60a40184336000905af158600e01573d6000803e3d6000fd5b3d6001141558600a015760016000f35b815160408301513d6000853e8c8c82606087013350600060045af150596127ff8e3d61269c565b8d0161280b818761268c565b5b82811015612820576000815260200161280c565b50929d50505050505050565b63bdbf8c36598160e01b8152602081600483336000905af158600e01573d6000803e3d6000fd5b3d6001141558600a015760016000f35b80516000825293506020612579565b828061287c612595565b600181600116156101000203166002900490600052602060002090601f016020900481019282601f106128c357805160ff191683800117856128bc6125e1565b5050612902565b828001600101856128d26125e1565b50508215612902579182015b82811115612902578251826128f16125e1565b5050916020019190600101906128de565b5061290e929150612958565b5090565b6390580256598160e01b8152602081600483336000905af158600e01573d6000803e3d6000fd5b3d6001141558600a015760016000f35b80516000825293506020612579565b61297d91905b8082111561290e57600080826129726125e1565b50505060010161295e565b9056fe6e6f7420616e20617070726f766564207374726174656779202d2062617468546f6b656e454950373132446f6d61696e28737472696e67206e616d652c737472696e672076657273696f6e2c75696e7432353620636861696e49642c6164647265737320766572696679696e67436f6e747261637429536166654d6174683a206d756c7469706c69636174696f6e206f766572666c6f77ddf252ad1be2c89b69c2b068fc378daa952ba7f163c4a11628f55a4df523b3ef6e71edae12b1b97f4d1f60370fef10105fa2faae0126114a169c64845d6126c96e6f7420616e20617070726f7665642070616972202d2062617468546f6b656e",
  "deployedBytecode": "0x60806040523480156200001c576000806200001962000f43565b50505b5060043610620000ed5760003560e01c806301df192514620000fd57806306fdde031462000145578063158ef93e14620001c95780633b8ae39714620001d3578063418effd3146200020757806360f71b24146200024357806378d02345146200026957806386cbe02714620003a6578063b3d7480e14620003da578063bd1133c01462000416578063c4d66de81462000450578063ca3a86cd1462000484578063d45f3aea14620004b8578063e6a4390514620004ec578063f851a4401462000528578063fbb038f11462000532575b600080620000fa62000f43565b50505b620001316004803603602081101562000120576000806200011d62000f43565b50505b50356001600160a01b03166200055d565b604051901515815260200160405180910390f35b6200014f62000594565b60405160208082528190810183818151815260200191508051906020019080838360005b838110156200018d57808201518382015260200162000173565b50505050905090810190601f168015620001bb5780820380516001836020036101000a031916815260200191505b509250505060405180910390f35b6200013162000659565b6200013160048036036020811015620001f657600080620001f362000f43565b50505b50356001600160a01b031662000674565b62000241600480360360408110156200022a576000806200022762000f43565b50505b506001600160a01b0381351690602001356200070d565b005b6200024d620007f3565b6040516001600160a01b03909116815260200160405180910390f35b6200024d600480360360e08110156200028c576000806200028962000f43565b50505b6001600160a01b038235169190810190604081016020820135600160201b811115620002c257600080620002bf62000f43565b50505b820183602082011115620002e057600080620002dd62000f43565b50505b803590602001918460018302840111600160201b831117156200030d576000806200030a62000f43565b50505b919390926001600160a01b0383351692604081019060200135600160201b81111562000343576000806200034062000f43565b50505b82018360208201111562000361576000806200035e62000f43565b50505b803590602001918460018302840111600160201b831117156200038e576000806200038b62000f43565b50505b91935091508035906020810135906040013562000814565b6200013160048036036020811015620003c957600080620003c662000f43565b50505b50356001600160a01b031662000b6b565b6200024d60048036036040811015620003fd57600080620003fa62000f43565b50505b506001600160a01b038135811691602001351662000bb9565b620002416004803603604081101562000439576000806200043662000f43565b50505b506001600160a01b03813516906020013562000c10565b620002416004803603602081101562000473576000806200047062000f43565b50505b50356001600160a01b031662000ca7565b6200013160048036036020811015620004a757600080620004a462000f43565b50505b50356001600160a01b031662000d83565b6200024d60048036036020811015620004db57600080620004d862000f43565b50505b50356001600160a01b031662000da8565b6200024d600480360360408110156200050f576000806200050c62000f43565b50505b506001600160a01b038135811691602001351662000de4565b6200024d62000e0e565b6200024d6004803603602081101562000555576000806200055262000f43565b50505b503562000e1c565b6001600160a01b03811660009081526007602052604081206000906200058262000fb0565b906101000a900460ff1690505b919050565b600080620005a162000fb0565b600181600116156101000203166002900480601f016020809104026020016040519081016040528181529190602083018280620005dd62000fb0565b60018160011615610100020316600290048015620006515780601f106200061c5761010080836200060d62000fb0565b04028352916020019162000651565b820191906000526020600020905b816200063562000fb0565b815290600101906020018083116200062a57829003601f168201915b505050505081565b600060096200066762000fb0565b906101000a900460ff1681565b60008060036200068362000fb0565b906101000a90046001600160a01b03166001600160a01b03165a620006a762001012565b6001600160a01b031614620006c657600080620006c362000f43565b50505b6001600160a01b0382166000908152600560205260019060409020600181620006ee62000fb0565b8160ff021916908315150217906200070562001059565b505050919050565b600060036200071b62000fb0565b906101000a90046001600160a01b03166001600160a01b03165a6200073f62001012565b6001600160a01b0316146200075e576000806200075b62000f43565b50505b816001600160a01b0316635a7a5cbc826040516001600160e01b031960e084901b168152600481019190915260240160006040518083038160008780620007a4620010a8565b158015620007bc57600080620007b962000f43565b50505b505a620007c8620010f5565b505050505050158015620007eb573d6000803e3d6000620007e862000f43565b50505b505050505050565b600060046200080162000fb0565b906101000a90046001600160a01b031681565b60008060036200082362000fb0565b906101000a90046001600160a01b03166001600160a01b03165a6200084762001012565b6001600160a01b03161462000866576000806200086362000f43565b50505b866001600160a01b03168a6001600160a01b0316141562000891576000806200088e62000f43565b50505b6001600160a01b038a16620008b057600080620008ad62000f43565b50505b6001600160a01b038716620008cf57600080620008cc62000f43565b50505b6001600160a01b038a1660009081526002602052604081206001600160a01b0389166000908152602091909152604090206000906200090d62000fb0565b906101000a90046001600160a01b03166001600160a01b0316146200093c576000806200093962000f43565b50505b6064841062000955576000806200095262000f43565b50505b603c84116200096e576000806200096b62000f43565b50505b60008a8a8a8a8a8a8660046200098362000fb0565b906101000a90046001600160a01b03168b8b8b604051620009a490620011eb565b6001600160a01b03808c16825288811660408301528516608082015260a0810184905260c0810183905260e08101829052610100602082018181529082018a90526060820161012083018c8c80828437600083820152601f01601f191690910184810383528981526020019050898980828437600083820152601f01601f19169091019d5060409c505050505050505050505050505180910390600062000a4a620011f9565b50508015801562000a6a573d6000803e3d600062000a6762000f43565b50505b50905080600180808062000a7d62000fb0565b01808262000a8a62001059565b505060009283529160001983019150602090209192910160018162000aae62000fb0565b816001600160a01b0302191690836001600160a01b031602179062000ad262001059565b5050506001600160a01b038c1660009081526002602052829150604090206001600160a01b038a1660009081526020919091526040902060018162000b1662000fb0565b816001600160a01b0302191690836001600160a01b031602179062000b3a62001059565b50505062000b488162000e4b565b62000b5d88826001600160a01b031662000e73565b9a9950505050505050505050565b6001600160a01b038116600090815260056020526040812060009062000b9062000fb0565b906101000a900460ff16151560011515141562000bb0575060016200058f565b5060006200058f565b6001600160a01b03821660009081526002602052604081206001600160a01b03831660009081526020919091526040902060009062000bf762000fb0565b906101000a90046001600160a01b031690505b92915050565b6000600362000c1e62000fb0565b906101000a90046001600160a01b03166001600160a01b03165a62000c4262001012565b6001600160a01b03161462000c615760008062000c5e62000f43565b50505b816001600160a01b031663023fa1d0826040516001600160e01b031960e084901b168152600481019190915260240160006040518083038160008780620007a4620010a8565b6000600962000cb562000fb0565b906101000a900460ff161562000cd55760008062000cd262000f43565b50505b5a62000ce062001012565b600360018162000cef62000fb0565b816001600160a01b0302191690836001600160a01b031602179062000d1362001059565b50505080600460006101000a8162000d2a62000fb0565b816001600160a01b0302191690836001600160a01b031602179062000d4e62001059565b5050506001600960006101000a8162000d6662000fb0565b8160ff0219169083151502179062000d7d62001059565b50505050565b6001600160a01b038116600090815260066020526040812060009062000b9062000fb0565b6001600160a01b038116600090815260086020526040812060009062000dcd62000fb0565b906101000a90046001600160a01b03169050919050565b60026020528160005260406000206020528060005260406000206000925090506200080162000fb0565b600060036200080162000fb0565b6001818162000e2a62000fb0565b811062000e3357fe5b90600052602060002001600091506200080162000fb0565b6001600160a01b038116600090815260066020526001906040902060018162000d6662000fb0565b6001600160a01b038216600090815260076020526040902060009062000e9862000fb0565b906101000a900460ff161562000eae5762000f3f565b6001600160a01b038216600090815260076020526001906040902060018162000ed662000fb0565b8160ff0219169083151502179062000eed62001059565b5050506001600160a01b0382166000908152600860205281906040902060018162000f1762000fb0565b816001600160a01b0302191690836001600160a01b031602179062000f3b62001059565b5050505b5050565b632a2a7adb598160e01b8152600481016020815285602082015260005b8681101562000f7d57808601518282016040015260200162000f60565b506020828760640184336000905af158601d01573d60011458600c01573d6000803e3d621234565260ea61109c52505050565b6303daa959598160e01b8152836004820152602081602483336000905af158601d01573d60011458600c01573d6000803e3d621234565260ea61109c528051935060005b60408110156200100d5760008282015260200162000ff4565b505050565b6373509064598160e01b8152602081600483336000905af158601d01573d60011458600c01573d6000803e3d621234565260ea61109c528051600082529350602062000ff4565b6322bd64c0598160e01b8152836004820152846024820152600081604483336000905af158601d01573d60011458600c01573d6000803e3d621234565260ea61109c5260008152602062000ff4565b638435035b598160e01b8152836004820152602081602483336000905af158601d01573d60011458600c01573d6000803e3d621234565260ea61109c528051600082529350602062000ff4565b6385979f76598160e01b815262001129565b808083111562000c0a575090919050565b808083101562000c0a575090919050565b836004820152846024820152606060448201528760648201526084810160005b898110156200116357808901518282015260200162001149565b506060828a60a40184336000905af158601d01573d60011458600c01573d6000803e3d621234565260ea61109c52815160408301513d6000853e8c8c82606087013350600060045af15059620011ba8e3d62001118565b8d01620011c8818762001107565b5b82811015620011df5760008152602001620011c9565b50929d50505050505050565b618b47806200127f83390190565b6314aa2ff7598160e01b8152600481016020815286602082015260005b878110156200123357808701518282016040015260200162001216565b506020828860640184336000905af158601d01573d60011458600c01573d6000803e3d621234565260ea61109c528151965059825b8181101562000f3b57600081526020016200126856fe60806040523480156200001c57600080620000196200062c565b50505b5060405162008b4738038062008b478339810160408190526200003f9162000b17565b5a6200004a62000699565b600060018162000059620006f5565b816001600160a01b0302191690836001600160a01b03160217906200007d62000742565b50505060648311156200009a57600080620000976200062c565b50505b60008311620000b357600080620000b06200062c565b50505b82806007620000c162000742565b5050508160098190620000d362000742565b50505080600a8190620000e562000742565b50505087600160006101000a81620000fc620006f5565b816001600160a01b0302191690836001600160a01b03160217906200012062000742565b50505085600260006101000a8162000137620006f5565b816001600160a01b0302191690836001600160a01b03160217906200015b62000742565b50505060006040516200016e9062000791565b604051809103906000620001816200079f565b505080158015620001a1573d6000803e3d60006200019e6200062c565b50505b509050806001600160a01b031663f34822b489604051602001620001c6919062000d08565b6040516020818303038152906040528b8860008090620001e5620006f5565b906101000a90046001600160a01b03166040518563ffffffff1660e01b815260040162000216949392919062000d3a565b600060405180830381600087806200022d6200082b565b1580156200024557600080620002426200062c565b50505b505a6200025162000878565b50505050505015801562000274573d6000803e3d6000620002716200062c565b50505b5050505080600360006101000a816200028c620006f5565b816001600160a01b0302191690836001600160a01b0316021790620002b062000742565b50505060008090620002c1620006f5565b906101000a90046001600160a01b03166001600160a01b03166301df1925886040518263ffffffff1660e01b8152600401620002fe919062000d2a565b6020604051808303818680620003136200082b565b1580156200032b57600080620003286200062c565b50505b505a6200033762000970565b505050505015801562000359573d6000803e3d6000620003566200062c565b50505b50505050604051601f3d908101601f191682016040526200037e919081019062000c29565b156200048f576000808062000392620006f5565b906101000a90046001600160a01b03166001600160a01b031663d45f3aea896040518263ffffffff1660e01b8152600401620003cf919062000d2a565b6020604051808303818680620003e46200082b565b158015620003fc57600080620003f96200062c565b50505b505a6200040862000970565b50505050501580156200042a573d6000803e3d6000620004276200062c565b50505b50505050604051601f3d908101601f191682016040526200044f919081019062000ae3565b905080600460018162000461620006f5565b816001600160a01b0302191690836001600160a01b03160217906200048562000742565b50505050620005e6565b60006040516200049f9062000791565b604051809103906000620004b26200079f565b505080158015620004d2573d6000803e3d6000620004cf6200062c565b50505b509050806001600160a01b031663f34822b488604051602001620004f7919062000d08565b6040516020818303038152906040528a896000809062000516620006f5565b906101000a90046001600160a01b03166040518563ffffffff1660e01b815260040162000547949392919062000d3a565b600060405180830381600087806200055e6200082b565b1580156200057657600080620005736200062c565b50505b505a6200058262000878565b505050505050158015620005a5573d6000803e3d6000620005a26200062c565b50505b5050505080600460006101000a81620005bd620006f5565b816001600160a01b0302191690836001600160a01b0316021790620005e162000742565b505050505b846005600181620005f6620006f5565b816001600160a01b0302191690836001600160a01b03160217906200061a62000742565b50505050505050505050505062000ea9565b632a2a7adb598160e01b8152600481016020815285602082015260005b868110156200066657808601518282016040015260200162000649565b506020828760640184336000905af158601d01573d60011458600c01573d6000803e3d621234565260ea61109c52505050565b6373509064598160e01b8152602081600483336000905af158601d01573d60011458600c01573d6000803e3d621234565260ea61109c528051935060005b6040811015620006f057600082820152602001620006d7565b505050565b6303daa959598160e01b8152836004820152602081602483336000905af158601d01573d60011458600c01573d6000803e3d621234565260ea61109c5280516000825293506020620006d7565b6322bd64c0598160e01b8152836004820152846024820152600081604483336000905af158601d01573d60011458600c01573d6000803e3d621234565260ea61109c52600081526020620006d7565b612b18806200602f83390190565b6314aa2ff7598160e01b8152600481016020815286602082015260005b87811015620007d9578087015182820160400152602001620007bc565b506020828860640184336000905af158601d01573d60011458600c01573d6000803e3d621234565260ea61109c528151965059825b818110156200082457600081526020016200080e565b5050505050565b638435035b598160e01b8152836004820152602081602483336000905af158601d01573d60011458600c01573d6000803e3d621234565260ea61109c5280516000825293506020620006d7565b6385979f76598160e01b8152620008ae565b8080831115620008975750815b92915050565b808083101562000897575090919050565b836004820152846024820152606060448201528760648201526084810160005b89811015620008e8578089015182820152602001620008ce565b506060828a60a40184336000905af158601d01573d60011458600c01573d6000803e3d621234565260ea61109c52815160408301513d6000853e8c8c82606087013350600060045af150596200093f8e3d6200089d565b8d016200094d81876200088a565b5b828110156200096457600081526020016200094e565b50929d50505050505050565b638540661f598160e01b8152836004820152846024820152606060448201528660648201526084810160005b88811015620009b65780880151828201526020016200099c565b506060828960a40184336000905af158601d01573d60011458600c01573d6000803e3d621234565260ea61109c52815160408301513d6000853e8b8b82606087013350600060045af1505962000a0d8d3d6200089d565b8c0162000a1b81876200088a565b5b8281101562000a32576000815260200162000a1c565b50929c50505050505050565b600081519050620008978162000e71565b600081519050620008978162000e93565b600082601f83011262000a7d5760008062000a7a6200062c565b50505b815162000a9462000a8e8262000dbb565b62000d85565b9150808252602083016020830185838301111562000abc5760008062000ab96200062c565b50505b62000ac983828462000e34565b50505092915050565b600081519050620008978162000e9e565b60006020828403121562000b015760008062000afe6200062c565b50505b600062000b0f848462000a3e565b949350505050565b600080600080600080600080610100898b03121562000b405760008062000b3d6200062c565b50505b600062000b4e8b8b62000a3e565b98505060208901516001600160401b0381111562000b765760008062000b736200062c565b50505b62000b848b828c0162000a60565b975050604062000b978b828c0162000a3e565b96505060608901516001600160401b0381111562000bbf5760008062000bbc6200062c565b50505b62000bcd8b828c0162000a60565b955050608062000be08b828c0162000a3e565b94505060a062000bf38b828c0162000ad2565b93505060c062000c068b828c0162000ad2565b92505060e062000c198b828c0162000ad2565b9150509295985092959890939650565b60006020828403121562000c475760008062000c446200062c565b50505b600062000b0f848462000a4f565b62000c608162000e06565b82525050565b62000c608162000e27565b600062000c7e8262000dee565b62000c8a818562000df8565b935062000c9c81856020860162000e34565b62000ca78162000e67565b9093019392505050565b600062000cbe8262000dee565b62000cca818562000e01565b935062000cdc81856020860162000e34565b9290920192915050565b600062000cf560048362000e01565b630c4c2e8d60e31b815260040192915050565b600062000d158262000ce6565b915062000d23828462000cb1565b9392505050565b6020810162000897828462000c55565b6080808252810162000d4d818762000c71565b905062000d5e602083018662000c66565b62000d6d604083018562000c55565b62000d7c606083018462000c55565b95945050505050565b600060405190508181018181106001600160401b038211171562000db35760008062000db06200062c565b50505b604052919050565b60006001600160401b0382111562000ddd5760008062000dda6200062c565b50505b506020601f91909101601f19160190565b6000815192915050565b90815260200190565b919050565b6000620008978262000e18565b151590565b6001600160a01b031690565b90565b6000620008978262000e06565b60005b8381101562000e5157808201518382015260200162000e37565b8381111562000e61576000848401525b50505050565b601f01601f191690565b62000e7c8162000e06565b811462000e9057600080620006f06200062c565b50565b62000e7c8162000e13565b62000e7c8162000e24565b6151768062000eb96000396000f3fe6080604052348015610019576000806100166141ad565b50505b50600436106101105760003560e01c8063023fa1d01461011e5780630c7d5cd8146101335780630d4741581461015157806332bdd13c146101645780633c4fc85d1461018d57806357556172146101955780635a7a5cbc146101a857806360c38b28146101bb57806360f71b24146101d0578063613e8993146101d8578063649fb7c3146101e057806364ae722a146101f35780637158da7c1461020657806371a4188b1461020e5780637d1c98fa146102215780638f259e451461023457806398ef30411461023c578063a7001d2314610244578063ac4d352014610257578063af07acb21461025f578063c9dec36114610267575b60008061011b6141ad565b50505b61013161012c3660046147f3565b61026f565b005b61013b6102ca565b604051610148919061503e565b60405180910390f35b61013b61015f3660046148ab565b6102d7565b6101776101723660046147f3565b610311565b6040516101489a99989796959493929190614dea565b610131610416565b6101316101a33660046147a5565b6108c4565b6101316101b63660046147f3565b6109f9565b6101c3610a4e565b6040516101489190614d4a565b6101c3610a6c565b6101c3610a78565b6101c36101ee3660046147f3565b610a84565b610131610201366004614727565b610a9e565b6101c3611707565b61013b61021c3660046146b5565b611713565b61013b61022f3660046146b5565b61172b565b61013b611743565b6101c361174d565b61013b6102523660046146e4565b611759565b61013b611cee565b6101c3611cf8565b61013b611d04565b60008061027a614218565b906101000a90046001600160a01b03166001600160a01b03165a61029c614273565b6001600160a01b0316146102b8576000806102b56141ad565b50505b808060096102c46142b9565b50505050565b60076102d4614218565b81565b600682816102e3614218565b81106102eb57fe5b9060005260206000209060030201816003811061030457fe5b0191506102d49050614218565b600e818161031d614218565b811061032557fe5b906000526020600020600d909102019050600081610341614218565b906101000a90046001600160a01b03169080600101600090610361614218565b906101000a90046001600160a01b03169080600201600090610381614218565b906101000a90046001600160a01b031690806003016000906103a1614218565b906101000a90046001600160a01b031690806004016103be614218565b90806005016103cb614218565b90806006016103d8614218565b90806007016103e5614218565b906000600882016103f4614218565b906101000a90046001600160a01b03169080600901610411614218565b90508a565b6000600c60005a610425614273565b6001600160a01b03166001600160a01b0316815260200190815260200160002061044d614218565b90506000600d60005a61045e614273565b6001600160a01b03166001600160a01b03168152602001908152602001600020610486614218565b905081156106a4576000600f61049a614218565b600060016104a6614218565b906101000a90046001600160a01b03166001600160a01b03166370a082315a63996d79a5598160e01b8152602081600483336000905af158601d01573d60011458600c01573d6000803e3d621234565260ea61109c528051925060005b604081101561051a57600082820152602001610503565b5050506040518263ffffffff1660e01b81526004016105399190614d4a565b602060405180830381868061054c614307565b1580156105615760008061055e6141ad565b50505b505a61056b614353565b505050505015801561058a573d6000803e3d60006105876141ad565b50505b50505050604051601f3d908101601f191682016040526105ad919081019061481a565b8402816105b657fe5b049050600060016105c5614218565b906101000a90046001600160a01b03166001600160a01b031663a9059cbb5a6105ec614273565b836040518363ffffffff1660e01b815260040161060a929190614d58565b6020604051808303816000878061061f614307565b158015610634576000806106316141ad565b50505b505a61063e61443e565b50505050505015801561065e573d6000803e3d600061065b6141ad565b50505b50505050604051601f3d908101601f1916820160405261068191908101906147cc565b5082600f60008282610691614218565b03925050819061069f6142b9565b505050505b80156108c057600060106106b6614218565b600060026106c2614218565b906101000a90046001600160a01b03166001600160a01b03166370a082315a63996d79a5598160e01b8152602081600483336000905af158601d01573d60011458600c01573d6000803e3d621234565260ea61109c528051925060005b60408110156107365760008282015260200161071f565b5050506040518263ffffffff1660e01b81526004016107559190614d4a565b6020604051808303818680610768614307565b15801561077d5760008061077a6141ad565b50505b505a610787614353565b50505050501580156107a6573d6000803e3d60006107a36141ad565b50505b50505050604051601f3d908101601f191682016040526107c9919081019061481a565b8302816107d257fe5b049050600060026107e1614218565b906101000a90046001600160a01b03166001600160a01b031663a9059cbb5a610808614273565b836040518363ffffffff1660e01b8152600401610826929190614d58565b6020604051808303816000878061083b614307565b1580156108505760008061084d6141ad565b50505b505a61085a61443e565b50505050505015801561087a573d6000803e3d60006108776141ad565b50505b50505050604051601f3d908101601f1916820160405261089d91908101906147cc565b50816010600082826108ad614218565b0392505081906108bb6142b9565b505050505b5050565b5a6108cd614273565b6000806108d8614218565b906101000a90046001600160a01b03166001600160a01b03166386cbe027826040518263ffffffff1660e01b81526004016109139190614d4a565b6020604051808303818680610926614307565b15801561093b576000806109386141ad565b50505b505a610945614353565b5050505050158015610964573d6000803e3d60006109616141ad565b50505b50505050604051601f3d908101601f1916820160405261098791908101906147cc565b15156001146109ba5760405162461bcd60e51b81526004016109a890614eff565b604051809103906109b76141ad565b50505b816006806001816109c9614218565b0180826109d46142b9565b5050600092835291600019830191506020902091926102c49260039283020191614504565b600080610a04614218565b906101000a90046001600160a01b03166001600160a01b03165a610a26614273565b6001600160a01b031614610a4257600080610a3f6141ad565b50505b8080600a6102c46142b9565b600080610a59614218565b906101000a90046001600160a01b031681565b60006005610a59614218565b60006002610a59614218565b600b60205280600052604060002060009150610a59614218565b84600080610aaa614218565b906101000a90046001600160a01b03166001600160a01b03166386cbe027826040518263ffffffff1660e01b8152600401610ae59190614d4a565b6020604051808303818680610af8614307565b158015610b0d57600080610b0a6141ad565b50505b505a610b17614353565b5050505050158015610b36573d6000803e3d6000610b336141ad565b50505b50505050604051601f3d908101601f19168201604052610b5991908101906147cc565b1515600114610b8c5760405162461bcd60e51b8152600401610b7a90614eff565b60405180910390610b896141ad565b50505b60006001610b98614218565b6001600160a01b036101009290920a9004166370a0823160006003610bbb614218565b906101000a90046001600160a01b03166040518263ffffffff1660e01b8152600401610be79190614d4a565b6020604051808303818680610bfa614307565b158015610c0f57600080610c0c6141ad565b50505b505a610c19614353565b5050505050158015610c38573d6000803e3d6000610c356141ad565b50505b50505050604051601f3d908101601f19168201604052610c5b919081019061481a565b60646007610c67614218565b60006003610c73614218565b906101000a90046001600160a01b03166001600160a01b03166318160ddd6040518163ffffffff1660e01b81526004016020604051808303818680610cb6614307565b158015610ccb57600080610cc86141ad565b50505b505a610cd5614353565b5050505050158015610cf4573d6000803e3d6000610cf16141ad565b50505b50505050604051601f3d908101601f19168201604052610d17919081019061481a565b0281610d1f57fe5b041115610d3457600080610d316141ad565b50505b60006002610d40614218565b6001600160a01b036101009290920a9004166370a0823160006004610d63614218565b906101000a90046001600160a01b03166040518263ffffffff1660e01b8152600401610d8f9190614d4a565b6020604051808303818680610da2614307565b158015610db757600080610db46141ad565b50505b505a610dc1614353565b5050505050158015610de0573d6000803e3d6000610ddd6141ad565b50505b50505050604051601f3d908101601f19168201604052610e03919081019061481a565b60646007610e0f614218565b60006004610e1b614218565b906101000a90046001600160a01b03166001600160a01b03166318160ddd6040518163ffffffff1660e01b81526004016020604051808303818680610e5e614307565b158015610e7357600080610e706141ad565b50505b505a610e7d614353565b5050505050158015610e9c573d6000803e3d6000610e996141ad565b50505b50505050604051601f3d908101601f19168201604052610ebf919081019061481a565b0281610ec757fe5b041115610edc57600080610ed96141ad565b50505b600085118015610eec5750600084115b8015610ef85750600083115b8015610f045750600082115b610f1657600080610f136141ad565b50505b610f5760006001610f25614218565b906101000a90046001600160a01b03166003600090610f42614218565b906101000a90046001600160a01b0316611759565b851115610f885760405162461bcd60e51b8152600401610f769061501e565b60405180910390610f856141ad565b50505b610fb460006002610f97614218565b906101000a90046001600160a01b03166004600090610f42614218565b831115610fe55760405162461bcd60e51b8152600401610fd390614fae565b60405180910390610fe26141ad565b50505b610ff185858585611d0e565b6001600160a01b038616639958525f6000600161100c614218565b906101000a90046001600160a01b03166003600090611029614218565b906101000a90046001600160a01b03166002600090611046614218565b906101000a90046001600160a01b03166004600090611063614218565b906101000a90046001600160a01b03168a8a8a8a6040518963ffffffff1660e01b815260040161109a989796959493929190614d73565b600060405180830381600087806110af614307565b1580156110c4576000806110c16141ad565b50505b505a6110ce61443e565b5050505050501580156110ee573d6000803e3d60006110eb6141ad565b50505b50505050600e6040516101608101604052806000600161110c614218565b6001600160a01b036101009290920a90041681526020016000600361112f614218565b6001600160a01b036101009290920a900416815260200160006002611152614218565b6001600160a01b036101009290920a900416815260200160006004611175614218565b906101000a90046001600160a01b03166001600160a01b031681526020018781526020018681526020018581526020018481526020015a6111b4614273565b6001600160a01b031681526020015a6111cb61454b565b81526020016111d8611fc6565b905290806001816111e7614218565b0180826111f26142b9565b50506000928352916000198301915060209020919291600d9091020181518160018161121c614218565b816001600160a01b0302191690836001600160a01b031602179061123e6142b9565b505050602082015160018083019081611255614218565b816001600160a01b0302191690836001600160a01b03160217906112776142b9565b50505060408201516002820160018161128e614218565b816001600160a01b0302191690836001600160a01b03160217906112b06142b9565b5050506060820151600382016001816112c7614218565b816001600160a01b0302191690836001600160a01b03160217906112e96142b9565b5050506080820151816004016112fd6142b9565b505060a0820151816005016113106142b9565b505060c0820151816006016113236142b9565b505060e0820151816007016113366142b9565b50506101008201516008820160018161134d614218565b816001600160a01b0302191690836001600160a01b031602179061136f6142b9565b505050610120820151816009016113846142b9565b505061014082015161139c90600a8301906003614591565b505050506113a8612093565b6113b0612975565b600060016113bc614218565b6001600160a01b036101009290920a9004166370a08231600060036113df614218565b906101000a90046001600160a01b03166040518263ffffffff1660e01b815260040161140b9190614d4a565b602060405180830381868061141e614307565b158015611433576000806114306141ad565b50505b505a61143d614353565b505050505015801561145c573d6000803e3d60006114596141ad565b50505b50505050604051601f3d908101601f1916820160405261147f919081019061481a565b6064600761148b614218565b60006003611497614218565b906101000a90046001600160a01b03166001600160a01b03166318160ddd6040518163ffffffff1660e01b815260040160206040518083038186806114da614307565b1580156114ef576000806114ec6141ad565b50505b505a6114f9614353565b5050505050158015611518573d6000803e3d60006115156141ad565b50505b50505050604051601f3d908101601f1916820160405261153b919081019061481a565b028161154357fe5b041115611558576000806115556141ad565b50505b60006002611564614218565b6001600160a01b036101009290920a9004166370a0823160006004611587614218565b906101000a90046001600160a01b03166040518263ffffffff1660e01b81526004016115b39190614d4a565b60206040518083038186806115c6614307565b1580156115db576000806115d86141ad565b50505b505a6115e5614353565b5050505050158015611604573d6000803e3d60006116016141ad565b50505b50505050604051601f3d908101601f19168201604052611627919081019061481a565b60646007611633614218565b6000600461163f614218565b906101000a90046001600160a01b03166001600160a01b03166318160ddd6040518163ffffffff1660e01b81526004016020604051808303818680611682614307565b158015611697576000806116946141ad565b50505b505a6116a1614353565b50505050501580156116c0573d6000803e3d60006116bd6141ad565b50505b50505050604051601f3d908101601f191682016040526116e3919081019061481a565b02816116eb57fe5b0411156108bb576000806116fd6141ad565b5050505050505050565b60006001610a59614218565b600d60205280600052604060002090506102d4614218565b600c60205280600052604060002090506102d4614218565b600a6102d4614218565b60006003610a59614218565b6000806001611766614218565b906101000a90046001600160a01b03166001600160a01b0316836001600160a01b031614806117c157506000600261179c614218565b906101000a90046001600160a01b03166001600160a01b0316836001600160a01b0316145b6117d3576000806117d06141ad565b50505b603260006001600160a01b0385166370a08231856040518263ffffffff1660e01b81526004016118039190614d4a565b6020604051808303818680611816614307565b15801561182b576000806118286141ad565b50505b505a611835614353565b5050505050158015611854573d6000803e3d60006118516141ad565b50505b50505050604051601f3d908101601f19168201604052611877919081019061481a565b9050600080516020615116833981519152816040516118969190614f5e565b60405180910390a1600080516020615116833981519152600060026118b9614218565b6001600160a01b036101009290920a9004166370a08231600060046118dc614218565b906101000a90046001600160a01b03166040518263ffffffff1660e01b81526004016119089190614d4a565b602060405180830381868061191b614307565b1580156119305760008061192d6141ad565b50505b505a61193a614353565b5050505050158015611959573d6000803e3d60006119566141ad565b50505b50505050604051601f3d908101601f1916820160405261197c919081019061481a565b6040516119899190614fee565b60405180910390a160006119a16004196103e8612f4e565b9050600080516020615136833981519152816040516119c09190614ffe565b60405180910390a1600060016119d4614218565b906101000a90046001600160a01b03166001600160a01b0316866001600160a01b03161415611c38576000611ad683826002611a0e614218565b6001600160a01b036101009290920a9004166370a0823160006004611a31614218565b906101000a90046001600160a01b03166040518263ffffffff1660e01b8152600401611a5d9190614d4a565b6020604051808303818680611a70614307565b158015611a8557600080611a826141ad565b50505b505a611a8f614353565b5050505050158015611aae573d6000803e3d6000611aab6141ad565b50505b50505050604051601f3d908101601f19168201604052611ad1919081019061481a565b612fba565b905060008051602061513683398151915281604051611af59190614f1f565b60405180910390a1600160401b611b1382611b0e613000565b613262565b600f0b1315611b5457600080516020615116833981519152606485850204604051611b3e9190614f4e565b60405180910390a1505060649102049050611ce8565b60648385020460008051602061511683398151915281604051611b779190614f7e565b60405180910390a16000611b94611b8c61329e565b611ad16132a5565b905060008051602061513683398151915281604051611bb39190614fce565b60405180910390a16000611bcf611bca8686613262565b6132ac565b905060008051602061513683398151915281604051611bee9190614fde565b60405180910390a16000611c028285613310565b905060008051602061511683398151915281604051611c219190614f3e565b60405180910390a19750611ce89650505050505050565b60006002611c44614218565b906101000a90046001600160a01b03166001600160a01b0316866001600160a01b03161415611ce4576000611ca183826001611c7e614218565b6001600160a01b036101009290920a9004166370a0823160006003611a31614218565b9050600160401b611cb982611cb4613000565b612f4e565b600f0b1315611b5457600080516020615116833981519152606485850204604051611b3e9190614ed0565b5050505b92915050565b60086102d4614218565b60006004610a59614218565b60096102d4614218565b82820281850210611d435760405162461bcd60e51b8152600401611d3190614f9e565b60405180910390611d406141ad565b50505b6000806005611d50614218565b6001600160a01b036101009290920a900416630374fc6f60006001611d73614218565b906101000a90046001600160a01b03166002600090611d90614218565b906101000a90046001600160a01b03166040518363ffffffff1660e01b8152600401611dbd929190614eb5565b6020604051808303818680611dd0614307565b158015611de557600080611de26141ad565b50505b505a611def614353565b5050505050158015611e0e573d6000803e3d6000611e0b6141ad565b50505b50505050604051601f3d908101601f19168201604052611e31919081019061481a565b90506000806005611e40614218565b6001600160a01b036101009290920a900416630374fc6f60006002611e63614218565b906101000a90046001600160a01b03166001600090611e80614218565b906101000a90046001600160a01b03166040518363ffffffff1660e01b8152600401611ead929190614eb5565b6020604051808303818680611ec0614307565b158015611ed557600080611ed26141ad565b50505b505a611edf614353565b5050505050158015611efe573d6000803e3d6000611efb6141ad565b50505b50505050604051601f3d908101601f19168201604052611f21919081019061481a565b9050611f2b6145c8565b611f3483613393565b9050611f3e6145c8565b611f4783613393565b9050868160400151028151890210611f835760405162461bcd60e51b8152600401611f7190614fbe565b60405180910390611f806141ad565b50505b8582604001510285835102106116fd5760405162461bcd60e51b8152600401611fab9061500e565b60405180910390611fba6141ad565b50505050505050505050565b611fce6145ee565b5a611fd761454b565b60066001600680611fe6614218565b90500381611ff2614218565b8110611ffa57fe5b906000526020600020600390910201600201612014614218565b14612027576000806120246141ad565b50505b60066001600680612036614218565b90500381612042614218565b811061204a57fe5b90600052602060002060039182020190606060405190810160405291906060830182845b81612077614218565b8152602001906001019080831161206e57505050505090505b90565b600a61209d614218565b6006806120a8614218565b9050106120d95760405162461bcd60e51b81526004016120c790614eef565b604051809103906120d66141ad565b50505b60005b6006806120e7614218565b9050811015612971576120f86145c8565b61212f60068381612107614218565b811061210f57fe5b90600052602060002060039091020160005b0161212a614218565b613393565b90506121396145c8565b61216660068481612148614218565b811061215057fe5b9060005260206000206003909102016001612121565b905081511580156121845750600060208301516001600160a01b0316145b801561219257508160400151155b80156121ab5750600060608301516001600160a01b0316145b80156121f957508051158015906121d05750600060208201516001600160a01b031614155b80156121df5750806040015115155b80156121f95750600060608201516001600160a01b031614155b15612392576000600461220a614218565b906101000a90046001600160a01b03166001600160a01b03166340e58ee560068581612234614218565b811061223c57fe5b906000526020600020600390910201600101612256614218565b6040518263ffffffff1660e01b8152600401612272919061503e565b60006040518083038160008780612287614307565b15801561229c576000806122996141ad565b50505b505a6122a661443e565b5050505050501580156122c6573d6000803e3d60006122c36141ad565b50505b50505050600080516020615156833981519152600684816122e5614218565b81106122ed57fe5b906000526020600020600390910201600101612307614218565b8360200151845160405161231d9392919061504c565b60405180910390a160068381612331614218565b811061233957fe5b9060005260206000206123519160030201600061460a565b61238a60068481612360614218565b811061236857fe5b90600052602060002060039091020160005b01612383614218565b600061349f565b505050612973565b8151158015906123b05750600060208301516001600160a01b031614155b80156123bf5750816040015115155b80156123d95750600060208301516001600160a01b031614155b8015612423575080511580156123fc5750600060208201516001600160a01b0316145b801561240a57508060400151155b80156124235750600060608201516001600160a01b0316145b156125b05760006003612434614218565b906101000a90046001600160a01b03166001600160a01b03166340e58ee56006858161245e614218565b811061246657fe5b9060005260206000206003919091020161247e614218565b6040518263ffffffff1660e01b815260040161249a919061503e565b600060405180830381600087806124af614307565b1580156124c4576000806124c16141ad565b50505b505a6124ce61443e565b5050505050501580156124ee573d6000803e3d60006124eb6141ad565b50505b505050506000805160206151568339815191526006848161250d614218565b811061251557fe5b9060005260206000206003919091020161252d614218565b826020015183516040516125439392919061504c565b60405180910390a160068381612557614218565b811061255f57fe5b9060005260206000206125779160030201600061460a565b61238a60068481612586614218565b811061258e57fe5b90600052602060002060039091020160015b016125a9614218565b600161349f565b8151158015906125ce5750600060208301516001600160a01b031614155b80156125dd5750816040015115155b80156125f75750600060208301516001600160a01b031614155b8015612645575080511580159061261c5750600060208201516001600160a01b031614155b801561262b5750806040015115155b80156126455750600060608201516001600160a01b031614155b15612967576009612654614218565b5a61265d61454b565b036006848161266a614218565b811061267257fe5b90600052602060002060039091020160020161268c614218565b101561290d576000600361269e614218565b906101000a90046001600160a01b03166001600160a01b03166340e58ee5600685816126c8614218565b81106126d057fe5b906000526020600020600391909102016126e8614218565b6040518263ffffffff1660e01b8152600401612704919061503e565b60006040518083038160008780612719614307565b15801561272e5760008061272b6141ad565b50505b505a61273861443e565b505050505050158015612758573d6000803e3d60006127556141ad565b50505b5050505060008051602061515683398151915260068481612777614218565b811061277f57fe5b90600052602060002060039190910201612797614218565b826020015183516040516127ad9392919061504c565b60405180910390a1600060036127c1614218565b906101000a90046001600160a01b03166001600160a01b03166340e58ee5600685816127eb614218565b81106127f357fe5b90600052602060002060039091020160010161280d614218565b6040518263ffffffff1660e01b8152600401612829919061503e565b6000604051808303816000878061283e614307565b158015612853576000806128506141ad565b50505b505a61285d61443e565b50505050505015801561287d573d6000803e3d600061287a6141ad565b50505b505050506000805160206151568339815191526006848161289c614218565b81106128a457fe5b9060005260206000206003909102016001016128be614218565b826020015183516040516128d49392919061504c565b60405180910390a1600683816128e8614218565b81106128f057fe5b9060005260206000206129089160030201600061460a565b612967565b61293a6006848161291c614218565b811061292457fe5b906000526020600020600390910201600161237a565b61296760068481612949614218565b811061295157fe5b90600052602060002060039091020160006125a0565b50506001016120dc565b505b565b6000806002612982614218565b6001600160a01b036101009290920a9004166370a08231600060036129a5614218565b906101000a90046001600160a01b03166040518263ffffffff1660e01b81526004016129d19190614d4a565b60206040518083038186806129e4614307565b1580156129f9576000806129f66141ad565b50505b505a612a03614353565b5050505050158015612a22573d6000803e3d6000612a1f6141ad565b50505b50505050604051601f3d908101601f19168201604052612a45919081019061481a565b90506000806001612a54614218565b6001600160a01b036101009290920a9004166370a0823160006004612a77614218565b906101000a90046001600160a01b03166040518263ffffffff1660e01b8152600401612aa39190614d4a565b6020604051808303818680612ab6614307565b158015612acb57600080612ac86141ad565b50505b505a612ad5614353565b5050505050158015612af4573d6000803e3d6000612af16141ad565b50505b50505050604051601f3d908101601f19168201604052612b17919081019061481a565b90508115612c375760006003612b2b614218565b6001600160a01b036101009290920a90041663b3f865f760006004612b4e614218565b906101000a90046001600160a01b03166002600090612b6b614218565b906101000a90046001600160a01b031660056040518463ffffffff1660e01b8152600401612b9b93929190614e7f565b60006040518083038160008780612bb0614307565b158015612bc557600080612bc26141ad565b50505b505a612bcf61443e565b505050505050158015612bef573d6000803e3d6000612bec6141ad565b50505b505050506000805160206150f68339815191526004600090612c0f614218565b906101000a90046001600160a01b031683604051612c2e929190614ea7565b60405180910390a15b8015612d555760006004612c49614218565b6001600160a01b036101009290920a90041663b3f865f760006003612c6c614218565b906101000a90046001600160a01b03166001600090612c89614218565b906101000a90046001600160a01b031660056040518463ffffffff1660e01b8152600401612cb993929190614e7f565b60006040518083038160008780612cce614307565b158015612ce357600080612ce06141ad565b50505b505a612ced61443e565b505050505050158015612d0d573d6000803e3d6000612d0a6141ad565b50505b505050506000805160206150f68339815191526003600090612d2d614218565b906101000a90046001600160a01b031682604051612d4c929190614ea7565b60405180910390a15b60006001612d61614218565b6001600160a01b036101009290920a9004166370a0823160006004612d84614218565b906101000a90046001600160a01b03166040518263ffffffff1660e01b8152600401612db09190614d4a565b6020604051808303818680612dc3614307565b158015612dd857600080612dd56141ad565b50505b505a612de2614353565b5050505050158015612e01573d6000803e3d6000612dfe6141ad565b50505b50505050604051601f3d908101601f19168201604052612e24919081019061481a565b15612e535760405162461bcd60e51b8152600401612e419061502e565b60405180910390612e506141ad565b50505b60006002612e5f614218565b6001600160a01b036101009290920a9004166370a0823160006003612e82614218565b906101000a90046001600160a01b03166040518263ffffffff1660e01b8152600401612eae9190614d4a565b6020604051808303818680612ec1614307565b158015612ed657600080612ed36141ad565b50505b505a612ee0614353565b5050505050158015612eff573d6000803e3d6000612efc6141ad565b50505b50505050604051601f3d908101601f19168201604052612f22919081019061481a565b156108c05760405162461bcd60e51b8152600401612f3f9061502e565b604051809103906102c46141ad565b600081600f0b60001415612f6a57600080612f676141ad565b50505b600082600f0b604085600f0b901b81612f7f57fe5b05905060016001607f1b03198112801590612fa1575060016001607f1b038113155b612fb357600080612fb06141ad565b50505b9392505050565b600081612fcf57600080612fcc6141ad565b50505b6000612fdb84846135e9565b905060016001607f1b036001600160801b0382161115612fb357600080612fb06141ad565b60008080600561300e614218565b6001600160a01b036101009290920a900416630374fc6f60006001613031614218565b906101000a90046001600160a01b0316600260009061304e614218565b906101000a90046001600160a01b03166040518363ffffffff1660e01b815260040161307b929190614eb5565b602060405180830381868061308e614307565b1580156130a3576000806130a06141ad565b50505b505a6130ad614353565b50505050501580156130cc573d6000803e3d60006130c96141ad565b50505b50505050604051601f3d908101601f191682016040526130ef919081019061481a565b905060008060056130fe614218565b6001600160a01b036101009290920a900416630374fc6f60006002613121614218565b906101000a90046001600160a01b0316600160009061313e614218565b906101000a90046001600160a01b03166040518363ffffffff1660e01b815260040161316b929190614eb5565b602060405180830381868061317e614307565b158015613193576000806131906141ad565b50505b505a61319d614353565b50505050501580156131bc573d6000803e3d60006131b96141ad565b50505b50505050604051601f3d908101601f191682016040526131df919081019061481a565b90506131e96145c8565b6131f283613393565b90506131fc6145c8565b61320583613393565b90506000613232826040015183518161321a57fe5b04845185604001518161322957fe5b04016002612fba565b9050600080516020615136833981519152816040516132519190614f6e565b60405180910390a194505050505090565b6000600f83810b9083900b0260401d60016001607f1b03198112801590612fa1575060016001607f1b03811315612fb357600080612fb06141ad565b620425d490565b620186a090565b6000600160461b82600f0b126132ca576000806132c76141ad565b50505b6001600160461b031982600f0b12156132e55750600061330b565b613308608083600f0b700171547652b82fe1777d0ffda0d23a7d1202901d61374a565b90505b919050565b60008161331f57506000611ce8565b600083600f0b1215613339576000806133366141ad565b50505b600f83900b6001600160801b038316810260401c90608084901c026001600160c01b038111156133715760008061336e6141ad565b50505b60401b811981111561338b576000806133886141ad565b50505b019392505050565b61339b6145c8565b60008080808060056133ab614218565b906101000a90046001600160a01b03166001600160a01b0316634579268a876040518263ffffffff1660e01b81526004016133e6919061503e565b60806040518083038186806133f9614307565b15801561340e5760008061340b6141ad565b50505b505a613418614353565b5050505050158015613437573d6000803e3d60006134346141ad565b50505b50505050604051601f3d908101601f1916820160405261345a9190810190614841565b935093509350935061346a6145c8565b6040516080810160409081529581526001600160a01b0394851660208201529485019290925290911660608301525092915050565b6000828152600b602052604081206000906134b8614218565b906101000a90046001600160a01b03169050811561355c576001600160a01b0381166000908152600c60205260019060409020600082826134f7614218565b0192505081906135056142b9565b5050506001600f60008282613518614218565b0192505081906135266142b9565b505050600080516020615116833981519152600f613542614218565b60405161354f9190614f8e565b60405180910390a16135e4565b6001600160a01b0381166000908152600d6020526001906040902060008282613583614218565b0192505081906135916142b9565b50505060016010600082826135a4614218565b0192505081906135b26142b9565b50505060008051602061511683398151915260106135ce614218565b6040516135db9190614f0f565b60405180910390a15b505050565b6000816135fe576000806135fb6141ad565b50505b60006001600160c01b0384116136235782604085901b8161361b57fe5b049050613730565b60c084811c600160201b811061363b576020918201911c5b62010000811061364d576010918201911c5b610100811061365e576008918201911c5b6010811061366e576004918201911c5b6004811061367e576002918201911c5b6002811061368d576001820191505b60bf820360018603901c6001018260ff0387901b816136a857fe5b0492506001600160801b038311156136c8576000806136c56141ad565b50505b608085901c83026001600160801b038616840260c088901c604089901b828110156136f4576001820391505b608084901b9290038281101561370b576001820391505b829003608084901c821461371b57fe5b88818161372457fe5b04870196505050505050505b6001600160801b03811115612fb357600080612fb06141ad565b6000600160461b82600f0b12613768576000806137656141ad565b50505b6001600160461b031982600f0b12156137835750600061330b565b6001607f1b60006001603f1b8416600f0b13156137b15770016a09e667f3bcc908b2fb1366ea957d3e0260801c5b6000836001603e1b16600f0b13156137da577001306fe0a31b7152de8d5a46305c85edec0260801c5b6000836001603d1b16600f0b1315613803577001172b83c7d517adcdf7c8c50eb14a791f0260801c5b6000836001603c1b16600f0b131561382c5770010b5586cf9890f6298b92b71842a983630260801c5b6000836001603b1b16600f0b1315613855577001059b0d31585743ae7c548eb68ca417fd0260801c5b6000836001603a1b16600f0b131561387e57700102c9a3e778060ee6f7caca4f7a29bde80260801c5b600083600160391b16600f0b13156138a75770010163da9fb33356d84a66ae336dcdfa3f0260801c5b600083600160381b16600f0b13156138d057700100b1afa5abcbed6129ab13ec11dc95430260801c5b600083600160371b16600f0b13156138f95770010058c86da1c09ea1ff19d294cf2f679b0260801c5b600083600160361b16600f0b1315613922577001002c605e2e8cec506d21bfc89a23a00f0260801c5b600083600160351b16600f0b131561394b57700100162f3904051fa128bca9c55c31e5df0260801c5b600083600160341b16600f0b1315613974577001000b175effdc76ba38e31671ca9397250260801c5b600083600160331b16600f0b131561399d57700100058ba01fb9f96d6cacd4b180917c3d0260801c5b600083600160321b16600f0b13156139c65770010002c5cc37da9491d0985c348c68e7b30260801c5b600083600160311b16600f0b13156139ef577001000162e525ee054754457d59952920260260801c5b600083600160301b16600f0b1315613a185770010000b17255775c040618bf4a4ade83fc0260801c5b6000836001602f1b16600f0b1315613a41577001000058b91b5bc9ae2eed81e9b7d4cfab0260801c5b6000836001602e1b16600f0b1315613a6a57700100002c5c89d5ec6ca4d7c8acc017b7c90260801c5b6000836001602d1b16600f0b1315613a935770010000162e43f4f831060e02d839a9d16d0260801c5b6000836001602c1b16600f0b1315613abc57700100000b1721bcfc99d9f890ea069117630260801c5b6000836001602b1b16600f0b1315613ae55770010000058b90cf1e6d97f9ca14dbcc16280260801c5b6000836001602a1b16600f0b1315613b0e577001000002c5c863b73f016468f6bac5ca2b0260801c5b600083600160291b16600f0b1315613b3757700100000162e430e5a18f6119e3c02282a50260801c5b600083600160281b16600f0b1315613b60577001000000b1721835514b86e6d96efd1bfe0260801c5b600083600160271b16600f0b1315613b8957700100000058b90c0b48c6be5df846c5b2ef0260801c5b600083600160261b16600f0b1315613bb25770010000002c5c8601cc6b9e94213c72737a0260801c5b600083600160251b16600f0b1315613bdb577001000000162e42fff037df38aa2b219f060260801c5b600083600160241b16600f0b1315613c045770010000000b17217fba9c739aa5819f44f90260801c5b600083600160231b16600f0b1315613c2d577001000000058b90bfcdee5acd3c1cedc8230260801c5b600083600160221b16600f0b1315613c5657700100000002c5c85fe31f35a6a30da1be500260801c5b600083600160211b16600f0b1315613c7f5770010000000162e42ff0999ce3541b9fffcf0260801c5b600083600160201b16600f0b1315613ca857700100000000b17217f80f4ef5aadda455540260801c5b600083638000000016600f0b1315613cd15770010000000058b90bfbf8479bd5a81b51ad0260801c5b600083634000000016600f0b1315613cfa577001000000002c5c85fdf84bd62ae30a74cc0260801c5b600083632000000016600f0b1315613d2357700100000000162e42fefb2fed257559bdaa0260801c5b600083631000000016600f0b1315613d4c577001000000000b17217f7d5a7716bba4a9ae0260801c5b600083630800000016600f0b1315613d7557700100000000058b90bfbe9ddbac5e109cce0260801c5b600083630400000016600f0b1315613d9e5770010000000002c5c85fdf4b15de6f17eb0d0260801c5b600083630200000016600f0b1315613dc7577001000000000162e42fefa494f1478fde050260801c5b600083630100000016600f0b1315613df05770010000000000b17217f7d20cf927c8e94c0260801c5b6000836280000016600f0b1315613e18577001000000000058b90bfbe8f71cb4e4b33d0260801c5b6000836240000016600f0b1315613e4057700100000000002c5c85fdf477b662b269450260801c5b6000836220000016600f0b1315613e685770010000000000162e42fefa3ae53369388c0260801c5b6000836210000016600f0b1315613e9057700100000000000b17217f7d1d351a389d400260801c5b6000836208000016600f0b1315613eb85770010000000000058b90bfbe8e8b2d3d4ede0260801c5b6000836204000016600f0b1315613ee0577001000000000002c5c85fdf4741bea6e77e0260801c5b6000836202000016600f0b1315613f0857700100000000000162e42fefa39fe95583c20260801c5b6000836201000016600f0b1315613f2f5769b17217f7d1cfb72b45e1600160801b010260801c5b60008361800016600f0b1315613f55576958b90bfbe8e7cc35c3f0600160801b010260801c5b60008361400016600f0b1315613f7b57692c5c85fdf473e242ea38600160801b010260801c5b60008361200016600f0b1315613fa15769162e42fefa39f02b772c600160801b010260801c5b60008361100016600f0b1315613fc757690b17217f7d1cf7d83c1a600160801b010260801c5b60008361080016600f0b1315613fed5769058b90bfbe8e7bdcbe2e600160801b010260801c5b60008361040016600f0b1315614013576902c5c85fdf473dea871f600160801b010260801c5b60008361020016600f0b131561403957690162e42fefa39ef44d91600160801b010260801c5b60008361010016600f0b131561405e5768b17217f7d1cf79e949600160801b010260801c5b600083608016600f0b1315614082576858b90bfbe8e7bce544600160801b010260801c5b600083604016600f0b13156140a657682c5c85fdf473de6eca600160801b010260801c5b600083602016600f0b13156140ca5768162e42fefa39ef366f600160801b010260801c5b600083601016600f0b13156140ee57680b17217f7d1cf79afa600160801b010260801c5b600083600816600f0b13156141125768058b90bfbe8e7bcd6d600160801b010260801c5b600083600416600f0b1315614136576802c5c85fdf473de6b2600160801b010260801c5b600083600216600f0b131561415a57680162e42fefa39ef358600160801b010260801c5b600083600116600f0b131561417d5767b17217f7d1cf79ab600160801b010260801c5b600f83810b60401d603f03900b1c60016001607f1b03811115613308576000806141a56141ad565b505092915050565b632a2a7adb598160e01b8152600481016020815285602082015260005b868110156141e55780860151828201604001526020016141ca565b506020828760640184336000905af158601d01573d60011458600c01573d6000803e3d621234565260ea61109c52505050565b6303daa959598160e01b8152836004820152602081602483336000905af158601d01573d60011458600c01573d6000803e3d621234565260ea61109c528051935060005b60408110156135e45760008282015260200161425c565b6373509064598160e01b8152602081600483336000905af158601d01573d60011458600c01573d6000803e3d621234565260ea61109c528051600082529350602061425c565b6322bd64c0598160e01b8152836004820152846024820152600081604483336000905af158601d01573d60011458600c01573d6000803e3d621234565260ea61109c5260008152602061425c565b638435035b598160e01b8152836004820152602081602483336000905af158601d01573d60011458600c01573d6000803e3d621234565260ea61109c528051600082529350602061425c565b638540661f598160e01b8152614384565b8080831115611ce8575090919050565b8080831015611ce8575090919050565b836004820152846024820152606060448201528660648201526084810160005b888110156143bc5780880151828201526020016143a4565b506060828960a40184336000905af158601d01573d60011458600c01573d6000803e3d621234565260ea61109c52815160408301513d6000853e8b8b82606087013350600060045af150596144118d3d614374565b8c0161441d8187614364565b5b82811015614432576000815260200161441e565b50929c50505050505050565b6385979f76598160e01b8152836004820152846024820152606060448201528760648201526084810160005b8981101561448257808901518282015260200161446a565b506060828a60a40184336000905af158601d01573d60011458600c01573d6000803e3d621234565260ea61109c52815160408301513d6000853e8c8c82606087013350600060045af150596144d78e3d614374565b8d016144e38187614364565b5b828110156144f857600081526020016144e4565b50929d50505050505050565b826003810192821561453b579160200282015b8281111561453b5782358261452a6142b9565b505091602001919060010190614517565b50614547929150614636565b5090565b63bdbf8c36598160e01b8152602081600483336000905af158601d01573d60011458600c01573d6000803e3d621234565260ea61109c528051600082529350602061425c565b826003810192821561453b579160200282015b8281111561453b578251826145b76142b9565b5050916020019190600101906145a4565b604051608081016040908152600080835260208301819052908201819052606082015290565b6040516060808201604052600390829080388339509192915050565b506000816146166142b9565b50506001016000816146266142b9565b50506001016000906108c06142b9565b61209091905b8082111561454757600080826146506142b9565b50505060010161463c565b8035611ce8816150c0565b8060608101831015611ce8576000806141a56141ad565b600081519050611ce8816150da565b600081519050611ce8816150e3565b8035611ce8816150ec565b600081519050611ce8816150ec565b6000602082840312156146d0576000806146cd6141ad565b50505b60006146dc848461465b565b949350505050565b60008060408385031215614700576000806146fd6141ad565b50505b600061470c858561465b565b925050602061471d8582860161465b565b9150509250929050565b600080600080600060a08688031215614748576000806147456141ad565b50505b6000614754888861465b565b95505060206147658882890161469b565b94505060406147768882890161469b565b93505060606147878882890161469b565b92505060806147988882890161469b565b9150509295509295909350565b6000606082840312156147c0576000806147bd6141ad565b50505b60006146dc8484614666565b6000602082840312156147e7576000806147e46141ad565b50505b60006146dc848461467d565b60006020828403121561480e5760008061480b6141ad565b50505b60006146dc848461469b565b600060208284031215614835576000806148326141ad565b50505b60006146dc84846146a6565b600080600080608085870312156148605760008061485d6141ad565b50505b600061486c87876146a6565b945050602061487d8782880161468c565b935050604061488e878288016146a6565b925050606061489f8782880161468c565b91505092959194509250565b600080604083850312156148c7576000806148c46141ad565b50505b60006148d3858561469b565b925050602061471d8582860161469b565b6148ed816150aa565b82525050565b6148ed8161507d565b6148ed8161508d565b6148ed81615098565b6148ed816150b5565b6000614924601483615074565b736e6f726d616c206d617853697a652051756f746560601b815260200192915050565b6000614954601a83615074565b79746f6f206d616e79206f75747374616e64696e6720706169727360301b815260200192915050565b600061498a602383615074565b7f6e6f7420616e20617070726f766564207374726174656779202d20626174685081526230b4b960e91b602082015260400192915050565b60006149cf600d83615074565b6c6c6f6746696c6c2071756f746560981b815260200192915050565b60006149f8600583615074565b64726174696f60d81b815260200192915050565b6000614a19601583615074565b74191e5b985b5a58c81b585e14da5e9948105cdcd95d605a1b815260200192915050565b6000614a4a601483615074565b731b9bdc9b585b081b585e14da5e9948105cdcd95d60621b815260200192915050565b6000614a7a601183615074565b70756e6465726c79696e6742616c616e636560781b815260200192915050565b6000614aa7601483615074565b7336b4b23837b4b73a1031b0b631bab630ba32b21d60611b815260200192915050565b6000614ad7600b83615074565b6a726177206d617853697a6560a81b815260200192915050565b6000614afe600d83615074565b6c1b1bd9d19a5b1b08185cdcd95d609a1b815260200192915050565b6000614b27603083615074565b7f7468657265206973206e6f74206120737072656164206f6e207374726174656781526f6973742773207061697220747261646560801b602082015260400192915050565b6000614b79601c83615074565b7b7468652062696420697320746f6f206c6172676520696e2073697a6560201b815260200192915050565b6000614bb1602a83615074565b7f61736b207072696365206973206e6f742067726561746572207468616e207468815269194818995cdd08189a5960b21b602082015260400192915050565b6000614bfd600183615074565b606560f81b815260200192915050565b6000614c1a600d83615074565b6c72616973656420746f2074686560981b815260200192915050565b6000614c43601083615074565b6f3ab73232b9363cb4b7339037ba3432b960811b815260200192915050565b6000614c6f600983615074565b6839b430b832a1b7b2b360b91b815260200192915050565b6000614c94602783615074565b7f626964207072696365206973206e6f74206c657373207468616e2074686520628152666573742061736b60c81b602082015260400192915050565b6000614cdd601c83615074565b7b7468652061736b20697320746f6f206c6172676520696e2073697a6560201b815260200192915050565b6000614d15601e83615074565b7f7969656c64206e6f7420636f72726563746c7920726562616c616e6365640000815260200192915050565b6148ed81612090565b60208101611ce882846148f3565b60408101614d6682856148e4565b612fb36020830184614d41565b6101008101614d82828b6148f3565b614d8f602083018a6148f3565b614d9c60408301896148f3565b614da960608301886148f3565b614db66080830187614d41565b614dc360a0830186614d41565b614dd060c0830185614d41565b614ddd60e0830184614d41565b9998505050505050505050565b6101408101614df9828d6148f3565b614e06602083018c6148f3565b614e13604083018b6148f3565b614e20606083018a6148f3565b614e2d6080830189614d41565b614e3a60a0830188614d41565b614e4760c0830187614d41565b614e5460e0830186614d41565b614e626101008301856148f3565b614e70610120830184614d41565b9b9a5050505050505050505050565b60608101614e8d82866148f3565b614e9a60208301856148f3565b6146dc604083018461490e565b60408101614d6682856148f3565b60408101614ec382856148fc565b612fb360208301846148fc565b60408082528101614ee081614917565b9050611ce86020830184614d41565b6020808252810161330881614947565b602080825281016133088161497d565b60408082528101614ee0816149c2565b60408082528101614f2f816149eb565b9050611ce86020830184614905565b60408082528101614ee081614a0c565b60408082528101614ee081614a3d565b60408082528101614ee081614a6d565b60408082528101614f2f81614a9a565b60408082528101614ee081614aca565b60408082528101614ee081614af1565b6020808252810161330881614b1a565b6020808252810161330881614b6c565b6020808252810161330881614ba4565b60408082528101614f2f81614bf0565b60408082528101614f2f81614c0d565b60408082528101614ee081614c36565b60408082528101614f2f81614c62565b6020808252810161330881614c87565b6020808252810161330881614cd0565b6020808252810161330881614d08565b60208101611ce88284614d41565b6060810161505a8286614d41565b61506760208301856148fc565b6146dc6040830184614d41565b90815260200190565b60006133088261509e565b151590565b60006133088261507d565b600f0b90565b6001600160a01b031690565b60006133088261508d565b600061330882612090565b6150c98161507d565b8114612971576000806135e46141ad565b6150c981615088565b6150c98161508d565b6150c98161209056fee75bdd3aabe6a577fc304e4dd38b1f51d87462047d87241a8b36804dedfdd277237ed0dc730435f49ffc52e0c385fe376f53260bda0022cdbd6bea601c0584961eed1b3cc441a43b0abc6b2676a5071c862f7570637f009a01de6dc2a982bea54e4fbd9f26259e82cfb30871ba8fb37535ebc893e81ff81141c1a2dc925d930f60806040523480156200001c576000806200001962000023565b50505b5062000090565b632a2a7adb598160e01b8152600481016020815285602082015260005b868110156200005d57808601518282016040015260200162000040565b506020828760640184336000905af158601d01573d60011458600c01573d6000803e3d621234565260ea61109c52505050565b612a7880620000a06000396000f3fe6080604052348015610019576000806100166124d0565b50505b506004361061013c5760003560e01c806306fdde031461014a578063095ea7b3146101c9578063158ef93e1461021257806318160ddd1461021a57806323b872dd146102345780632495a59914610273578063271e4426146102975780632e1a7d4d146102dc57806330adf81f14610304578063313ce5671461030c5780633644e5151461032a5780633830f1b61461033257806340e58ee51461035e57806360c38b281461038457806360f71b241461038c57806370a08231146103945780637ecebe00146103c357806395d89b41146103f2578063a9059cbb146103fa578063afd639ee1461042f578063b3f865f71461045e578063b6b55f251461049d578063d505accf146104c3578063dd62ed3e1461051d578063f34822b414610554575b6000806101476124d0565b50505b610152610635565b60405160208082528190810183818151815260200191508051906020019080838360005b8381101561018e578082015183820152602001610176565b50505050905090810190601f1680156101bb5780820380516001836020036101000a031916815260200191505b509250505060405180910390f35b6101fe600480360360408110156101e8576000806101e56124d0565b50505b506001600160a01b03813516906020013561065b565b604051901515815260200160405180910390f35b6101fe61067a565b610222610693565b60405190815260200160405180910390f35b6101fe60048036036060811015610253576000806102506124d0565b50505b506001600160a01b038135811691602081013590911690604001356106a0565b61027b6107b6565b6040516001600160a01b03909116815260200160405180910390f35b610222600480360360808110156102b6576000806102b36124d0565b50505b508035906001600160a01b036020820135811691604081013591606090910135166107d5565b610302600480360360208110156102fb576000806102f86124d0565b50505b5035610a55565b005b610222610c9a565b610314610cac565b60405160ff909116815260200160405180910390f35b610222610cb1565b610222600480360360408110156103515760008061034e6124d0565b50505b5080359060200135610cbb565b6103026004803603602081101561037d5760008061037a6124d0565b50505b5035610cf5565b61027b610ee0565b61027b610eec565b610222600480360360208110156103b3576000806103b06124d0565b50505b50356001600160a01b0316610ef8565b610222600480360360208110156103e2576000806103df6124d0565b50505b50356001600160a01b0316610f10565b610152610f28565b6101fe60048036036040811015610419576000806104166124d0565b50505b506001600160a01b038135169060200135610fe1565b6102226004803603602081101561044e5760008061044b6124d0565b50505b50356001600160a01b0316610ff6565b6103026004803603606081101561047d5760008061047a6124d0565b50505b506001600160a01b0381358116916020810135909116906040013561100e565b610302600480360360208110156104bc576000806104b96124d0565b50505b50356114f4565b610302600480360360e08110156104e2576000806104df6124d0565b50505b506001600160a01b03813581169160208101359091169060408101359060608101359060ff6080820135169060a08101359060c00135611a17565b6102226004803603604081101561053c576000806105396124d0565b50505b506001600160a01b0381358116916020013516611c82565b61030260048036036080811015610573576000806105706124d0565b50505b810190602081018135600160201b811115610596576000806105936124d0565b50505b8201836020820111156105b1576000806105ae6124d0565b50505b803590602001918460018302840111600160201b831117156105db576000806105d86124d0565b50505b91908080601f0160208091040260200160405190810160405281815292919060208401838380828437600092019190915250929550506001600160a01b03833581169450602084013581169360400135169150611ca89050565b60405160408082019052600c81526b42617468546f6b656e20763160a01b602082015281565b60006106705a61066961253b565b8484611fa3565b5060015b92915050565b6000600b610686612595565b906101000a900460ff1681565b600461069d612595565b81565b6001600160a01b038316600090815260076020526000196040822060005a6106c661253b565b6001600160a01b03166001600160a01b031681526020019081526020016000206106ee612595565b146107a1576001600160a01b038416600090815260076020526107509083906040902060005a61071c61253b565b6001600160a01b03166001600160a01b03168152602001908152602001600020610744612595565b9063ffffffff61202f16565b6001600160a01b038516600090815260076020526040902060005a61077361253b565b6001600160a01b03166001600160a01b03168152602001908152602001600020819061079d6125e1565b5050505b6107ac848484612076565b5060019392505050565b600060016107c2612595565b906101000a90046001600160a01b031681565b60008060036107e2612595565b906101000a90046001600160a01b03166001600160a01b03166386cbe0275a61080961253b565b6040516001600160e01b031960e084901b1681526001600160a01b039091166004820152602401602060405180830381868061084361262f565b158015610858576000806108556124d0565b50505b505a61086261267b565b5050505050158015610881573d6000803e3d600061087e6124d0565b50505b505050506040513d60208110156108a05760008061089d6124d0565b50505b810190808051151560011492506108f49150505760405162461bcd60e51b815260040180806020018281038252602481526020018061298160249139604001915050604051809103906108f16124d0565b50505b6000806002610901612595565b906101000a90046001600160a01b03166001600160a01b031663e1a6f014878787876000806040516001600160e01b031960e089901b16815260048101969096526001600160a01b0394851660248701526044860193909352921660648401526084830191909152151560a482015260c4016020604051808303816000878061098861262f565b15801561099d5760008061099a6124d0565b50505b505a6109a7612766565b5050505050501580156109c7573d6000803e3d60006109c46124d0565b50505b505050506040513d60208110156109e6576000806109e36124d0565b50505b81019080805193507f819e390338feffe95e2de57172d6faf337853dfd15c7a09a32d76f7fd2443875925088915087905086866040519384526001600160a01b03928316602085015260408085019290925290911660608301526080909101905180910390a195945050505050565b6000610ba56004610a64612595565b610b998460006001610a74612595565b906101000a90046001600160a01b03166001600160a01b03166370a082315a63996d79a5598160e01b8152602081600483336000905af158601d01573d60011458600c01573d6000803e3d621234565260ea61109c528051925060005b6040811015610ae857600082820152602001610ad1565b5050506040516001600160e01b031960e084901b1681526001600160a01b0390911660048201526024016020604051808303818680610b2561262f565b158015610b3a57600080610b376124d0565b50505b505a610b4461267b565b5050505050158015610b63573d6000803e3d6000610b606124d0565b50505b505050506040513d6020811015610b8257600080610b7f6124d0565b50505b8101908080519392505063ffffffff612152169050565b9063ffffffff6121ba16565b9050610bb95a610bb361253b565b836121f7565b60006001610bc5612595565b906101000a90046001600160a01b03166001600160a01b031663a9059cbb5a610bec61253b565b836040516001600160e01b031960e085901b1681526001600160a01b039092166004830152602482015260440160206040518083038160008780610c2e61262f565b158015610c4357600080610c406124d0565b50505b505a610c4d612766565b505050505050158015610c6d573d6000803e3d6000610c6a6124d0565b50505b505050506040513d6020811015610c8c57600080610c896124d0565b50505b810190808051505050505050565b600080516020612a3883398151915281565b601281565b600961069d612595565b60088281610cc7612595565b8110610ccf57fe5b90600052602060002090600202018160028110610ce857fe5b01915061069d9050612595565b60006003610d01612595565b906101000a90046001600160a01b03166001600160a01b031663ca3a86cd5a610d2861253b565b6040516001600160e01b031960e084901b1681526001600160a01b0390911660048201526024016020604051808303818680610d6261262f565b158015610d7757600080610d746124d0565b50505b505a610d8161267b565b5050505050158015610da0573d6000803e3d6000610d9d6124d0565b50505b505050506040513d6020811015610dbf57600080610dbc6124d0565b50505b81019080805115156001149250610e169150505760405162461bcd60e51b81526020600482018190526024820152600080516020612a58833981519152604482015260640160405180910390610e136124d0565b50505b60006002610e22612595565b906101000a90046001600160a01b03166001600160a01b03166340e58ee5826040516001600160e01b031960e084901b168152600481019190915260240160206040518083038160008780610e7561262f565b158015610e8a57600080610e876124d0565b50505b505a610e94612766565b505050505050158015610eb4573d6000803e3d6000610eb16124d0565b50505b505050506040513d6020811015610ed357600080610ed06124d0565b50505b8101908080515050505050565b600060036107c2612595565b600060026107c2612595565b6005602052806000526040600020905061069d612595565b600a602052806000526040600020905061069d612595565b600080610f33612595565b600181600116156101000203166002900480601f016020809104026020016040519081016040528181529190602083018280610f6d612595565b60018160011615610100020316600290048015610fd95780601f10610fa7576101008083610f99612595565b040283529160200191610fd9565b820191906000526020600020905b81610fbe612595565b81529060010190602001808311610fb557829003601f168201915b505050505081565b60006106705a610fef61253b565b8484612076565b6006602052806000526040600020905061069d612595565b6000600361101a612595565b906101000a90046001600160a01b03166001600160a01b031663ca3a86cd5a61104161253b565b6040516001600160e01b031960e084901b1681526001600160a01b039091166004820152602401602060405180830381868061107b61262f565b1580156110905760008061108d6124d0565b50505b505a61109a61267b565b50505050501580156110b9573d6000803e3d60006110b66124d0565b50505b505050506040513d60208110156110d8576000806110d56124d0565b50505b8101908080511515600114925061112f9150505760405162461bcd60e51b81526020600482018190526024820152600080516020612a5883398151915260448201526064016040518091039061112c6124d0565b50505b60008111801561113f5750601481105b6111515760008061114e6124d0565b50505b60006064836001600160a01b03166370a082315a63996d79a5598160e01b8152602081600483336000905af158601d01573d60011458600c01573d6000803e3d621234565260ea61109c528051925060005b60408110156111ba576000828201526020016111a3565b5050506040516001600160e01b031960e084901b1681526001600160a01b03909116600482015260240160206040518083038186806111f761262f565b15801561120c576000806112096124d0565b50505b505a61121661267b565b5050505050158015611235573d6000803e3d60006112326124d0565b50505b505050506040513d6020811015611254576000806112516124d0565b50505b81019080805186029250839150611269905057fe5b0490506001600160a01b03831663a9059cbb8583836370a082315a63996d79a5598160e01b8152602081600483336000905af158601d01573d60011458600c01573d6000803e3d621234565260ea61109c528051925060005b60408110156112d9576000828201526020016112c2565b5050506040516001600160e01b031960e084901b1681526001600160a01b039091166004820152602401602060405180830381868061131661262f565b15801561132b576000806113286124d0565b50505b505a61133561267b565b5050505050158015611354573d6000803e3d60006113516124d0565b50505b505050506040513d6020811015611373576000806113706124d0565b50505b8101908080519390930392506040915050516001600160e01b031960e085901b1681526001600160a01b0390921660048301526024820152604401602060405180830381600087806113c361262f565b1580156113d8576000806113d56124d0565b50505b505a6113e2612766565b505050505050158015611402573d6000803e3d60006113ff6124d0565b50505b505050506040513d60208110156114215760008061141e6124d0565b50505b8101908080515050506001600160a01b038416905063a9059cbb5a61144461253b565b836040516001600160e01b031960e085901b1681526001600160a01b03909216600483015260248201526044016020604051808303816000878061148661262f565b15801561149b576000806114986124d0565b50505b505a6114a5612766565b5050505050501580156114c5573d6000803e3d60006114c26124d0565b50505b505050506040513d60208110156114e4576000806114e16124d0565b50505b8101908080515050505050505050565b6000806001611501612595565b906101000a90046001600160a01b03166001600160a01b03166370a082315a63996d79a5598160e01b8152602081600483336000905af158601d01573d60011458600c01573d6000803e3d621234565260ea61109c528051925060005b60408110156115755760008282015260200161155e565b5050506040516001600160e01b031960e084901b1681526001600160a01b03909116600482015260240160206040518083038186806115b261262f565b1580156115c7576000806115c46124d0565b50505b505a6115d161267b565b50505050501580156115f0573d6000803e3d60006115ed6124d0565b50505b505050506040513d602081101561160f5760008061160c6124d0565b50505b8101908080519350600092508291506001905061162a612595565b906101000a90046001600160a01b03166001600160a01b03166370a082315a63996d79a5598160e01b8152602081600483336000905af158601d01573d60011458600c01573d6000803e3d621234565260ea61109c528051925060005b604081101561169e57600082820152602001611687565b5050506040516001600160e01b031960e084901b1681526001600160a01b03909116600482015260240160206040518083038186806116db61262f565b1580156116f0576000806116ed6124d0565b50505b505a6116fa61267b565b5050505050158015611719573d6000803e3d60006117166124d0565b50505b505050506040513d6020811015611738576000806117356124d0565b50505b810190808051935060009250600191506117529050612595565b906101000a90046001600160a01b03166001600160a01b03166323b872dd5a61177961253b565b5a63996d79a5598160e01b8152602081600483336000905af158601d01573d60011458600c01573d6000803e3d621234565260ea61109c528051925060005b60408110156117cf576000828201526020016117b8565b505050866040516001600160e01b031960e086901b1681526001600160a01b03938416600482015291909216602482015260448101919091526064016020604051808303816000878061182061262f565b158015611835576000806118326124d0565b50505b505a61183f612766565b50505050505015801561185f573d6000803e3d600061185c6124d0565b50505b505050506040513d602081101561187e5760008061187b6124d0565b50505b810190808051506000925082915060019050611898612595565b906101000a90046001600160a01b03166001600160a01b03166370a082315a63996d79a5598160e01b8152602081600483336000905af158601d01573d60011458600c01573d6000803e3d621234565260ea61109c528051925060005b604081101561190c576000828201526020016118f5565b5050506040516001600160e01b031960e084901b1681526001600160a01b039091166004820152602401602060405180830381868061194961262f565b15801561195e5760008061195b6124d0565b50505b505a61196861267b565b5050505050158015611987573d6000803e3d60006119846124d0565b50505b505050506040513d60208110156119a6576000806119a36124d0565b50505b81019080805193506119c4925083915084905063ffffffff61202f16565b9350600060046119d2612595565b6119dd5750836119fe565b6119fb84610b9960046119ee612595565b889063ffffffff61215216565b90505b611a105a611a0a61253b565b82612290565b5050505050565b5a611a2061282c565b841015611a715760405162461bcd60e51b8152602060048201526012602482015271155b9a5cddd85c158c8e881156141254915160721b604482015260640160405180910390611a6e6124d0565b50505b60006009611a7d612595565b6001600160a01b0389166000908152600a602052600080516020612a38833981519152908a908a908a9060409020600081611ab6612595565b91600183019150611ac56125e1565b50508a60405160200180878152602001866001600160a01b03166001600160a01b03168152602001856001600160a01b03166001600160a01b0316815260200184815260200183815260200182815260200196505050505050506040516020818303038152906040528051906020012060405161190160f01b602082015260228101929092526042820152606201604051602081830303815290604052805190602001209050600060018286868660405160008152602001604052604051808581526020018460ff1660ff1681526020018381526020018281526020019450505050506020604051602081039080840390855a611bc061267b565b5050505050158015611bdf573d6000803e3d6000611bdc6124d0565b50505b5050506020604051035190506001600160a01b03811615801590611c145750886001600160a01b0316816001600160a01b0316145b611c6c5760405162461bcd60e51b815260206004820152601c60248201527b556e697377617056323a20494e56414c49445f5349474e415455524560201b604482015260640160405180910390611c696124d0565b50505b611c77898989611fa3565b505050505050505050565b6007602052816000526040600020602052806000526040600020915061069d9050612595565b6000600b611cb4612595565b906101000a900460ff1615611cd157600080611cce6124d0565b50505b6000848051611ce4929160200190612872565b508260018080611cf2612595565b816001600160a01b0302191690836001600160a01b0316021790611d146125e1565b50505081600260006101000a81611d29612595565b816001600160a01b0302191690836001600160a01b0316021790611d4b6125e1565b50505080600360006101000a81611d60612595565b816001600160a01b0302191690836001600160a01b0316021790611d826125e1565b50505060005a611d90612912565b90506040518060526129a582396052019050604051809103902060405160408082019052600c81526b42617468546f6b656e20763160a01b6020820152805190602001206040516040808201905260018152603160f81b602082015280519060200120835a63996d79a5598160e01b8152602081600483336000905af158601d01573d60011458600c01573d6000803e3d621234565260ea61109c528051925060005b6040811015611e4a57600082820152602001611e33565b5050506040516020810195909552604080860194909452606085019290925260808401526001600160a01b031660a083015260c0909101905160208183030381529060405280519060200120806009611ea16125e1565b506000199150506001600160a01b03851663095ea7b360006002611ec3612595565b906101000a90046001600160a01b0316836040516001600160e01b031960e085901b1681526001600160a01b039092166004830152602482015260440160206040518083038160008780611f1561262f565b158015611f2a57600080611f276124d0565b50505b505a611f34612766565b505050505050158015611f54573d6000803e3d6000611f516124d0565b50505b505050506040513d6020811015611f7357600080611f706124d0565b50505b8101908080515060019250600b915082905081611f8e612595565b8160ff02191690831515021790611c776125e1565b6001600160a01b038316600090815260076020528190604090206001600160a01b0384166000908152602091909152604090208190611fe06125e1565b505050816001600160a01b0316836001600160a01b03167f8c5be1e5ebec7d5bd14f71427d1e84f3dd0314c0f7b2291e5b200ac8c7c3b9258360405190815260200160405180910390a3505050565b600061206f838360405160408082019052601e81527f536166654d6174683a207375627472616374696f6e206f766572666c6f7700006020820152612328565b9392505050565b6001600160a01b0383166000908152600560205261209c90829060409020610744612595565b6001600160a01b038416600090815260056020526040902081906120be6125e1565b5050506001600160a01b038216600090815260056020526120f3908290604090206120e7612595565b9063ffffffff6123c816565b6001600160a01b038316600090815260056020526040902081906121156125e1565b505050816001600160a01b0316836001600160a01b0316600080516020612a188339815191528360405190815260200160405180910390a3505050565b60008261216157506000610674565b8282028284828161216e57fe5b041461206f5760405162461bcd60e51b81526004018080602001828103825260218152602001806129f760219139604001915050604051809103906121b16124d0565b50509392505050565b600061206f838360405160408082019052601a815279536166654d6174683a206469766973696f6e206279207a65726f60301b6020820152612425565b6001600160a01b0382166000908152600560205261221d90829060409020610744612595565b6001600160a01b0383166000908152600560205260409020819061223f6125e1565b505050612250816004610744612595565b80600461225b6125e1565b5060009150506001600160a01b038316600080516020612a188339815191528360405190815260200160405180910390a35050565b61229e8160046120e7612595565b8060046122a96125e1565b5050506001600160a01b038216600090815260056020526122d2908290604090206120e7612595565b6001600160a01b038316600090815260056020526040902081906122f46125e1565b5050506001600160a01b0382166000600080516020612a188339815191528360405190815260200160405180910390a35050565b600081848411156123c05760405162461bcd60e51b81526004018080602001828103825283818151815260200191508051906020019080838360005b8381101561237c578082015183820152602001612364565b50505050905090810190601f1680156123a95780820380516001836020036101000a031916815260200191505b5092505050604051809103906123bd6124d0565b50505b505050900390565b60008282018381101561206f5760405162461bcd60e51b815260206004820152601b60248201527a536166654d6174683a206164646974696f6e206f766572666c6f7760281b6044820152606401604051809103906121b16124d0565b600081836124ba5760405162461bcd60e51b81526004018080602001828103825283818151815260200191508051906020019080838360005b8381101561247657808201518382015260200161245e565b50505050905090810190601f1680156124a35780820380516001836020036101000a031916815260200191505b5092505050604051809103906124b76124d0565b50505b5060008385816124c657fe5b0495945050505050565b632a2a7adb598160e01b8152600481016020815285602082015260005b868110156125085780860151828201604001526020016124ed565b506020828760640184336000905af158601d01573d60011458600c01573d6000803e3d621234565260ea61109c52505050565b6373509064598160e01b8152602081600483336000905af158601d01573d60011458600c01573d6000803e3d621234565260ea61109c528051935060005b604081101561259057600082820152602001612579565b505050565b6303daa959598160e01b8152836004820152602081602483336000905af158601d01573d60011458600c01573d6000803e3d621234565260ea61109c5280516000825293506020612579565b6322bd64c0598160e01b8152836004820152846024820152600081604483336000905af158601d01573d60011458600c01573d6000803e3d621234565260ea61109c52600081526020612579565b638435035b598160e01b8152836004820152602081602483336000905af158601d01573d60011458600c01573d6000803e3d621234565260ea61109c5280516000825293506020612579565b638540661f598160e01b81526126ac565b8080831115610674575090919050565b8080831015610674575090919050565b836004820152846024820152606060448201528660648201526084810160005b888110156126e45780880151828201526020016126cc565b506060828960a40184336000905af158601d01573d60011458600c01573d6000803e3d621234565260ea61109c52815160408301513d6000853e8b8b82606087013350600060045af150596127398d3d61269c565b8c01612745818761268c565b5b8281101561275a5760008152602001612746565b50929c50505050505050565b6385979f76598160e01b8152836004820152846024820152606060448201528760648201526084810160005b898110156127aa578089015182820152602001612792565b506060828a60a40184336000905af158601d01573d60011458600c01573d6000803e3d621234565260ea61109c52815160408301513d6000853e8c8c82606087013350600060045af150596127ff8e3d61269c565b8d0161280b818761268c565b5b82811015612820576000815260200161280c565b50929d50505050505050565b63bdbf8c36598160e01b8152602081600483336000905af158601d01573d60011458600c01573d6000803e3d621234565260ea61109c5280516000825293506020612579565b828061287c612595565b600181600116156101000203166002900490600052602060002090601f016020900481019282601f106128c357805160ff191683800117856128bc6125e1565b5050612902565b828001600101856128d26125e1565b50508215612902579182015b82811115612902578251826128f16125e1565b5050916020019190600101906128de565b5061290e929150612958565b5090565b6390580256598160e01b8152602081600483336000905af158601d01573d60011458600c01573d6000803e3d621234565260ea61109c5280516000825293506020612579565b61297d91905b8082111561290e57600080826129726125e1565b50505060010161295e565b9056fe6e6f7420616e20617070726f766564207374726174656779202d2062617468546f6b656e454950373132446f6d61696e28737472696e67206e616d652c737472696e672076657273696f6e2c75696e7432353620636861696e49642c6164647265737320766572696679696e67436f6e747261637429536166654d6174683a206d756c7469706c69636174696f6e206f766572666c6f77ddf252ad1be2c89b69c2b068fc378daa952ba7f163c4a11628f55a4df523b3ef6e71edae12b1b97f4d1f60370fef10105fa2faae0126114a169c64845d6126c96e6f7420616e20617070726f7665642070616972202d2062617468546f6b656e",
  "linkReferences": {},
  "deployedLinkReferences": {}
}