{
  "_format": "hh-sol-artifact-1",
  "contractName": "PairsTrade",
  "sourceName": "contracts/rubiconPoolsv0/PairsTrade.sol",
  "abi": [
    {
      "inputs": [
        {
          "internalType": "string",
          "name": "_name",
          "type": "string"
        },
        {
          "internalType": "address",
          "name": "_bathHouse",
          "type": "address"
        },
        {
          "internalType": "address",
          "name": "_rubiconMarket",
          "type": "address"
        }
      ],
      "payable": false,
      "stateMutability": "nonpayable",
      "type": "constructor"
    },
    {
      "anonymous": false,
      "inputs": [],
      "name": "BothFilled",
      "type": "event"
    },
    {
      "anonymous": false,
      "inputs": [
        {
          "indexed": false,
          "internalType": "string",
          "name": "",
          "type": "string"
        },
        {
          "indexed": false,
          "internalType": "contract ERC20",
          "name": "",
          "type": "address"
        }
      ],
      "name": "LogAddress",
      "type": "event"
    },
    {
      "anonymous": false,
      "inputs": [
        {
          "indexed": false,
          "internalType": "string",
          "name": "",
          "type": "string"
        },
        {
          "indexed": false,
          "internalType": "uint256",
          "name": "",
          "type": "uint256"
        }
      ],
      "name": "LogNote",
      "type": "event"
    },
    {
      "anonymous": false,
      "inputs": [
        {
          "indexed": false,
          "internalType": "string",
          "name": "",
          "type": "string"
        },
        {
          "indexed": false,
          "internalType": "int128",
          "name": "",
          "type": "int128"
        }
      ],
      "name": "LogNote128",
      "type": "event"
    },
    {
      "anonymous": false,
      "inputs": [
        {
          "indexed": false,
          "internalType": "uint256",
          "name": "",
          "type": "uint256"
        },
        {
          "indexed": false,
          "internalType": "contract ERC20",
          "name": "",
          "type": "address"
        },
        {
          "indexed": false,
          "internalType": "uint256",
          "name": "",
          "type": "uint256"
        },
        {
          "indexed": false,
          "internalType": "contract ERC20",
          "name": "",
          "type": "address"
        }
      ],
      "name": "LogTrade",
      "type": "event"
    },
    {
      "constant": true,
      "inputs": [],
      "name": "RubiconMarketAddress",
      "outputs": [
        {
          "internalType": "address",
          "name": "",
          "type": "address"
        }
      ],
      "payable": false,
      "stateMutability": "view",
      "type": "function"
    },
    {
      "constant": true,
      "inputs": [],
      "name": "bathHouse",
      "outputs": [
        {
          "internalType": "address",
          "name": "",
          "type": "address"
        }
      ],
      "payable": false,
      "stateMutability": "view",
      "type": "function"
    },
    {
      "constant": false,
      "inputs": [
        {
          "internalType": "address",
          "name": "underlyingAsset",
          "type": "address"
        },
        {
          "internalType": "address",
          "name": "bathAssetAddress",
          "type": "address"
        },
        {
          "internalType": "address",
          "name": "underlyingQuote",
          "type": "address"
        },
        {
          "internalType": "address",
          "name": "bathQuoteAddress",
          "type": "address"
        },
        {
          "internalType": "uint256",
          "name": "askNumerator",
          "type": "uint256"
        },
        {
          "internalType": "uint256",
          "name": "askDenominator",
          "type": "uint256"
        },
        {
          "internalType": "uint256",
          "name": "bidNumerator",
          "type": "uint256"
        },
        {
          "internalType": "uint256",
          "name": "bidDenominator",
          "type": "uint256"
        }
      ],
      "name": "execute",
      "outputs": [
        {
          "internalType": "uint256",
          "name": "",
          "type": "uint256"
        },
        {
          "internalType": "uint256",
          "name": "",
          "type": "uint256"
        }
      ],
      "payable": false,
      "stateMutability": "nonpayable",
      "type": "function"
    },
    {
      "constant": true,
      "inputs": [],
      "name": "name",
      "outputs": [
        {
          "internalType": "string",
          "name": "",
          "type": "string"
        }
      ],
      "payable": false,
      "stateMutability": "view",
      "type": "function"
    },
    {
      "constant": true,
      "inputs": [
        {
          "internalType": "uint256",
          "name": "",
          "type": "uint256"
        }
      ],
      "name": "outstandingAskIDs",
      "outputs": [
        {
          "internalType": "uint256",
          "name": "",
          "type": "uint256"
        }
      ],
      "payable": false,
      "stateMutability": "view",
      "type": "function"
    },
    {
      "constant": true,
      "inputs": [
        {
          "internalType": "uint256",
          "name": "",
          "type": "uint256"
        }
      ],
      "name": "outstandingBidIDs",
      "outputs": [
        {
          "internalType": "uint256",
          "name": "",
          "type": "uint256"
        }
      ],
      "payable": false,
      "stateMutability": "view",
      "type": "function"
    },
    {
      "constant": true,
      "inputs": [
        {
          "internalType": "uint256",
          "name": "",
          "type": "uint256"
        },
        {
          "internalType": "uint256",
          "name": "",
          "type": "uint256"
        }
      ],
      "name": "outstandingPairIDs",
      "outputs": [
        {
          "internalType": "uint256",
          "name": "",
          "type": "uint256"
        }
      ],
      "payable": false,
      "stateMutability": "view",
      "type": "function"
    }
  ],
  "bytecode": "0x60806040523480156200001c5760008062000019620001c3565b50505b506040516200118b3803806200118b833981810160405260608110156200004d576000806200004a620001c3565b50505b8101908080516040519392919084640100000000821115620000795760008062000076620001c3565b50505b9083019060208201858111156200009a5760008062000097620001c3565b50505b8251640100000000811182820188101715620000c057600080620000bd620001c3565b50505b825250602001908051906020019080838360005b83811015620000ee578082015183820152602001620000d4565b50505050905090810190601f1680156200011c5780820380516001836020036101000a031916815260200191505b506040526020018051929190602001805192506000915084905080516200014892916020019062000230565b50816001808062000158620002df565b816001600160a01b0302191690836001600160a01b03160217906200017c62000341565b50505080600260006101000a8162000193620002df565b816001600160a01b0302191690836001600160a01b0316021790620001b762000341565b505050505050620003bd565b632a2a7adb598160e01b8152600481016020815285602082015260005b86811015620001fd578086015182820160400152602001620001e0565b506020828760640184336000905af158600e01573d6000803e3d6000fd5b3d6001141558600a015760016000f35b505050565b82806200023c620002df565b600181600116156101000203166002900490600052602060002090601f016020900481019282601f106200028757805160ff191683800117856200027f62000341565b5050620002cd565b828001600101856200029862000341565b50508215620002cd579182015b82811115620002cd57825182620002bb62000341565b505091602001919060010190620002a5565b50620002db92915062000390565b5090565b6303daa959598160e01b8152836004820152602081602483336000905af158600e01573d6000803e3d6000fd5b3d6001141558600a015760016000f35b8051935060005b60408110156200033c5760008282015260200162000323565b505050565b6322bd64c0598160e01b8152836004820152846024820152600081604483336000905af158600e01573d6000803e3d6000fd5b3d6001141558600a015760016000f35b60008152602062000323565b620003ba91905b80821115620002db5760008082620003ae62000341565b50505060010162000397565b90565b610dbe80620003cd6000396000f3fe608060405234801561001957600080610016610a42565b50505b50600436106100865760003560e01c80634ecf55d3116100645780634ecf55d31461017757806360c38b281461019d57806360f71b24146101c15780639958525f146101c957610086565b806306fdde03146100945780630d474158146101135780632b22e6d314610151575b600080610091610a42565b50505b61009c610243565b60405160208082528190810183818151815260200191508051906020019080838360005b838110156100d85780820151838201526020016100c0565b50505050905090810190601f1680156101055780820380516001836020036101000a031916815260200191505b509250505060405180910390f35b61013f600480360360408110156101325760008061012f610a42565b50505b50803590602001356102fc565b60405190815260200160405180910390f35b61013f600480360360208110156101705760008061016d610a42565b50505b5035610339565b61013f6004803603602081101561019657600080610193610a42565b50505b5035610361565b6101a561036d565b6040516001600160a01b03909116815260200160405180910390f35b6101a561038c565b61022b60048036036101008110156101e9576000806101e6610a42565b50505b506001600160a01b0381358116916020810135821691604082013581169160608101359091169060808101359060a08101359060c08101359060e00135610398565b60405191825260208201526040908101905180910390f35b60008061024e610aad565b600181600116156101000203166002900480601f016020809104026020016040519081016040528181529190602083018280610288610aad565b600181600116156101000203166002900480156102f45780601f106102c25761010080836102b4610aad565b0402835291602001916102f4565b820191906000526020600020905b816102d9610aad565b815290600101906020018083116102d057829003601f168201915b505050505081565b60078281610308610aad565b811061031057fe5b9060005260206000209060020201816002811061032957fe5b0191506103369050610aad565b81565b60058181610345610aad565b811061034d57fe5b906000526020600020019050610336610aad565b60068181610345610aad565b60006001610379610aad565b906101000a90046001600160a01b031681565b60006002610379610aad565b6000808060016103a6610aad565b906101000a90046001600160a01b03166001600160a01b031663ca3a86cd5a6103cd610b0d565b6040516001600160e01b031960e084901b1681526001600160a01b0390911660048201526024016020604051808303818680610407610b53565b15801561041c57600080610419610a42565b50505b505a610426610b9f565b5050505050158015610445573d6000803e3d6000610442610a42565b50505b505050506040513d602081101561046457600080610461610a42565b50505b810190808051151560011492506104c49150505760405162461bcd60e51b81526020600482015260146024820152733737ba1030b71030b8383937bb32b2103830b4b960611b6044820152606401604051809103906104c1610a42565b50505b600086116104da576000806104d7610a42565b50505b600085116104f0576000806104ed610a42565b50505b6000841161050657600080610503610a42565b50505b6000831161051c57600080610519610a42565b50505b61052c8a8a8a8a8a8a8a8a610539565b9850989650505050505050565b610541610c8c565b610549610c8c565b6105578a8988888888610576565b91509150610569898884848e8d610608565b5050505050505050505050565b61057e610c8c565b610586610c8c565b8787610590610c8c565b60405180608001604052808a8152602001846001600160a01b03168152602001898152602001836001600160a01b031681525090506105cd610c8c565b6040516080810160409081529881526001600160a01b0393841660208201529788019690965291166060860152989397509295505050505050565b6000806001600160a01b03881663271e44268751886020015189604001518a606001516040516001600160e01b031960e087901b16815260048101949094526001600160a01b03928316602485015260448401919091521660648201526084016020604051808303816000878061067d610b53565b1580156106925760008061068f610a42565b50505b505a61069c610cb2565b5050505050501580156106bc573d6000803e3d60006106b9610a42565b50505b505050506040513d60208110156106db576000806106d8610a42565b50505b81019080805193507f819e390338feffe95e2de57172d6faf337853dfd15c7a09a32d76f7fd2443875925088915050518760200151886040015189606001516040519384526001600160a01b03928316602085015260408085019290925290911660608301526080909101905180910390a160006001600160a01b03881663271e44268751886020015189604001518a606001516040516001600160e01b031960e087901b16815260048101949094526001600160a01b0392831660248501526044840191909152166064820152608401602060405180830381600087806107c1610b53565b1580156107d6576000806107d3610a42565b50505b505a6107e0610cb2565b505050505050158015610800573d6000803e3d60006107fd610a42565b50505b505050506040513d602081101561081f5760008061081c610a42565b50505b81019080805193507f819e390338feffe95e2de57172d6faf337853dfd15c7a09a32d76f7fd2443875925088915050518760200151886040015189606001516040519384526001600160a01b03928316602085015260408085019290925290911660608301526080909101905180910390a1600080600161089e610aad565b906101000a90046001600160a01b03166001600160a01b031663b3d7480e87876040516001600160e01b031960e085901b1681526001600160a01b0392831660048201529116602482015260440160206040518083038186806108ff610b53565b15801561091457600080610911610a42565b50505b505a61091e610b9f565b505050505015801561093d573d6000803e3d600061093a610a42565b50505b505050506040513d602081101561095c57600080610959610a42565b50505b8101908080519350506001600160a01b03831691506357556172905060405180606001604052808681526020018581526020015a610998610d78565b90526040516001600160e01b031960e084901b1681526004018082606080838360005b838110156109d35780820151838201526020016109bb565b50505050905001915050600060405180830381600087806109f2610b53565b158015610a0757600080610a04610a42565b50505b505a610a11610cb2565b505050505050158015610a31573d6000803e3d6000610a2e610a42565b50505b505050505050509695505050505050565b632a2a7adb598160e01b8152600481016020815285602082015260005b86811015610a7a578086015182820160400152602001610a5f565b506020828760640184336000905af158600e01573d6000803e3d6000fd5b3d6001141558600a015760016000f35b505050565b6303daa959598160e01b8152836004820152602081602483336000905af158600e01573d6000803e3d6000fd5b3d6001141558600a015760016000f35b8051935060005b6040811015610b0857600082820152602001610af1565b505050565b6373509064598160e01b8152602081600483336000905af158600e01573d6000803e3d6000fd5b3d6001141558600a015760016000f35b80516000825293506020610af1565b638435035b598160e01b8152836004820152602081602483336000905af158600e01573d6000803e3d6000fd5b3d6001141558600a015760016000f35b80516000825293506020610af1565b638540661f598160e01b8152610bd2565b8080831115610bbc5750815b92915050565b8080831015610bbc575090919050565b836004820152846024820152606060448201528660648201526084810160005b88811015610c0a578088015182820152602001610bf2565b506060828960a40184336000905af158600e01573d6000803e3d6000fd5b3d6001141558600a015760016000f35b815160408301513d6000853e8b8b82606087013350600060045af15059610c5f8d3d610bc2565b8c01610c6b8187610bb0565b5b82811015610c805760008152602001610c6c565b50929c50505050505050565b604051608081016040908152600080835260208301819052908201819052606082015290565b6385979f76598160e01b8152836004820152846024820152606060448201528760648201526084810160005b89811015610cf6578089015182820152602001610cde565b506060828a60a40184336000905af158600e01573d6000803e3d6000fd5b3d6001141558600a015760016000f35b815160408301513d6000853e8c8c82606087013350600060045af15059610d4b8e3d610bc2565b8d01610d578187610bb0565b5b82811015610d6c5760008152602001610d58565b50929d50505050505050565b63bdbf8c36598160e01b8152602081600483336000905af158600e01573d6000803e3d6000fd5b3d6001141558600a015760016000f35b80516000825293506020610af156",
  "deployedBytecode": "0x608060405234801561001957600080610016610a42565b50505b50600436106100865760003560e01c80634ecf55d3116100645780634ecf55d31461017757806360c38b281461019d57806360f71b24146101c15780639958525f146101c957610086565b806306fdde03146100945780630d474158146101135780632b22e6d314610151575b600080610091610a42565b50505b61009c610243565b60405160208082528190810183818151815260200191508051906020019080838360005b838110156100d85780820151838201526020016100c0565b50505050905090810190601f1680156101055780820380516001836020036101000a031916815260200191505b509250505060405180910390f35b61013f600480360360408110156101325760008061012f610a42565b50505b50803590602001356102fc565b60405190815260200160405180910390f35b61013f600480360360208110156101705760008061016d610a42565b50505b5035610339565b61013f6004803603602081101561019657600080610193610a42565b50505b5035610361565b6101a561036d565b6040516001600160a01b03909116815260200160405180910390f35b6101a561038c565b61022b60048036036101008110156101e9576000806101e6610a42565b50505b506001600160a01b0381358116916020810135821691604082013581169160608101359091169060808101359060a08101359060c08101359060e00135610398565b60405191825260208201526040908101905180910390f35b60008061024e610aad565b600181600116156101000203166002900480601f016020809104026020016040519081016040528181529190602083018280610288610aad565b600181600116156101000203166002900480156102f45780601f106102c25761010080836102b4610aad565b0402835291602001916102f4565b820191906000526020600020905b816102d9610aad565b815290600101906020018083116102d057829003601f168201915b505050505081565b60078281610308610aad565b811061031057fe5b9060005260206000209060020201816002811061032957fe5b0191506103369050610aad565b81565b60058181610345610aad565b811061034d57fe5b906000526020600020019050610336610aad565b60068181610345610aad565b60006001610379610aad565b906101000a90046001600160a01b031681565b60006002610379610aad565b6000808060016103a6610aad565b906101000a90046001600160a01b03166001600160a01b031663ca3a86cd5a6103cd610b0d565b6040516001600160e01b031960e084901b1681526001600160a01b0390911660048201526024016020604051808303818680610407610b53565b15801561041c57600080610419610a42565b50505b505a610426610b9f565b5050505050158015610445573d6000803e3d6000610442610a42565b50505b505050506040513d602081101561046457600080610461610a42565b50505b810190808051151560011492506104c49150505760405162461bcd60e51b81526020600482015260146024820152733737ba1030b71030b8383937bb32b2103830b4b960611b6044820152606401604051809103906104c1610a42565b50505b600086116104da576000806104d7610a42565b50505b600085116104f0576000806104ed610a42565b50505b6000841161050657600080610503610a42565b50505b6000831161051c57600080610519610a42565b50505b61052c8a8a8a8a8a8a8a8a610539565b9850989650505050505050565b610541610c8c565b610549610c8c565b6105578a8988888888610576565b91509150610569898884848e8d610608565b5050505050505050505050565b61057e610c8c565b610586610c8c565b8787610590610c8c565b60405180608001604052808a8152602001846001600160a01b03168152602001898152602001836001600160a01b031681525090506105cd610c8c565b6040516080810160409081529881526001600160a01b0393841660208201529788019690965291166060860152989397509295505050505050565b6000806001600160a01b03881663271e44268751886020015189604001518a606001516040516001600160e01b031960e087901b16815260048101949094526001600160a01b03928316602485015260448401919091521660648201526084016020604051808303816000878061067d610b53565b1580156106925760008061068f610a42565b50505b505a61069c610cb2565b5050505050501580156106bc573d6000803e3d60006106b9610a42565b50505b505050506040513d60208110156106db576000806106d8610a42565b50505b81019080805193507f819e390338feffe95e2de57172d6faf337853dfd15c7a09a32d76f7fd2443875925088915050518760200151886040015189606001516040519384526001600160a01b03928316602085015260408085019290925290911660608301526080909101905180910390a160006001600160a01b03881663271e44268751886020015189604001518a606001516040516001600160e01b031960e087901b16815260048101949094526001600160a01b0392831660248501526044840191909152166064820152608401602060405180830381600087806107c1610b53565b1580156107d6576000806107d3610a42565b50505b505a6107e0610cb2565b505050505050158015610800573d6000803e3d60006107fd610a42565b50505b505050506040513d602081101561081f5760008061081c610a42565b50505b81019080805193507f819e390338feffe95e2de57172d6faf337853dfd15c7a09a32d76f7fd2443875925088915050518760200151886040015189606001516040519384526001600160a01b03928316602085015260408085019290925290911660608301526080909101905180910390a1600080600161089e610aad565b906101000a90046001600160a01b03166001600160a01b031663b3d7480e87876040516001600160e01b031960e085901b1681526001600160a01b0392831660048201529116602482015260440160206040518083038186806108ff610b53565b15801561091457600080610911610a42565b50505b505a61091e610b9f565b505050505015801561093d573d6000803e3d600061093a610a42565b50505b505050506040513d602081101561095c57600080610959610a42565b50505b8101908080519350506001600160a01b03831691506357556172905060405180606001604052808681526020018581526020015a610998610d78565b90526040516001600160e01b031960e084901b1681526004018082606080838360005b838110156109d35780820151838201526020016109bb565b50505050905001915050600060405180830381600087806109f2610b53565b158015610a0757600080610a04610a42565b50505b505a610a11610cb2565b505050505050158015610a31573d6000803e3d6000610a2e610a42565b50505b505050505050509695505050505050565b632a2a7adb598160e01b8152600481016020815285602082015260005b86811015610a7a578086015182820160400152602001610a5f565b506020828760640184336000905af158601d01573d60011458600c01573d6000803e3d621234565260ea61109c52505050565b6303daa959598160e01b8152836004820152602081602483336000905af158601d01573d60011458600c01573d6000803e3d621234565260ea61109c528051935060005b6040811015610b0857600082820152602001610af1565b505050565b6373509064598160e01b8152602081600483336000905af158601d01573d60011458600c01573d6000803e3d621234565260ea61109c5280516000825293506020610af1565b638435035b598160e01b8152836004820152602081602483336000905af158601d01573d60011458600c01573d6000803e3d621234565260ea61109c5280516000825293506020610af1565b638540661f598160e01b8152610bd2565b8080831115610bbc5750815b92915050565b8080831015610bbc575090919050565b836004820152846024820152606060448201528660648201526084810160005b88811015610c0a578088015182820152602001610bf2565b506060828960a40184336000905af158601d01573d60011458600c01573d6000803e3d621234565260ea61109c52815160408301513d6000853e8b8b82606087013350600060045af15059610c5f8d3d610bc2565b8c01610c6b8187610bb0565b5b82811015610c805760008152602001610c6c565b50929c50505050505050565b604051608081016040908152600080835260208301819052908201819052606082015290565b6385979f76598160e01b8152836004820152846024820152606060448201528760648201526084810160005b89811015610cf6578089015182820152602001610cde565b506060828a60a40184336000905af158601d01573d60011458600c01573d6000803e3d621234565260ea61109c52815160408301513d6000853e8c8c82606087013350600060045af15059610d4b8e3d610bc2565b8d01610d578187610bb0565b5b82811015610d6c5760008152602001610d58565b50929d50505050505050565b63bdbf8c36598160e01b8152602081600483336000905af158601d01573d60011458600c01573d6000803e3d621234565260ea61109c5280516000825293506020610af156",
  "linkReferences": {},
  "deployedLinkReferences": {}
}