{
  "_format": "hh-sol-artifact-1",
  "contractName": "PairsTrade",
  "sourceName": "contracts/rubiconPoolsv0/PairsTrade.sol",
  "abi": [
    {
      "inputs": [
        {
          "internalType": "string",
          "name": "_name",
          "type": "string"
        },
        {
          "internalType": "address",
          "name": "_bathHouse",
          "type": "address"
        },
        {
          "internalType": "address",
          "name": "_rubiconMarket",
          "type": "address"
        }
      ],
      "payable": false,
      "stateMutability": "nonpayable",
      "type": "constructor"
    },
    {
      "anonymous": false,
      "inputs": [],
      "name": "BothFilled",
      "type": "event"
    },
    {
      "anonymous": false,
      "inputs": [
        {
          "indexed": false,
          "internalType": "string",
          "name": "",
          "type": "string"
        },
        {
          "indexed": false,
          "internalType": "contract ERC20",
          "name": "",
          "type": "address"
        }
      ],
      "name": "LogAddress",
      "type": "event"
    },
    {
      "anonymous": false,
      "inputs": [
        {
          "indexed": false,
          "internalType": "string",
          "name": "",
          "type": "string"
        },
        {
          "indexed": false,
          "internalType": "uint256",
          "name": "",
          "type": "uint256"
        }
      ],
      "name": "LogNote",
      "type": "event"
    },
    {
      "anonymous": false,
      "inputs": [
        {
          "indexed": false,
          "internalType": "string",
          "name": "",
          "type": "string"
        },
        {
          "indexed": false,
          "internalType": "int128",
          "name": "",
          "type": "int128"
        }
      ],
      "name": "LogNote128",
      "type": "event"
    },
    {
      "anonymous": false,
      "inputs": [
        {
          "indexed": false,
          "internalType": "uint256",
          "name": "",
          "type": "uint256"
        },
        {
          "indexed": false,
          "internalType": "contract ERC20",
          "name": "",
          "type": "address"
        },
        {
          "indexed": false,
          "internalType": "uint256",
          "name": "",
          "type": "uint256"
        },
        {
          "indexed": false,
          "internalType": "contract ERC20",
          "name": "",
          "type": "address"
        }
      ],
      "name": "LogTrade",
      "type": "event"
    },
    {
      "constant": true,
      "inputs": [],
      "name": "RubiconMarketAddress",
      "outputs": [
        {
          "internalType": "address",
          "name": "",
          "type": "address"
        }
      ],
      "payable": false,
      "stateMutability": "view",
      "type": "function"
    },
    {
      "constant": true,
      "inputs": [],
      "name": "bathHouse",
      "outputs": [
        {
          "internalType": "address",
          "name": "",
          "type": "address"
        }
      ],
      "payable": false,
      "stateMutability": "view",
      "type": "function"
    },
    {
      "constant": false,
      "inputs": [
        {
          "internalType": "address",
          "name": "underlyingAsset",
          "type": "address"
        },
        {
          "internalType": "address",
          "name": "bathAssetAddress",
          "type": "address"
        },
        {
          "internalType": "address",
          "name": "underlyingQuote",
          "type": "address"
        },
        {
          "internalType": "address",
          "name": "bathQuoteAddress",
          "type": "address"
        },
        {
          "internalType": "uint256",
          "name": "askNumerator",
          "type": "uint256"
        },
        {
          "internalType": "uint256",
          "name": "askDenominator",
          "type": "uint256"
        },
        {
          "internalType": "uint256",
          "name": "bidNumerator",
          "type": "uint256"
        },
        {
          "internalType": "uint256",
          "name": "bidDenominator",
          "type": "uint256"
        }
      ],
      "name": "execute",
      "outputs": [
        {
          "internalType": "uint256",
          "name": "",
          "type": "uint256"
        },
        {
          "internalType": "uint256",
          "name": "",
          "type": "uint256"
        }
      ],
      "payable": false,
      "stateMutability": "nonpayable",
      "type": "function"
    },
    {
      "constant": true,
      "inputs": [],
      "name": "name",
      "outputs": [
        {
          "internalType": "string",
          "name": "",
          "type": "string"
        }
      ],
      "payable": false,
      "stateMutability": "view",
      "type": "function"
    },
    {
      "constant": true,
      "inputs": [
        {
          "internalType": "uint256",
          "name": "",
          "type": "uint256"
        }
      ],
      "name": "outstandingAskIDs",
      "outputs": [
        {
          "internalType": "uint256",
          "name": "",
          "type": "uint256"
        }
      ],
      "payable": false,
      "stateMutability": "view",
      "type": "function"
    },
    {
      "constant": true,
      "inputs": [
        {
          "internalType": "uint256",
          "name": "",
          "type": "uint256"
        }
      ],
      "name": "outstandingBidIDs",
      "outputs": [
        {
          "internalType": "uint256",
          "name": "",
          "type": "uint256"
        }
      ],
      "payable": false,
      "stateMutability": "view",
      "type": "function"
    },
    {
      "constant": true,
      "inputs": [
        {
          "internalType": "uint256",
          "name": "",
          "type": "uint256"
        },
        {
          "internalType": "uint256",
          "name": "",
          "type": "uint256"
        }
      ],
      "name": "outstandingPairIDs",
      "outputs": [
        {
          "internalType": "uint256",
          "name": "",
          "type": "uint256"
        }
      ],
      "payable": false,
      "stateMutability": "view",
      "type": "function"
    }
  ],
  "bytecode": "0x60806040523480156200001c5760008062000019620001c3565b50505b506040516200117838038062001178833981810160405260608110156200004d576000806200004a620001c3565b50505b8101908080516040519392919084640100000000821115620000795760008062000076620001c3565b50505b9083019060208201858111156200009a5760008062000097620001c3565b50505b8251640100000000811182820188101715620000c057600080620000bd620001c3565b50505b825250602001908051906020019080838360005b83811015620000ee578082015183820152602001620000d4565b50505050905090810190601f1680156200011c5780820380516001836020036101000a031916815260200191505b506040526020018051929190602001805192506000915084905080516200014892916020019062000230565b50816001808062000158620002df565b816001600160a01b0302191690836001600160a01b03160217906200017c62000341565b50505080600260006101000a8162000193620002df565b816001600160a01b0302191690836001600160a01b0316021790620001b762000341565b505050505050620003bd565b632a2a7adb598160e01b8152600481016020815285602082015260005b86811015620001fd578086015182820160400152602001620001e0565b506020828760640184336000905af158600e01573d6000803e3d6000fd5b3d6001141558600a015760016000f35b505050565b82806200023c620002df565b600181600116156101000203166002900490600052602060002090601f016020900481019282601f106200028757805160ff191683800117856200027f62000341565b5050620002cd565b828001600101856200029862000341565b50508215620002cd579182015b82811115620002cd57825182620002bb62000341565b505091602001919060010190620002a5565b50620002db92915062000390565b5090565b6303daa959598160e01b8152836004820152602081602483336000905af158600e01573d6000803e3d6000fd5b3d6001141558600a015760016000f35b8051935060005b60408110156200033c5760008282015260200162000323565b505050565b6322bd64c0598160e01b8152836004820152846024820152600081604483336000905af158600e01573d6000803e3d6000fd5b3d6001141558600a015760016000f35b60008152602062000323565b620003ba91905b80821115620002db5760008082620003ae62000341565b50505060010162000397565b90565b610dab80620003cd6000396000f3fe608060405234801561001957600080610016610a0e565b50505b50600436106100765760003560e01c806306fdde03146100845780630d474158146101035780632b22e6d3146101415780634ecf55d31461016757806360c38b281461018d57806360f71b24146101b15780639958525f146101b9575b600080610081610a0e565b50505b61008c610233565b60405160208082528190810183818151815260200191508051906020019080838360005b838110156100c85780820151838201526020016100b0565b50505050905090810190601f1680156100f55780820380516001836020036101000a031916815260200191505b509250505060405180910390f35b61012f600480360360408110156101225760008061011f610a0e565b50505b50803590602001356102ec565b60405190815260200160405180910390f35b61012f600480360360208110156101605760008061015d610a0e565b50505b5035610329565b61012f6004803603602081101561018657600080610183610a0e565b50505b5035610351565b61019561035d565b6040516001600160a01b03909116815260200160405180910390f35b61019561037c565b61021b60048036036101008110156101d9576000806101d6610a0e565b50505b506001600160a01b0381358116916020810135821691604082013581169160608101359091169060808101359060a08101359060c08101359060e00135610388565b60405191825260208201526040908101905180910390f35b60008061023e610a79565b600181600116156101000203166002900480601f016020809104026020016040519081016040528181529190602083018280610278610a79565b600181600116156101000203166002900480156102e45780601f106102b25761010080836102a4610a79565b0402835291602001916102e4565b820191906000526020600020905b816102c9610a79565b815290600101906020018083116102c057829003601f168201915b505050505081565b600782816102f8610a79565b811061030057fe5b9060005260206000209060020201816002811061031957fe5b0191506103269050610a79565b81565b60058181610335610a79565b811061033d57fe5b906000526020600020019050610326610a79565b60068181610335610a79565b60006001610369610a79565b906101000a90046001600160a01b031681565b60006002610369610a79565b600080806001610396610a79565b906101000a90046001600160a01b03166001600160a01b031663ca3a86cd5a6103bd610ad9565b6040516001600160e01b031960e084901b1681526001600160a01b03909116600482015260240160206040518083038186806103f7610b1f565b15801561040c57600080610409610a0e565b50505b505a610416610b6b565b5050505050158015610435573d6000803e3d6000610432610a0e565b50505b505050506040513d602081101561045457600080610451610a0e565b50505b810190808051151560011492506104b49150505760405162461bcd60e51b81526020600482015260146024820152733737ba1030b71030b8383937bb32b2103830b4b960611b6044820152606401604051809103906104b1610a0e565b50505b600086116104ca576000806104c7610a0e565b50505b600085116104e0576000806104dd610a0e565b50505b600084116104f6576000806104f3610a0e565b50505b6000831161050c57600080610509610a0e565b50505b61051c8a8a8a8a8a8a8a8a610529565b9850989650505050505050565b610531610c58565b610539610c58565b6105478a8988888888610566565b91509150610559898884848e8d6105f8565b5050505050505050505050565b61056e610c58565b610576610c58565b8787610580610c58565b60405180608001604052808a8152602001846001600160a01b03168152602001898152602001836001600160a01b031681525090506105bd610c58565b6040516080810160409081529881526001600160a01b0393841660208201529788019690965291166060860152989397509295505050505050565b6000806001600160a01b03881663271e44268751886020015189604001518a606001516040516001600160e01b031960e087901b16815260048101949094526001600160a01b03928316602485015260448401919091521660648201526084016020604051808303816000878061066d610b1f565b1580156106825760008061067f610a0e565b50505b505a61068c610c7e565b5050505050501580156106ac573d6000803e3d60006106a9610a0e565b50505b505050506040513d60208110156106cb576000806106c8610a0e565b50505b8101908080519350600080516020610d8b833981519152925088915050518760200151886040015189606001516040519384526001600160a01b03928316602085015260408085019290925290911660608301526080909101905180910390a160006001600160a01b03881663271e44268751886020015189604001518a606001516040516001600160e01b031960e087901b16815260048101949094526001600160a01b03928316602485015260448401919091521660648201526084016020604051808303816000878061079f610b1f565b1580156107b4576000806107b1610a0e565b50505b505a6107be610c7e565b5050505050501580156107de573d6000803e3d60006107db610a0e565b50505b505050506040513d60208110156107fd576000806107fa610a0e565b50505b8101908080519350600080516020610d8b833981519152925088915050518760200151886040015189606001516040519384526001600160a01b03928316602085015260408085019290925290911660608301526080909101905180910390a1600080600161086a610a79565b906101000a90046001600160a01b03166001600160a01b031663b3d7480e87876040516001600160e01b031960e085901b1681526001600160a01b0392831660048201529116602482015260440160206040518083038186806108cb610b1f565b1580156108e0576000806108dd610a0e565b50505b505a6108ea610b6b565b5050505050158015610909573d6000803e3d6000610906610a0e565b50505b505050506040513d602081101561092857600080610925610a0e565b50505b8101908080519350506001600160a01b03831691506357556172905060405180606001604052808681526020018581526020015a610964610d44565b90526040516001600160e01b031960e084901b1681526004018082606080838360005b8381101561099f578082015183820152602001610987565b50505050905001915050600060405180830381600087806109be610b1f565b1580156109d3576000806109d0610a0e565b50505b505a6109dd610c7e565b5050505050501580156109fd573d6000803e3d60006109fa610a0e565b50505b505050505050509695505050505050565b632a2a7adb598160e01b8152600481016020815285602082015260005b86811015610a46578086015182820160400152602001610a2b565b506020828760640184336000905af158600e01573d6000803e3d6000fd5b3d6001141558600a015760016000f35b505050565b6303daa959598160e01b8152836004820152602081602483336000905af158600e01573d6000803e3d6000fd5b3d6001141558600a015760016000f35b8051935060005b6040811015610ad457600082820152602001610abd565b505050565b6373509064598160e01b8152602081600483336000905af158600e01573d6000803e3d6000fd5b3d6001141558600a015760016000f35b80516000825293506020610abd565b638435035b598160e01b8152836004820152602081602483336000905af158600e01573d6000803e3d6000fd5b3d6001141558600a015760016000f35b80516000825293506020610abd565b638540661f598160e01b8152610b9e565b8080831115610b885750815b92915050565b8080831015610b88575090919050565b836004820152846024820152606060448201528660648201526084810160005b88811015610bd6578088015182820152602001610bbe565b506060828960a40184336000905af158600e01573d6000803e3d6000fd5b3d6001141558600a015760016000f35b815160408301513d6000853e8b8b82606087013350600060045af15059610c2b8d3d610b8e565b8c01610c378187610b7c565b5b82811015610c4c5760008152602001610c38565b50929c50505050505050565b604051608081016040908152600080835260208301819052908201819052606082015290565b6385979f76598160e01b8152836004820152846024820152606060448201528760648201526084810160005b89811015610cc2578089015182820152602001610caa565b506060828a60a40184336000905af158600e01573d6000803e3d6000fd5b3d6001141558600a015760016000f35b815160408301513d6000853e8c8c82606087013350600060045af15059610d178e3d610b8e565b8d01610d238187610b7c565b5b82811015610d385760008152602001610d24565b50929d50505050505050565b63bdbf8c36598160e01b8152602081600483336000905af158600e01573d6000803e3d6000fd5b3d6001141558600a015760016000f35b80516000825293506020610abd56fe819e390338feffe95e2de57172d6faf337853dfd15c7a09a32d76f7fd2443875",
  "deployedBytecode": "0x608060405234801561001957600080610016610a0e565b50505b50600436106100765760003560e01c806306fdde03146100845780630d474158146101035780632b22e6d3146101415780634ecf55d31461016757806360c38b281461018d57806360f71b24146101b15780639958525f146101b9575b600080610081610a0e565b50505b61008c610233565b60405160208082528190810183818151815260200191508051906020019080838360005b838110156100c85780820151838201526020016100b0565b50505050905090810190601f1680156100f55780820380516001836020036101000a031916815260200191505b509250505060405180910390f35b61012f600480360360408110156101225760008061011f610a0e565b50505b50803590602001356102ec565b60405190815260200160405180910390f35b61012f600480360360208110156101605760008061015d610a0e565b50505b5035610329565b61012f6004803603602081101561018657600080610183610a0e565b50505b5035610351565b61019561035d565b6040516001600160a01b03909116815260200160405180910390f35b61019561037c565b61021b60048036036101008110156101d9576000806101d6610a0e565b50505b506001600160a01b0381358116916020810135821691604082013581169160608101359091169060808101359060a08101359060c08101359060e00135610388565b60405191825260208201526040908101905180910390f35b60008061023e610a79565b600181600116156101000203166002900480601f016020809104026020016040519081016040528181529190602083018280610278610a79565b600181600116156101000203166002900480156102e45780601f106102b25761010080836102a4610a79565b0402835291602001916102e4565b820191906000526020600020905b816102c9610a79565b815290600101906020018083116102c057829003601f168201915b505050505081565b600782816102f8610a79565b811061030057fe5b9060005260206000209060020201816002811061031957fe5b0191506103269050610a79565b81565b60058181610335610a79565b811061033d57fe5b906000526020600020019050610326610a79565b60068181610335610a79565b60006001610369610a79565b906101000a90046001600160a01b031681565b60006002610369610a79565b600080806001610396610a79565b906101000a90046001600160a01b03166001600160a01b031663ca3a86cd5a6103bd610ad9565b6040516001600160e01b031960e084901b1681526001600160a01b03909116600482015260240160206040518083038186806103f7610b1f565b15801561040c57600080610409610a0e565b50505b505a610416610b6b565b5050505050158015610435573d6000803e3d6000610432610a0e565b50505b505050506040513d602081101561045457600080610451610a0e565b50505b810190808051151560011492506104b49150505760405162461bcd60e51b81526020600482015260146024820152733737ba1030b71030b8383937bb32b2103830b4b960611b6044820152606401604051809103906104b1610a0e565b50505b600086116104ca576000806104c7610a0e565b50505b600085116104e0576000806104dd610a0e565b50505b600084116104f6576000806104f3610a0e565b50505b6000831161050c57600080610509610a0e565b50505b61051c8a8a8a8a8a8a8a8a610529565b9850989650505050505050565b610531610c58565b610539610c58565b6105478a8988888888610566565b91509150610559898884848e8d6105f8565b5050505050505050505050565b61056e610c58565b610576610c58565b8787610580610c58565b60405180608001604052808a8152602001846001600160a01b03168152602001898152602001836001600160a01b031681525090506105bd610c58565b6040516080810160409081529881526001600160a01b0393841660208201529788019690965291166060860152989397509295505050505050565b6000806001600160a01b03881663271e44268751886020015189604001518a606001516040516001600160e01b031960e087901b16815260048101949094526001600160a01b03928316602485015260448401919091521660648201526084016020604051808303816000878061066d610b1f565b1580156106825760008061067f610a0e565b50505b505a61068c610c7e565b5050505050501580156106ac573d6000803e3d60006106a9610a0e565b50505b505050506040513d60208110156106cb576000806106c8610a0e565b50505b8101908080519350600080516020610d8b833981519152925088915050518760200151886040015189606001516040519384526001600160a01b03928316602085015260408085019290925290911660608301526080909101905180910390a160006001600160a01b03881663271e44268751886020015189604001518a606001516040516001600160e01b031960e087901b16815260048101949094526001600160a01b03928316602485015260448401919091521660648201526084016020604051808303816000878061079f610b1f565b1580156107b4576000806107b1610a0e565b50505b505a6107be610c7e565b5050505050501580156107de573d6000803e3d60006107db610a0e565b50505b505050506040513d60208110156107fd576000806107fa610a0e565b50505b8101908080519350600080516020610d8b833981519152925088915050518760200151886040015189606001516040519384526001600160a01b03928316602085015260408085019290925290911660608301526080909101905180910390a1600080600161086a610a79565b906101000a90046001600160a01b03166001600160a01b031663b3d7480e87876040516001600160e01b031960e085901b1681526001600160a01b0392831660048201529116602482015260440160206040518083038186806108cb610b1f565b1580156108e0576000806108dd610a0e565b50505b505a6108ea610b6b565b5050505050158015610909573d6000803e3d6000610906610a0e565b50505b505050506040513d602081101561092857600080610925610a0e565b50505b8101908080519350506001600160a01b03831691506357556172905060405180606001604052808681526020018581526020015a610964610d44565b90526040516001600160e01b031960e084901b1681526004018082606080838360005b8381101561099f578082015183820152602001610987565b50505050905001915050600060405180830381600087806109be610b1f565b1580156109d3576000806109d0610a0e565b50505b505a6109dd610c7e565b5050505050501580156109fd573d6000803e3d60006109fa610a0e565b50505b505050505050509695505050505050565b632a2a7adb598160e01b8152600481016020815285602082015260005b86811015610a46578086015182820160400152602001610a2b565b506020828760640184336000905af158601d01573d60011458600c01573d6000803e3d621234565260ea61109c52505050565b6303daa959598160e01b8152836004820152602081602483336000905af158601d01573d60011458600c01573d6000803e3d621234565260ea61109c528051935060005b6040811015610ad457600082820152602001610abd565b505050565b6373509064598160e01b8152602081600483336000905af158601d01573d60011458600c01573d6000803e3d621234565260ea61109c5280516000825293506020610abd565b638435035b598160e01b8152836004820152602081602483336000905af158601d01573d60011458600c01573d6000803e3d621234565260ea61109c5280516000825293506020610abd565b638540661f598160e01b8152610b9e565b8080831115610b885750815b92915050565b8080831015610b88575090919050565b836004820152846024820152606060448201528660648201526084810160005b88811015610bd6578088015182820152602001610bbe565b506060828960a40184336000905af158601d01573d60011458600c01573d6000803e3d621234565260ea61109c52815160408301513d6000853e8b8b82606087013350600060045af15059610c2b8d3d610b8e565b8c01610c378187610b7c565b5b82811015610c4c5760008152602001610c38565b50929c50505050505050565b604051608081016040908152600080835260208301819052908201819052606082015290565b6385979f76598160e01b8152836004820152846024820152606060448201528760648201526084810160005b89811015610cc2578089015182820152602001610caa565b506060828a60a40184336000905af158601d01573d60011458600c01573d6000803e3d621234565260ea61109c52815160408301513d6000853e8c8c82606087013350600060045af15059610d178e3d610b8e565b8d01610d238187610b7c565b5b82811015610d385760008152602001610d24565b50929d50505050505050565b63bdbf8c36598160e01b8152602081600483336000905af158601d01573d60011458600c01573d6000803e3d621234565260ea61109c5280516000825293506020610abd56fe819e390338feffe95e2de57172d6faf337853dfd15c7a09a32d76f7fd2443875",
  "linkReferences": {},
  "deployedLinkReferences": {}
}