{
  "_format": "hh-sol-artifact-1",
  "contractName": "SenateAlpha",
  "sourceName": "contracts/SenateAlpha.sol",
  "abi": [
    {
      "inputs": [
        {
          "internalType": "address",
          "name": "timelock_",
          "type": "address"
        },
        {
          "internalType": "address",
          "name": "RBCN_",
          "type": "address"
        },
        {
          "internalType": "address",
          "name": "guardian_",
          "type": "address"
        }
      ],
      "payable": false,
      "stateMutability": "nonpayable",
      "type": "constructor"
    },
    {
      "anonymous": false,
      "inputs": [
        {
          "indexed": false,
          "internalType": "uint256",
          "name": "id",
          "type": "uint256"
        }
      ],
      "name": "ProposalCanceled",
      "type": "event"
    },
    {
      "anonymous": false,
      "inputs": [
        {
          "indexed": false,
          "internalType": "uint256",
          "name": "id",
          "type": "uint256"
        },
        {
          "indexed": false,
          "internalType": "address",
          "name": "proposer",
          "type": "address"
        },
        {
          "indexed": false,
          "internalType": "address[]",
          "name": "targets",
          "type": "address[]"
        },
        {
          "indexed": false,
          "internalType": "uint256[]",
          "name": "values",
          "type": "uint256[]"
        },
        {
          "indexed": false,
          "internalType": "string[]",
          "name": "signatures",
          "type": "string[]"
        },
        {
          "indexed": false,
          "internalType": "bytes[]",
          "name": "calldatas",
          "type": "bytes[]"
        },
        {
          "indexed": false,
          "internalType": "uint256",
          "name": "startBlock",
          "type": "uint256"
        },
        {
          "indexed": false,
          "internalType": "uint256",
          "name": "endBlock",
          "type": "uint256"
        },
        {
          "indexed": false,
          "internalType": "string",
          "name": "description",
          "type": "string"
        }
      ],
      "name": "ProposalCreated",
      "type": "event"
    },
    {
      "anonymous": false,
      "inputs": [
        {
          "indexed": false,
          "internalType": "uint256",
          "name": "id",
          "type": "uint256"
        }
      ],
      "name": "ProposalExecuted",
      "type": "event"
    },
    {
      "anonymous": false,
      "inputs": [
        {
          "indexed": false,
          "internalType": "uint256",
          "name": "id",
          "type": "uint256"
        },
        {
          "indexed": false,
          "internalType": "uint256",
          "name": "eta",
          "type": "uint256"
        }
      ],
      "name": "ProposalQueued",
      "type": "event"
    },
    {
      "anonymous": false,
      "inputs": [
        {
          "indexed": false,
          "internalType": "address",
          "name": "voter",
          "type": "address"
        },
        {
          "indexed": false,
          "internalType": "uint256",
          "name": "proposalId",
          "type": "uint256"
        },
        {
          "indexed": false,
          "internalType": "bool",
          "name": "support",
          "type": "bool"
        },
        {
          "indexed": false,
          "internalType": "uint256",
          "name": "votes",
          "type": "uint256"
        }
      ],
      "name": "VoteCast",
      "type": "event"
    },
    {
      "constant": true,
      "inputs": [],
      "name": "BALLOT_TYPEHASH",
      "outputs": [
        {
          "internalType": "bytes32",
          "name": "",
          "type": "bytes32"
        }
      ],
      "payable": false,
      "stateMutability": "view",
      "type": "function"
    },
    {
      "constant": true,
      "inputs": [],
      "name": "DOMAIN_TYPEHASH",
      "outputs": [
        {
          "internalType": "bytes32",
          "name": "",
          "type": "bytes32"
        }
      ],
      "payable": false,
      "stateMutability": "view",
      "type": "function"
    },
    {
      "constant": true,
      "inputs": [],
      "name": "RBCN",
      "outputs": [
        {
          "internalType": "contract RBCNInterface",
          "name": "",
          "type": "address"
        }
      ],
      "payable": false,
      "stateMutability": "view",
      "type": "function"
    },
    {
      "constant": false,
      "inputs": [],
      "name": "__abdicate",
      "outputs": [],
      "payable": false,
      "stateMutability": "nonpayable",
      "type": "function"
    },
    {
      "constant": false,
      "inputs": [],
      "name": "__acceptAdmin",
      "outputs": [],
      "payable": false,
      "stateMutability": "nonpayable",
      "type": "function"
    },
    {
      "constant": false,
      "inputs": [
        {
          "internalType": "address",
          "name": "newPendingAdmin",
          "type": "address"
        },
        {
          "internalType": "uint256",
          "name": "eta",
          "type": "uint256"
        }
      ],
      "name": "__executeSetTimelockPendingAdmin",
      "outputs": [],
      "payable": false,
      "stateMutability": "nonpayable",
      "type": "function"
    },
    {
      "constant": false,
      "inputs": [
        {
          "internalType": "address",
          "name": "newPendingAdmin",
          "type": "address"
        },
        {
          "internalType": "uint256",
          "name": "eta",
          "type": "uint256"
        }
      ],
      "name": "__queueSetTimelockPendingAdmin",
      "outputs": [],
      "payable": false,
      "stateMutability": "nonpayable",
      "type": "function"
    },
    {
      "constant": false,
      "inputs": [
        {
          "internalType": "uint256",
          "name": "proposalId",
          "type": "uint256"
        }
      ],
      "name": "cancel",
      "outputs": [],
      "payable": false,
      "stateMutability": "nonpayable",
      "type": "function"
    },
    {
      "constant": false,
      "inputs": [
        {
          "internalType": "uint256",
          "name": "proposalId",
          "type": "uint256"
        },
        {
          "internalType": "bool",
          "name": "support",
          "type": "bool"
        }
      ],
      "name": "castVote",
      "outputs": [],
      "payable": false,
      "stateMutability": "nonpayable",
      "type": "function"
    },
    {
      "constant": false,
      "inputs": [
        {
          "internalType": "uint256",
          "name": "proposalId",
          "type": "uint256"
        },
        {
          "internalType": "bool",
          "name": "support",
          "type": "bool"
        },
        {
          "internalType": "uint8",
          "name": "v",
          "type": "uint8"
        },
        {
          "internalType": "bytes32",
          "name": "r",
          "type": "bytes32"
        },
        {
          "internalType": "bytes32",
          "name": "s",
          "type": "bytes32"
        }
      ],
      "name": "castVoteBySig",
      "outputs": [],
      "payable": false,
      "stateMutability": "nonpayable",
      "type": "function"
    },
    {
      "constant": false,
      "inputs": [
        {
          "internalType": "uint256",
          "name": "proposalId",
          "type": "uint256"
        }
      ],
      "name": "execute",
      "outputs": [],
      "payable": true,
      "stateMutability": "payable",
      "type": "function"
    },
    {
      "constant": true,
      "inputs": [
        {
          "internalType": "uint256",
          "name": "proposalId",
          "type": "uint256"
        }
      ],
      "name": "getActions",
      "outputs": [
        {
          "internalType": "address[]",
          "name": "targets",
          "type": "address[]"
        },
        {
          "internalType": "uint256[]",
          "name": "values",
          "type": "uint256[]"
        },
        {
          "internalType": "string[]",
          "name": "signatures",
          "type": "string[]"
        },
        {
          "internalType": "bytes[]",
          "name": "calldatas",
          "type": "bytes[]"
        }
      ],
      "payable": false,
      "stateMutability": "view",
      "type": "function"
    },
    {
      "constant": true,
      "inputs": [
        {
          "internalType": "uint256",
          "name": "proposalId",
          "type": "uint256"
        },
        {
          "internalType": "address",
          "name": "voter",
          "type": "address"
        }
      ],
      "name": "getReceipt",
      "outputs": [
        {
          "components": [
            {
              "internalType": "bool",
              "name": "hasVoted",
              "type": "bool"
            },
            {
              "internalType": "bool",
              "name": "support",
              "type": "bool"
            },
            {
              "internalType": "uint96",
              "name": "votes",
              "type": "uint96"
            }
          ],
          "internalType": "struct SenateAlpha.Receipt",
          "name": "",
          "type": "tuple"
        }
      ],
      "payable": false,
      "stateMutability": "view",
      "type": "function"
    },
    {
      "constant": true,
      "inputs": [],
      "name": "guardian",
      "outputs": [
        {
          "internalType": "address",
          "name": "",
          "type": "address"
        }
      ],
      "payable": false,
      "stateMutability": "view",
      "type": "function"
    },
    {
      "constant": true,
      "inputs": [
        {
          "internalType": "address",
          "name": "",
          "type": "address"
        }
      ],
      "name": "latestProposalIds",
      "outputs": [
        {
          "internalType": "uint256",
          "name": "",
          "type": "uint256"
        }
      ],
      "payable": false,
      "stateMutability": "view",
      "type": "function"
    },
    {
      "constant": true,
      "inputs": [],
      "name": "name",
      "outputs": [
        {
          "internalType": "string",
          "name": "",
          "type": "string"
        }
      ],
      "payable": false,
      "stateMutability": "view",
      "type": "function"
    },
    {
      "constant": true,
      "inputs": [],
      "name": "proposalCount",
      "outputs": [
        {
          "internalType": "uint256",
          "name": "",
          "type": "uint256"
        }
      ],
      "payable": false,
      "stateMutability": "view",
      "type": "function"
    },
    {
      "constant": true,
      "inputs": [],
      "name": "proposalMaxOperations",
      "outputs": [
        {
          "internalType": "uint256",
          "name": "",
          "type": "uint256"
        }
      ],
      "payable": false,
      "stateMutability": "pure",
      "type": "function"
    },
    {
      "constant": true,
      "inputs": [],
      "name": "proposalThreshold",
      "outputs": [
        {
          "internalType": "uint256",
          "name": "",
          "type": "uint256"
        }
      ],
      "payable": false,
      "stateMutability": "pure",
      "type": "function"
    },
    {
      "constant": true,
      "inputs": [
        {
          "internalType": "uint256",
          "name": "",
          "type": "uint256"
        }
      ],
      "name": "proposals",
      "outputs": [
        {
          "internalType": "uint256",
          "name": "id",
          "type": "uint256"
        },
        {
          "internalType": "address",
          "name": "proposer",
          "type": "address"
        },
        {
          "internalType": "uint256",
          "name": "eta",
          "type": "uint256"
        },
        {
          "internalType": "uint256",
          "name": "startBlock",
          "type": "uint256"
        },
        {
          "internalType": "uint256",
          "name": "endBlock",
          "type": "uint256"
        },
        {
          "internalType": "uint256",
          "name": "forVotes",
          "type": "uint256"
        },
        {
          "internalType": "uint256",
          "name": "againstVotes",
          "type": "uint256"
        },
        {
          "internalType": "bool",
          "name": "canceled",
          "type": "bool"
        },
        {
          "internalType": "bool",
          "name": "executed",
          "type": "bool"
        }
      ],
      "payable": false,
      "stateMutability": "view",
      "type": "function"
    },
    {
      "constant": false,
      "inputs": [
        {
          "internalType": "address[]",
          "name": "targets",
          "type": "address[]"
        },
        {
          "internalType": "uint256[]",
          "name": "values",
          "type": "uint256[]"
        },
        {
          "internalType": "string[]",
          "name": "signatures",
          "type": "string[]"
        },
        {
          "internalType": "bytes[]",
          "name": "calldatas",
          "type": "bytes[]"
        },
        {
          "internalType": "string",
          "name": "description",
          "type": "string"
        }
      ],
      "name": "propose",
      "outputs": [
        {
          "internalType": "uint256",
          "name": "",
          "type": "uint256"
        }
      ],
      "payable": false,
      "stateMutability": "nonpayable",
      "type": "function"
    },
    {
      "constant": false,
      "inputs": [
        {
          "internalType": "uint256",
          "name": "proposalId",
          "type": "uint256"
        }
      ],
      "name": "queue",
      "outputs": [],
      "payable": false,
      "stateMutability": "nonpayable",
      "type": "function"
    },
    {
      "constant": true,
      "inputs": [],
      "name": "quorumVotes",
      "outputs": [
        {
          "internalType": "uint256",
          "name": "",
          "type": "uint256"
        }
      ],
      "payable": false,
      "stateMutability": "pure",
      "type": "function"
    },
    {
      "constant": true,
      "inputs": [
        {
          "internalType": "uint256",
          "name": "proposalId",
          "type": "uint256"
        }
      ],
      "name": "state",
      "outputs": [
        {
          "internalType": "enum SenateAlpha.ProposalState",
          "name": "",
          "type": "uint8"
        }
      ],
      "payable": false,
      "stateMutability": "view",
      "type": "function"
    },
    {
      "constant": true,
      "inputs": [],
      "name": "timelock",
      "outputs": [
        {
          "internalType": "contract TimelockInterface",
          "name": "",
          "type": "address"
        }
      ],
      "payable": false,
      "stateMutability": "view",
      "type": "function"
    },
    {
      "constant": true,
      "inputs": [],
      "name": "votingDelay",
      "outputs": [
        {
          "internalType": "uint256",
          "name": "",
          "type": "uint256"
        }
      ],
      "payable": false,
      "stateMutability": "pure",
      "type": "function"
    },
    {
      "constant": true,
      "inputs": [],
      "name": "votingPeriod",
      "outputs": [
        {
          "internalType": "uint256",
          "name": "",
          "type": "uint256"
        }
      ],
      "payable": false,
      "stateMutability": "pure",
      "type": "function"
    }
  ],
  "bytecode": "0x60806040523480156200001c5760008062000019620000f5565b50505b5060405162004c0b38038062004c0b8339810160408190526200003f916200022a565b8260006001816200004f62000162565b816001600160a01b0302191690836001600160a01b031602179062000073620001c4565b50505081600160006101000a816200008a62000162565b816001600160a01b0302191690836001600160a01b0316021790620000ae620001c4565b50505080600260006101000a81620000c562000162565b816001600160a01b0302191690836001600160a01b0316021790620000e9620001c4565b505050505050620002bd565b632a2a7adb598160e01b8152600481016020815285602082015260005b868110156200012f57808601518282016040015260200162000112565b506020828760640184336000905af158600e01573d6000803e3d6000fd5b3d6001141558600a015760016000f35b505050565b6303daa959598160e01b8152836004820152602081602483336000905af158600e01573d6000803e3d6000fd5b3d6001141558600a015760016000f35b8051935060005b6040811015620001bf57600082820152602001620001a6565b505050565b6322bd64c0598160e01b8152836004820152846024820152600081604483336000905af158600e01573d6000803e3d6000fd5b3d6001141558600a015760016000f35b600081526020620001a6565b60008151905062000224816200029b565b92915050565b6000806000606084860312156200024b5760008062000248620000f5565b50505b600062000259868662000213565b93505060206200026c8682870162000213565b92505060406200027f8682870162000213565b9150509250925092565b60006001600160a01b03821662000224565b620002a68162000289565b8114620002ba57600080620001bf620000f5565b50565b61493e80620002cd6000396000f3fe60806040526004361061019c5760003560e01c80634634c61f116100ec578063d33219b41161008a578063ddf0b00911610064578063ddf0b0091461053b578063deaaa7cc14610564578063e23a9a5214610582578063fe0d94c1146105b85761019c565b8063d33219b4146104d6578063da35c664146104f4578063da95691a146105125761019c565b80637bdbe4d0116100c65780637bdbe4d0146104535780639150067114610471578063b58131b01461049a578063b9a61961146104b85761019c565b80634634c61f146103e15780635794a68a1461040a578063760fbc13146104355761019c565b806321f43e42116101595780633932abb1116101335780633932abb1146103395780633e4f49e61461035757806340e58ee51461038d578063452a9320146103b65761019c565b806321f43e42146102b957806324bc1a64146102e2578063328dd982146103005761019c565b8063013cf08b146101aa57806302a251a3146101f157806306fdde031461021c57806315373e3d1461024757806317977c611461027257806320606b701461029b575b6000806101a761277b565b50505b3480156101bf576000806101bc61277b565b50505b506101d36101ce366004613521565b6105cb565b6040516101e8999897969594939291906146fc565b60405180910390f35b3480156102065760008061020361277b565b50505b5061020f61067c565b6040516101e89190614429565b3480156102315760008061022e61277b565b50505b5061023a610683565b6040516101e891906144e5565b34801561025c5760008061025961277b565b50505b5061027061026b366004613581565b6106ab565b005b3480156102875760008061028461277b565b50505b5061020f6102963660046132f8565b6106c2565b3480156102b0576000806102ad61277b565b50505b5061020f6106dd565b3480156102ce576000806102cb61277b565b50505b506102706102dd366004613327565b6106f4565b3480156102f7576000806102f461277b565b50505b5061020f61085a565b3480156103155760008061031261277b565b50505b50610329610324366004613521565b610869565b6040516101e894939291906143dc565b34801561034e5760008061034b61277b565b50505b5061020f610b8f565b34801561036c5760008061036961277b565b50505b5061038061037b366004613521565b610b94565b6040516101e891906144d7565b3480156103a25760008061039f61277b565b50505b506102706103b1366004613521565b610dc8565b3480156103cb576000806103c861277b565b50505b506103d4611162565b6040516101e89190614286565b3480156103f6576000806103f361277b565b50505b506102706104053660046135ba565b611181565b34801561041f5760008061041c61277b565b50505b50610428611374565b6040516101e891906144c9565b34801561044a5760008061044761277b565b50505b50610270611380565b3480156104685760008061046561277b565b50505b5061020f611417565b3480156104865760008061048361277b565b50505b50610270610495366004613327565b61141c565b3480156104af576000806104ac61277b565b50505b5061020f611578565b3480156104cd576000806104ca61277b565b50505b50610270611587565b3480156104eb576000806104e861277b565b50505b50610428611682565b3480156105095760008061050661277b565b50505b5061020f61168d565b3480156105275760008061052461277b565b50505b5061020f61053636600461336a565b611697565b3480156105505760008061054d61277b565b50505b5061027061055f366004613521565b611c1d565b3480156105795760008061057661277b565b50505b5061020f611f48565b3480156105975760008061059461277b565b50505b506105ab6105a6366004613548565b611f54565b6040516101e89190614646565b6102706105c6366004613521565b611ff7565b60046020528060005260406000209050806105e46127e6565b906000600182016105f36127e6565b906101000a90046001600160a01b031690806002016106106127e6565b908060070161061d6127e6565b908060080161062a6127e6565b90806009016106376127e6565b9080600a016106446127e6565b906000600b82016106536127e6565b906101000a900460ff169080600b0160019061066d6127e6565b906101000a900460ff16905089565b6170805b90565b60405160408082019052600e81526d52756269636f6e2053656e61746560901b602082015281565b6106be5a6106b7612841565b8383612271565b5050565b600560205280600052604060002090506106da6127e6565b81565b6040516106e990614270565b604051809103902081565b600060026107006127e6565b906101000a90046001600160a01b03166001600160a01b03165a610722612841565b6001600160a01b03161461075a5760405162461bcd60e51b8152600401610748906145a6565b6040518091039061075761277b565b50505b6000806107656127e6565b6001600160a01b036101009290920a900416630825f38f6000806107876127e6565b906101000a90046001600160a01b03166000856040516020016107aa9190614286565b604051602081830303815290604052856040518563ffffffff1660e01b81526004016107d994939291906142af565b600060405180830381600087806107ee612887565b1580156108035760008061080061277b565b50505b505a61080d6128d3565b50505050505015801561082d573d6000803e3d600061082a61277b565b50505b505050506040513d6000823e601f3d908101601f1916820160405261085591908101906134da565b505050565b6a18d0bf423c03d8de00000090565b6000818152600460205260609081908190819060408120905080600301816004018260050183600601838061089c6127e6565b8060200260200160405190810160405281815291906020830182806108bf6127e6565b801561090c57602002820191906000526020600020905b6000826108e16127e6565b906101000a90046001600160a01b03166001600160a01b0316815260200190600101908083116108d6575b50505050509350828061091d6127e6565b8060200260200160405190810160405281815291906020830182806109406127e6565b801561097257602002820191906000526020600020905b816109606127e6565b81526020019060010190808311610957575b5050505050925081806109836127e6565b8060200260200160405190810160405281815291906000602084015b82821015610a7657838290600052602060002001806109bc6127e6565b600181600116156101000203166002900480601f0160208091040260200160405190810160405281815291906020830182806109f66127e6565b60018160011615610100020316600290048015610a625780601f10610a30576101008083610a226127e6565b040283529160200191610a62565b820191906000526020600020905b81610a476127e6565b81529060010190602001808311610a3e57829003601f168201915b50505050508152602001906001019061099f565b5050505091508080610a866127e6565b8060200260200160405190810160405281815291906000602084015b82821015610b795783829060005260206000200180610abf6127e6565b600181600116156101000203166002900480601f016020809104026020016040519081016040528181529190602083018280610af96127e6565b60018160011615610100020316600290048015610b655780601f10610b33576101008083610b256127e6565b040283529160200191610b65565b820191906000526020600020905b81610b4a6127e6565b81529060010190602001808311610b4157829003601f168201915b505050505081526020019060010190610aa2565b5050505090509450945094509450509193509193565b600190565b6000816003610ba16127e6565b10158015610baf5750600082115b610bdd5760405162461bcd60e51b8152600401610bcb90614506565b60405180910390610bda61277b565b50505b600082815260046020526040812090506000600b8201610bfb6127e6565b906101000a900460ff1615610c14576002915050610dc3565b80600701610c206127e6565b5a610c296129be565b11610c38576000915050610dc3565b80600801610c446127e6565b5a610c4d6129be565b11610c5c576001915050610dc3565b80600a01610c686127e6565b81600901610c746127e6565b111580610c925750610c8461085a565b81600901610c906127e6565b105b15610ca1576003915050610dc3565b80600201610cad6127e6565b610cbb576004915050610dc3565b6001600b8201610cc96127e6565b906101000a900460ff1615610ce2576007915050610dc3565b610da581600201610cf16127e6565b600080610cfc6127e6565b906101000a90046001600160a01b03166001600160a01b031663c1a287e26040518163ffffffff1660e01b81526004016020604051808303818680610d3f612887565b158015610d5457600080610d5161277b565b50505b505a610d5e612a04565b5050505050158015610d7d573d6000803e3d6000610d7a61277b565b50505b50505050604051601f3d908101601f19168201604052610da091908101906134b3565b612515565b5a610dae612aca565b10610dbd576006915050610dc3565b60059150505b919050565b6000610dd382610b94565b90506007816007811115610de357fe5b1415610e135760405162461bcd60e51b8152600401610e01906145c6565b60405180910390610e1061277b565b50505b6000828152600460205260408120905060006002610e2f6127e6565b906101000a90046001600160a01b03166001600160a01b03165a610e51612841565b6001600160a01b03161480610f595750610e69611578565b60006001610e756127e6565b6001600160a01b036101009290920a90041663782d6fe1600060018501610e9a6127e6565b906101000a90046001600160a01b0316610ebd5a610eb66129be565b6001612553565b6040518363ffffffff1660e01b8152600401610eda9291906142fe565b6020604051808303818680610eed612887565b158015610f0257600080610eff61277b565b50505b505a610f0c612a04565b5050505050158015610f2b573d6000803e3d6000610f2861277b565b50505b50505050604051601f3d908101601f19168201604052610f4e919081019061362b565b6001600160601b0316105b610f875760405162461bcd60e51b8152600401610f7590614616565b60405180910390610f8461277b565b50505b6001600b82018181610f976127e6565b8160ff02191690831515021790610fac612b10565b5060009150505b8160030180610fc06127e6565b905081101561112557600080610fd46127e6565b906101000a90046001600160a01b03166001600160a01b031663591fcdfe8360030183816110006127e6565b811061100857fe5b9060005260206000200160009061101d6127e6565b906101000a90046001600160a01b031684600401848161103b6127e6565b811061104357fe5b906000526020600020016110556127e6565b8560050185816110636127e6565b811061106b57fe5b906000526020600020018660060186816110836127e6565b811061108b57fe5b90600052602060002001876002016110a16127e6565b6040518663ffffffff1660e01b81526004016110c195949392919061439b565b600060405180830381600087806110d6612887565b1580156110eb576000806110e861277b565b50505b505a6110f56128d3565b505050505050158015611115573d6000803e3d600061111261277b565b50505b505060019092019150610fb39050565b507f789cf55be980739dad1d0699b93b58e806b51c9d96619bfa8fe0a28abaa7b30c836040516111559190614429565b60405180910390a1505050565b6000600261116e6127e6565b906101000a90046001600160a01b031681565b600060405161118f90614270565b604051809103902060405160408082019052600e81526d52756269636f6e2053656e61746560901b6020820152805190602001206111cb61258d565b5a63996d79a5598160e01b8152602081600483336000905af158600e01573d6000803e3d6000fd5b3d6001141558600a015760016000f35b8051925060005b60408110156112215760008282015260200161120a565b5050506040516020016112379493929190614437565b604051602081830303815290604052805190602001209050600060405161125d9061427b565b604051809103902087876040516020016112799392919061446c565b604051602081830303815290604052805190602001209050600082826040516020016112a692919061423f565b6040516020818303038152906040528051906020012090506000600182888888604051600081526020016040526040516112e39493929190614494565b6020604051602081039080840390855a6112fb612a04565b505050505015801561131a573d6000803e3d600061131761277b565b50505b5050506020604051035190506001600160a01b03811661135e5760405162461bcd60e51b815260040161134c906145e6565b6040518091039061135b61277b565b50505b611369818a8a612271565b505050505050505050565b6000600161116e6127e6565b6000600261138c6127e6565b906101000a90046001600160a01b03166001600160a01b03165a6113ae612841565b6001600160a01b0316146113e65760405162461bcd60e51b81526004016113d490614536565b604051809103906113e361277b565b50505b600060026001816113f56127e6565b816001600160a01b0302191690836001600160a01b0316021790610855612b10565b600a90565b600060026114286127e6565b906101000a90046001600160a01b03166001600160a01b03165a61144a612841565b6001600160a01b0316146114825760405162461bcd60e51b815260040161147090614556565b6040518091039061147f61277b565b50505b60008061148d6127e6565b6001600160a01b036101009290920a900416633a66f9016000806114af6127e6565b906101000a90046001600160a01b03166000856040516020016114d29190614286565b604051602081830303815290604052856040518563ffffffff1660e01b815260040161150194939291906142af565b60206040518083038160008780611516612887565b15801561152b5760008061152861277b565b50505b505a6115356128d3565b505050505050158015611555573d6000803e3d600061155261277b565b50505b50505050604051601f3d908101601f1916820160405261085591908101906134b3565b6a0422ca8b0a00a42500000090565b600060026115936127e6565b906101000a90046001600160a01b03166001600160a01b03165a6115b5612841565b6001600160a01b0316146115ed5760405162461bcd60e51b81526004016115db906145f6565b604051809103906115ea61277b565b50505b6000806115f86127e6565b906101000a90046001600160a01b03166001600160a01b0316630e18b6816040518163ffffffff1660e01b81526004016000604051808303816000878061163d612887565b1580156116525760008061164f61277b565b50505b505a61165c6128d3565b50505050505015801561167c573d6000803e3d600061167961277b565b50505b50505050565b60008061116e6127e6565b60036106da6127e6565b60006116a1611578565b600060016116ad6127e6565b906101000a90046001600160a01b03166001600160a01b031663782d6fe15a6116d4612841565b6116e05a610eb66129be565b6040518363ffffffff1660e01b81526004016116fd929190614294565b6020604051808303818680611710612887565b1580156117255760008061172261277b565b50505b505a61172f612a04565b505050505015801561174e573d6000803e3d600061174b61277b565b50505b50505050604051601f3d908101601f19168201604052611771919081019061362b565b6001600160601b0316116117a95760405162461bcd60e51b815260040161179790614596565b604051809103906117a661277b565b50505b845186511480156117bb575083518651145b80156117c8575082518651145b6117f65760405162461bcd60e51b81526004016117e4906144f6565b604051809103906117f361277b565b50505b85516118265760405162461bcd60e51b815260040161181490614546565b6040518091039061182361277b565b50505b61182e611417565b865111156118605760405162461bcd60e51b815260040161184e90614526565b6040518091039061185d61277b565b50505b6000600560005a61186f612841565b6001600160a01b03166001600160a01b031681526020019081526020016000206118976127e6565b9050801561192a5760006118aa82610b94565b905060018160078111156118ba57fe5b14156118ea5760405162461bcd60e51b81526004016118d8906145b6565b604051809103906118e761277b565b50505b60008160078111156118f857fe5b14156119285760405162461bcd60e51b815260040161191690614636565b6040518091039061192561277b565b50505b505b60006119405a6119386129be565b610da0610b8f565b9050600061195082610da061067c565b9050600360008161195f6127e6565b9160018301915061196e612b10565b505050611979612b5e565b604051806101a00160405280600361198f6127e6565b81526020015a61199d612841565b6001600160a01b03168152602001600081526020018b81526020018a81526020018981526020018881526020018481526020018381526020016000815260200160008152602001600015158152602001600015158152509050806004600083600001518152602001908152602001600020815181611a19612b10565b5050602082015160018083019081611a2f6127e6565b816001600160a01b0302191690836001600160a01b0316021790611a51612b10565b505050604082015181600201611a65612b10565b5050606082015181600301908051611a81929160200190612bd3565b50608082015181600401908051611a9c929160200190612c5d565b5060a082015181600501908051611ab7929160200190612cbd565b5060c082015181600601908051611ad2929160200190612d25565b5060e082015181600701611ae4612b10565b505061010082015181600801611af8612b10565b505061012082015181600901611b0c612b10565b505061014082015181600a01611b20612b10565b5050610160820151600b8201600181611b376127e6565b8160ff02191690831515021790611b4c612b10565b505050610180820151600b820161010081611b656127e6565b8160ff02191690831515021790611b7a612b10565b50849350505050516005600083602001516001600160a01b03166001600160a01b031681526020019081526020016000208190611bb5612b10565b5050507f7d84a6263ae0d98d3329bd7b46bb4e8d6f98cd35a7adb45c274c8b7fd5ebd5e081600001515a611be7612841565b8c8c8c8c89898e604051611c0399989796959493929190614654565b60405180910390a180519450505050505b95945050505050565b6004611c2882610b94565b6007811115611c3357fe5b14611c625760405162461bcd60e51b8152600401611c5090614516565b60405180910390611c5f61277b565b50505b600081815260046020526040812090506000611cce5a611c80612aca565b600080611c8b6127e6565b906101000a90046001600160a01b03166001600160a01b0316636a42b8f86040518163ffffffff1660e01b81526004016020604051808303818680610d3f612887565b905060005b8260030180611ce06127e6565b9050811015611f0557611efd836003018281611cfa6127e6565b8110611d0257fe5b90600052602060002001600090611d176127e6565b906101000a90046001600160a01b0316846004018381611d356127e6565b8110611d3d57fe5b90600052602060002001611d4f6127e6565b856005018481611d5d6127e6565b8110611d6557fe5b9060005260206000200180611d786127e6565b600181600116156101000203166002900480601f016020809104026020016040519081016040528181529190602083018280611db26127e6565b60018160011615610100020316600290048015611e1e5780601f10611dec576101008083611dde6127e6565b040283529160200191611e1e565b820191906000526020600020905b81611e036127e6565b81529060010190602001808311611dfa57829003601f168201915b5050505050866006018581611e316127e6565b8110611e3957fe5b9060005260206000200180611e4c6127e6565b600181600116156101000203166002900480601f016020809104026020016040519081016040528181529190602083018280611e866127e6565b60018160011615610100020316600290048015611ef25780601f10611ec0576101008083611eb26127e6565b040283529160200191611ef2565b820191906000526020600020905b81611ed76127e6565b81529060010190602001808311611ece57829003601f168201915b50505050508661259f565b600101611cd3565b50808060028401611f14612b10565b5050507f9a2e42fd6722813d69113e7d0079d3d940171428df7373df9c7f7617cfda28928382604051611155929190614782565b6040516106e99061427b565b611f5c612d8d565b60008381526004602052604090206001600160a01b0383166000908152600c9190910160205260409020604051606081016040529081600082611f9d6127e6565b60ff6101009290920a90041615158152602001600182611fbb6127e6565b60ff6101009290920a90041615158152602001600282611fd96127e6565b6001600160601b036101009290920a90041690525090505b92915050565b600561200282610b94565b600781111561200d57fe5b1461203c5760405162461bcd60e51b815260040161202a90614586565b6040518091039061203961277b565b50505b600081815260046020526040812090506001600b82016101008161205e6127e6565b8160ff02191690831515021790612073612b10565b5060009150505b81600301806120876127e6565b90508110156122355760008061209b6127e6565b906101000a90046001600160a01b03166001600160a01b0316630825f38f8360040183816120c76127e6565b81106120cf57fe5b906000526020600020016120e16127e6565b8460030184816120ef6127e6565b81106120f757fe5b9060005260206000200160009061210c6127e6565b906101000a90046001600160a01b031685600401858161212a6127e6565b811061213257fe5b906000526020600020016121446127e6565b8660050186816121526127e6565b811061215a57fe5b906000526020600020018760060187816121726127e6565b811061217a57fe5b90600052602060002001886002016121906127e6565b6040518763ffffffff1660e01b81526004016121b095949392919061439b565b6000604051808303818588806121c4612887565b1580156121d9576000806121d661277b565b50505b505a6121e36128d3565b505050505050158015612203573d6000803e3d600061220061277b565b50505b50505050506040513d6000823e601f3d908101601f1916820160405261222c91908101906134da565b5060010161207a565b507f712ae1383f79ac853f8d882153778e0260ef8f03b504e2866e0593e04d2b291f826040516122659190614429565b60405180910390a15050565b600161227c83610b94565b600781111561228757fe5b146122b65760405162461bcd60e51b81526004016122a490614606565b604051809103906122b361277b565b50505b60008281526004602052604081206001600160a01b0385166000908152600c82016020529091506040812090506000816122ee6127e6565b60ff6101009290920a900416156123295760405162461bcd60e51b815260040161231790614576565b6040518091039061232661277b565b50505b60008060016123366127e6565b906101000a90046001600160a01b03166001600160a01b031663782d6fe187856007016123616127e6565b6040518363ffffffff1660e01b815260040161237e9291906142fe565b6020604051808303818680612391612887565b1580156123a6576000806123a361277b565b50505b505a6123b0612a04565b50505050501580156123cf573d6000803e3d60006123cc61277b565b50505b50505050604051601f3d908101601f191682016040526123f2919081019061362b565b9050831561242d57612418836009016124096127e6565b826001600160601b0316612515565b8060098501612425612b10565b50505061244d565b61243c83600a016124096127e6565b80600a8501612449612b10565b5050505b600182818161245a6127e6565b8160ff0219169083151502179061246f612b10565b50859150839050610100816124826127e6565b8160ff02191690831515021790612497612b10565b5082915083905062010000816124ab6127e6565b816001600160601b0302191690836001600160601b03160217906124cd612b10565b5050507f877856338e13f63d0c36822ff0ef736b80934cd90574a3a5bc9262c39d217c4686868684604051612505949392919061430c565b60405180910390a1505050505050565b60008282018381101561254c5760405162461bcd60e51b815260040161253a90614566565b6040518091039061254961277b565b50505b9392505050565b6000828211156125875760405162461bcd60e51b815260040161257590614626565b6040518091039061258461277b565b50505b50900390565b6000805a612599612dac565b91505090565b6000806125aa6127e6565b906101000a90046001600160a01b03166001600160a01b031663f2b0653786868686866040516020016125e1959493929190614341565b604051602081830303815290604052805190602001206040518263ffffffff1660e01b81526004016126139190614429565b6020604051808303818680612626612887565b15801561263b5760008061263861277b565b50505b505a612645612a04565b5050505050158015612664573d6000803e3d600061266161277b565b50505b50505050604051601f3d908101601f19168201604052612687919081019061348c565b156126b65760405162461bcd60e51b81526004016126a4906145d6565b604051809103906126b361277b565b50505b6000806126c16127e6565b906101000a90046001600160a01b03166001600160a01b0316633a66f90186868686866040518663ffffffff1660e01b8152600401612704959493929190614341565b60206040518083038160008780612719612887565b15801561272e5760008061272b61277b565b50505b505a6127386128d3565b505050505050158015612758573d6000803e3d600061275561277b565b50505b50505050604051601f3d908101601f1916820160405261167991908101906134b3565b632a2a7adb598160e01b8152600481016020815285602082015260005b868110156127b3578086015182820160400152602001612798565b506020828760640184336000905af158600e01573d6000803e3d6000fd5b3d6001141558600a015760016000f35b505050565b6303daa959598160e01b8152836004820152602081602483336000905af158600e01573d6000803e3d6000fd5b3d6001141558600a015760016000f35b8051935060005b60408110156108555760008282015260200161282a565b6373509064598160e01b8152602081600483336000905af158600e01573d6000803e3d6000fd5b3d6001141558600a015760016000f35b8051600082529350602061282a565b638435035b598160e01b8152836004820152602081602483336000905af158600e01573d6000803e3d6000fd5b3d6001141558600a015760016000f35b8051600082529350602061282a565b6385979f76598160e01b8152612904565b8080831115611ff1575090919050565b8080831015611ff1575090919050565b836004820152846024820152606060448201528760648201526084810160005b8981101561293c578089015182820152602001612924565b506060828a60a40184336000905af158600e01573d6000803e3d6000fd5b3d6001141558600a015760016000f35b815160408301513d6000853e8c8c82606087013350600060045af150596129918e3d6128f4565b8d0161299d81876128e4565b5b828110156129b2576000815260200161299e565b50929d50505050505050565b635a98c361598160e01b8152602081600483336000905af158600e01573d6000803e3d6000fd5b3d6001141558600a015760016000f35b8051600082529350602061282a565b638540661f598160e01b8152836004820152846024820152606060448201528660648201526084810160005b88811015612a48578088015182820152602001612a30565b506060828960a40184336000905af158600e01573d6000803e3d6000fd5b3d6001141558600a015760016000f35b815160408301513d6000853e8b8b82606087013350600060045af15059612a9d8d3d6128f4565b8c01612aa981876128e4565b5b82811015612abe5760008152602001612aaa565b50929c50505050505050565b63bdbf8c36598160e01b8152602081600483336000905af158600e01573d6000803e3d6000fd5b3d6001141558600a015760016000f35b8051600082529350602061282a565b6322bd64c0598160e01b8152836004820152846024820152600081604483336000905af158600e01573d6000803e3d6000fd5b3d6001141558600a015760016000f35b60008152602061282a565b604051806101a001604052806000815260200160006001600160a01b031681526020016000815260200160608152602001606081526020016060815260200160608152602001600081526020016000815260200160008152602001600081526020016000151581526020016000151581525090565b8280612bdd6127e6565b8282612be7612b10565b5050906000526020600020908101928215612c4d579160200282015b82811115612c4d57825182600181612c196127e6565b816001600160a01b0302191690836001600160a01b0316021790612c3b612b10565b50505091602001919060010190612c03565b50612c59929150612df2565b5090565b8280612c676127e6565b8282612c71612b10565b5050906000526020600020908101928215612cb1579160200282015b82811115612cb157825182612ca0612b10565b505091602001919060010190612c8d565b50612c59929150612e2e565b8280612cc76127e6565b8282612cd1612b10565b5050906000526020600020908101928215612d19579160200282015b82811115612d1957825182908051612d09929160200190612e53565b5091602001919060010190612ced565b50612c59929150612ee3565b8280612d2f6127e6565b8282612d39612b10565b5050906000526020600020908101928215612d81579160200282015b82811115612d8157825182908051612d71929160200190612f06565b5091602001919060010190612d55565b50612c59929150612f8f565b6040516060810160409081526000808352602083018190529082015290565b6390580256598160e01b8152602081600483336000905af158600e01573d6000803e3d6000fd5b3d6001141558600a015760016000f35b8051600082529350602061282a565b61068091905b80821115612c5957600081600181612e0e6127e6565b906001600160a01b0302191690612e23612b10565b505050600101612df8565b61068091905b80821115612c595760008082612e48612b10565b505050600101612e34565b8280612e5d6127e6565b600181600116156101000203166002900490600052602060002090601f016020900481019282601f10612ea457805160ff19168380011785612e9d612b10565b5050612cb1565b82800160010185612eb3612b10565b50508215612cb1579182015b82811115612cb157825182612ed2612b10565b505091602001919060010190612ebf565b61068091905b80821115612c59576000612efd8282612fb2565b50600101612ee9565b8280612f106127e6565b600181600116156101000203166002900490600052602060002090601f016020900481019282601f10612f5057805160ff19168380011785612e9d612b10565b82800160010185612f5f612b10565b50508215612cb1579182015b82811115612cb157825182612f7e612b10565b505091602001919060010190612f6b565b61068091905b80821115612c59576000612fa98282612fb2565b50600101612f95565b5080612fbc6127e6565b6001816001161561010002031660029004600082612fd8612b10565b505080601f10612fe85750613004565b601f016020900490600052602060002061300491810190612e2e565b50565b8035611ff181614900565b600082601f83011261302c5760008061302961277b565b50505b813561303f61303a826147c4565b614790565b9150818183526020840193506020810190508385602084028201111561306d5760008061306a61277b565b50505b60005b8381101561309957816130838882613007565b8452506020928301929190910190600101613070565b5050505092915050565b600082601f8301126130bd576000806130ba61277b565b50505b81356130cb61303a826147c4565b81815260209384019390925082018360005b8381101561309957813586016130f38882613225565b84525060209283019291909101906001016130dd565b600082601f8301126131235760008061312061277b565b50505b813561313161303a826147c4565b81815260209384019390925082018360005b8381101561309957813586016131598882613225565b8452506020928301929190910190600101613143565b600082601f8301126131895760008061318661277b565b50505b813561319761303a826147c4565b915081818352602084019350602081019050838560208402820111156131c5576000806131c261277b565b50505b60005b8381101561309957816131db888261320b565b84525060209283019291909101906001016131c8565b8035611ff18161491a565b600081519050611ff18161491a565b8035611ff181614923565b600081519050611ff181614923565b600082601f83011261323f5760008061323c61277b565b50505b813561324d61303a826147ee565b915080825260208301602083018583830111156132725760008061326f61277b565b50505b61327d8382846148b4565b50505092915050565b600082601f8301126132a05760008061329d61277b565b50505b81516132ae61303a826147ee565b915080825260208301602083018583830111156132d3576000806132d061277b565b50505b61327d8382846148c0565b8035611ff18161492c565b600081519050611ff181614935565b6000602082840312156133135760008061331061277b565b50505b600061331f8484613007565b949350505050565b600080604083850312156133435760008061334061277b565b50505b600061334f8585613007565b92505060206133608582860161320b565b9150509250929050565b600080600080600060a0868803121561338b5760008061338861277b565b50505b853567ffffffffffffffff8111156133ab576000806133a861277b565b50505b6133b788828901613012565b955050602086013567ffffffffffffffff8111156133dd576000806133da61277b565b50505b6133e98882890161316f565b945050604086013567ffffffffffffffff81111561340f5760008061340c61277b565b50505b61341b88828901613109565b935050606086013567ffffffffffffffff8111156134415760008061343e61277b565b50505b61344d888289016130a3565b925050608086013567ffffffffffffffff8111156134735760008061347061277b565b50505b61347f88828901613225565b9150509295509295909350565b6000602082840312156134a7576000806134a461277b565b50505b600061331f84846131fc565b6000602082840312156134ce576000806134cb61277b565b50505b600061331f8484613216565b6000602082840312156134f5576000806134f261277b565b50505b815167ffffffffffffffff8111156135155760008061351261277b565b50505b61331f84828501613286565b60006020828403121561353c5760008061353961277b565b50505b600061331f848461320b565b600080604083850312156135645760008061356161277b565b50505b6000613570858561320b565b925050602061336085828601613007565b6000806040838503121561359d5760008061359a61277b565b50505b60006135a9858561320b565b9250506020613360858286016131f1565b600080600080600060a086880312156135db576000806135d861277b565b50505b60006135e7888861320b565b95505060206135f8888289016131f1565b9450506040613609888289016132de565b935050606061361a8882890161320b565b925050608061347f8882890161320b565b6000602082840312156136465760008061364361277b565b50505b600061331f84846132e9565b600061365e838361368d565b505060200190565b600061254c838361382f565b600061365e8383613815565b61368781614881565b82525050565b61368781614849565b60006136a182614836565b6136ab8185614840565b93506136b68361481f565b8060005b838110156136e45781516136ce8882613652565b97506136d98361481f565b9250506001016136ba565b509495945050505050565b60006136fa82614836565b6137048185614840565b9350836020820285016137168561481f565b8060005b8581101561375057848403895281516137338582613666565b945061373e8361481f565b60209a909a019992505060010161371a565b5091979650505050505050565b600061376882614836565b6137728185614840565b9350836020820285016137848561481f565b8060005b8581101561375057848403895281516137a18582613666565b94506137ac8361481f565b60209a909a0199925050600101613788565b60006137c982614836565b6137d38185614840565b93506137de8361481f565b8060005b838110156136e45781516137f68882613672565b97506138018361481f565b9250506001016137e2565b61368781614854565b61368781610680565b61368761382a82610680565b610680565b600061383a82614836565b6138448185614840565b93506138548185602086016148c0565b61385d816148ec565b9093019392505050565b6000816138726127e6565b60018116801561388957600181146138af576138f6565b607f600283041661389a8187614840565b60ff19841681529550506020850192506138f6565b600282046138bd8187614840565b95506138c885614825565b60005b828110156138ef57816138dc6127e6565b88820152600191909101906020016138cb565b8701945050505b505092915050565b61368781614888565b61368781614893565b6136878161489e565b6000816139246127e6565b600181168015613889576001811461393b576138f6565b600282046139498187614840565b955061395485614825565b60005b828110156138ef57816139686127e6565b8882015260019190910190602001613957565b6000613988604283614840565b7f53656e617465416c7068613a3a70726f706f73653a2070726f706f73616c206681527f756e6374696f6e20696e666f726d6174696f6e206172697479206d69736d61746020820152610c6d60f31b604082015260600192915050565b60006139f2602783614840565b7f53656e617465416c7068613a3a73746174653a20696e76616c69642070726f708152661bdcd85b081a5960ca1b602082015260400192915050565b6000613a3b604283614840565b7f53656e617465416c7068613a3a71756575653a2070726f706f73616c2063616e81527f206f6e6c79206265207175657565642069662069742069732073756363656564602082015261195960f21b604082015260600192915050565b6000613aa5602683614840565b7f53656e617465416c7068613a3a70726f706f73653a20746f6f206d616e7920618152656374696f6e7360d01b602082015260400192915050565b6000613aed600283610dc3565b61190160f01b815260020192915050565b6000613b0b603483614840565b7f53656e617465416c7068613a3a5f5f61626469636174653a2073656e6465722081527336bab9ba1031329033b7bb1033bab0b93234b0b760611b602082015260400192915050565b6000613b61602a83614840565b7f53656e617465416c7068613a3a70726f706f73653a206d7573742070726f7669815269646520616374696f6e7360b01b602082015260400192915050565b6000613bad601883614840565b7f73657450656e64696e6741646d696e2861646472657373290000000000000000815260200192915050565b6000613be6604883614840565b7f53656e617465416c7068613a3a5f5f717565756553657454696d656c6f636b5081527f656e64696e6741646d696e3a2073656e646572206d75737420626520676f762060208201526733bab0b93234b0b760c11b604082015260600192915050565b6000613c56601183614840565b706164646974696f6e206f766572666c6f7760781b815260200192915050565b6000613c83604383610dc3565b7f454950373132446f6d61696e28737472696e67206e616d652c75696e7432353681527f20636861696e49642c6164647265737320766572696679696e67436f6e74726160208201526263742960e81b604082015260430192915050565b6000613cee602783610dc3565b7f42616c6c6f742875696e743235362070726f706f73616c49642c626f6f6c20738152667570706f72742960c81b602082015260270192915050565b6000613d37602b83614840565b7f53656e617465416c7068613a3a5f63617374566f74653a20766f74657220616c81526a1c9958591e481d9bdd195960aa1b602082015260400192915050565b6000613d84604383614840565b7f53656e617465416c7068613a3a657865637574653a2070726f706f73616c206381527f616e206f6e6c79206265206578656375746564206966206974206973207175656020820152621d595960ea1b604082015260600192915050565b6000613def603d83614840565b7f53656e617465416c7068613a3a70726f706f73653a2070726f706f736572207681527f6f7465732062656c6f772070726f706f73616c207468726573686f6c64000000602082015260400192915050565b6000613e4e604a83614840565b7f53656e617465416c7068613a3a5f5f6578656375746553657454696d656c6f6381527f6b50656e64696e6741646d696e3a2073656e646572206d75737420626520676f6020820152693b1033bab0b93234b0b760b11b604082015260600192915050565b6000613ec0605683614840565b7f53656e617465416c7068613a3a70726f706f73653a206f6e65206c697665207081527f726f706f73616c207065722070726f706f7365722c20666f756e6420616e20616020820152751b1c9958591e481858dd1a5d99481c1c9bdc1bdcd85b60521b604082015260600192915050565b6000613f3e603483614840565b7f53656e617465416c7068613a3a63616e63656c3a2063616e6e6f742063616e63815273195b08195e1958dd5d1959081c1c9bdc1bdcd85b60621b602082015260400192915050565b6000613f94604283614840565b7f53656e617465416c7068613a3a5f71756575654f725265766572743a2070726f81527f706f73616c20616374696f6e20616c7265616479207175657565642061742065602082015261746160f01b604082015260600192915050565b6000613ffe602d83614840565b7f53656e617465416c7068613a3a63617374566f746542795369673a20696e766181526c6c6964207369676e617475726560981b602082015260400192915050565b600061404d603783614840565b7f53656e617465416c7068613a3a5f5f61636365707441646d696e3a2073656e6481527f6572206d75737420626520676f7620677561726469616e000000000000000000602082015260400192915050565b60006140ac602883614840565b7f53656e617465416c7068613a3a5f63617374566f74653a20766f74696e6720698152671cc818db1bdcd95960c21b602082015260400192915050565b60006140f6602d83614840565b7f53656e617465416c7068613a3a63616e63656c3a2070726f706f73657220616281526c1bdd99481d1a1c995cda1bdb19609a1b602082015260400192915050565b6000614145601583614840565b747375627472616374696f6e20756e646572666c6f7760581b815260200192915050565b6000614176605783614840565b7f53656e617465416c7068613a3a70726f706f73653a206f6e65206c697665207081527f726f706f73616c207065722070726f706f7365722c20666f756e6420616e206160208201527f6c72656164792070656e64696e672070726f706f73616c000000000000000000604082015260600192915050565b6060820181516141fe848261380c565b506020820151614211602085018261380c565b50604082015161167c6040850182614236565b6136878161486f565b613687816148a9565b61368781614875565b600061424a82613ae0565b9150614256828561381e565b602082019150614266828461381e565b5060200192915050565b6000611ff182613c76565b6000611ff182613ce1565b60208101611ff1828461368d565b604081016142a2828561367e565b61254c6020830184613815565b60a081016142bd828761368d565b6142ca6020830186613910565b81810360408301526142db81613ba0565b905081810360608301526142ef818561382f565b9050611c146080830184613815565b604081016142a2828561368d565b6080810161431a828761368d565b6143276020830186613815565b614334604083018561380c565b611c14606083018461422d565b60a0810161434f828861368d565b61435c6020830187613815565b818103604083015261436e818661382f565b90508181036060830152614382818561382f565b90506143916080830184613815565b9695505050505050565b60a081016143a9828861368d565b6143b66020830187613815565b81810360408301526143c88186613919565b905081810360608301526143828185613867565b608080825281016143ed8187613696565b9050818103602083015261440181866137be565b90508181036040830152614415818561375d565b9050818103606083015261439181846136ef565b60208101611ff18284613815565b608081016144458287613815565b6144526020830186613815565b61445f6040830185613815565b611c14606083018461368d565b6060810161447a8286613815565b6144876020830185613815565b61331f604083018461380c565b608081016144a28287613815565b6144af6020830186614224565b6144bc6040830185613815565b611c146060830184613815565b60208101611ff182846138fe565b60208101611ff18284613907565b6020808252810161254c818461382f565b60208082528101611ff18161397b565b60208082528101611ff1816139e5565b60208082528101611ff181613a2e565b60208082528101611ff181613a98565b60208082528101611ff181613afe565b60208082528101611ff181613b54565b60208082528101611ff181613bd9565b60208082528101611ff181613c49565b60208082528101611ff181613d2a565b60208082528101611ff181613d77565b60208082528101611ff181613de2565b60208082528101611ff181613e41565b60208082528101611ff181613eb3565b60208082528101611ff181613f31565b60208082528101611ff181613f87565b60208082528101611ff181613ff1565b60208082528101611ff181614040565b60208082528101611ff18161409f565b60208082528101611ff1816140e9565b60208082528101611ff181614138565b60208082528101611ff181614169565b60608101611ff182846141ee565b6101208101614663828c613815565b614670602083018b61367e565b8181036040830152614682818a613696565b9050818103606083015261469681896137be565b905081810360808301526146aa818861375d565b905081810360a08301526146be81876136ef565b90506146cd60c0830186613815565b6146da60e0830185613815565b8181036101008301526146ed818461382f565b9b9a5050505050505050505050565b610120810161470b828c613815565b614718602083018b61368d565b614725604083018a613815565b6147326060830189613815565b61473f6080830188613815565b61474c60a0830187613815565b61475960c0830186613815565b61476660e083018561380c565b61477461010083018461380c565b9a9950505050505050505050565b604081016142a28285613815565b6000604051905081810181811067ffffffffffffffff821117156147bc576000806147b961277b565b50505b604052919050565b600067ffffffffffffffff8211156147e4576000806147e161277b565b50505b5060209081020190565b600067ffffffffffffffff82111561480e5760008061480b61277b565b50505b506020601f91909101601f19160190565b60200190565b600081815281906020902092915050565b6000815192915050565b90815260200190565b6000611ff182614863565b151590565b80610dc3816148f6565b6001600160a01b031690565b60ff1690565b6001600160601b031690565b6000611ff1825b6000611ff182614849565b6000611ff182614859565b6000611ff182610680565b6000611ff182614875565b82818337506000910152565b60005b838110156148db5780820151838201526020016148c3565b8381111561167c5750506000910152565b601f01601f191690565b6008811061300457fe5b61490981614849565b81146130045760008061085561277b565b61490981614854565b61490981610680565b6149098161486f565b6149098161487556",
  "deployedBytecode": "0x60806040526004361061019c5760003560e01c80634634c61f116100ec578063d33219b41161008a578063ddf0b00911610064578063ddf0b0091461053b578063deaaa7cc14610564578063e23a9a5214610582578063fe0d94c1146105b85761019c565b8063d33219b4146104d6578063da35c664146104f4578063da95691a146105125761019c565b80637bdbe4d0116100c65780637bdbe4d0146104535780639150067114610471578063b58131b01461049a578063b9a61961146104b85761019c565b80634634c61f146103e15780635794a68a1461040a578063760fbc13146104355761019c565b806321f43e42116101595780633932abb1116101335780633932abb1146103395780633e4f49e61461035757806340e58ee51461038d578063452a9320146103b65761019c565b806321f43e42146102b957806324bc1a64146102e2578063328dd982146103005761019c565b8063013cf08b146101aa57806302a251a3146101f157806306fdde031461021c57806315373e3d1461024757806317977c611461027257806320606b701461029b575b6000806101a761277b565b50505b3480156101bf576000806101bc61277b565b50505b506101d36101ce366004613521565b6105cb565b6040516101e8999897969594939291906146fc565b60405180910390f35b3480156102065760008061020361277b565b50505b5061020f61067c565b6040516101e89190614429565b3480156102315760008061022e61277b565b50505b5061023a610683565b6040516101e891906144e5565b34801561025c5760008061025961277b565b50505b5061027061026b366004613581565b6106ab565b005b3480156102875760008061028461277b565b50505b5061020f6102963660046132f8565b6106c2565b3480156102b0576000806102ad61277b565b50505b5061020f6106dd565b3480156102ce576000806102cb61277b565b50505b506102706102dd366004613327565b6106f4565b3480156102f7576000806102f461277b565b50505b5061020f61085a565b3480156103155760008061031261277b565b50505b50610329610324366004613521565b610869565b6040516101e894939291906143dc565b34801561034e5760008061034b61277b565b50505b5061020f610b8f565b34801561036c5760008061036961277b565b50505b5061038061037b366004613521565b610b94565b6040516101e891906144d7565b3480156103a25760008061039f61277b565b50505b506102706103b1366004613521565b610dc8565b3480156103cb576000806103c861277b565b50505b506103d4611162565b6040516101e89190614286565b3480156103f6576000806103f361277b565b50505b506102706104053660046135ba565b611181565b34801561041f5760008061041c61277b565b50505b50610428611374565b6040516101e891906144c9565b34801561044a5760008061044761277b565b50505b50610270611380565b3480156104685760008061046561277b565b50505b5061020f611417565b3480156104865760008061048361277b565b50505b50610270610495366004613327565b61141c565b3480156104af576000806104ac61277b565b50505b5061020f611578565b3480156104cd576000806104ca61277b565b50505b50610270611587565b3480156104eb576000806104e861277b565b50505b50610428611682565b3480156105095760008061050661277b565b50505b5061020f61168d565b3480156105275760008061052461277b565b50505b5061020f61053636600461336a565b611697565b3480156105505760008061054d61277b565b50505b5061027061055f366004613521565b611c1d565b3480156105795760008061057661277b565b50505b5061020f611f48565b3480156105975760008061059461277b565b50505b506105ab6105a6366004613548565b611f54565b6040516101e89190614646565b6102706105c6366004613521565b611ff7565b60046020528060005260406000209050806105e46127e6565b906000600182016105f36127e6565b906101000a90046001600160a01b031690806002016106106127e6565b908060070161061d6127e6565b908060080161062a6127e6565b90806009016106376127e6565b9080600a016106446127e6565b906000600b82016106536127e6565b906101000a900460ff169080600b0160019061066d6127e6565b906101000a900460ff16905089565b6170805b90565b60405160408082019052600e81526d52756269636f6e2053656e61746560901b602082015281565b6106be5a6106b7612841565b8383612271565b5050565b600560205280600052604060002090506106da6127e6565b81565b6040516106e990614270565b604051809103902081565b600060026107006127e6565b906101000a90046001600160a01b03166001600160a01b03165a610722612841565b6001600160a01b03161461075a5760405162461bcd60e51b8152600401610748906145a6565b6040518091039061075761277b565b50505b6000806107656127e6565b6001600160a01b036101009290920a900416630825f38f6000806107876127e6565b906101000a90046001600160a01b03166000856040516020016107aa9190614286565b604051602081830303815290604052856040518563ffffffff1660e01b81526004016107d994939291906142af565b600060405180830381600087806107ee612887565b1580156108035760008061080061277b565b50505b505a61080d6128d3565b50505050505015801561082d573d6000803e3d600061082a61277b565b50505b505050506040513d6000823e601f3d908101601f1916820160405261085591908101906134da565b505050565b6a18d0bf423c03d8de00000090565b6000818152600460205260609081908190819060408120905080600301816004018260050183600601838061089c6127e6565b8060200260200160405190810160405281815291906020830182806108bf6127e6565b801561090c57602002820191906000526020600020905b6000826108e16127e6565b906101000a90046001600160a01b03166001600160a01b0316815260200190600101908083116108d6575b50505050509350828061091d6127e6565b8060200260200160405190810160405281815291906020830182806109406127e6565b801561097257602002820191906000526020600020905b816109606127e6565b81526020019060010190808311610957575b5050505050925081806109836127e6565b8060200260200160405190810160405281815291906000602084015b82821015610a7657838290600052602060002001806109bc6127e6565b600181600116156101000203166002900480601f0160208091040260200160405190810160405281815291906020830182806109f66127e6565b60018160011615610100020316600290048015610a625780601f10610a30576101008083610a226127e6565b040283529160200191610a62565b820191906000526020600020905b81610a476127e6565b81529060010190602001808311610a3e57829003601f168201915b50505050508152602001906001019061099f565b5050505091508080610a866127e6565b8060200260200160405190810160405281815291906000602084015b82821015610b795783829060005260206000200180610abf6127e6565b600181600116156101000203166002900480601f016020809104026020016040519081016040528181529190602083018280610af96127e6565b60018160011615610100020316600290048015610b655780601f10610b33576101008083610b256127e6565b040283529160200191610b65565b820191906000526020600020905b81610b4a6127e6565b81529060010190602001808311610b4157829003601f168201915b505050505081526020019060010190610aa2565b5050505090509450945094509450509193509193565b600190565b6000816003610ba16127e6565b10158015610baf5750600082115b610bdd5760405162461bcd60e51b8152600401610bcb90614506565b60405180910390610bda61277b565b50505b600082815260046020526040812090506000600b8201610bfb6127e6565b906101000a900460ff1615610c14576002915050610dc3565b80600701610c206127e6565b5a610c296129be565b11610c38576000915050610dc3565b80600801610c446127e6565b5a610c4d6129be565b11610c5c576001915050610dc3565b80600a01610c686127e6565b81600901610c746127e6565b111580610c925750610c8461085a565b81600901610c906127e6565b105b15610ca1576003915050610dc3565b80600201610cad6127e6565b610cbb576004915050610dc3565b6001600b8201610cc96127e6565b906101000a900460ff1615610ce2576007915050610dc3565b610da581600201610cf16127e6565b600080610cfc6127e6565b906101000a90046001600160a01b03166001600160a01b031663c1a287e26040518163ffffffff1660e01b81526004016020604051808303818680610d3f612887565b158015610d5457600080610d5161277b565b50505b505a610d5e612a04565b5050505050158015610d7d573d6000803e3d6000610d7a61277b565b50505b50505050604051601f3d908101601f19168201604052610da091908101906134b3565b612515565b5a610dae612aca565b10610dbd576006915050610dc3565b60059150505b919050565b6000610dd382610b94565b90506007816007811115610de357fe5b1415610e135760405162461bcd60e51b8152600401610e01906145c6565b60405180910390610e1061277b565b50505b6000828152600460205260408120905060006002610e2f6127e6565b906101000a90046001600160a01b03166001600160a01b03165a610e51612841565b6001600160a01b03161480610f595750610e69611578565b60006001610e756127e6565b6001600160a01b036101009290920a90041663782d6fe1600060018501610e9a6127e6565b906101000a90046001600160a01b0316610ebd5a610eb66129be565b6001612553565b6040518363ffffffff1660e01b8152600401610eda9291906142fe565b6020604051808303818680610eed612887565b158015610f0257600080610eff61277b565b50505b505a610f0c612a04565b5050505050158015610f2b573d6000803e3d6000610f2861277b565b50505b50505050604051601f3d908101601f19168201604052610f4e919081019061362b565b6001600160601b0316105b610f875760405162461bcd60e51b8152600401610f7590614616565b60405180910390610f8461277b565b50505b6001600b82018181610f976127e6565b8160ff02191690831515021790610fac612b10565b5060009150505b8160030180610fc06127e6565b905081101561112557600080610fd46127e6565b906101000a90046001600160a01b03166001600160a01b031663591fcdfe8360030183816110006127e6565b811061100857fe5b9060005260206000200160009061101d6127e6565b906101000a90046001600160a01b031684600401848161103b6127e6565b811061104357fe5b906000526020600020016110556127e6565b8560050185816110636127e6565b811061106b57fe5b906000526020600020018660060186816110836127e6565b811061108b57fe5b90600052602060002001876002016110a16127e6565b6040518663ffffffff1660e01b81526004016110c195949392919061439b565b600060405180830381600087806110d6612887565b1580156110eb576000806110e861277b565b50505b505a6110f56128d3565b505050505050158015611115573d6000803e3d600061111261277b565b50505b505060019092019150610fb39050565b507f789cf55be980739dad1d0699b93b58e806b51c9d96619bfa8fe0a28abaa7b30c836040516111559190614429565b60405180910390a1505050565b6000600261116e6127e6565b906101000a90046001600160a01b031681565b600060405161118f90614270565b604051809103902060405160408082019052600e81526d52756269636f6e2053656e61746560901b6020820152805190602001206111cb61258d565b5a63996d79a5598160e01b8152602081600483336000905af158601d01573d60011458600c01573d6000803e3d621234565260ea61109c528051925060005b60408110156112215760008282015260200161120a565b5050506040516020016112379493929190614437565b604051602081830303815290604052805190602001209050600060405161125d9061427b565b604051809103902087876040516020016112799392919061446c565b604051602081830303815290604052805190602001209050600082826040516020016112a692919061423f565b6040516020818303038152906040528051906020012090506000600182888888604051600081526020016040526040516112e39493929190614494565b6020604051602081039080840390855a6112fb612a04565b505050505015801561131a573d6000803e3d600061131761277b565b50505b5050506020604051035190506001600160a01b03811661135e5760405162461bcd60e51b815260040161134c906145e6565b6040518091039061135b61277b565b50505b611369818a8a612271565b505050505050505050565b6000600161116e6127e6565b6000600261138c6127e6565b906101000a90046001600160a01b03166001600160a01b03165a6113ae612841565b6001600160a01b0316146113e65760405162461bcd60e51b81526004016113d490614536565b604051809103906113e361277b565b50505b600060026001816113f56127e6565b816001600160a01b0302191690836001600160a01b0316021790610855612b10565b600a90565b600060026114286127e6565b906101000a90046001600160a01b03166001600160a01b03165a61144a612841565b6001600160a01b0316146114825760405162461bcd60e51b815260040161147090614556565b6040518091039061147f61277b565b50505b60008061148d6127e6565b6001600160a01b036101009290920a900416633a66f9016000806114af6127e6565b906101000a90046001600160a01b03166000856040516020016114d29190614286565b604051602081830303815290604052856040518563ffffffff1660e01b815260040161150194939291906142af565b60206040518083038160008780611516612887565b15801561152b5760008061152861277b565b50505b505a6115356128d3565b505050505050158015611555573d6000803e3d600061155261277b565b50505b50505050604051601f3d908101601f1916820160405261085591908101906134b3565b6a0422ca8b0a00a42500000090565b600060026115936127e6565b906101000a90046001600160a01b03166001600160a01b03165a6115b5612841565b6001600160a01b0316146115ed5760405162461bcd60e51b81526004016115db906145f6565b604051809103906115ea61277b565b50505b6000806115f86127e6565b906101000a90046001600160a01b03166001600160a01b0316630e18b6816040518163ffffffff1660e01b81526004016000604051808303816000878061163d612887565b1580156116525760008061164f61277b565b50505b505a61165c6128d3565b50505050505015801561167c573d6000803e3d600061167961277b565b50505b50505050565b60008061116e6127e6565b60036106da6127e6565b60006116a1611578565b600060016116ad6127e6565b906101000a90046001600160a01b03166001600160a01b031663782d6fe15a6116d4612841565b6116e05a610eb66129be565b6040518363ffffffff1660e01b81526004016116fd929190614294565b6020604051808303818680611710612887565b1580156117255760008061172261277b565b50505b505a61172f612a04565b505050505015801561174e573d6000803e3d600061174b61277b565b50505b50505050604051601f3d908101601f19168201604052611771919081019061362b565b6001600160601b0316116117a95760405162461bcd60e51b815260040161179790614596565b604051809103906117a661277b565b50505b845186511480156117bb575083518651145b80156117c8575082518651145b6117f65760405162461bcd60e51b81526004016117e4906144f6565b604051809103906117f361277b565b50505b85516118265760405162461bcd60e51b815260040161181490614546565b6040518091039061182361277b565b50505b61182e611417565b865111156118605760405162461bcd60e51b815260040161184e90614526565b6040518091039061185d61277b565b50505b6000600560005a61186f612841565b6001600160a01b03166001600160a01b031681526020019081526020016000206118976127e6565b9050801561192a5760006118aa82610b94565b905060018160078111156118ba57fe5b14156118ea5760405162461bcd60e51b81526004016118d8906145b6565b604051809103906118e761277b565b50505b60008160078111156118f857fe5b14156119285760405162461bcd60e51b815260040161191690614636565b6040518091039061192561277b565b50505b505b60006119405a6119386129be565b610da0610b8f565b9050600061195082610da061067c565b9050600360008161195f6127e6565b9160018301915061196e612b10565b505050611979612b5e565b604051806101a00160405280600361198f6127e6565b81526020015a61199d612841565b6001600160a01b03168152602001600081526020018b81526020018a81526020018981526020018881526020018481526020018381526020016000815260200160008152602001600015158152602001600015158152509050806004600083600001518152602001908152602001600020815181611a19612b10565b5050602082015160018083019081611a2f6127e6565b816001600160a01b0302191690836001600160a01b0316021790611a51612b10565b505050604082015181600201611a65612b10565b5050606082015181600301908051611a81929160200190612bd3565b50608082015181600401908051611a9c929160200190612c5d565b5060a082015181600501908051611ab7929160200190612cbd565b5060c082015181600601908051611ad2929160200190612d25565b5060e082015181600701611ae4612b10565b505061010082015181600801611af8612b10565b505061012082015181600901611b0c612b10565b505061014082015181600a01611b20612b10565b5050610160820151600b8201600181611b376127e6565b8160ff02191690831515021790611b4c612b10565b505050610180820151600b820161010081611b656127e6565b8160ff02191690831515021790611b7a612b10565b50849350505050516005600083602001516001600160a01b03166001600160a01b031681526020019081526020016000208190611bb5612b10565b5050507f7d84a6263ae0d98d3329bd7b46bb4e8d6f98cd35a7adb45c274c8b7fd5ebd5e081600001515a611be7612841565b8c8c8c8c89898e604051611c0399989796959493929190614654565b60405180910390a180519450505050505b95945050505050565b6004611c2882610b94565b6007811115611c3357fe5b14611c625760405162461bcd60e51b8152600401611c5090614516565b60405180910390611c5f61277b565b50505b600081815260046020526040812090506000611cce5a611c80612aca565b600080611c8b6127e6565b906101000a90046001600160a01b03166001600160a01b0316636a42b8f86040518163ffffffff1660e01b81526004016020604051808303818680610d3f612887565b905060005b8260030180611ce06127e6565b9050811015611f0557611efd836003018281611cfa6127e6565b8110611d0257fe5b90600052602060002001600090611d176127e6565b906101000a90046001600160a01b0316846004018381611d356127e6565b8110611d3d57fe5b90600052602060002001611d4f6127e6565b856005018481611d5d6127e6565b8110611d6557fe5b9060005260206000200180611d786127e6565b600181600116156101000203166002900480601f016020809104026020016040519081016040528181529190602083018280611db26127e6565b60018160011615610100020316600290048015611e1e5780601f10611dec576101008083611dde6127e6565b040283529160200191611e1e565b820191906000526020600020905b81611e036127e6565b81529060010190602001808311611dfa57829003601f168201915b5050505050866006018581611e316127e6565b8110611e3957fe5b9060005260206000200180611e4c6127e6565b600181600116156101000203166002900480601f016020809104026020016040519081016040528181529190602083018280611e866127e6565b60018160011615610100020316600290048015611ef25780601f10611ec0576101008083611eb26127e6565b040283529160200191611ef2565b820191906000526020600020905b81611ed76127e6565b81529060010190602001808311611ece57829003601f168201915b50505050508661259f565b600101611cd3565b50808060028401611f14612b10565b5050507f9a2e42fd6722813d69113e7d0079d3d940171428df7373df9c7f7617cfda28928382604051611155929190614782565b6040516106e99061427b565b611f5c612d8d565b60008381526004602052604090206001600160a01b0383166000908152600c9190910160205260409020604051606081016040529081600082611f9d6127e6565b60ff6101009290920a90041615158152602001600182611fbb6127e6565b60ff6101009290920a90041615158152602001600282611fd96127e6565b6001600160601b036101009290920a90041690525090505b92915050565b600561200282610b94565b600781111561200d57fe5b1461203c5760405162461bcd60e51b815260040161202a90614586565b6040518091039061203961277b565b50505b600081815260046020526040812090506001600b82016101008161205e6127e6565b8160ff02191690831515021790612073612b10565b5060009150505b81600301806120876127e6565b90508110156122355760008061209b6127e6565b906101000a90046001600160a01b03166001600160a01b0316630825f38f8360040183816120c76127e6565b81106120cf57fe5b906000526020600020016120e16127e6565b8460030184816120ef6127e6565b81106120f757fe5b9060005260206000200160009061210c6127e6565b906101000a90046001600160a01b031685600401858161212a6127e6565b811061213257fe5b906000526020600020016121446127e6565b8660050186816121526127e6565b811061215a57fe5b906000526020600020018760060187816121726127e6565b811061217a57fe5b90600052602060002001886002016121906127e6565b6040518763ffffffff1660e01b81526004016121b095949392919061439b565b6000604051808303818588806121c4612887565b1580156121d9576000806121d661277b565b50505b505a6121e36128d3565b505050505050158015612203573d6000803e3d600061220061277b565b50505b50505050506040513d6000823e601f3d908101601f1916820160405261222c91908101906134da565b5060010161207a565b507f712ae1383f79ac853f8d882153778e0260ef8f03b504e2866e0593e04d2b291f826040516122659190614429565b60405180910390a15050565b600161227c83610b94565b600781111561228757fe5b146122b65760405162461bcd60e51b81526004016122a490614606565b604051809103906122b361277b565b50505b60008281526004602052604081206001600160a01b0385166000908152600c82016020529091506040812090506000816122ee6127e6565b60ff6101009290920a900416156123295760405162461bcd60e51b815260040161231790614576565b6040518091039061232661277b565b50505b60008060016123366127e6565b906101000a90046001600160a01b03166001600160a01b031663782d6fe187856007016123616127e6565b6040518363ffffffff1660e01b815260040161237e9291906142fe565b6020604051808303818680612391612887565b1580156123a6576000806123a361277b565b50505b505a6123b0612a04565b50505050501580156123cf573d6000803e3d60006123cc61277b565b50505b50505050604051601f3d908101601f191682016040526123f2919081019061362b565b9050831561242d57612418836009016124096127e6565b826001600160601b0316612515565b8060098501612425612b10565b50505061244d565b61243c83600a016124096127e6565b80600a8501612449612b10565b5050505b600182818161245a6127e6565b8160ff0219169083151502179061246f612b10565b50859150839050610100816124826127e6565b8160ff02191690831515021790612497612b10565b5082915083905062010000816124ab6127e6565b816001600160601b0302191690836001600160601b03160217906124cd612b10565b5050507f877856338e13f63d0c36822ff0ef736b80934cd90574a3a5bc9262c39d217c4686868684604051612505949392919061430c565b60405180910390a1505050505050565b60008282018381101561254c5760405162461bcd60e51b815260040161253a90614566565b6040518091039061254961277b565b50505b9392505050565b6000828211156125875760405162461bcd60e51b815260040161257590614626565b6040518091039061258461277b565b50505b50900390565b6000805a612599612dac565b91505090565b6000806125aa6127e6565b906101000a90046001600160a01b03166001600160a01b031663f2b0653786868686866040516020016125e1959493929190614341565b604051602081830303815290604052805190602001206040518263ffffffff1660e01b81526004016126139190614429565b6020604051808303818680612626612887565b15801561263b5760008061263861277b565b50505b505a612645612a04565b5050505050158015612664573d6000803e3d600061266161277b565b50505b50505050604051601f3d908101601f19168201604052612687919081019061348c565b156126b65760405162461bcd60e51b81526004016126a4906145d6565b604051809103906126b361277b565b50505b6000806126c16127e6565b906101000a90046001600160a01b03166001600160a01b0316633a66f90186868686866040518663ffffffff1660e01b8152600401612704959493929190614341565b60206040518083038160008780612719612887565b15801561272e5760008061272b61277b565b50505b505a6127386128d3565b505050505050158015612758573d6000803e3d600061275561277b565b50505b50505050604051601f3d908101601f1916820160405261167991908101906134b3565b632a2a7adb598160e01b8152600481016020815285602082015260005b868110156127b3578086015182820160400152602001612798565b506020828760640184336000905af158601d01573d60011458600c01573d6000803e3d621234565260ea61109c52505050565b6303daa959598160e01b8152836004820152602081602483336000905af158601d01573d60011458600c01573d6000803e3d621234565260ea61109c528051935060005b60408110156108555760008282015260200161282a565b6373509064598160e01b8152602081600483336000905af158601d01573d60011458600c01573d6000803e3d621234565260ea61109c528051600082529350602061282a565b638435035b598160e01b8152836004820152602081602483336000905af158601d01573d60011458600c01573d6000803e3d621234565260ea61109c528051600082529350602061282a565b6385979f76598160e01b8152612904565b8080831115611ff1575090919050565b8080831015611ff1575090919050565b836004820152846024820152606060448201528760648201526084810160005b8981101561293c578089015182820152602001612924565b506060828a60a40184336000905af158601d01573d60011458600c01573d6000803e3d621234565260ea61109c52815160408301513d6000853e8c8c82606087013350600060045af150596129918e3d6128f4565b8d0161299d81876128e4565b5b828110156129b2576000815260200161299e565b50929d50505050505050565b635a98c361598160e01b8152602081600483336000905af158601d01573d60011458600c01573d6000803e3d621234565260ea61109c528051600082529350602061282a565b638540661f598160e01b8152836004820152846024820152606060448201528660648201526084810160005b88811015612a48578088015182820152602001612a30565b506060828960a40184336000905af158601d01573d60011458600c01573d6000803e3d621234565260ea61109c52815160408301513d6000853e8b8b82606087013350600060045af15059612a9d8d3d6128f4565b8c01612aa981876128e4565b5b82811015612abe5760008152602001612aaa565b50929c50505050505050565b63bdbf8c36598160e01b8152602081600483336000905af158601d01573d60011458600c01573d6000803e3d621234565260ea61109c528051600082529350602061282a565b6322bd64c0598160e01b8152836004820152846024820152600081604483336000905af158601d01573d60011458600c01573d6000803e3d621234565260ea61109c5260008152602061282a565b604051806101a001604052806000815260200160006001600160a01b031681526020016000815260200160608152602001606081526020016060815260200160608152602001600081526020016000815260200160008152602001600081526020016000151581526020016000151581525090565b8280612bdd6127e6565b8282612be7612b10565b5050906000526020600020908101928215612c4d579160200282015b82811115612c4d57825182600181612c196127e6565b816001600160a01b0302191690836001600160a01b0316021790612c3b612b10565b50505091602001919060010190612c03565b50612c59929150612df2565b5090565b8280612c676127e6565b8282612c71612b10565b5050906000526020600020908101928215612cb1579160200282015b82811115612cb157825182612ca0612b10565b505091602001919060010190612c8d565b50612c59929150612e2e565b8280612cc76127e6565b8282612cd1612b10565b5050906000526020600020908101928215612d19579160200282015b82811115612d1957825182908051612d09929160200190612e53565b5091602001919060010190612ced565b50612c59929150612ee3565b8280612d2f6127e6565b8282612d39612b10565b5050906000526020600020908101928215612d81579160200282015b82811115612d8157825182908051612d71929160200190612f06565b5091602001919060010190612d55565b50612c59929150612f8f565b6040516060810160409081526000808352602083018190529082015290565b6390580256598160e01b8152602081600483336000905af158601d01573d60011458600c01573d6000803e3d621234565260ea61109c528051600082529350602061282a565b61068091905b80821115612c5957600081600181612e0e6127e6565b906001600160a01b0302191690612e23612b10565b505050600101612df8565b61068091905b80821115612c595760008082612e48612b10565b505050600101612e34565b8280612e5d6127e6565b600181600116156101000203166002900490600052602060002090601f016020900481019282601f10612ea457805160ff19168380011785612e9d612b10565b5050612cb1565b82800160010185612eb3612b10565b50508215612cb1579182015b82811115612cb157825182612ed2612b10565b505091602001919060010190612ebf565b61068091905b80821115612c59576000612efd8282612fb2565b50600101612ee9565b8280612f106127e6565b600181600116156101000203166002900490600052602060002090601f016020900481019282601f10612f5057805160ff19168380011785612e9d612b10565b82800160010185612f5f612b10565b50508215612cb1579182015b82811115612cb157825182612f7e612b10565b505091602001919060010190612f6b565b61068091905b80821115612c59576000612fa98282612fb2565b50600101612f95565b5080612fbc6127e6565b6001816001161561010002031660029004600082612fd8612b10565b505080601f10612fe85750613004565b601f016020900490600052602060002061300491810190612e2e565b50565b8035611ff181614900565b600082601f83011261302c5760008061302961277b565b50505b813561303f61303a826147c4565b614790565b9150818183526020840193506020810190508385602084028201111561306d5760008061306a61277b565b50505b60005b8381101561309957816130838882613007565b8452506020928301929190910190600101613070565b5050505092915050565b600082601f8301126130bd576000806130ba61277b565b50505b81356130cb61303a826147c4565b81815260209384019390925082018360005b8381101561309957813586016130f38882613225565b84525060209283019291909101906001016130dd565b600082601f8301126131235760008061312061277b565b50505b813561313161303a826147c4565b81815260209384019390925082018360005b8381101561309957813586016131598882613225565b8452506020928301929190910190600101613143565b600082601f8301126131895760008061318661277b565b50505b813561319761303a826147c4565b915081818352602084019350602081019050838560208402820111156131c5576000806131c261277b565b50505b60005b8381101561309957816131db888261320b565b84525060209283019291909101906001016131c8565b8035611ff18161491a565b600081519050611ff18161491a565b8035611ff181614923565b600081519050611ff181614923565b600082601f83011261323f5760008061323c61277b565b50505b813561324d61303a826147ee565b915080825260208301602083018583830111156132725760008061326f61277b565b50505b61327d8382846148b4565b50505092915050565b600082601f8301126132a05760008061329d61277b565b50505b81516132ae61303a826147ee565b915080825260208301602083018583830111156132d3576000806132d061277b565b50505b61327d8382846148c0565b8035611ff18161492c565b600081519050611ff181614935565b6000602082840312156133135760008061331061277b565b50505b600061331f8484613007565b949350505050565b600080604083850312156133435760008061334061277b565b50505b600061334f8585613007565b92505060206133608582860161320b565b9150509250929050565b600080600080600060a0868803121561338b5760008061338861277b565b50505b853567ffffffffffffffff8111156133ab576000806133a861277b565b50505b6133b788828901613012565b955050602086013567ffffffffffffffff8111156133dd576000806133da61277b565b50505b6133e98882890161316f565b945050604086013567ffffffffffffffff81111561340f5760008061340c61277b565b50505b61341b88828901613109565b935050606086013567ffffffffffffffff8111156134415760008061343e61277b565b50505b61344d888289016130a3565b925050608086013567ffffffffffffffff8111156134735760008061347061277b565b50505b61347f88828901613225565b9150509295509295909350565b6000602082840312156134a7576000806134a461277b565b50505b600061331f84846131fc565b6000602082840312156134ce576000806134cb61277b565b50505b600061331f8484613216565b6000602082840312156134f5576000806134f261277b565b50505b815167ffffffffffffffff8111156135155760008061351261277b565b50505b61331f84828501613286565b60006020828403121561353c5760008061353961277b565b50505b600061331f848461320b565b600080604083850312156135645760008061356161277b565b50505b6000613570858561320b565b925050602061336085828601613007565b6000806040838503121561359d5760008061359a61277b565b50505b60006135a9858561320b565b9250506020613360858286016131f1565b600080600080600060a086880312156135db576000806135d861277b565b50505b60006135e7888861320b565b95505060206135f8888289016131f1565b9450506040613609888289016132de565b935050606061361a8882890161320b565b925050608061347f8882890161320b565b6000602082840312156136465760008061364361277b565b50505b600061331f84846132e9565b600061365e838361368d565b505060200190565b600061254c838361382f565b600061365e8383613815565b61368781614881565b82525050565b61368781614849565b60006136a182614836565b6136ab8185614840565b93506136b68361481f565b8060005b838110156136e45781516136ce8882613652565b97506136d98361481f565b9250506001016136ba565b509495945050505050565b60006136fa82614836565b6137048185614840565b9350836020820285016137168561481f565b8060005b8581101561375057848403895281516137338582613666565b945061373e8361481f565b60209a909a019992505060010161371a565b5091979650505050505050565b600061376882614836565b6137728185614840565b9350836020820285016137848561481f565b8060005b8581101561375057848403895281516137a18582613666565b94506137ac8361481f565b60209a909a0199925050600101613788565b60006137c982614836565b6137d38185614840565b93506137de8361481f565b8060005b838110156136e45781516137f68882613672565b97506138018361481f565b9250506001016137e2565b61368781614854565b61368781610680565b61368761382a82610680565b610680565b600061383a82614836565b6138448185614840565b93506138548185602086016148c0565b61385d816148ec565b9093019392505050565b6000816138726127e6565b60018116801561388957600181146138af576138f6565b607f600283041661389a8187614840565b60ff19841681529550506020850192506138f6565b600282046138bd8187614840565b95506138c885614825565b60005b828110156138ef57816138dc6127e6565b88820152600191909101906020016138cb565b8701945050505b505092915050565b61368781614888565b61368781614893565b6136878161489e565b6000816139246127e6565b600181168015613889576001811461393b576138f6565b600282046139498187614840565b955061395485614825565b60005b828110156138ef57816139686127e6565b8882015260019190910190602001613957565b6000613988604283614840565b7f53656e617465416c7068613a3a70726f706f73653a2070726f706f73616c206681527f756e6374696f6e20696e666f726d6174696f6e206172697479206d69736d61746020820152610c6d60f31b604082015260600192915050565b60006139f2602783614840565b7f53656e617465416c7068613a3a73746174653a20696e76616c69642070726f708152661bdcd85b081a5960ca1b602082015260400192915050565b6000613a3b604283614840565b7f53656e617465416c7068613a3a71756575653a2070726f706f73616c2063616e81527f206f6e6c79206265207175657565642069662069742069732073756363656564602082015261195960f21b604082015260600192915050565b6000613aa5602683614840565b7f53656e617465416c7068613a3a70726f706f73653a20746f6f206d616e7920618152656374696f6e7360d01b602082015260400192915050565b6000613aed600283610dc3565b61190160f01b815260020192915050565b6000613b0b603483614840565b7f53656e617465416c7068613a3a5f5f61626469636174653a2073656e6465722081527336bab9ba1031329033b7bb1033bab0b93234b0b760611b602082015260400192915050565b6000613b61602a83614840565b7f53656e617465416c7068613a3a70726f706f73653a206d7573742070726f7669815269646520616374696f6e7360b01b602082015260400192915050565b6000613bad601883614840565b7f73657450656e64696e6741646d696e2861646472657373290000000000000000815260200192915050565b6000613be6604883614840565b7f53656e617465416c7068613a3a5f5f717565756553657454696d656c6f636b5081527f656e64696e6741646d696e3a2073656e646572206d75737420626520676f762060208201526733bab0b93234b0b760c11b604082015260600192915050565b6000613c56601183614840565b706164646974696f6e206f766572666c6f7760781b815260200192915050565b6000613c83604383610dc3565b7f454950373132446f6d61696e28737472696e67206e616d652c75696e7432353681527f20636861696e49642c6164647265737320766572696679696e67436f6e74726160208201526263742960e81b604082015260430192915050565b6000613cee602783610dc3565b7f42616c6c6f742875696e743235362070726f706f73616c49642c626f6f6c20738152667570706f72742960c81b602082015260270192915050565b6000613d37602b83614840565b7f53656e617465416c7068613a3a5f63617374566f74653a20766f74657220616c81526a1c9958591e481d9bdd195960aa1b602082015260400192915050565b6000613d84604383614840565b7f53656e617465416c7068613a3a657865637574653a2070726f706f73616c206381527f616e206f6e6c79206265206578656375746564206966206974206973207175656020820152621d595960ea1b604082015260600192915050565b6000613def603d83614840565b7f53656e617465416c7068613a3a70726f706f73653a2070726f706f736572207681527f6f7465732062656c6f772070726f706f73616c207468726573686f6c64000000602082015260400192915050565b6000613e4e604a83614840565b7f53656e617465416c7068613a3a5f5f6578656375746553657454696d656c6f6381527f6b50656e64696e6741646d696e3a2073656e646572206d75737420626520676f6020820152693b1033bab0b93234b0b760b11b604082015260600192915050565b6000613ec0605683614840565b7f53656e617465416c7068613a3a70726f706f73653a206f6e65206c697665207081527f726f706f73616c207065722070726f706f7365722c20666f756e6420616e20616020820152751b1c9958591e481858dd1a5d99481c1c9bdc1bdcd85b60521b604082015260600192915050565b6000613f3e603483614840565b7f53656e617465416c7068613a3a63616e63656c3a2063616e6e6f742063616e63815273195b08195e1958dd5d1959081c1c9bdc1bdcd85b60621b602082015260400192915050565b6000613f94604283614840565b7f53656e617465416c7068613a3a5f71756575654f725265766572743a2070726f81527f706f73616c20616374696f6e20616c7265616479207175657565642061742065602082015261746160f01b604082015260600192915050565b6000613ffe602d83614840565b7f53656e617465416c7068613a3a63617374566f746542795369673a20696e766181526c6c6964207369676e617475726560981b602082015260400192915050565b600061404d603783614840565b7f53656e617465416c7068613a3a5f5f61636365707441646d696e3a2073656e6481527f6572206d75737420626520676f7620677561726469616e000000000000000000602082015260400192915050565b60006140ac602883614840565b7f53656e617465416c7068613a3a5f63617374566f74653a20766f74696e6720698152671cc818db1bdcd95960c21b602082015260400192915050565b60006140f6602d83614840565b7f53656e617465416c7068613a3a63616e63656c3a2070726f706f73657220616281526c1bdd99481d1a1c995cda1bdb19609a1b602082015260400192915050565b6000614145601583614840565b747375627472616374696f6e20756e646572666c6f7760581b815260200192915050565b6000614176605783614840565b7f53656e617465416c7068613a3a70726f706f73653a206f6e65206c697665207081527f726f706f73616c207065722070726f706f7365722c20666f756e6420616e206160208201527f6c72656164792070656e64696e672070726f706f73616c000000000000000000604082015260600192915050565b6060820181516141fe848261380c565b506020820151614211602085018261380c565b50604082015161167c6040850182614236565b6136878161486f565b613687816148a9565b61368781614875565b600061424a82613ae0565b9150614256828561381e565b602082019150614266828461381e565b5060200192915050565b6000611ff182613c76565b6000611ff182613ce1565b60208101611ff1828461368d565b604081016142a2828561367e565b61254c6020830184613815565b60a081016142bd828761368d565b6142ca6020830186613910565b81810360408301526142db81613ba0565b905081810360608301526142ef818561382f565b9050611c146080830184613815565b604081016142a2828561368d565b6080810161431a828761368d565b6143276020830186613815565b614334604083018561380c565b611c14606083018461422d565b60a0810161434f828861368d565b61435c6020830187613815565b818103604083015261436e818661382f565b90508181036060830152614382818561382f565b90506143916080830184613815565b9695505050505050565b60a081016143a9828861368d565b6143b66020830187613815565b81810360408301526143c88186613919565b905081810360608301526143828185613867565b608080825281016143ed8187613696565b9050818103602083015261440181866137be565b90508181036040830152614415818561375d565b9050818103606083015261439181846136ef565b60208101611ff18284613815565b608081016144458287613815565b6144526020830186613815565b61445f6040830185613815565b611c14606083018461368d565b6060810161447a8286613815565b6144876020830185613815565b61331f604083018461380c565b608081016144a28287613815565b6144af6020830186614224565b6144bc6040830185613815565b611c146060830184613815565b60208101611ff182846138fe565b60208101611ff18284613907565b6020808252810161254c818461382f565b60208082528101611ff18161397b565b60208082528101611ff1816139e5565b60208082528101611ff181613a2e565b60208082528101611ff181613a98565b60208082528101611ff181613afe565b60208082528101611ff181613b54565b60208082528101611ff181613bd9565b60208082528101611ff181613c49565b60208082528101611ff181613d2a565b60208082528101611ff181613d77565b60208082528101611ff181613de2565b60208082528101611ff181613e41565b60208082528101611ff181613eb3565b60208082528101611ff181613f31565b60208082528101611ff181613f87565b60208082528101611ff181613ff1565b60208082528101611ff181614040565b60208082528101611ff18161409f565b60208082528101611ff1816140e9565b60208082528101611ff181614138565b60208082528101611ff181614169565b60608101611ff182846141ee565b6101208101614663828c613815565b614670602083018b61367e565b8181036040830152614682818a613696565b9050818103606083015261469681896137be565b905081810360808301526146aa818861375d565b905081810360a08301526146be81876136ef565b90506146cd60c0830186613815565b6146da60e0830185613815565b8181036101008301526146ed818461382f565b9b9a5050505050505050505050565b610120810161470b828c613815565b614718602083018b61368d565b614725604083018a613815565b6147326060830189613815565b61473f6080830188613815565b61474c60a0830187613815565b61475960c0830186613815565b61476660e083018561380c565b61477461010083018461380c565b9a9950505050505050505050565b604081016142a28285613815565b6000604051905081810181811067ffffffffffffffff821117156147bc576000806147b961277b565b50505b604052919050565b600067ffffffffffffffff8211156147e4576000806147e161277b565b50505b5060209081020190565b600067ffffffffffffffff82111561480e5760008061480b61277b565b50505b506020601f91909101601f19160190565b60200190565b600081815281906020902092915050565b6000815192915050565b90815260200190565b6000611ff182614863565b151590565b80610dc3816148f6565b6001600160a01b031690565b60ff1690565b6001600160601b031690565b6000611ff1825b6000611ff182614849565b6000611ff182614859565b6000611ff182610680565b6000611ff182614875565b82818337506000910152565b60005b838110156148db5780820151838201526020016148c3565b8381111561167c5750506000910152565b601f01601f191690565b6008811061300457fe5b61490981614849565b81146130045760008061085561277b565b61490981614854565b61490981610680565b6149098161486f565b6149098161487556",
  "linkReferences": {},
  "deployedLinkReferences": {}
}