{
  "contractName": "SenateAlpha",
  "abi": [
    {
      "inputs": [
        {
          "internalType": "address",
          "name": "timelock_",
          "type": "address"
        },
        {
          "internalType": "address",
          "name": "RBCN_",
          "type": "address"
        },
        {
          "internalType": "address",
          "name": "guardian_",
          "type": "address"
        }
      ],
      "payable": false,
      "stateMutability": "nonpayable",
      "type": "constructor"
    },
    {
      "anonymous": false,
      "inputs": [
        {
          "indexed": false,
          "internalType": "uint256",
          "name": "id",
          "type": "uint256"
        }
      ],
      "name": "ProposalCanceled",
      "type": "event"
    },
    {
      "anonymous": false,
      "inputs": [
        {
          "indexed": false,
          "internalType": "uint256",
          "name": "id",
          "type": "uint256"
        },
        {
          "indexed": false,
          "internalType": "address",
          "name": "proposer",
          "type": "address"
        },
        {
          "indexed": false,
          "internalType": "address[]",
          "name": "targets",
          "type": "address[]"
        },
        {
          "indexed": false,
          "internalType": "uint256[]",
          "name": "values",
          "type": "uint256[]"
        },
        {
          "indexed": false,
          "internalType": "string[]",
          "name": "signatures",
          "type": "string[]"
        },
        {
          "indexed": false,
          "internalType": "bytes[]",
          "name": "calldatas",
          "type": "bytes[]"
        },
        {
          "indexed": false,
          "internalType": "uint256",
          "name": "startBlock",
          "type": "uint256"
        },
        {
          "indexed": false,
          "internalType": "uint256",
          "name": "endBlock",
          "type": "uint256"
        },
        {
          "indexed": false,
          "internalType": "string",
          "name": "description",
          "type": "string"
        }
      ],
      "name": "ProposalCreated",
      "type": "event"
    },
    {
      "anonymous": false,
      "inputs": [
        {
          "indexed": false,
          "internalType": "uint256",
          "name": "id",
          "type": "uint256"
        }
      ],
      "name": "ProposalExecuted",
      "type": "event"
    },
    {
      "anonymous": false,
      "inputs": [
        {
          "indexed": false,
          "internalType": "uint256",
          "name": "id",
          "type": "uint256"
        },
        {
          "indexed": false,
          "internalType": "uint256",
          "name": "eta",
          "type": "uint256"
        }
      ],
      "name": "ProposalQueued",
      "type": "event"
    },
    {
      "anonymous": false,
      "inputs": [
        {
          "indexed": false,
          "internalType": "address",
          "name": "voter",
          "type": "address"
        },
        {
          "indexed": false,
          "internalType": "uint256",
          "name": "proposalId",
          "type": "uint256"
        },
        {
          "indexed": false,
          "internalType": "bool",
          "name": "support",
          "type": "bool"
        },
        {
          "indexed": false,
          "internalType": "uint256",
          "name": "votes",
          "type": "uint256"
        }
      ],
      "name": "VoteCast",
      "type": "event"
    },
    {
      "constant": true,
      "inputs": [],
      "name": "BALLOT_TYPEHASH",
      "outputs": [
        {
          "internalType": "bytes32",
          "name": "",
          "type": "bytes32"
        }
      ],
      "payable": false,
      "stateMutability": "view",
      "type": "function"
    },
    {
      "constant": true,
      "inputs": [],
      "name": "DOMAIN_TYPEHASH",
      "outputs": [
        {
          "internalType": "bytes32",
          "name": "",
          "type": "bytes32"
        }
      ],
      "payable": false,
      "stateMutability": "view",
      "type": "function"
    },
    {
      "constant": true,
      "inputs": [],
      "name": "RBCN",
      "outputs": [
        {
          "internalType": "contract RBCNInterface",
          "name": "",
          "type": "address"
        }
      ],
      "payable": false,
      "stateMutability": "view",
      "type": "function"
    },
    {
      "constant": true,
      "inputs": [],
      "name": "guardian",
      "outputs": [
        {
          "internalType": "address",
          "name": "",
          "type": "address"
        }
      ],
      "payable": false,
      "stateMutability": "view",
      "type": "function"
    },
    {
      "constant": true,
      "inputs": [
        {
          "internalType": "address",
          "name": "",
          "type": "address"
        }
      ],
      "name": "latestProposalIds",
      "outputs": [
        {
          "internalType": "uint256",
          "name": "",
          "type": "uint256"
        }
      ],
      "payable": false,
      "stateMutability": "view",
      "type": "function"
    },
    {
      "constant": true,
      "inputs": [],
      "name": "name",
      "outputs": [
        {
          "internalType": "string",
          "name": "",
          "type": "string"
        }
      ],
      "payable": false,
      "stateMutability": "view",
      "type": "function"
    },
    {
      "constant": true,
      "inputs": [],
      "name": "proposalCount",
      "outputs": [
        {
          "internalType": "uint256",
          "name": "",
          "type": "uint256"
        }
      ],
      "payable": false,
      "stateMutability": "view",
      "type": "function"
    },
    {
      "constant": true,
      "inputs": [
        {
          "internalType": "uint256",
          "name": "",
          "type": "uint256"
        }
      ],
      "name": "proposals",
      "outputs": [
        {
          "internalType": "uint256",
          "name": "id",
          "type": "uint256"
        },
        {
          "internalType": "address",
          "name": "proposer",
          "type": "address"
        },
        {
          "internalType": "uint256",
          "name": "eta",
          "type": "uint256"
        },
        {
          "internalType": "uint256",
          "name": "startBlock",
          "type": "uint256"
        },
        {
          "internalType": "uint256",
          "name": "endBlock",
          "type": "uint256"
        },
        {
          "internalType": "uint256",
          "name": "forVotes",
          "type": "uint256"
        },
        {
          "internalType": "uint256",
          "name": "againstVotes",
          "type": "uint256"
        },
        {
          "internalType": "bool",
          "name": "canceled",
          "type": "bool"
        },
        {
          "internalType": "bool",
          "name": "executed",
          "type": "bool"
        }
      ],
      "payable": false,
      "stateMutability": "view",
      "type": "function"
    },
    {
      "constant": true,
      "inputs": [],
      "name": "timelock",
      "outputs": [
        {
          "internalType": "contract TimelockInterface",
          "name": "",
          "type": "address"
        }
      ],
      "payable": false,
      "stateMutability": "view",
      "type": "function"
    },
    {
      "constant": true,
      "inputs": [],
      "name": "quorumVotes",
      "outputs": [
        {
          "internalType": "uint256",
          "name": "",
          "type": "uint256"
        }
      ],
      "payable": false,
      "stateMutability": "pure",
      "type": "function"
    },
    {
      "constant": true,
      "inputs": [],
      "name": "proposalThreshold",
      "outputs": [
        {
          "internalType": "uint256",
          "name": "",
          "type": "uint256"
        }
      ],
      "payable": false,
      "stateMutability": "pure",
      "type": "function"
    },
    {
      "constant": true,
      "inputs": [],
      "name": "proposalMaxOperations",
      "outputs": [
        {
          "internalType": "uint256",
          "name": "",
          "type": "uint256"
        }
      ],
      "payable": false,
      "stateMutability": "pure",
      "type": "function"
    },
    {
      "constant": true,
      "inputs": [],
      "name": "votingDelay",
      "outputs": [
        {
          "internalType": "uint256",
          "name": "",
          "type": "uint256"
        }
      ],
      "payable": false,
      "stateMutability": "pure",
      "type": "function"
    },
    {
      "constant": true,
      "inputs": [],
      "name": "votingPeriod",
      "outputs": [
        {
          "internalType": "uint256",
          "name": "",
          "type": "uint256"
        }
      ],
      "payable": false,
      "stateMutability": "pure",
      "type": "function"
    },
    {
      "constant": false,
      "inputs": [
        {
          "internalType": "address[]",
          "name": "targets",
          "type": "address[]"
        },
        {
          "internalType": "uint256[]",
          "name": "values",
          "type": "uint256[]"
        },
        {
          "internalType": "string[]",
          "name": "signatures",
          "type": "string[]"
        },
        {
          "internalType": "bytes[]",
          "name": "calldatas",
          "type": "bytes[]"
        },
        {
          "internalType": "string",
          "name": "description",
          "type": "string"
        }
      ],
      "name": "propose",
      "outputs": [
        {
          "internalType": "uint256",
          "name": "",
          "type": "uint256"
        }
      ],
      "payable": false,
      "stateMutability": "nonpayable",
      "type": "function"
    },
    {
      "constant": false,
      "inputs": [
        {
          "internalType": "uint256",
          "name": "proposalId",
          "type": "uint256"
        }
      ],
      "name": "queue",
      "outputs": [],
      "payable": false,
      "stateMutability": "nonpayable",
      "type": "function"
    },
    {
      "constant": false,
      "inputs": [
        {
          "internalType": "uint256",
          "name": "proposalId",
          "type": "uint256"
        }
      ],
      "name": "execute",
      "outputs": [],
      "payable": true,
      "stateMutability": "payable",
      "type": "function"
    },
    {
      "constant": false,
      "inputs": [
        {
          "internalType": "uint256",
          "name": "proposalId",
          "type": "uint256"
        }
      ],
      "name": "cancel",
      "outputs": [],
      "payable": false,
      "stateMutability": "nonpayable",
      "type": "function"
    },
    {
      "constant": true,
      "inputs": [
        {
          "internalType": "uint256",
          "name": "proposalId",
          "type": "uint256"
        }
      ],
      "name": "getActions",
      "outputs": [
        {
          "internalType": "address[]",
          "name": "targets",
          "type": "address[]"
        },
        {
          "internalType": "uint256[]",
          "name": "values",
          "type": "uint256[]"
        },
        {
          "internalType": "string[]",
          "name": "signatures",
          "type": "string[]"
        },
        {
          "internalType": "bytes[]",
          "name": "calldatas",
          "type": "bytes[]"
        }
      ],
      "payable": false,
      "stateMutability": "view",
      "type": "function"
    },
    {
      "constant": true,
      "inputs": [
        {
          "internalType": "uint256",
          "name": "proposalId",
          "type": "uint256"
        },
        {
          "internalType": "address",
          "name": "voter",
          "type": "address"
        }
      ],
      "name": "getReceipt",
      "outputs": [
        {
          "components": [
            {
              "internalType": "bool",
              "name": "hasVoted",
              "type": "bool"
            },
            {
              "internalType": "bool",
              "name": "support",
              "type": "bool"
            },
            {
              "internalType": "uint96",
              "name": "votes",
              "type": "uint96"
            }
          ],
          "internalType": "struct SenateAlpha.Receipt",
          "name": "",
          "type": "tuple"
        }
      ],
      "payable": false,
      "stateMutability": "view",
      "type": "function"
    },
    {
      "constant": true,
      "inputs": [
        {
          "internalType": "uint256",
          "name": "proposalId",
          "type": "uint256"
        }
      ],
      "name": "state",
      "outputs": [
        {
          "internalType": "enum SenateAlpha.ProposalState",
          "name": "",
          "type": "uint8"
        }
      ],
      "payable": false,
      "stateMutability": "view",
      "type": "function"
    },
    {
      "constant": false,
      "inputs": [
        {
          "internalType": "uint256",
          "name": "proposalId",
          "type": "uint256"
        },
        {
          "internalType": "bool",
          "name": "support",
          "type": "bool"
        }
      ],
      "name": "castVote",
      "outputs": [],
      "payable": false,
      "stateMutability": "nonpayable",
      "type": "function"
    },
    {
      "constant": false,
      "inputs": [
        {
          "internalType": "uint256",
          "name": "proposalId",
          "type": "uint256"
        },
        {
          "internalType": "bool",
          "name": "support",
          "type": "bool"
        },
        {
          "internalType": "uint8",
          "name": "v",
          "type": "uint8"
        },
        {
          "internalType": "bytes32",
          "name": "r",
          "type": "bytes32"
        },
        {
          "internalType": "bytes32",
          "name": "s",
          "type": "bytes32"
        }
      ],
      "name": "castVoteBySig",
      "outputs": [],
      "payable": false,
      "stateMutability": "nonpayable",
      "type": "function"
    },
    {
      "constant": false,
      "inputs": [],
      "name": "__acceptAdmin",
      "outputs": [],
      "payable": false,
      "stateMutability": "nonpayable",
      "type": "function"
    },
    {
      "constant": false,
      "inputs": [],
      "name": "__abdicate",
      "outputs": [],
      "payable": false,
      "stateMutability": "nonpayable",
      "type": "function"
    },
    {
      "constant": false,
      "inputs": [
        {
          "internalType": "address",
          "name": "newPendingAdmin",
          "type": "address"
        },
        {
          "internalType": "uint256",
          "name": "eta",
          "type": "uint256"
        }
      ],
      "name": "__queueSetTimelockPendingAdmin",
      "outputs": [],
      "payable": false,
      "stateMutability": "nonpayable",
      "type": "function"
    },
    {
      "constant": false,
      "inputs": [
        {
          "internalType": "address",
          "name": "newPendingAdmin",
          "type": "address"
        },
        {
          "internalType": "uint256",
          "name": "eta",
          "type": "uint256"
        }
      ],
      "name": "__executeSetTimelockPendingAdmin",
      "outputs": [],
      "payable": false,
      "stateMutability": "nonpayable",
      "type": "function"
    }
  ],
  "bytecode": "0x60806040523480156200001157600080fd5b506040516200546938038062005469833981810160405262000037919081019062000119565b826000806101000a81548173ffffffffffffffffffffffffffffffffffffffff021916908373ffffffffffffffffffffffffffffffffffffffff16021790555081600160006101000a81548173ffffffffffffffffffffffffffffffffffffffff021916908373ffffffffffffffffffffffffffffffffffffffff16021790555080600260006101000a81548173ffffffffffffffffffffffffffffffffffffffff021916908373ffffffffffffffffffffffffffffffffffffffff160217905550505050620001bd565b6000815190506200011381620001a3565b92915050565b6000806000606084860312156200012f57600080fd5b60006200013f8682870162000102565b9350506020620001528682870162000102565b9250506040620001658682870162000102565b9150509250925092565b60006200017c8262000183565b9050919050565b600073ffffffffffffffffffffffffffffffffffffffff82169050919050565b620001ae816200016f565b8114620001ba57600080fd5b50565b61529c80620001cd6000396000f3fe60806040526004361061019c5760003560e01c80634634c61f116100ec578063d33219b41161008a578063ddf0b00911610064578063ddf0b009146105b1578063deaaa7cc146105da578063e23a9a5214610605578063fe0d94c1146106425761019c565b8063d33219b41461051e578063da35c66414610549578063da95691a146105745761019c565b80637bdbe4d0116100c65780637bdbe4d01461048857806391500671146104b3578063b58131b0146104dc578063b9a61961146105075761019c565b80634634c61f1461041d5780635794a68a14610446578063760fbc13146104715761019c565b806321f43e42116101595780633932abb1116101335780633932abb1146103615780633e4f49e61461038c57806340e58ee5146103c9578063452a9320146103f25761019c565b806321f43e42146102cd57806324bc1a64146102f6578063328dd982146103215761019c565b8063013cf08b146101a157806302a251a3146101e657806306fdde031461021157806315373e3d1461023c57806317977c611461026557806320606b70146102a2575b600080fd5b3480156101ad57600080fd5b506101c860048036036101c39190810190613370565b61065e565b6040516101dd99989796959493929190614c6b565b60405180910390f35b3480156101f257600080fd5b506101fb6106e6565b6040516102089190614ba0565b60405180910390f35b34801561021d57600080fd5b506102266106ef565b60405161023391906148c3565b60405180910390f35b34801561024857600080fd5b50610263600480360361025e91908101906133fe565b610728565b005b34801561027157600080fd5b5061028c60048036036102879190810190613189565b610737565b6040516102999190614ba0565b60405180910390f35b3480156102ae57600080fd5b506102b761074f565b6040516102c49190614796565b60405180910390f35b3480156102d957600080fd5b506102f460048036036102ef91908101906131b2565b610766565b005b34801561030257600080fd5b5061030b6108f3565b6040516103189190614ba0565b60405180910390f35b34801561032d57600080fd5b5061034860048036036103439190810190613370565b610905565b6040516103589493929190614735565b60405180910390f35b34801561036d57600080fd5b50610376610be2565b6040516103839190614ba0565b60405180910390f35b34801561039857600080fd5b506103b360048036036103ae9190810190613370565b610beb565b6040516103c091906148a8565b60405180910390f35b3480156103d557600080fd5b506103f060048036036103eb9190810190613370565b610dcf565b005b3480156103fe57600080fd5b5061040761116b565b6040516104149190614562565b60405180910390f35b34801561042957600080fd5b50610444600480360361043f919081019061343a565b611191565b005b34801561045257600080fd5b5061045b611360565b6040516104689190614872565b60405180910390f35b34801561047d57600080fd5b50610486611386565b005b34801561049457600080fd5b5061049d61145a565b6040516104aa9190614ba0565b60405180910390f35b3480156104bf57600080fd5b506104da60048036036104d591908101906131b2565b611463565b005b3480156104e857600080fd5b506104f16115eb565b6040516104fe9190614ba0565b60405180910390f35b34801561051357600080fd5b5061051c6115fd565b005b34801561052a57600080fd5b50610533611710565b604051610540919061488d565b60405180910390f35b34801561055557600080fd5b5061055e611735565b60405161056b9190614ba0565b60405180910390f35b34801561058057600080fd5b5061059b600480360361059691908101906131ee565b61173b565b6040516105a89190614ba0565b60405180910390f35b3480156105bd57600080fd5b506105d860048036036105d39190810190613370565b611d08565b005b3480156105e657600080fd5b506105ef612057565b6040516105fc9190614796565b60405180910390f35b34801561061157600080fd5b5061062c600480360361062791908101906133c2565b61206e565b6040516106399190614b85565b60405180910390f35b61065c60048036036106579190810190613370565b612150565b005b60046020528060005260406000206000915090508060000154908060010160009054906101000a900473ffffffffffffffffffffffffffffffffffffffff169080600201549080600701549080600801549080600901549080600a01549080600b0160009054906101000a900460ff169080600b0160019054906101000a900460ff16905089565b60006001905090565b6040518060400160405280601481526020017f52756269636f6e2053656e61746520416c70686100000000000000000000000081525081565b61073333838361239d565b5050565b60056020528060005260406000206000915090505481565b60405161075b90614538565b604051809103902081565b600260009054906101000a900473ffffffffffffffffffffffffffffffffffffffff1673ffffffffffffffffffffffffffffffffffffffff163373ffffffffffffffffffffffffffffffffffffffff16146107f6576040517f08c379a00000000000000000000000000000000000000000000000000000000081526004016107ed90614a45565b60405180910390fd5b6000809054906101000a900473ffffffffffffffffffffffffffffffffffffffff1673ffffffffffffffffffffffffffffffffffffffff16630825f38f6000809054906101000a900473ffffffffffffffffffffffffffffffffffffffff166000856040516020016108689190614562565b604051602081830303815290604052856040518563ffffffff1660e01b815260040161089794939291906145a6565b600060405180830381600087803b1580156108b157600080fd5b505af11580156108c5573d6000803e3d6000fd5b505050506040513d6000823e3d601f19601f820116820180604052506108ee919081019061332f565b505050565b60006954b40b1f852bda000000905090565b606080606080600060046000878152602001908152602001600020905080600301816004018260050183600601838054806020026020016040519081016040528092919081815260200182805480156109b357602002820191906000526020600020905b8160009054906101000a900473ffffffffffffffffffffffffffffffffffffffff1673ffffffffffffffffffffffffffffffffffffffff1681526020019060010190808311610969575b5050505050935082805480602002602001604051908101604052809291908181526020018280548015610a0557602002820191906000526020600020905b8154815260200190600101908083116109f1575b5050505050925081805480602002602001604051908101604052809291908181526020016000905b82821015610ae9578382906000526020600020018054600181600116156101000203166002900480601f016020809104026020016040519081016040528092919081815260200182805460018160011615610100020316600290048015610ad55780601f10610aaa57610100808354040283529160200191610ad5565b820191906000526020600020905b815481529060010190602001808311610ab857829003601f168201915b505050505081526020019060010190610a2d565b50505050915080805480602002602001604051908101604052809291908181526020016000905b82821015610bcc578382906000526020600020018054600181600116156101000203166002900480601f016020809104026020016040519081016040528092919081815260200182805460018160011615610100020316600290048015610bb85780601f10610b8d57610100808354040283529160200191610bb8565b820191906000526020600020905b815481529060010190602001808311610b9b57829003601f168201915b505050505081526020019060010190610b10565b5050505090509450945094509450509193509193565b60006001905090565b60008160035410158015610bff5750600082115b610c3e576040517f08c379a0000000000000000000000000000000000000000000000000000000008152600401610c3590614905565b60405180910390fd5b600060046000848152602001908152602001600020905080600b0160009054906101000a900460ff1615610c76576002915050610dca565b80600701544311610c8b576000915050610dca565b80600801544311610ca0576001915050610dca565b80600a01548160090154111580610cc15750610cba6108f3565b8160090154105b15610cd0576003915050610dca565b600081600201541415610ce7576004915050610dca565b80600b0160019054906101000a900460ff1615610d08576007915050610dca565b610db481600201546000809054906101000a900473ffffffffffffffffffffffffffffffffffffffff1673ffffffffffffffffffffffffffffffffffffffff1663c1a287e26040518163ffffffff1660e01b815260040160206040518083038186803b158015610d7757600080fd5b505afa158015610d8b573d6000803e3d6000fd5b505050506040513d601f19601f82011682018060405250610daf9190810190613399565b61266c565b4210610dc4576006915050610dca565b60059150505b919050565b6000610dda82610beb565b9050600780811115610de857fe5b816007811115610df457fe5b1415610e35576040517f08c379a0000000000000000000000000000000000000000000000000000000008152600401610e2c90614a85565b60405180910390fd5b6000600460008481526020019081526020016000209050600260009054906101000a900473ffffffffffffffffffffffffffffffffffffffff1673ffffffffffffffffffffffffffffffffffffffff163373ffffffffffffffffffffffffffffffffffffffff161480610f965750610eab6115eb565b600160009054906101000a900473ffffffffffffffffffffffffffffffffffffffff1673ffffffffffffffffffffffffffffffffffffffff1663782d6fe18360010160009054906101000a900473ffffffffffffffffffffffffffffffffffffffff16610f194360016126c1565b6040518363ffffffff1660e01b8152600401610f36929190614605565b60206040518083038186803b158015610f4e57600080fd5b505afa158015610f62573d6000803e3d6000fd5b505050506040513d601f19601f82011682018060405250610f8691908101906134b1565b6bffffffffffffffffffffffff16105b610fd5576040517f08c379a0000000000000000000000000000000000000000000000000000000008152600401610fcc90614b25565b60405180910390fd5b600181600b0160006101000a81548160ff02191690831515021790555060008090505b816003018054905081101561112e576000809054906101000a900473ffffffffffffffffffffffffffffffffffffffff1673ffffffffffffffffffffffffffffffffffffffff1663591fcdfe83600301838154811061105357fe5b9060005260206000200160009054906101000a900473ffffffffffffffffffffffffffffffffffffffff1684600401848154811061108d57fe5b90600052602060002001548560050185815481106110a757fe5b906000526020600020018660060186815481106110c057fe5b9060005260206000200187600201546040518663ffffffff1660e01b81526004016110ef9594939291906146d4565b600060405180830381600087803b15801561110957600080fd5b505af115801561111d573d6000803e3d6000fd5b505050508080600101915050610ff8565b507f789cf55be980739dad1d0699b93b58e806b51c9d96619bfa8fe0a28abaa7b30c8360405161115e9190614ba0565b60405180910390a1505050565b600260009054906101000a900473ffffffffffffffffffffffffffffffffffffffff1681565b600060405161119f90614538565b60405180910390206040518060400160405280601481526020017f52756269636f6e2053656e61746520416c706861000000000000000000000000815250805190602001206111ec612711565b3060405160200161120094939291906147b1565b60405160208183030381529060405280519060200120905060006040516112269061454d565b60405180910390208787604051602001611242939291906147f6565b6040516020818303038152906040528051906020012090506000828260405160200161126f929190614501565b6040516020818303038152906040528051906020012090506000600182888888604051600081526020016040526040516112ac949392919061482d565b6020604051602081039080840390855afa1580156112ce573d6000803e3d6000fd5b505050602060405103519050600073ffffffffffffffffffffffffffffffffffffffff168173ffffffffffffffffffffffffffffffffffffffff16141561134a576040517f08c379a000000000000000000000000000000000000000000000000000000000815260040161134190614ac5565b60405180910390fd5b611355818a8a61239d565b505050505050505050565b600160009054906101000a900473ffffffffffffffffffffffffffffffffffffffff1681565b600260009054906101000a900473ffffffffffffffffffffffffffffffffffffffff1673ffffffffffffffffffffffffffffffffffffffff163373ffffffffffffffffffffffffffffffffffffffff1614611416576040517f08c379a000000000000000000000000000000000000000000000000000000000815260040161140d90614965565b60405180910390fd5b6000600260006101000a81548173ffffffffffffffffffffffffffffffffffffffff021916908373ffffffffffffffffffffffffffffffffffffffff160217905550565b6000600a905090565b600260009054906101000a900473ffffffffffffffffffffffffffffffffffffffff1673ffffffffffffffffffffffffffffffffffffffff163373ffffffffffffffffffffffffffffffffffffffff16146114f3576040517f08c379a00000000000000000000000000000000000000000000000000000000081526004016114ea906149a5565b60405180910390fd5b6000809054906101000a900473ffffffffffffffffffffffffffffffffffffffff1673ffffffffffffffffffffffffffffffffffffffff16633a66f9016000809054906101000a900473ffffffffffffffffffffffffffffffffffffffff166000856040516020016115659190614562565b604051602081830303815290604052856040518563ffffffff1660e01b815260040161159494939291906145a6565b602060405180830381600087803b1580156115ae57600080fd5b505af11580156115c2573d6000803e3d6000fd5b505050506040513d601f19601f820116820180604052506115e69190810190613306565b505050565b600069152d02c7e14af6800000905090565b600260009054906101000a900473ffffffffffffffffffffffffffffffffffffffff1673ffffffffffffffffffffffffffffffffffffffff163373ffffffffffffffffffffffffffffffffffffffff161461168d576040517f08c379a000000000000000000000000000000000000000000000000000000000815260040161168490614ae5565b60405180910390fd5b6000809054906101000a900473ffffffffffffffffffffffffffffffffffffffff1673ffffffffffffffffffffffffffffffffffffffff16630e18b6816040518163ffffffff1660e01b8152600401600060405180830381600087803b1580156116f657600080fd5b505af115801561170a573d6000803e3d6000fd5b50505050565b6000809054906101000a900473ffffffffffffffffffffffffffffffffffffffff1681565b60035481565b60006117456115eb565b600160009054906101000a900473ffffffffffffffffffffffffffffffffffffffff1673ffffffffffffffffffffffffffffffffffffffff1663782d6fe13361178f4360016126c1565b6040518363ffffffff1660e01b81526004016117ac92919061457d565b60206040518083038186803b1580156117c457600080fd5b505afa1580156117d8573d6000803e3d6000fd5b505050506040513d601f19601f820116820180604052506117fc91908101906134b1565b6bffffffffffffffffffffffff161161184a576040517f08c379a000000000000000000000000000000000000000000000000000000000815260040161184190614a25565b60405180910390fd5b8451865114801561185c575083518651145b8015611869575082518651145b6118a8576040517f08c379a000000000000000000000000000000000000000000000000000000000815260040161189f906148e5565b60405180910390fd5b6000865114156118ed576040517f08c379a00000000000000000000000000000000000000000000000000000000081526004016118e490614985565b60405180910390fd5b6118f561145a565b86511115611938576040517f08c379a000000000000000000000000000000000000000000000000000000000815260040161192f90614945565b60405180910390fd5b6000600560003373ffffffffffffffffffffffffffffffffffffffff1673ffffffffffffffffffffffffffffffffffffffff16815260200190815260200160002054905060008114611a4757600061198f82610beb565b90506001600781111561199e57fe5b8160078111156119aa57fe5b14156119eb576040517f08c379a00000000000000000000000000000000000000000000000000000000081526004016119e290614a65565b60405180910390fd5b600060078111156119f857fe5b816007811115611a0457fe5b1415611a45576040517f08c379a0000000000000000000000000000000000000000000000000000000008152600401611a3c90614b65565b60405180910390fd5b505b6000611a5a43611a55610be2565b61266c565b90506000611a6f82611a6a6106e6565b61266c565b9050600360008154809291906001019190505550611a8b6128f2565b604051806101a0016040528060035481526020013373ffffffffffffffffffffffffffffffffffffffff168152602001600081526020018b81526020018a815260200189815260200188815260200184815260200183815260200160008152602001600081526020016000151581526020016000151581525090508060046000836000015181526020019081526020016000206000820151816000015560208201518160010160006101000a81548173ffffffffffffffffffffffffffffffffffffffff021916908373ffffffffffffffffffffffffffffffffffffffff160217905550604082015181600201556060820151816003019080519060200190611b95929190612974565b506080820151816004019080519060200190611bb29291906129fe565b5060a0820151816005019080519060200190611bcf929190612a4b565b5060c0820151816006019080519060200190611bec929190612aab565b5060e082015181600701556101008201518160080155610120820151816009015561014082015181600a015561016082015181600b0160006101000a81548160ff02191690831515021790555061018082015181600b0160016101000a81548160ff021916908315150217905550905050806000015160056000836020015173ffffffffffffffffffffffffffffffffffffffff1673ffffffffffffffffffffffffffffffffffffffff168152602001908152602001600020819055507f7d84a6263ae0d98d3329bd7b46bb4e8d6f98cd35a7adb45c274c8b7fd5ebd5e08160000151338c8c8c8c89898e604051611cec99989796959493929190614bbb565b60405180910390a1806000015194505050505095945050505050565b60046007811115611d1557fe5b611d1e82610beb565b6007811115611d2957fe5b14611d69576040517f08c379a0000000000000000000000000000000000000000000000000000000008152600401611d6090614925565b60405180910390fd5b60006004600083815260200190815260200160002090506000611e2a426000809054906101000a900473ffffffffffffffffffffffffffffffffffffffff1673ffffffffffffffffffffffffffffffffffffffff16636a42b8f86040518163ffffffff1660e01b815260040160206040518083038186803b158015611ded57600080fd5b505afa158015611e01573d6000803e3d6000fd5b505050506040513d601f19601f82011682018060405250611e259190810190613399565b61266c565b905060008090505b826003018054905081101561200f57612002836003018281548110611e5357fe5b9060005260206000200160009054906101000a900473ffffffffffffffffffffffffffffffffffffffff16846004018381548110611e8d57fe5b9060005260206000200154856005018481548110611ea757fe5b906000526020600020018054600181600116156101000203166002900480601f016020809104026020016040519081016040528092919081815260200182805460018160011615610100020316600290048015611f455780601f10611f1a57610100808354040283529160200191611f45565b820191906000526020600020905b815481529060010190602001808311611f2857829003601f168201915b5050505050866006018581548110611f5957fe5b906000526020600020018054600181600116156101000203166002900480601f016020809104026020016040519081016040528092919081815260200182805460018160011615610100020316600290048015611ff75780601f10611fcc57610100808354040283529160200191611ff7565b820191906000526020600020905b815481529060010190602001808311611fda57829003601f168201915b50505050508661271e565b8080600101915050611e32565b508082600201819055507f9a2e42fd6722813d69113e7d0079d3d940171428df7373df9c7f7617cfda2892838260405161204a929190614cf8565b60405180910390a1505050565b6040516120639061454d565b604051809103902081565b612076612b0b565b60046000848152602001908152602001600020600c0160008373ffffffffffffffffffffffffffffffffffffffff1673ffffffffffffffffffffffffffffffffffffffff1681526020019081526020016000206040518060600160405290816000820160009054906101000a900460ff161515151581526020016000820160019054906101000a900460ff161515151581526020016000820160029054906101000a90046bffffffffffffffffffffffff166bffffffffffffffffffffffff166bffffffffffffffffffffffff1681525050905092915050565b6005600781111561215d57fe5b61216682610beb565b600781111561217157fe5b146121b1576040517f08c379a00000000000000000000000000000000000000000000000000000000081526004016121a890614a05565b60405180910390fd5b6000600460008381526020019081526020016000209050600181600b0160016101000a81548160ff02191690831515021790555060008090505b8160030180549050811015612361576000809054906101000a900473ffffffffffffffffffffffffffffffffffffffff1673ffffffffffffffffffffffffffffffffffffffff16630825f38f83600401838154811061224657fe5b906000526020600020015484600301848154811061226057fe5b9060005260206000200160009054906101000a900473ffffffffffffffffffffffffffffffffffffffff1685600401858154811061229a57fe5b90600052602060002001548660050186815481106122b457fe5b906000526020600020018760060187815481106122cd57fe5b9060005260206000200188600201546040518763ffffffff1660e01b81526004016122fc9594939291906146d4565b6000604051808303818588803b15801561231557600080fd5b505af1158015612329573d6000803e3d6000fd5b50505050506040513d6000823e3d601f19601f82011682018060405250612353919081019061332f565b5080806001019150506121eb565b507f712ae1383f79ac853f8d882153778e0260ef8f03b504e2866e0593e04d2b291f826040516123919190614ba0565b60405180910390a15050565b600160078111156123aa57fe5b6123b383610beb565b60078111156123be57fe5b146123fe576040517f08c379a00000000000000000000000000000000000000000000000000000000081526004016123f590614b05565b60405180910390fd5b6000600460008481526020019081526020016000209050600081600c0160008673ffffffffffffffffffffffffffffffffffffffff1673ffffffffffffffffffffffffffffffffffffffff1681526020019081526020016000209050600015158160000160009054906101000a900460ff161515146124b2576040517f08c379a00000000000000000000000000000000000000000000000000000000081526004016124a9906149e5565b60405180910390fd5b6000600160009054906101000a900473ffffffffffffffffffffffffffffffffffffffff1673ffffffffffffffffffffffffffffffffffffffff1663782d6fe18785600701546040518363ffffffff1660e01b8152600401612515929190614605565b60206040518083038186803b15801561252d57600080fd5b505afa158015612541573d6000803e3d6000fd5b505050506040513d601f19601f8201168201806040525061256591908101906134b1565b90508315612596576125898360090154826bffffffffffffffffffffffff1661266c565b83600901819055506125bb565b6125b283600a0154826bffffffffffffffffffffffff1661266c565b83600a01819055505b60018260000160006101000a81548160ff021916908315150217905550838260000160016101000a81548160ff021916908315150217905550808260000160026101000a8154816bffffffffffffffffffffffff02191690836bffffffffffffffffffffffff1602179055507f877856338e13f63d0c36822ff0ef736b80934cd90574a3a5bc9262c39d217c468686868460405161265c949392919061462e565b60405180910390a1505050505050565b6000808284019050838110156126b7576040517f08c379a00000000000000000000000000000000000000000000000000000000081526004016126ae906149c5565b60405180910390fd5b8091505092915050565b600082821115612706576040517f08c379a00000000000000000000000000000000000000000000000000000000081526004016126fd90614b45565b60405180910390fd5b818303905092915050565b6000804690508091505090565b6000809054906101000a900473ffffffffffffffffffffffffffffffffffffffff1673ffffffffffffffffffffffffffffffffffffffff1663f2b065378686868686604051602001612774959493929190614673565b604051602081830303815290604052805190602001206040518263ffffffff1660e01b81526004016127a69190614796565b60206040518083038186803b1580156127be57600080fd5b505afa1580156127d2573d6000803e3d6000fd5b505050506040513d601f19601f820116820180604052506127f691908101906132dd565b15612836576040517f08c379a000000000000000000000000000000000000000000000000000000000815260040161282d90614aa5565b60405180910390fd5b6000809054906101000a900473ffffffffffffffffffffffffffffffffffffffff1673ffffffffffffffffffffffffffffffffffffffff16633a66f90186868686866040518663ffffffff1660e01b8152600401612898959493929190614673565b602060405180830381600087803b1580156128b257600080fd5b505af11580156128c6573d6000803e3d6000fd5b505050506040513d601f19601f820116820180604052506128ea9190810190613306565b505050505050565b604051806101a0016040528060008152602001600073ffffffffffffffffffffffffffffffffffffffff1681526020016000815260200160608152602001606081526020016060815260200160608152602001600081526020016000815260200160008152602001600081526020016000151581526020016000151581525090565b8280548282559060005260206000209081019282156129ed579160200282015b828111156129ec5782518260006101000a81548173ffffffffffffffffffffffffffffffffffffffff021916908373ffffffffffffffffffffffffffffffffffffffff16021790555091602001919060010190612994565b5b5090506129fa9190612b3e565b5090565b828054828255906000526020600020908101928215612a3a579160200282015b82811115612a39578251825591602001919060010190612a1e565b5b509050612a479190612b81565b5090565b828054828255906000526020600020908101928215612a9a579160200282015b82811115612a99578251829080519060200190612a89929190612ba6565b5091602001919060010190612a6b565b5b509050612aa79190612c26565b5090565b828054828255906000526020600020908101928215612afa579160200282015b82811115612af9578251829080519060200190612ae9929190612c52565b5091602001919060010190612acb565b5b509050612b079190612cd2565b5090565b604051806060016040528060001515815260200160001515815260200160006bffffffffffffffffffffffff1681525090565b612b7e91905b80821115612b7a57600081816101000a81549073ffffffffffffffffffffffffffffffffffffffff021916905550600101612b44565b5090565b90565b612ba391905b80821115612b9f576000816000905550600101612b87565b5090565b90565b828054600181600116156101000203166002900490600052602060002090601f016020900481019282601f10612be757805160ff1916838001178555612c15565b82800160010185558215612c15579182015b82811115612c14578251825591602001919060010190612bf9565b5b509050612c229190612b81565b5090565b612c4f91905b80821115612c4b5760008181612c429190612cfe565b50600101612c2c565b5090565b90565b828054600181600116156101000203166002900490600052602060002090601f016020900481019282601f10612c9357805160ff1916838001178555612cc1565b82800160010185558215612cc1579182015b82811115612cc0578251825591602001919060010190612ca5565b5b509050612cce9190612b81565b5090565b612cfb91905b80821115612cf75760008181612cee9190612d46565b50600101612cd8565b5090565b90565b50805460018160011615610100020316600290046000825580601f10612d245750612d43565b601f016020900490600052602060002090810190612d429190612b81565b5b50565b50805460018160011615610100020316600290046000825580601f10612d6c5750612d8b565b601f016020900490600052602060002090810190612d8a9190612b81565b5b50565b600081359050612d9d816151cf565b92915050565b600082601f830112612db457600080fd5b8135612dc7612dc282614d4e565b614d21565b91508181835260208401935060208101905083856020840282011115612dec57600080fd5b60005b83811015612e1c5781612e028882612d8e565b845260208401935060208301925050600181019050612def565b5050505092915050565b600082601f830112612e3757600080fd5b8135612e4a612e4582614d76565b614d21565b9150818183526020840193506020810190508360005b83811015612e905781358601612e768882612fe5565b845260208401935060208301925050600181019050612e60565b5050505092915050565b600082601f830112612eab57600080fd5b8135612ebe612eb982614d9e565b614d21565b9150818183526020840193506020810190508360005b83811015612f045781358601612eea888261308d565b845260208401935060208301925050600181019050612ed4565b5050505092915050565b600082601f830112612f1f57600080fd5b8135612f32612f2d82614dc6565b614d21565b91508181835260208401935060208101905083856020840282011115612f5757600080fd5b60005b83811015612f875781612f6d8882613135565b845260208401935060208301925050600181019050612f5a565b5050505092915050565b600081359050612fa0816151e6565b92915050565b600081519050612fb5816151e6565b92915050565b600081359050612fca816151fd565b92915050565b600081519050612fdf816151fd565b92915050565b600082601f830112612ff657600080fd5b813561300961300482614dee565b614d21565b9150808252602083016020830185838301111561302557600080fd5b613030838284615165565b50505092915050565b600082601f83011261304a57600080fd5b815161305d61305882614e1a565b614d21565b9150808252602083016020830185838301111561307957600080fd5b613084838284615174565b50505092915050565b600082601f83011261309e57600080fd5b81356130b16130ac82614e46565b614d21565b915080825260208301602083018583830111156130cd57600080fd5b6130d8838284615165565b50505092915050565b600082601f8301126130f257600080fd5b813561310561310082614e72565b614d21565b9150808252602083016020830185838301111561312157600080fd5b61312c838284615165565b50505092915050565b60008135905061314481615214565b92915050565b60008151905061315981615214565b92915050565b60008135905061316e8161522b565b92915050565b60008151905061318381615242565b92915050565b60006020828403121561319b57600080fd5b60006131a984828501612d8e565b91505092915050565b600080604083850312156131c557600080fd5b60006131d385828601612d8e565b92505060206131e485828601613135565b9150509250929050565b600080600080600060a0868803121561320657600080fd5b600086013567ffffffffffffffff81111561322057600080fd5b61322c88828901612da3565b955050602086013567ffffffffffffffff81111561324957600080fd5b61325588828901612f0e565b945050604086013567ffffffffffffffff81111561327257600080fd5b61327e88828901612e9a565b935050606086013567ffffffffffffffff81111561329b57600080fd5b6132a788828901612e26565b925050608086013567ffffffffffffffff8111156132c457600080fd5b6132d0888289016130e1565b9150509295509295909350565b6000602082840312156132ef57600080fd5b60006132fd84828501612fa6565b91505092915050565b60006020828403121561331857600080fd5b600061332684828501612fd0565b91505092915050565b60006020828403121561334157600080fd5b600082015167ffffffffffffffff81111561335b57600080fd5b61336784828501613039565b91505092915050565b60006020828403121561338257600080fd5b600061339084828501613135565b91505092915050565b6000602082840312156133ab57600080fd5b60006133b98482850161314a565b91505092915050565b600080604083850312156133d557600080fd5b60006133e385828601613135565b92505060206133f485828601612d8e565b9150509250929050565b6000806040838503121561341157600080fd5b600061341f85828601613135565b925050602061343085828601612f91565b9150509250929050565b600080600080600060a0868803121561345257600080fd5b600061346088828901613135565b955050602061347188828901612f91565b94505060406134828882890161315f565b935050606061349388828901612fbb565b92505060806134a488828901612fbb565b9150509295509295909350565b6000602082840312156134c357600080fd5b60006134d184828501613174565b91505092915050565b60006134e68383613541565b60208301905092915050565b60006134fe8383613782565b905092915050565b600061351283836138bf565b905092915050565b600061352683836144b6565b60208301905092915050565b61353b816150b1565b82525050565b61354a81615027565b82525050565b61355981615027565b82525050565b600061356a82614f08565b6135748185614f94565b935061357f83614e9e565b8060005b838110156135b057815161359788826134da565b97506135a283614f60565b925050600181019050613583565b5085935050505092915050565b60006135c882614f13565b6135d28185614fa5565b9350836020820285016135e485614eae565b8060005b85811015613620578484038952815161360185826134f2565b945061360c83614f6d565b925060208a019950506001810190506135e8565b50829750879550505050505092915050565b600061363d82614f1e565b6136478185614fb6565b93508360208202850161365985614ebe565b8060005b8581101561369557848403895281516136768582613506565b945061368183614f7a565b925060208a0199505060018101905061365d565b50829750879550505050505092915050565b60006136b282614f29565b6136bc8185614fc7565b93506136c783614ece565b8060005b838110156136f85781516136df888261351a565b97506136ea83614f87565b9250506001810190506136cb565b5085935050505092915050565b61370e81615039565b82525050565b61371d81615039565b82525050565b61372c81615045565b82525050565b61374361373e82615045565b6151a7565b82525050565b600061375482614f3f565b61375e8185614fe9565b935061376e818560208601615174565b613777816151b1565b840191505092915050565b600061378d82614f34565b6137978185614fd8565b93506137a7818560208601615174565b6137b0816151b1565b840191505092915050565b6000815460018116600081146137d857600181146137fe57613842565b607f60028304166137e98187614fe9565b955060ff198316865260208601935050613842565b6002820461380c8187614fe9565b955061381785614ede565b60005b828110156138395781548189015260018201915060208101905061381a565b80880195505050505b505092915050565b613853816150c3565b82525050565b613862816150e7565b82525050565b6138718161510b565b82525050565b6138808161511d565b82525050565b600061389182614f55565b61389b818561500b565b93506138ab818560208601615174565b6138b4816151b1565b840191505092915050565b60006138ca82614f4a565b6138d48185614ffa565b93506138e4818560208601615174565b6138ed816151b1565b840191505092915050565b600061390382614f4a565b61390d818561500b565b935061391d818560208601615174565b613926816151b1565b840191505092915050565b60008154600181166000811461394e5760018114613974576139b8565b607f600283041661395f818761500b565b955060ff1983168652602086019350506139b8565b60028204613982818761500b565b955061398d85614ef3565b60005b828110156139af57815481890152600182019150602081019050613990565b80880195505050505b505092915050565b60006139cd60428361500b565b91507f53656e617465416c7068613a3a70726f706f73653a2070726f706f73616c206660008301527f756e6374696f6e20696e666f726d6174696f6e206172697479206d69736d617460208301527f63680000000000000000000000000000000000000000000000000000000000006040830152606082019050919050565b6000613a5960278361500b565b91507f53656e617465416c7068613a3a73746174653a20696e76616c69642070726f7060008301527f6f73616c206964000000000000000000000000000000000000000000000000006020830152604082019050919050565b6000613abf60428361500b565b91507f53656e617465416c7068613a3a71756575653a2070726f706f73616c2063616e60008301527f206f6e6c7920626520717565756564206966206974206973207375636365656460208301527f65640000000000000000000000000000000000000000000000000000000000006040830152606082019050919050565b6000613b4b60268361500b565b91507f53656e617465416c7068613a3a70726f706f73653a20746f6f206d616e79206160008301527f6374696f6e7300000000000000000000000000000000000000000000000000006020830152604082019050919050565b6000613bb160028361501c565b91507f19010000000000000000000000000000000000000000000000000000000000006000830152600282019050919050565b6000613bf160348361500b565b91507f53656e617465416c7068613a3a5f5f61626469636174653a2073656e6465722060008301527f6d75737420626520676f7620677561726469616e0000000000000000000000006020830152604082019050919050565b6000613c57602a8361500b565b91507f53656e617465416c7068613a3a70726f706f73653a206d7573742070726f766960008301527f646520616374696f6e73000000000000000000000000000000000000000000006020830152604082019050919050565b6000613cbd60188361500b565b91507f73657450656e64696e6741646d696e28616464726573732900000000000000006000830152602082019050919050565b6000613cfd60488361500b565b91507f53656e617465416c7068613a3a5f5f717565756553657454696d656c6f636b5060008301527f656e64696e6741646d696e3a2073656e646572206d75737420626520676f762060208301527f677561726469616e0000000000000000000000000000000000000000000000006040830152606082019050919050565b6000613d8960118361500b565b91507f6164646974696f6e206f766572666c6f770000000000000000000000000000006000830152602082019050919050565b6000613dc960438361501c565b91507f454950373132446f6d61696e28737472696e67206e616d652c75696e7432353660008301527f20636861696e49642c6164647265737320766572696679696e67436f6e74726160208301527f63742900000000000000000000000000000000000000000000000000000000006040830152604382019050919050565b6000613e5560278361501c565b91507f42616c6c6f742875696e743235362070726f706f73616c49642c626f6f6c207360008301527f7570706f727429000000000000000000000000000000000000000000000000006020830152602782019050919050565b6000613ebb602b8361500b565b91507f53656e617465416c7068613a3a5f63617374566f74653a20766f74657220616c60008301527f726561647920766f7465640000000000000000000000000000000000000000006020830152604082019050919050565b6000613f2160438361500b565b91507f53656e617465416c7068613a3a657865637574653a2070726f706f73616c206360008301527f616e206f6e6c792062652065786563757465642069662069742069732071756560208301527f75656400000000000000000000000000000000000000000000000000000000006040830152606082019050919050565b6000613fad603d8361500b565b91507f53656e617465416c7068613a3a70726f706f73653a2070726f706f736572207660008301527f6f7465732062656c6f772070726f706f73616c207468726573686f6c640000006020830152604082019050919050565b6000614013604a8361500b565b91507f53656e617465416c7068613a3a5f5f6578656375746553657454696d656c6f6360008301527f6b50656e64696e6741646d696e3a2073656e646572206d75737420626520676f60208301527f7620677561726469616e000000000000000000000000000000000000000000006040830152606082019050919050565b600061409f60568361500b565b91507f53656e617465416c7068613a3a70726f706f73653a206f6e65206c697665207060008301527f726f706f73616c207065722070726f706f7365722c20666f756e6420616e206160208301527f6c7265616479206163746976652070726f706f73616c000000000000000000006040830152606082019050919050565b600061412b60348361500b565b91507f53656e617465416c7068613a3a63616e63656c3a2063616e6e6f742063616e6360008301527f656c2065786563757465642070726f706f73616c0000000000000000000000006020830152604082019050919050565b600061419160428361500b565b91507f53656e617465416c7068613a3a5f71756575654f725265766572743a2070726f60008301527f706f73616c20616374696f6e20616c726561647920717565756564206174206560208301527f74610000000000000000000000000000000000000000000000000000000000006040830152606082019050919050565b600061421d602d8361500b565b91507f53656e617465416c7068613a3a63617374566f746542795369673a20696e766160008301527f6c6964207369676e6174757265000000000000000000000000000000000000006020830152604082019050919050565b600061428360378361500b565b91507f53656e617465416c7068613a3a5f5f61636365707441646d696e3a2073656e6460008301527f6572206d75737420626520676f7620677561726469616e0000000000000000006020830152604082019050919050565b60006142e960288361500b565b91507f53656e617465416c7068613a3a5f63617374566f74653a20766f74696e67206960008301527f7320636c6f7365640000000000000000000000000000000000000000000000006020830152604082019050919050565b600061434f602d8361500b565b91507f53656e617465416c7068613a3a63616e63656c3a2070726f706f73657220616260008301527f6f7665207468726573686f6c64000000000000000000000000000000000000006020830152604082019050919050565b60006143b560158361500b565b91507f7375627472616374696f6e20756e646572666c6f7700000000000000000000006000830152602082019050919050565b60006143f560578361500b565b91507f53656e617465416c7068613a3a70726f706f73653a206f6e65206c697665207060008301527f726f706f73616c207065722070726f706f7365722c20666f756e6420616e206160208301527f6c72656164792070656e64696e672070726f706f73616c0000000000000000006040830152606082019050919050565b60608201600082015161448a6000850182613705565b50602082015161449d6020850182613705565b5060408201516144b060408501826144f2565b50505050565b6144bf81615082565b82525050565b6144ce81615082565b82525050565b6144dd8161508c565b82525050565b6144ec81615153565b82525050565b6144fb81615099565b82525050565b600061450c82613ba4565b91506145188285613732565b6020820191506145288284613732565b6020820191508190509392505050565b600061454382613dbc565b9150819050919050565b600061455882613e48565b9150819050919050565b60006020820190506145776000830184613550565b92915050565b60006040820190506145926000830185613532565b61459f60208301846144c5565b9392505050565b600060a0820190506145bb6000830187613550565b6145c86020830186613877565b81810360408301526145d981613cb0565b905081810360608301526145ed8185613749565b90506145fc60808301846144c5565b95945050505050565b600060408201905061461a6000830185613550565b61462760208301846144c5565b9392505050565b60006080820190506146436000830187613550565b61465060208301866144c5565b61465d6040830185613714565b61466a60608301846144e3565b95945050505050565b600060a0820190506146886000830188613550565b61469560208301876144c5565b81810360408301526146a78186613886565b905081810360608301526146bb8185613749565b90506146ca60808301846144c5565b9695505050505050565b600060a0820190506146e96000830188613550565b6146f660208301876144c5565b81810360408301526147088186613931565b9050818103606083015261471c81856137bb565b905061472b60808301846144c5565b9695505050505050565b6000608082019050818103600083015261474f818761355f565b9050818103602083015261476381866136a7565b905081810360408301526147778185613632565b9050818103606083015261478b81846135bd565b905095945050505050565b60006020820190506147ab6000830184613723565b92915050565b60006080820190506147c66000830187613723565b6147d36020830186613723565b6147e060408301856144c5565b6147ed6060830184613550565b95945050505050565b600060608201905061480b6000830186613723565b61481860208301856144c5565b6148256040830184613714565b949350505050565b60006080820190506148426000830187613723565b61484f60208301866144d4565b61485c6040830185613723565b6148696060830184613723565b95945050505050565b6000602082019050614887600083018461384a565b92915050565b60006020820190506148a26000830184613859565b92915050565b60006020820190506148bd6000830184613868565b92915050565b600060208201905081810360008301526148dd81846138f8565b905092915050565b600060208201905081810360008301526148fe816139c0565b9050919050565b6000602082019050818103600083015261491e81613a4c565b9050919050565b6000602082019050818103600083015261493e81613ab2565b9050919050565b6000602082019050818103600083015261495e81613b3e565b9050919050565b6000602082019050818103600083015261497e81613be4565b9050919050565b6000602082019050818103600083015261499e81613c4a565b9050919050565b600060208201905081810360008301526149be81613cf0565b9050919050565b600060208201905081810360008301526149de81613d7c565b9050919050565b600060208201905081810360008301526149fe81613eae565b9050919050565b60006020820190508181036000830152614a1e81613f14565b9050919050565b60006020820190508181036000830152614a3e81613fa0565b9050919050565b60006020820190508181036000830152614a5e81614006565b9050919050565b60006020820190508181036000830152614a7e81614092565b9050919050565b60006020820190508181036000830152614a9e8161411e565b9050919050565b60006020820190508181036000830152614abe81614184565b9050919050565b60006020820190508181036000830152614ade81614210565b9050919050565b60006020820190508181036000830152614afe81614276565b9050919050565b60006020820190508181036000830152614b1e816142dc565b9050919050565b60006020820190508181036000830152614b3e81614342565b9050919050565b60006020820190508181036000830152614b5e816143a8565b9050919050565b60006020820190508181036000830152614b7e816143e8565b9050919050565b6000606082019050614b9a6000830184614474565b92915050565b6000602082019050614bb560008301846144c5565b92915050565b600061012082019050614bd1600083018c6144c5565b614bde602083018b613532565b8181036040830152614bf0818a61355f565b90508181036060830152614c0481896136a7565b90508181036080830152614c188188613632565b905081810360a0830152614c2c81876135bd565b9050614c3b60c08301866144c5565b614c4860e08301856144c5565b818103610100830152614c5b8184613886565b90509a9950505050505050505050565b600061012082019050614c81600083018c6144c5565b614c8e602083018b613550565b614c9b604083018a6144c5565b614ca860608301896144c5565b614cb560808301886144c5565b614cc260a08301876144c5565b614ccf60c08301866144c5565b614cdc60e0830185613714565b614cea610100830184613714565b9a9950505050505050505050565b6000604082019050614d0d60008301856144c5565b614d1a60208301846144c5565b9392505050565b6000604051905081810181811067ffffffffffffffff82111715614d4457600080fd5b8060405250919050565b600067ffffffffffffffff821115614d6557600080fd5b602082029050602081019050919050565b600067ffffffffffffffff821115614d8d57600080fd5b602082029050602081019050919050565b600067ffffffffffffffff821115614db557600080fd5b602082029050602081019050919050565b600067ffffffffffffffff821115614ddd57600080fd5b602082029050602081019050919050565b600067ffffffffffffffff821115614e0557600080fd5b601f19601f8301169050602081019050919050565b600067ffffffffffffffff821115614e3157600080fd5b601f19601f8301169050602081019050919050565b600067ffffffffffffffff821115614e5d57600080fd5b601f19601f8301169050602081019050919050565b600067ffffffffffffffff821115614e8957600080fd5b601f19601f8301169050602081019050919050565b6000819050602082019050919050565b6000819050602082019050919050565b6000819050602082019050919050565b6000819050602082019050919050565b60008190508160005260206000209050919050565b60008190508160005260206000209050919050565b600081519050919050565b600081519050919050565b600081519050919050565b600081519050919050565b600081519050919050565b600081519050919050565b600081519050919050565b600081519050919050565b6000602082019050919050565b6000602082019050919050565b6000602082019050919050565b6000602082019050919050565b600082825260208201905092915050565b600082825260208201905092915050565b600082825260208201905092915050565b600082825260208201905092915050565b600082825260208201905092915050565b600082825260208201905092915050565b600082825260208201905092915050565b600082825260208201905092915050565b600081905092915050565b600061503282615062565b9050919050565b60008115159050919050565b6000819050919050565b600081905061505d826151c2565b919050565b600073ffffffffffffffffffffffffffffffffffffffff82169050919050565b6000819050919050565b600060ff82169050919050565b60006bffffffffffffffffffffffff82169050919050565b60006150bc8261512f565b9050919050565b60006150ce826150d5565b9050919050565b60006150e082615062565b9050919050565b60006150f2826150f9565b9050919050565b600061510482615062565b9050919050565b60006151168261504f565b9050919050565b600061512882615082565b9050919050565b600061513a82615141565b9050919050565b600061514c82615062565b9050919050565b600061515e82615099565b9050919050565b82818337600083830152505050565b60005b83811015615192578082015181840152602081019050615177565b838111156151a1576000848401525b50505050565b6000819050919050565b6000601f19601f8301169050919050565b600881106151cc57fe5b50565b6151d881615027565b81146151e357600080fd5b50565b6151ef81615039565b81146151fa57600080fd5b50565b61520681615045565b811461521157600080fd5b50565b61521d81615082565b811461522857600080fd5b50565b6152348161508c565b811461523f57600080fd5b50565b61524b81615099565b811461525657600080fd5b5056fea365627a7a723158206a297cc55096664995d5623d55325edbb120b05eba1e52b379882b3a584420a06c6578706572696d656e74616cf564736f6c63430005100040",
  "source": "/**\r\n *Submitted for verification at Etherscan.io on 2020-03-04\r\n*/\r\n\r\npragma solidity ^0.5.16;\r\npragma experimental ABIEncoderV2;\r\n\r\ncontract SenateAlpha {\r\n    /// @notice The name of this contract\r\n    string public constant name = \"Rubicon Senate Alpha\";\r\n\r\n    /// @notice The number of votes in support of a proposal required in order for a quorum to be reached and for a vote to succeed\r\n    function quorumVotes() public pure returns (uint) { return 400000e18; } // 400,000 = 4% of RBCN\r\n\r\n    /// @notice The number of votes required in order for a voter to become a proposer\r\n    function proposalThreshold() public pure returns (uint) { return 100000e18; } // 100,000 = 1% of RBCN\r\n\r\n    /// @notice The maximum number of actions that can be included in a proposal\r\n    function proposalMaxOperations() public pure returns (uint) { return 10; } // 10 actions\r\n\r\n    /// @notice The delay before voting on a proposal may take place, once proposed\r\n    function votingDelay() public pure returns (uint) { return 1; } // 1 block\r\n\r\n    /// @notice The duration of voting on a proposal, in blocks\r\n    /// @notice LOWERED FOR TESTING PURPOSES NOT LAUNCH READY\r\n    function votingPeriod() public pure returns (uint) { return 1; } // ~3 days in blocks (assuming 15s blocks)\r\n\r\n    /// @notice The address of the Rubicon Protocol Timelock\r\n    TimelockInterface public timelock;\r\n\r\n    /// @notice The address of the Rubicon governance token\r\n    RBCNInterface public RBCN;\r\n\r\n    /// @notice The address of the Senate Guardian\r\n    address public guardian;\r\n\r\n    /// @notice The total number of proposals\r\n    uint public proposalCount;\r\n\r\n    struct Proposal {\r\n        /// @notice Unique id for looking up a proposal\r\n        uint id;\r\n\r\n        /// @notice Creator of the proposal\r\n        address proposer;\r\n\r\n        /// @notice The timestamp that the proposal will be available for execution, set once the vote succeeds\r\n        uint eta;\r\n\r\n        /// @notice the ordered list of target addresses for calls to be made\r\n        address[] targets;\r\n\r\n        /// @notice The ordered list of values (i.e. msg.value) to be passed to the calls to be made\r\n        uint[] values;\r\n\r\n        /// @notice The ordered list of function signatures to be called\r\n        string[] signatures;\r\n\r\n        /// @notice The ordered list of calldata to be passed to each call\r\n        bytes[] calldatas;\r\n\r\n        /// @notice The block at which voting begins: holders must delegate their votes prior to this block\r\n        uint startBlock;\r\n\r\n        /// @notice The block at which voting ends: votes must be cast prior to this block\r\n        uint endBlock;\r\n\r\n        /// @notice Current number of votes in favor of this proposal\r\n        uint forVotes;\r\n\r\n        /// @notice Current number of votes in opposition to this proposal\r\n        uint againstVotes;\r\n\r\n        /// @notice Flag marking whether the proposal has been canceled\r\n        bool canceled;\r\n\r\n        /// @notice Flag marking whether the proposal has been executed\r\n        bool executed;\r\n\r\n        /// @notice Receipts of ballots for the entire set of voters\r\n        mapping (address => Receipt) receipts;\r\n    }\r\n\r\n    /// @notice Ballot receipt record for a voter\r\n    struct Receipt {\r\n        /// @notice Whether or not a vote has been cast\r\n        bool hasVoted;\r\n\r\n        /// @notice Whether or not the voter supports the proposal\r\n        bool support;\r\n\r\n        /// @notice The number of votes the voter had, which were cast\r\n        uint96 votes;\r\n    }\r\n\r\n    /// @notice Possible states that a proposal may be in\r\n    enum ProposalState {\r\n        Pending,\r\n        Active,\r\n        Canceled,\r\n        Defeated,\r\n        Succeeded,\r\n        Queued,\r\n        Expired,\r\n        Executed\r\n    }\r\n\r\n    /// @notice The official record of all proposals ever proposed\r\n    mapping (uint => Proposal) public proposals;\r\n\r\n    /// @notice The latest proposal for each proposer\r\n    mapping (address => uint) public latestProposalIds;\r\n\r\n    /// @notice The EIP-712 typehash for the contract's domain\r\n    bytes32 public constant DOMAIN_TYPEHASH = keccak256(\"EIP712Domain(string name,uint256 chainId,address verifyingContract)\");\r\n\r\n    /// @notice The EIP-712 typehash for the ballot struct used by the contract\r\n    bytes32 public constant BALLOT_TYPEHASH = keccak256(\"Ballot(uint256 proposalId,bool support)\");\r\n\r\n    /// @notice An event emitted when a new proposal is created\r\n    event ProposalCreated(uint id, address proposer, address[] targets, uint[] values, string[] signatures, bytes[] calldatas, uint startBlock, uint endBlock, string description);\r\n\r\n    /// @notice An event emitted when a vote has been cast on a proposal\r\n    event VoteCast(address voter, uint proposalId, bool support, uint votes);\r\n\r\n    /// @notice An event emitted when a proposal has been canceled\r\n    event ProposalCanceled(uint id);\r\n\r\n    /// @notice An event emitted when a proposal has been queued in the Timelock\r\n    event ProposalQueued(uint id, uint eta);\r\n\r\n    /// @notice An event emitted when a proposal has been executed in the Timelock\r\n    event ProposalExecuted(uint id);\r\n\r\n    constructor(address timelock_, address RBCN_, address guardian_) public {\r\n        timelock = TimelockInterface(timelock_);\r\n        RBCN = RBCNInterface(RBCN_);\r\n        guardian = guardian_;\r\n    }\r\n\r\n    function propose(address[] memory targets, uint[] memory values, string[] memory signatures, bytes[] memory calldatas, string memory description) public returns (uint) {\r\n        require(RBCN.getPriorVotes(msg.sender, sub256(block.number, 1)) > proposalThreshold(), \"SenateAlpha::propose: proposer votes below proposal threshold\");\r\n        require(targets.length == values.length && targets.length == signatures.length && targets.length == calldatas.length, \"SenateAlpha::propose: proposal function information arity mismatch\");\r\n        require(targets.length != 0, \"SenateAlpha::propose: must provide actions\");\r\n        require(targets.length <= proposalMaxOperations(), \"SenateAlpha::propose: too many actions\");\r\n\r\n        uint latestProposalId = latestProposalIds[msg.sender];\r\n        if (latestProposalId != 0) {\r\n          ProposalState proposersLatestProposalState = state(latestProposalId);\r\n          require(proposersLatestProposalState != ProposalState.Active, \"SenateAlpha::propose: one live proposal per proposer, found an already active proposal\");\r\n          require(proposersLatestProposalState != ProposalState.Pending, \"SenateAlpha::propose: one live proposal per proposer, found an already pending proposal\");\r\n        }\r\n\r\n        uint startBlock = add256(block.number, votingDelay());\r\n        uint endBlock = add256(startBlock, votingPeriod());\r\n\r\n        proposalCount++;\r\n        Proposal memory newProposal = Proposal({\r\n            id: proposalCount,\r\n            proposer: msg.sender,\r\n            eta: 0,\r\n            targets: targets,\r\n            values: values,\r\n            signatures: signatures,\r\n            calldatas: calldatas,\r\n            startBlock: startBlock,\r\n            endBlock: endBlock,\r\n            forVotes: 0,\r\n            againstVotes: 0,\r\n            canceled: false,\r\n            executed: false\r\n        });\r\n\r\n        proposals[newProposal.id] = newProposal;\r\n        latestProposalIds[newProposal.proposer] = newProposal.id;\r\n\r\n        emit ProposalCreated(newProposal.id, msg.sender, targets, values, signatures, calldatas, startBlock, endBlock, description);\r\n        return newProposal.id;\r\n    }\r\n\r\n    function queue(uint proposalId) public {\r\n        require(state(proposalId) == ProposalState.Succeeded, \"SenateAlpha::queue: proposal can only be queued if it is succeeded\");\r\n        Proposal storage proposal = proposals[proposalId];\r\n        uint eta = add256(block.timestamp, timelock.delay());\r\n        for (uint i = 0; i < proposal.targets.length; i++) {\r\n            _queueOrRevert(proposal.targets[i], proposal.values[i], proposal.signatures[i], proposal.calldatas[i], eta);\r\n        }\r\n        proposal.eta = eta;\r\n        emit ProposalQueued(proposalId, eta);\r\n    }\r\n\r\n    function _queueOrRevert(address target, uint value, string memory signature, bytes memory data, uint eta) internal {\r\n        require(!timelock.queuedTransactions(keccak256(abi.encode(target, value, signature, data, eta))), \"SenateAlpha::_queueOrRevert: proposal action already queued at eta\");\r\n        timelock.queueTransaction(target, value, signature, data, eta);\r\n    }\r\n\r\n    function execute(uint proposalId) public payable {\r\n        require(state(proposalId) == ProposalState.Queued, \"SenateAlpha::execute: proposal can only be executed if it is queued\");\r\n        Proposal storage proposal = proposals[proposalId];\r\n        proposal.executed = true;\r\n        for (uint i = 0; i < proposal.targets.length; i++) {\r\n            timelock.executeTransaction.value(proposal.values[i])(proposal.targets[i], proposal.values[i], proposal.signatures[i], proposal.calldatas[i], proposal.eta);\r\n        }\r\n        emit ProposalExecuted(proposalId);\r\n    }\r\n\r\n    function cancel(uint proposalId) public {\r\n        ProposalState state = state(proposalId);\r\n        require(state != ProposalState.Executed, \"SenateAlpha::cancel: cannot cancel executed proposal\");\r\n\r\n        Proposal storage proposal = proposals[proposalId];\r\n        require(msg.sender == guardian || RBCN.getPriorVotes(proposal.proposer, sub256(block.number, 1)) < proposalThreshold(), \"SenateAlpha::cancel: proposer above threshold\");\r\n\r\n        proposal.canceled = true;\r\n        for (uint i = 0; i < proposal.targets.length; i++) {\r\n            timelock.cancelTransaction(proposal.targets[i], proposal.values[i], proposal.signatures[i], proposal.calldatas[i], proposal.eta);\r\n        }\r\n\r\n        emit ProposalCanceled(proposalId);\r\n    }\r\n\r\n    function getActions(uint proposalId) public view returns (address[] memory targets, uint[] memory values, string[] memory signatures, bytes[] memory calldatas) {\r\n        Proposal storage p = proposals[proposalId];\r\n        return (p.targets, p.values, p.signatures, p.calldatas);\r\n    }\r\n\r\n    function getReceipt(uint proposalId, address voter) public view returns (Receipt memory) {\r\n        return proposals[proposalId].receipts[voter];\r\n    }\r\n\r\n    function state(uint proposalId) public view returns (ProposalState) {\r\n        require(proposalCount >= proposalId && proposalId > 0, \"SenateAlpha::state: invalid proposal id\");\r\n        Proposal storage proposal = proposals[proposalId];\r\n        if (proposal.canceled) {\r\n            return ProposalState.Canceled;\r\n        } else if (block.number <= proposal.startBlock) {\r\n            return ProposalState.Pending;\r\n        } else if (block.number <= proposal.endBlock) {\r\n            return ProposalState.Active;\r\n        } else if (proposal.forVotes <= proposal.againstVotes || proposal.forVotes < quorumVotes()) {\r\n            return ProposalState.Defeated;\r\n        } else if (proposal.eta == 0) {\r\n            return ProposalState.Succeeded;\r\n        } else if (proposal.executed) {\r\n            return ProposalState.Executed;\r\n        } else if (block.timestamp >= add256(proposal.eta, timelock.GRACE_PERIOD())) {\r\n            return ProposalState.Expired;\r\n        } else {\r\n            return ProposalState.Queued;\r\n        }\r\n    }\r\n\r\n    function castVote(uint proposalId, bool support) public {\r\n        return _castVote(msg.sender, proposalId, support);\r\n    }\r\n\r\n    function castVoteBySig(uint proposalId, bool support, uint8 v, bytes32 r, bytes32 s) public {\r\n        bytes32 domainSeparator = keccak256(abi.encode(DOMAIN_TYPEHASH, keccak256(bytes(name)), getChainId(), address(this)));\r\n        bytes32 structHash = keccak256(abi.encode(BALLOT_TYPEHASH, proposalId, support));\r\n        bytes32 digest = keccak256(abi.encodePacked(\"\\x19\\x01\", domainSeparator, structHash));\r\n        address signatory = ecrecover(digest, v, r, s);\r\n        require(signatory != address(0), \"SenateAlpha::castVoteBySig: invalid signature\");\r\n        return _castVote(signatory, proposalId, support);\r\n    }\r\n\r\n    function _castVote(address voter, uint proposalId, bool support) internal {\r\n        require(state(proposalId) == ProposalState.Active, \"SenateAlpha::_castVote: voting is closed\");\r\n        Proposal storage proposal = proposals[proposalId];\r\n        Receipt storage receipt = proposal.receipts[voter];\r\n        require(receipt.hasVoted == false, \"SenateAlpha::_castVote: voter already voted\");\r\n        uint96 votes = RBCN.getPriorVotes(voter, proposal.startBlock);\r\n\r\n        if (support) {\r\n            proposal.forVotes = add256(proposal.forVotes, votes);\r\n        } else {\r\n            proposal.againstVotes = add256(proposal.againstVotes, votes);\r\n        }\r\n\r\n        receipt.hasVoted = true;\r\n        receipt.support = support;\r\n        receipt.votes = votes;\r\n\r\n        emit VoteCast(voter, proposalId, support, votes);\r\n    }\r\n\r\n    function __acceptAdmin() public {\r\n        require(msg.sender == guardian, \"SenateAlpha::__acceptAdmin: sender must be gov guardian\");\r\n        timelock.acceptAdmin();\r\n    }\r\n\r\n    function __abdicate() public {\r\n        require(msg.sender == guardian, \"SenateAlpha::__abdicate: sender must be gov guardian\");\r\n        guardian = address(0);\r\n    }\r\n\r\n    function __queueSetTimelockPendingAdmin(address newPendingAdmin, uint eta) public {\r\n        require(msg.sender == guardian, \"SenateAlpha::__queueSetTimelockPendingAdmin: sender must be gov guardian\");\r\n        timelock.queueTransaction(address(timelock), 0, \"setPendingAdmin(address)\", abi.encode(newPendingAdmin), eta);\r\n    }\r\n\r\n    function __executeSetTimelockPendingAdmin(address newPendingAdmin, uint eta) public {\r\n        require(msg.sender == guardian, \"SenateAlpha::__executeSetTimelockPendingAdmin: sender must be gov guardian\");\r\n        timelock.executeTransaction(address(timelock), 0, \"setPendingAdmin(address)\", abi.encode(newPendingAdmin), eta);\r\n    }\r\n\r\n    function add256(uint256 a, uint256 b) internal pure returns (uint) {\r\n        uint c = a + b;\r\n        require(c >= a, \"addition overflow\");\r\n        return c;\r\n    }\r\n\r\n    function sub256(uint256 a, uint256 b) internal pure returns (uint) {\r\n        require(b <= a, \"subtraction underflow\");\r\n        return a - b;\r\n    }\r\n\r\n    function getChainId() internal pure returns (uint) {\r\n        uint chainId;\r\n        assembly { chainId := chainid() }\r\n        return chainId;\r\n    }\r\n}\r\n\r\ninterface TimelockInterface {\r\n    function delay() external view returns (uint);\r\n    function GRACE_PERIOD() external view returns (uint);\r\n    function acceptAdmin() external;\r\n    function queuedTransactions(bytes32 hash) external view returns (bool);\r\n    function queueTransaction(address target, uint value, string calldata signature, bytes calldata data, uint eta) external returns (bytes32);\r\n    function cancelTransaction(address target, uint value, string calldata signature, bytes calldata data, uint eta) external;\r\n    function executeTransaction(address target, uint value, string calldata signature, bytes calldata data, uint eta) external payable returns (bytes memory);\r\n}\r\n\r\ninterface RBCNInterface {\r\n    function getPriorVotes(address account, uint blockNumber) external view returns (uint96);\r\n}\r\n",
  "sourcePath": "/mnt/c/Users/Benjamin Hughes/workspace/rubicon/rubicon_protocol/contracts/SenateAlpha.sol",
  "compiler": {
    "name": "solc",
    "version": "0.5.16+commit.9c3226ce.Emscripten.clang"
  },
  "schemaVersion": "3.1.0",
  "updatedAt": "2020-10-07T18:38:03.861Z",
  "devdoc": {
    "methods": {}
  },
  "userdoc": {
    "methods": {
      "proposalMaxOperations()": {
        "notice": "The maximum number of actions that can be included in a proposal"
      },
      "proposalThreshold()": {
        "notice": "The number of votes required in order for a voter to become a proposer"
      },
      "quorumVotes()": {
        "notice": "The number of votes in support of a proposal required in order for a quorum to be reached and for a vote to succeed"
      },
      "votingDelay()": {
        "notice": "The delay before voting on a proposal may take place, once proposed"
      },
      "votingPeriod()": {
        "notice": "The duration of voting on a proposal, in blocksLOWERED FOR TESTING PURPOSES NOT LAUNCH READY"
      }
    }
  }
}